{
  "address": "0xAdb7FBD47Dd64C2e95359Da224cE15EF4B301e5A",
  "abi": [
    {
      "inputs": [
        {
          "components": [
            {
              "internalType": "contract IERC20",
              "name": "stakingToken",
              "type": "address"
            },
            {
              "internalType": "contract AllianceRegistry",
              "name": "allianceRegistry",
              "type": "address"
            },
            {
              "internalType": "bytes32",
              "name": "genesis",
              "type": "bytes32"
            },
            {
              "internalType": "uint256",
              "name": "resolveWindow",
              "type": "uint256"
            },
            {
              "internalType": "uint256",
              "name": "timePerDistance",
              "type": "uint256"
            },
            {
              "internalType": "uint256",
              "name": "exitDuration",
              "type": "uint256"
            },
            {
              "internalType": "uint32",
              "name": "acquireNumSpaceships",
              "type": "uint32"
            },
            {
              "internalType": "uint32",
              "name": "productionSpeedUp",
              "type": "uint32"
            },
            {
              "internalType": "uint256",
              "name": "frontrunningDelay",
              "type": "uint256"
            },
            {
              "internalType": "uint256",
              "name": "productionCapAsDuration",
              "type": "uint256"
            },
            {
              "internalType": "uint256",
              "name": "upkeepProductionDecreaseRatePer10000th",
              "type": "uint256"
            },
            {
              "internalType": "uint256",
              "name": "fleetSizeFactor6",
              "type": "uint256"
            }
          ],
          "internalType": "struct OuterSpaceFacetBase.Config",
          "name": "config",
          "type": "tuple"
        }
      ],
      "stateMutability": "nonpayable",
      "type": "constructor"
    },
    {
      "anonymous": false,
      "inputs": [
        {
          "indexed": true,
          "internalType": "address",
          "name": "owner",
          "type": "address"
        },
        {
          "indexed": true,
          "internalType": "address",
          "name": "operator",
          "type": "address"
        },
        {
          "indexed": false,
          "internalType": "bool",
          "name": "approved",
          "type": "bool"
        }
      ],
      "name": "ApprovalForAll",
      "type": "event"
    },
    {
      "anonymous": false,
      "inputs": [
        {
          "indexed": true,
          "internalType": "address",
          "name": "owner",
          "type": "address"
        },
        {
          "indexed": true,
          "internalType": "uint256",
          "name": "location",
          "type": "uint256"
        },
        {
          "indexed": false,
          "internalType": "uint256",
          "name": "stake",
          "type": "uint256"
        }
      ],
      "name": "ExitComplete",
      "type": "event"
    },
    {
      "anonymous": false,
      "inputs": [
        {
          "indexed": true,
          "internalType": "uint256",
          "name": "fleet",
          "type": "uint256"
        },
        {
          "indexed": true,
          "internalType": "address",
          "name": "fleetOwner",
          "type": "address"
        },
        {
          "indexed": true,
          "internalType": "address",
          "name": "destinationOwner",
          "type": "address"
        },
        {
          "indexed": false,
          "internalType": "uint256",
          "name": "destination",
          "type": "uint256"
        },
        {
          "indexed": false,
          "internalType": "bool",
          "name": "gift",
          "type": "bool"
        },
        {
          "indexed": false,
          "internalType": "uint32",
          "name": "fleetLoss",
          "type": "uint32"
        },
        {
          "indexed": false,
          "internalType": "uint32",
          "name": "planetLoss",
          "type": "uint32"
        },
        {
          "indexed": false,
          "internalType": "uint32",
          "name": "inFlightFleetLoss",
          "type": "uint32"
        },
        {
          "indexed": false,
          "internalType": "uint32",
          "name": "inFlightPlanetLoss",
          "type": "uint32"
        },
        {
          "indexed": false,
          "internalType": "bool",
          "name": "won",
          "type": "bool"
        },
        {
          "indexed": false,
          "internalType": "uint32",
          "name": "newNumspaceships",
          "type": "uint32"
        },
        {
          "indexed": false,
          "internalType": "int40",
          "name": "newTravelingUpkeep",
          "type": "int40"
        },
        {
          "indexed": false,
          "internalType": "uint32",
          "name": "newOverflow",
          "type": "uint32"
        },
        {
          "indexed": false,
          "internalType": "uint32",
          "name": "accumulatedDefenseAdded",
          "type": "uint32"
        },
        {
          "indexed": false,
          "internalType": "uint32",
          "name": "accumulatedAttackAdded",
          "type": "uint32"
        }
      ],
      "name": "FleetArrived",
      "type": "event"
    },
    {
      "anonymous": false,
      "inputs": [
        {
          "indexed": true,
          "internalType": "address",
          "name": "fleetSender",
          "type": "address"
        },
        {
          "indexed": true,
          "internalType": "address",
          "name": "fleetOwner",
          "type": "address"
        },
        {
          "indexed": true,
          "internalType": "uint256",
          "name": "from",
          "type": "uint256"
        },
        {
          "indexed": false,
          "internalType": "address",
          "name": "operator",
          "type": "address"
        },
        {
          "indexed": false,
          "internalType": "uint256",
          "name": "fleet",
          "type": "uint256"
        },
        {
          "indexed": false,
          "internalType": "uint32",
          "name": "quantity",
          "type": "uint32"
        },
        {
          "indexed": false,
          "internalType": "uint32",
          "name": "newNumSpaceships",
          "type": "uint32"
        },
        {
          "indexed": false,
          "internalType": "int40",
          "name": "newTravelingUpkeep",
          "type": "int40"
        },
        {
          "indexed": false,
          "internalType": "uint32",
          "name": "newOverflow",
          "type": "uint32"
        }
      ],
      "name": "FleetSent",
      "type": "event"
    },
    {
      "anonymous": false,
      "inputs": [
        {
          "indexed": false,
          "internalType": "uint32",
          "name": "minX",
          "type": "uint32"
        },
        {
          "indexed": false,
          "internalType": "uint32",
          "name": "maxX",
          "type": "uint32"
        },
        {
          "indexed": false,
          "internalType": "uint32",
          "name": "minY",
          "type": "uint32"
        },
        {
          "indexed": false,
          "internalType": "uint32",
          "name": "maxY",
          "type": "uint32"
        },
        {
          "indexed": false,
          "internalType": "bytes32",
          "name": "genesis",
          "type": "bytes32"
        }
      ],
      "name": "Initialized",
      "type": "event"
    },
    {
      "anonymous": false,
      "inputs": [
        {
          "indexed": true,
          "internalType": "address",
          "name": "owner",
          "type": "address"
        },
        {
          "indexed": true,
          "internalType": "uint256",
          "name": "location",
          "type": "uint256"
        }
      ],
      "name": "PlanetExit",
      "type": "event"
    },
    {
      "anonymous": false,
      "inputs": [
        {
          "indexed": true,
          "internalType": "uint256",
          "name": "location",
          "type": "uint256"
        }
      ],
      "name": "PlanetReset",
      "type": "event"
    },
    {
      "anonymous": false,
      "inputs": [
        {
          "indexed": true,
          "internalType": "address",
          "name": "acquirer",
          "type": "address"
        },
        {
          "indexed": true,
          "internalType": "uint256",
          "name": "location",
          "type": "uint256"
        },
        {
          "indexed": false,
          "internalType": "uint32",
          "name": "numSpaceships",
          "type": "uint32"
        },
        {
          "indexed": false,
          "internalType": "int40",
          "name": "travelingUpkeep",
          "type": "int40"
        },
        {
          "indexed": false,
          "internalType": "uint32",
          "name": "overflow",
          "type": "uint32"
        },
        {
          "indexed": false,
          "internalType": "uint256",
          "name": "stake",
          "type": "uint256"
        }
      ],
      "name": "PlanetStake",
      "type": "event"
    },
    {
      "anonymous": false,
      "inputs": [
        {
          "indexed": true,
          "internalType": "uint256",
          "name": "location",
          "type": "uint256"
        },
        {
          "indexed": true,
          "internalType": "address",
          "name": "giver",
          "type": "address"
        },
        {
          "indexed": false,
          "internalType": "uint256",
          "name": "rewardId",
          "type": "uint256"
        }
      ],
      "name": "RewardSetup",
      "type": "event"
    },
    {
      "anonymous": false,
      "inputs": [
        {
          "indexed": true,
          "internalType": "address",
          "name": "owner",
          "type": "address"
        },
        {
          "indexed": true,
          "internalType": "uint256",
          "name": "location",
          "type": "uint256"
        },
        {
          "indexed": true,
          "internalType": "uint256",
          "name": "rewardId",
          "type": "uint256"
        }
      ],
      "name": "RewardToWithdraw",
      "type": "event"
    },
    {
      "anonymous": false,
      "inputs": [
        {
          "indexed": true,
          "internalType": "address",
          "name": "owner",
          "type": "address"
        },
        {
          "indexed": false,
          "internalType": "uint256",
          "name": "newStake",
          "type": "uint256"
        }
      ],
      "name": "StakeToWithdraw",
      "type": "event"
    },
    {
      "anonymous": false,
      "inputs": [
        {
          "indexed": true,
          "internalType": "address",
          "name": "from",
          "type": "address"
        },
        {
          "indexed": true,
          "internalType": "address",
          "name": "to",
          "type": "address"
        },
        {
          "indexed": true,
          "internalType": "uint256",
          "name": "location",
          "type": "uint256"
        }
      ],
      "name": "Transfer",
      "type": "event"
    },
    {
      "anonymous": false,
      "inputs": [
        {
          "indexed": true,
          "internalType": "uint256",
          "name": "origin",
          "type": "uint256"
        },
        {
          "indexed": true,
          "internalType": "uint256",
          "name": "fleet",
          "type": "uint256"
        },
        {
          "indexed": false,
          "internalType": "uint32",
          "name": "newNumspaceships",
          "type": "uint32"
        },
        {
          "indexed": false,
          "internalType": "int40",
          "name": "newTravelingUpkeep",
          "type": "int40"
        },
        {
          "indexed": false,
          "internalType": "uint32",
          "name": "newOverflow",
          "type": "uint32"
        }
      ],
      "name": "TravelingUpkeepReductionFromDestruction",
      "type": "event"
    },
    {
      "inputs": [
        {
          "internalType": "uint256",
          "name": "location",
          "type": "uint256"
        }
      ],
      "name": "getPlanet",
      "outputs": [
        {
          "components": [
            {
              "internalType": "address",
              "name": "owner",
              "type": "address"
            },
            {
              "internalType": "uint40",
              "name": "ownershipStartTime",
              "type": "uint40"
            },
            {
              "internalType": "uint40",
              "name": "exitStartTime",
              "type": "uint40"
            },
            {
              "internalType": "uint32",
              "name": "numSpaceships",
              "type": "uint32"
            },
            {
              "internalType": "uint32",
              "name": "overflow",
              "type": "uint32"
            },
            {
              "internalType": "uint40",
              "name": "lastUpdated",
              "type": "uint40"
            },
            {
              "internalType": "bool",
              "name": "active",
              "type": "bool"
            },
            {
              "internalType": "uint256",
              "name": "reward",
              "type": "uint256"
            }
          ],
          "internalType": "struct ImportingOuterSpaceTypes.ExternalPlanet",
          "name": "state",
          "type": "tuple"
        },
        {
          "components": [
            {
              "internalType": "int8",
              "name": "subX",
              "type": "int8"
            },
            {
              "internalType": "int8",
              "name": "subY",
              "type": "int8"
            },
            {
              "internalType": "uint16",
              "name": "stake",
              "type": "uint16"
            },
            {
              "internalType": "uint16",
              "name": "production",
              "type": "uint16"
            },
            {
              "internalType": "uint16",
              "name": "attack",
              "type": "uint16"
            },
            {
              "internalType": "uint16",
              "name": "defense",
              "type": "uint16"
            },
            {
              "internalType": "uint16",
              "name": "speed",
              "type": "uint16"
            },
            {
              "internalType": "uint16",
              "name": "natives",
              "type": "uint16"
            }
          ],
          "internalType": "struct ImportingOuterSpaceTypes.PlanetStats",
          "name": "stats",
          "type": "tuple"
        }
      ],
      "stateMutability": "view",
      "type": "function"
    },
    {
      "inputs": [
        {
          "internalType": "uint256",
          "name": "location",
          "type": "uint256"
        }
      ],
      "name": "getPlanetState",
      "outputs": [
        {
          "components": [
            {
              "internalType": "address",
              "name": "owner",
              "type": "address"
            },
            {
              "internalType": "uint40",
              "name": "ownershipStartTime",
              "type": "uint40"
            },
            {
              "internalType": "uint40",
              "name": "exitStartTime",
              "type": "uint40"
            },
            {
              "internalType": "uint32",
              "name": "numSpaceships",
              "type": "uint32"
            },
            {
              "internalType": "uint40",
              "name": "lastUpdated",
              "type": "uint40"
            },
            {
              "internalType": "int40",
              "name": "travelingUpkeep",
              "type": "int40"
            },
            {
              "internalType": "uint32",
              "name": "overflow",
              "type": "uint32"
            }
          ],
          "internalType": "struct ImportingOuterSpaceTypes.Planet",
          "name": "state",
          "type": "tuple"
        }
      ],
      "stateMutability": "view",
      "type": "function"
    },
    {
      "inputs": [
        {
          "internalType": "address",
          "name": "owner",
          "type": "address"
        },
        {
          "internalType": "address",
          "name": "operator",
          "type": "address"
        }
      ],
      "name": "isApprovedForAll",
      "outputs": [
        {
          "internalType": "bool",
          "name": "",
          "type": "bool"
        }
      ],
      "stateMutability": "view",
      "type": "function"
    },
    {
      "inputs": [
        {
          "internalType": "uint256",
          "name": "location",
          "type": "uint256"
        }
      ],
      "name": "ownerAndOwnershipStartTimeOf",
      "outputs": [
        {
          "internalType": "address",
          "name": "owner",
          "type": "address"
        },
        {
          "internalType": "uint40",
          "name": "ownershipStartTime",
          "type": "uint40"
        }
      ],
      "stateMutability": "view",
      "type": "function"
    },
    {
      "inputs": [
        {
          "internalType": "uint256",
          "name": "location",
          "type": "uint256"
        }
      ],
      "name": "ownerOf",
      "outputs": [
        {
          "internalType": "address",
          "name": "currentOwner",
          "type": "address"
        }
      ],
      "stateMutability": "view",
      "type": "function"
    },
    {
      "inputs": [
        {
          "internalType": "address",
          "name": "from",
          "type": "address"
        },
        {
          "internalType": "address",
          "name": "to",
          "type": "address"
        },
        {
          "internalType": "uint256",
          "name": "location",
          "type": "uint256"
        }
      ],
      "name": "safeTransferFrom",
      "outputs": [],
      "stateMutability": "nonpayable",
      "type": "function"
    },
    {
      "inputs": [
        {
          "internalType": "address",
          "name": "from",
          "type": "address"
        },
        {
          "internalType": "address",
          "name": "to",
          "type": "address"
        },
        {
          "internalType": "uint256",
          "name": "location",
          "type": "uint256"
        },
        {
          "internalType": "bytes",
          "name": "data",
          "type": "bytes"
        }
      ],
      "name": "safeTransferFrom",
      "outputs": [],
      "stateMutability": "nonpayable",
      "type": "function"
    },
    {
      "inputs": [
        {
          "internalType": "address",
          "name": "operator",
          "type": "address"
        },
        {
          "internalType": "bool",
          "name": "approved",
          "type": "bool"
        }
      ],
      "name": "setApprovalForAll",
      "outputs": [],
      "stateMutability": "nonpayable",
      "type": "function"
    },
    {
      "inputs": [
        {
          "internalType": "contract IApprovalReceiver",
          "name": "operator",
          "type": "address"
        },
        {
          "internalType": "bytes",
          "name": "data",
          "type": "bytes"
        }
      ],
      "name": "setApprovalForAllIfNeededAndCall",
      "outputs": [],
      "stateMutability": "nonpayable",
      "type": "function"
    },
    {
      "inputs": [
        {
          "internalType": "address",
          "name": "from",
          "type": "address"
        },
        {
          "internalType": "address",
          "name": "to",
          "type": "address"
        },
        {
          "internalType": "uint256",
          "name": "location",
          "type": "uint256"
        }
      ],
      "name": "transferFrom",
      "outputs": [],
      "stateMutability": "nonpayable",
      "type": "function"
    }
  ],
  "transactionHash": "0xb064966a8288bb7f816f08615b0b28579d93cad543f888dc2b3dbabe9611b906",
  "args": [
    {
      "stakingToken": "0xEb18a3421b24bC32DABF2e646DBD9FD827d46B1d",
      "allianceRegistry": "0x51507c1b704DEE93160A01DC56E666b7CB5A8076",
      "genesis": "0x54cfc698a2dc6796e9cf1ab3cdbcc07c54b649287b791b14c040997bdc379b34",
      "resolveWindow": 43200,
      "timePerDistance": 7200,
      "exitDuration": 259200,
      "acquireNumSpaceships": 100000,
      "productionSpeedUp": 1,
      "frontrunningDelay": 1800,
      "productionCapAsDuration": 259200,
      "upkeepProductionDecreaseRatePer10000th": 5000,
      "fleetSizeFactor6": 500000
    }
  ],
  "numDeployments": 1,
  "linkedData": {
    "genesisHash": "0x54cfc698a2dc6796e9cf1ab3cdbcc07c54b649287b791b14c040997bdc379b34",
    "resolveWindow": 43200,
    "timePerDistance": 7200,
    "exitDuration": 259200,
    "acquireNumSpaceships": 100000,
    "productionSpeedUp": 1,
    "chainGenesisHash": "",
    "frontrunningDelay": 1800,
    "productionCapAsDuration": 259200,
    "upkeepProductionDecreaseRatePer10000th": 5000,
    "fleetSizeFactor6": 500000
  },
  "solcInputHash": "54031a5456ab27c09a0d821c4b18f56f",
  "bytecode": "0x6102006040523480156200001257600080fd5b5060405162001ae838038062001ae88339810160408190526200003591620001a6565b806000600482608001516200004b919062000267565b60808301519091506200006082600462000299565b63ffffffff1614620000b85760405162461bcd60e51b815260206004820152601d60248201527f54494d455f5045525f444953545f4e4f545f444956495349424c455f34000000604482015260640160405180910390fd5b81516001600160a01b0390811660805260208301511660a0908152604083015160c0908152606084015160e090815263ffffffff938416610100908152928501516101209081529185015184166101409081529085015190931661016090815291840151610180528301516101a052908201516101c05201516101e05250620002d4565b60405161018081016001600160401b03811182821017156200016e57634e487b7160e01b600052604160045260246000fd5b60405290565b80516001600160a01b03811681146200018c57600080fd5b919050565b805163ffffffff811681146200018c57600080fd5b60006101808284031215620001ba57600080fd5b620001c46200013c565b620001cf8362000174565b8152620001df6020840162000174565b602082015260408301516040820152606083015160608201526080830151608082015260a083015160a08201526200021a60c0840162000191565b60c08201526200022d60e0840162000191565b60e0820152610100838101519082015261012080840151908201526101408084015190820152610160928301519281019290925250919050565b600063ffffffff808416806200028d57634e487b7160e01b600052601260045260246000fd5b92169190910492915050565b600063ffffffff80831681851681830481118215151615620002cb57634e487b7160e01b600052601160045260246000fd5b02949350505050565b60805160a05160c05160e05161010051610120516101405161016051610180516101a0516101c0516101e0516117a0620003486000396000505060005050600050506000505060005050600050506000610c5e015260005050600050506000610af8015260005050600050506117a06000f3fe608060405234801561001057600080fd5b50600436106100be5760003560e01c8063a22cb46511610076578063d522989e1161005b578063d522989e1461020d578063d61b2c1e146103b1578063e985e9c5146103c457600080fd5b8063a22cb465146101e7578063b88d4fde146101fa57600080fd5b806342842e0e116100a757806342842e0e146100c35780636352211e146101025780638a886cd51461015d57600080fd5b806323b872dd146100c357806334efcb8e146100d8575b600080fd5b6100d66100d13660046111ef565b6103e7565b005b6100eb6100e6366004611230565b6103f7565b6040516100f9929190611249565b60405180910390f35b610138610110366004611230565b60009081526020819052604090205473ffffffffffffffffffffffffffffffffffffffff1690565b60405173ffffffffffffffffffffffffffffffffffffffff90911681526020016100f9565b6101b561016b366004611230565b60009081526020819052604090205473ffffffffffffffffffffffffffffffffffffffff8116917401000000000000000000000000000000000000000090910464ffffffffff1690565b6040805173ffffffffffffffffffffffffffffffffffffffff909316835264ffffffffff9091166020830152016100f9565b6100d66101f5366004611363565b610586565b6100d66102083660046113ea565b61061c565b61032661021b366004611230565b6040805160e081018252600080825260208201819052918101829052606081018290526080810182905260a0810182905260c08101919091525060009081526020818152604091829020825160e081018452815473ffffffffffffffffffffffffffffffffffffffff8116825264ffffffffff74010000000000000000000000000000000000000000820481169483019490945279010000000000000000000000000000000000000000000000000090048316938101939093526001015463ffffffff8082166060850152640100000000820490921660808401526901000000000000000000810460040b60a08401526e01000000000000000000000000000090041660c082015290565b6040516100f99190600060e08201905073ffffffffffffffffffffffffffffffffffffffff8351168252602083015164ffffffffff80821660208501528060408601511660408501526060850151915063ffffffff808316606086015281608087015116608086015260a086015160040b60a08601528060c08701511660c086015250505092915050565b6100d66103bf36600461145d565b61062e565b6103d76103d23660046114b2565b610787565b60405190151581526020016100f9565b6103f28383836107c4565b505050565b6040805161010081018252600080825260208201819052918101829052606081018290526080810182905260a0810182905260c0810182905260e08101919091526040805161010081018252600080825260208201819052918101829052606081018290526080810182905260a0810182905260c0810182905260e08101919091526000838152602081905260408120600181015490915060009081906104a39063ffffffff16610a92565b6040805161010081018252865473ffffffffffffffffffffffffffffffffffffffff8116825264ffffffffff740100000000000000000000000000000000000000008204811660208085019190915279010000000000000000000000000000000000000000000000000090920481168385015263ffffffff808616606085015260018a01546e0100000000000000000000000000008104909116608085015264010000000090041660a083015284151560c083015260008b81526007909152919091205460e08201529650909250905061057c86610ab1565b9350505050915091565b33600081815260036020908152604080832073ffffffffffffffffffffffffffffffffffffffff87168085529083529281902080547fffffffffffffffffffffffffffffffffffffffffffffffffffffffffffffff00168615159081179091558151908152905184927f17307eab39ab6107e8899845ad3d59bd9653f200f220920489ca2b5937696c31928290030190a3505050565b6106278585856107c4565b5050505050565b33600081815260036020908152604080832073ffffffffffffffffffffffffffffffffffffffff8816845290915290205460ff166106f95773ffffffffffffffffffffffffffffffffffffffff81811660008181526003602090815260408083209489168084529482529182902080547fffffffffffffffffffffffffffffffffffffffffffffffffffffffffffffff0016600190811790915591519182527f17307eab39ab6107e8899845ad3d59bd9653f200f220920489ca2b5937696c31910160405180910390a35b6040517fcffb4f5100000000000000000000000000000000000000000000000000000000815273ffffffffffffffffffffffffffffffffffffffff85169063cffb4f519061074f908490879087906004016114e0565b600060405180830381600087803b15801561076957600080fd5b505af115801561077d573d6000803e3d6000fd5b5050505050505050565b73ffffffffffffffffffffffffffffffffffffffff80831660009081526003602090815260408083209385168352929052205460ff165b92915050565b73ffffffffffffffffffffffffffffffffffffffff8316610846576040517f08c379a000000000000000000000000000000000000000000000000000000000815260206004820152601060248201527f4e4f545f5a45524f5f414444524553530000000000000000000000000000000060448201526064015b60405180910390fd5b60008181526020819052604090205473ffffffffffffffffffffffffffffffffffffffff81169061089a90790100000000000000000000000000000000000000000000000000900464ffffffffff16610c46565b156108a3575060005b8373ffffffffffffffffffffffffffffffffffffffff168173ffffffffffffffffffffffffffffffffffffffff1614610938576040517f08c379a000000000000000000000000000000000000000000000000000000000815260206004820152600e60248201527f46524f4d5f4e4f545f4f574e4552000000000000000000000000000000000000604482015260640161083d565b3373ffffffffffffffffffffffffffffffffffffffff8216146109ef5773ffffffffffffffffffffffffffffffffffffffff8116600090815260036020908152604080832033845290915290205460ff166109ef576040517f08c379a000000000000000000000000000000000000000000000000000000000815260206004820152600c60248201527f4e4f545f4f50455241544f520000000000000000000000000000000000000000604482015260640161083d565b600082815260208190526040808220805473ffffffffffffffffffffffffffffffffffffffff8781167fffffffffffffff000000000000000000000000000000000000000000000000009092168217740100000000000000000000000000000000000000004264ffffffffff16021790925591518593918816917fddf252ad1be2c89b69c2b068fc378daa952ba7f163c4a11628f55a4df523b3ef91a450505050565b6380000000818116811490600090610aaa9084611579565b9050915091565b60408051610100810182526000808252602080830182905282840182905260608084018390526080840183905260a0840183905260c0840183905260e084019290925283517f00000000000000000000000000000000000000000000000000000000000000008183015280850186905284518082038601815292019093528051920191909120610b4081610c92565b610ba6576040517f08c379a000000000000000000000000000000000000000000000000000000000815260206004820152601a60248201527f6e6f20706c616e657420696e2074686973206c6f636174696f6e000000000000604482015260640161083d565b600080610bb283610cae565b915091506040518061010001604052808360000b81526020018260000b8152602001610bdd85610ce2565b61ffff168152602001610bef85610db9565b61ffff168152602001610c0185610e56565b61ffff168152602001610c1385610eed565b61ffff168152602001610c2585610f69565b61ffff168152602001610c3785611000565b61ffff16905295945050505050565b6000808264ffffffffff161180156107be5750610c8a7f000000000000000000000000000000000000000000000000000000000000000064ffffffffff84166115cb565b421192915050565b6000610ca18260346010611097565b60ff166001149050919050565b600080610cbd83826003611097565b610cc89060016115e3565b9150610cd78360026003611097565b610aaa9060016115e3565b6000610ced82610c92565b610d53576040517f08c379a000000000000000000000000000000000000000000000000000000000815260206004820152601160248201527f504c414e45545f4e4f545f455849535453000000000000000000000000000000604482015260640161083d565b6000610d6083600c6110b6565b905060ff81167e060008000a000c000e00100012001400140016001800200028003000380048610d91826002611645565b610d9c90600161166f565b61ffff1660208110610db057610db0611695565b1a949350505050565b6000610dc482610c92565b610e2a576040517f08c379a000000000000000000000000000000000000000000000000000000000815260206004820152601160248201527f504c414e45545f4e4f545f455849535453000000000000000000000000000000604482015260640161083d565b6107be82600c7f0708083409600a8c0bb80ce40e100e100e100e101068151819c81e7823282ee0611150565b6000610e6182610c92565b610ec7576040517f08c379a000000000000000000000000000000000000000000000000000000000815260206004820152601160248201527f504c414e45545f4e4f545f455849535453000000000000000000000000000000604482015260640161083d565b610ed28260146110b6565b610ee19060ff16610190611645565b6107be90610fa061166f565b6000610ef882610c92565b610f5e576040517f08c379a000000000000000000000000000000000000000000000000000000000815260206004820152601160248201527f504c414e45545f4e4f545f455849535453000000000000000000000000000000604482015260640161083d565b610ed282601c6110b6565b6000610f7482610c92565b610fda576040517f08c379a000000000000000000000000000000000000000000000000000000000815260206004820152601160248201527f504c414e45545f4e4f545f455849535453000000000000000000000000000000604482015260640161083d565b610fe58260246110b6565b610ff49060ff1661014d611645565b6107be9061138d61166f565b600061100b82610c92565b611071576040517f08c379a000000000000000000000000000000000000000000000000000000000815260206004820152601160248201527f504c414e45545f4e4f545f455849535453000000000000000000000000000000604482015260640161083d565b61107c82602c6110b6565b61108b9060ff16610bb8611645565b6107be90613a9861166f565b60006110ac60ff80841690851686901c6116c4565b90505b9392505050565b6000806110c584846040611097565b905060006110d46002836116d8565b905060006110e36002846116fa565b905060007f01223334444555555666666677777777888888889999999aaaaaabbbbcccddef60ff84166020811061111c5761111c611695565b1a905060ff821661113a5760048160ff16901c9450505050506107be565b6111456010826116fa565b9450505050506107be565b60008061115d85856110b6565b90508261116b82600261171c565b611176906001611745565b60ff166020811061118957611189611695565b1a8361119683600261171c565b60ff16602081106111a9576111a9611695565b6111b791901a610100611645565b6111c1919061166f565b95945050505050565b73ffffffffffffffffffffffffffffffffffffffff811681146111ec57600080fd5b50565b60008060006060848603121561120457600080fd5b833561120f816111ca565b9250602084013561121f816111ca565b929592945050506040919091013590565b60006020828403121561124257600080fd5b5035919050565b60006102008201905073ffffffffffffffffffffffffffffffffffffffff8451168252602084015164ffffffffff8082166020850152806040870151166040850152505060608401516112a4606084018263ffffffff169052565b5060808401516112bc608084018263ffffffff169052565b5060a08401516112d560a084018264ffffffffff169052565b5060c08401516112e960c084018215159052565b5060e084810151838201528351600090810b6101008501526020850151900b610120840152604084015161ffff908116610140850152606085015181166101608501526080850151811661018085015260a085015181166101a085015260c085015181166101c085015290840151166101e08301526110af565b6000806040838503121561137657600080fd5b8235611381816111ca565b91506020830135801515811461139657600080fd5b809150509250929050565b60008083601f8401126113b357600080fd5b50813567ffffffffffffffff8111156113cb57600080fd5b6020830191508360208285010111156113e357600080fd5b9250929050565b60008060008060006080868803121561140257600080fd5b853561140d816111ca565b9450602086013561141d816111ca565b935060408601359250606086013567ffffffffffffffff81111561144057600080fd5b61144c888289016113a1565b969995985093965092949392505050565b60008060006040848603121561147257600080fd5b833561147d816111ca565b9250602084013567ffffffffffffffff81111561149957600080fd5b6114a5868287016113a1565b9497909650939450505050565b600080604083850312156114c557600080fd5b82356114d0816111ca565b91506020830135611396816111ca565b73ffffffffffffffffffffffffffffffffffffffff8416815260406020820152816040820152818360608301376000818301606090810191909152601f9092017fffffffffffffffffffffffffffffffffffffffffffffffffffffffffffffffe016010192915050565b7f4e487b7100000000000000000000000000000000000000000000000000000000600052601260045260246000fd5b600063ffffffff808416806115905761159061154a565b92169190910692915050565b7f4e487b7100000000000000000000000000000000000000000000000000000000600052601160045260246000fd5b600082198211156115de576115de61159c565b500190565b60008160000b8360000b60008112817fffffffffffffffffffffffffffffffffffffffffffffffffffffffffffffff80018312811516156116265761162661159c565b81607f01831381161561163b5761163b61159c565b5090039392505050565b600061ffff808316818516818304811182151516156116665761166661159c565b02949350505050565b600061ffff80831681851680830382111561168c5761168c61159c565b01949350505050565b7f4e487b7100000000000000000000000000000000000000000000000000000000600052603260045260246000fd5b6000826116d3576116d361154a565b500690565b600060ff8316806116eb576116eb61154a565b8060ff84160491505092915050565b600060ff83168061170d5761170d61154a565b8060ff84160691505092915050565b600060ff821660ff84168160ff048111821515161561173d5761173d61159c565b029392505050565b600060ff821660ff84168060ff038211156117625761176261159c565b01939250505056fea26469706673582212205b8abd598695782e8059353e12915f6edb8e27ca2050af81399ac5d42e1d18b264736f6c63430008090033",
  "devdoc": {
    "kind": "dev",
    "methods": {},
    "version": 1
  },
  "userdoc": {
    "kind": "user",
    "methods": {},
    "version": 1
  },
  "storageLayout": {
    "storage": [
      {
        "astId": 16595,
        "contract": "src/outerspace/facets/OuterSpacePlanetsFacet.sol:OuterSpacePlanetsFacet",
        "label": "_planets",
        "offset": 0,
        "slot": "0",
        "type": "t_mapping(t_uint256,t_struct(Planet)22896_storage)"
      },
      {
        "astId": 16600,
        "contract": "src/outerspace/facets/OuterSpacePlanetsFacet.sol:OuterSpacePlanetsFacet",
        "label": "_fleets",
        "offset": 0,
        "slot": "1",
        "type": "t_mapping(t_uint256,t_struct(Fleet)22903_storage)"
      },
      {
        "astId": 16604,
        "contract": "src/outerspace/facets/OuterSpacePlanetsFacet.sol:OuterSpacePlanetsFacet",
        "label": "_stakeReadyToBeWithdrawn",
        "offset": 0,
        "slot": "2",
        "type": "t_mapping(t_address,t_uint256)"
      },
      {
        "astId": 16610,
        "contract": "src/outerspace/facets/OuterSpacePlanetsFacet.sol:OuterSpacePlanetsFacet",
        "label": "_operators",
        "offset": 0,
        "slot": "3",
        "type": "t_mapping(t_address,t_mapping(t_address,t_bool))"
      },
      {
        "astId": 16617,
        "contract": "src/outerspace/facets/OuterSpacePlanetsFacet.sol:OuterSpacePlanetsFacet",
        "label": "_inFlight",
        "offset": 0,
        "slot": "4",
        "type": "t_mapping(t_uint256,t_mapping(t_uint256,t_struct(InFlight)22872_storage))"
      },
      {
        "astId": 16620,
        "contract": "src/outerspace/facets/OuterSpacePlanetsFacet.sol:OuterSpacePlanetsFacet",
        "label": "_discovered",
        "offset": 0,
        "slot": "5",
        "type": "t_struct(Discovered)22881_storage"
      },
      {
        "astId": 16624,
        "contract": "src/outerspace/facets/OuterSpacePlanetsFacet.sol:OuterSpacePlanetsFacet",
        "label": "_prevRewardIds",
        "offset": 0,
        "slot": "6",
        "type": "t_mapping(t_address,t_uint256)"
      },
      {
        "astId": 16628,
        "contract": "src/outerspace/facets/OuterSpacePlanetsFacet.sol:OuterSpacePlanetsFacet",
        "label": "_rewards",
        "offset": 0,
        "slot": "7",
        "type": "t_mapping(t_uint256,t_uint256)"
      },
      {
        "astId": 16634,
        "contract": "src/outerspace/facets/OuterSpacePlanetsFacet.sol:OuterSpacePlanetsFacet",
        "label": "_rewardsToWithdraw",
        "offset": 0,
        "slot": "8",
        "type": "t_mapping(t_address,t_mapping(t_uint256,t_bool))"
      },
      {
        "astId": 16643,
        "contract": "src/outerspace/facets/OuterSpacePlanetsFacet.sol:OuterSpacePlanetsFacet",
        "label": "_attacks",
        "offset": 0,
        "slot": "9",
        "type": "t_mapping(t_uint256,t_mapping(t_address,t_mapping(t_uint256,t_struct(AccumulatedAttack)22976_storage)))"
      }
    ],
    "types": {
      "t_address": {
        "encoding": "inplace",
        "label": "address",
        "numberOfBytes": "20"
      },
      "t_bool": {
        "encoding": "inplace",
        "label": "bool",
        "numberOfBytes": "1"
      },
      "t_int40": {
        "encoding": "inplace",
        "label": "int40",
        "numberOfBytes": "5"
      },
      "t_mapping(t_address,t_bool)": {
        "encoding": "mapping",
        "key": "t_address",
        "label": "mapping(address => bool)",
        "numberOfBytes": "32",
        "value": "t_bool"
      },
      "t_mapping(t_address,t_mapping(t_address,t_bool))": {
        "encoding": "mapping",
        "key": "t_address",
        "label": "mapping(address => mapping(address => bool))",
        "numberOfBytes": "32",
        "value": "t_mapping(t_address,t_bool)"
      },
      "t_mapping(t_address,t_mapping(t_uint256,t_bool))": {
        "encoding": "mapping",
        "key": "t_address",
        "label": "mapping(address => mapping(uint256 => bool))",
        "numberOfBytes": "32",
        "value": "t_mapping(t_uint256,t_bool)"
      },
      "t_mapping(t_address,t_mapping(t_uint256,t_struct(AccumulatedAttack)22976_storage))": {
        "encoding": "mapping",
        "key": "t_address",
        "label": "mapping(address => mapping(uint256 => struct ImportingOuterSpaceTypes.AccumulatedAttack))",
        "numberOfBytes": "32",
        "value": "t_mapping(t_uint256,t_struct(AccumulatedAttack)22976_storage)"
      },
      "t_mapping(t_address,t_uint256)": {
        "encoding": "mapping",
        "key": "t_address",
        "label": "mapping(address => uint256)",
        "numberOfBytes": "32",
        "value": "t_uint256"
      },
      "t_mapping(t_uint256,t_bool)": {
        "encoding": "mapping",
        "key": "t_uint256",
        "label": "mapping(uint256 => bool)",
        "numberOfBytes": "32",
        "value": "t_bool"
      },
      "t_mapping(t_uint256,t_mapping(t_address,t_mapping(t_uint256,t_struct(AccumulatedAttack)22976_storage)))": {
        "encoding": "mapping",
        "key": "t_uint256",
        "label": "mapping(uint256 => mapping(address => mapping(uint256 => struct ImportingOuterSpaceTypes.AccumulatedAttack)))",
        "numberOfBytes": "32",
        "value": "t_mapping(t_address,t_mapping(t_uint256,t_struct(AccumulatedAttack)22976_storage))"
      },
      "t_mapping(t_uint256,t_mapping(t_uint256,t_struct(InFlight)22872_storage))": {
        "encoding": "mapping",
        "key": "t_uint256",
        "label": "mapping(uint256 => mapping(uint256 => struct ImportingOuterSpaceTypes.InFlight))",
        "numberOfBytes": "32",
        "value": "t_mapping(t_uint256,t_struct(InFlight)22872_storage)"
      },
      "t_mapping(t_uint256,t_struct(AccumulatedAttack)22976_storage)": {
        "encoding": "mapping",
        "key": "t_uint256",
        "label": "mapping(uint256 => struct ImportingOuterSpaceTypes.AccumulatedAttack)",
        "numberOfBytes": "32",
        "value": "t_struct(AccumulatedAttack)22976_storage"
      },
      "t_mapping(t_uint256,t_struct(Fleet)22903_storage)": {
        "encoding": "mapping",
        "key": "t_uint256",
        "label": "mapping(uint256 => struct ImportingOuterSpaceTypes.Fleet)",
        "numberOfBytes": "32",
        "value": "t_struct(Fleet)22903_storage"
      },
      "t_mapping(t_uint256,t_struct(InFlight)22872_storage)": {
        "encoding": "mapping",
        "key": "t_uint256",
        "label": "mapping(uint256 => struct ImportingOuterSpaceTypes.InFlight)",
        "numberOfBytes": "32",
        "value": "t_struct(InFlight)22872_storage"
      },
      "t_mapping(t_uint256,t_struct(Planet)22896_storage)": {
        "encoding": "mapping",
        "key": "t_uint256",
        "label": "mapping(uint256 => struct ImportingOuterSpaceTypes.Planet)",
        "numberOfBytes": "32",
        "value": "t_struct(Planet)22896_storage"
      },
      "t_mapping(t_uint256,t_uint256)": {
        "encoding": "mapping",
        "key": "t_uint256",
        "label": "mapping(uint256 => uint256)",
        "numberOfBytes": "32",
        "value": "t_uint256"
      },
      "t_struct(AccumulatedAttack)22976_storage": {
        "encoding": "inplace",
        "label": "struct ImportingOuterSpaceTypes.AccumulatedAttack",
        "members": [
          {
            "astId": 22969,
            "contract": "src/outerspace/facets/OuterSpacePlanetsFacet.sol:OuterSpacePlanetsFacet",
            "label": "target",
            "offset": 0,
            "slot": "0",
            "type": "t_address"
          },
          {
            "astId": 22971,
            "contract": "src/outerspace/facets/OuterSpacePlanetsFacet.sol:OuterSpacePlanetsFacet",
            "label": "numAttackSpent",
            "offset": 20,
            "slot": "0",
            "type": "t_uint32"
          },
          {
            "astId": 22973,
            "contract": "src/outerspace/facets/OuterSpacePlanetsFacet.sol:OuterSpacePlanetsFacet",
            "label": "damageCausedSoFar",
            "offset": 24,
            "slot": "0",
            "type": "t_uint32"
          },
          {
            "astId": 22975,
            "contract": "src/outerspace/facets/OuterSpacePlanetsFacet.sol:OuterSpacePlanetsFacet",
            "label": "averageAttackPower",
            "offset": 28,
            "slot": "0",
            "type": "t_uint16"
          }
        ],
        "numberOfBytes": "32"
      },
      "t_struct(Discovered)22881_storage": {
        "encoding": "inplace",
        "label": "struct ImportingOuterSpaceTypes.Discovered",
        "members": [
          {
            "astId": 22874,
            "contract": "src/outerspace/facets/OuterSpacePlanetsFacet.sol:OuterSpacePlanetsFacet",
            "label": "minX",
            "offset": 0,
            "slot": "0",
            "type": "t_uint32"
          },
          {
            "astId": 22876,
            "contract": "src/outerspace/facets/OuterSpacePlanetsFacet.sol:OuterSpacePlanetsFacet",
            "label": "maxX",
            "offset": 4,
            "slot": "0",
            "type": "t_uint32"
          },
          {
            "astId": 22878,
            "contract": "src/outerspace/facets/OuterSpacePlanetsFacet.sol:OuterSpacePlanetsFacet",
            "label": "minY",
            "offset": 8,
            "slot": "0",
            "type": "t_uint32"
          },
          {
            "astId": 22880,
            "contract": "src/outerspace/facets/OuterSpacePlanetsFacet.sol:OuterSpacePlanetsFacet",
            "label": "maxY",
            "offset": 12,
            "slot": "0",
            "type": "t_uint32"
          }
        ],
        "numberOfBytes": "32"
      },
      "t_struct(Fleet)22903_storage": {
        "encoding": "inplace",
        "label": "struct ImportingOuterSpaceTypes.Fleet",
        "members": [
          {
            "astId": 22898,
            "contract": "src/outerspace/facets/OuterSpacePlanetsFacet.sol:OuterSpacePlanetsFacet",
            "label": "owner",
            "offset": 0,
            "slot": "0",
            "type": "t_address"
          },
          {
            "astId": 22900,
            "contract": "src/outerspace/facets/OuterSpacePlanetsFacet.sol:OuterSpacePlanetsFacet",
            "label": "launchTime",
            "offset": 20,
            "slot": "0",
            "type": "t_uint40"
          },
          {
            "astId": 22902,
            "contract": "src/outerspace/facets/OuterSpacePlanetsFacet.sol:OuterSpacePlanetsFacet",
            "label": "quantity",
            "offset": 25,
            "slot": "0",
            "type": "t_uint32"
          }
        ],
        "numberOfBytes": "32"
      },
      "t_struct(InFlight)22872_storage": {
        "encoding": "inplace",
        "label": "struct ImportingOuterSpaceTypes.InFlight",
        "members": [
          {
            "astId": 22869,
            "contract": "src/outerspace/facets/OuterSpacePlanetsFacet.sol:OuterSpacePlanetsFacet",
            "label": "flying",
            "offset": 0,
            "slot": "0",
            "type": "t_uint32"
          },
          {
            "astId": 22871,
            "contract": "src/outerspace/facets/OuterSpacePlanetsFacet.sol:OuterSpacePlanetsFacet",
            "label": "destroyed",
            "offset": 4,
            "slot": "0",
            "type": "t_uint32"
          }
        ],
        "numberOfBytes": "32"
      },
      "t_struct(Planet)22896_storage": {
        "encoding": "inplace",
        "label": "struct ImportingOuterSpaceTypes.Planet",
        "members": [
          {
            "astId": 22883,
            "contract": "src/outerspace/facets/OuterSpacePlanetsFacet.sol:OuterSpacePlanetsFacet",
            "label": "owner",
            "offset": 0,
            "slot": "0",
            "type": "t_address"
          },
          {
            "astId": 22885,
            "contract": "src/outerspace/facets/OuterSpacePlanetsFacet.sol:OuterSpacePlanetsFacet",
            "label": "ownershipStartTime",
            "offset": 20,
            "slot": "0",
            "type": "t_uint40"
          },
          {
            "astId": 22887,
            "contract": "src/outerspace/facets/OuterSpacePlanetsFacet.sol:OuterSpacePlanetsFacet",
            "label": "exitStartTime",
            "offset": 25,
            "slot": "0",
            "type": "t_uint40"
          },
          {
            "astId": 22889,
            "contract": "src/outerspace/facets/OuterSpacePlanetsFacet.sol:OuterSpacePlanetsFacet",
            "label": "numSpaceships",
            "offset": 0,
            "slot": "1",
            "type": "t_uint32"
          },
          {
            "astId": 22891,
            "contract": "src/outerspace/facets/OuterSpacePlanetsFacet.sol:OuterSpacePlanetsFacet",
            "label": "lastUpdated",
            "offset": 4,
            "slot": "1",
            "type": "t_uint40"
          },
          {
            "astId": 22893,
            "contract": "src/outerspace/facets/OuterSpacePlanetsFacet.sol:OuterSpacePlanetsFacet",
            "label": "travelingUpkeep",
            "offset": 9,
            "slot": "1",
            "type": "t_int40"
          },
          {
            "astId": 22895,
            "contract": "src/outerspace/facets/OuterSpacePlanetsFacet.sol:OuterSpacePlanetsFacet",
            "label": "overflow",
            "offset": 14,
            "slot": "1",
            "type": "t_uint32"
          }
        ],
        "numberOfBytes": "64"
      },
      "t_uint16": {
        "encoding": "inplace",
        "label": "uint16",
        "numberOfBytes": "2"
      },
      "t_uint256": {
        "encoding": "inplace",
        "label": "uint256",
        "numberOfBytes": "32"
      },
      "t_uint32": {
        "encoding": "inplace",
        "label": "uint32",
        "numberOfBytes": "4"
      },
      "t_uint40": {
        "encoding": "inplace",
        "label": "uint40",
        "numberOfBytes": "5"
      }
    }
  }
}