{
  "address": "0x5A672C4104BD664D9eC070769De399C3b8BfC3B1",
  "abi": [
    {
      "inputs": [
        {
          "internalType": "contract PlayToken",
          "name": "underlyingToken",
          "type": "address"
        }
      ],
      "stateMutability": "nonpayable",
      "type": "constructor"
    },
    {
      "anonymous": false,
      "inputs": [
        {
          "indexed": true,
          "internalType": "address",
          "name": "owner",
          "type": "address"
        },
        {
          "indexed": true,
          "internalType": "address",
          "name": "spender",
          "type": "address"
        },
        {
          "indexed": false,
          "internalType": "uint256",
          "name": "value",
          "type": "uint256"
        }
      ],
      "name": "Approval",
      "type": "event"
    },
    {
      "anonymous": false,
      "inputs": [
        {
          "indexed": false,
          "internalType": "address",
          "name": "burner",
          "type": "address"
        },
        {
          "indexed": false,
          "internalType": "bool",
          "name": "enabled",
          "type": "bool"
        }
      ],
      "name": "Burner",
      "type": "event"
    },
    {
      "anonymous": false,
      "inputs": [
        {
          "indexed": false,
          "internalType": "address",
          "name": "burner",
          "type": "address"
        },
        {
          "indexed": false,
          "internalType": "bool",
          "name": "enabled",
          "type": "bool"
        }
      ],
      "name": "Minter",
      "type": "event"
    },
    {
      "anonymous": false,
      "inputs": [
        {
          "indexed": true,
          "internalType": "address",
          "name": "from",
          "type": "address"
        },
        {
          "indexed": true,
          "internalType": "address",
          "name": "to",
          "type": "address"
        },
        {
          "indexed": false,
          "internalType": "uint256",
          "name": "value",
          "type": "uint256"
        }
      ],
      "name": "Transfer",
      "type": "event"
    },
    {
      "inputs": [],
      "name": "DOMAIN_SEPARATOR",
      "outputs": [
        {
          "internalType": "bytes32",
          "name": "",
          "type": "bytes32"
        }
      ],
      "stateMutability": "view",
      "type": "function"
    },
    {
      "inputs": [
        {
          "internalType": "address",
          "name": "owner",
          "type": "address"
        },
        {
          "internalType": "address",
          "name": "spender",
          "type": "address"
        }
      ],
      "name": "allowance",
      "outputs": [
        {
          "internalType": "uint256",
          "name": "",
          "type": "uint256"
        }
      ],
      "stateMutability": "view",
      "type": "function"
    },
    {
      "inputs": [
        {
          "internalType": "address",
          "name": "spender",
          "type": "address"
        },
        {
          "internalType": "uint256",
          "name": "amount",
          "type": "uint256"
        }
      ],
      "name": "approve",
      "outputs": [
        {
          "internalType": "bool",
          "name": "",
          "type": "bool"
        }
      ],
      "stateMutability": "nonpayable",
      "type": "function"
    },
    {
      "inputs": [
        {
          "internalType": "address",
          "name": "spender",
          "type": "address"
        },
        {
          "internalType": "uint256",
          "name": "amount",
          "type": "uint256"
        },
        {
          "internalType": "bytes",
          "name": "data",
          "type": "bytes"
        }
      ],
      "name": "approveAndCall",
      "outputs": [
        {
          "internalType": "bool",
          "name": "",
          "type": "bool"
        }
      ],
      "stateMutability": "nonpayable",
      "type": "function"
    },
    {
      "inputs": [
        {
          "internalType": "address",
          "name": "owner",
          "type": "address"
        }
      ],
      "name": "balanceOf",
      "outputs": [
        {
          "internalType": "uint256",
          "name": "",
          "type": "uint256"
        }
      ],
      "stateMutability": "view",
      "type": "function"
    },
    {
      "inputs": [
        {
          "internalType": "address",
          "name": "from",
          "type": "address"
        },
        {
          "internalType": "address",
          "name": "to",
          "type": "address"
        },
        {
          "internalType": "uint256",
          "name": "amount",
          "type": "uint256"
        }
      ],
      "name": "burn",
      "outputs": [],
      "stateMutability": "nonpayable",
      "type": "function"
    },
    {
      "inputs": [
        {
          "internalType": "address",
          "name": "",
          "type": "address"
        }
      ],
      "name": "burners",
      "outputs": [
        {
          "internalType": "bool",
          "name": "",
          "type": "bool"
        }
      ],
      "stateMutability": "view",
      "type": "function"
    },
    {
      "inputs": [],
      "name": "decimals",
      "outputs": [
        {
          "internalType": "uint8",
          "name": "",
          "type": "uint8"
        }
      ],
      "stateMutability": "pure",
      "type": "function"
    },
    {
      "inputs": [
        {
          "internalType": "address payable[]",
          "name": "tos",
          "type": "address[]"
        },
        {
          "internalType": "uint256",
          "name": "totalAmount",
          "type": "uint256"
        }
      ],
      "name": "distributeAlongWithETH",
      "outputs": [
        {
          "internalType": "bool",
          "name": "",
          "type": "bool"
        }
      ],
      "stateMutability": "payable",
      "type": "function"
    },
    {
      "inputs": [
        {
          "internalType": "address payable[]",
          "name": "tos",
          "type": "address[]"
        },
        {
          "internalType": "uint256[]",
          "name": "amounts",
          "type": "uint256[]"
        }
      ],
      "name": "distributeVariousAmountsAlongWithETH",
      "outputs": [
        {
          "internalType": "bool",
          "name": "",
          "type": "bool"
        }
      ],
      "stateMutability": "payable",
      "type": "function"
    },
    {
      "inputs": [
        {
          "internalType": "address payable[]",
          "name": "tos",
          "type": "address[]"
        },
        {
          "internalType": "uint256[]",
          "name": "tokenAmounts",
          "type": "uint256[]"
        },
        {
          "internalType": "uint256[]",
          "name": "etherAmounts",
          "type": "uint256[]"
        }
      ],
      "name": "distributeVariousAmountsOfTokenAndETH",
      "outputs": [
        {
          "internalType": "bool",
          "name": "",
          "type": "bool"
        }
      ],
      "stateMutability": "payable",
      "type": "function"
    },
    {
      "inputs": [
        {
          "internalType": "address",
          "name": "from",
          "type": "address"
        },
        {
          "internalType": "address",
          "name": "to",
          "type": "address"
        },
        {
          "internalType": "uint256",
          "name": "amount",
          "type": "uint256"
        }
      ],
      "name": "mint",
      "outputs": [],
      "stateMutability": "nonpayable",
      "type": "function"
    },
    {
      "inputs": [
        {
          "internalType": "address",
          "name": "to",
          "type": "address"
        },
        {
          "internalType": "uint256",
          "name": "amount",
          "type": "uint256"
        }
      ],
      "name": "mintViaNativeToken",
      "outputs": [],
      "stateMutability": "payable",
      "type": "function"
    },
    {
      "inputs": [
        {
          "internalType": "address payable",
          "name": "to",
          "type": "address"
        },
        {
          "internalType": "uint256",
          "name": "amount",
          "type": "uint256"
        }
      ],
      "name": "mintViaNativeTokenPlusSendExtraNativeTokens",
      "outputs": [],
      "stateMutability": "payable",
      "type": "function"
    },
    {
      "inputs": [
        {
          "internalType": "address",
          "name": "",
          "type": "address"
        }
      ],
      "name": "minters",
      "outputs": [
        {
          "internalType": "bool",
          "name": "",
          "type": "bool"
        }
      ],
      "stateMutability": "view",
      "type": "function"
    },
    {
      "inputs": [],
      "name": "name",
      "outputs": [
        {
          "internalType": "string",
          "name": "",
          "type": "string"
        }
      ],
      "stateMutability": "pure",
      "type": "function"
    },
    {
      "inputs": [
        {
          "internalType": "address",
          "name": "owner",
          "type": "address"
        }
      ],
      "name": "nonces",
      "outputs": [
        {
          "internalType": "uint256",
          "name": "",
          "type": "uint256"
        }
      ],
      "stateMutability": "view",
      "type": "function"
    },
    {
      "inputs": [
        {
          "internalType": "address",
          "name": "forAddress",
          "type": "address"
        },
        {
          "internalType": "address",
          "name": "to",
          "type": "address"
        },
        {
          "internalType": "uint256",
          "name": "amount",
          "type": "uint256"
        },
        {
          "internalType": "bytes",
          "name": "data",
          "type": "bytes"
        }
      ],
      "name": "payForAndCall",
      "outputs": [
        {
          "internalType": "bool",
          "name": "",
          "type": "bool"
        }
      ],
      "stateMutability": "nonpayable",
      "type": "function"
    },
    {
      "inputs": [
        {
          "internalType": "address",
          "name": "owner",
          "type": "address"
        },
        {
          "internalType": "address",
          "name": "spender",
          "type": "address"
        },
        {
          "internalType": "uint256",
          "name": "value",
          "type": "uint256"
        },
        {
          "internalType": "uint256",
          "name": "deadline",
          "type": "uint256"
        },
        {
          "internalType": "uint8",
          "name": "v",
          "type": "uint8"
        },
        {
          "internalType": "bytes32",
          "name": "r",
          "type": "bytes32"
        },
        {
          "internalType": "bytes32",
          "name": "s",
          "type": "bytes32"
        }
      ],
      "name": "permit",
      "outputs": [],
      "stateMutability": "nonpayable",
      "type": "function"
    },
    {
      "inputs": [
        {
          "internalType": "address",
          "name": "burner",
          "type": "address"
        },
        {
          "internalType": "bool",
          "name": "enabled",
          "type": "bool"
        }
      ],
      "name": "setBurner",
      "outputs": [],
      "stateMutability": "nonpayable",
      "type": "function"
    },
    {
      "inputs": [
        {
          "internalType": "address",
          "name": "burner",
          "type": "address"
        },
        {
          "internalType": "bool",
          "name": "enabled",
          "type": "bool"
        }
      ],
      "name": "setMinter",
      "outputs": [],
      "stateMutability": "nonpayable",
      "type": "function"
    },
    {
      "inputs": [],
      "name": "symbol",
      "outputs": [
        {
          "internalType": "string",
          "name": "",
          "type": "string"
        }
      ],
      "stateMutability": "view",
      "type": "function"
    },
    {
      "inputs": [],
      "name": "totalSupply",
      "outputs": [
        {
          "internalType": "uint256",
          "name": "",
          "type": "uint256"
        }
      ],
      "stateMutability": "view",
      "type": "function"
    },
    {
      "inputs": [
        {
          "internalType": "address",
          "name": "to",
          "type": "address"
        },
        {
          "internalType": "uint256",
          "name": "amount",
          "type": "uint256"
        }
      ],
      "name": "transfer",
      "outputs": [
        {
          "internalType": "bool",
          "name": "",
          "type": "bool"
        }
      ],
      "stateMutability": "nonpayable",
      "type": "function"
    },
    {
      "inputs": [
        {
          "internalType": "address payable",
          "name": "to",
          "type": "address"
        },
        {
          "internalType": "uint256",
          "name": "amount",
          "type": "uint256"
        }
      ],
      "name": "transferAlongWithETH",
      "outputs": [
        {
          "internalType": "bool",
          "name": "",
          "type": "bool"
        }
      ],
      "stateMutability": "payable",
      "type": "function"
    },
    {
      "inputs": [
        {
          "internalType": "address",
          "name": "to",
          "type": "address"
        },
        {
          "internalType": "uint256",
          "name": "amount",
          "type": "uint256"
        },
        {
          "internalType": "bytes",
          "name": "data",
          "type": "bytes"
        }
      ],
      "name": "transferAndCall",
      "outputs": [
        {
          "internalType": "bool",
          "name": "",
          "type": "bool"
        }
      ],
      "stateMutability": "nonpayable",
      "type": "function"
    },
    {
      "inputs": [
        {
          "internalType": "address",
          "name": "from",
          "type": "address"
        },
        {
          "internalType": "address",
          "name": "to",
          "type": "address"
        },
        {
          "internalType": "uint256",
          "name": "amount",
          "type": "uint256"
        }
      ],
      "name": "transferFrom",
      "outputs": [
        {
          "internalType": "bool",
          "name": "",
          "type": "bool"
        }
      ],
      "stateMutability": "nonpayable",
      "type": "function"
    },
    {
      "inputs": [
        {
          "internalType": "address",
          "name": "from",
          "type": "address"
        },
        {
          "internalType": "address",
          "name": "to",
          "type": "address"
        },
        {
          "internalType": "uint256",
          "name": "amount",
          "type": "uint256"
        },
        {
          "internalType": "bytes",
          "name": "data",
          "type": "bytes"
        }
      ],
      "name": "transferFromAndCall",
      "outputs": [
        {
          "internalType": "bool",
          "name": "",
          "type": "bool"
        }
      ],
      "stateMutability": "nonpayable",
      "type": "function"
    }
  ],
  "transactionHash": "0xaeb7a3135eae82500ab6d1a00dbaac37766d962320d3677e39f85b5d1384586d",
  "args": [
    "0x27B84C84a0809AE26381b1b9595fF22cB209A433"
  ],
  "numDeployments": 1,
  "solcInputHash": "02da93cf1935fb9370486130b817da02",
  "bytecode": "0x60c06040523480156200001157600080fd5b5060405162002d5638038062002d568339810160408190526200003491620000f0565b6040805180820190915260018152603160f81b60208201527f91ab3d17e3a50a9d89e63fd30b92be7f5336b03b287bb946787a83a9d62a2766620000946040805180820190915260098152684672656520506c617960b81b602082015290565b8051602091820120835184830120604080519384019490945292820152606081019190915230608082015260a00160408051601f198184030181529190528051602090910120608052506001600160a01b031660a05262000122565b6000602082840312156200010357600080fd5b81516001600160a01b03811681146200011b57600080fd5b9392505050565b60805160a051612beb6200016b60003960008181610a8301528181610c4401528181610d4901528181610f11015261174f01526000818161031201526112150152612beb6000f3fe6080604052600436106101b75760003560e01c806389e7b3d3116100ec578063d505accf1161008a578063e7fcb06511610064578063e7fcb0651461055c578063f46eccc41461056f578063f6b911bc1461059f578063fc72b976146105bf57600080fd5b8063d505accf14610509578063dd62ed3e14610529578063df752eed1461054957600080fd5b8063c1d34b89116100c6578063c1d34b8914610489578063c6c3bbe6146104a9578063cae9ca51146104c9578063cf456ae7146104e957600080fd5b806389e7b3d31461040d57806395d89b4114610420578063a9059cbb1461046957600080fd5b8063313ce567116101595780635ecb2d3f116101335780635ecb2d3f1461035457806363d994c71461036757806370a08231146103875780637ecebe00146103ca57600080fd5b8063313ce567146102e45780633644e515146103005780634000aea01461033457600080fd5b80630d895ee1116101955780630d895ee1146102705780630e02df541461029257806318160ddd146102a557806323b872dd146102c457600080fd5b806303d41e0e146101bc57806306fdde0314610201578063095ea7b314610250575b600080fd5b3480156101c857600080fd5b506101ec6101d73660046124d0565b60056020526000908152604090205460ff1681565b60405190151581526020015b60405180910390f35b34801561020d57600080fd5b5060408051808201909152600981527f4672656520506c6179000000000000000000000000000000000000000000000060208201525b6040516101f89190612519565b34801561025c57600080fd5b506101ec61026b36600461256a565b6105d2565b34801561027c57600080fd5b5061029061028b3660046125a4565b6105e9565b005b6101ec6102a0366004612629565b610733565b3480156102b157600080fd5b506000545b6040519081526020016101f8565b3480156102d057600080fd5b506101ec6102df366004612675565b6108fe565b3480156102f057600080fd5b50604051601281526020016101f8565b34801561030c57600080fd5b506102b67f000000000000000000000000000000000000000000000000000000000000000081565b34801561034057600080fd5b506101ec61034f3660046126f8565b610915565b61029061036236600461256a565b6109d5565b34801561037357600080fd5b506101ec610382366004612754565b610b04565b34801561039357600080fd5b506102b66103a23660046124d0565b73ffffffffffffffffffffffffffffffffffffffff1660009081526001602052604090205490565b3480156103d657600080fd5b506102b66103e53660046124d0565b73ffffffffffffffffffffffffffffffffffffffff1660009081526003602052604090205490565b61029061041b36600461256a565b610bc7565b34801561042c57600080fd5b506102436040518060400160405280600581526020017f46504c415900000000000000000000000000000000000000000000000000000081525081565b34801561047557600080fd5b506101ec61048436600461256a565b610e0c565b34801561049557600080fd5b506101ec6104a4366004612754565b610e19565b3480156104b557600080fd5b506102906104c4366004612675565b610e7e565b3480156104d557600080fd5b506101ec6104e43660046126f8565b610f43565b3480156104f557600080fd5b506102906105043660046125a4565b610fa6565b34801561051557600080fd5b506102906105243660046127c7565b6110e3565b34801561053557600080fd5b506102b661054436600461283e565b611423565b6101ec61055736600461286c565b6114a3565b6101ec61056a36600461256a565b61166d565b34801561057b57600080fd5b506101ec61058a3660046124d0565b60046020526000908152604090205460ff1681565b3480156105ab57600080fd5b506102906105ba366004612675565b6116bc565b6101ec6105cd3660046128cc565b611780565b60006105df338484611a13565b5060015b92915050565b7fb53127684a568b3173ae13b9f8a6016e243e63b6e8ee1178d6a717850b5d61035473ffffffffffffffffffffffffffffffffffffffff163373ffffffffffffffffffffffffffffffffffffffff16146106a4576040517f08c379a000000000000000000000000000000000000000000000000000000000815260206004820152600e60248201527f4e4f545f415554484f52495a454400000000000000000000000000000000000060448201526064015b60405180910390fd5b73ffffffffffffffffffffffffffffffffffffffff821660008181526005602090815260409182902080547fffffffffffffffffffffffffffffffffffffffffffffffffffffffffffffff00168515159081179091558251938452908301527f040d3bc1fde94a77c901458220b45017a7a53cbc579f707787d918b325a0ca1991015b60405180910390a15050565b6000806107408434612995565b905061074c84826129d0565b34146107b4576040517f08c379a000000000000000000000000000000000000000000000000000000000815260206004820152601160248201527f494e56414c49445f4d53475f56414c5545000000000000000000000000000000604482015260640161069b565b60006107c08585612995565b90506107cc85826129d0565b8414610834576040517f08c379a000000000000000000000000000000000000000000000000000000000815260206004820152601460248201527f494e56414c49445f544f54414c5f414d4f554e54000000000000000000000000604482015260640161069b565b60005b858110156108ef576108703388888481811061085557610855612a0d565b905060200201602081019061086a91906124d0565b84611b22565b86868281811061088257610882612a0d565b905060200201602081019061089791906124d0565b73ffffffffffffffffffffffffffffffffffffffff166108fc849081150290604051600060405180830381858888f193505050501580156108dc573d6000803e3d6000fd5b50806108e781612a3c565b915050610837565b506001925050505b9392505050565b600061090b848484611d70565b5060019392505050565b6000610922338686611b22565b6040517fa4c0ed3600000000000000000000000000000000000000000000000000000000815273ffffffffffffffffffffffffffffffffffffffff86169063a4c0ed369061097a903390889088908890600401612abe565b602060405180830381600087803b15801561099457600080fd5b505af11580156109a8573d6000803e3d6000fd5b505050506040513d601f19601f820116820180604052508101906109cc9190612af4565b95945050505050565b3360009081526004602052604090205460ff16610a4e576040517f08c379a000000000000000000000000000000000000000000000000000000000815260206004820152601260248201527f4e4f545f414c4c4f5745445f4d494e5445520000000000000000000000000000604482015260640161069b565b6040517f40c10f19000000000000000000000000000000000000000000000000000000008152306004820152602481018290527f000000000000000000000000000000000000000000000000000000000000000073ffffffffffffffffffffffffffffffffffffffff16906340c10f199034906044016000604051808303818588803b158015610add57600080fd5b505af1158015610af1573d6000803e3d6000fd5b5050505050610b008282611ebc565b5050565b6000610b11338686611b22565b6040517f9b6be06500000000000000000000000000000000000000000000000000000000815273ffffffffffffffffffffffffffffffffffffffff861690639b6be06590610b6b9033908a90899089908990600401612b11565b602060405180830381600087803b158015610b8557600080fd5b505af1158015610b99573d6000803e3d6000fd5b505050506040513d601f19601f82011682018060405250810190610bbd9190612af4565b9695505050505050565b3360009081526004602052604090205460ff16610c40576040517f08c379a000000000000000000000000000000000000000000000000000000000815260206004820152601260248201527f4e4f545f414c4c4f5745445f4d494e5445520000000000000000000000000000604482015260640161069b565b60007f000000000000000000000000000000000000000000000000000000000000000073ffffffffffffffffffffffffffffffffffffffff1663a835106e6040518163ffffffff1660e01b815260040160206040518083038186803b158015610ca857600080fd5b505afa158015610cbc573d6000803e3d6000fd5b505050506040513d601f19601f82011682018060405250810190610ce09190612b51565b610cf2670de0b6b3a7640000846129d0565b610cfc9190612995565b6040517f40c10f190000000000000000000000000000000000000000000000000000000081523060048201526024810184905290915073ffffffffffffffffffffffffffffffffffffffff7f000000000000000000000000000000000000000000000000000000000000000016906340c10f199083906044016000604051808303818588803b158015610d8e57600080fd5b505af1158015610da2573d6000803e3d6000fd5b5050505050610db18383611ebc565b80341115610e075773ffffffffffffffffffffffffffffffffffffffff83166108fc610ddd8334612b6a565b6040518115909202916000818181858888f19350505050158015610e05573d6000803e3d6000fd5b505b505050565b60006105df338484611b22565b6000610e26868686611d70565b6040517fa4c0ed3600000000000000000000000000000000000000000000000000000000815273ffffffffffffffffffffffffffffffffffffffff86169063a4c0ed3690610b6b908990889088908890600401612abe565b3360009081526004602052604090205460ff16610ef7576040517f08c379a000000000000000000000000000000000000000000000000000000000815260206004820152601260248201527f4e4f545f414c4c4f5745445f4d494e5445520000000000000000000000000000604482015260640161069b565b610f3973ffffffffffffffffffffffffffffffffffffffff7f000000000000000000000000000000000000000000000000000000000000000016843084611f5e565b610e078282611ebc565b6000610f50338686611a13565b6040517eba451f00000000000000000000000000000000000000000000000000000000815273ffffffffffffffffffffffffffffffffffffffff86169062ba451f9061097a903390889088908890600401612abe565b7fb53127684a568b3173ae13b9f8a6016e243e63b6e8ee1178d6a717850b5d61035473ffffffffffffffffffffffffffffffffffffffff163373ffffffffffffffffffffffffffffffffffffffff161461105c576040517f08c379a000000000000000000000000000000000000000000000000000000000815260206004820152600e60248201527f4e4f545f415554484f52495a4544000000000000000000000000000000000000604482015260640161069b565b73ffffffffffffffffffffffffffffffffffffffff821660008181526004602090815260409182902080547fffffffffffffffffffffffffffffffffffffffffffffffffffffffffffffff00168515159081179091558251938452908301527fff452b3b9159b024a9098f0058c63eccd90d36b3584608202800d662f962bb609101610727565b73ffffffffffffffffffffffffffffffffffffffff8716611160576040517f08c379a000000000000000000000000000000000000000000000000000000000815260206004820152601460248201527f494e56414c49445f5a45524f5f41444452455353000000000000000000000000604482015260640161069b565b73ffffffffffffffffffffffffffffffffffffffff87811660008181526003602090815260408083205481517f6e71edae12b1b97f4d1f60370fef10105fa2faae0126114a169c64845d6126c98185015280830195909552948b166060850152608084018a905260a0840185905260c08085018a90528151808603909101815260e0850190915280519101207f19010000000000000000000000000000000000000000000000000000000000006101008401527f00000000000000000000000000000000000000000000000000000000000000006101028401526101228301529061014201604080517fffffffffffffffffffffffffffffffffffffffffffffffffffffffffffffffe081840301815282825280516020918201206000845290830180835281905260ff8816918301919091526060820186905260808201859052915060019060a0016020604051602081039080840390855afa1580156112cb573d6000803e3d6000fd5b5050506020604051035173ffffffffffffffffffffffffffffffffffffffff168973ffffffffffffffffffffffffffffffffffffffff1614611369576040517f08c379a000000000000000000000000000000000000000000000000000000000815260206004820152601160248201527f494e56414c49445f5349474e4154555245000000000000000000000000000000604482015260640161069b565b8515806113765750854211155b6113dc576040517f08c379a000000000000000000000000000000000000000000000000000000000815260206004820152600860248201527f544f4f5f4c415445000000000000000000000000000000000000000000000000604482015260640161069b565b6113e7826001612b81565b73ffffffffffffffffffffffffffffffffffffffff8a16600090815260036020526040902055611418898989611a13565b505050505050505050565b600073ffffffffffffffffffffffffffffffffffffffff831630141561146a57507fffffffffffffffffffffffffffffffffffffffffffffffffffffffffffffffff6105e3565b5073ffffffffffffffffffffffffffffffffffffffff918216600090815260026020908152604080832093909416825291909152205490565b6000806114b08534612995565b90506114bc85826129d0565b3414611524576040517f08c379a000000000000000000000000000000000000000000000000000000000815260206004820152601160248201527f494e56414c49445f4d53475f56414c5545000000000000000000000000000000604482015260640161069b565b84831461158d576040517f08c379a000000000000000000000000000000000000000000000000000000000815260206004820152600f60248201527f4e4f545f53414d455f4c454e4754480000000000000000000000000000000000604482015260640161069b565b60005b85811015611660576115e1338888848181106115ae576115ae612a0d565b90506020020160208101906115c391906124d0565b8787858181106115d5576115d5612a0d565b90506020020135611b22565b8686828181106115f3576115f3612a0d565b905060200201602081019061160891906124d0565b73ffffffffffffffffffffffffffffffffffffffff166108fc839081150290604051600060405180830381858888f1935050505015801561164d573d6000803e3d6000fd5b508061165881612a3c565b915050611590565b5060019695505050505050565b600061167a338484611b22565b60405173ffffffffffffffffffffffffffffffffffffffff8416903480156108fc02916000818181858888f1935050505015801561090b573d6000803e3d6000fd5b3360009081526005602052604090205460ff16611735576040517f08c379a000000000000000000000000000000000000000000000000000000000815260206004820152601260248201527f4e4f545f414c4c4f5745445f4255524e45520000000000000000000000000000604482015260640161069b565b61177673ffffffffffffffffffffffffffffffffffffffff7f000000000000000000000000000000000000000000000000000000000000000016838361203a565b610e078382612090565b6000808685146117ec576040517f08c379a000000000000000000000000000000000000000000000000000000000815260206004820152601560248201527f544f4b454e5f4e4f545f53414d455f4c454e4754480000000000000000000000604482015260640161069b565b868314611855576040517f08c379a000000000000000000000000000000000000000000000000000000000815260206004820152601360248201527f4554485f4e4f545f53414d455f4c454e47544800000000000000000000000000604482015260640161069b565b60005b8781101561199b5786868281811061187257611872612a0d565b905060200201356000146118bd576118bd338a8a8481811061189657611896612a0d565b90506020020160208101906118ab91906124d0565b8989858181106115d5576115d5612a0d565b8484828181106118cf576118cf612a0d565b90506020020135600014611989578888828181106118ef576118ef612a0d565b905060200201602081019061190491906124d0565b73ffffffffffffffffffffffffffffffffffffffff166108fc86868481811061192f5761192f612a0d565b905060200201359081150290604051600060405180830381858888f19350505050158015611961573d6000803e3d6000fd5b5084848281811061197457611974612a0d565b90506020020135826119869190612b81565b91505b8061199381612a3c565b915050611858565b50803414611a05576040517f08c379a000000000000000000000000000000000000000000000000000000000815260206004820152601160248201527f494e56414c49445f4d53475f56414c5545000000000000000000000000000000604482015260640161069b565b506001979650505050505050565b73ffffffffffffffffffffffffffffffffffffffff831615801590611a4d575073ffffffffffffffffffffffffffffffffffffffff821615155b611ab3576040517f08c379a000000000000000000000000000000000000000000000000000000000815260206004820152601460248201527f494e56414c49445f5a45524f5f41444452455353000000000000000000000000604482015260640161069b565b73ffffffffffffffffffffffffffffffffffffffff83811660008181526002602090815260408083209487168084529482529182902085905590518481527f8c5be1e5ebec7d5bd14f71427d1e84f3dd0314c0f7b2291e5b200ac8c7c3b92591015b60405180910390a3505050565b73ffffffffffffffffffffffffffffffffffffffff8216611b9f576040517f08c379a000000000000000000000000000000000000000000000000000000000815260206004820152601460248201527f494e56414c49445f5a45524f5f41444452455353000000000000000000000000604482015260640161069b565b73ffffffffffffffffffffffffffffffffffffffff8216301415611c1f576040517f08c379a000000000000000000000000000000000000000000000000000000000815260206004820152601460248201527f494e56414c49445f544849535f41444452455353000000000000000000000000604482015260640161069b565b73ffffffffffffffffffffffffffffffffffffffff831660009081526001602052604090205481811015611caf576040517f08c379a000000000000000000000000000000000000000000000000000000000815260206004820152601160248201527f4e4f545f454e4f5547485f544f4b454e53000000000000000000000000000000604482015260640161069b565b611cb98282612b6a565b73ffffffffffffffffffffffffffffffffffffffff8086166000908152600160205260408082209390935590851681529081208054849290611cfc908490612b81565b925050819055508273ffffffffffffffffffffffffffffffffffffffff168473ffffffffffffffffffffffffffffffffffffffff167fddf252ad1be2c89b69c2b068fc378daa952ba7f163c4a11628f55a4df523b3ef84604051611d6291815260200190565b60405180910390a350505050565b3373ffffffffffffffffffffffffffffffffffffffff841614801590611dac575073ffffffffffffffffffffffffffffffffffffffff83163014155b15611eb15773ffffffffffffffffffffffffffffffffffffffff831660009081526002602090815260408083203384529091529020547fffffffffffffffffffffffffffffffffffffffffffffffffffffffffffffffff8114611eaf5781811015611e73576040517f08c379a000000000000000000000000000000000000000000000000000000000815260206004820152601760248201527f4e4f545f415554484f495a45445f414c4c4f57414e4345000000000000000000604482015260640161069b565b611e7d8282612b6a565b73ffffffffffffffffffffffffffffffffffffffff851660009081526002602090815260408083203384529091529020555b505b610e07838383611b22565b80600080828254611ecd9190612b81565b909155505073ffffffffffffffffffffffffffffffffffffffff821660009081526001602052604081208054839290611f07908490612b81565b909155505060405181815273ffffffffffffffffffffffffffffffffffffffff8316906000907fddf252ad1be2c89b69c2b068fc378daa952ba7f163c4a11628f55a4df523b3ef9060200160405180910390a35050565b60405173ffffffffffffffffffffffffffffffffffffffff80851660248301528316604482015260648101829052610e059085907f23b872dd00000000000000000000000000000000000000000000000000000000906084015b604080517fffffffffffffffffffffffffffffffffffffffffffffffffffffffffffffffe08184030181529190526020810180517bffffffffffffffffffffffffffffffffffffffffffffffffffffffff167fffffffff00000000000000000000000000000000000000000000000000000000909316929092179091526121b5565b60405173ffffffffffffffffffffffffffffffffffffffff8316602482015260448101829052610e079084907fa9059cbb0000000000000000000000000000000000000000000000000000000090606401611fb8565b73ffffffffffffffffffffffffffffffffffffffff821660009081526001602052604090205481811015612120576040517f08c379a000000000000000000000000000000000000000000000000000000000815260206004820152601160248201527f4e4f545f454e4f5547485f544f4b454e53000000000000000000000000000000604482015260640161069b565b61212a8282612b6a565b73ffffffffffffffffffffffffffffffffffffffff841660009081526001602052604081209190915580548391908190612165908490612b6a565b909155505060405182815260009073ffffffffffffffffffffffffffffffffffffffff8516907fddf252ad1be2c89b69c2b068fc378daa952ba7f163c4a11628f55a4df523b3ef90602001611b15565b6000612217826040518060400160405280602081526020017f5361666545524332303a206c6f772d6c6576656c2063616c6c206661696c65648152508573ffffffffffffffffffffffffffffffffffffffff166122c19092919063ffffffff16565b805190915015610e0757808060200190518101906122359190612af4565b610e07576040517f08c379a000000000000000000000000000000000000000000000000000000000815260206004820152602a60248201527f5361666545524332303a204552433230206f7065726174696f6e20646964206e60448201527f6f74207375636365656400000000000000000000000000000000000000000000606482015260840161069b565b60606122d084846000856122d8565b949350505050565b60608247101561236a576040517f08c379a000000000000000000000000000000000000000000000000000000000815260206004820152602660248201527f416464726573733a20696e73756666696369656e742062616c616e636520666f60448201527f722063616c6c0000000000000000000000000000000000000000000000000000606482015260840161069b565b843b6123d2576040517f08c379a000000000000000000000000000000000000000000000000000000000815260206004820152601d60248201527f416464726573733a2063616c6c20746f206e6f6e2d636f6e7472616374000000604482015260640161069b565b6000808673ffffffffffffffffffffffffffffffffffffffff1685876040516123fb9190612b99565b60006040518083038185875af1925050503d8060008114612438576040519150601f19603f3d011682016040523d82523d6000602084013e61243d565b606091505b509150915061244d828286612458565b979650505050505050565b606083156124675750816108f7565b8251156124775782518084602001fd5b816040517f08c379a000000000000000000000000000000000000000000000000000000000815260040161069b9190612519565b73ffffffffffffffffffffffffffffffffffffffff811681146124cd57600080fd5b50565b6000602082840312156124e257600080fd5b81356108f7816124ab565b60005b838110156125085781810151838201526020016124f0565b83811115610e055750506000910152565b60208152600082518060208401526125388160408501602087016124ed565b601f017fffffffffffffffffffffffffffffffffffffffffffffffffffffffffffffffe0169190910160400192915050565b6000806040838503121561257d57600080fd5b8235612588816124ab565b946020939093013593505050565b80151581146124cd57600080fd5b600080604083850312156125b757600080fd5b82356125c2816124ab565b915060208301356125d281612596565b809150509250929050565b60008083601f8401126125ef57600080fd5b50813567ffffffffffffffff81111561260757600080fd5b6020830191508360208260051b850101111561262257600080fd5b9250929050565b60008060006040848603121561263e57600080fd5b833567ffffffffffffffff81111561265557600080fd5b612661868287016125dd565b909790965060209590950135949350505050565b60008060006060848603121561268a57600080fd5b8335612695816124ab565b925060208401356126a5816124ab565b929592945050506040919091013590565b60008083601f8401126126c857600080fd5b50813567ffffffffffffffff8111156126e057600080fd5b60208301915083602082850101111561262257600080fd5b6000806000806060858703121561270e57600080fd5b8435612719816124ab565b935060208501359250604085013567ffffffffffffffff81111561273c57600080fd5b612748878288016126b6565b95989497509550505050565b60008060008060006080868803121561276c57600080fd5b8535612777816124ab565b94506020860135612787816124ab565b935060408601359250606086013567ffffffffffffffff8111156127aa57600080fd5b6127b6888289016126b6565b969995985093965092949392505050565b600080600080600080600060e0888a0312156127e257600080fd5b87356127ed816124ab565b965060208801356127fd816124ab565b95506040880135945060608801359350608088013560ff8116811461282157600080fd5b9699959850939692959460a0840135945060c09093013592915050565b6000806040838503121561285157600080fd5b823561285c816124ab565b915060208301356125d2816124ab565b6000806000806040858703121561288257600080fd5b843567ffffffffffffffff8082111561289a57600080fd5b6128a6888389016125dd565b909650945060208701359150808211156128bf57600080fd5b50612748878288016125dd565b600080600080600080606087890312156128e557600080fd5b863567ffffffffffffffff808211156128fd57600080fd5b6129098a838b016125dd565b9098509650602089013591508082111561292257600080fd5b61292e8a838b016125dd565b9096509450604089013591508082111561294757600080fd5b5061295489828a016125dd565b979a9699509497509295939492505050565b7f4e487b7100000000000000000000000000000000000000000000000000000000600052601160045260246000fd5b6000826129cb577f4e487b7100000000000000000000000000000000000000000000000000000000600052601260045260246000fd5b500490565b6000817fffffffffffffffffffffffffffffffffffffffffffffffffffffffffffffffff0483118215151615612a0857612a08612966565b500290565b7f4e487b7100000000000000000000000000000000000000000000000000000000600052603260045260246000fd5b60007fffffffffffffffffffffffffffffffffffffffffffffffffffffffffffffffff821415612a6e57612a6e612966565b5060010190565b8183528181602085013750600060208284010152600060207fffffffffffffffffffffffffffffffffffffffffffffffffffffffffffffffe0601f840116840101905092915050565b73ffffffffffffffffffffffffffffffffffffffff85168152836020820152606060408201526000610bbd606083018486612a75565b600060208284031215612b0657600080fd5b81516108f781612596565b600073ffffffffffffffffffffffffffffffffffffffff80881683528087166020840152508460408301526080606083015261244d608083018486612a75565b600060208284031215612b6357600080fd5b5051919050565b600082821015612b7c57612b7c612966565b500390565b60008219821115612b9457612b94612966565b500190565b60008251612bab8184602087016124ed565b919091019291505056fea264697066735822122070076154e95c9b6a26be2495c9f02f3397e82ea06ebe792b2f8748cd8add32f264736f6c63430008090033",
  "devdoc": {
    "kind": "dev",
    "methods": {
      "allowance(address,address)": {
        "details": "Returns the remaining number of tokens that `spender` will be allowed to spend on behalf of `owner` through {transferFrom}. This is zero by default. This value changes when {approve} or {transferFrom} are called."
      },
      "approve(address,uint256)": {
        "details": "Sets `amount` as the allowance of `spender` over the caller's tokens. Returns a boolean value indicating whether the operation succeeded. IMPORTANT: Beware that changing an allowance with this method brings the risk that someone may use both the old and the new allowance by unfortunate transaction ordering. One possible solution to mitigate this race condition is to first reduce the spender's allowance to 0 and set the desired value afterwards: https://github.com/ethereum/EIPs/issues/20#issuecomment-263524729 Emits an {Approval} event."
      },
      "totalSupply()": {
        "details": "Returns the amount of tokens in existence."
      }
    },
    "version": 1
  },
  "userdoc": {
    "kind": "user",
    "methods": {},
    "version": 1
  },
  "storageLayout": {
    "storage": [
      {
        "astId": 13176,
        "contract": "src/conquest_token/FreePlayToken.sol:FreePlayToken",
        "label": "_totalSupply",
        "offset": 0,
        "slot": "0",
        "type": "t_uint256"
      },
      {
        "astId": 13180,
        "contract": "src/conquest_token/FreePlayToken.sol:FreePlayToken",
        "label": "_balances",
        "offset": 0,
        "slot": "1",
        "type": "t_mapping(t_address,t_uint256)"
      },
      {
        "astId": 13186,
        "contract": "src/conquest_token/FreePlayToken.sol:FreePlayToken",
        "label": "_allowances",
        "offset": 0,
        "slot": "2",
        "type": "t_mapping(t_address,t_mapping(t_address,t_uint256))"
      },
      {
        "astId": 14142,
        "contract": "src/conquest_token/FreePlayToken.sol:FreePlayToken",
        "label": "_nonces",
        "offset": 0,
        "slot": "3",
        "type": "t_mapping(t_address,t_uint256)"
      },
      {
        "astId": 15394,
        "contract": "src/conquest_token/FreePlayToken.sol:FreePlayToken",
        "label": "minters",
        "offset": 0,
        "slot": "4",
        "type": "t_mapping(t_address,t_bool)"
      },
      {
        "astId": 15398,
        "contract": "src/conquest_token/FreePlayToken.sol:FreePlayToken",
        "label": "burners",
        "offset": 0,
        "slot": "5",
        "type": "t_mapping(t_address,t_bool)"
      }
    ],
    "types": {
      "t_address": {
        "encoding": "inplace",
        "label": "address",
        "numberOfBytes": "20"
      },
      "t_bool": {
        "encoding": "inplace",
        "label": "bool",
        "numberOfBytes": "1"
      },
      "t_mapping(t_address,t_bool)": {
        "encoding": "mapping",
        "key": "t_address",
        "label": "mapping(address => bool)",
        "numberOfBytes": "32",
        "value": "t_bool"
      },
      "t_mapping(t_address,t_mapping(t_address,t_uint256))": {
        "encoding": "mapping",
        "key": "t_address",
        "label": "mapping(address => mapping(address => uint256))",
        "numberOfBytes": "32",
        "value": "t_mapping(t_address,t_uint256)"
      },
      "t_mapping(t_address,t_uint256)": {
        "encoding": "mapping",
        "key": "t_address",
        "label": "mapping(address => uint256)",
        "numberOfBytes": "32",
        "value": "t_uint256"
      },
      "t_uint256": {
        "encoding": "inplace",
        "label": "uint256",
        "numberOfBytes": "32"
      }
    }
  }
}