{
  "address": "0x2FD7f5a21A6D8c3F1A85fD3DD0B619Fb7B133cE1",
  "abi": [
    {
      "inputs": [
        {
          "components": [
            {
              "internalType": "contract IERC20",
              "name": "stakingToken",
              "type": "address"
            },
            {
              "internalType": "contract FreePlayToken",
              "name": "freeStakingToken",
              "type": "address"
            },
            {
              "internalType": "contract AllianceRegistry",
              "name": "allianceRegistry",
              "type": "address"
            },
            {
              "internalType": "bytes32",
              "name": "genesis",
              "type": "bytes32"
            },
            {
              "internalType": "uint256",
              "name": "resolveWindow",
              "type": "uint256"
            },
            {
              "internalType": "uint256",
              "name": "timePerDistance",
              "type": "uint256"
            },
            {
              "internalType": "uint256",
              "name": "exitDuration",
              "type": "uint256"
            },
            {
              "internalType": "uint32",
              "name": "acquireNumSpaceships",
              "type": "uint32"
            },
            {
              "internalType": "uint32",
              "name": "productionSpeedUp",
              "type": "uint32"
            },
            {
              "internalType": "uint256",
              "name": "frontrunningDelay",
              "type": "uint256"
            },
            {
              "internalType": "uint256",
              "name": "productionCapAsDuration",
              "type": "uint256"
            },
            {
              "internalType": "uint256",
              "name": "upkeepProductionDecreaseRatePer10000th",
              "type": "uint256"
            },
            {
              "internalType": "uint256",
              "name": "fleetSizeFactor6",
              "type": "uint256"
            },
            {
              "internalType": "uint32",
              "name": "expansionDelta",
              "type": "uint32"
            },
            {
              "internalType": "uint256",
              "name": "giftTaxPer10000",
              "type": "uint256"
            },
            {
              "internalType": "bytes32",
              "name": "stakeRange",
              "type": "bytes32"
            },
            {
              "internalType": "uint256",
              "name": "stakeMultiplier10000th",
              "type": "uint256"
            }
          ],
          "internalType": "struct OuterSpaceFacetBase.Config",
          "name": "config",
          "type": "tuple"
        }
      ],
      "stateMutability": "nonpayable",
      "type": "constructor"
    },
    {
      "anonymous": false,
      "inputs": [
        {
          "indexed": true,
          "internalType": "address",
          "name": "owner",
          "type": "address"
        },
        {
          "indexed": true,
          "internalType": "address",
          "name": "operator",
          "type": "address"
        },
        {
          "indexed": false,
          "internalType": "bool",
          "name": "approved",
          "type": "bool"
        }
      ],
      "name": "ApprovalForAll",
      "type": "event"
    },
    {
      "anonymous": false,
      "inputs": [
        {
          "indexed": true,
          "internalType": "address",
          "name": "owner",
          "type": "address"
        },
        {
          "indexed": true,
          "internalType": "uint256",
          "name": "location",
          "type": "uint256"
        },
        {
          "indexed": false,
          "internalType": "uint256",
          "name": "stake",
          "type": "uint256"
        }
      ],
      "name": "ExitComplete",
      "type": "event"
    },
    {
      "anonymous": false,
      "inputs": [
        {
          "indexed": true,
          "internalType": "uint256",
          "name": "fleet",
          "type": "uint256"
        },
        {
          "indexed": true,
          "internalType": "address",
          "name": "fleetOwner",
          "type": "address"
        },
        {
          "indexed": true,
          "internalType": "address",
          "name": "destinationOwner",
          "type": "address"
        },
        {
          "indexed": false,
          "internalType": "uint256",
          "name": "destination",
          "type": "uint256"
        },
        {
          "indexed": false,
          "internalType": "bool",
          "name": "gift",
          "type": "bool"
        },
        {
          "indexed": false,
          "internalType": "bool",
          "name": "won",
          "type": "bool"
        },
        {
          "components": [
            {
              "internalType": "uint32",
              "name": "newNumspaceships",
              "type": "uint32"
            },
            {
              "internalType": "int40",
              "name": "newTravelingUpkeep",
              "type": "int40"
            },
            {
              "internalType": "uint32",
              "name": "newOverflow",
              "type": "uint32"
            },
            {
              "internalType": "uint32",
              "name": "numSpaceshipsAtArrival",
              "type": "uint32"
            },
            {
              "internalType": "uint32",
              "name": "taxLoss",
              "type": "uint32"
            },
            {
              "internalType": "uint32",
              "name": "fleetLoss",
              "type": "uint32"
            },
            {
              "internalType": "uint32",
              "name": "planetLoss",
              "type": "uint32"
            },
            {
              "internalType": "uint32",
              "name": "inFlightFleetLoss",
              "type": "uint32"
            },
            {
              "internalType": "uint32",
              "name": "inFlightPlanetLoss",
              "type": "uint32"
            },
            {
              "internalType": "uint32",
              "name": "accumulatedDefenseAdded",
              "type": "uint32"
            },
            {
              "internalType": "uint32",
              "name": "accumulatedAttackAdded",
              "type": "uint32"
            }
          ],
          "indexed": false,
          "internalType": "struct ImportingOuterSpaceEvents.ArrivalData",
          "name": "data",
          "type": "tuple"
        }
      ],
      "name": "FleetArrived",
      "type": "event"
    },
    {
      "anonymous": false,
      "inputs": [
        {
          "indexed": true,
          "internalType": "address",
          "name": "fleetSender",
          "type": "address"
        },
        {
          "indexed": true,
          "internalType": "address",
          "name": "fleetOwner",
          "type": "address"
        },
        {
          "indexed": true,
          "internalType": "uint256",
          "name": "from",
          "type": "uint256"
        },
        {
          "indexed": false,
          "internalType": "address",
          "name": "operator",
          "type": "address"
        },
        {
          "indexed": false,
          "internalType": "uint256",
          "name": "fleet",
          "type": "uint256"
        },
        {
          "indexed": false,
          "internalType": "uint32",
          "name": "quantity",
          "type": "uint32"
        },
        {
          "indexed": false,
          "internalType": "uint32",
          "name": "newNumSpaceships",
          "type": "uint32"
        },
        {
          "indexed": false,
          "internalType": "int40",
          "name": "newTravelingUpkeep",
          "type": "int40"
        },
        {
          "indexed": false,
          "internalType": "uint32",
          "name": "newOverflow",
          "type": "uint32"
        }
      ],
      "name": "FleetSent",
      "type": "event"
    },
    {
      "anonymous": false,
      "inputs": [
        {
          "indexed": false,
          "internalType": "bytes32",
          "name": "genesis",
          "type": "bytes32"
        },
        {
          "indexed": false,
          "internalType": "uint256",
          "name": "resolveWindow",
          "type": "uint256"
        },
        {
          "indexed": false,
          "internalType": "uint256",
          "name": "timePerDistance",
          "type": "uint256"
        },
        {
          "indexed": false,
          "internalType": "uint256",
          "name": "exitDuration",
          "type": "uint256"
        },
        {
          "indexed": false,
          "internalType": "uint32",
          "name": "acquireNumSpaceships",
          "type": "uint32"
        },
        {
          "indexed": false,
          "internalType": "uint32",
          "name": "productionSpeedUp",
          "type": "uint32"
        },
        {
          "indexed": false,
          "internalType": "uint256",
          "name": "frontrunningDelay",
          "type": "uint256"
        },
        {
          "indexed": false,
          "internalType": "uint256",
          "name": "productionCapAsDuration",
          "type": "uint256"
        },
        {
          "indexed": false,
          "internalType": "uint256",
          "name": "upkeepProductionDecreaseRatePer10000th",
          "type": "uint256"
        },
        {
          "indexed": false,
          "internalType": "uint256",
          "name": "fleetSizeFactor6",
          "type": "uint256"
        },
        {
          "indexed": false,
          "internalType": "uint32",
          "name": "initialSpaceExpansion",
          "type": "uint32"
        },
        {
          "indexed": false,
          "internalType": "uint32",
          "name": "expansionDelta",
          "type": "uint32"
        },
        {
          "indexed": false,
          "internalType": "uint256",
          "name": "giftTaxPer10000",
          "type": "uint256"
        }
      ],
      "name": "Initialized",
      "type": "event"
    },
    {
      "anonymous": false,
      "inputs": [
        {
          "indexed": true,
          "internalType": "address",
          "name": "owner",
          "type": "address"
        },
        {
          "indexed": true,
          "internalType": "uint256",
          "name": "location",
          "type": "uint256"
        }
      ],
      "name": "PlanetExit",
      "type": "event"
    },
    {
      "anonymous": false,
      "inputs": [
        {
          "indexed": true,
          "internalType": "uint256",
          "name": "location",
          "type": "uint256"
        }
      ],
      "name": "PlanetReset",
      "type": "event"
    },
    {
      "anonymous": false,
      "inputs": [
        {
          "indexed": true,
          "internalType": "address",
          "name": "acquirer",
          "type": "address"
        },
        {
          "indexed": true,
          "internalType": "uint256",
          "name": "location",
          "type": "uint256"
        },
        {
          "indexed": false,
          "internalType": "uint32",
          "name": "numSpaceships",
          "type": "uint32"
        },
        {
          "indexed": false,
          "internalType": "int40",
          "name": "travelingUpkeep",
          "type": "int40"
        },
        {
          "indexed": false,
          "internalType": "uint32",
          "name": "overflow",
          "type": "uint32"
        },
        {
          "indexed": false,
          "internalType": "uint256",
          "name": "stake",
          "type": "uint256"
        },
        {
          "indexed": false,
          "internalType": "bool",
          "name": "freegift",
          "type": "bool"
        }
      ],
      "name": "PlanetStake",
      "type": "event"
    },
    {
      "anonymous": false,
      "inputs": [
        {
          "indexed": true,
          "internalType": "address",
          "name": "previousOwner",
          "type": "address"
        },
        {
          "indexed": true,
          "internalType": "address",
          "name": "newOwner",
          "type": "address"
        },
        {
          "indexed": true,
          "internalType": "uint256",
          "name": "location",
          "type": "uint256"
        },
        {
          "indexed": false,
          "internalType": "uint32",
          "name": "newNumspaceships",
          "type": "uint32"
        },
        {
          "indexed": false,
          "internalType": "int40",
          "name": "newTravelingUpkeep",
          "type": "int40"
        },
        {
          "indexed": false,
          "internalType": "uint32",
          "name": "newOverflow",
          "type": "uint32"
        }
      ],
      "name": "PlanetTransfer",
      "type": "event"
    },
    {
      "anonymous": false,
      "inputs": [
        {
          "indexed": true,
          "internalType": "uint256",
          "name": "location",
          "type": "uint256"
        },
        {
          "indexed": true,
          "internalType": "address",
          "name": "giver",
          "type": "address"
        },
        {
          "indexed": false,
          "internalType": "uint256",
          "name": "rewardId",
          "type": "uint256"
        }
      ],
      "name": "RewardSetup",
      "type": "event"
    },
    {
      "anonymous": false,
      "inputs": [
        {
          "indexed": true,
          "internalType": "address",
          "name": "owner",
          "type": "address"
        },
        {
          "indexed": true,
          "internalType": "uint256",
          "name": "location",
          "type": "uint256"
        },
        {
          "indexed": true,
          "internalType": "uint256",
          "name": "rewardId",
          "type": "uint256"
        }
      ],
      "name": "RewardToWithdraw",
      "type": "event"
    },
    {
      "anonymous": false,
      "inputs": [
        {
          "indexed": true,
          "internalType": "address",
          "name": "owner",
          "type": "address"
        },
        {
          "indexed": false,
          "internalType": "uint256",
          "name": "newStake",
          "type": "uint256"
        },
        {
          "indexed": false,
          "internalType": "bool",
          "name": "freegift",
          "type": "bool"
        }
      ],
      "name": "StakeToWithdraw",
      "type": "event"
    },
    {
      "anonymous": false,
      "inputs": [
        {
          "indexed": true,
          "internalType": "address",
          "name": "from",
          "type": "address"
        },
        {
          "indexed": true,
          "internalType": "address",
          "name": "to",
          "type": "address"
        },
        {
          "indexed": true,
          "internalType": "uint256",
          "name": "location",
          "type": "uint256"
        }
      ],
      "name": "Transfer",
      "type": "event"
    },
    {
      "anonymous": false,
      "inputs": [
        {
          "indexed": true,
          "internalType": "uint256",
          "name": "origin",
          "type": "uint256"
        },
        {
          "indexed": true,
          "internalType": "uint256",
          "name": "fleet",
          "type": "uint256"
        },
        {
          "indexed": false,
          "internalType": "uint32",
          "name": "newNumspaceships",
          "type": "uint32"
        },
        {
          "indexed": false,
          "internalType": "int40",
          "name": "newTravelingUpkeep",
          "type": "int40"
        },
        {
          "indexed": false,
          "internalType": "uint32",
          "name": "newOverflow",
          "type": "uint32"
        }
      ],
      "name": "TravelingUpkeepRefund",
      "type": "event"
    },
    {
      "inputs": [
        {
          "internalType": "uint256",
          "name": "location",
          "type": "uint256"
        }
      ],
      "name": "getPlanet",
      "outputs": [
        {
          "components": [
            {
              "internalType": "address",
              "name": "owner",
              "type": "address"
            },
            {
              "internalType": "uint40",
              "name": "ownershipStartTime",
              "type": "uint40"
            },
            {
              "internalType": "uint40",
              "name": "exitStartTime",
              "type": "uint40"
            },
            {
              "internalType": "uint32",
              "name": "numSpaceships",
              "type": "uint32"
            },
            {
              "internalType": "uint32",
              "name": "overflow",
              "type": "uint32"
            },
            {
              "internalType": "uint40",
              "name": "lastUpdated",
              "type": "uint40"
            },
            {
              "internalType": "bool",
              "name": "active",
              "type": "bool"
            },
            {
              "internalType": "uint256",
              "name": "reward",
              "type": "uint256"
            }
          ],
          "internalType": "struct ImportingOuterSpaceTypes.ExternalPlanet",
          "name": "state",
          "type": "tuple"
        },
        {
          "components": [
            {
              "internalType": "int8",
              "name": "subX",
              "type": "int8"
            },
            {
              "internalType": "int8",
              "name": "subY",
              "type": "int8"
            },
            {
              "internalType": "uint32",
              "name": "stake",
              "type": "uint32"
            },
            {
              "internalType": "uint16",
              "name": "production",
              "type": "uint16"
            },
            {
              "internalType": "uint16",
              "name": "attack",
              "type": "uint16"
            },
            {
              "internalType": "uint16",
              "name": "defense",
              "type": "uint16"
            },
            {
              "internalType": "uint16",
              "name": "speed",
              "type": "uint16"
            },
            {
              "internalType": "uint16",
              "name": "natives",
              "type": "uint16"
            }
          ],
          "internalType": "struct ImportingOuterSpaceTypes.PlanetStats",
          "name": "stats",
          "type": "tuple"
        }
      ],
      "stateMutability": "view",
      "type": "function"
    },
    {
      "inputs": [
        {
          "internalType": "uint256",
          "name": "location",
          "type": "uint256"
        }
      ],
      "name": "getPlanetState",
      "outputs": [
        {
          "components": [
            {
              "internalType": "address",
              "name": "owner",
              "type": "address"
            },
            {
              "internalType": "uint40",
              "name": "ownershipStartTime",
              "type": "uint40"
            },
            {
              "internalType": "uint40",
              "name": "exitStartTime",
              "type": "uint40"
            },
            {
              "internalType": "uint32",
              "name": "numSpaceships",
              "type": "uint32"
            },
            {
              "internalType": "uint40",
              "name": "lastUpdated",
              "type": "uint40"
            },
            {
              "internalType": "int40",
              "name": "travelingUpkeep",
              "type": "int40"
            },
            {
              "internalType": "uint32",
              "name": "overflow",
              "type": "uint32"
            }
          ],
          "internalType": "struct ImportingOuterSpaceTypes.Planet",
          "name": "state",
          "type": "tuple"
        }
      ],
      "stateMutability": "view",
      "type": "function"
    },
    {
      "inputs": [
        {
          "internalType": "address",
          "name": "owner",
          "type": "address"
        },
        {
          "internalType": "address",
          "name": "operator",
          "type": "address"
        }
      ],
      "name": "isApprovedForAll",
      "outputs": [
        {
          "internalType": "bool",
          "name": "",
          "type": "bool"
        }
      ],
      "stateMutability": "view",
      "type": "function"
    },
    {
      "inputs": [
        {
          "internalType": "uint256",
          "name": "location",
          "type": "uint256"
        }
      ],
      "name": "ownerAndOwnershipStartTimeOf",
      "outputs": [
        {
          "internalType": "address",
          "name": "owner",
          "type": "address"
        },
        {
          "internalType": "uint40",
          "name": "ownershipStartTime",
          "type": "uint40"
        }
      ],
      "stateMutability": "view",
      "type": "function"
    },
    {
      "inputs": [
        {
          "internalType": "uint256",
          "name": "location",
          "type": "uint256"
        }
      ],
      "name": "ownerOf",
      "outputs": [
        {
          "internalType": "address",
          "name": "currentOwner",
          "type": "address"
        }
      ],
      "stateMutability": "view",
      "type": "function"
    },
    {
      "inputs": [
        {
          "internalType": "address",
          "name": "from",
          "type": "address"
        },
        {
          "internalType": "address",
          "name": "to",
          "type": "address"
        },
        {
          "internalType": "uint256",
          "name": "location",
          "type": "uint256"
        }
      ],
      "name": "safeTransferFrom",
      "outputs": [],
      "stateMutability": "nonpayable",
      "type": "function"
    },
    {
      "inputs": [
        {
          "internalType": "address",
          "name": "from",
          "type": "address"
        },
        {
          "internalType": "address",
          "name": "to",
          "type": "address"
        },
        {
          "internalType": "uint256",
          "name": "location",
          "type": "uint256"
        },
        {
          "internalType": "bytes",
          "name": "data",
          "type": "bytes"
        }
      ],
      "name": "safeTransferFrom",
      "outputs": [],
      "stateMutability": "nonpayable",
      "type": "function"
    },
    {
      "inputs": [
        {
          "internalType": "address",
          "name": "operator",
          "type": "address"
        },
        {
          "internalType": "bool",
          "name": "approved",
          "type": "bool"
        }
      ],
      "name": "setApprovalForAll",
      "outputs": [],
      "stateMutability": "nonpayable",
      "type": "function"
    },
    {
      "inputs": [
        {
          "internalType": "contract IApprovalForAllReceiver",
          "name": "operator",
          "type": "address"
        },
        {
          "internalType": "bytes",
          "name": "data",
          "type": "bytes"
        }
      ],
      "name": "setApprovalForAllIfNeededAndCall",
      "outputs": [],
      "stateMutability": "nonpayable",
      "type": "function"
    },
    {
      "inputs": [
        {
          "internalType": "address",
          "name": "from",
          "type": "address"
        },
        {
          "internalType": "address",
          "name": "to",
          "type": "address"
        },
        {
          "internalType": "uint256",
          "name": "location",
          "type": "uint256"
        }
      ],
      "name": "transferFrom",
      "outputs": [],
      "stateMutability": "nonpayable",
      "type": "function"
    }
  ],
  "transactionHash": "0x2ca87073908b771a47816517d3591e7af03e4d6dfd204a979adc4d2619ae51f2",
  "args": [
    {
      "stakingToken": "0x1874F6326eEbcCe664410a93a5217741a977D14A",
      "freeStakingToken": "0x8d82B1900bc77fACdf6f2209869E4f816E4fbcB2",
      "allianceRegistry": "0xE345AfBc1b76AE8BA45dAE732F7CD9bdf197ccEe",
      "genesis": "0xdefd8666ec077c932b62f77bcfea4badcb3c296fc1f8a8792c9b7ca2ee6c8c4c",
      "resolveWindow": 43200,
      "timePerDistance": 7200,
      "exitDuration": 259200,
      "acquireNumSpaceships": 100000,
      "productionSpeedUp": 1,
      "frontrunningDelay": 1800,
      "productionCapAsDuration": 259200,
      "upkeepProductionDecreaseRatePer10000th": 5000,
      "fleetSizeFactor6": 500000,
      "initialSpaceExpansion": 12,
      "expansionDelta": 6,
      "giftTaxPer10000": 2000,
      "stakeRange": "0x00060008000A000C000E00100012001400140016001800200028003000380048",
      "stakeMultiplier10000th": 1666
    }
  ],
  "numDeployments": 1,
  "linkedData": {
    "genesisHash": "0xdefd8666ec077c932b62f77bcfea4badcb3c296fc1f8a8792c9b7ca2ee6c8c4c",
    "resolveWindow": 43200,
    "timePerDistance": 7200,
    "exitDuration": 259200,
    "acquireNumSpaceships": 100000,
    "productionSpeedUp": 1,
    "chainGenesisHash": "",
    "frontrunningDelay": 1800,
    "productionCapAsDuration": 259200,
    "upkeepProductionDecreaseRatePer10000th": 5000,
    "fleetSizeFactor6": 500000,
    "initialSpaceExpansion": 12,
    "expansionDelta": 6,
    "giftTaxPer10000": 2000,
    "stakeRange": "0x00060008000A000C000E00100012001400140016001800200028003000380048",
    "stakeMultiplier10000th": 1666
  },
  "solcInputHash": "02da93cf1935fb9370486130b817da02",
  "bytecode": "0x6102a06040523480156200001257600080fd5b5060405162002e6538038062002e658339810160408190526200003591620001df565b80600060048260a001516200004b9190620002e9565b60a0830151909150620000608260046200031b565b63ffffffff1614620000b85760405162461bcd60e51b815260206004820152601d60248201527f54494d455f5045525f444953545f4e4f545f444956495349424c455f34000000604482015260640160405180910390fd5b81516001600160a01b0390811660809081526020840151821660a052604084015190911660c0908152606084015160e09081529184015161010090815263ffffffff93841661012090815291850151610140908152928501518416610160908152908501518416610180908152918501516101a0908152928501516101c0908152908501516101e0908152918501516102009081529285015190931661022052918301516102405290820151610260520151610280525062000356565b60405161022081016001600160401b0381118282101715620001a757634e487b7160e01b600052604160045260246000fd5b60405290565b80516001600160a01b0381168114620001c557600080fd5b919050565b805163ffffffff81168114620001c557600080fd5b60006102208284031215620001f357600080fd5b620001fd62000175565b6200020883620001ad565b81526200021860208401620001ad565b60208201526200022b60408401620001ad565b6040820152606083015160608201526080830151608082015260a083015160a082015260c083015160c08201526200026660e08401620001ca565b60e08201526101006200027b818501620001ca565b9082015261012083810151908201526101408084015190820152610160808401519082015261018080840151908201526101a0620002bb818501620001ca565b908201526101c083810151908201526101e08084015190820152610200928301519281019290925250919050565b600063ffffffff808416806200030f57634e487b7160e01b600052601260045260246000fd5b92169190910492915050565b600063ffffffff808316818516818304811182151516156200034d57634e487b7160e01b600052601160045260246000fd5b02949350505050565b60805160a05160c05160e05161010051610120516101405161016051610180516101a0516101c0516101e0516102005161022051610240516102605161028051612a206200044560003960006119350152600061195601526000610b7301526000505060005050600081816111c0015261130f0152600081816110750152611cfd015260005050600081816110290152818161111c015281816111ee0152818161126a015281816113bb0152611d9a01526000611d3b01526000611cbf0152600050506000505060008181610cdf0152610f3b0152600061151301526000611e1f015260005050612a206000f3fe608060405234801561001057600080fd5b50600436106100be5760003560e01c8063a22cb46511610076578063d522989e1161005b578063d522989e1461020d578063d61b2c1e146103b1578063e985e9c5146103c457600080fd5b8063a22cb465146101e7578063b88d4fde146101fa57600080fd5b806342842e0e116100a757806342842e0e146100c35780636352211e146101025780638a886cd51461015d57600080fd5b806323b872dd146100c357806334efcb8e146100d8575b600080fd5b6100d66100d13660046122a5565b6103e7565b005b6100eb6100e63660046122e6565b6103f7565b6040516100f992919061236e565b60405180910390f35b6101386101103660046122e6565b60009081526020819052604090205473ffffffffffffffffffffffffffffffffffffffff1690565b60405173ffffffffffffffffffffffffffffffffffffffff90911681526020016100f9565b6101b561016b3660046122e6565b60009081526020819052604090205473ffffffffffffffffffffffffffffffffffffffff8116917401000000000000000000000000000000000000000090910464ffffffffff1690565b6040805173ffffffffffffffffffffffffffffffffffffffff909316835264ffffffffff9091166020830152016100f9565b6100d66101f5366004612427565b610586565b6100d66102083660046124ae565b61061c565b61032661021b3660046122e6565b6040805160e081018252600080825260208201819052918101829052606081018290526080810182905260a0810182905260c08101919091525060009081526020818152604091829020825160e081018452815473ffffffffffffffffffffffffffffffffffffffff8116825264ffffffffff74010000000000000000000000000000000000000000820481169483019490945279010000000000000000000000000000000000000000000000000090048316938101939093526001015463ffffffff8082166060850152640100000000820490921660808401526901000000000000000000810460040b60a08401526e01000000000000000000000000000090041660c082015290565b6040516100f99190600060e08201905073ffffffffffffffffffffffffffffffffffffffff8351168252602083015164ffffffffff80821660208501528060408601511660408501526060850151915063ffffffff808316606086015281608087015116608086015260a086015160040b60a08601528060c08701511660c086015250505092915050565b6100d66103bf366004612521565b61062e565b6103d76103d2366004612576565b610787565b60405190151581526020016100f9565b6103f28383836107c4565b505050565b6040805161010081018252600080825260208201819052918101829052606081018290526080810182905260a0810182905260c0810182905260e08101919091526040805161010081018252600080825260208201819052918101829052606081018290526080810182905260a0810182905260c0810182905260e08101919091526000838152602081905260408120600181015490915060009081906104a39063ffffffff16610c79565b6040805161010081018252865473ffffffffffffffffffffffffffffffffffffffff8116825264ffffffffff740100000000000000000000000000000000000000008204811660208085019190915279010000000000000000000000000000000000000000000000000090920481168385015263ffffffff808616606085015260018a01546e0100000000000000000000000000008104909116608085015264010000000090041660a083015284151560c083015260008b81526007909152919091205460e08201529650909250905061057c86610c98565b9350505050915091565b33600081815260036020908152604080832073ffffffffffffffffffffffffffffffffffffffff87168085529083529281902080547fffffffffffffffffffffffffffffffffffffffffffffffffffffffffffffff00168615159081179091558151908152905184927f17307eab39ab6107e8899845ad3d59bd9653f200f220920489ca2b5937696c31928290030190a3505050565b6106278585856107c4565b5050505050565b33600081815260036020908152604080832073ffffffffffffffffffffffffffffffffffffffff8816845290915290205460ff166106f95773ffffffffffffffffffffffffffffffffffffffff81811660008181526003602090815260408083209489168084529482529182902080547fffffffffffffffffffffffffffffffffffffffffffffffffffffffffffffff0016600190811790915591519182527f17307eab39ab6107e8899845ad3d59bd9653f200f220920489ca2b5937696c31910160405180910390a35b6040517fcffb4f5100000000000000000000000000000000000000000000000000000000815273ffffffffffffffffffffffffffffffffffffffff85169063cffb4f519061074f908490879087906004016125a4565b600060405180830381600087803b15801561076957600080fd5b505af115801561077d573d6000803e3d6000fd5b5050505050505050565b73ffffffffffffffffffffffffffffffffffffffff80831660009081526003602090815260408083209385168352929052205460ff165b92915050565b73ffffffffffffffffffffffffffffffffffffffff8316610846576040517f08c379a000000000000000000000000000000000000000000000000000000000815260206004820152601060248201527f4e4f545f5a45524f5f414444524553530000000000000000000000000000000060448201526064015b60405180910390fd5b73ffffffffffffffffffffffffffffffffffffffff82166108c3576040517f08c379a000000000000000000000000000000000000000000000000000000000815260206004820152601060248201527f4e4f545f5a45524f5f4144445245535300000000000000000000000000000000604482015260640161083d565b60008181526020819052604081206040805160e081018252825473ffffffffffffffffffffffffffffffffffffffff8116825264ffffffffff74010000000000000000000000000000000000000000820481166020840152790100000000000000000000000000000000000000000000000000909104811692820192909252600183015463ffffffff8082166060840152640100000000820490931660808301526901000000000000000000810460040b60a08301526e010000000000000000000000000000900490911660c08201529091506000906109a39084610e2f565b90506109ae81610f97565b8473ffffffffffffffffffffffffffffffffffffffff1681610120015173ffffffffffffffffffffffffffffffffffffffff1614610a48576040517f08c379a000000000000000000000000000000000000000000000000000000000815260206004820152600e60248201527f46524f4d5f4e4f545f4f574e4552000000000000000000000000000000000000604482015260640161083d565b80610120015173ffffffffffffffffffffffffffffffffffffffff163373ffffffffffffffffffffffffffffffffffffffff1614610b1f5761012081015173ffffffffffffffffffffffffffffffffffffffff16600090815260036020908152604080832033845290915290205460ff16610b1f576040517f08c379a000000000000000000000000000000000000000000000000000000000815260206004820152600c60248201527f4e4f545f4f50455241544f520000000000000000000000000000000000000000604482015260640161083d565b73ffffffffffffffffffffffffffffffffffffffff8416610120820152606081015163ffffffff1615801590610b695750610b678585610b626203f4804261263d565b611478565b155b15610bd2576127107f0000000000000000000000000000000000000000000000000000000000000000826060015163ffffffff16610ba79190612654565b610bb191906126c0565b816060015163ffffffff16610bc6919061263d565b63ffffffff1660608201525b610bde828260006115cb565b828473ffffffffffffffffffffffffffffffffffffffff168673ffffffffffffffffffffffffffffffffffffffff167f0162c11e05aed256d6c4963bf2a6ee4e0066b6c224a89214e4ff80730bd2565b846060015185608001518660e00151604051610c6a9392919063ffffffff938416815260049290920b6020830152909116604082015260600190565b60405180910390a45050505050565b6380000000818116811490600090610c9190846126d4565b9050915091565b60408051610100810182526000808252602080830182905282840182905260608084018390526080840183905260a0840183905260c0840183905260e084019290925283517f00000000000000000000000000000000000000000000000000000000000000008183015280850186905284518082038601815292019093528051920191909120610d278161185c565b610d8d576040517f08c379a000000000000000000000000000000000000000000000000000000000815260206004820152601a60248201527f6e6f20706c616e657420696e2074686973206c6f636174696f6e000000000000604482015260640161083d565b600080610d9983611878565b915091506040518061010001604052808360000b81526020018260000b8152602001610dc4856118ac565b63ffffffff168152602001610dd8856119c9565b61ffff168152602001610dea85611a66565b61ffff168152602001610dfc85611afd565b61ffff168152602001610e0e85611b79565b61ffff168152602001610e2085611c10565b61ffff16905295945050505050565b6040805161018081018252600080825260208201819052918101829052606081018290526080810182905260a0810182905260c0810182905260e08101829052610100810182905261012081018290526101408101829052610160810191909152600080610ea08560600151610c79565b85855260808088015164ffffffffff908116602088015283151560408089019190915263ffffffff80851660608a015260a0808c015160040b948a0194909452908a01805183169389019390935291511660c0808801919091528801511660e0860152865173ffffffffffffffffffffffffffffffffffffffff9081166101008701528751166101208601529092509050610f8884604080517f00000000000000000000000000000000000000000000000000000000000000006020820152908101829052600090606001604051602081830303815290604052805190602001209050919050565b61014084015250909392505050565b60a081015164ffffffffff1615610fe857610fb58160a00151611ca7565b15610fe857600060c082018190526060820181905260808201819052610120820181905260e08201819052604090910152565b6000816020015164ffffffffff1642611001919061263d565b905060006110138361014001516119c9565b90506000610e1061ffff831661104f63ffffffff7f00000000000000000000000000000000000000000000000000000000000000001686612654565b6110599190612654565b61106391906126c0565b606085015190915063ffffffff1660007f0000000000000000000000000000000000000000000000000000000000000000156113915760006110a485611cf3565b9050600087604001516110b85760006110ba565b815b9050808411156111975760e08801516107089063ffffffff161561110c57828960e0015163ffffffff166107086110f19190612654565b6110fb91906126c0565b905061070881101561110c57506107085b6000610e108261114263ffffffff7f0000000000000000000000000000000000000000000000000000000000000000168c612654565b61114c9190612654565b61115691906126c0565b9050611162838761263d565b81111561117657611173838761263d565b90505b896040015115611184578094505b61118e818761263d565b955050506112fa565b8760400151156112fa5760008590506000896080015160040b13156112c0576000612710610e107f000000000000000000000000000000000000000000000000000000000000000061121361ffff8c1663ffffffff7f000000000000000000000000000000000000000000000000000000000000000016612654565b61121d9190612654565b61122791906126c0565b61123191906126c0565b8a6080015164ffffffffff1661124791906126c0565b9050888110611258578194506112b2565b610e1061ffff891661129063ffffffff7f00000000000000000000000000000000000000000000000000000000000000001684612654565b61129a9190612654565b6112a491906126c0565b9450818511156112b2578194505b6112bc858361263d565b9150505b60006112cc868461263d565b9050808211156112f0576112e0818361263d565b6112ea90866126f7565b94508091505b61118e82876126f7565b87604001511561138a576000836127106113347f000000000000000000000000000000000000000000000000000000000000000089612654565b61133e91906126c0565b61134891906126f7565b905060008160040b8a6080015160040b611362919061270f565b905061136d83612783565b8112156113805761137d83612783565b90505b60040b60808a0152505b5050611419565b8560400151156113ac576113a583836126f7565b9150611419565b6000610e106113e163ffffffff7f00000000000000000000000000000000000000000000000000000000000000001688612654565b6113ed90610708612654565b6113f791906126c0565b90508281111561140a5750600091611417565b611414818461263d565b92505b505b6380000000821061143c57611433600163800000006127bc565b63ffffffff1691505b63ffffffff8216606087015260408601511580156114625750606086015163ffffffff16155b156114705760006101208701525b505050505050565b60008273ffffffffffffffffffffffffffffffffffffffff168473ffffffffffffffffffffffffffffffffffffffff1614156114b6575060006115c4565b6040517fdf2c0f4900000000000000000000000000000000000000000000000000000000815273ffffffffffffffffffffffffffffffffffffffff8581166004830152848116602483015264ffffffffff841660448301526000917f00000000000000000000000000000000000000000000000000000000000000009091169063df2c0f4990606401604080518083038186803b15801561155657600080fd5b505afa15801561156a573d6000803e3d6000fd5b505050506040513d601f19601f8201168201806040525081019061158e91906127e1565b9150506bffffffffffffffffffffffff811615806115c057508264ffffffffff16816bffffffffffffffffffffffff16115b9150505b9392505050565b60008260a0015164ffffffffff161180156115ef575060c082015164ffffffffff16155b156115fd576115fd82611d60565b81610120015173ffffffffffffffffffffffffffffffffffffffff1682610100015173ffffffffffffffffffffffffffffffffffffffff16146116d857610120820151835473ffffffffffffffffffffffffffffffffffffffff9182167fffffffffffffff000000000000000000000000000000000000000000000000009091168117740100000000000000000000000000000000000000004264ffffffffff16021785558351610100850151604051919316907fddf252ad1be2c89b69c2b068fc378daa952ba7f163c4a11628f55a4df523b3ef90600090a45b80156117095782547fffff0000000000ffffffffffffffffffffffffffffffffffffffffffffffffff16835561177a565b8160a0015164ffffffffff168260c0015164ffffffffff161461177a5760c0820151835464ffffffffff909116790100000000000000000000000000000000000000000000000000027fffff0000000000ffffffffffffffffffffffffffffffffffffffffffffffffff9091161783555b61178c8260400151836060015161201c565b60019093018054608084015160e0909401514264ffffffffff908116640100000000027fffffffffffffffffffffffffffffffffffffffffffffff0000000000ffffffff63ffffffff9384166e01000000000000000000000000000002167fffffffffffffffffffffffffffff00000000ffffffffff0000000000ffffffff929097166901000000000000000000027fffffffffffffffffffffffffffffffffffff0000000000ffffffffff00000000909416979092169690961791909117949094169290921792909217905550565b600061186b826034601061203b565b60ff166001149050919050565b6000806118878382600361203b565b611892906001612821565b91506118a1836002600361203b565b610c91906001612821565b60006118b78261185c565b61191d576040517f08c379a000000000000000000000000000000000000000000000000000000000815260206004820152601160248201527f504c414e45545f4e4f545f455849535453000000000000000000000000000000604482015260640161083d565b600061192a83600c612050565b905060ff81166103e87f00000000000000000000000000000000000000000000000000000000000000007f0000000000000000000000000000000000000000000000000000000000000000611980846002612883565b61198b9060016128ad565b61ffff166020811061199f5761199f6128d3565b6119ab9291901a612654565b6119b591906126c0565b6119c1906103e8612654565b949350505050565b60006119d48261185c565b611a3a576040517f08c379a000000000000000000000000000000000000000000000000000000000815260206004820152601160248201527f504c414e45545f4e4f545f455849535453000000000000000000000000000000604482015260640161083d565b6107be82600c7f0708083409600a8c0bb80ce40e100e100e100e101068151819c81e7823282ee06120ea565b6000611a718261185c565b611ad7576040517f08c379a000000000000000000000000000000000000000000000000000000000815260206004820152601160248201527f504c414e45545f4e4f545f455849535453000000000000000000000000000000604482015260640161083d565b611ae2826014612050565b611af19060ff16610190612883565b6107be90610fa06128ad565b6000611b088261185c565b611b6e576040517f08c379a000000000000000000000000000000000000000000000000000000000815260206004820152601160248201527f504c414e45545f4e4f545f455849535453000000000000000000000000000000604482015260640161083d565b611ae282601c612050565b6000611b848261185c565b611bea576040517f08c379a000000000000000000000000000000000000000000000000000000000815260206004820152601160248201527f504c414e45545f4e4f545f455849535453000000000000000000000000000000604482015260640161083d565b611bf5826024612050565b611c049060ff1661014d612883565b6107be9061138d6128ad565b6000611c1b8261185c565b611c81576040517f08c379a000000000000000000000000000000000000000000000000000000000815260206004820152601160248201527f504c414e45545f4e4f545f455849535453000000000000000000000000000000604482015260640161083d565b611c8c82602c612050565b611c9b9060ff16610bb8612883565b6107be90613a986128ad565b6000808264ffffffffff161180156107be5750611ceb7f000000000000000000000000000000000000000000000000000000000000000064ffffffffff84166126f7565b421192915050565b6000610e10611d267f000000000000000000000000000000000000000000000000000000000000000061ffff8516612654565b611d3091906126c0565b6107be9063ffffffff7f0000000000000000000000000000000000000000000000000000000000000000166126f7565b6000611d7b826101000151836000015184610140015161215b565b82516000908152600b60205260409020549091508015611fe657611dc27f00000000000000000000000000000000000000000000000000000000000000006207e900612902565b611dd29063ffffffff16826126f7565b8360a0015164ffffffffff1610611f3e576040517ff6b911bc00000000000000000000000000000000000000000000000000000000815230600482018190526024820152604481018390527f000000000000000000000000000000000000000000000000000000000000000073ffffffffffffffffffffffffffffffffffffffff169063f6b911bc90606401600060405180830381600087803b158015611e7857600080fd5b505af1158015611e8c573d6000803e3d6000fd5b5050505061010083015173ffffffffffffffffffffffffffffffffffffffff16600090815260026020526040812054611ec69084906126f7565b6101008501805173ffffffffffffffffffffffffffffffffffffffff9081166000908152600260209081526040808320869055935184518681529182019290925293945016917f05eefb5f2a67125e8c65550a4ffa0f542f75624e866ef58fb72bfb547540309291015b60405180910390a250505050565b61010083015173ffffffffffffffffffffffffffffffffffffffff166000908152600a6020526040812054611f749084906126f7565b6101008501805173ffffffffffffffffffffffffffffffffffffffff9081166000908152600a6020908152604091829020859055925181518581526001948101949094529394509216917f05eefb5f2a67125e8c65550a4ffa0f542f75624e866ef58fb72bfb54754030929101611f30565b61010083015173ffffffffffffffffffffffffffffffffffffffff16600090815260026020526040812054611ec69084906126f7565b6000818361202b576000612031565b63800000005b6115c49190612925565b60006119c160ff80841690851686901c612944565b60008061205f8484604061203b565b9050600061206e600283612958565b9050600061207d60028461297a565b905060007f01223334444555555666666677777777888888889999999aaaaaabbbbcccddef60ff8416602081106120b6576120b66128d3565b1a905060ff82166120d45760048160ff16901c9450505050506107be565b6120df60108261297a565b9450505050506107be565b6000806120f78585612050565b90508261210582600261299c565b6121109060016129c5565b60ff1660208110612123576121236128d3565b1a8361213083600261299c565b60ff1660208110612143576121436128d3565b61215191901a610100612883565b6115c091906128ad565b6000655af3107a400061216d836118ac565b63ffffffff1661217d9190612654565b9050828473ffffffffffffffffffffffffffffffffffffffff167f1c363b29828a892b7cddafe9583ef52e0d5aca0ea7011bda6ccf039e1781f738836040516121c891815260200190565b60405180910390a360008381526007602052604090205480156122785773ffffffffffffffffffffffffffffffffffffffff85166000818152600860209081526040808320858452825280832080547fffffffffffffffffffffffffffffffffffffffffffffffffffffffffffffff001660011790558783526007909152808220829055518392879290917f74f110a1e0cd4892234c7ba49df9f8a354cd8d29b272f7557c9b8c3c38a653369190a45b509392505050565b73ffffffffffffffffffffffffffffffffffffffff811681146122a257600080fd5b50565b6000806000606084860312156122ba57600080fd5b83356122c581612280565b925060208401356122d581612280565b929592945050506040919091013590565b6000602082840312156122f857600080fd5b5035919050565b805160000b8252602081015160000b602083015263ffffffff6040820151166040830152606081015161ffff80821660608501528060808401511660808501528060a08401511660a08501528060c08401511660c0850152505060e08101516103f260e084018261ffff169052565b60006102008201905073ffffffffffffffffffffffffffffffffffffffff8451168252602084015164ffffffffff8082166020850152806040870151166040850152505060608401516123c9606084018263ffffffff169052565b5060808401516123e1608084018263ffffffff169052565b5060a08401516123fa60a084018264ffffffffff169052565b5060c084015161240e60c084018215159052565b5060e084015160e08301526115c46101008301846122ff565b6000806040838503121561243a57600080fd5b823561244581612280565b91506020830135801515811461245a57600080fd5b809150509250929050565b60008083601f84011261247757600080fd5b50813567ffffffffffffffff81111561248f57600080fd5b6020830191508360208285010111156124a757600080fd5b9250929050565b6000806000806000608086880312156124c657600080fd5b85356124d181612280565b945060208601356124e181612280565b935060408601359250606086013567ffffffffffffffff81111561250457600080fd5b61251088828901612465565b969995985093965092949392505050565b60008060006040848603121561253657600080fd5b833561254181612280565b9250602084013567ffffffffffffffff81111561255d57600080fd5b61256986828701612465565b9497909650939450505050565b6000806040838503121561258957600080fd5b823561259481612280565b9150602083013561245a81612280565b73ffffffffffffffffffffffffffffffffffffffff8416815260406020820152816040820152818360608301376000818301606090810191909152601f9092017fffffffffffffffffffffffffffffffffffffffffffffffffffffffffffffffe016010192915050565b7f4e487b7100000000000000000000000000000000000000000000000000000000600052601160045260246000fd5b60008282101561264f5761264f61260e565b500390565b6000817fffffffffffffffffffffffffffffffffffffffffffffffffffffffffffffffff048311821515161561268c5761268c61260e565b500290565b7f4e487b7100000000000000000000000000000000000000000000000000000000600052601260045260246000fd5b6000826126cf576126cf612691565b500490565b600063ffffffff808416806126eb576126eb612691565b92169190910692915050565b6000821982111561270a5761270a61260e565b500190565b6000808312837f8000000000000000000000000000000000000000000000000000000000000000018312811516156127495761274961260e565b837f7fffffffffffffffffffffffffffffffffffffffffffffffffffffffffffffff01831381161561277d5761277d61260e565b50500390565b60007f80000000000000000000000000000000000000000000000000000000000000008214156127b5576127b561260e565b5060000390565b600063ffffffff838116908316818110156127d9576127d961260e565b039392505050565b600080604083850312156127f457600080fd5b82516127ff81612280565b60208401519092506bffffffffffffffffffffffff8116811461245a57600080fd5b60008160000b8360000b60008112817fffffffffffffffffffffffffffffffffffffffffffffffffffffffffffffff80018312811516156128645761286461260e565b81607f0183138116156128795761287961260e565b5090039392505050565b600061ffff808316818516818304811182151516156128a4576128a461260e565b02949350505050565b600061ffff8083168185168083038211156128ca576128ca61260e565b01949350505050565b7f4e487b7100000000000000000000000000000000000000000000000000000000600052603260045260246000fd5b600063ffffffff8084168061291957612919612691565b92169190910492915050565b600063ffffffff8083168185168083038211156128ca576128ca61260e565b60008261295357612953612691565b500690565b600060ff83168061296b5761296b612691565b8060ff84160491505092915050565b600060ff83168061298d5761298d612691565b8060ff84160691505092915050565b600060ff821660ff84168160ff04811182151516156129bd576129bd61260e565b029392505050565b600060ff821660ff84168060ff038211156129e2576129e261260e565b01939250505056fea26469706673582212200121f1c7089964caf2ce2eadb52ee377ac5eed2760efe394415eaabbfa212d2664736f6c63430008090033",
  "devdoc": {
    "kind": "dev",
    "methods": {},
    "version": 1
  },
  "userdoc": {
    "kind": "user",
    "methods": {},
    "version": 1
  },
  "storageLayout": {
    "storage": [
      {
        "astId": 17861,
        "contract": "src/outerspace/facets/OuterSpacePlanetsFacet.sol:OuterSpacePlanetsFacet",
        "label": "_planets",
        "offset": 0,
        "slot": "0",
        "type": "t_mapping(t_uint256,t_struct(Planet)25116_storage)"
      },
      {
        "astId": 17866,
        "contract": "src/outerspace/facets/OuterSpacePlanetsFacet.sol:OuterSpacePlanetsFacet",
        "label": "_fleets",
        "offset": 0,
        "slot": "1",
        "type": "t_mapping(t_uint256,t_struct(Fleet)25125_storage)"
      },
      {
        "astId": 17870,
        "contract": "src/outerspace/facets/OuterSpacePlanetsFacet.sol:OuterSpacePlanetsFacet",
        "label": "_stakeReadyToBeWithdrawn",
        "offset": 0,
        "slot": "2",
        "type": "t_mapping(t_address,t_uint256)"
      },
      {
        "astId": 17876,
        "contract": "src/outerspace/facets/OuterSpacePlanetsFacet.sol:OuterSpacePlanetsFacet",
        "label": "_operators",
        "offset": 0,
        "slot": "3",
        "type": "t_mapping(t_address,t_mapping(t_address,t_bool))"
      },
      {
        "astId": 17883,
        "contract": "src/outerspace/facets/OuterSpacePlanetsFacet.sol:OuterSpacePlanetsFacet",
        "label": "_inFlight",
        "offset": 0,
        "slot": "4",
        "type": "t_mapping(t_uint256,t_mapping(t_uint256,t_struct(InFlight)25092_storage))"
      },
      {
        "astId": 17886,
        "contract": "src/outerspace/facets/OuterSpacePlanetsFacet.sol:OuterSpacePlanetsFacet",
        "label": "_discovered",
        "offset": 0,
        "slot": "5",
        "type": "t_struct(Discovered)25101_storage"
      },
      {
        "astId": 17890,
        "contract": "src/outerspace/facets/OuterSpacePlanetsFacet.sol:OuterSpacePlanetsFacet",
        "label": "_prevRewardIds",
        "offset": 0,
        "slot": "6",
        "type": "t_mapping(t_address,t_uint256)"
      },
      {
        "astId": 17894,
        "contract": "src/outerspace/facets/OuterSpacePlanetsFacet.sol:OuterSpacePlanetsFacet",
        "label": "_rewards",
        "offset": 0,
        "slot": "7",
        "type": "t_mapping(t_uint256,t_uint256)"
      },
      {
        "astId": 17900,
        "contract": "src/outerspace/facets/OuterSpacePlanetsFacet.sol:OuterSpacePlanetsFacet",
        "label": "_rewardsToWithdraw",
        "offset": 0,
        "slot": "8",
        "type": "t_mapping(t_address,t_mapping(t_uint256,t_bool))"
      },
      {
        "astId": 17909,
        "contract": "src/outerspace/facets/OuterSpacePlanetsFacet.sol:OuterSpacePlanetsFacet",
        "label": "_attacks",
        "offset": 0,
        "slot": "9",
        "type": "t_mapping(t_uint256,t_mapping(t_address,t_mapping(t_uint256,t_struct(AccumulatedAttack)25198_storage)))"
      },
      {
        "astId": 17913,
        "contract": "src/outerspace/facets/OuterSpacePlanetsFacet.sol:OuterSpacePlanetsFacet",
        "label": "_freeStakeReadyToBeWithdrawn",
        "offset": 0,
        "slot": "10",
        "type": "t_mapping(t_address,t_uint256)"
      },
      {
        "astId": 17917,
        "contract": "src/outerspace/facets/OuterSpacePlanetsFacet.sol:OuterSpacePlanetsFacet",
        "label": "_planetFlagged",
        "offset": 0,
        "slot": "11",
        "type": "t_mapping(t_uint256,t_uint256)"
      }
    ],
    "types": {
      "t_address": {
        "encoding": "inplace",
        "label": "address",
        "numberOfBytes": "20"
      },
      "t_bool": {
        "encoding": "inplace",
        "label": "bool",
        "numberOfBytes": "1"
      },
      "t_int40": {
        "encoding": "inplace",
        "label": "int40",
        "numberOfBytes": "5"
      },
      "t_mapping(t_address,t_bool)": {
        "encoding": "mapping",
        "key": "t_address",
        "label": "mapping(address => bool)",
        "numberOfBytes": "32",
        "value": "t_bool"
      },
      "t_mapping(t_address,t_mapping(t_address,t_bool))": {
        "encoding": "mapping",
        "key": "t_address",
        "label": "mapping(address => mapping(address => bool))",
        "numberOfBytes": "32",
        "value": "t_mapping(t_address,t_bool)"
      },
      "t_mapping(t_address,t_mapping(t_uint256,t_bool))": {
        "encoding": "mapping",
        "key": "t_address",
        "label": "mapping(address => mapping(uint256 => bool))",
        "numberOfBytes": "32",
        "value": "t_mapping(t_uint256,t_bool)"
      },
      "t_mapping(t_address,t_mapping(t_uint256,t_struct(AccumulatedAttack)25198_storage))": {
        "encoding": "mapping",
        "key": "t_address",
        "label": "mapping(address => mapping(uint256 => struct ImportingOuterSpaceTypes.AccumulatedAttack))",
        "numberOfBytes": "32",
        "value": "t_mapping(t_uint256,t_struct(AccumulatedAttack)25198_storage)"
      },
      "t_mapping(t_address,t_uint256)": {
        "encoding": "mapping",
        "key": "t_address",
        "label": "mapping(address => uint256)",
        "numberOfBytes": "32",
        "value": "t_uint256"
      },
      "t_mapping(t_uint256,t_bool)": {
        "encoding": "mapping",
        "key": "t_uint256",
        "label": "mapping(uint256 => bool)",
        "numberOfBytes": "32",
        "value": "t_bool"
      },
      "t_mapping(t_uint256,t_mapping(t_address,t_mapping(t_uint256,t_struct(AccumulatedAttack)25198_storage)))": {
        "encoding": "mapping",
        "key": "t_uint256",
        "label": "mapping(uint256 => mapping(address => mapping(uint256 => struct ImportingOuterSpaceTypes.AccumulatedAttack)))",
        "numberOfBytes": "32",
        "value": "t_mapping(t_address,t_mapping(t_uint256,t_struct(AccumulatedAttack)25198_storage))"
      },
      "t_mapping(t_uint256,t_mapping(t_uint256,t_struct(InFlight)25092_storage))": {
        "encoding": "mapping",
        "key": "t_uint256",
        "label": "mapping(uint256 => mapping(uint256 => struct ImportingOuterSpaceTypes.InFlight))",
        "numberOfBytes": "32",
        "value": "t_mapping(t_uint256,t_struct(InFlight)25092_storage)"
      },
      "t_mapping(t_uint256,t_struct(AccumulatedAttack)25198_storage)": {
        "encoding": "mapping",
        "key": "t_uint256",
        "label": "mapping(uint256 => struct ImportingOuterSpaceTypes.AccumulatedAttack)",
        "numberOfBytes": "32",
        "value": "t_struct(AccumulatedAttack)25198_storage"
      },
      "t_mapping(t_uint256,t_struct(Fleet)25125_storage)": {
        "encoding": "mapping",
        "key": "t_uint256",
        "label": "mapping(uint256 => struct ImportingOuterSpaceTypes.Fleet)",
        "numberOfBytes": "32",
        "value": "t_struct(Fleet)25125_storage"
      },
      "t_mapping(t_uint256,t_struct(InFlight)25092_storage)": {
        "encoding": "mapping",
        "key": "t_uint256",
        "label": "mapping(uint256 => struct ImportingOuterSpaceTypes.InFlight)",
        "numberOfBytes": "32",
        "value": "t_struct(InFlight)25092_storage"
      },
      "t_mapping(t_uint256,t_struct(Planet)25116_storage)": {
        "encoding": "mapping",
        "key": "t_uint256",
        "label": "mapping(uint256 => struct ImportingOuterSpaceTypes.Planet)",
        "numberOfBytes": "32",
        "value": "t_struct(Planet)25116_storage"
      },
      "t_mapping(t_uint256,t_uint256)": {
        "encoding": "mapping",
        "key": "t_uint256",
        "label": "mapping(uint256 => uint256)",
        "numberOfBytes": "32",
        "value": "t_uint256"
      },
      "t_struct(AccumulatedAttack)25198_storage": {
        "encoding": "inplace",
        "label": "struct ImportingOuterSpaceTypes.AccumulatedAttack",
        "members": [
          {
            "astId": 25191,
            "contract": "src/outerspace/facets/OuterSpacePlanetsFacet.sol:OuterSpacePlanetsFacet",
            "label": "target",
            "offset": 0,
            "slot": "0",
            "type": "t_address"
          },
          {
            "astId": 25193,
            "contract": "src/outerspace/facets/OuterSpacePlanetsFacet.sol:OuterSpacePlanetsFacet",
            "label": "numAttackSpent",
            "offset": 20,
            "slot": "0",
            "type": "t_uint32"
          },
          {
            "astId": 25195,
            "contract": "src/outerspace/facets/OuterSpacePlanetsFacet.sol:OuterSpacePlanetsFacet",
            "label": "damageCausedSoFar",
            "offset": 24,
            "slot": "0",
            "type": "t_uint32"
          },
          {
            "astId": 25197,
            "contract": "src/outerspace/facets/OuterSpacePlanetsFacet.sol:OuterSpacePlanetsFacet",
            "label": "averageAttackPower",
            "offset": 28,
            "slot": "0",
            "type": "t_uint16"
          }
        ],
        "numberOfBytes": "32"
      },
      "t_struct(Discovered)25101_storage": {
        "encoding": "inplace",
        "label": "struct ImportingOuterSpaceTypes.Discovered",
        "members": [
          {
            "astId": 25094,
            "contract": "src/outerspace/facets/OuterSpacePlanetsFacet.sol:OuterSpacePlanetsFacet",
            "label": "minX",
            "offset": 0,
            "slot": "0",
            "type": "t_uint32"
          },
          {
            "astId": 25096,
            "contract": "src/outerspace/facets/OuterSpacePlanetsFacet.sol:OuterSpacePlanetsFacet",
            "label": "maxX",
            "offset": 4,
            "slot": "0",
            "type": "t_uint32"
          },
          {
            "astId": 25098,
            "contract": "src/outerspace/facets/OuterSpacePlanetsFacet.sol:OuterSpacePlanetsFacet",
            "label": "minY",
            "offset": 8,
            "slot": "0",
            "type": "t_uint32"
          },
          {
            "astId": 25100,
            "contract": "src/outerspace/facets/OuterSpacePlanetsFacet.sol:OuterSpacePlanetsFacet",
            "label": "maxY",
            "offset": 12,
            "slot": "0",
            "type": "t_uint32"
          }
        ],
        "numberOfBytes": "32"
      },
      "t_struct(Fleet)25125_storage": {
        "encoding": "inplace",
        "label": "struct ImportingOuterSpaceTypes.Fleet",
        "members": [
          {
            "astId": 25118,
            "contract": "src/outerspace/facets/OuterSpacePlanetsFacet.sol:OuterSpacePlanetsFacet",
            "label": "owner",
            "offset": 0,
            "slot": "0",
            "type": "t_address"
          },
          {
            "astId": 25120,
            "contract": "src/outerspace/facets/OuterSpacePlanetsFacet.sol:OuterSpacePlanetsFacet",
            "label": "launchTime",
            "offset": 20,
            "slot": "0",
            "type": "t_uint40"
          },
          {
            "astId": 25122,
            "contract": "src/outerspace/facets/OuterSpacePlanetsFacet.sol:OuterSpacePlanetsFacet",
            "label": "quantity",
            "offset": 25,
            "slot": "0",
            "type": "t_uint32"
          },
          {
            "astId": 25124,
            "contract": "src/outerspace/facets/OuterSpacePlanetsFacet.sol:OuterSpacePlanetsFacet",
            "label": "futureExtraProduction",
            "offset": 29,
            "slot": "0",
            "type": "t_uint24"
          }
        ],
        "numberOfBytes": "32"
      },
      "t_struct(InFlight)25092_storage": {
        "encoding": "inplace",
        "label": "struct ImportingOuterSpaceTypes.InFlight",
        "members": [
          {
            "astId": 25089,
            "contract": "src/outerspace/facets/OuterSpacePlanetsFacet.sol:OuterSpacePlanetsFacet",
            "label": "flying",
            "offset": 0,
            "slot": "0",
            "type": "t_uint32"
          },
          {
            "astId": 25091,
            "contract": "src/outerspace/facets/OuterSpacePlanetsFacet.sol:OuterSpacePlanetsFacet",
            "label": "destroyed",
            "offset": 4,
            "slot": "0",
            "type": "t_uint32"
          }
        ],
        "numberOfBytes": "32"
      },
      "t_struct(Planet)25116_storage": {
        "encoding": "inplace",
        "label": "struct ImportingOuterSpaceTypes.Planet",
        "members": [
          {
            "astId": 25103,
            "contract": "src/outerspace/facets/OuterSpacePlanetsFacet.sol:OuterSpacePlanetsFacet",
            "label": "owner",
            "offset": 0,
            "slot": "0",
            "type": "t_address"
          },
          {
            "astId": 25105,
            "contract": "src/outerspace/facets/OuterSpacePlanetsFacet.sol:OuterSpacePlanetsFacet",
            "label": "ownershipStartTime",
            "offset": 20,
            "slot": "0",
            "type": "t_uint40"
          },
          {
            "astId": 25107,
            "contract": "src/outerspace/facets/OuterSpacePlanetsFacet.sol:OuterSpacePlanetsFacet",
            "label": "exitStartTime",
            "offset": 25,
            "slot": "0",
            "type": "t_uint40"
          },
          {
            "astId": 25109,
            "contract": "src/outerspace/facets/OuterSpacePlanetsFacet.sol:OuterSpacePlanetsFacet",
            "label": "numSpaceships",
            "offset": 0,
            "slot": "1",
            "type": "t_uint32"
          },
          {
            "astId": 25111,
            "contract": "src/outerspace/facets/OuterSpacePlanetsFacet.sol:OuterSpacePlanetsFacet",
            "label": "lastUpdated",
            "offset": 4,
            "slot": "1",
            "type": "t_uint40"
          },
          {
            "astId": 25113,
            "contract": "src/outerspace/facets/OuterSpacePlanetsFacet.sol:OuterSpacePlanetsFacet",
            "label": "travelingUpkeep",
            "offset": 9,
            "slot": "1",
            "type": "t_int40"
          },
          {
            "astId": 25115,
            "contract": "src/outerspace/facets/OuterSpacePlanetsFacet.sol:OuterSpacePlanetsFacet",
            "label": "overflow",
            "offset": 14,
            "slot": "1",
            "type": "t_uint32"
          }
        ],
        "numberOfBytes": "64"
      },
      "t_uint16": {
        "encoding": "inplace",
        "label": "uint16",
        "numberOfBytes": "2"
      },
      "t_uint24": {
        "encoding": "inplace",
        "label": "uint24",
        "numberOfBytes": "3"
      },
      "t_uint256": {
        "encoding": "inplace",
        "label": "uint256",
        "numberOfBytes": "32"
      },
      "t_uint32": {
        "encoding": "inplace",
        "label": "uint32",
        "numberOfBytes": "4"
      },
      "t_uint40": {
        "encoding": "inplace",
        "label": "uint40",
        "numberOfBytes": "5"
      }
    }
  }
}