{
  "address": "0x5C799FDefC806CdD742163149B479B4969c51804",
  "abi": [
    {
      "inputs": [
        {
          "components": [
            {
              "internalType": "contract IERC20",
              "name": "stakingToken",
              "type": "address"
            },
            {
              "internalType": "contract FreePlayToken",
              "name": "freeStakingToken",
              "type": "address"
            },
            {
              "internalType": "contract AllianceRegistry",
              "name": "allianceRegistry",
              "type": "address"
            },
            {
              "internalType": "bytes32",
              "name": "genesis",
              "type": "bytes32"
            },
            {
              "internalType": "uint256",
              "name": "resolveWindow",
              "type": "uint256"
            },
            {
              "internalType": "uint256",
              "name": "timePerDistance",
              "type": "uint256"
            },
            {
              "internalType": "uint256",
              "name": "exitDuration",
              "type": "uint256"
            },
            {
              "internalType": "uint32",
              "name": "acquireNumSpaceships",
              "type": "uint32"
            },
            {
              "internalType": "uint32",
              "name": "productionSpeedUp",
              "type": "uint32"
            },
            {
              "internalType": "uint256",
              "name": "frontrunningDelay",
              "type": "uint256"
            },
            {
              "internalType": "uint256",
              "name": "productionCapAsDuration",
              "type": "uint256"
            },
            {
              "internalType": "uint256",
              "name": "upkeepProductionDecreaseRatePer10000th",
              "type": "uint256"
            },
            {
              "internalType": "uint256",
              "name": "fleetSizeFactor6",
              "type": "uint256"
            },
            {
              "internalType": "uint32",
              "name": "expansionDelta",
              "type": "uint32"
            },
            {
              "internalType": "uint256",
              "name": "giftTaxPer10000",
              "type": "uint256"
            },
            {
              "internalType": "bytes32",
              "name": "stakeRange",
              "type": "bytes32"
            },
            {
              "internalType": "uint256",
              "name": "stakeMultiplier10000th",
              "type": "uint256"
            }
          ],
          "internalType": "struct OuterSpaceFacetBase.Config",
          "name": "config",
          "type": "tuple"
        }
      ],
      "stateMutability": "nonpayable",
      "type": "constructor"
    },
    {
      "anonymous": false,
      "inputs": [
        {
          "indexed": true,
          "internalType": "address",
          "name": "owner",
          "type": "address"
        },
        {
          "indexed": true,
          "internalType": "address",
          "name": "operator",
          "type": "address"
        },
        {
          "indexed": false,
          "internalType": "bool",
          "name": "approved",
          "type": "bool"
        }
      ],
      "name": "ApprovalForAll",
      "type": "event"
    },
    {
      "anonymous": false,
      "inputs": [
        {
          "indexed": true,
          "internalType": "address",
          "name": "owner",
          "type": "address"
        },
        {
          "indexed": true,
          "internalType": "uint256",
          "name": "location",
          "type": "uint256"
        },
        {
          "indexed": false,
          "internalType": "uint256",
          "name": "stake",
          "type": "uint256"
        }
      ],
      "name": "ExitComplete",
      "type": "event"
    },
    {
      "anonymous": false,
      "inputs": [
        {
          "indexed": true,
          "internalType": "uint256",
          "name": "fleet",
          "type": "uint256"
        },
        {
          "indexed": true,
          "internalType": "address",
          "name": "fleetOwner",
          "type": "address"
        },
        {
          "indexed": true,
          "internalType": "address",
          "name": "destinationOwner",
          "type": "address"
        },
        {
          "indexed": false,
          "internalType": "uint256",
          "name": "destination",
          "type": "uint256"
        },
        {
          "indexed": false,
          "internalType": "bool",
          "name": "gift",
          "type": "bool"
        },
        {
          "indexed": false,
          "internalType": "bool",
          "name": "won",
          "type": "bool"
        },
        {
          "components": [
            {
              "internalType": "uint32",
              "name": "newNumspaceships",
              "type": "uint32"
            },
            {
              "internalType": "int40",
              "name": "newTravelingUpkeep",
              "type": "int40"
            },
            {
              "internalType": "uint32",
              "name": "newOverflow",
              "type": "uint32"
            },
            {
              "internalType": "uint32",
              "name": "numSpaceshipsAtArrival",
              "type": "uint32"
            },
            {
              "internalType": "uint32",
              "name": "taxLoss",
              "type": "uint32"
            },
            {
              "internalType": "uint32",
              "name": "fleetLoss",
              "type": "uint32"
            },
            {
              "internalType": "uint32",
              "name": "planetLoss",
              "type": "uint32"
            },
            {
              "internalType": "uint32",
              "name": "inFlightFleetLoss",
              "type": "uint32"
            },
            {
              "internalType": "uint32",
              "name": "inFlightPlanetLoss",
              "type": "uint32"
            },
            {
              "internalType": "uint32",
              "name": "accumulatedDefenseAdded",
              "type": "uint32"
            },
            {
              "internalType": "uint32",
              "name": "accumulatedAttackAdded",
              "type": "uint32"
            }
          ],
          "indexed": false,
          "internalType": "struct ImportingOuterSpaceEvents.ArrivalData",
          "name": "data",
          "type": "tuple"
        }
      ],
      "name": "FleetArrived",
      "type": "event"
    },
    {
      "anonymous": false,
      "inputs": [
        {
          "indexed": true,
          "internalType": "address",
          "name": "fleetSender",
          "type": "address"
        },
        {
          "indexed": true,
          "internalType": "address",
          "name": "fleetOwner",
          "type": "address"
        },
        {
          "indexed": true,
          "internalType": "uint256",
          "name": "from",
          "type": "uint256"
        },
        {
          "indexed": false,
          "internalType": "address",
          "name": "operator",
          "type": "address"
        },
        {
          "indexed": false,
          "internalType": "uint256",
          "name": "fleet",
          "type": "uint256"
        },
        {
          "indexed": false,
          "internalType": "uint32",
          "name": "quantity",
          "type": "uint32"
        },
        {
          "indexed": false,
          "internalType": "uint32",
          "name": "newNumSpaceships",
          "type": "uint32"
        },
        {
          "indexed": false,
          "internalType": "int40",
          "name": "newTravelingUpkeep",
          "type": "int40"
        },
        {
          "indexed": false,
          "internalType": "uint32",
          "name": "newOverflow",
          "type": "uint32"
        }
      ],
      "name": "FleetSent",
      "type": "event"
    },
    {
      "anonymous": false,
      "inputs": [
        {
          "indexed": false,
          "internalType": "bytes32",
          "name": "genesis",
          "type": "bytes32"
        },
        {
          "indexed": false,
          "internalType": "uint256",
          "name": "resolveWindow",
          "type": "uint256"
        },
        {
          "indexed": false,
          "internalType": "uint256",
          "name": "timePerDistance",
          "type": "uint256"
        },
        {
          "indexed": false,
          "internalType": "uint256",
          "name": "exitDuration",
          "type": "uint256"
        },
        {
          "indexed": false,
          "internalType": "uint32",
          "name": "acquireNumSpaceships",
          "type": "uint32"
        },
        {
          "indexed": false,
          "internalType": "uint32",
          "name": "productionSpeedUp",
          "type": "uint32"
        },
        {
          "indexed": false,
          "internalType": "uint256",
          "name": "frontrunningDelay",
          "type": "uint256"
        },
        {
          "indexed": false,
          "internalType": "uint256",
          "name": "productionCapAsDuration",
          "type": "uint256"
        },
        {
          "indexed": false,
          "internalType": "uint256",
          "name": "upkeepProductionDecreaseRatePer10000th",
          "type": "uint256"
        },
        {
          "indexed": false,
          "internalType": "uint256",
          "name": "fleetSizeFactor6",
          "type": "uint256"
        },
        {
          "indexed": false,
          "internalType": "uint32",
          "name": "initialSpaceExpansion",
          "type": "uint32"
        },
        {
          "indexed": false,
          "internalType": "uint32",
          "name": "expansionDelta",
          "type": "uint32"
        },
        {
          "indexed": false,
          "internalType": "uint256",
          "name": "giftTaxPer10000",
          "type": "uint256"
        }
      ],
      "name": "Initialized",
      "type": "event"
    },
    {
      "anonymous": false,
      "inputs": [
        {
          "indexed": true,
          "internalType": "address",
          "name": "owner",
          "type": "address"
        },
        {
          "indexed": true,
          "internalType": "uint256",
          "name": "location",
          "type": "uint256"
        }
      ],
      "name": "PlanetExit",
      "type": "event"
    },
    {
      "anonymous": false,
      "inputs": [
        {
          "indexed": true,
          "internalType": "uint256",
          "name": "location",
          "type": "uint256"
        }
      ],
      "name": "PlanetReset",
      "type": "event"
    },
    {
      "anonymous": false,
      "inputs": [
        {
          "indexed": true,
          "internalType": "address",
          "name": "acquirer",
          "type": "address"
        },
        {
          "indexed": true,
          "internalType": "uint256",
          "name": "location",
          "type": "uint256"
        },
        {
          "indexed": false,
          "internalType": "uint32",
          "name": "numSpaceships",
          "type": "uint32"
        },
        {
          "indexed": false,
          "internalType": "int40",
          "name": "travelingUpkeep",
          "type": "int40"
        },
        {
          "indexed": false,
          "internalType": "uint32",
          "name": "overflow",
          "type": "uint32"
        },
        {
          "indexed": false,
          "internalType": "uint256",
          "name": "stake",
          "type": "uint256"
        },
        {
          "indexed": false,
          "internalType": "bool",
          "name": "freegift",
          "type": "bool"
        }
      ],
      "name": "PlanetStake",
      "type": "event"
    },
    {
      "anonymous": false,
      "inputs": [
        {
          "indexed": true,
          "internalType": "address",
          "name": "previousOwner",
          "type": "address"
        },
        {
          "indexed": true,
          "internalType": "address",
          "name": "newOwner",
          "type": "address"
        },
        {
          "indexed": true,
          "internalType": "uint256",
          "name": "location",
          "type": "uint256"
        },
        {
          "indexed": false,
          "internalType": "uint32",
          "name": "newNumspaceships",
          "type": "uint32"
        },
        {
          "indexed": false,
          "internalType": "int40",
          "name": "newTravelingUpkeep",
          "type": "int40"
        },
        {
          "indexed": false,
          "internalType": "uint32",
          "name": "newOverflow",
          "type": "uint32"
        }
      ],
      "name": "PlanetTransfer",
      "type": "event"
    },
    {
      "anonymous": false,
      "inputs": [
        {
          "indexed": true,
          "internalType": "uint256",
          "name": "location",
          "type": "uint256"
        },
        {
          "indexed": true,
          "internalType": "address",
          "name": "giver",
          "type": "address"
        },
        {
          "indexed": false,
          "internalType": "uint256",
          "name": "rewardId",
          "type": "uint256"
        }
      ],
      "name": "RewardSetup",
      "type": "event"
    },
    {
      "anonymous": false,
      "inputs": [
        {
          "indexed": true,
          "internalType": "address",
          "name": "owner",
          "type": "address"
        },
        {
          "indexed": true,
          "internalType": "uint256",
          "name": "location",
          "type": "uint256"
        },
        {
          "indexed": true,
          "internalType": "uint256",
          "name": "rewardId",
          "type": "uint256"
        }
      ],
      "name": "RewardToWithdraw",
      "type": "event"
    },
    {
      "anonymous": false,
      "inputs": [
        {
          "indexed": true,
          "internalType": "address",
          "name": "owner",
          "type": "address"
        },
        {
          "indexed": false,
          "internalType": "uint256",
          "name": "newStake",
          "type": "uint256"
        },
        {
          "indexed": false,
          "internalType": "bool",
          "name": "freegift",
          "type": "bool"
        }
      ],
      "name": "StakeToWithdraw",
      "type": "event"
    },
    {
      "anonymous": false,
      "inputs": [
        {
          "indexed": true,
          "internalType": "address",
          "name": "from",
          "type": "address"
        },
        {
          "indexed": true,
          "internalType": "address",
          "name": "to",
          "type": "address"
        },
        {
          "indexed": true,
          "internalType": "uint256",
          "name": "location",
          "type": "uint256"
        }
      ],
      "name": "Transfer",
      "type": "event"
    },
    {
      "anonymous": false,
      "inputs": [
        {
          "indexed": true,
          "internalType": "uint256",
          "name": "origin",
          "type": "uint256"
        },
        {
          "indexed": true,
          "internalType": "uint256",
          "name": "fleet",
          "type": "uint256"
        },
        {
          "indexed": false,
          "internalType": "uint32",
          "name": "newNumspaceships",
          "type": "uint32"
        },
        {
          "indexed": false,
          "internalType": "int40",
          "name": "newTravelingUpkeep",
          "type": "int40"
        },
        {
          "indexed": false,
          "internalType": "uint32",
          "name": "newOverflow",
          "type": "uint32"
        }
      ],
      "name": "TravelingUpkeepRefund",
      "type": "event"
    },
    {
      "inputs": [
        {
          "internalType": "uint256",
          "name": "fleetId",
          "type": "uint256"
        },
        {
          "internalType": "uint256",
          "name": "from",
          "type": "uint256"
        }
      ],
      "name": "getFleet",
      "outputs": [
        {
          "internalType": "address",
          "name": "owner",
          "type": "address"
        },
        {
          "internalType": "uint40",
          "name": "launchTime",
          "type": "uint40"
        },
        {
          "internalType": "uint32",
          "name": "quantity",
          "type": "uint32"
        },
        {
          "internalType": "uint64",
          "name": "flyingAtLaunch",
          "type": "uint64"
        },
        {
          "internalType": "uint64",
          "name": "destroyedAtLaunch",
          "type": "uint64"
        }
      ],
      "stateMutability": "view",
      "type": "function"
    },
    {
      "inputs": [
        {
          "internalType": "uint256",
          "name": "fleetId",
          "type": "uint256"
        },
        {
          "components": [
            {
              "internalType": "uint256",
              "name": "from",
              "type": "uint256"
            },
            {
              "internalType": "uint256",
              "name": "to",
              "type": "uint256"
            },
            {
              "internalType": "uint256",
              "name": "distance",
              "type": "uint256"
            },
            {
              "internalType": "uint256",
              "name": "arrivalTimeWanted",
              "type": "uint256"
            },
            {
              "internalType": "bool",
              "name": "gift",
              "type": "bool"
            },
            {
              "internalType": "address",
              "name": "specific",
              "type": "address"
            },
            {
              "internalType": "bytes32",
              "name": "secret",
              "type": "bytes32"
            },
            {
              "internalType": "address",
              "name": "fleetSender",
              "type": "address"
            },
            {
              "internalType": "address",
              "name": "operator",
              "type": "address"
            }
          ],
          "internalType": "struct ImportingOuterSpaceTypes.FleetResolution",
          "name": "resolution",
          "type": "tuple"
        }
      ],
      "name": "resolveFleet",
      "outputs": [],
      "stateMutability": "nonpayable",
      "type": "function"
    },
    {
      "inputs": [
        {
          "internalType": "uint256",
          "name": "from",
          "type": "uint256"
        },
        {
          "internalType": "uint32",
          "name": "quantity",
          "type": "uint32"
        },
        {
          "internalType": "bytes32",
          "name": "toHash",
          "type": "bytes32"
        }
      ],
      "name": "send",
      "outputs": [],
      "stateMutability": "nonpayable",
      "type": "function"
    },
    {
      "inputs": [
        {
          "components": [
            {
              "internalType": "address",
              "name": "fleetSender",
              "type": "address"
            },
            {
              "internalType": "address",
              "name": "fleetOwner",
              "type": "address"
            },
            {
              "internalType": "uint256",
              "name": "from",
              "type": "uint256"
            },
            {
              "internalType": "uint32",
              "name": "quantity",
              "type": "uint32"
            },
            {
              "internalType": "bytes32",
              "name": "toHash",
              "type": "bytes32"
            }
          ],
          "internalType": "struct ImportingOuterSpaceTypes.FleetLaunch",
          "name": "launch",
          "type": "tuple"
        }
      ],
      "name": "sendFor",
      "outputs": [],
      "stateMutability": "nonpayable",
      "type": "function"
    }
  ],
  "transactionHash": "0x7838dda28dee568ca021a51dff330e97e10cada52b101f160ea0b55651d7527e",
  "args": [
    {
      "stakingToken": "0xf1782f189A13d01d313A075aDD5673737C7D1674",
      "freeStakingToken": "0xBd268bd7Cf9D1dd3bfFC1b32530d7d117A3Fac99",
      "allianceRegistry": "0x4261b9133bd8635536E067ddf313eA1c61aC2050",
      "genesis": "0xdefd8666ec077c932b62f77bcfea4badcb3c296fc1f8a8792c9b7ca2ee6c8c4b",
      "resolveWindow": 43200,
      "timePerDistance": 7200,
      "exitDuration": 259200,
      "acquireNumSpaceships": 100000,
      "productionSpeedUp": 1,
      "frontrunningDelay": 1800,
      "productionCapAsDuration": 259200,
      "upkeepProductionDecreaseRatePer10000th": 5000,
      "fleetSizeFactor6": 500000,
      "initialSpaceExpansion": 12,
      "expansionDelta": 6,
      "giftTaxPer10000": 2000,
      "stakeRange": "0x00060008000A000C000E00100012001400140016001800200028003000380048",
      "stakeMultiplier10000th": 1666
    }
  ],
  "numDeployments": 1,
  "linkedData": {
    "genesisHash": "0xdefd8666ec077c932b62f77bcfea4badcb3c296fc1f8a8792c9b7ca2ee6c8c4b",
    "resolveWindow": 43200,
    "timePerDistance": 7200,
    "exitDuration": 259200,
    "acquireNumSpaceships": 100000,
    "productionSpeedUp": 1,
    "chainGenesisHash": "",
    "frontrunningDelay": 1800,
    "productionCapAsDuration": 259200,
    "upkeepProductionDecreaseRatePer10000th": 5000,
    "fleetSizeFactor6": 500000,
    "initialSpaceExpansion": 12,
    "expansionDelta": 6,
    "giftTaxPer10000": 2000,
    "stakeRange": "0x00060008000A000C000E00100012001400140016001800200028003000380048",
    "stakeMultiplier10000th": 1666
  },
  "solcInputHash": "3e75b841af13c8b026e14dbefdd6e959",
  "bytecode": "0x6102a06040523480156200001257600080fd5b5060405162005f3938038062005f398339810160408190526200003591620001df565b80600060048260a001516200004b9190620002e9565b60a0830151909150620000608260046200031b565b63ffffffff1614620000b85760405162461bcd60e51b815260206004820152601d60248201527f54494d455f5045525f444953545f4e4f545f444956495349424c455f34000000604482015260640160405180910390fd5b81516001600160a01b0390811660809081526020840151821660a052604084015190911660c0908152606084015160e09081529184015161010090815263ffffffff93841661012090815291850151610140908152928501518416610160908152908501518416610180908152918501516101a0908152928501516101c0908152908501516101e0908152918501516102009081529285015190931661022052918301516102405290820151610260520151610280525062000356565b60405161022081016001600160401b0381118282101715620001a757634e487b7160e01b600052604160045260246000fd5b60405290565b80516001600160a01b0381168114620001c557600080fd5b919050565b805163ffffffff81168114620001c557600080fd5b60006102208284031215620001f357600080fd5b620001fd62000175565b6200020883620001ad565b81526200021860208401620001ad565b60208201526200022b60408401620001ad565b6040820152606083015160608201526080830151608082015260a083015160a082015260c083015160c08201526200026660e08401620001ca565b60e08201526101006200027b818501620001ca565b9082015261012083810151908201526101408084015190820152610160808401519082015261018080840151908201526101a0620002bb818501620001ca565b908201526101c083810151908201526101e08084015190820152610200928301519281019290925250919050565b600063ffffffff808416806200030f57634e487b7160e01b600052601260045260246000fd5b92169190910492915050565b600063ffffffff808316818516818304811182151516156200034d57634e487b7160e01b600052601160045260246000fd5b02949350505050565b60805160a05160c05160e05161010051610120516101405161016051610180516101a0516101c0516101e0516102005161022051610240516102605161028051615a396200050060003960006142bf015260006142e001526000611efb015260005050600081816143ee01528181614421015281816144a201526144d501526000818161116b015281816112ba015261231f0152600081816110200152818161143f015281816128dc01528181613908015281816141a00152818161485e0152614b570152600081816103f5015281816117e401528181611dfe01528181611fa201528181612051015281816120f80152614571015260008181610fd4015281816110c7015281816111990152818161121501528181611366015281816122d901526129790152600061291a0152600061280001526000611c4601526000611d39015260008181610ee60152611a34015260008181612f58015281816130dc015281816131f6015281816133060152818161343d0152818161353501528181613632015281816137150152818161380c0152613ea2015260006129fe015260005050615a396000f3fe608060405234801561001057600080fd5b506004361061004c5760003560e01c8063112e685114610051578063cf3ecf0714610066578063ee54339314610079578063f69438c3146100ea575b600080fd5b61006461005f366004614d01565b6100fd565b005b610064610074366004614d36565b6101d1565b61008c610087366004614d4e565b610381565b6040805173ffffffffffffffffffffffffffffffffffffffff909616865264ffffffffff909416602086015263ffffffff9092169284019290925267ffffffffffffffff918216606084015216608082015260a00160405180910390f35b6100646100f8366004614d70565b610465565b6000336040805160208101859052908101869052606082811b7fffffffffffffffffffffffffffffffffffffffff0000000000000000000000001690820181905260748201529091506000906088016040516020818303038152906040528051906020012060001c90506101ca81836040518060a001604052808673ffffffffffffffffffffffffffffffffffffffff1681526020018673ffffffffffffffffffffffffffffffffffffffff1681526020018981526020018863ffffffff16815260200187815250610622565b5050505050565b336101df6020830183614df8565b73ffffffffffffffffffffffffffffffffffffffff168173ffffffffffffffffffffffffffffffffffffffff16146102c757600360006102226020850185614df8565b73ffffffffffffffffffffffffffffffffffffffff9081168252602080830193909352604091820160009081209185168152925290205460ff166102c7576040517f08c379a000000000000000000000000000000000000000000000000000000000815260206004820152601660248201527f4e4f545f415554484f52495a45445f544f5f53454e440000000000000000000060448201526064015b60405180910390fd5b6000608083013560408401356102e06020860186614df8565b6040805160208101949094528301919091527fffffffffffffffffffffffffffffffffffffffff000000000000000000000000606091821b8116828401529084901b166074820152608801604080517fffffffffffffffffffffffffffffffffffffffffffffffffffffffffffffffe08184030181529190528051602090910120905061037c818361037736879003870187614e66565b610622565b505050565b60008281526001602052604081205473ffffffffffffffffffffffffffffffffffffffff81169174010000000000000000000000000000000000000000820464ffffffffff1691790100000000000000000000000000000000000000000000000000900463ffffffff1690808061041960027f0000000000000000000000000000000000000000000000000000000000000000614f72565b61042a9064ffffffffff8716614f72565b6000978852600460209081526040808a20928a529190529096205494979396509194505063ffffffff80841693640100000000900416919050565b8160c0820135602083013561048060a0850160808601614f96565b61049060c0860160a08701614df8565b85606001356040516020016104ef959493929190948552602085019390935290151560f81b604084015260601b7fffffffffffffffffffffffffffffffffffffffff000000000000000000000000166041830152605582015260750190565b604080517fffffffffffffffffffffffffffffffffffffffffffffffffffffffffffffffe081840301815291905280516020909101208235610538610100850160e08601614df8565b61054a61012086016101008701614df8565b6040805160208101959095528401929092527fffffffffffffffffffffffffffffffffffffffff000000000000000000000000606091821b81168285015291901b1660748201526088016040516020818303038152906040528051906020012060001c14610614576040517f08c379a000000000000000000000000000000000000000000000000000000000815260206004820152601c60248201527f494e56414c49445f464c4545545f444154415f4f525f5345435245540000000060448201526064016102be565b61061e8282610ad0565b5050565b604080820151600090815260208190529081206040805160e081018252825473ffffffffffffffffffffffffffffffffffffffff8116825264ffffffffff74010000000000000000000000000000000000000000820481166020840152790100000000000000000000000000000000000000000000000000909104811682840152600184015463ffffffff8082166060850152640100000000820490921660808401526901000000000000000000810460040b60a08401526e01000000000000000000000000000090041660c0820152908401519192506000916107069190610dda565b8254909150790100000000000000000000000000000000000000000000000000900464ffffffffff1615610796576040517f08c379a000000000000000000000000000000000000000000000000000000000815260206004820152600b60248201527f504c414e45545f4558495400000000000000000000000000000000000000000060448201526064016102be565b8154835173ffffffffffffffffffffffffffffffffffffffff90811691161461081b576040517f08c379a000000000000000000000000000000000000000000000000000000000815260206004820152600960248201527f4e4f545f4f574e4552000000000000000000000000000000000000000000000060448201526064016102be565b61082481610f42565b826060015163ffffffff16816060015163ffffffff1610156108a2576040517f08c379a000000000000000000000000000000000000000000000000000000000815260206004820152601560248201527f535041434553484950535f4e4f545f454e4f554748000000000000000000000060448201526064016102be565b6108b0818460600151611422565b6108bc8282600061154a565b6108ce836040015184606001516117db565b6040518060800160405280846020015173ffffffffffffffffffffffffffffffffffffffff1681526020014264ffffffffff168152602001846060015163ffffffff16815260200182610160015162ffffff168152506001600087815260200190815260200160002060008201518160000160006101000a81548173ffffffffffffffffffffffffffffffffffffffff021916908373ffffffffffffffffffffffffffffffffffffffff16021790555060208201518160000160146101000a81548164ffffffffff021916908364ffffffffff16021790555060408201518160000160196101000a81548163ffffffff021916908363ffffffff160217905550606082015181600001601d6101000a81548162ffffff021916908362ffffff1602179055509050508260400151836020015173ffffffffffffffffffffffffffffffffffffffff16846000015173ffffffffffffffffffffffffffffffffffffffff167f22cbc8dd686d2b19557805c93c5d123703e520cb709b4c179c7b723dc621138287898860600151876060015188608001518960e00151604051610ac19695949392919073ffffffffffffffffffffffffffffffffffffffff969096168652602086019490945263ffffffff9283166040860152908216606085015260040b60808401521660a082015260c00190565b60405180910390a45050505050565b60208181013560008181528083526040808220815160e081018352815473ffffffffffffffffffffffffffffffffffffffff8116825264ffffffffff7401000000000000000000000000000000000000000082048116978301979097527901000000000000000000000000000000000000000000000000009004861692810192909252600181015463ffffffff8082166060850152640100000000820490961660808401526901000000000000000000810460040b60a08401526e010000000000000000000000000000900490941660c08201529091610bb09190610dda565b600085815260016020526040812091925090610bcd908535611906565b6060810151815191925063ffffffff1615159073ffffffffffffffffffffffffffffffffffffffff16610c35576040518060400160405280601281526020017f464c4545545f444f5f4e4f545f45584953540000000000000000000000000000815250610c6c565b6040518060400160405280601681526020017f464c4545545f5245534f4c5645445f414c5245414459000000000000000000008152505b90610ca4576040517f08c379a00000000000000000000000000000000000000000000000000000000081526004016102be9190614fb1565b50610cc78460400135856000013586602001358460800151866101400151611aa1565b610ce4846040013585606001358360200151846080015185611c32565b610ced82610f42565b6060820151610d0a82610d0536889003880188615024565b611df5565b610d2882610d1d36889003880188615024565b856101200151611ec3565b610d328284611eeb565b610d3c8284611f78565b610d5482610d4f36889003880188615024565b6120df565b610d6086838735612196565b610d70848484610120015161154a565b610d7a8284612436565b600086815260016020908152604090912080547fffffff00000000ffffffffffffffffffffffffffffffffffffffffffffffffff169055610100840151610dd29188918591890135610dcd838988612632565b612758565b505050505050565b6040805161018081018252600080825260208201819052918101829052606081018290526080810182905260a0810182905260c0810182905260e08101829052610100810182905261012081018290526101408101829052610160810191909152600080610e4b85606001516127c9565b85855260808088015164ffffffffff908116602088015283151560408089019190915263ffffffff80851660608a015260a0808c015160040b948a0194909452908a01805183169389019390935291511660c0808801919091528801511660e0860152865173ffffffffffffffffffffffffffffffffffffffff9081166101008701528751166101208601529092509050610f3384604080517f00000000000000000000000000000000000000000000000000000000000000006020820152908101829052600090606001604051602081830303815290604052805190602001209050919050565b61014084015250909392505050565b60a081015164ffffffffff1615610f9357610f608160a001516127e8565b15610f9357600060c082018190526060820181905260808201819052610120820181905260e08201819052604090910152565b6000816020015164ffffffffff1642610fac91906150b7565b90506000610fbe836101400151612835565b90506000610e1061ffff8316610ffa63ffffffff7f000000000000000000000000000000000000000000000000000000000000000016866150ce565b61100491906150ce565b61100e9190614f72565b606085015190915063ffffffff1660007f00000000000000000000000000000000000000000000000000000000000000001561133c57600061104f856128d2565b905060008760400151611063576000611065565b815b9050808411156111425760e08801516107089063ffffffff16156110b757828960e0015163ffffffff1661070861109c91906150ce565b6110a69190614f72565b90506107088110156110b757506107085b6000610e10826110ed63ffffffff7f0000000000000000000000000000000000000000000000000000000000000000168c6150ce565b6110f791906150ce565b6111019190614f72565b905061110d83876150b7565b8111156111215761111e83876150b7565b90505b89604001511561112f578094505b61113981876150b7565b955050506112a5565b8760400151156112a55760008590506000896080015160040b131561126b576000612710610e107f00000000000000000000000000000000000000000000000000000000000000006111be61ffff8c1663ffffffff7f0000000000000000000000000000000000000000000000000000000000000000166150ce565b6111c891906150ce565b6111d29190614f72565b6111dc9190614f72565b8a6080015164ffffffffff166111f29190614f72565b90508881106112035781945061125d565b610e1061ffff891661123b63ffffffff7f000000000000000000000000000000000000000000000000000000000000000016846150ce565b61124591906150ce565b61124f9190614f72565b94508185111561125d578194505b61126785836150b7565b9150505b600061127786846150b7565b90508082111561129b5761128b81836150b7565b611295908661510b565b94508091505b611139828761510b565b876040015115611335576000836127106112df7f0000000000000000000000000000000000000000000000000000000000000000896150ce565b6112e99190614f72565b6112f3919061510b565b905060008160040b8a6080015160040b61130d9190615123565b905061131883615197565b81121561132b5761132883615197565b90505b60040b60808a0152505b50506113c4565b85604001511561135757611350838361510b565b91506113c4565b6000610e1061138c63ffffffff7f000000000000000000000000000000000000000000000000000000000000000016886150ce565b611398906107086150ce565b6113a29190614f72565b9050828111156113b557506000916113c2565b6113bf81846150b7565b92505b505b638000000082106113e7576113de600163800000006151d0565b63ffffffff1691505b63ffffffff82166060870152604086015115801561140d5750606086015163ffffffff16155b15610dd2576000610120870152505050505050565b808260600181815161143491906151d0565b63ffffffff169052507f00000000000000000000000000000000000000000000000000000000000000001561061e5781604001511561150857600061147d836101400151612835565b9050600061148a826128d2565b905080846060015163ffffffff161015611505576000846060015163ffffffff16826114b691906150b7565b90508363ffffffff168111156114cf575063ffffffff83165b600081866080015160040b6114e491906151f5565b9050828113156114f15750815b60040b608086015262ffffff166101608501525b50505b8063ffffffff168260e0015163ffffffff16111561153f57808260e00181815161153291906151d0565b63ffffffff169052505050565b600060e08301525050565b60008260a0015164ffffffffff1611801561156e575060c082015164ffffffffff16155b1561157c5761157c8261293f565b81610120015173ffffffffffffffffffffffffffffffffffffffff1682610100015173ffffffffffffffffffffffffffffffffffffffff161461165757610120820151835473ffffffffffffffffffffffffffffffffffffffff9182167fffffffffffffff000000000000000000000000000000000000000000000000009091168117740100000000000000000000000000000000000000004264ffffffffff16021785558351610100850151604051919316907fddf252ad1be2c89b69c2b068fc378daa952ba7f163c4a11628f55a4df523b3ef90600090a45b80156116885782547fffff0000000000ffffffffffffffffffffffffffffffffffffffffffffffffff1683556116f9565b8160a0015164ffffffffff168260c0015164ffffffffff16146116f95760c0820151835464ffffffffff909116790100000000000000000000000000000000000000000000000000027fffff0000000000ffffffffffffffffffffffffffffffffffffffffffffffffff9091161783555b61170b82604001518360600151612bfb565b60019093018054608084015160e0909401514264ffffffffff908116640100000000027fffffffffffffffffffffffffffffffffffffffffffffff0000000000ffffffff63ffffffff9384166e01000000000000000000000000000002167fffffffffffffffffffffffffffff00000000ffffffffff0000000000ffffffff929097166901000000000000000000027fffffffffffffffffffffffffffffffffffff0000000000ffffffffff00000000909416979092169690961791909117949094169290921792909217905550565b600061180860027f0000000000000000000000000000000000000000000000000000000000000000614f72565b6118129042614f72565b600084815260046020908152604080832084845290915290205490915063ffffffff1661183f8382615269565b90508263ffffffff168163ffffffff1610156118b7576040517f08c379a000000000000000000000000000000000000000000000000000000000815260206004820152600e60248201527f4f524249545f4f564552464c4f5700000000000000000000000000000000000060448201526064016102be565b6000938452600460209081526040808620938652929052922080547fffffffffffffffffffffffffffffffffffffffffffffffffffffffff000000001663ffffffff9093169290921790915550565b604080516102a08101825260006080820181905260a0820181905260c0820181905260e08201819052610100820181905261012082018190526101408201819052610160820181905261018082018190526101a082018190526101c082018190526101e08201819052610200820181905261022082018190526102408201819052610260820152835473ffffffffffffffffffffffffffffffffffffffff8116825274010000000000000000000000000000000000000000810464ffffffffff166020830152790100000000000000000000000000000000000000000000000000810463ffffffff1692820183905260608201929092527d01000000000000000000000000000000000000000000000000000000000090910462ffffff16610280820152611a8182604080517f00000000000000000000000000000000000000000000000000000000000000006020820152908101829052600090606001604051602081830303815290604052805190602001209050919050565b60808201819052611a9190612c21565b61ffff1661026082015292915050565b600080611aad84612cb8565b91509150600080611abd85612cb8565b90925090506000600284820b611ad860808c901c6004615291565b611ae29190615347565b600084900b611af660808c901c6004615291565b611b009190615347565b611b0a91906153b7565b611b1491906155f1565b6002600087900b611b386fffffffffffffffffffffffffffffffff8d166004615291565b611b429190615347565b600086900b611b646fffffffffffffffffffffffffffffffff8d166004615291565b611b6e9190615347565b611b7891906153b7565b611b8291906155f1565b611b8c9190615347565b600f0b905080611b9d60028c6156b0565b11158015611bc057506002611bb38b600161510b565b611bbd91906156b0565b81105b611c26576040517f08c379a000000000000000000000000000000000000000000000000000000000815260206004820152600e60248201527f77726f6e672064697374616e636500000000000000000000000000000000000060448201526064016102be565b50505050505050505050565b6000611c3d83612cec565b61ffff16611c6d7f00000000000000000000000000000000000000000000000000000000000000006127106150ce565b611c7790886150ce565b611c819190614f72565b611c929064ffffffffff861661510b565b90506000611ca08683612d83565b90508515611cbb5764ffffffffff8616610200840152611cca565b64ffffffffff82166102008401525b80421015611d34576040517f08c379a000000000000000000000000000000000000000000000000000000000815260206004820152600960248201527f746f6f206561726c79000000000000000000000000000000000000000000000060448201526064016102be565b611d5e7f00000000000000000000000000000000000000000000000000000000000000008261510b565b4210611dec576040517f08c379a000000000000000000000000000000000000000000000000000000000815260206004820152602b60248201527f746f6f206c6174652c20796f7572207370616365736869707320617265206c6f60448201527f737420696e20737061636500000000000000000000000000000000000000000060648201526084016102be565b50505050505050565b6000611e2260027f0000000000000000000000000000000000000000000000000000000000000000614f72565b836020015164ffffffffff16611e389190614f72565b82516000908152600460209081526040808320848452909152902054606085015191925063ffffffff640100000000909104811691908116821015611e97578185606001818151611e8991906151d0565b63ffffffff16905250611e9f565b600060608601525b6060850151611eae90826151d0565b63ffffffff1660a09095019490945250505050565b600080611ed1838587612d9a565b90151560e087015215156101009095019490945250505050565b81610100015115611f5a576127107f0000000000000000000000000000000000000000000000000000000000000000836060015163ffffffff16611f2f91906150ce565b611f399190614f72565b826060015163ffffffff16611f4e91906150b7565b63ffffffff1660608301525b8160e0015115611f6e5761061e8282613863565b61061e8282613994565b60c082015163ffffffff161561061e5780516000908152600460205260408120816001611fc660027f0000000000000000000000000000000000000000000000000000000000000000614f72565b611fd09042614f72565b611fda91906150b7565b81526020808201929092526040908101600090812061018087015181546101a089015163ffffffff908116640100000000027fffffffffffffffffffffffffffffffffffffffffffffffff0000000000000000909216921691909117178155855182526004909352908120919250908161207560027f0000000000000000000000000000000000000000000000000000000000000000614f72565b61207f9042614f72565b815260208101919091526040016000206101c085015181546101e087015163ffffffff908116640100000000027fffffffffffffffffffffffffffffffffffffffffffffffff000000000000000090921692169190911717905550505050565b60a082015163ffffffff161561061e57600061211c60027f0000000000000000000000000000000000000000000000000000000000000000614f72565b836020015164ffffffffff166121329190614f72565b60a08401518351600090815260046020818152604080842086855290915290912080549394509192612173908490640100000000900463ffffffff166151d0565b92506101000a81548163ffffffff021916908363ffffffff160217905550505050565b600081815260208181526040808320815160e081018352815473ffffffffffffffffffffffffffffffffffffffff8116825264ffffffffff7401000000000000000000000000000000000000000082048116958301959095527901000000000000000000000000000000000000000000000000009004841692810192909252600181015463ffffffff8082166060850152640100000000820490941660808401526901000000000000000000810460040b60a08401526e010000000000000000000000000000900490921660c08201529091906122739084610dda565b905061227e81610f42565b600061228e826101400151612835565b9050600061229b826128d2565b610280870151602088015191925062ffffff16906000906122c39064ffffffffff16426150b7565b90506000610e1061ffff86166122ff63ffffffff7f000000000000000000000000000000000000000000000000000000000000000016856150ce565b61230991906150ce565b6123139190614f72565b905060006127106123447f0000000000000000000000000000000000000000000000000000000000000000846150ce565b61234e9190614f72565b612358908361510b565b90508381111561236b5760009350612378565b61237581856150b7565b93505b600084886080015160040b61238d9190615123565b905061239886615197565b8112156123ab576123a886615197565b90505b600481900b60808901526123c18989600061154a565b8b8a7f2d45b84a4a4a5856647775e31f7c00f62fd79e6e9ba64426dad78c4c8e4bb7df8a606001518b608001518c60e001516040516124209392919063ffffffff938416815260049290920b6020830152909116604082015260600190565b60405180910390a3505050505050505050505050565b816101200151156124ae57516000908152600960209081526040808320845173ffffffffffffffffffffffffffffffffffffffff16845282528083206102009094015164ffffffffff1683529290522080547fffff000000000000000000000000000000000000000000000000000000000000169055565b81610100015161061e5780516000908152600960209081526040808320855173ffffffffffffffffffffffffffffffffffffffff908116855290835281842061020087015164ffffffffff16855290925290912061010083015181547fffffffffffffffffffffffff000000000000000000000000000000000000000016921691909117815560c08301516101608401516125499190615269565b815461014085015161026086015161ffff167c0100000000000000000000000000000000000000000000000000000000027fffff0000ffffffffffffffffffffffffffffffffffffffffffffffffffffffff63ffffffff92831674010000000000000000000000000000000000000000027fffffffffffffffff00000000ffffffffffffffffffffffffffffffffffffffff95909316780100000000000000000000000000000000000000000000000002949094167fffffffff0000000000000000ffffffffffffffffffffffffffffffffffffffff9093169290921717919091161790555050565b6040805161016081018252600080825260208201819052918101829052606081018290526080810182905260a0810182905260c0810182905260e081018290526101008101829052610120810182905261014081019190915260608084015163ffffffff9081168352608085015160040b602084015260e0850151811660408401528316908201526101008401516126cb5760006126ee565b83606001518460a0015185604001516126e491906151d0565b6126ee91906151d0565b63ffffffff908116608083015261014080860151821660a080850191909152610160870151831660c08086019190915290870151831660e0850152860151821661010084015261022086015182166101208401526102409095015116938101939093525090919050565b8273ffffffffffffffffffffffffffffffffffffffff16846000015173ffffffffffffffffffffffffffffffffffffffff16867fce4582dbaeda56557d7e73ae521699bff0c6e3a470f1f1089e8f977cac2083dd858860e0015189610120015187604051610ac194939291906156bf565b63800000008181168114906000906127e190846157b4565b9050915091565b6000808264ffffffffff1611801561282f575061282c7f000000000000000000000000000000000000000000000000000000000000000064ffffffffff841661510b565b42115b92915050565b600061284082613b95565b6128a6576040517f08c379a000000000000000000000000000000000000000000000000000000000815260206004820152601160248201527f504c414e45545f4e4f545f45584953545300000000000000000000000000000060448201526064016102be565b61282f82600c7f0708083409600a8c0bb80ce40e100e100e100e101068151819c81e7823282ee0613bb1565b6000610e106129057f000000000000000000000000000000000000000000000000000000000000000061ffff85166150ce565b61290f9190614f72565b61282f9063ffffffff7f00000000000000000000000000000000000000000000000000000000000000001661510b565b600061295a8261010001518360000151846101400151613c2b565b82516000908152600b60205260409020549091508015612bc5576129a17f00000000000000000000000000000000000000000000000000000000000000006207e9006157d7565b6129b19063ffffffff168261510b565b8360a0015164ffffffffff1610612b1d576040517ff6b911bc00000000000000000000000000000000000000000000000000000000815230600482018190526024820152604481018390527f000000000000000000000000000000000000000000000000000000000000000073ffffffffffffffffffffffffffffffffffffffff169063f6b911bc90606401600060405180830381600087803b158015612a5757600080fd5b505af1158015612a6b573d6000803e3d6000fd5b5050505061010083015173ffffffffffffffffffffffffffffffffffffffff16600090815260026020526040812054612aa590849061510b565b6101008501805173ffffffffffffffffffffffffffffffffffffffff9081166000908152600260209081526040808320869055935184518681529182019290925293945016917f05eefb5f2a67125e8c65550a4ffa0f542f75624e866ef58fb72bfb547540309291015b60405180910390a250505050565b61010083015173ffffffffffffffffffffffffffffffffffffffff166000908152600a6020526040812054612b5390849061510b565b6101008501805173ffffffffffffffffffffffffffffffffffffffff9081166000908152600a6020908152604091829020859055925181518581526001948101949094529394509216917f05eefb5f2a67125e8c65550a4ffa0f542f75624e866ef58fb72bfb54754030929101612b0f565b61010083015173ffffffffffffffffffffffffffffffffffffffff16600090815260026020526040812054612aa590849061510b565b60008183612c0a576000612c10565b63800000005b612c1a9190615269565b9392505050565b6000612c2c82613b95565b612c92576040517f08c379a000000000000000000000000000000000000000000000000000000000815260206004820152601160248201527f504c414e45545f4e4f545f45584953545300000000000000000000000000000060448201526064016102be565b612c9d826014613d50565b612cac9060ff166101906157fa565b61282f90610fa0615824565b600080612cc783826003613dea565b612cd2906001615841565b9150612ce18360026003613dea565b6127e1906001615841565b6000612cf782613b95565b612d5d576040517f08c379a000000000000000000000000000000000000000000000000000000000815260206004820152601160248201527f504c414e45545f4e4f545f45584953545300000000000000000000000000000060448201526064016102be565b612d68826024613d50565b612d779060ff1661014d6157fa565b61282f9061138d615824565b600081831015612d935781612c1a565b5090919050565b60008073ffffffffffffffffffffffffffffffffffffffff8516612dda576000612dd184600001518660e001518660200151613e07565b9150915061385b565b825173ffffffffffffffffffffffffffffffffffffffff8681169116148015612e3257508360e0015173ffffffffffffffffffffffffffffffffffffffff168573ffffffffffffffffffffffffffffffffffffffff16145b15612e43575060019050600061385b565b836080015180612e6c5750825173ffffffffffffffffffffffffffffffffffffffff8681169116145b1561356b5760a084015173ffffffffffffffffffffffffffffffffffffffff161580612ec757508473ffffffffffffffffffffffffffffffffffffffff168460a0015173ffffffffffffffffffffffffffffffffffffffff16145b80612eeb5750825173ffffffffffffffffffffffffffffffffffffffff8681169116145b156130155760e084015160208401516040517fdf2c0f4900000000000000000000000000000000000000000000000000000000815273ffffffffffffffffffffffffffffffffffffffff9283166004820152878316602482015264ffffffffff90911660448201526000917f0000000000000000000000000000000000000000000000000000000000000000169063df2c0f4990606401604080518083038186803b158015612f9957600080fd5b505afa158015612fad573d6000803e3d6000fd5b505050506040513d601f19601f82011682018060405250810190612fd191906158b5565b9150506001816bffffffffffffffffffffffff166000148061300b5750846020015164ffffffffff16826bffffffffffffffffffffffff16115b925092505061385b565b60a084015173ffffffffffffffffffffffffffffffffffffffff16600114156133c5578360e0015173ffffffffffffffffffffffffffffffffffffffff16836000015173ffffffffffffffffffffffffffffffffffffffff1614156131915760e084015160208401516040517fdf2c0f4900000000000000000000000000000000000000000000000000000000815273ffffffffffffffffffffffffffffffffffffffff9283166004820152878316602482015264ffffffffff90911660448201526000917f0000000000000000000000000000000000000000000000000000000000000000169063df2c0f49906064015b604080518083038186803b15801561311e57600080fd5b505afa158015613132573d6000803e3d6000fd5b505050506040513d601f19601f8201168201806040525081019061315691906158b5565b9150506000816bffffffffffffffffffffffff1611846020015164ffffffffff16826bffffffffffffffffffffffff1611925092505061385b565b825160208401516040517fdf2c0f4900000000000000000000000000000000000000000000000000000000815273ffffffffffffffffffffffffffffffffffffffff9283166004820152878316602482015264ffffffffff90911660448201526000917f0000000000000000000000000000000000000000000000000000000000000000169063df2c0f4990606401604080518083038186803b15801561323757600080fd5b505afa15801561324b573d6000803e3d6000fd5b505050506040513d601f19601f8201168201806040525081019061326f91906158b5565b9150506bffffffffffffffffffffffff811661329e57600061300b85600001518760e001518760200151613e07565b60e085015160208501516040517fdf2c0f4900000000000000000000000000000000000000000000000000000000815273ffffffffffffffffffffffffffffffffffffffff9283166004820152888316602482015264ffffffffff90911660448201526000917f0000000000000000000000000000000000000000000000000000000000000000169063df2c0f49906064015b604080518083038186803b15801561334857600080fd5b505afa15801561335c573d6000803e3d6000fd5b505050506040513d601f19601f8201168201806040525081019061338091906158b5565b9150506001816bffffffffffffffffffffffff16600014806133ba5750856020015164ffffffffff16826bffffffffffffffffffffffff16115b93509350505061385b565b60018460a0015173ffffffffffffffffffffffffffffffffffffffff1611156135665760a08401516040517f4ed2986d00000000000000000000000000000000000000000000000000000000815273ffffffffffffffffffffffffffffffffffffffff878116600483015291821660248201526000917f00000000000000000000000000000000000000000000000000000000000000001690634ed2986d90604401604080518083038186803b15801561347e57600080fd5b505afa158015613492573d6000803e3d6000fd5b505050506040513d601f19601f820116820180604052508101906134b691906158ea565b5090506bffffffffffffffffffffffff8116156135645760e085015160208501516040517fdf2c0f4900000000000000000000000000000000000000000000000000000000815273ffffffffffffffffffffffffffffffffffffffff9283166004820152888316602482015264ffffffffff90911660448201526000917f0000000000000000000000000000000000000000000000000000000000000000169063df2c0f4990606401613331565b505b61383d565b60a084015173ffffffffffffffffffffffffffffffffffffffff1660011415613661578360e0015173ffffffffffffffffffffffffffffffffffffffff16836000015173ffffffffffffffffffffffffffffffffffffffff1614156131915760e084015160208401516040517fdf2c0f4900000000000000000000000000000000000000000000000000000000815273ffffffffffffffffffffffffffffffffffffffff9283166004820152878316602482015264ffffffffff90911660448201526000917f0000000000000000000000000000000000000000000000000000000000000000169063df2c0f4990606401613107565b60018460a0015173ffffffffffffffffffffffffffffffffffffffff161180156136bb57508473ffffffffffffffffffffffffffffffffffffffff168460a0015173ffffffffffffffffffffffffffffffffffffffff1614155b1561383d5760a08401516040517f4ed2986d00000000000000000000000000000000000000000000000000000000815273ffffffffffffffffffffffffffffffffffffffff878116600483015291821660248201526000917f00000000000000000000000000000000000000000000000000000000000000001690634ed2986d90604401604080518083038186803b15801561375657600080fd5b505afa15801561376a573d6000803e3d6000fd5b505050506040513d601f19601f8201168201806040525081019061378e91906158ea565b5090506bffffffffffffffffffffffff811661383b5760e085015160208501516040517fdf2c0f4900000000000000000000000000000000000000000000000000000000815273ffffffffffffffffffffffffffffffffffffffff9283166004820152888316602482015264ffffffffff90911660448201526000917f0000000000000000000000000000000000000000000000000000000000000000169063df2c0f4990606401613331565b505b600061385684600001518660e001518660200151613e07565b915091505b935093915050565b6000826060015182606001516138799190615269565b63ffffffff169050638000000081106138a45761389b600163800000006151d0565b63ffffffff1690505b63ffffffff8116606083015260408201516138ea578160e0015163ffffffff16826060015163ffffffff16111561037c57606082015163ffffffff1660e0830152505050565b60006139026138fd846101400151612835565b6128d2565b905060007f000000000000000000000000000000000000000000000000000000000000000011801561393957508063ffffffff1682115b15613986578260e0015163ffffffff1681846060015161395991906151d0565b63ffffffff1611156139815780836060015161397591906151d0565b63ffffffff1660e08401525b61398e565b600060e08401525b50505050565b80604001511580156139c057506139af816101400151613f58565b61ffff16816060015163ffffffff16105b156139cf5761061e8282613fef565b6102008201516139e190610a8c615916565b64ffffffffff16421015613b8b57816101000151613b8b5780516000908152600960209081526040808320855173ffffffffffffffffffffffffffffffffffffffff908116855290835281842061020087015164ffffffffff1685528352928190208151608081018352905480851680835274010000000000000000000000000000000000000000820463ffffffff9081169584019590955278010000000000000000000000000000000000000000000000008204909416928201929092527c010000000000000000000000000000000000000000000000000000000090910461ffff166060820152610100840151909216148015613ae95750602081015163ffffffff1615155b15613b8957806020015163ffffffff16836060015163ffffffff16613b0e919061510b565b816020015163ffffffff16826060015161ffff16613b2c91906150ce565b846060015163ffffffff1685610260015161ffff16613b4b91906150ce565b613b55919061510b565b613b5f9190614f72565b61ffff16610260840152602081015163ffffffff9081166102408501526040820151166102208401525b505b61061e82826140da565b6000613ba48260346010613dea565b60ff166001149050919050565b600080613bbe8585613d50565b905082613bcc826002615936565b613bd7906001615957565b60ff1660208110613bea57613bea61597c565b1a83613bf7836002615936565b60ff1660208110613c0a57613c0a61597c565b613c1891901a6101006157fa565b613c229190615824565b95945050505050565b6000655af3107a4000613c3d83614236565b63ffffffff16613c4d91906150ce565b9050828473ffffffffffffffffffffffffffffffffffffffff167f1c363b29828a892b7cddafe9583ef52e0d5aca0ea7011bda6ccf039e1781f73883604051613c9891815260200190565b60405180910390a36000838152600760205260409020548015613d485773ffffffffffffffffffffffffffffffffffffffff85166000818152600860209081526040808320858452825280832080547fffffffffffffffffffffffffffffffffffffffffffffffffffffffffffffff001660011790558783526007909152808220829055518392879290917f74f110a1e0cd4892234c7ba49df9f8a354cd8d29b272f7557c9b8c3c38a653369190a45b509392505050565b600080613d5f84846040613dea565b90506000613d6e6002836159ab565b90506000613d7d6002846159cd565b905060007f01223334444555555666666677777777888888889999999aaaaaabbbbcccddef60ff841660208110613db657613db661597c565b1a905060ff8216613dd45760048160ff16901c94505050505061282f565b613ddf6010826159cd565b94505050505061282f565b6000613dff60ff80841690851686901c6159ef565b949350505050565b60008273ffffffffffffffffffffffffffffffffffffffff168473ffffffffffffffffffffffffffffffffffffffff161415613e4557506000612c1a565b6040517fdf2c0f4900000000000000000000000000000000000000000000000000000000815273ffffffffffffffffffffffffffffffffffffffff8581166004830152848116602483015264ffffffffff841660448301526000917f00000000000000000000000000000000000000000000000000000000000000009091169063df2c0f4990606401604080518083038186803b158015613ee557600080fd5b505afa158015613ef9573d6000803e3d6000fd5b505050506040513d601f19601f82011682018060405250810190613f1d91906158b5565b9150506bffffffffffffffffffffffff81161580613c2257508264ffffffffff16816bffffffffffffffffffffffff16119150509392505050565b6000613f6382613b95565b613fc9576040517f08c379a000000000000000000000000000000000000000000000000000000000815260206004820152601160248201527f504c414e45545f4e4f545f45584953545300000000000000000000000000000060448201526064016102be565b613fd482602c613d50565b613fe39060ff16610bb86157fa565b61282f90613a98615824565b6000613ffe8360800151612c21565b9050600061401083610140015161434b565b90506000614022846101400151613f58565b9050600080614049876060015163ffffffff168461ffff168761ffff168761ffff166143c7565b63ffffffff8083166101408b01529193509150811661ffff841614801561407f57508163ffffffff16876060015163ffffffff16115b15611dec5781876060015161409491906151d0565b63ffffffff90811660608801528116610160880152600161012080890191909152875173ffffffffffffffffffffffffffffffffffffffff169087015250505050505050565b6140e48282614568565b6000826101c0015183610180015184610220015184606001516141079190615269565b6141119190615269565b61411b9190615269565b63ffffffff1690506000614133836101400151612835565b90508115801561414d57506000846060015163ffffffff16115b1561422057835173ffffffffffffffffffffffffffffffffffffffff1661012084015260608085015163ffffffff1690840152604083015161419e57606083015163ffffffff1660e0840152614213565b7f0000000000000000000000000000000000000000000000000000000000000000156142135760006141cf826128d2565b90508063ffffffff16846060015163ffffffff161115614209578084606001516141f991906151d0565b63ffffffff1660e0850152614211565b600060e08501525b505b600161012085015261398e565b61422b8484846146dd565b61398e848483614c71565b600061424182613b95565b6142a7576040517f08c379a000000000000000000000000000000000000000000000000000000000815260206004820152601160248201527f504c414e45545f4e4f545f45584953545300000000000000000000000000000060448201526064016102be565b60006142b483600c613d50565b905060ff81166103e87f00000000000000000000000000000000000000000000000000000000000000007f000000000000000000000000000000000000000000000000000000000000000061430a8460026157fa565b614315906001615824565b61ffff16602081106143295761432961597c565b6143359291901a6150ce565b61433f9190614f72565b613dff906103e86150ce565b600061435682613b95565b6143bc576040517f08c379a000000000000000000000000000000000000000000000000000000000815260206004820152601160248201527f504c414e45545f4e4f545f45584953545300000000000000000000000000000060448201526064016102be565b612c9d82601c613d50565b6000808515806143d5575084155b156143e55750600090508061455f565b600085614412887f00000000000000000000000000000000000000000000000000000000000000006150ce565b61441c9190614f72565b6144497f0000000000000000000000000000000000000000000000000000000000000000620f42406150b7565b614453919061510b565b61445d90886150ce565b90506000620f42408561447088856150ce565b61447a9190614f72565b6144849190614f72565b9050808711156144995787935080925061455c565b6000886144c6897f00000000000000000000000000000000000000000000000000000000000000006150ce565b6144d09190614f72565b6144fd7f0000000000000000000000000000000000000000000000000000000000000000620f42406150b7565b614507919061510b565b61451190896150ce565b90506000620f42408861452489856150ce565b61452e9190614f72565b6145389190614f72565b63ffffffff1690508981106145555761455260018b6150b7565b90505b9450879350505b50505b94509492505050565b600061459560027f0000000000000000000000000000000000000000000000000000000000000000614f72565b61459f9042614f72565b8251600090815260046020526040812091925090816145bf6001856150b7565b815260208101919091526040016000208054909150638000000063ffffffff909116116145f357805463ffffffff166145f9565b637fffffff5b63ffffffff9081166101808601528154638000000064010000000090910490911611614634578054640100000000900463ffffffff1661463a565b637fffffff5b63ffffffff9081166101a086015283516000908152600460209081526040808320868452909152902080549091638000000091161161468057805463ffffffff16614686565b637fffffff5b63ffffffff9081166101c087015281546380000000640100000000909104909116116146c1578054640100000000900463ffffffff166146c7565b637fffffff5b63ffffffff166101e09095019490945250505050565b6102608301516101408301516000906146f59061434b565b90506000856102400151866060015161470e9190615269565b63ffffffff16905060008061472d83878761ffff168761ffff166143c7565b63ffffffff8082166101608c01528083166101408c015260608b0151929450909250161580159061476857508588610160015163ffffffff16145b1561491257600088610220015163ffffffff16886060015163ffffffff168861479191906150b7565b61479b91906150b7565b905063800000008111156147c1576147b8600163800000006151d0565b63ffffffff1690505b63ffffffff811660c08a018190526101608a01516147df91906151d0565b63ffffffff166101608a015261024089015160608a0151849161480191615269565b61480b91906151d0565b63ffffffff1660608901526001610120808b0191909152895173ffffffffffffffffffffffffffffffffffffffff1690890152604088015161485c57606088015163ffffffff1660e089015261490c565b7f00000000000000000000000000000000000000000000000000000000000000001561490c576000614892896101400151612835565b9050600061489f826128d2565b90508063ffffffff168a6060015163ffffffff161115614901578960e0015163ffffffff16818b606001516148d491906151d0565b63ffffffff1611156148fc57808a606001516148f091906151d0565b63ffffffff1660e08b01525b614909565b600060e08b01525b50505b50614c67565b87610240015188606001516149279190615269565b63ffffffff1688610140015163ffffffff161415614c055787610220015187606001516149549190615269565b63ffffffff168163ffffffff161115614abb57610220880151606088015161497c90836151d0565b61498691906151d0565b63ffffffff90811660c08a01908152600060608a0152516101808a01519082169116106149f2578760c0015188610180018181516149c491906151d0565b63ffffffff1690525060c08801516101a0890180516149e4908390615269565b63ffffffff16905250614ae7565b876101800151886101a001818151614a0a9190615269565b63ffffffff1690525061018088015160c0890151600091614a2a916151d0565b90508063ffffffff16896101c0015163ffffffff1610614a835780896101c001818151614a5791906151d0565b63ffffffff169052506101e089018051829190614a75908390615269565b63ffffffff16905250614aad565b886101c00151896101e001818151614a9b9190615269565b63ffffffff1690525060006101c08a01525b506000610180890152614ae7565b808861022001518860600151614ad19190615269565b614adb91906151d0565b63ffffffff1660608801525b8760c00151886101600151614afc91906151d0565b63ffffffff166101608901526040870151614b55578660e0015163ffffffff168163ffffffff161115614b3557600060e0880152614c67565b808760e001818151614b4791906151d0565b63ffffffff16905250614c67565b7f000000000000000000000000000000000000000000000000000000000000000015614c00576000614b8b886101400151612835565b90506000614b98826128d2565b90508063ffffffff16896060015163ffffffff161115614bf5578860e0015163ffffffff168363ffffffff1611614be957828960e001818151614bdb91906151d0565b63ffffffff16905250614bfd565b600060e08a0152614bfd565b600060e08a01525b50505b614c67565b6040517f08c379a000000000000000000000000000000000000000000000000000000000815260206004820152600960248201527f5a45524f5f5a45524f000000000000000000000000000000000000000000000060448201526064016102be565b5050505050505050565b6000614c7c826128d2565b905060008460c0015163ffffffff1685610160015163ffffffff16614ca1919061510b565b9050600081856080015160040b614cb89190615123565b9050614cc383615197565b811215614cd657614cd383615197565b90505b60040b60809094019390935250505050565b803563ffffffff81168114614cfc57600080fd5b919050565b600080600060608486031215614d1657600080fd5b83359250614d2660208501614ce8565b9150604084013590509250925092565b600060a08284031215614d4857600080fd5b50919050565b60008060408385031215614d6157600080fd5b50508035926020909101359150565b600080828403610140811215614d8557600080fd5b833592506101207fffffffffffffffffffffffffffffffffffffffffffffffffffffffffffffffe082011215614dba57600080fd5b506020830190509250929050565b73ffffffffffffffffffffffffffffffffffffffff81168114614dea57600080fd5b50565b8035614cfc81614dc8565b600060208284031215614e0a57600080fd5b8135612c1a81614dc8565b604051610120810167ffffffffffffffff81118282101715614e60577f4e487b7100000000000000000000000000000000000000000000000000000000600052604160045260246000fd5b60405290565b600060a08284031215614e7857600080fd5b60405160a0810181811067ffffffffffffffff82111715614ec2577f4e487b7100000000000000000000000000000000000000000000000000000000600052604160045260246000fd5b6040528235614ed081614dc8565b81526020830135614ee081614dc8565b602082015260408381013590820152614efb60608401614ce8565b6060820152608083013560808201528091505092915050565b7f4e487b7100000000000000000000000000000000000000000000000000000000600052601260045260246000fd5b7f4e487b7100000000000000000000000000000000000000000000000000000000600052601160045260246000fd5b600082614f8157614f81614f14565b500490565b80358015158114614cfc57600080fd5b600060208284031215614fa857600080fd5b612c1a82614f86565b600060208083528351808285015260005b81811015614fde57858101830151858201604001528201614fc2565b81811115614ff0576000604083870101525b50601f017fffffffffffffffffffffffffffffffffffffffffffffffffffffffffffffffe016929092016040019392505050565b6000610120828403121561503757600080fd5b61503f614e15565b8235815260208301356020820152604083013560408201526060830135606082015261506d60808401614f86565b608082015261507e60a08401614ded565b60a082015260c083013560c082015261509960e08401614ded565b60e08201526101006150ac818501614ded565b908201529392505050565b6000828210156150c9576150c9614f43565b500390565b6000817fffffffffffffffffffffffffffffffffffffffffffffffffffffffffffffffff048311821515161561510657615106614f43565b500290565b6000821982111561511e5761511e614f43565b500190565b6000808312837f80000000000000000000000000000000000000000000000000000000000000000183128115161561515d5761515d614f43565b837f7fffffffffffffffffffffffffffffffffffffffffffffffffffffffffffffff01831381161561519157615191614f43565b50500390565b60007f80000000000000000000000000000000000000000000000000000000000000008214156151c9576151c9614f43565b5060000390565b600063ffffffff838116908316818110156151ed576151ed614f43565b039392505050565b6000808212827f7fffffffffffffffffffffffffffffffffffffffffffffffffffffffffffffff0384138115161561522f5761522f614f43565b827f800000000000000000000000000000000000000000000000000000000000000003841281161561526357615263614f43565b50500190565b600063ffffffff80831681851680830382111561528857615288614f43565b01949350505050565b600081600f0b83600f0b6f7fffffffffffffffffffffffffffffff6000821360008413838304851182821616156152ca576152ca614f43565b7fffffffffffffffffffffffffffffffff80000000000000000000000000000000600085128682058612818416161561530557615305614f43565b6000871292508582058712848416161561532157615321614f43565b8585058712818416161561533757615337614f43565b5050509290910295945050505050565b600081600f0b83600f0b60008212826f7fffffffffffffffffffffffffffffff0382138115161561537a5761537a614f43565b827fffffffffffffffffffffffffffffffff800000000000000000000000000000000382128116156153ae576153ae614f43565b50019392505050565b600081600f0b83600f0b60008112817fffffffffffffffffffffffffffffffff80000000000000000000000000000000018312811516156153fa576153fa614f43565b816f7fffffffffffffffffffffffffffffff01831381161561541e5761541e614f43565b5090039392505050565b600181815b8085111561548157817fffffffffffffffffffffffffffffffffffffffffffffffffffffffffffffffff0482111561546757615467614f43565b8085161561547457918102915b93841c939080029061542d565b509250929050565b80825b600180861161549b575061385b565b816f7fffffffffffffffffffffffffffffff048211156154bd576154bd614f43565b808616156154ca57918102915b9490941c93800261548c565b60008280156154ec57600181146154f6576154ff565b600191505061282f565b8291505061282f565b508161550d5750600061282f565b5060016000821380821461552657801561554d5761556f565b826f7fffffffffffffffffffffffffffffff0483111561554857615548614f43565b61556f565b826f7fffffffffffffffffffffffffffffff0583121561556f5761556f614f43565b508083161561557b5750805b61558b8360011c83840283615489565b806f7fffffffffffffffffffffffffffffff0482116000831316156155b2576155b2614f43565b807fffffffffffffffffffffffffffffffff800000000000000000000000000000000582126000831216156155e9576155e9614f43565b029392505050565b6000612c1a60ff841683600f0b6154d6565b6000826156125750600161282f565b8161561f5750600061282f565b81600181146154ec576002811461563557615651565b60ff84111561564657615646614f43565b50506001821b61282f565b5060208310610133831016604e8410600b8410161715615674575081810a61282f565b61567e8383615428565b807fffffffffffffffffffffffffffffffffffffffffffffffffffffffffffffffff048211156155e9576155e9614f43565b6000612c1a60ff841683615603565b84815283151560208201528215156040820152815163ffffffff1660608201526101c0810160208301516156f8608084018260040b9052565b50604083015163ffffffff811660a084015250606083015163ffffffff811660c084015250608083015163ffffffff811660e08401525060a08301516101006157488185018363ffffffff169052565b60c085015191506101206157638186018463ffffffff169052565b60e0860151925061014061577e8187018563ffffffff169052565b9186015163ffffffff9081166101608701529086015181166101808601529401519093166101a090920191909152949350505050565b600063ffffffff808416806157cb576157cb614f14565b92169190910692915050565b600063ffffffff808416806157ee576157ee614f14565b92169190910492915050565b600061ffff8083168185168183048111821515161561581b5761581b614f43565b02949350505050565b600061ffff80831681851680830382111561528857615288614f43565b60008160000b8360000b60008112817fffffffffffffffffffffffffffffffffffffffffffffffffffffffffffffff800183128115161561588457615884614f43565b81607f01831381161561541e5761541e614f43565b80516bffffffffffffffffffffffff81168114614cfc57600080fd5b600080604083850312156158c857600080fd5b82516158d381614dc8565b91506158e160208401615899565b90509250929050565b600080604083850312156158fd57600080fd5b61590683615899565b9150602083015190509250929050565b600064ffffffffff80831681851680830382111561528857615288614f43565b600060ff821660ff84168160ff04811182151516156155e9576155e9614f43565b600060ff821660ff84168060ff0382111561597457615974614f43565b019392505050565b7f4e487b7100000000000000000000000000000000000000000000000000000000600052603260045260246000fd5b600060ff8316806159be576159be614f14565b8060ff84160491505092915050565b600060ff8316806159e0576159e0614f14565b8060ff84160691505092915050565b6000826159fe576159fe614f14565b50069056fea2646970667358221220a006d8dcba3154dc12839741c9facde25a81b5cab26c523a57e799b67cd798b664736f6c63430008090033",
  "devdoc": {
    "kind": "dev",
    "methods": {},
    "version": 1
  },
  "userdoc": {
    "kind": "user",
    "methods": {},
    "version": 1
  },
  "storageLayout": {
    "storage": [
      {
        "astId": 17765,
        "contract": "src/outerspace/facets/OuterSpaceFleetsFacet.sol:OuterSpaceFleetsFacet",
        "label": "_planets",
        "offset": 0,
        "slot": "0",
        "type": "t_mapping(t_uint256,t_struct(Planet)25020_storage)"
      },
      {
        "astId": 17770,
        "contract": "src/outerspace/facets/OuterSpaceFleetsFacet.sol:OuterSpaceFleetsFacet",
        "label": "_fleets",
        "offset": 0,
        "slot": "1",
        "type": "t_mapping(t_uint256,t_struct(Fleet)25029_storage)"
      },
      {
        "astId": 17774,
        "contract": "src/outerspace/facets/OuterSpaceFleetsFacet.sol:OuterSpaceFleetsFacet",
        "label": "_stakeReadyToBeWithdrawn",
        "offset": 0,
        "slot": "2",
        "type": "t_mapping(t_address,t_uint256)"
      },
      {
        "astId": 17780,
        "contract": "src/outerspace/facets/OuterSpaceFleetsFacet.sol:OuterSpaceFleetsFacet",
        "label": "_operators",
        "offset": 0,
        "slot": "3",
        "type": "t_mapping(t_address,t_mapping(t_address,t_bool))"
      },
      {
        "astId": 17787,
        "contract": "src/outerspace/facets/OuterSpaceFleetsFacet.sol:OuterSpaceFleetsFacet",
        "label": "_inFlight",
        "offset": 0,
        "slot": "4",
        "type": "t_mapping(t_uint256,t_mapping(t_uint256,t_struct(InFlight)24996_storage))"
      },
      {
        "astId": 17790,
        "contract": "src/outerspace/facets/OuterSpaceFleetsFacet.sol:OuterSpaceFleetsFacet",
        "label": "_discovered",
        "offset": 0,
        "slot": "5",
        "type": "t_struct(Discovered)25005_storage"
      },
      {
        "astId": 17794,
        "contract": "src/outerspace/facets/OuterSpaceFleetsFacet.sol:OuterSpaceFleetsFacet",
        "label": "_prevRewardIds",
        "offset": 0,
        "slot": "6",
        "type": "t_mapping(t_address,t_uint256)"
      },
      {
        "astId": 17798,
        "contract": "src/outerspace/facets/OuterSpaceFleetsFacet.sol:OuterSpaceFleetsFacet",
        "label": "_rewards",
        "offset": 0,
        "slot": "7",
        "type": "t_mapping(t_uint256,t_uint256)"
      },
      {
        "astId": 17804,
        "contract": "src/outerspace/facets/OuterSpaceFleetsFacet.sol:OuterSpaceFleetsFacet",
        "label": "_rewardsToWithdraw",
        "offset": 0,
        "slot": "8",
        "type": "t_mapping(t_address,t_mapping(t_uint256,t_bool))"
      },
      {
        "astId": 17813,
        "contract": "src/outerspace/facets/OuterSpaceFleetsFacet.sol:OuterSpaceFleetsFacet",
        "label": "_attacks",
        "offset": 0,
        "slot": "9",
        "type": "t_mapping(t_uint256,t_mapping(t_address,t_mapping(t_uint256,t_struct(AccumulatedAttack)25102_storage)))"
      },
      {
        "astId": 17817,
        "contract": "src/outerspace/facets/OuterSpaceFleetsFacet.sol:OuterSpaceFleetsFacet",
        "label": "_freeStakeReadyToBeWithdrawn",
        "offset": 0,
        "slot": "10",
        "type": "t_mapping(t_address,t_uint256)"
      },
      {
        "astId": 17821,
        "contract": "src/outerspace/facets/OuterSpaceFleetsFacet.sol:OuterSpaceFleetsFacet",
        "label": "_planetFlagged",
        "offset": 0,
        "slot": "11",
        "type": "t_mapping(t_uint256,t_uint256)"
      }
    ],
    "types": {
      "t_address": {
        "encoding": "inplace",
        "label": "address",
        "numberOfBytes": "20"
      },
      "t_bool": {
        "encoding": "inplace",
        "label": "bool",
        "numberOfBytes": "1"
      },
      "t_int40": {
        "encoding": "inplace",
        "label": "int40",
        "numberOfBytes": "5"
      },
      "t_mapping(t_address,t_bool)": {
        "encoding": "mapping",
        "key": "t_address",
        "label": "mapping(address => bool)",
        "numberOfBytes": "32",
        "value": "t_bool"
      },
      "t_mapping(t_address,t_mapping(t_address,t_bool))": {
        "encoding": "mapping",
        "key": "t_address",
        "label": "mapping(address => mapping(address => bool))",
        "numberOfBytes": "32",
        "value": "t_mapping(t_address,t_bool)"
      },
      "t_mapping(t_address,t_mapping(t_uint256,t_bool))": {
        "encoding": "mapping",
        "key": "t_address",
        "label": "mapping(address => mapping(uint256 => bool))",
        "numberOfBytes": "32",
        "value": "t_mapping(t_uint256,t_bool)"
      },
      "t_mapping(t_address,t_mapping(t_uint256,t_struct(AccumulatedAttack)25102_storage))": {
        "encoding": "mapping",
        "key": "t_address",
        "label": "mapping(address => mapping(uint256 => struct ImportingOuterSpaceTypes.AccumulatedAttack))",
        "numberOfBytes": "32",
        "value": "t_mapping(t_uint256,t_struct(AccumulatedAttack)25102_storage)"
      },
      "t_mapping(t_address,t_uint256)": {
        "encoding": "mapping",
        "key": "t_address",
        "label": "mapping(address => uint256)",
        "numberOfBytes": "32",
        "value": "t_uint256"
      },
      "t_mapping(t_uint256,t_bool)": {
        "encoding": "mapping",
        "key": "t_uint256",
        "label": "mapping(uint256 => bool)",
        "numberOfBytes": "32",
        "value": "t_bool"
      },
      "t_mapping(t_uint256,t_mapping(t_address,t_mapping(t_uint256,t_struct(AccumulatedAttack)25102_storage)))": {
        "encoding": "mapping",
        "key": "t_uint256",
        "label": "mapping(uint256 => mapping(address => mapping(uint256 => struct ImportingOuterSpaceTypes.AccumulatedAttack)))",
        "numberOfBytes": "32",
        "value": "t_mapping(t_address,t_mapping(t_uint256,t_struct(AccumulatedAttack)25102_storage))"
      },
      "t_mapping(t_uint256,t_mapping(t_uint256,t_struct(InFlight)24996_storage))": {
        "encoding": "mapping",
        "key": "t_uint256",
        "label": "mapping(uint256 => mapping(uint256 => struct ImportingOuterSpaceTypes.InFlight))",
        "numberOfBytes": "32",
        "value": "t_mapping(t_uint256,t_struct(InFlight)24996_storage)"
      },
      "t_mapping(t_uint256,t_struct(AccumulatedAttack)25102_storage)": {
        "encoding": "mapping",
        "key": "t_uint256",
        "label": "mapping(uint256 => struct ImportingOuterSpaceTypes.AccumulatedAttack)",
        "numberOfBytes": "32",
        "value": "t_struct(AccumulatedAttack)25102_storage"
      },
      "t_mapping(t_uint256,t_struct(Fleet)25029_storage)": {
        "encoding": "mapping",
        "key": "t_uint256",
        "label": "mapping(uint256 => struct ImportingOuterSpaceTypes.Fleet)",
        "numberOfBytes": "32",
        "value": "t_struct(Fleet)25029_storage"
      },
      "t_mapping(t_uint256,t_struct(InFlight)24996_storage)": {
        "encoding": "mapping",
        "key": "t_uint256",
        "label": "mapping(uint256 => struct ImportingOuterSpaceTypes.InFlight)",
        "numberOfBytes": "32",
        "value": "t_struct(InFlight)24996_storage"
      },
      "t_mapping(t_uint256,t_struct(Planet)25020_storage)": {
        "encoding": "mapping",
        "key": "t_uint256",
        "label": "mapping(uint256 => struct ImportingOuterSpaceTypes.Planet)",
        "numberOfBytes": "32",
        "value": "t_struct(Planet)25020_storage"
      },
      "t_mapping(t_uint256,t_uint256)": {
        "encoding": "mapping",
        "key": "t_uint256",
        "label": "mapping(uint256 => uint256)",
        "numberOfBytes": "32",
        "value": "t_uint256"
      },
      "t_struct(AccumulatedAttack)25102_storage": {
        "encoding": "inplace",
        "label": "struct ImportingOuterSpaceTypes.AccumulatedAttack",
        "members": [
          {
            "astId": 25095,
            "contract": "src/outerspace/facets/OuterSpaceFleetsFacet.sol:OuterSpaceFleetsFacet",
            "label": "target",
            "offset": 0,
            "slot": "0",
            "type": "t_address"
          },
          {
            "astId": 25097,
            "contract": "src/outerspace/facets/OuterSpaceFleetsFacet.sol:OuterSpaceFleetsFacet",
            "label": "numAttackSpent",
            "offset": 20,
            "slot": "0",
            "type": "t_uint32"
          },
          {
            "astId": 25099,
            "contract": "src/outerspace/facets/OuterSpaceFleetsFacet.sol:OuterSpaceFleetsFacet",
            "label": "damageCausedSoFar",
            "offset": 24,
            "slot": "0",
            "type": "t_uint32"
          },
          {
            "astId": 25101,
            "contract": "src/outerspace/facets/OuterSpaceFleetsFacet.sol:OuterSpaceFleetsFacet",
            "label": "averageAttackPower",
            "offset": 28,
            "slot": "0",
            "type": "t_uint16"
          }
        ],
        "numberOfBytes": "32"
      },
      "t_struct(Discovered)25005_storage": {
        "encoding": "inplace",
        "label": "struct ImportingOuterSpaceTypes.Discovered",
        "members": [
          {
            "astId": 24998,
            "contract": "src/outerspace/facets/OuterSpaceFleetsFacet.sol:OuterSpaceFleetsFacet",
            "label": "minX",
            "offset": 0,
            "slot": "0",
            "type": "t_uint32"
          },
          {
            "astId": 25000,
            "contract": "src/outerspace/facets/OuterSpaceFleetsFacet.sol:OuterSpaceFleetsFacet",
            "label": "maxX",
            "offset": 4,
            "slot": "0",
            "type": "t_uint32"
          },
          {
            "astId": 25002,
            "contract": "src/outerspace/facets/OuterSpaceFleetsFacet.sol:OuterSpaceFleetsFacet",
            "label": "minY",
            "offset": 8,
            "slot": "0",
            "type": "t_uint32"
          },
          {
            "astId": 25004,
            "contract": "src/outerspace/facets/OuterSpaceFleetsFacet.sol:OuterSpaceFleetsFacet",
            "label": "maxY",
            "offset": 12,
            "slot": "0",
            "type": "t_uint32"
          }
        ],
        "numberOfBytes": "32"
      },
      "t_struct(Fleet)25029_storage": {
        "encoding": "inplace",
        "label": "struct ImportingOuterSpaceTypes.Fleet",
        "members": [
          {
            "astId": 25022,
            "contract": "src/outerspace/facets/OuterSpaceFleetsFacet.sol:OuterSpaceFleetsFacet",
            "label": "owner",
            "offset": 0,
            "slot": "0",
            "type": "t_address"
          },
          {
            "astId": 25024,
            "contract": "src/outerspace/facets/OuterSpaceFleetsFacet.sol:OuterSpaceFleetsFacet",
            "label": "launchTime",
            "offset": 20,
            "slot": "0",
            "type": "t_uint40"
          },
          {
            "astId": 25026,
            "contract": "src/outerspace/facets/OuterSpaceFleetsFacet.sol:OuterSpaceFleetsFacet",
            "label": "quantity",
            "offset": 25,
            "slot": "0",
            "type": "t_uint32"
          },
          {
            "astId": 25028,
            "contract": "src/outerspace/facets/OuterSpaceFleetsFacet.sol:OuterSpaceFleetsFacet",
            "label": "futureExtraProduction",
            "offset": 29,
            "slot": "0",
            "type": "t_uint24"
          }
        ],
        "numberOfBytes": "32"
      },
      "t_struct(InFlight)24996_storage": {
        "encoding": "inplace",
        "label": "struct ImportingOuterSpaceTypes.InFlight",
        "members": [
          {
            "astId": 24993,
            "contract": "src/outerspace/facets/OuterSpaceFleetsFacet.sol:OuterSpaceFleetsFacet",
            "label": "flying",
            "offset": 0,
            "slot": "0",
            "type": "t_uint32"
          },
          {
            "astId": 24995,
            "contract": "src/outerspace/facets/OuterSpaceFleetsFacet.sol:OuterSpaceFleetsFacet",
            "label": "destroyed",
            "offset": 4,
            "slot": "0",
            "type": "t_uint32"
          }
        ],
        "numberOfBytes": "32"
      },
      "t_struct(Planet)25020_storage": {
        "encoding": "inplace",
        "label": "struct ImportingOuterSpaceTypes.Planet",
        "members": [
          {
            "astId": 25007,
            "contract": "src/outerspace/facets/OuterSpaceFleetsFacet.sol:OuterSpaceFleetsFacet",
            "label": "owner",
            "offset": 0,
            "slot": "0",
            "type": "t_address"
          },
          {
            "astId": 25009,
            "contract": "src/outerspace/facets/OuterSpaceFleetsFacet.sol:OuterSpaceFleetsFacet",
            "label": "ownershipStartTime",
            "offset": 20,
            "slot": "0",
            "type": "t_uint40"
          },
          {
            "astId": 25011,
            "contract": "src/outerspace/facets/OuterSpaceFleetsFacet.sol:OuterSpaceFleetsFacet",
            "label": "exitStartTime",
            "offset": 25,
            "slot": "0",
            "type": "t_uint40"
          },
          {
            "astId": 25013,
            "contract": "src/outerspace/facets/OuterSpaceFleetsFacet.sol:OuterSpaceFleetsFacet",
            "label": "numSpaceships",
            "offset": 0,
            "slot": "1",
            "type": "t_uint32"
          },
          {
            "astId": 25015,
            "contract": "src/outerspace/facets/OuterSpaceFleetsFacet.sol:OuterSpaceFleetsFacet",
            "label": "lastUpdated",
            "offset": 4,
            "slot": "1",
            "type": "t_uint40"
          },
          {
            "astId": 25017,
            "contract": "src/outerspace/facets/OuterSpaceFleetsFacet.sol:OuterSpaceFleetsFacet",
            "label": "travelingUpkeep",
            "offset": 9,
            "slot": "1",
            "type": "t_int40"
          },
          {
            "astId": 25019,
            "contract": "src/outerspace/facets/OuterSpaceFleetsFacet.sol:OuterSpaceFleetsFacet",
            "label": "overflow",
            "offset": 14,
            "slot": "1",
            "type": "t_uint32"
          }
        ],
        "numberOfBytes": "64"
      },
      "t_uint16": {
        "encoding": "inplace",
        "label": "uint16",
        "numberOfBytes": "2"
      },
      "t_uint24": {
        "encoding": "inplace",
        "label": "uint24",
        "numberOfBytes": "3"
      },
      "t_uint256": {
        "encoding": "inplace",
        "label": "uint256",
        "numberOfBytes": "32"
      },
      "t_uint32": {
        "encoding": "inplace",
        "label": "uint32",
        "numberOfBytes": "4"
      },
      "t_uint40": {
        "encoding": "inplace",
        "label": "uint40",
        "numberOfBytes": "5"
      }
    }
  }
}