{
  "address": "0x48f736b8d6B910E020f1c4F52fdfAB462A46E772",
  "abi": [
    {
      "inputs": [
        {
          "internalType": "uint256",
          "name": "_numTokensPerNativeTokenAt18Decimals",
          "type": "uint256"
        }
      ],
      "stateMutability": "nonpayable",
      "type": "constructor"
    },
    {
      "anonymous": false,
      "inputs": [
        {
          "indexed": true,
          "internalType": "address",
          "name": "owner",
          "type": "address"
        },
        {
          "indexed": true,
          "internalType": "address",
          "name": "spender",
          "type": "address"
        },
        {
          "indexed": false,
          "internalType": "uint256",
          "name": "value",
          "type": "uint256"
        }
      ],
      "name": "Approval",
      "type": "event"
    },
    {
      "anonymous": false,
      "inputs": [
        {
          "indexed": true,
          "internalType": "address",
          "name": "from",
          "type": "address"
        },
        {
          "indexed": true,
          "internalType": "address",
          "name": "to",
          "type": "address"
        },
        {
          "indexed": false,
          "internalType": "uint256",
          "name": "value",
          "type": "uint256"
        }
      ],
      "name": "Transfer",
      "type": "event"
    },
    {
      "inputs": [],
      "name": "DOMAIN_SEPARATOR",
      "outputs": [
        {
          "internalType": "bytes32",
          "name": "",
          "type": "bytes32"
        }
      ],
      "stateMutability": "view",
      "type": "function"
    },
    {
      "inputs": [
        {
          "internalType": "address",
          "name": "owner",
          "type": "address"
        },
        {
          "internalType": "address",
          "name": "spender",
          "type": "address"
        }
      ],
      "name": "allowance",
      "outputs": [
        {
          "internalType": "uint256",
          "name": "",
          "type": "uint256"
        }
      ],
      "stateMutability": "view",
      "type": "function"
    },
    {
      "inputs": [
        {
          "internalType": "address",
          "name": "spender",
          "type": "address"
        },
        {
          "internalType": "uint256",
          "name": "amount",
          "type": "uint256"
        }
      ],
      "name": "approve",
      "outputs": [
        {
          "internalType": "bool",
          "name": "",
          "type": "bool"
        }
      ],
      "stateMutability": "nonpayable",
      "type": "function"
    },
    {
      "inputs": [
        {
          "internalType": "address",
          "name": "spender",
          "type": "address"
        },
        {
          "internalType": "uint256",
          "name": "amount",
          "type": "uint256"
        },
        {
          "internalType": "bytes",
          "name": "data",
          "type": "bytes"
        }
      ],
      "name": "approveAndCall",
      "outputs": [
        {
          "internalType": "bool",
          "name": "",
          "type": "bool"
        }
      ],
      "stateMutability": "nonpayable",
      "type": "function"
    },
    {
      "inputs": [
        {
          "internalType": "address",
          "name": "owner",
          "type": "address"
        }
      ],
      "name": "balanceOf",
      "outputs": [
        {
          "internalType": "uint256",
          "name": "",
          "type": "uint256"
        }
      ],
      "stateMutability": "view",
      "type": "function"
    },
    {
      "inputs": [
        {
          "internalType": "address payable",
          "name": "to",
          "type": "address"
        },
        {
          "internalType": "uint256",
          "name": "amount",
          "type": "uint256"
        }
      ],
      "name": "burn",
      "outputs": [],
      "stateMutability": "nonpayable",
      "type": "function"
    },
    {
      "inputs": [],
      "name": "decimals",
      "outputs": [
        {
          "internalType": "uint8",
          "name": "",
          "type": "uint8"
        }
      ],
      "stateMutability": "pure",
      "type": "function"
    },
    {
      "inputs": [
        {
          "internalType": "address payable[]",
          "name": "tos",
          "type": "address[]"
        },
        {
          "internalType": "uint256",
          "name": "totalAmount",
          "type": "uint256"
        }
      ],
      "name": "distributeAlongWithETH",
      "outputs": [
        {
          "internalType": "bool",
          "name": "",
          "type": "bool"
        }
      ],
      "stateMutability": "payable",
      "type": "function"
    },
    {
      "inputs": [
        {
          "internalType": "address payable[]",
          "name": "tos",
          "type": "address[]"
        },
        {
          "internalType": "uint256[]",
          "name": "amounts",
          "type": "uint256[]"
        }
      ],
      "name": "distributeVariousAmountsAlongWithETH",
      "outputs": [
        {
          "internalType": "bool",
          "name": "",
          "type": "bool"
        }
      ],
      "stateMutability": "payable",
      "type": "function"
    },
    {
      "inputs": [
        {
          "internalType": "address payable[]",
          "name": "tos",
          "type": "address[]"
        },
        {
          "internalType": "uint256[]",
          "name": "tokenAmounts",
          "type": "uint256[]"
        },
        {
          "internalType": "uint256[]",
          "name": "etherAmounts",
          "type": "uint256[]"
        }
      ],
      "name": "distributeVariousAmountsOfTokenAndETH",
      "outputs": [
        {
          "internalType": "bool",
          "name": "",
          "type": "bool"
        }
      ],
      "stateMutability": "payable",
      "type": "function"
    },
    {
      "inputs": [
        {
          "internalType": "address",
          "name": "to",
          "type": "address"
        },
        {
          "internalType": "uint256",
          "name": "amount",
          "type": "uint256"
        }
      ],
      "name": "mint",
      "outputs": [],
      "stateMutability": "payable",
      "type": "function"
    },
    {
      "inputs": [],
      "name": "name",
      "outputs": [
        {
          "internalType": "string",
          "name": "",
          "type": "string"
        }
      ],
      "stateMutability": "pure",
      "type": "function"
    },
    {
      "inputs": [
        {
          "internalType": "address",
          "name": "owner",
          "type": "address"
        }
      ],
      "name": "nonces",
      "outputs": [
        {
          "internalType": "uint256",
          "name": "",
          "type": "uint256"
        }
      ],
      "stateMutability": "view",
      "type": "function"
    },
    {
      "inputs": [],
      "name": "numTokensPerNativeTokenAt18Decimals",
      "outputs": [
        {
          "internalType": "uint256",
          "name": "",
          "type": "uint256"
        }
      ],
      "stateMutability": "view",
      "type": "function"
    },
    {
      "inputs": [
        {
          "internalType": "address",
          "name": "forAddress",
          "type": "address"
        },
        {
          "internalType": "address",
          "name": "to",
          "type": "address"
        },
        {
          "internalType": "uint256",
          "name": "amount",
          "type": "uint256"
        },
        {
          "internalType": "bytes",
          "name": "data",
          "type": "bytes"
        }
      ],
      "name": "payForAndCall",
      "outputs": [
        {
          "internalType": "bool",
          "name": "",
          "type": "bool"
        }
      ],
      "stateMutability": "nonpayable",
      "type": "function"
    },
    {
      "inputs": [
        {
          "internalType": "address",
          "name": "owner",
          "type": "address"
        },
        {
          "internalType": "address",
          "name": "spender",
          "type": "address"
        },
        {
          "internalType": "uint256",
          "name": "value",
          "type": "uint256"
        },
        {
          "internalType": "uint256",
          "name": "deadline",
          "type": "uint256"
        },
        {
          "internalType": "uint8",
          "name": "v",
          "type": "uint8"
        },
        {
          "internalType": "bytes32",
          "name": "r",
          "type": "bytes32"
        },
        {
          "internalType": "bytes32",
          "name": "s",
          "type": "bytes32"
        }
      ],
      "name": "permit",
      "outputs": [],
      "stateMutability": "nonpayable",
      "type": "function"
    },
    {
      "inputs": [
        {
          "internalType": "uint256",
          "name": "",
          "type": "uint256"
        }
      ],
      "name": "postUpgrade",
      "outputs": [],
      "stateMutability": "nonpayable",
      "type": "function"
    },
    {
      "inputs": [],
      "name": "symbol",
      "outputs": [
        {
          "internalType": "string",
          "name": "",
          "type": "string"
        }
      ],
      "stateMutability": "view",
      "type": "function"
    },
    {
      "inputs": [],
      "name": "totalSupply",
      "outputs": [
        {
          "internalType": "uint256",
          "name": "",
          "type": "uint256"
        }
      ],
      "stateMutability": "view",
      "type": "function"
    },
    {
      "inputs": [
        {
          "internalType": "address",
          "name": "to",
          "type": "address"
        },
        {
          "internalType": "uint256",
          "name": "amount",
          "type": "uint256"
        }
      ],
      "name": "transfer",
      "outputs": [
        {
          "internalType": "bool",
          "name": "",
          "type": "bool"
        }
      ],
      "stateMutability": "nonpayable",
      "type": "function"
    },
    {
      "inputs": [
        {
          "internalType": "address payable",
          "name": "to",
          "type": "address"
        },
        {
          "internalType": "uint256",
          "name": "amount",
          "type": "uint256"
        }
      ],
      "name": "transferAlongWithETH",
      "outputs": [
        {
          "internalType": "bool",
          "name": "",
          "type": "bool"
        }
      ],
      "stateMutability": "payable",
      "type": "function"
    },
    {
      "inputs": [
        {
          "internalType": "address",
          "name": "to",
          "type": "address"
        },
        {
          "internalType": "uint256",
          "name": "amount",
          "type": "uint256"
        },
        {
          "internalType": "bytes",
          "name": "data",
          "type": "bytes"
        }
      ],
      "name": "transferAndCall",
      "outputs": [
        {
          "internalType": "bool",
          "name": "",
          "type": "bool"
        }
      ],
      "stateMutability": "nonpayable",
      "type": "function"
    },
    {
      "inputs": [
        {
          "internalType": "address",
          "name": "from",
          "type": "address"
        },
        {
          "internalType": "address",
          "name": "to",
          "type": "address"
        },
        {
          "internalType": "uint256",
          "name": "amount",
          "type": "uint256"
        }
      ],
      "name": "transferFrom",
      "outputs": [
        {
          "internalType": "bool",
          "name": "",
          "type": "bool"
        }
      ],
      "stateMutability": "nonpayable",
      "type": "function"
    },
    {
      "inputs": [
        {
          "internalType": "address",
          "name": "from",
          "type": "address"
        },
        {
          "internalType": "address",
          "name": "to",
          "type": "address"
        },
        {
          "internalType": "uint256",
          "name": "amount",
          "type": "uint256"
        },
        {
          "internalType": "bytes",
          "name": "data",
          "type": "bytes"
        }
      ],
      "name": "transferFromAndCall",
      "outputs": [
        {
          "internalType": "bool",
          "name": "",
          "type": "bool"
        }
      ],
      "stateMutability": "nonpayable",
      "type": "function"
    }
  ],
  "transactionHash": "0x8cdcc44c57176241208511fbe3023a6a0f6f4a71a90c6c4a6a3e5fef3aff8b08",
  "args": [
    "1000000000000000000"
  ],
  "numDeployments": 1,
  "linkedData": {
    "numTokensPerNativeTokenAt18Decimals": "1000000000000000000"
  },
  "solcInputHash": "02da93cf1935fb9370486130b817da02",
  "bytecode": "0x60c06040523480156200001157600080fd5b50604051620022ef380380620022ef833981016040819052620000349162000152565b6040805180820190915260018152603160f81b60208201527f91ab3d17e3a50a9d89e63fd30b92be7f5336b03b287bb946787a83a9d62a27666200008f604080518082019091526004815263506c617960e01b602082015290565b8051602091820120835184830120604080519384019490945292820152606081019190915230608082015260a00160408051601f1981840301815291905280516020909101206080525060a0819052620000e981620000f0565b506200016c565b60006200010a600080516020620022cf8339815191525490565b90506001600160a01b03811662000138576001600160a01b03600080516020620022cf833981519152555050565b336001600160a01b038216146200014e57600080fd5b5050565b6000602082840312156200016557600080fd5b5051919050565b60805160a051612128620001a760003960008181610410015281816107f601526109830152600081816102980152610bf201526121286000f3fe60806040526004361061018b5760003560e01c806395d89b41116100d6578063d505accf1161007f578063df752eed11610059578063df752eed146104f2578063e7fcb06514610505578063fc72b9761461051857600080fd5b8063d505accf14610492578063dbceb175146104b2578063dd62ed3e146104d257600080fd5b8063a9059cbb116100b0578063a9059cbb14610432578063c1d34b8914610452578063cae9ca511461047257600080fd5b806395d89b41146103955780639dc29fac146103de578063a835106e146103fe57600080fd5b80633644e5151161013857806363d994c71161011257806363d994c7146102ef57806370a082311461030f5780637ecebe001461035257600080fd5b80633644e515146102865780634000aea0146102ba57806340c10f19146102da57600080fd5b806318160ddd1161016957806318160ddd1461022b57806323b872dd1461024a578063313ce5671461026a57600080fd5b806306fdde0314610190578063095ea7b3146101e85780630e02df5414610218575b600080fd5b34801561019c57600080fd5b5060408051808201909152600481527f506c61790000000000000000000000000000000000000000000000000000000060208201525b6040516101df9190611a33565b60405180910390f35b3480156101f457600080fd5b50610208610203366004611acb565b61052b565b60405190151581526020016101df565b610208610226366004611b43565b610542565b34801561023757600080fd5b506000545b6040519081526020016101df565b34801561025657600080fd5b50610208610265366004611b8f565b610710565b34801561027657600080fd5b50604051601281526020016101df565b34801561029257600080fd5b5061023c7f000000000000000000000000000000000000000000000000000000000000000081565b3480156102c657600080fd5b506102086102d5366004611c12565b610727565b6102ed6102e8366004611acb565b6107e7565b005b3480156102fb57600080fd5b5061020861030a366004611c6e565b61089a565b34801561031b57600080fd5b5061023c61032a366004611ce1565b73ffffffffffffffffffffffffffffffffffffffff1660009081526001602052604090205490565b34801561035e57600080fd5b5061023c61036d366004611ce1565b73ffffffffffffffffffffffffffffffffffffffff1660009081526003602052604090205490565b3480156103a157600080fd5b506101d26040518060400160405280600481526020017f504c41590000000000000000000000000000000000000000000000000000000081525081565b3480156103ea57600080fd5b506102ed6103f9366004611acb565b61095d565b34801561040a57600080fd5b5061023c7f000000000000000000000000000000000000000000000000000000000000000081565b34801561043e57600080fd5b5061020861044d366004611acb565b6109eb565b34801561045e57600080fd5b5061020861046d366004611c6e565b6109f8565b34801561047e57600080fd5b5061020861048d366004611c12565b610a5d565b34801561049e57600080fd5b506102ed6104ad366004611d05565b610ac0565b3480156104be57600080fd5b506102ed6104cd366004611d7c565b610e00565b3480156104de57600080fd5b5061023c6104ed366004611d95565b610ea4565b610208610500366004611dce565b610f24565b610208610513366004611acb565b6110e1565b610208610526366004611e2e565b611130565b60006105383384846113c3565b5060015b92915050565b60008061054f8434611ef7565b905061055b8482611f32565b34146105c8576040517f08c379a000000000000000000000000000000000000000000000000000000000815260206004820152601160248201527f494e56414c49445f4d53475f56414c554500000000000000000000000000000060448201526064015b60405180910390fd5b60006105d48585611ef7565b90506105e08582611f32565b8414610648576040517f08c379a000000000000000000000000000000000000000000000000000000000815260206004820152601460248201527f494e56414c49445f544f54414c5f414d4f554e5400000000000000000000000060448201526064016105bf565b60005b85811015610703576106843388888481811061066957610669611f6f565b905060200201602081019061067e9190611ce1565b846114d2565b86868281811061069657610696611f6f565b90506020020160208101906106ab9190611ce1565b73ffffffffffffffffffffffffffffffffffffffff166108fc849081150290604051600060405180830381858888f193505050501580156106f0573d6000803e3d6000fd5b50806106fb81611f9e565b91505061064b565b5060019695505050505050565b600061071d848484611720565b5060019392505050565b60006107343386866114d2565b6040517fa4c0ed3600000000000000000000000000000000000000000000000000000000815273ffffffffffffffffffffffffffffffffffffffff86169063a4c0ed369061078c903390889088908890600401612020565b602060405180830381600087803b1580156107a657600080fd5b505af11580156107ba573d6000803e3d6000fd5b505050506040513d601f19601f820116820180604052508101906107de9190612056565b95945050505050565b80670de0b6b3a764000061081b7f000000000000000000000000000000000000000000000000000000000000000034611f32565b6108259190611ef7565b1461088c576040517f08c379a000000000000000000000000000000000000000000000000000000000815260206004820152600e60248201527f494e56414c49445f414d4f554e5400000000000000000000000000000000000060448201526064016105bf565b610896828261186c565b5050565b60006108a73386866114d2565b6040517f9b6be06500000000000000000000000000000000000000000000000000000000815273ffffffffffffffffffffffffffffffffffffffff861690639b6be065906109019033908a90899089908990600401612078565b602060405180830381600087803b15801561091b57600080fd5b505af115801561092f573d6000803e3d6000fd5b505050506040513d601f19601f820116820180604052508101906109539190612056565b9695505050505050565b610967338261190e565b73ffffffffffffffffffffffffffffffffffffffff82166108fc7f00000000000000000000000000000000000000000000000000000000000000006109b4670de0b6b3a764000085611f32565b6109be9190611ef7565b6040518115909202916000818181858888f193505050501580156109e6573d6000803e3d6000fd5b505050565b60006105383384846114d2565b6000610a05868686611720565b6040517fa4c0ed3600000000000000000000000000000000000000000000000000000000815273ffffffffffffffffffffffffffffffffffffffff86169063a4c0ed3690610901908990889088908890600401612020565b6000610a6a3386866113c3565b6040517eba451f00000000000000000000000000000000000000000000000000000000815273ffffffffffffffffffffffffffffffffffffffff86169062ba451f9061078c903390889088908890600401612020565b73ffffffffffffffffffffffffffffffffffffffff8716610b3d576040517f08c379a000000000000000000000000000000000000000000000000000000000815260206004820152601460248201527f494e56414c49445f5a45524f5f4144445245535300000000000000000000000060448201526064016105bf565b73ffffffffffffffffffffffffffffffffffffffff87811660008181526003602090815260408083205481517f6e71edae12b1b97f4d1f60370fef10105fa2faae0126114a169c64845d6126c98185015280830195909552948b166060850152608084018a905260a0840185905260c08085018a90528151808603909101815260e0850190915280519101207f19010000000000000000000000000000000000000000000000000000000000006101008401527f00000000000000000000000000000000000000000000000000000000000000006101028401526101228301529061014201604080517fffffffffffffffffffffffffffffffffffffffffffffffffffffffffffffffe081840301815282825280516020918201206000845290830180835281905260ff8816918301919091526060820186905260808201859052915060019060a0016020604051602081039080840390855afa158015610ca8573d6000803e3d6000fd5b5050506020604051035173ffffffffffffffffffffffffffffffffffffffff168973ffffffffffffffffffffffffffffffffffffffff1614610d46576040517f08c379a000000000000000000000000000000000000000000000000000000000815260206004820152601160248201527f494e56414c49445f5349474e415455524500000000000000000000000000000060448201526064016105bf565b851580610d535750854211155b610db9576040517f08c379a000000000000000000000000000000000000000000000000000000000815260206004820152600860248201527f544f4f5f4c41544500000000000000000000000000000000000000000000000060448201526064016105bf565b610dc48260016120c3565b73ffffffffffffffffffffffffffffffffffffffff8a16600090815260036020526040902055610df58989896113c3565b505050505050505050565b6000610e2a7fb53127684a568b3173ae13b9f8a6016e243e63b6e8ee1178d6a717850b5d61035490565b905073ffffffffffffffffffffffffffffffffffffffff8116610e825773ffffffffffffffffffffffffffffffffffffffff7fb53127684a568b3173ae13b9f8a6016e243e63b6e8ee1178d6a717850b5d6103555050565b3373ffffffffffffffffffffffffffffffffffffffff82161461089657600080fd5b600073ffffffffffffffffffffffffffffffffffffffff8316301415610eeb57507fffffffffffffffffffffffffffffffffffffffffffffffffffffffffffffffff61053c565b5073ffffffffffffffffffffffffffffffffffffffff918216600090815260026020908152604080832093909416825291909152205490565b600080610f318534611ef7565b9050610f3d8582611f32565b3414610fa5576040517f08c379a000000000000000000000000000000000000000000000000000000000815260206004820152601160248201527f494e56414c49445f4d53475f56414c554500000000000000000000000000000060448201526064016105bf565b84831461100e576040517f08c379a000000000000000000000000000000000000000000000000000000000815260206004820152600f60248201527f4e4f545f53414d455f4c454e475448000000000000000000000000000000000060448201526064016105bf565b60005b85811015610703576110623388888481811061102f5761102f611f6f565b90506020020160208101906110449190611ce1565b87878581811061105657611056611f6f565b905060200201356114d2565b86868281811061107457611074611f6f565b90506020020160208101906110899190611ce1565b73ffffffffffffffffffffffffffffffffffffffff166108fc839081150290604051600060405180830381858888f193505050501580156110ce573d6000803e3d6000fd5b50806110d981611f9e565b915050611011565b60006110ee3384846114d2565b60405173ffffffffffffffffffffffffffffffffffffffff8416903480156108fc02916000818181858888f1935050505015801561071d573d6000803e3d6000fd5b60008086851461119c576040517f08c379a000000000000000000000000000000000000000000000000000000000815260206004820152601560248201527f544f4b454e5f4e4f545f53414d455f4c454e475448000000000000000000000060448201526064016105bf565b868314611205576040517f08c379a000000000000000000000000000000000000000000000000000000000815260206004820152601360248201527f4554485f4e4f545f53414d455f4c454e4754480000000000000000000000000060448201526064016105bf565b60005b8781101561134b5786868281811061122257611222611f6f565b9050602002013560001461126d5761126d338a8a8481811061124657611246611f6f565b905060200201602081019061125b9190611ce1565b89898581811061105657611056611f6f565b84848281811061127f5761127f611f6f565b905060200201356000146113395788888281811061129f5761129f611f6f565b90506020020160208101906112b49190611ce1565b73ffffffffffffffffffffffffffffffffffffffff166108fc8686848181106112df576112df611f6f565b905060200201359081150290604051600060405180830381858888f19350505050158015611311573d6000803e3d6000fd5b5084848281811061132457611324611f6f565b905060200201358261133691906120c3565b91505b8061134381611f9e565b915050611208565b508034146113b5576040517f08c379a000000000000000000000000000000000000000000000000000000000815260206004820152601160248201527f494e56414c49445f4d53475f56414c554500000000000000000000000000000060448201526064016105bf565b506001979650505050505050565b73ffffffffffffffffffffffffffffffffffffffff8316158015906113fd575073ffffffffffffffffffffffffffffffffffffffff821615155b611463576040517f08c379a000000000000000000000000000000000000000000000000000000000815260206004820152601460248201527f494e56414c49445f5a45524f5f4144445245535300000000000000000000000060448201526064016105bf565b73ffffffffffffffffffffffffffffffffffffffff83811660008181526002602090815260408083209487168084529482529182902085905590518481527f8c5be1e5ebec7d5bd14f71427d1e84f3dd0314c0f7b2291e5b200ac8c7c3b92591015b60405180910390a3505050565b73ffffffffffffffffffffffffffffffffffffffff821661154f576040517f08c379a000000000000000000000000000000000000000000000000000000000815260206004820152601460248201527f494e56414c49445f5a45524f5f4144445245535300000000000000000000000060448201526064016105bf565b73ffffffffffffffffffffffffffffffffffffffff82163014156115cf576040517f08c379a000000000000000000000000000000000000000000000000000000000815260206004820152601460248201527f494e56414c49445f544849535f4144445245535300000000000000000000000060448201526064016105bf565b73ffffffffffffffffffffffffffffffffffffffff83166000908152600160205260409020548181101561165f576040517f08c379a000000000000000000000000000000000000000000000000000000000815260206004820152601160248201527f4e4f545f454e4f5547485f544f4b454e5300000000000000000000000000000060448201526064016105bf565b61166982826120db565b73ffffffffffffffffffffffffffffffffffffffff80861660009081526001602052604080822093909355908516815290812080548492906116ac9084906120c3565b925050819055508273ffffffffffffffffffffffffffffffffffffffff168473ffffffffffffffffffffffffffffffffffffffff167fddf252ad1be2c89b69c2b068fc378daa952ba7f163c4a11628f55a4df523b3ef8460405161171291815260200190565b60405180910390a350505050565b3373ffffffffffffffffffffffffffffffffffffffff84161480159061175c575073ffffffffffffffffffffffffffffffffffffffff83163014155b156118615773ffffffffffffffffffffffffffffffffffffffff831660009081526002602090815260408083203384529091529020547fffffffffffffffffffffffffffffffffffffffffffffffffffffffffffffffff811461185f5781811015611823576040517f08c379a000000000000000000000000000000000000000000000000000000000815260206004820152601760248201527f4e4f545f415554484f495a45445f414c4c4f57414e434500000000000000000060448201526064016105bf565b61182d82826120db565b73ffffffffffffffffffffffffffffffffffffffff851660009081526002602090815260408083203384529091529020555b505b6109e68383836114d2565b8060008082825461187d91906120c3565b909155505073ffffffffffffffffffffffffffffffffffffffff8216600090815260016020526040812080548392906118b79084906120c3565b909155505060405181815273ffffffffffffffffffffffffffffffffffffffff8316906000907fddf252ad1be2c89b69c2b068fc378daa952ba7f163c4a11628f55a4df523b3ef9060200160405180910390a35050565b73ffffffffffffffffffffffffffffffffffffffff82166000908152600160205260409020548181101561199e576040517f08c379a000000000000000000000000000000000000000000000000000000000815260206004820152601160248201527f4e4f545f454e4f5547485f544f4b454e5300000000000000000000000000000060448201526064016105bf565b6119a882826120db565b73ffffffffffffffffffffffffffffffffffffffff8416600090815260016020526040812091909155805483919081906119e39084906120db565b909155505060405182815260009073ffffffffffffffffffffffffffffffffffffffff8516907fddf252ad1be2c89b69c2b068fc378daa952ba7f163c4a11628f55a4df523b3ef906020016114c5565b600060208083528351808285015260005b81811015611a6057858101830151858201604001528201611a44565b81811115611a72576000604083870101525b50601f017fffffffffffffffffffffffffffffffffffffffffffffffffffffffffffffffe016929092016040019392505050565b73ffffffffffffffffffffffffffffffffffffffff81168114611ac857600080fd5b50565b60008060408385031215611ade57600080fd5b8235611ae981611aa6565b946020939093013593505050565b60008083601f840112611b0957600080fd5b50813567ffffffffffffffff811115611b2157600080fd5b6020830191508360208260051b8501011115611b3c57600080fd5b9250929050565b600080600060408486031215611b5857600080fd5b833567ffffffffffffffff811115611b6f57600080fd5b611b7b86828701611af7565b909790965060209590950135949350505050565b600080600060608486031215611ba457600080fd5b8335611baf81611aa6565b92506020840135611bbf81611aa6565b929592945050506040919091013590565b60008083601f840112611be257600080fd5b50813567ffffffffffffffff811115611bfa57600080fd5b602083019150836020828501011115611b3c57600080fd5b60008060008060608587031215611c2857600080fd5b8435611c3381611aa6565b935060208501359250604085013567ffffffffffffffff811115611c5657600080fd5b611c6287828801611bd0565b95989497509550505050565b600080600080600060808688031215611c8657600080fd5b8535611c9181611aa6565b94506020860135611ca181611aa6565b935060408601359250606086013567ffffffffffffffff811115611cc457600080fd5b611cd088828901611bd0565b969995985093965092949392505050565b600060208284031215611cf357600080fd5b8135611cfe81611aa6565b9392505050565b600080600080600080600060e0888a031215611d2057600080fd5b8735611d2b81611aa6565b96506020880135611d3b81611aa6565b95506040880135945060608801359350608088013560ff81168114611d5f57600080fd5b9699959850939692959460a0840135945060c09093013592915050565b600060208284031215611d8e57600080fd5b5035919050565b60008060408385031215611da857600080fd5b8235611db381611aa6565b91506020830135611dc381611aa6565b809150509250929050565b60008060008060408587031215611de457600080fd5b843567ffffffffffffffff80821115611dfc57600080fd5b611e0888838901611af7565b90965094506020870135915080821115611e2157600080fd5b50611c6287828801611af7565b60008060008060008060608789031215611e4757600080fd5b863567ffffffffffffffff80821115611e5f57600080fd5b611e6b8a838b01611af7565b90985096506020890135915080821115611e8457600080fd5b611e908a838b01611af7565b90965094506040890135915080821115611ea957600080fd5b50611eb689828a01611af7565b979a9699509497509295939492505050565b7f4e487b7100000000000000000000000000000000000000000000000000000000600052601160045260246000fd5b600082611f2d577f4e487b7100000000000000000000000000000000000000000000000000000000600052601260045260246000fd5b500490565b6000817fffffffffffffffffffffffffffffffffffffffffffffffffffffffffffffffff0483118215151615611f6a57611f6a611ec8565b500290565b7f4e487b7100000000000000000000000000000000000000000000000000000000600052603260045260246000fd5b60007fffffffffffffffffffffffffffffffffffffffffffffffffffffffffffffffff821415611fd057611fd0611ec8565b5060010190565b8183528181602085013750600060208284010152600060207fffffffffffffffffffffffffffffffffffffffffffffffffffffffffffffffe0601f840116840101905092915050565b73ffffffffffffffffffffffffffffffffffffffff85168152836020820152606060408201526000610953606083018486611fd7565b60006020828403121561206857600080fd5b81518015158114611cfe57600080fd5b600073ffffffffffffffffffffffffffffffffffffffff8088168352808716602084015250846040830152608060608301526120b8608083018486611fd7565b979650505050505050565b600082198211156120d6576120d6611ec8565b500190565b6000828210156120ed576120ed611ec8565b50039056fea26469706673582212209506515977d466e3c4e3792b2b623c3c34b8ec55f7ce63966a9770d39101cf0164736f6c63430008090033b53127684a568b3173ae13b9f8a6016e243e63b6e8ee1178d6a717850b5d6103",
  "devdoc": {
    "kind": "dev",
    "methods": {
      "allowance(address,address)": {
        "details": "Returns the remaining number of tokens that `spender` will be allowed to spend on behalf of `owner` through {transferFrom}. This is zero by default. This value changes when {approve} or {transferFrom} are called."
      },
      "approve(address,uint256)": {
        "details": "Sets `amount` as the allowance of `spender` over the caller's tokens. Returns a boolean value indicating whether the operation succeeded. IMPORTANT: Beware that changing an allowance with this method brings the risk that someone may use both the old and the new allowance by unfortunate transaction ordering. One possible solution to mitigate this race condition is to first reduce the spender's allowance to 0 and set the desired value afterwards: https://github.com/ethereum/EIPs/issues/20#issuecomment-263524729 Emits an {Approval} event."
      },
      "totalSupply()": {
        "details": "Returns the amount of tokens in existence."
      }
    },
    "version": 1
  },
  "userdoc": {
    "kind": "user",
    "methods": {},
    "version": 1
  },
  "storageLayout": {
    "storage": [
      {
        "astId": 13176,
        "contract": "src/conquest_token/PlayToken.sol:PlayToken",
        "label": "_totalSupply",
        "offset": 0,
        "slot": "0",
        "type": "t_uint256"
      },
      {
        "astId": 13180,
        "contract": "src/conquest_token/PlayToken.sol:PlayToken",
        "label": "_balances",
        "offset": 0,
        "slot": "1",
        "type": "t_mapping(t_address,t_uint256)"
      },
      {
        "astId": 13186,
        "contract": "src/conquest_token/PlayToken.sol:PlayToken",
        "label": "_allowances",
        "offset": 0,
        "slot": "2",
        "type": "t_mapping(t_address,t_mapping(t_address,t_uint256))"
      },
      {
        "astId": 14142,
        "contract": "src/conquest_token/PlayToken.sol:PlayToken",
        "label": "_nonces",
        "offset": 0,
        "slot": "3",
        "type": "t_mapping(t_address,t_uint256)"
      }
    ],
    "types": {
      "t_address": {
        "encoding": "inplace",
        "label": "address",
        "numberOfBytes": "20"
      },
      "t_mapping(t_address,t_mapping(t_address,t_uint256))": {
        "encoding": "mapping",
        "key": "t_address",
        "label": "mapping(address => mapping(address => uint256))",
        "numberOfBytes": "32",
        "value": "t_mapping(t_address,t_uint256)"
      },
      "t_mapping(t_address,t_uint256)": {
        "encoding": "mapping",
        "key": "t_address",
        "label": "mapping(address => uint256)",
        "numberOfBytes": "32",
        "value": "t_uint256"
      },
      "t_uint256": {
        "encoding": "inplace",
        "label": "uint256",
        "numberOfBytes": "32"
      }
    }
  }
}