{
  "address": "0x976d4FB6ab79D5a066DC1c34b686ED373f46527c",
  "abi": [
    {
      "inputs": [
        {
          "internalType": "uint256",
          "name": "numTokensPerNativeTokenAt18Decimals",
          "type": "uint256"
        }
      ],
      "stateMutability": "nonpayable",
      "type": "constructor"
    },
    {
      "anonymous": false,
      "inputs": [
        {
          "indexed": true,
          "internalType": "address",
          "name": "owner",
          "type": "address"
        },
        {
          "indexed": true,
          "internalType": "address",
          "name": "spender",
          "type": "address"
        },
        {
          "indexed": false,
          "internalType": "uint256",
          "name": "value",
          "type": "uint256"
        }
      ],
      "name": "Approval",
      "type": "event"
    },
    {
      "anonymous": false,
      "inputs": [
        {
          "indexed": true,
          "internalType": "address",
          "name": "from",
          "type": "address"
        },
        {
          "indexed": true,
          "internalType": "address",
          "name": "to",
          "type": "address"
        },
        {
          "indexed": false,
          "internalType": "uint256",
          "name": "value",
          "type": "uint256"
        }
      ],
      "name": "Transfer",
      "type": "event"
    },
    {
      "inputs": [],
      "name": "DOMAIN_SEPARATOR",
      "outputs": [
        {
          "internalType": "bytes32",
          "name": "",
          "type": "bytes32"
        }
      ],
      "stateMutability": "view",
      "type": "function"
    },
    {
      "inputs": [
        {
          "internalType": "address",
          "name": "owner",
          "type": "address"
        },
        {
          "internalType": "address",
          "name": "spender",
          "type": "address"
        }
      ],
      "name": "allowance",
      "outputs": [
        {
          "internalType": "uint256",
          "name": "",
          "type": "uint256"
        }
      ],
      "stateMutability": "view",
      "type": "function"
    },
    {
      "inputs": [
        {
          "internalType": "address",
          "name": "spender",
          "type": "address"
        },
        {
          "internalType": "uint256",
          "name": "amount",
          "type": "uint256"
        }
      ],
      "name": "approve",
      "outputs": [
        {
          "internalType": "bool",
          "name": "",
          "type": "bool"
        }
      ],
      "stateMutability": "nonpayable",
      "type": "function"
    },
    {
      "inputs": [
        {
          "internalType": "address",
          "name": "spender",
          "type": "address"
        },
        {
          "internalType": "uint256",
          "name": "amount",
          "type": "uint256"
        },
        {
          "internalType": "bytes",
          "name": "data",
          "type": "bytes"
        }
      ],
      "name": "approveAndCall",
      "outputs": [
        {
          "internalType": "bool",
          "name": "",
          "type": "bool"
        }
      ],
      "stateMutability": "nonpayable",
      "type": "function"
    },
    {
      "inputs": [
        {
          "internalType": "address",
          "name": "owner",
          "type": "address"
        }
      ],
      "name": "balanceOf",
      "outputs": [
        {
          "internalType": "uint256",
          "name": "",
          "type": "uint256"
        }
      ],
      "stateMutability": "view",
      "type": "function"
    },
    {
      "inputs": [
        {
          "internalType": "address payable",
          "name": "to",
          "type": "address"
        },
        {
          "internalType": "uint256",
          "name": "amount",
          "type": "uint256"
        }
      ],
      "name": "burn",
      "outputs": [],
      "stateMutability": "nonpayable",
      "type": "function"
    },
    {
      "inputs": [],
      "name": "decimals",
      "outputs": [
        {
          "internalType": "uint8",
          "name": "",
          "type": "uint8"
        }
      ],
      "stateMutability": "pure",
      "type": "function"
    },
    {
      "inputs": [
        {
          "internalType": "address payable[]",
          "name": "tos",
          "type": "address[]"
        },
        {
          "internalType": "uint256",
          "name": "totalAmount",
          "type": "uint256"
        }
      ],
      "name": "distributeAlongWithETH",
      "outputs": [
        {
          "internalType": "bool",
          "name": "",
          "type": "bool"
        }
      ],
      "stateMutability": "payable",
      "type": "function"
    },
    {
      "inputs": [
        {
          "internalType": "address payable[]",
          "name": "tos",
          "type": "address[]"
        },
        {
          "internalType": "uint256[]",
          "name": "amounts",
          "type": "uint256[]"
        }
      ],
      "name": "distributeVariousAmountsAlongWithETH",
      "outputs": [
        {
          "internalType": "bool",
          "name": "",
          "type": "bool"
        }
      ],
      "stateMutability": "payable",
      "type": "function"
    },
    {
      "inputs": [
        {
          "internalType": "address payable[]",
          "name": "tos",
          "type": "address[]"
        },
        {
          "internalType": "uint256[]",
          "name": "tokenAmounts",
          "type": "uint256[]"
        },
        {
          "internalType": "uint256[]",
          "name": "etherAmounts",
          "type": "uint256[]"
        }
      ],
      "name": "distributeVariousAmountsOfTokenAndETH",
      "outputs": [
        {
          "internalType": "bool",
          "name": "",
          "type": "bool"
        }
      ],
      "stateMutability": "payable",
      "type": "function"
    },
    {
      "inputs": [
        {
          "internalType": "address",
          "name": "to",
          "type": "address"
        },
        {
          "internalType": "uint256",
          "name": "amount",
          "type": "uint256"
        }
      ],
      "name": "mint",
      "outputs": [],
      "stateMutability": "payable",
      "type": "function"
    },
    {
      "inputs": [],
      "name": "name",
      "outputs": [
        {
          "internalType": "string",
          "name": "",
          "type": "string"
        }
      ],
      "stateMutability": "pure",
      "type": "function"
    },
    {
      "inputs": [
        {
          "internalType": "address",
          "name": "owner",
          "type": "address"
        }
      ],
      "name": "nonces",
      "outputs": [
        {
          "internalType": "uint256",
          "name": "",
          "type": "uint256"
        }
      ],
      "stateMutability": "view",
      "type": "function"
    },
    {
      "inputs": [
        {
          "internalType": "address",
          "name": "forAddress",
          "type": "address"
        },
        {
          "internalType": "address",
          "name": "to",
          "type": "address"
        },
        {
          "internalType": "uint256",
          "name": "amount",
          "type": "uint256"
        },
        {
          "internalType": "bytes",
          "name": "data",
          "type": "bytes"
        }
      ],
      "name": "payForAndCall",
      "outputs": [
        {
          "internalType": "bool",
          "name": "",
          "type": "bool"
        }
      ],
      "stateMutability": "nonpayable",
      "type": "function"
    },
    {
      "inputs": [
        {
          "internalType": "address",
          "name": "owner",
          "type": "address"
        },
        {
          "internalType": "address",
          "name": "spender",
          "type": "address"
        },
        {
          "internalType": "uint256",
          "name": "value",
          "type": "uint256"
        },
        {
          "internalType": "uint256",
          "name": "deadline",
          "type": "uint256"
        },
        {
          "internalType": "uint8",
          "name": "v",
          "type": "uint8"
        },
        {
          "internalType": "bytes32",
          "name": "r",
          "type": "bytes32"
        },
        {
          "internalType": "bytes32",
          "name": "s",
          "type": "bytes32"
        }
      ],
      "name": "permit",
      "outputs": [],
      "stateMutability": "nonpayable",
      "type": "function"
    },
    {
      "inputs": [
        {
          "internalType": "uint256",
          "name": "",
          "type": "uint256"
        }
      ],
      "name": "postUpgrade",
      "outputs": [],
      "stateMutability": "nonpayable",
      "type": "function"
    },
    {
      "inputs": [],
      "name": "symbol",
      "outputs": [
        {
          "internalType": "string",
          "name": "",
          "type": "string"
        }
      ],
      "stateMutability": "view",
      "type": "function"
    },
    {
      "inputs": [],
      "name": "totalSupply",
      "outputs": [
        {
          "internalType": "uint256",
          "name": "",
          "type": "uint256"
        }
      ],
      "stateMutability": "view",
      "type": "function"
    },
    {
      "inputs": [
        {
          "internalType": "address",
          "name": "to",
          "type": "address"
        },
        {
          "internalType": "uint256",
          "name": "amount",
          "type": "uint256"
        }
      ],
      "name": "transfer",
      "outputs": [
        {
          "internalType": "bool",
          "name": "",
          "type": "bool"
        }
      ],
      "stateMutability": "nonpayable",
      "type": "function"
    },
    {
      "inputs": [
        {
          "internalType": "address payable",
          "name": "to",
          "type": "address"
        },
        {
          "internalType": "uint256",
          "name": "amount",
          "type": "uint256"
        }
      ],
      "name": "transferAlongWithETH",
      "outputs": [
        {
          "internalType": "bool",
          "name": "",
          "type": "bool"
        }
      ],
      "stateMutability": "payable",
      "type": "function"
    },
    {
      "inputs": [
        {
          "internalType": "address",
          "name": "to",
          "type": "address"
        },
        {
          "internalType": "uint256",
          "name": "amount",
          "type": "uint256"
        },
        {
          "internalType": "bytes",
          "name": "data",
          "type": "bytes"
        }
      ],
      "name": "transferAndCall",
      "outputs": [
        {
          "internalType": "bool",
          "name": "",
          "type": "bool"
        }
      ],
      "stateMutability": "nonpayable",
      "type": "function"
    },
    {
      "inputs": [
        {
          "internalType": "address",
          "name": "from",
          "type": "address"
        },
        {
          "internalType": "address",
          "name": "to",
          "type": "address"
        },
        {
          "internalType": "uint256",
          "name": "amount",
          "type": "uint256"
        }
      ],
      "name": "transferFrom",
      "outputs": [
        {
          "internalType": "bool",
          "name": "",
          "type": "bool"
        }
      ],
      "stateMutability": "nonpayable",
      "type": "function"
    },
    {
      "inputs": [
        {
          "internalType": "address",
          "name": "from",
          "type": "address"
        },
        {
          "internalType": "address",
          "name": "to",
          "type": "address"
        },
        {
          "internalType": "uint256",
          "name": "amount",
          "type": "uint256"
        },
        {
          "internalType": "bytes",
          "name": "data",
          "type": "bytes"
        }
      ],
      "name": "transferFromAndCall",
      "outputs": [
        {
          "internalType": "bool",
          "name": "",
          "type": "bool"
        }
      ],
      "stateMutability": "nonpayable",
      "type": "function"
    }
  ],
  "transactionHash": "0x81f4f064c60044f7dcbb8a098ecb8ef91705b2631d72c7587cec10e7dde9da4a",
  "args": [
    "1000000000000000000000"
  ],
  "numDeployments": 1,
  "linkedData": {
    "numTokensPerNativeTokenAt18Decimals": "1000000000000000000000"
  },
  "solcInputHash": "3e75b841af13c8b026e14dbefdd6e959",
  "bytecode": "0x60c06040523480156200001157600080fd5b50604051620022a9380380620022a9833981016040819052620000349162000152565b6040805180820190915260018152603160f81b60208201527f91ab3d17e3a50a9d89e63fd30b92be7f5336b03b287bb946787a83a9d62a27666200008f604080518082019091526004815263506c617960e01b602082015290565b8051602091820120835184830120604080519384019490945292820152606081019190915230608082015260a00160408051601f1981840301815291905280516020909101206080525060a0819052620000e981620000f0565b506200016c565b60006200010a600080516020620022898339815191525490565b90506001600160a01b03811662000138576001600160a01b0360008051602062002289833981519152555050565b336001600160a01b038216146200014e57600080fd5b5050565b6000602082840312156200016557600080fd5b5051919050565b60805160a0516120e9620001a0600039600081816107b7015261094401526000818161028d0152610bb301526120e96000f3fe6080604052600436106101805760003560e01c80637ecebe00116100d6578063d505accf1161007f578063df752eed11610059578063df752eed146104b3578063e7fcb065146104c6578063fc72b976146104d957600080fd5b8063d505accf14610453578063dbceb17514610473578063dd62ed3e1461049357600080fd5b8063a9059cbb116100b0578063a9059cbb146103f3578063c1d34b8914610413578063cae9ca511461043357600080fd5b80637ecebe001461034757806395d89b411461038a5780639dc29fac146103d357600080fd5b8063313ce5671161013857806340c10f191161011257806340c10f19146102cf57806363d994c7146102e457806370a082311461030457600080fd5b8063313ce5671461025f5780633644e5151461027b5780634000aea0146102af57600080fd5b80630e02df54116101695780630e02df541461020d57806318160ddd1461022057806323b872dd1461023f57600080fd5b806306fdde0314610185578063095ea7b3146101dd575b600080fd5b34801561019157600080fd5b5060408051808201909152600481527f506c61790000000000000000000000000000000000000000000000000000000060208201525b6040516101d491906119f4565b60405180910390f35b3480156101e957600080fd5b506101fd6101f8366004611a8c565b6104ec565b60405190151581526020016101d4565b6101fd61021b366004611b04565b610503565b34801561022c57600080fd5b506000545b6040519081526020016101d4565b34801561024b57600080fd5b506101fd61025a366004611b50565b6106d1565b34801561026b57600080fd5b50604051601281526020016101d4565b34801561028757600080fd5b506102317f000000000000000000000000000000000000000000000000000000000000000081565b3480156102bb57600080fd5b506101fd6102ca366004611bd3565b6106e8565b6102e26102dd366004611a8c565b6107a8565b005b3480156102f057600080fd5b506101fd6102ff366004611c2f565b61085b565b34801561031057600080fd5b5061023161031f366004611ca2565b73ffffffffffffffffffffffffffffffffffffffff1660009081526001602052604090205490565b34801561035357600080fd5b50610231610362366004611ca2565b73ffffffffffffffffffffffffffffffffffffffff1660009081526003602052604090205490565b34801561039657600080fd5b506101c76040518060400160405280600481526020017f504c41590000000000000000000000000000000000000000000000000000000081525081565b3480156103df57600080fd5b506102e26103ee366004611a8c565b61091e565b3480156103ff57600080fd5b506101fd61040e366004611a8c565b6109ac565b34801561041f57600080fd5b506101fd61042e366004611c2f565b6109b9565b34801561043f57600080fd5b506101fd61044e366004611bd3565b610a1e565b34801561045f57600080fd5b506102e261046e366004611cc6565b610a81565b34801561047f57600080fd5b506102e261048e366004611d3d565b610dc1565b34801561049f57600080fd5b506102316104ae366004611d56565b610e65565b6101fd6104c1366004611d8f565b610ee5565b6101fd6104d4366004611a8c565b6110a2565b6101fd6104e7366004611def565b6110f1565b60006104f9338484611384565b5060015b92915050565b6000806105108434611eb8565b905061051c8482611ef3565b3414610589576040517f08c379a000000000000000000000000000000000000000000000000000000000815260206004820152601160248201527f494e56414c49445f4d53475f56414c554500000000000000000000000000000060448201526064015b60405180910390fd5b60006105958585611eb8565b90506105a18582611ef3565b8414610609576040517f08c379a000000000000000000000000000000000000000000000000000000000815260206004820152601460248201527f494e56414c49445f544f54414c5f414d4f554e540000000000000000000000006044820152606401610580565b60005b858110156106c4576106453388888481811061062a5761062a611f30565b905060200201602081019061063f9190611ca2565b84611493565b86868281811061065757610657611f30565b905060200201602081019061066c9190611ca2565b73ffffffffffffffffffffffffffffffffffffffff166108fc849081150290604051600060405180830381858888f193505050501580156106b1573d6000803e3d6000fd5b50806106bc81611f5f565b91505061060c565b5060019695505050505050565b60006106de8484846116e1565b5060019392505050565b60006106f5338686611493565b6040517fa4c0ed3600000000000000000000000000000000000000000000000000000000815273ffffffffffffffffffffffffffffffffffffffff86169063a4c0ed369061074d903390889088908890600401611fe1565b602060405180830381600087803b15801561076757600080fd5b505af115801561077b573d6000803e3d6000fd5b505050506040513d601f19601f8201168201806040525081019061079f9190612017565b95945050505050565b80670de0b6b3a76400006107dc7f000000000000000000000000000000000000000000000000000000000000000034611ef3565b6107e69190611eb8565b1461084d576040517f08c379a000000000000000000000000000000000000000000000000000000000815260206004820152600e60248201527f494e56414c49445f414d4f554e540000000000000000000000000000000000006044820152606401610580565b610857828261182d565b5050565b6000610868338686611493565b6040517f9b6be06500000000000000000000000000000000000000000000000000000000815273ffffffffffffffffffffffffffffffffffffffff861690639b6be065906108c29033908a90899089908990600401612039565b602060405180830381600087803b1580156108dc57600080fd5b505af11580156108f0573d6000803e3d6000fd5b505050506040513d601f19601f820116820180604052508101906109149190612017565b9695505050505050565b61092833826118cf565b73ffffffffffffffffffffffffffffffffffffffff82166108fc7f0000000000000000000000000000000000000000000000000000000000000000610975670de0b6b3a764000085611ef3565b61097f9190611eb8565b6040518115909202916000818181858888f193505050501580156109a7573d6000803e3d6000fd5b505050565b60006104f9338484611493565b60006109c68686866116e1565b6040517fa4c0ed3600000000000000000000000000000000000000000000000000000000815273ffffffffffffffffffffffffffffffffffffffff86169063a4c0ed36906108c2908990889088908890600401611fe1565b6000610a2b338686611384565b6040517eba451f00000000000000000000000000000000000000000000000000000000815273ffffffffffffffffffffffffffffffffffffffff86169062ba451f9061074d903390889088908890600401611fe1565b73ffffffffffffffffffffffffffffffffffffffff8716610afe576040517f08c379a000000000000000000000000000000000000000000000000000000000815260206004820152601460248201527f494e56414c49445f5a45524f5f414444524553530000000000000000000000006044820152606401610580565b73ffffffffffffffffffffffffffffffffffffffff87811660008181526003602090815260408083205481517f6e71edae12b1b97f4d1f60370fef10105fa2faae0126114a169c64845d6126c98185015280830195909552948b166060850152608084018a905260a0840185905260c08085018a90528151808603909101815260e0850190915280519101207f19010000000000000000000000000000000000000000000000000000000000006101008401527f00000000000000000000000000000000000000000000000000000000000000006101028401526101228301529061014201604080517fffffffffffffffffffffffffffffffffffffffffffffffffffffffffffffffe081840301815282825280516020918201206000845290830180835281905260ff8816918301919091526060820186905260808201859052915060019060a0016020604051602081039080840390855afa158015610c69573d6000803e3d6000fd5b5050506020604051035173ffffffffffffffffffffffffffffffffffffffff168973ffffffffffffffffffffffffffffffffffffffff1614610d07576040517f08c379a000000000000000000000000000000000000000000000000000000000815260206004820152601160248201527f494e56414c49445f5349474e41545552450000000000000000000000000000006044820152606401610580565b851580610d145750854211155b610d7a576040517f08c379a000000000000000000000000000000000000000000000000000000000815260206004820152600860248201527f544f4f5f4c4154450000000000000000000000000000000000000000000000006044820152606401610580565b610d85826001612084565b73ffffffffffffffffffffffffffffffffffffffff8a16600090815260036020526040902055610db6898989611384565b505050505050505050565b6000610deb7fb53127684a568b3173ae13b9f8a6016e243e63b6e8ee1178d6a717850b5d61035490565b905073ffffffffffffffffffffffffffffffffffffffff8116610e435773ffffffffffffffffffffffffffffffffffffffff7fb53127684a568b3173ae13b9f8a6016e243e63b6e8ee1178d6a717850b5d6103555050565b3373ffffffffffffffffffffffffffffffffffffffff82161461085757600080fd5b600073ffffffffffffffffffffffffffffffffffffffff8316301415610eac57507fffffffffffffffffffffffffffffffffffffffffffffffffffffffffffffffff6104fd565b5073ffffffffffffffffffffffffffffffffffffffff918216600090815260026020908152604080832093909416825291909152205490565b600080610ef28534611eb8565b9050610efe8582611ef3565b3414610f66576040517f08c379a000000000000000000000000000000000000000000000000000000000815260206004820152601160248201527f494e56414c49445f4d53475f56414c55450000000000000000000000000000006044820152606401610580565b848314610fcf576040517f08c379a000000000000000000000000000000000000000000000000000000000815260206004820152600f60248201527f4e4f545f53414d455f4c454e47544800000000000000000000000000000000006044820152606401610580565b60005b858110156106c45761102333888884818110610ff057610ff0611f30565b90506020020160208101906110059190611ca2565b87878581811061101757611017611f30565b90506020020135611493565b86868281811061103557611035611f30565b905060200201602081019061104a9190611ca2565b73ffffffffffffffffffffffffffffffffffffffff166108fc839081150290604051600060405180830381858888f1935050505015801561108f573d6000803e3d6000fd5b508061109a81611f5f565b915050610fd2565b60006110af338484611493565b60405173ffffffffffffffffffffffffffffffffffffffff8416903480156108fc02916000818181858888f193505050501580156106de573d6000803e3d6000fd5b60008086851461115d576040517f08c379a000000000000000000000000000000000000000000000000000000000815260206004820152601560248201527f544f4b454e5f4e4f545f53414d455f4c454e47544800000000000000000000006044820152606401610580565b8683146111c6576040517f08c379a000000000000000000000000000000000000000000000000000000000815260206004820152601360248201527f4554485f4e4f545f53414d455f4c454e475448000000000000000000000000006044820152606401610580565b60005b8781101561130c578686828181106111e3576111e3611f30565b9050602002013560001461122e5761122e338a8a8481811061120757611207611f30565b905060200201602081019061121c9190611ca2565b89898581811061101757611017611f30565b84848281811061124057611240611f30565b905060200201356000146112fa5788888281811061126057611260611f30565b90506020020160208101906112759190611ca2565b73ffffffffffffffffffffffffffffffffffffffff166108fc8686848181106112a0576112a0611f30565b905060200201359081150290604051600060405180830381858888f193505050501580156112d2573d6000803e3d6000fd5b508484828181106112e5576112e5611f30565b90506020020135826112f79190612084565b91505b8061130481611f5f565b9150506111c9565b50803414611376576040517f08c379a000000000000000000000000000000000000000000000000000000000815260206004820152601160248201527f494e56414c49445f4d53475f56414c55450000000000000000000000000000006044820152606401610580565b506001979650505050505050565b73ffffffffffffffffffffffffffffffffffffffff8316158015906113be575073ffffffffffffffffffffffffffffffffffffffff821615155b611424576040517f08c379a000000000000000000000000000000000000000000000000000000000815260206004820152601460248201527f494e56414c49445f5a45524f5f414444524553530000000000000000000000006044820152606401610580565b73ffffffffffffffffffffffffffffffffffffffff83811660008181526002602090815260408083209487168084529482529182902085905590518481527f8c5be1e5ebec7d5bd14f71427d1e84f3dd0314c0f7b2291e5b200ac8c7c3b92591015b60405180910390a3505050565b73ffffffffffffffffffffffffffffffffffffffff8216611510576040517f08c379a000000000000000000000000000000000000000000000000000000000815260206004820152601460248201527f494e56414c49445f5a45524f5f414444524553530000000000000000000000006044820152606401610580565b73ffffffffffffffffffffffffffffffffffffffff8216301415611590576040517f08c379a000000000000000000000000000000000000000000000000000000000815260206004820152601460248201527f494e56414c49445f544849535f414444524553530000000000000000000000006044820152606401610580565b73ffffffffffffffffffffffffffffffffffffffff831660009081526001602052604090205481811015611620576040517f08c379a000000000000000000000000000000000000000000000000000000000815260206004820152601160248201527f4e4f545f454e4f5547485f544f4b454e530000000000000000000000000000006044820152606401610580565b61162a828261209c565b73ffffffffffffffffffffffffffffffffffffffff808616600090815260016020526040808220939093559085168152908120805484929061166d908490612084565b925050819055508273ffffffffffffffffffffffffffffffffffffffff168473ffffffffffffffffffffffffffffffffffffffff167fddf252ad1be2c89b69c2b068fc378daa952ba7f163c4a11628f55a4df523b3ef846040516116d391815260200190565b60405180910390a350505050565b3373ffffffffffffffffffffffffffffffffffffffff84161480159061171d575073ffffffffffffffffffffffffffffffffffffffff83163014155b156118225773ffffffffffffffffffffffffffffffffffffffff831660009081526002602090815260408083203384529091529020547fffffffffffffffffffffffffffffffffffffffffffffffffffffffffffffffff811461182057818110156117e4576040517f08c379a000000000000000000000000000000000000000000000000000000000815260206004820152601760248201527f4e4f545f415554484f495a45445f414c4c4f57414e43450000000000000000006044820152606401610580565b6117ee828261209c565b73ffffffffffffffffffffffffffffffffffffffff851660009081526002602090815260408083203384529091529020555b505b6109a7838383611493565b8060008082825461183e9190612084565b909155505073ffffffffffffffffffffffffffffffffffffffff821660009081526001602052604081208054839290611878908490612084565b909155505060405181815273ffffffffffffffffffffffffffffffffffffffff8316906000907fddf252ad1be2c89b69c2b068fc378daa952ba7f163c4a11628f55a4df523b3ef9060200160405180910390a35050565b73ffffffffffffffffffffffffffffffffffffffff82166000908152600160205260409020548181101561195f576040517f08c379a000000000000000000000000000000000000000000000000000000000815260206004820152601160248201527f4e4f545f454e4f5547485f544f4b454e530000000000000000000000000000006044820152606401610580565b611969828261209c565b73ffffffffffffffffffffffffffffffffffffffff8416600090815260016020526040812091909155805483919081906119a490849061209c565b909155505060405182815260009073ffffffffffffffffffffffffffffffffffffffff8516907fddf252ad1be2c89b69c2b068fc378daa952ba7f163c4a11628f55a4df523b3ef90602001611486565b600060208083528351808285015260005b81811015611a2157858101830151858201604001528201611a05565b81811115611a33576000604083870101525b50601f017fffffffffffffffffffffffffffffffffffffffffffffffffffffffffffffffe016929092016040019392505050565b73ffffffffffffffffffffffffffffffffffffffff81168114611a8957600080fd5b50565b60008060408385031215611a9f57600080fd5b8235611aaa81611a67565b946020939093013593505050565b60008083601f840112611aca57600080fd5b50813567ffffffffffffffff811115611ae257600080fd5b6020830191508360208260051b8501011115611afd57600080fd5b9250929050565b600080600060408486031215611b1957600080fd5b833567ffffffffffffffff811115611b3057600080fd5b611b3c86828701611ab8565b909790965060209590950135949350505050565b600080600060608486031215611b6557600080fd5b8335611b7081611a67565b92506020840135611b8081611a67565b929592945050506040919091013590565b60008083601f840112611ba357600080fd5b50813567ffffffffffffffff811115611bbb57600080fd5b602083019150836020828501011115611afd57600080fd5b60008060008060608587031215611be957600080fd5b8435611bf481611a67565b935060208501359250604085013567ffffffffffffffff811115611c1757600080fd5b611c2387828801611b91565b95989497509550505050565b600080600080600060808688031215611c4757600080fd5b8535611c5281611a67565b94506020860135611c6281611a67565b935060408601359250606086013567ffffffffffffffff811115611c8557600080fd5b611c9188828901611b91565b969995985093965092949392505050565b600060208284031215611cb457600080fd5b8135611cbf81611a67565b9392505050565b600080600080600080600060e0888a031215611ce157600080fd5b8735611cec81611a67565b96506020880135611cfc81611a67565b95506040880135945060608801359350608088013560ff81168114611d2057600080fd5b9699959850939692959460a0840135945060c09093013592915050565b600060208284031215611d4f57600080fd5b5035919050565b60008060408385031215611d6957600080fd5b8235611d7481611a67565b91506020830135611d8481611a67565b809150509250929050565b60008060008060408587031215611da557600080fd5b843567ffffffffffffffff80821115611dbd57600080fd5b611dc988838901611ab8565b90965094506020870135915080821115611de257600080fd5b50611c2387828801611ab8565b60008060008060008060608789031215611e0857600080fd5b863567ffffffffffffffff80821115611e2057600080fd5b611e2c8a838b01611ab8565b90985096506020890135915080821115611e4557600080fd5b611e518a838b01611ab8565b90965094506040890135915080821115611e6a57600080fd5b50611e7789828a01611ab8565b979a9699509497509295939492505050565b7f4e487b7100000000000000000000000000000000000000000000000000000000600052601160045260246000fd5b600082611eee577f4e487b7100000000000000000000000000000000000000000000000000000000600052601260045260246000fd5b500490565b6000817fffffffffffffffffffffffffffffffffffffffffffffffffffffffffffffffff0483118215151615611f2b57611f2b611e89565b500290565b7f4e487b7100000000000000000000000000000000000000000000000000000000600052603260045260246000fd5b60007fffffffffffffffffffffffffffffffffffffffffffffffffffffffffffffffff821415611f9157611f91611e89565b5060010190565b8183528181602085013750600060208284010152600060207fffffffffffffffffffffffffffffffffffffffffffffffffffffffffffffffe0601f840116840101905092915050565b73ffffffffffffffffffffffffffffffffffffffff85168152836020820152606060408201526000610914606083018486611f98565b60006020828403121561202957600080fd5b81518015158114611cbf57600080fd5b600073ffffffffffffffffffffffffffffffffffffffff808816835280871660208401525084604083015260806060830152612079608083018486611f98565b979650505050505050565b6000821982111561209757612097611e89565b500190565b6000828210156120ae576120ae611e89565b50039056fea26469706673582212205ee3460732f8d563399ddd5df6459fc700208f4625544a4b09d92db9648e5b2864736f6c63430008090033b53127684a568b3173ae13b9f8a6016e243e63b6e8ee1178d6a717850b5d6103",
  "devdoc": {
    "kind": "dev",
    "methods": {
      "allowance(address,address)": {
        "details": "Returns the remaining number of tokens that `spender` will be allowed to spend on behalf of `owner` through {transferFrom}. This is zero by default. This value changes when {approve} or {transferFrom} are called."
      },
      "approve(address,uint256)": {
        "details": "Sets `amount` as the allowance of `spender` over the caller's tokens. Returns a boolean value indicating whether the operation succeeded. IMPORTANT: Beware that changing an allowance with this method brings the risk that someone may use both the old and the new allowance by unfortunate transaction ordering. One possible solution to mitigate this race condition is to first reduce the spender's allowance to 0 and set the desired value afterwards: https://github.com/ethereum/EIPs/issues/20#issuecomment-263524729 Emits an {Approval} event."
      },
      "totalSupply()": {
        "details": "Returns the amount of tokens in existence."
      }
    },
    "version": 1
  },
  "userdoc": {
    "kind": "user",
    "methods": {},
    "version": 1
  },
  "storageLayout": {
    "storage": [
      {
        "astId": 13176,
        "contract": "src/conquest_token/PlayToken.sol:PlayToken",
        "label": "_totalSupply",
        "offset": 0,
        "slot": "0",
        "type": "t_uint256"
      },
      {
        "astId": 13180,
        "contract": "src/conquest_token/PlayToken.sol:PlayToken",
        "label": "_balances",
        "offset": 0,
        "slot": "1",
        "type": "t_mapping(t_address,t_uint256)"
      },
      {
        "astId": 13186,
        "contract": "src/conquest_token/PlayToken.sol:PlayToken",
        "label": "_allowances",
        "offset": 0,
        "slot": "2",
        "type": "t_mapping(t_address,t_mapping(t_address,t_uint256))"
      },
      {
        "astId": 14142,
        "contract": "src/conquest_token/PlayToken.sol:PlayToken",
        "label": "_nonces",
        "offset": 0,
        "slot": "3",
        "type": "t_mapping(t_address,t_uint256)"
      }
    ],
    "types": {
      "t_address": {
        "encoding": "inplace",
        "label": "address",
        "numberOfBytes": "20"
      },
      "t_mapping(t_address,t_mapping(t_address,t_uint256))": {
        "encoding": "mapping",
        "key": "t_address",
        "label": "mapping(address => mapping(address => uint256))",
        "numberOfBytes": "32",
        "value": "t_mapping(t_address,t_uint256)"
      },
      "t_mapping(t_address,t_uint256)": {
        "encoding": "mapping",
        "key": "t_address",
        "label": "mapping(address => uint256)",
        "numberOfBytes": "32",
        "value": "t_uint256"
      },
      "t_uint256": {
        "encoding": "inplace",
        "label": "uint256",
        "numberOfBytes": "32"
      }
    }
  }
}