{
  "address": "0xb1555acccfaF18F5fc82d7A7d312EE0665889010",
  "abi": [
    {
      "inputs": [
        {
          "internalType": "contract PlayToken",
          "name": "underlyingToken",
          "type": "address"
        }
      ],
      "stateMutability": "nonpayable",
      "type": "constructor"
    },
    {
      "anonymous": false,
      "inputs": [
        {
          "indexed": true,
          "internalType": "address",
          "name": "owner",
          "type": "address"
        },
        {
          "indexed": true,
          "internalType": "address",
          "name": "spender",
          "type": "address"
        },
        {
          "indexed": false,
          "internalType": "uint256",
          "name": "value",
          "type": "uint256"
        }
      ],
      "name": "Approval",
      "type": "event"
    },
    {
      "anonymous": false,
      "inputs": [
        {
          "indexed": false,
          "internalType": "address",
          "name": "burner",
          "type": "address"
        },
        {
          "indexed": false,
          "internalType": "bool",
          "name": "enabled",
          "type": "bool"
        }
      ],
      "name": "Burner",
      "type": "event"
    },
    {
      "anonymous": false,
      "inputs": [
        {
          "indexed": false,
          "internalType": "address",
          "name": "burner",
          "type": "address"
        },
        {
          "indexed": false,
          "internalType": "bool",
          "name": "enabled",
          "type": "bool"
        }
      ],
      "name": "Minter",
      "type": "event"
    },
    {
      "anonymous": false,
      "inputs": [
        {
          "indexed": true,
          "internalType": "address",
          "name": "from",
          "type": "address"
        },
        {
          "indexed": true,
          "internalType": "address",
          "name": "to",
          "type": "address"
        },
        {
          "indexed": false,
          "internalType": "uint256",
          "name": "value",
          "type": "uint256"
        }
      ],
      "name": "Transfer",
      "type": "event"
    },
    {
      "inputs": [],
      "name": "DOMAIN_SEPARATOR",
      "outputs": [
        {
          "internalType": "bytes32",
          "name": "",
          "type": "bytes32"
        }
      ],
      "stateMutability": "view",
      "type": "function"
    },
    {
      "inputs": [
        {
          "internalType": "address",
          "name": "owner",
          "type": "address"
        },
        {
          "internalType": "address",
          "name": "spender",
          "type": "address"
        }
      ],
      "name": "allowance",
      "outputs": [
        {
          "internalType": "uint256",
          "name": "",
          "type": "uint256"
        }
      ],
      "stateMutability": "view",
      "type": "function"
    },
    {
      "inputs": [
        {
          "internalType": "address",
          "name": "spender",
          "type": "address"
        },
        {
          "internalType": "uint256",
          "name": "amount",
          "type": "uint256"
        }
      ],
      "name": "approve",
      "outputs": [
        {
          "internalType": "bool",
          "name": "",
          "type": "bool"
        }
      ],
      "stateMutability": "nonpayable",
      "type": "function"
    },
    {
      "inputs": [
        {
          "internalType": "address",
          "name": "spender",
          "type": "address"
        },
        {
          "internalType": "uint256",
          "name": "amount",
          "type": "uint256"
        },
        {
          "internalType": "bytes",
          "name": "data",
          "type": "bytes"
        }
      ],
      "name": "approveAndCall",
      "outputs": [
        {
          "internalType": "bool",
          "name": "",
          "type": "bool"
        }
      ],
      "stateMutability": "nonpayable",
      "type": "function"
    },
    {
      "inputs": [
        {
          "internalType": "address",
          "name": "owner",
          "type": "address"
        }
      ],
      "name": "balanceOf",
      "outputs": [
        {
          "internalType": "uint256",
          "name": "",
          "type": "uint256"
        }
      ],
      "stateMutability": "view",
      "type": "function"
    },
    {
      "inputs": [
        {
          "internalType": "address",
          "name": "from",
          "type": "address"
        },
        {
          "internalType": "address",
          "name": "to",
          "type": "address"
        },
        {
          "internalType": "uint256",
          "name": "amount",
          "type": "uint256"
        }
      ],
      "name": "burn",
      "outputs": [],
      "stateMutability": "nonpayable",
      "type": "function"
    },
    {
      "inputs": [
        {
          "internalType": "address",
          "name": "",
          "type": "address"
        }
      ],
      "name": "burners",
      "outputs": [
        {
          "internalType": "bool",
          "name": "",
          "type": "bool"
        }
      ],
      "stateMutability": "view",
      "type": "function"
    },
    {
      "inputs": [],
      "name": "decimals",
      "outputs": [
        {
          "internalType": "uint8",
          "name": "",
          "type": "uint8"
        }
      ],
      "stateMutability": "pure",
      "type": "function"
    },
    {
      "inputs": [
        {
          "internalType": "address payable[]",
          "name": "tos",
          "type": "address[]"
        },
        {
          "internalType": "uint256",
          "name": "totalAmount",
          "type": "uint256"
        }
      ],
      "name": "distributeAlongWithETH",
      "outputs": [
        {
          "internalType": "bool",
          "name": "",
          "type": "bool"
        }
      ],
      "stateMutability": "payable",
      "type": "function"
    },
    {
      "inputs": [
        {
          "internalType": "address payable[]",
          "name": "tos",
          "type": "address[]"
        },
        {
          "internalType": "uint256[]",
          "name": "amounts",
          "type": "uint256[]"
        }
      ],
      "name": "distributeVariousAmountsAlongWithETH",
      "outputs": [
        {
          "internalType": "bool",
          "name": "",
          "type": "bool"
        }
      ],
      "stateMutability": "payable",
      "type": "function"
    },
    {
      "inputs": [
        {
          "internalType": "address payable[]",
          "name": "tos",
          "type": "address[]"
        },
        {
          "internalType": "uint256[]",
          "name": "tokenAmounts",
          "type": "uint256[]"
        },
        {
          "internalType": "uint256[]",
          "name": "etherAmounts",
          "type": "uint256[]"
        }
      ],
      "name": "distributeVariousAmountsOfTokenAndETH",
      "outputs": [
        {
          "internalType": "bool",
          "name": "",
          "type": "bool"
        }
      ],
      "stateMutability": "payable",
      "type": "function"
    },
    {
      "inputs": [
        {
          "internalType": "address",
          "name": "from",
          "type": "address"
        },
        {
          "internalType": "address",
          "name": "to",
          "type": "address"
        },
        {
          "internalType": "uint256",
          "name": "amount",
          "type": "uint256"
        }
      ],
      "name": "mint",
      "outputs": [],
      "stateMutability": "nonpayable",
      "type": "function"
    },
    {
      "inputs": [
        {
          "internalType": "address payable[]",
          "name": "tos",
          "type": "address[]"
        },
        {
          "internalType": "uint256[]",
          "name": "amounts",
          "type": "uint256[]"
        },
        {
          "internalType": "uint256[]",
          "name": "nativeTokenAmounts",
          "type": "uint256[]"
        }
      ],
      "name": "mintMultipleViaNativeTokenPlusSendExtraNativeTokens",
      "outputs": [],
      "stateMutability": "payable",
      "type": "function"
    },
    {
      "inputs": [
        {
          "internalType": "address",
          "name": "to",
          "type": "address"
        },
        {
          "internalType": "uint256",
          "name": "amount",
          "type": "uint256"
        }
      ],
      "name": "mintViaNativeToken",
      "outputs": [],
      "stateMutability": "payable",
      "type": "function"
    },
    {
      "inputs": [
        {
          "internalType": "address payable",
          "name": "to",
          "type": "address"
        },
        {
          "internalType": "uint256",
          "name": "amount",
          "type": "uint256"
        }
      ],
      "name": "mintViaNativeTokenPlusSendExtraNativeTokens",
      "outputs": [],
      "stateMutability": "payable",
      "type": "function"
    },
    {
      "inputs": [
        {
          "internalType": "address",
          "name": "",
          "type": "address"
        }
      ],
      "name": "minters",
      "outputs": [
        {
          "internalType": "bool",
          "name": "",
          "type": "bool"
        }
      ],
      "stateMutability": "view",
      "type": "function"
    },
    {
      "inputs": [],
      "name": "name",
      "outputs": [
        {
          "internalType": "string",
          "name": "",
          "type": "string"
        }
      ],
      "stateMutability": "pure",
      "type": "function"
    },
    {
      "inputs": [
        {
          "internalType": "address",
          "name": "owner",
          "type": "address"
        }
      ],
      "name": "nonces",
      "outputs": [
        {
          "internalType": "uint256",
          "name": "",
          "type": "uint256"
        }
      ],
      "stateMutability": "view",
      "type": "function"
    },
    {
      "inputs": [
        {
          "internalType": "address",
          "name": "forAddress",
          "type": "address"
        },
        {
          "internalType": "address",
          "name": "to",
          "type": "address"
        },
        {
          "internalType": "uint256",
          "name": "amount",
          "type": "uint256"
        },
        {
          "internalType": "bytes",
          "name": "data",
          "type": "bytes"
        }
      ],
      "name": "payForAndCall",
      "outputs": [
        {
          "internalType": "bool",
          "name": "",
          "type": "bool"
        }
      ],
      "stateMutability": "nonpayable",
      "type": "function"
    },
    {
      "inputs": [
        {
          "internalType": "address",
          "name": "owner",
          "type": "address"
        },
        {
          "internalType": "address",
          "name": "spender",
          "type": "address"
        },
        {
          "internalType": "uint256",
          "name": "value",
          "type": "uint256"
        },
        {
          "internalType": "uint256",
          "name": "deadline",
          "type": "uint256"
        },
        {
          "internalType": "uint8",
          "name": "v",
          "type": "uint8"
        },
        {
          "internalType": "bytes32",
          "name": "r",
          "type": "bytes32"
        },
        {
          "internalType": "bytes32",
          "name": "s",
          "type": "bytes32"
        }
      ],
      "name": "permit",
      "outputs": [],
      "stateMutability": "nonpayable",
      "type": "function"
    },
    {
      "inputs": [
        {
          "internalType": "address",
          "name": "burner",
          "type": "address"
        },
        {
          "internalType": "bool",
          "name": "enabled",
          "type": "bool"
        }
      ],
      "name": "setBurner",
      "outputs": [],
      "stateMutability": "nonpayable",
      "type": "function"
    },
    {
      "inputs": [
        {
          "internalType": "address",
          "name": "burner",
          "type": "address"
        },
        {
          "internalType": "bool",
          "name": "enabled",
          "type": "bool"
        }
      ],
      "name": "setMinter",
      "outputs": [],
      "stateMutability": "nonpayable",
      "type": "function"
    },
    {
      "inputs": [],
      "name": "symbol",
      "outputs": [
        {
          "internalType": "string",
          "name": "",
          "type": "string"
        }
      ],
      "stateMutability": "view",
      "type": "function"
    },
    {
      "inputs": [],
      "name": "totalSupply",
      "outputs": [
        {
          "internalType": "uint256",
          "name": "",
          "type": "uint256"
        }
      ],
      "stateMutability": "view",
      "type": "function"
    },
    {
      "inputs": [
        {
          "internalType": "address",
          "name": "to",
          "type": "address"
        },
        {
          "internalType": "uint256",
          "name": "amount",
          "type": "uint256"
        }
      ],
      "name": "transfer",
      "outputs": [
        {
          "internalType": "bool",
          "name": "",
          "type": "bool"
        }
      ],
      "stateMutability": "nonpayable",
      "type": "function"
    },
    {
      "inputs": [
        {
          "internalType": "address payable",
          "name": "to",
          "type": "address"
        },
        {
          "internalType": "uint256",
          "name": "amount",
          "type": "uint256"
        }
      ],
      "name": "transferAlongWithETH",
      "outputs": [
        {
          "internalType": "bool",
          "name": "",
          "type": "bool"
        }
      ],
      "stateMutability": "payable",
      "type": "function"
    },
    {
      "inputs": [
        {
          "internalType": "address",
          "name": "to",
          "type": "address"
        },
        {
          "internalType": "uint256",
          "name": "amount",
          "type": "uint256"
        },
        {
          "internalType": "bytes",
          "name": "data",
          "type": "bytes"
        }
      ],
      "name": "transferAndCall",
      "outputs": [
        {
          "internalType": "bool",
          "name": "",
          "type": "bool"
        }
      ],
      "stateMutability": "nonpayable",
      "type": "function"
    },
    {
      "inputs": [
        {
          "internalType": "address",
          "name": "from",
          "type": "address"
        },
        {
          "internalType": "address",
          "name": "to",
          "type": "address"
        },
        {
          "internalType": "uint256",
          "name": "amount",
          "type": "uint256"
        }
      ],
      "name": "transferFrom",
      "outputs": [
        {
          "internalType": "bool",
          "name": "",
          "type": "bool"
        }
      ],
      "stateMutability": "nonpayable",
      "type": "function"
    },
    {
      "inputs": [
        {
          "internalType": "address",
          "name": "from",
          "type": "address"
        },
        {
          "internalType": "address",
          "name": "to",
          "type": "address"
        },
        {
          "internalType": "uint256",
          "name": "amount",
          "type": "uint256"
        },
        {
          "internalType": "bytes",
          "name": "data",
          "type": "bytes"
        }
      ],
      "name": "transferFromAndCall",
      "outputs": [
        {
          "internalType": "bool",
          "name": "",
          "type": "bool"
        }
      ],
      "stateMutability": "nonpayable",
      "type": "function"
    }
  ],
  "transactionHash": "0x05faffb3266730a4d64545aeef822707676f15b70697d67273323a3a9401ab1b",
  "args": [
    "0x1874F6326eEbcCe664410a93a5217741a977D14A"
  ],
  "numDeployments": 2,
  "solcInputHash": "59c77387a45666930fba8f1444fbe2f7",
  "bytecode": "0x60c06040523480156200001157600080fd5b50604051620030c5380380620030c58339810160408190526200003491620000f0565b6040805180820190915260018152603160f81b60208201527f91ab3d17e3a50a9d89e63fd30b92be7f5336b03b287bb946787a83a9d62a2766620000946040805180820190915260098152684672656520506c617960b81b602082015290565b8051602091820120835184830120604080519384019490945292820152606081019190915230608082015260a00160408051601f198184030181529190528051602090910120608052506001600160a01b031660a05262000122565b6000602082840312156200010357600080fd5b81516001600160a01b03811681146200011b57600080fd5b9392505050565b60805160a051612f4c6200017960003960008181610aa101528181610c6201528181610d6701528181610eb201528181610f88015281816112720152611ab001526000818161031d01526115760152612f4c6000f3fe6080604052600436106101c25760003560e01c806389e7b3d3116100f7578063cf456ae711610095578063e7fcb06511610064578063e7fcb0651461057a578063f46eccc41461058d578063f6b911bc146105bd578063fc72b976146105dd57600080fd5b8063cf456ae714610507578063d505accf14610527578063dd62ed3e14610547578063df752eed1461056757600080fd5b8063a9059cbb116100d1578063a9059cbb14610487578063c1d34b89146104a7578063c6c3bbe6146104c7578063cae9ca51146104e757600080fd5b806389e7b3d3146104185780638c408be01461042b57806395d89b411461043e57600080fd5b8063313ce567116101645780635ecb2d3f1161013e5780635ecb2d3f1461035f57806363d994c71461037257806370a08231146103925780637ecebe00146103d557600080fd5b8063313ce567146102ef5780633644e5151461030b5780634000aea01461033f57600080fd5b80630d895ee1116101a05780630d895ee11461027b5780630e02df541461029d57806318160ddd146102b057806323b872dd146102cf57600080fd5b806303d41e0e146101c757806306fdde031461020c578063095ea7b31461025b575b600080fd5b3480156101d357600080fd5b506101f76101e2366004612831565b60056020526000908152604090205460ff1681565b60405190151581526020015b60405180910390f35b34801561021857600080fd5b5060408051808201909152600981527f4672656520506c6179000000000000000000000000000000000000000000000060208201525b604051610203919061287a565b34801561026757600080fd5b506101f76102763660046128cb565b6105f0565b34801561028757600080fd5b5061029b610296366004612905565b610607565b005b6101f76102ab36600461298a565b610751565b3480156102bc57600080fd5b506000545b604051908152602001610203565b3480156102db57600080fd5b506101f76102ea3660046129d6565b61091c565b3480156102fb57600080fd5b5060405160128152602001610203565b34801561031757600080fd5b506102c17f000000000000000000000000000000000000000000000000000000000000000081565b34801561034b57600080fd5b506101f761035a366004612a59565b610933565b61029b61036d3660046128cb565b6109f3565b34801561037e57600080fd5b506101f761038d366004612ab5565b610b22565b34801561039e57600080fd5b506102c16103ad366004612831565b73ffffffffffffffffffffffffffffffffffffffff1660009081526001602052604090205490565b3480156103e157600080fd5b506102c16103f0366004612831565b73ffffffffffffffffffffffffffffffffffffffff1660009081526003602052604090205490565b61029b6104263660046128cb565b610be5565b61029b610439366004612b28565b610e2a565b34801561044a57600080fd5b5061024e6040518060400160405280600581526020017f46504c415900000000000000000000000000000000000000000000000000000081525081565b34801561049357600080fd5b506101f76104a23660046128cb565b61116d565b3480156104b357600080fd5b506101f76104c2366004612ab5565b61117a565b3480156104d357600080fd5b5061029b6104e23660046129d6565b6111df565b3480156104f357600080fd5b506101f7610502366004612a59565b6112a4565b34801561051357600080fd5b5061029b610522366004612905565b611307565b34801561053357600080fd5b5061029b610542366004612bc2565b611444565b34801561055357600080fd5b506102c1610562366004612c39565b611784565b6101f7610575366004612c67565b611804565b6101f76105883660046128cb565b6119ce565b34801561059957600080fd5b506101f76105a8366004612831565b60046020526000908152604090205460ff1681565b3480156105c957600080fd5b5061029b6105d83660046129d6565b611a1d565b6101f76105eb366004612b28565b611ae1565b60006105fd338484611d74565b5060015b92915050565b7fb53127684a568b3173ae13b9f8a6016e243e63b6e8ee1178d6a717850b5d61035473ffffffffffffffffffffffffffffffffffffffff163373ffffffffffffffffffffffffffffffffffffffff16146106c2576040517f08c379a000000000000000000000000000000000000000000000000000000000815260206004820152600e60248201527f4e4f545f415554484f52495a454400000000000000000000000000000000000060448201526064015b60405180910390fd5b73ffffffffffffffffffffffffffffffffffffffff821660008181526005602090815260409182902080547fffffffffffffffffffffffffffffffffffffffffffffffffffffffffffffff00168515159081179091558251938452908301527f040d3bc1fde94a77c901458220b45017a7a53cbc579f707787d918b325a0ca1991015b60405180910390a15050565b60008061075e8434612cf6565b905061076a8482612d31565b34146107d2576040517f08c379a000000000000000000000000000000000000000000000000000000000815260206004820152601160248201527f494e56414c49445f4d53475f56414c554500000000000000000000000000000060448201526064016106b9565b60006107de8585612cf6565b90506107ea8582612d31565b8414610852576040517f08c379a000000000000000000000000000000000000000000000000000000000815260206004820152601460248201527f494e56414c49445f544f54414c5f414d4f554e5400000000000000000000000060448201526064016106b9565b60005b8581101561090d5761088e3388888481811061087357610873612d6e565b90506020020160208101906108889190612831565b84611e83565b8686828181106108a0576108a0612d6e565b90506020020160208101906108b59190612831565b73ffffffffffffffffffffffffffffffffffffffff166108fc849081150290604051600060405180830381858888f193505050501580156108fa573d6000803e3d6000fd5b508061090581612d9d565b915050610855565b506001925050505b9392505050565b60006109298484846120d1565b5060019392505050565b6000610940338686611e83565b6040517fa4c0ed3600000000000000000000000000000000000000000000000000000000815273ffffffffffffffffffffffffffffffffffffffff86169063a4c0ed3690610998903390889088908890600401612e1f565b602060405180830381600087803b1580156109b257600080fd5b505af11580156109c6573d6000803e3d6000fd5b505050506040513d601f19601f820116820180604052508101906109ea9190612e55565b95945050505050565b3360009081526004602052604090205460ff16610a6c576040517f08c379a000000000000000000000000000000000000000000000000000000000815260206004820152601260248201527f4e4f545f414c4c4f5745445f4d494e544552000000000000000000000000000060448201526064016106b9565b6040517f40c10f19000000000000000000000000000000000000000000000000000000008152306004820152602481018290527f000000000000000000000000000000000000000000000000000000000000000073ffffffffffffffffffffffffffffffffffffffff16906340c10f199034906044016000604051808303818588803b158015610afb57600080fd5b505af1158015610b0f573d6000803e3d6000fd5b5050505050610b1e828261221d565b5050565b6000610b2f338686611e83565b6040517f9b6be06500000000000000000000000000000000000000000000000000000000815273ffffffffffffffffffffffffffffffffffffffff861690639b6be06590610b899033908a90899089908990600401612e72565b602060405180830381600087803b158015610ba357600080fd5b505af1158015610bb7573d6000803e3d6000fd5b505050506040513d601f19601f82011682018060405250810190610bdb9190612e55565b9695505050505050565b3360009081526004602052604090205460ff16610c5e576040517f08c379a000000000000000000000000000000000000000000000000000000000815260206004820152601260248201527f4e4f545f414c4c4f5745445f4d494e544552000000000000000000000000000060448201526064016106b9565b60007f000000000000000000000000000000000000000000000000000000000000000073ffffffffffffffffffffffffffffffffffffffff1663a835106e6040518163ffffffff1660e01b815260040160206040518083038186803b158015610cc657600080fd5b505afa158015610cda573d6000803e3d6000fd5b505050506040513d601f19601f82011682018060405250810190610cfe9190612eb2565b610d10670de0b6b3a764000084612d31565b610d1a9190612cf6565b6040517f40c10f190000000000000000000000000000000000000000000000000000000081523060048201526024810184905290915073ffffffffffffffffffffffffffffffffffffffff7f000000000000000000000000000000000000000000000000000000000000000016906340c10f199083906044016000604051808303818588803b158015610dac57600080fd5b505af1158015610dc0573d6000803e3d6000fd5b5050505050610dcf838361221d565b80341115610e255773ffffffffffffffffffffffffffffffffffffffff83166108fc610dfb8334612ecb565b6040518115909202916000818181858888f19350505050158015610e23573d6000803e3d6000fd5b505b505050565b3360009081526004602052604090205460ff16610ea3576040517f08c379a000000000000000000000000000000000000000000000000000000000815260206004820152601260248201527f4e4f545f414c4c4f5745445f4d494e544552000000000000000000000000000060448201526064016106b9565b60005b858110156111645760007f000000000000000000000000000000000000000000000000000000000000000073ffffffffffffffffffffffffffffffffffffffff1663a835106e6040518163ffffffff1660e01b815260040160206040518083038186803b158015610f1657600080fd5b505afa158015610f2a573d6000803e3d6000fd5b505050506040513d601f19601f82011682018060405250810190610f4e9190612eb2565b670de0b6b3a7640000878785818110610f6957610f69612d6e565b90506020020135610f7a9190612d31565b610f849190612cf6565b90507f000000000000000000000000000000000000000000000000000000000000000073ffffffffffffffffffffffffffffffffffffffff166340c10f198230898987818110610fd657610fd6612d6e565b6040517fffffffff0000000000000000000000000000000000000000000000000000000060e088901b16815273ffffffffffffffffffffffffffffffffffffffff909416600485015260200291909101356024830152506044016000604051808303818588803b15801561104957600080fd5b505af115801561105d573d6000803e3d6000fd5b50505050506110aa88888481811061107757611077612d6e565b905060200201602081019061108c9190612831565b87878581811061109e5761109e612d6e565b9050602002013561221d565b60008484848181106110be576110be612d6e565b905060200201351115611151578787838181106110dd576110dd612d6e565b90506020020160208101906110f29190612831565b73ffffffffffffffffffffffffffffffffffffffff166108fc85858581811061111d5761111d612d6e565b905060200201359081150290604051600060405180830381858888f1935050505015801561114f573d6000803e3d6000fd5b505b508061115c81612d9d565b915050610ea6565b50505050505050565b60006105fd338484611e83565b60006111878686866120d1565b6040517fa4c0ed3600000000000000000000000000000000000000000000000000000000815273ffffffffffffffffffffffffffffffffffffffff86169063a4c0ed3690610b89908990889088908890600401612e1f565b3360009081526004602052604090205460ff16611258576040517f08c379a000000000000000000000000000000000000000000000000000000000815260206004820152601260248201527f4e4f545f414c4c4f5745445f4d494e544552000000000000000000000000000060448201526064016106b9565b61129a73ffffffffffffffffffffffffffffffffffffffff7f0000000000000000000000000000000000000000000000000000000000000000168430846122bf565b610e25828261221d565b60006112b1338686611d74565b6040517eba451f00000000000000000000000000000000000000000000000000000000815273ffffffffffffffffffffffffffffffffffffffff86169062ba451f90610998903390889088908890600401612e1f565b7fb53127684a568b3173ae13b9f8a6016e243e63b6e8ee1178d6a717850b5d61035473ffffffffffffffffffffffffffffffffffffffff163373ffffffffffffffffffffffffffffffffffffffff16146113bd576040517f08c379a000000000000000000000000000000000000000000000000000000000815260206004820152600e60248201527f4e4f545f415554484f52495a454400000000000000000000000000000000000060448201526064016106b9565b73ffffffffffffffffffffffffffffffffffffffff821660008181526004602090815260409182902080547fffffffffffffffffffffffffffffffffffffffffffffffffffffffffffffff00168515159081179091558251938452908301527fff452b3b9159b024a9098f0058c63eccd90d36b3584608202800d662f962bb609101610745565b73ffffffffffffffffffffffffffffffffffffffff87166114c1576040517f08c379a000000000000000000000000000000000000000000000000000000000815260206004820152601460248201527f494e56414c49445f5a45524f5f4144445245535300000000000000000000000060448201526064016106b9565b73ffffffffffffffffffffffffffffffffffffffff87811660008181526003602090815260408083205481517f6e71edae12b1b97f4d1f60370fef10105fa2faae0126114a169c64845d6126c98185015280830195909552948b166060850152608084018a905260a0840185905260c08085018a90528151808603909101815260e0850190915280519101207f19010000000000000000000000000000000000000000000000000000000000006101008401527f00000000000000000000000000000000000000000000000000000000000000006101028401526101228301529061014201604080517fffffffffffffffffffffffffffffffffffffffffffffffffffffffffffffffe081840301815282825280516020918201206000845290830180835281905260ff8816918301919091526060820186905260808201859052915060019060a0016020604051602081039080840390855afa15801561162c573d6000803e3d6000fd5b5050506020604051035173ffffffffffffffffffffffffffffffffffffffff168973ffffffffffffffffffffffffffffffffffffffff16146116ca576040517f08c379a000000000000000000000000000000000000000000000000000000000815260206004820152601160248201527f494e56414c49445f5349474e415455524500000000000000000000000000000060448201526064016106b9565b8515806116d75750854211155b61173d576040517f08c379a000000000000000000000000000000000000000000000000000000000815260206004820152600860248201527f544f4f5f4c41544500000000000000000000000000000000000000000000000060448201526064016106b9565b611748826001612ee2565b73ffffffffffffffffffffffffffffffffffffffff8a16600090815260036020526040902055611779898989611d74565b505050505050505050565b600073ffffffffffffffffffffffffffffffffffffffff83163014156117cb57507fffffffffffffffffffffffffffffffffffffffffffffffffffffffffffffffff610601565b5073ffffffffffffffffffffffffffffffffffffffff918216600090815260026020908152604080832093909416825291909152205490565b6000806118118534612cf6565b905061181d8582612d31565b3414611885576040517f08c379a000000000000000000000000000000000000000000000000000000000815260206004820152601160248201527f494e56414c49445f4d53475f56414c554500000000000000000000000000000060448201526064016106b9565b8483146118ee576040517f08c379a000000000000000000000000000000000000000000000000000000000815260206004820152600f60248201527f4e4f545f53414d455f4c454e475448000000000000000000000000000000000060448201526064016106b9565b60005b858110156119c1576119423388888481811061190f5761190f612d6e565b90506020020160208101906119249190612831565b87878581811061193657611936612d6e565b90506020020135611e83565b86868281811061195457611954612d6e565b90506020020160208101906119699190612831565b73ffffffffffffffffffffffffffffffffffffffff166108fc839081150290604051600060405180830381858888f193505050501580156119ae573d6000803e3d6000fd5b50806119b981612d9d565b9150506118f1565b5060019695505050505050565b60006119db338484611e83565b60405173ffffffffffffffffffffffffffffffffffffffff8416903480156108fc02916000818181858888f19350505050158015610929573d6000803e3d6000fd5b3360009081526005602052604090205460ff16611a96576040517f08c379a000000000000000000000000000000000000000000000000000000000815260206004820152601260248201527f4e4f545f414c4c4f5745445f4255524e4552000000000000000000000000000060448201526064016106b9565b611ad773ffffffffffffffffffffffffffffffffffffffff7f000000000000000000000000000000000000000000000000000000000000000016838361239b565b610e2583826123f1565b600080868514611b4d576040517f08c379a000000000000000000000000000000000000000000000000000000000815260206004820152601560248201527f544f4b454e5f4e4f545f53414d455f4c454e475448000000000000000000000060448201526064016106b9565b868314611bb6576040517f08c379a000000000000000000000000000000000000000000000000000000000815260206004820152601360248201527f4554485f4e4f545f53414d455f4c454e4754480000000000000000000000000060448201526064016106b9565b60005b87811015611cfc57868682818110611bd357611bd3612d6e565b90506020020135600014611c1e57611c1e338a8a84818110611bf757611bf7612d6e565b9050602002016020810190611c0c9190612831565b89898581811061193657611936612d6e565b848482818110611c3057611c30612d6e565b90506020020135600014611cea57888882818110611c5057611c50612d6e565b9050602002016020810190611c659190612831565b73ffffffffffffffffffffffffffffffffffffffff166108fc868684818110611c9057611c90612d6e565b905060200201359081150290604051600060405180830381858888f19350505050158015611cc2573d6000803e3d6000fd5b50848482818110611cd557611cd5612d6e565b9050602002013582611ce79190612ee2565b91505b80611cf481612d9d565b915050611bb9565b50803414611d66576040517f08c379a000000000000000000000000000000000000000000000000000000000815260206004820152601160248201527f494e56414c49445f4d53475f56414c554500000000000000000000000000000060448201526064016106b9565b506001979650505050505050565b73ffffffffffffffffffffffffffffffffffffffff831615801590611dae575073ffffffffffffffffffffffffffffffffffffffff821615155b611e14576040517f08c379a000000000000000000000000000000000000000000000000000000000815260206004820152601460248201527f494e56414c49445f5a45524f5f4144445245535300000000000000000000000060448201526064016106b9565b73ffffffffffffffffffffffffffffffffffffffff83811660008181526002602090815260408083209487168084529482529182902085905590518481527f8c5be1e5ebec7d5bd14f71427d1e84f3dd0314c0f7b2291e5b200ac8c7c3b92591015b60405180910390a3505050565b73ffffffffffffffffffffffffffffffffffffffff8216611f00576040517f08c379a000000000000000000000000000000000000000000000000000000000815260206004820152601460248201527f494e56414c49445f5a45524f5f4144445245535300000000000000000000000060448201526064016106b9565b73ffffffffffffffffffffffffffffffffffffffff8216301415611f80576040517f08c379a000000000000000000000000000000000000000000000000000000000815260206004820152601460248201527f494e56414c49445f544849535f4144445245535300000000000000000000000060448201526064016106b9565b73ffffffffffffffffffffffffffffffffffffffff831660009081526001602052604090205481811015612010576040517f08c379a000000000000000000000000000000000000000000000000000000000815260206004820152601160248201527f4e4f545f454e4f5547485f544f4b454e5300000000000000000000000000000060448201526064016106b9565b61201a8282612ecb565b73ffffffffffffffffffffffffffffffffffffffff808616600090815260016020526040808220939093559085168152908120805484929061205d908490612ee2565b925050819055508273ffffffffffffffffffffffffffffffffffffffff168473ffffffffffffffffffffffffffffffffffffffff167fddf252ad1be2c89b69c2b068fc378daa952ba7f163c4a11628f55a4df523b3ef846040516120c391815260200190565b60405180910390a350505050565b3373ffffffffffffffffffffffffffffffffffffffff84161480159061210d575073ffffffffffffffffffffffffffffffffffffffff83163014155b156122125773ffffffffffffffffffffffffffffffffffffffff831660009081526002602090815260408083203384529091529020547fffffffffffffffffffffffffffffffffffffffffffffffffffffffffffffffff811461221057818110156121d4576040517f08c379a000000000000000000000000000000000000000000000000000000000815260206004820152601760248201527f4e4f545f415554484f495a45445f414c4c4f57414e434500000000000000000060448201526064016106b9565b6121de8282612ecb565b73ffffffffffffffffffffffffffffffffffffffff851660009081526002602090815260408083203384529091529020555b505b610e25838383611e83565b8060008082825461222e9190612ee2565b909155505073ffffffffffffffffffffffffffffffffffffffff821660009081526001602052604081208054839290612268908490612ee2565b909155505060405181815273ffffffffffffffffffffffffffffffffffffffff8316906000907fddf252ad1be2c89b69c2b068fc378daa952ba7f163c4a11628f55a4df523b3ef9060200160405180910390a35050565b60405173ffffffffffffffffffffffffffffffffffffffff80851660248301528316604482015260648101829052610e239085907f23b872dd00000000000000000000000000000000000000000000000000000000906084015b604080517fffffffffffffffffffffffffffffffffffffffffffffffffffffffffffffffe08184030181529190526020810180517bffffffffffffffffffffffffffffffffffffffffffffffffffffffff167fffffffff0000000000000000000000000000000000000000000000000000000090931692909217909152612516565b60405173ffffffffffffffffffffffffffffffffffffffff8316602482015260448101829052610e259084907fa9059cbb0000000000000000000000000000000000000000000000000000000090606401612319565b73ffffffffffffffffffffffffffffffffffffffff821660009081526001602052604090205481811015612481576040517f08c379a000000000000000000000000000000000000000000000000000000000815260206004820152601160248201527f4e4f545f454e4f5547485f544f4b454e5300000000000000000000000000000060448201526064016106b9565b61248b8282612ecb565b73ffffffffffffffffffffffffffffffffffffffff8416600090815260016020526040812091909155805483919081906124c6908490612ecb565b909155505060405182815260009073ffffffffffffffffffffffffffffffffffffffff8516907fddf252ad1be2c89b69c2b068fc378daa952ba7f163c4a11628f55a4df523b3ef90602001611e76565b6000612578826040518060400160405280602081526020017f5361666545524332303a206c6f772d6c6576656c2063616c6c206661696c65648152508573ffffffffffffffffffffffffffffffffffffffff166126229092919063ffffffff16565b805190915015610e2557808060200190518101906125969190612e55565b610e25576040517f08c379a000000000000000000000000000000000000000000000000000000000815260206004820152602a60248201527f5361666545524332303a204552433230206f7065726174696f6e20646964206e60448201527f6f7420737563636565640000000000000000000000000000000000000000000060648201526084016106b9565b60606126318484600085612639565b949350505050565b6060824710156126cb576040517f08c379a000000000000000000000000000000000000000000000000000000000815260206004820152602660248201527f416464726573733a20696e73756666696369656e742062616c616e636520666f60448201527f722063616c6c000000000000000000000000000000000000000000000000000060648201526084016106b9565b843b612733576040517f08c379a000000000000000000000000000000000000000000000000000000000815260206004820152601d60248201527f416464726573733a2063616c6c20746f206e6f6e2d636f6e747261637400000060448201526064016106b9565b6000808673ffffffffffffffffffffffffffffffffffffffff16858760405161275c9190612efa565b60006040518083038185875af1925050503d8060008114612799576040519150601f19603f3d011682016040523d82523d6000602084013e61279e565b606091505b50915091506127ae8282866127b9565b979650505050505050565b606083156127c8575081610915565b8251156127d85782518084602001fd5b816040517f08c379a00000000000000000000000000000000000000000000000000000000081526004016106b9919061287a565b73ffffffffffffffffffffffffffffffffffffffff8116811461282e57600080fd5b50565b60006020828403121561284357600080fd5b81356109158161280c565b60005b83811015612869578181015183820152602001612851565b83811115610e235750506000910152565b602081526000825180602084015261289981604085016020870161284e565b601f017fffffffffffffffffffffffffffffffffffffffffffffffffffffffffffffffe0169190910160400192915050565b600080604083850312156128de57600080fd5b82356128e98161280c565b946020939093013593505050565b801515811461282e57600080fd5b6000806040838503121561291857600080fd5b82356129238161280c565b91506020830135612933816128f7565b809150509250929050565b60008083601f84011261295057600080fd5b50813567ffffffffffffffff81111561296857600080fd5b6020830191508360208260051b850101111561298357600080fd5b9250929050565b60008060006040848603121561299f57600080fd5b833567ffffffffffffffff8111156129b657600080fd5b6129c28682870161293e565b909790965060209590950135949350505050565b6000806000606084860312156129eb57600080fd5b83356129f68161280c565b92506020840135612a068161280c565b929592945050506040919091013590565b60008083601f840112612a2957600080fd5b50813567ffffffffffffffff811115612a4157600080fd5b60208301915083602082850101111561298357600080fd5b60008060008060608587031215612a6f57600080fd5b8435612a7a8161280c565b935060208501359250604085013567ffffffffffffffff811115612a9d57600080fd5b612aa987828801612a17565b95989497509550505050565b600080600080600060808688031215612acd57600080fd5b8535612ad88161280c565b94506020860135612ae88161280c565b935060408601359250606086013567ffffffffffffffff811115612b0b57600080fd5b612b1788828901612a17565b969995985093965092949392505050565b60008060008060008060608789031215612b4157600080fd5b863567ffffffffffffffff80821115612b5957600080fd5b612b658a838b0161293e565b90985096506020890135915080821115612b7e57600080fd5b612b8a8a838b0161293e565b90965094506040890135915080821115612ba357600080fd5b50612bb089828a0161293e565b979a9699509497509295939492505050565b600080600080600080600060e0888a031215612bdd57600080fd5b8735612be88161280c565b96506020880135612bf88161280c565b95506040880135945060608801359350608088013560ff81168114612c1c57600080fd5b9699959850939692959460a0840135945060c09093013592915050565b60008060408385031215612c4c57600080fd5b8235612c578161280c565b915060208301356129338161280c565b60008060008060408587031215612c7d57600080fd5b843567ffffffffffffffff80821115612c9557600080fd5b612ca18883890161293e565b90965094506020870135915080821115612cba57600080fd5b50612aa98782880161293e565b7f4e487b7100000000000000000000000000000000000000000000000000000000600052601160045260246000fd5b600082612d2c577f4e487b7100000000000000000000000000000000000000000000000000000000600052601260045260246000fd5b500490565b6000817fffffffffffffffffffffffffffffffffffffffffffffffffffffffffffffffff0483118215151615612d6957612d69612cc7565b500290565b7f4e487b7100000000000000000000000000000000000000000000000000000000600052603260045260246000fd5b60007fffffffffffffffffffffffffffffffffffffffffffffffffffffffffffffffff821415612dcf57612dcf612cc7565b5060010190565b8183528181602085013750600060208284010152600060207fffffffffffffffffffffffffffffffffffffffffffffffffffffffffffffffe0601f840116840101905092915050565b73ffffffffffffffffffffffffffffffffffffffff85168152836020820152606060408201526000610bdb606083018486612dd6565b600060208284031215612e6757600080fd5b8151610915816128f7565b600073ffffffffffffffffffffffffffffffffffffffff8088168352808716602084015250846040830152608060608301526127ae608083018486612dd6565b600060208284031215612ec457600080fd5b5051919050565b600082821015612edd57612edd612cc7565b500390565b60008219821115612ef557612ef5612cc7565b500190565b60008251612f0c81846020870161284e565b919091019291505056fea26469706673582212208e143d6b7156c1f3d06455ec89b541fa375bb70c98707a9e3d3f5ae1a75b654d64736f6c63430008090033",
  "devdoc": {
    "kind": "dev",
    "methods": {
      "allowance(address,address)": {
        "details": "Returns the remaining number of tokens that `spender` will be allowed to spend on behalf of `owner` through {transferFrom}. This is zero by default. This value changes when {approve} or {transferFrom} are called."
      },
      "approve(address,uint256)": {
        "details": "Sets `amount` as the allowance of `spender` over the caller's tokens. Returns a boolean value indicating whether the operation succeeded. IMPORTANT: Beware that changing an allowance with this method brings the risk that someone may use both the old and the new allowance by unfortunate transaction ordering. One possible solution to mitigate this race condition is to first reduce the spender's allowance to 0 and set the desired value afterwards: https://github.com/ethereum/EIPs/issues/20#issuecomment-263524729 Emits an {Approval} event."
      },
      "totalSupply()": {
        "details": "Returns the amount of tokens in existence."
      }
    },
    "version": 1
  },
  "userdoc": {
    "kind": "user",
    "methods": {},
    "version": 1
  },
  "storageLayout": {
    "storage": [
      {
        "astId": 13176,
        "contract": "src/conquest_token/FreePlayToken.sol:FreePlayToken",
        "label": "_totalSupply",
        "offset": 0,
        "slot": "0",
        "type": "t_uint256"
      },
      {
        "astId": 13180,
        "contract": "src/conquest_token/FreePlayToken.sol:FreePlayToken",
        "label": "_balances",
        "offset": 0,
        "slot": "1",
        "type": "t_mapping(t_address,t_uint256)"
      },
      {
        "astId": 13186,
        "contract": "src/conquest_token/FreePlayToken.sol:FreePlayToken",
        "label": "_allowances",
        "offset": 0,
        "slot": "2",
        "type": "t_mapping(t_address,t_mapping(t_address,t_uint256))"
      },
      {
        "astId": 14142,
        "contract": "src/conquest_token/FreePlayToken.sol:FreePlayToken",
        "label": "_nonces",
        "offset": 0,
        "slot": "3",
        "type": "t_mapping(t_address,t_uint256)"
      },
      {
        "astId": 15394,
        "contract": "src/conquest_token/FreePlayToken.sol:FreePlayToken",
        "label": "minters",
        "offset": 0,
        "slot": "4",
        "type": "t_mapping(t_address,t_bool)"
      },
      {
        "astId": 15398,
        "contract": "src/conquest_token/FreePlayToken.sol:FreePlayToken",
        "label": "burners",
        "offset": 0,
        "slot": "5",
        "type": "t_mapping(t_address,t_bool)"
      }
    ],
    "types": {
      "t_address": {
        "encoding": "inplace",
        "label": "address",
        "numberOfBytes": "20"
      },
      "t_bool": {
        "encoding": "inplace",
        "label": "bool",
        "numberOfBytes": "1"
      },
      "t_mapping(t_address,t_bool)": {
        "encoding": "mapping",
        "key": "t_address",
        "label": "mapping(address => bool)",
        "numberOfBytes": "32",
        "value": "t_bool"
      },
      "t_mapping(t_address,t_mapping(t_address,t_uint256))": {
        "encoding": "mapping",
        "key": "t_address",
        "label": "mapping(address => mapping(address => uint256))",
        "numberOfBytes": "32",
        "value": "t_mapping(t_address,t_uint256)"
      },
      "t_mapping(t_address,t_uint256)": {
        "encoding": "mapping",
        "key": "t_address",
        "label": "mapping(address => uint256)",
        "numberOfBytes": "32",
        "value": "t_uint256"
      },
      "t_uint256": {
        "encoding": "inplace",
        "label": "uint256",
        "numberOfBytes": "32"
      }
    }
  }
}