{
  "address": "0xb25de4c8422b9882B0a7eFd2808D73E1E1b9BF3E",
  "abi": [
    {
      "anonymous": false,
      "inputs": [
        {
          "indexed": true,
          "internalType": "contract IAlliance",
          "name": "alliance",
          "type": "address"
        },
        {
          "indexed": true,
          "internalType": "address",
          "name": "player",
          "type": "address"
        },
        {
          "indexed": false,
          "internalType": "bool",
          "name": "joining",
          "type": "bool"
        }
      ],
      "name": "AllianceLink",
      "type": "event"
    },
    {
      "inputs": [
        {
          "components": [
            {
              "internalType": "address",
              "name": "addr",
              "type": "address"
            },
            {
              "internalType": "uint32",
              "name": "nonce",
              "type": "uint32"
            },
            {
              "internalType": "bytes",
              "name": "signature",
              "type": "bytes"
            }
          ],
          "internalType": "struct AllianceRegistry.PlayerSubmission[]",
          "name": "playerSubmissions",
          "type": "tuple[]"
        }
      ],
      "name": "addMultiplePlayersToAlliance",
      "outputs": [],
      "stateMutability": "nonpayable",
      "type": "function"
    },
    {
      "inputs": [
        {
          "internalType": "address",
          "name": "player",
          "type": "address"
        },
        {
          "internalType": "uint32",
          "name": "nonce",
          "type": "uint32"
        },
        {
          "internalType": "bytes",
          "name": "signature",
          "type": "bytes"
        }
      ],
      "name": "addPlayerToAlliance",
      "outputs": [],
      "stateMutability": "nonpayable",
      "type": "function"
    },
    {
      "inputs": [
        {
          "internalType": "address",
          "name": "player",
          "type": "address"
        }
      ],
      "name": "ejectPlayerFromAlliance",
      "outputs": [],
      "stateMutability": "nonpayable",
      "type": "function"
    },
    {
      "inputs": [
        {
          "internalType": "address",
          "name": "player",
          "type": "address"
        },
        {
          "internalType": "contract IAlliance",
          "name": "alliance",
          "type": "address"
        }
      ],
      "name": "getAllianceData",
      "outputs": [
        {
          "internalType": "uint96",
          "name": "joinTime",
          "type": "uint96"
        },
        {
          "internalType": "uint256",
          "name": "nonce",
          "type": "uint256"
        }
      ],
      "stateMutability": "view",
      "type": "function"
    },
    {
      "inputs": [
        {
          "internalType": "address",
          "name": "player",
          "type": "address"
        },
        {
          "internalType": "uint8",
          "name": "slot",
          "type": "uint8"
        }
      ],
      "name": "getAllianceDataAtSlot",
      "outputs": [
        {
          "internalType": "contract IAlliance",
          "name": "alliance",
          "type": "address"
        },
        {
          "internalType": "uint96",
          "name": "joinTime",
          "type": "uint96"
        },
        {
          "internalType": "uint256",
          "name": "nonce",
          "type": "uint256"
        }
      ],
      "stateMutability": "view",
      "type": "function"
    },
    {
      "inputs": [
        {
          "internalType": "address",
          "name": "player1",
          "type": "address"
        },
        {
          "internalType": "address",
          "name": "player2",
          "type": "address"
        },
        {
          "internalType": "uint256",
          "name": "timestamp",
          "type": "uint256"
        }
      ],
      "name": "havePlayersAnAllianceInCommon",
      "outputs": [
        {
          "internalType": "contract IAlliance",
          "name": "alliance",
          "type": "address"
        },
        {
          "internalType": "uint96",
          "name": "joinTime",
          "type": "uint96"
        }
      ],
      "stateMutability": "view",
      "type": "function"
    },
    {
      "inputs": [
        {
          "internalType": "contract IAlliance",
          "name": "alliance",
          "type": "address"
        },
        {
          "internalType": "bytes",
          "name": "data",
          "type": "bytes"
        }
      ],
      "name": "joinAlliance",
      "outputs": [
        {
          "internalType": "bool",
          "name": "joined",
          "type": "bool"
        }
      ],
      "stateMutability": "nonpayable",
      "type": "function"
    },
    {
      "inputs": [
        {
          "internalType": "contract IAlliance",
          "name": "alliance",
          "type": "address"
        }
      ],
      "name": "leaveAlliance",
      "outputs": [],
      "stateMutability": "nonpayable",
      "type": "function"
    }
  ],
  "transactionHash": "0x508d17a00bb139c38c22b33881f4f2b0c97634cbe01f1b7f85f651550a3300fe",
  "args": [],
  "numDeployments": 1,
  "solcInputHash": "40ae1f29867b66b4deced9f7221d8843",
  "bytecode": "0x608060405234801561001057600080fd5b50612882806100206000396000f3fe608060405234801561001057600080fd5b50600436106100885760003560e01c80636da066301161005b5780636da06630146101535780637a784cb4146101665780638efb75c314610179578063df2c0f491461018c57600080fd5b8063137672021461008d57806317e796ea146100e45780634ed2986d146100f95780635f3f7a9a14610130575b600080fd5b6100a061009b36600461232e565b6101d8565b6040805173ffffffffffffffffffffffffffffffffffffffff90941684526bffffffffffffffffffffffff9092166020840152908201526060015b60405180910390f35b6100f76100f236600461236d565b61038f565b005b61010c610107366004612391565b61039c565b604080516bffffffffffffffffffffffff90931683526020830191909152016100db565b61014361013e366004612401565b61051f565b60405190151581526020016100db565b6100f761016136600461246f565b61087f565b6100f761017436600461236d565b610891565b6100f76101873660046124d2565b61091a565b61019f61019a366004612547565b6109dd565b6040805173ffffffffffffffffffffffffffffffffffffffff90931683526bffffffffffffffffffffffff9091166020830152016100db565b73ffffffffffffffffffffffffffffffffffffffff821660009081526001602052604081208190819060ff851661025157805473ffffffffffffffffffffffffffffffffffffffff811694507401000000000000000000000000000000000000000090046bffffffffffffffffffffffff169250610352565b8460ff16600114156102a857600181015473ffffffffffffffffffffffffffffffffffffffff811694507401000000000000000000000000000000000000000090046bffffffffffffffffffffffff169250610352565b8460ff16600214156102ff57600281015473ffffffffffffffffffffffffffffffffffffffff811694507401000000000000000000000000000000000000000090046bffffffffffffffffffffffff169250610352565b8460ff166003141561035257600381015473ffffffffffffffffffffffffffffffffffffffff811694507401000000000000000000000000000000000000000090046bffffffffffffffffffffffff1692505b505073ffffffffffffffffffffffffffffffffffffffff938416600090815260208181526040808320968516835295905293909320549093909150565b6103998133611031565b50565b73ffffffffffffffffffffffffffffffffffffffff80831660008181526020818152604080832086861680855290835281842054948452600190925282208054929490921614156104165780547401000000000000000000000000000000000000000090046bffffffffffffffffffffffff169250610517565b600181015473ffffffffffffffffffffffffffffffffffffffff8581169116141561046d5760018101547401000000000000000000000000000000000000000090046bffffffffffffffffffffffff169250610517565b600281015473ffffffffffffffffffffffffffffffffffffffff858116911614156104c45760028101547401000000000000000000000000000000000000000090046bffffffffffffffffffffffff169250610517565b600381015473ffffffffffffffffffffffffffffffffffffffff858116911614156105175760038101547401000000000000000000000000000000000000000090046bffffffffffffffffffffffff1692505b509250929050565b3360009081526001602052604081208054829073ffffffffffffffffffffffffffffffffffffffff161561055b5780610557816125b7565b9150505b600182015473ffffffffffffffffffffffffffffffffffffffff16156105895780610585816125b7565b9150505b600282015473ffffffffffffffffffffffffffffffffffffffff16156105b757806105b3816125b7565b9150505b600382015473ffffffffffffffffffffffffffffffffffffffff161561063e576040517f08c379a000000000000000000000000000000000000000000000000000000000815260206004820152601960248201527f4d41585f4e554d5f414c4c49414e4345535f524541434845440000000000000060448201526064015b60405180910390fd5b6040517f1d99b55400000000000000000000000000000000000000000000000000000000815273ffffffffffffffffffffffffffffffffffffffff871690631d99b55490610694903390899089906004016125f0565b602060405180830381600087803b1580156106ae57600080fd5b505af11580156106c2573d6000803e3d6000fd5b505050506040513d601f19601f820116820180604052508101906106e6919061265a565b925082156108765780610738576bffffffffffffffffffffffff4216740100000000000000000000000000000000000000000273ffffffffffffffffffffffffffffffffffffffff8716178255610827565b8060011415610789576bffffffffffffffffffffffff4216740100000000000000000000000000000000000000000273ffffffffffffffffffffffffffffffffffffffff8716176001830155610827565b80600214156107da576bffffffffffffffffffffffff4216740100000000000000000000000000000000000000000273ffffffffffffffffffffffffffffffffffffffff8716176002830155610827565b8060031415610827576bffffffffffffffffffffffff4216740100000000000000000000000000000000000000000273ffffffffffffffffffffffffffffffffffffffff87161760038301555b60405160018152339073ffffffffffffffffffffffffffffffffffffffff8816907f5e60402083b3427099886174996f295e5e29d12bbe871aef1041e9a4324cdb099060200160405180910390a35b50509392505050565b61088b8484848461149e565b50505050565b61089b3382611031565b6040517f9192e30200000000000000000000000000000000000000000000000000000000815233600482015273ffffffffffffffffffffffffffffffffffffffff821690639192e30290602401600060405180830381600087803b15801561090257600080fd5b505af1925050508015610913575060015b6103995750565b60005b818110156109d8576109c683838381811061093a5761093a61267c565b905060200281019061094c91906126ab565b61095a90602081019061236d565b84848481811061096c5761096c61267c565b905060200281019061097e91906126ab565b61098f9060408101906020016126e9565b8585858181106109a1576109a161267c565b90506020028101906109b391906126ab565b6109c1906040810190612704565b61149e565b806109d0816125b7565b91505061091d565b505050565b73ffffffffffffffffffffffffffffffffffffffff8084166000908152600160205260408082209285168252812090918291610a176122d3565b610a1f6122d3565b60008060005b60048110156110215782811415610c1557604080518082019091526000808252602082015281610aa5575060408051808201909152875473ffffffffffffffffffffffffffffffffffffffff811682527401000000000000000000000000000000000000000090046bffffffffffffffffffffffff166020820152610bc7565b8160011415610b07575060408051808201909152600188015473ffffffffffffffffffffffffffffffffffffffff811682527401000000000000000000000000000000000000000090046bffffffffffffffffffffffff166020820152610bc7565b8160021415610b69575060408051808201909152600288015473ffffffffffffffffffffffffffffffffffffffff811682527401000000000000000000000000000000000000000090046bffffffffffffffffffffffff166020820152610bc7565b8160031415610bc7575060408051808201909152600388015473ffffffffffffffffffffffffffffffffffffffff811682527401000000000000000000000000000000000000000090046bffffffffffffffffffffffff1660208201525b805173ffffffffffffffffffffffffffffffffffffffff16610bf0575050505050505050611029565b808685610bfc816125b7565b965060048110610c0e57610c0e61267c565b6020020152505b60005b600481101561100e5782811415610e0157604080518082019091526000808252602082015281610c98575060408051808201909152875473ffffffffffffffffffffffffffffffffffffffff811682527401000000000000000000000000000000000000000090046bffffffffffffffffffffffff166020820152610dba565b8160011415610cfa575060408051808201909152600188015473ffffffffffffffffffffffffffffffffffffffff811682527401000000000000000000000000000000000000000090046bffffffffffffffffffffffff166020820152610dba565b8160021415610d5c575060408051808201909152600288015473ffffffffffffffffffffffffffffffffffffffff811682527401000000000000000000000000000000000000000090046bffffffffffffffffffffffff166020820152610dba565b8160031415610dba575060408051808201909152600388015473ffffffffffffffffffffffffffffffffffffffff811682527401000000000000000000000000000000000000000090046bffffffffffffffffffffffff1660208201525b805173ffffffffffffffffffffffffffffffffffffffff16610ddc575061100e565b808685610de8816125b7565b965060048110610dfa57610dfa61267c565b6020020152505b848160048110610e1357610e1361267c565b60200201515173ffffffffffffffffffffffffffffffffffffffff16868360048110610e4157610e4161267c565b60200201515173ffffffffffffffffffffffffffffffffffffffff161415610ffc57848160048110610e7557610e7561267c565b6020020151602001516bffffffffffffffffffffffff16868360048110610e9e57610e9e61267c565b6020020151602001516bffffffffffffffffffffffff1610610f6a578a868360048110610ecd57610ecd61267c565b6020020151602001516bffffffffffffffffffffffff161015610f2e57858260048110610efc57610efc61267c565b602002015151868360048110610f1457610f1461267c565b602002015160200151995099505050505050505050611029565b858260048110610f4057610f4061267c565b6020020151519950858260048110610f5a57610f5a61267c565b6020020151602001519850610ffc565b8a858260048110610f7d57610f7d61267c565b6020020151602001516bffffffffffffffffffffffff161015610fc457848160048110610fac57610fac61267c565b602002015151858260048110610f1457610f1461267c565b848160048110610fd657610fd661267c565b6020020151519950848160048110610ff057610ff061267c565b60200201516020015198505b80611006816125b7565b915050610c18565b5080611019816125b7565b915050610a25565b505050505050505b935093915050565b3360009081526001602052604081208054909190819073ffffffffffffffffffffffffffffffffffffffff166110c3576040517f08c379a000000000000000000000000000000000000000000000000000000000815260206004820152601860248201527f4e4f545f504152545f4f465f414e595f414c4c49414e434500000000000000006044820152606401610635565b600183015473ffffffffffffffffffffffffffffffffffffffff1661112d57505080546000825573ffffffffffffffffffffffffffffffffffffffff8116907401000000000000000000000000000000000000000090046bffffffffffffffffffffffff16611257565b600283015473ffffffffffffffffffffffffffffffffffffffff1661119c575050600181018054600090915573ffffffffffffffffffffffffffffffffffffffff8116907401000000000000000000000000000000000000000090046bffffffffffffffffffffffff16611257565b600383015473ffffffffffffffffffffffffffffffffffffffff1661120b575050600281018054600090915573ffffffffffffffffffffffffffffffffffffffff8116907401000000000000000000000000000000000000000090046bffffffffffffffffffffffff16611257565b5050600381018054600090915573ffffffffffffffffffffffffffffffffffffffff8116907401000000000000000000000000000000000000000090046bffffffffffffffffffffffff165b8173ffffffffffffffffffffffffffffffffffffffff168473ffffffffffffffffffffffffffffffffffffffff161461142d57825473ffffffffffffffffffffffffffffffffffffffff858116911614156112f1576bffffffffffffffffffffffff8116740100000000000000000000000000000000000000000273ffffffffffffffffffffffffffffffffffffffff831617835561142d565b600183015473ffffffffffffffffffffffffffffffffffffffff8581169116141561135e576bffffffffffffffffffffffff8116740100000000000000000000000000000000000000000273ffffffffffffffffffffffffffffffffffffffff831617600184015561142d565b600283015473ffffffffffffffffffffffffffffffffffffffff858116911614156113cb576bffffffffffffffffffffffff8116740100000000000000000000000000000000000000000273ffffffffffffffffffffffffffffffffffffffff831617600284015561142d565b6040517f08c379a000000000000000000000000000000000000000000000000000000000815260206004820152601860248201527f4e4f545f504152545f4f465f5448455f414c4c49414e434500000000000000006044820152606401610635565b8473ffffffffffffffffffffffffffffffffffffffff168473ffffffffffffffffffffffffffffffffffffffff167f5e60402083b3427099886174996f295e5e29d12bbe871aef1041e9a4324cdb09600060405161148f911515815260200190565b60405180910390a35050505050565b73ffffffffffffffffffffffffffffffffffffffff808516600090815260016020526040812080543393919291161561156357815473ffffffffffffffffffffffffffffffffffffffff84811691161415611555576040517f08c379a000000000000000000000000000000000000000000000000000000000815260206004820152600e60248201527f414c52454144595f4a4f494e45440000000000000000000000000000000000006044820152606401610635565b8061155f816125b7565b9150505b600182015473ffffffffffffffffffffffffffffffffffffffff161561161857600182015473ffffffffffffffffffffffffffffffffffffffff8481169116141561160a576040517f08c379a000000000000000000000000000000000000000000000000000000000815260206004820152600e60248201527f414c52454144595f4a4f494e45440000000000000000000000000000000000006044820152606401610635565b80611614816125b7565b9150505b600282015473ffffffffffffffffffffffffffffffffffffffff16156116cd57600282015473ffffffffffffffffffffffffffffffffffffffff848116911614156116bf576040517f08c379a000000000000000000000000000000000000000000000000000000000815260206004820152600e60248201527f414c52454144595f4a4f494e45440000000000000000000000000000000000006044820152606401610635565b806116c9816125b7565b9150505b600382015473ffffffffffffffffffffffffffffffffffffffff84811691161415611754576040517f08c379a000000000000000000000000000000000000000000000000000000000815260206004820152600e60248201527f414c52454144595f4a4f494e45440000000000000000000000000000000000006044820152606401610635565b600382015473ffffffffffffffffffffffffffffffffffffffff16156117d6576040517f08c379a000000000000000000000000000000000000000000000000000000000815260206004820152601960248201527f4d41585f4e554d5f414c4c49414e4345535f52454143484544000000000000006044820152606401610635565b73ffffffffffffffffffffffffffffffffffffffff8088166000908152602081815260408083209387168352929052205463ffffffff87168114611876576040517f08c379a000000000000000000000000000000000000000000000000000000000815260206004820152600d60248201527f494e56414c49445f4e4f4e4345000000000000000000000000000000000000006044820152606401610635565b606063ffffffff881661193c576040517f19457468657265756d205369676e6564204d6573736167653a0a35360000000060208201527f4a6f696e20416c6c69616e636520307830303030303030303030303030303030603c8201527f3030303030303030303030303030303030303030303030300000000000000000605c820152607401604080517fffffffffffffffffffffffffffffffffffffffffffffffffffffffffffffffe0818403018152919052905061193781605333611cd2565b611a28565b6040517f19457468657265756d205369676e6564204d6573736167653a0a37360000000060208201527f4a6f696e20416c6c69616e636520307830303030303030303030303030303030603c8201527f30303030303030303030303030303030303030303030303020286e6f6e63653a605c8201527f2020202020202020202030290000000000000000000000000000000000000000607c820152608801604080517fffffffffffffffffffffffffffffffffffffffffffffffffffffffffffffffe08184030181529190529050611a1681605333611cd2565b611a288160668a63ffffffff16611dac565b6000818051906020012090506000611a7889898080601f0160208091040260200160405190810160405280939291908181526020018383808284376000920191909152508693925050611e869050565b90508073ffffffffffffffffffffffffffffffffffffffff168b73ffffffffffffffffffffffffffffffffffffffff1614611b0f576040517f08c379a000000000000000000000000000000000000000000000000000000000815260206004820152601160248201527f494e56414c49445f5349474e41545552450000000000000000000000000000006044820152606401610635565b84611b59576bffffffffffffffffffffffff4216740100000000000000000000000000000000000000000273ffffffffffffffffffffffffffffffffffffffff8816178655611c48565b8460011415611baa576bffffffffffffffffffffffff4216740100000000000000000000000000000000000000000273ffffffffffffffffffffffffffffffffffffffff8816176001870155611c48565b8460021415611bfb576bffffffffffffffffffffffff4216740100000000000000000000000000000000000000000273ffffffffffffffffffffffffffffffffffffffff8816176002870155611c48565b8460031415611c48576bffffffffffffffffffffffff4216740100000000000000000000000000000000000000000273ffffffffffffffffffffffffffffffffffffffff88161760038701555b611c538a6001612769565b73ffffffffffffffffffffffffffffffffffffffff8c8116600081815260208181526040808320948d168084529482529182902063ffffffff95909516909455516001815290927f5e60402083b3427099886174996f295e5e29d12bbe871aef1041e9a4324cdb09910160405180910390a35050505050505050505050565b80156109d8576040805180820190915260108082527f30313233343536373839616263646566000000000000000000000000000000006020830152611d1790836127c0565b81518110611d2757611d2761267c565b01602001517fff00000000000000000000000000000000000000000000000000000000000000168383611d59816127d4565b945081518110611d6b57611d6b61267c565b60200101907effffffffffffffffffffffffffffffffffffffffffffffffffffffffffffff1916908160001a905350611da5601082612809565b9050611cd2565b80156109d85760408051808201909152600a8082527f30313233343536373839000000000000000000000000000000000000000000006020830152611df190836127c0565b81518110611e0157611e0161267c565b01602001517fff00000000000000000000000000000000000000000000000000000000000000168383611e33816127d4565b945081518110611e4557611e4561267c565b60200101907effffffffffffffffffffffffffffffffffffffffffffffffffffffffffffff1916908160001a905350611e7f600a82612809565b9050611dac565b6000806000611e958585611eaa565b91509150611ea281611f1a565b509392505050565b600080825160411415611ee15760208301516040840151606085015160001a611ed587828585612173565b94509450505050611f13565b825160401415611f0b5760208301516040840151611f0086838361228b565b935093505050611f13565b506000905060025b9250929050565b6000816004811115611f2e57611f2e61281d565b1415611f375750565b6001816004811115611f4b57611f4b61281d565b1415611fb3576040517f08c379a000000000000000000000000000000000000000000000000000000000815260206004820152601860248201527f45434453413a20696e76616c6964207369676e617475726500000000000000006044820152606401610635565b6002816004811115611fc757611fc761281d565b141561202f576040517f08c379a000000000000000000000000000000000000000000000000000000000815260206004820152601f60248201527f45434453413a20696e76616c6964207369676e6174757265206c656e677468006044820152606401610635565b60038160048111156120435761204361281d565b14156120d1576040517f08c379a000000000000000000000000000000000000000000000000000000000815260206004820152602260248201527f45434453413a20696e76616c6964207369676e6174757265202773272076616c60448201527f75650000000000000000000000000000000000000000000000000000000000006064820152608401610635565b60048160048111156120e5576120e561281d565b1415610399576040517f08c379a000000000000000000000000000000000000000000000000000000000815260206004820152602260248201527f45434453413a20696e76616c6964207369676e6174757265202776272076616c60448201527f75650000000000000000000000000000000000000000000000000000000000006064820152608401610635565b6000807f7fffffffffffffffffffffffffffffff5d576e7357a4501ddfe92f46681b20a08311156121aa5750600090506003612282565b8460ff16601b141580156121c257508460ff16601c14155b156121d35750600090506004612282565b6040805160008082526020820180845289905260ff881692820192909252606081018690526080810185905260019060a0016020604051602081039080840390855afa158015612227573d6000803e3d6000fd5b50506040517fffffffffffffffffffffffffffffffffffffffffffffffffffffffffffffffe0015191505073ffffffffffffffffffffffffffffffffffffffff811661227b57600060019250925050612282565b9150600090505b94509492505050565b6000807f7fffffffffffffffffffffffffffffffffffffffffffffffffffffffffffffff831660ff84901c601b016122c587828885612173565b935093505050935093915050565b60405180608001604052806004905b60408051808201909152600080825260208201528152602001906001900390816122e25790505090565b73ffffffffffffffffffffffffffffffffffffffff8116811461039957600080fd5b6000806040838503121561234157600080fd5b823561234c8161230c565b9150602083013560ff8116811461236257600080fd5b809150509250929050565b60006020828403121561237f57600080fd5b813561238a8161230c565b9392505050565b600080604083850312156123a457600080fd5b82356123af8161230c565b915060208301356123628161230c565b60008083601f8401126123d157600080fd5b50813567ffffffffffffffff8111156123e957600080fd5b602083019150836020828501011115611f1357600080fd5b60008060006040848603121561241657600080fd5b83356124218161230c565b9250602084013567ffffffffffffffff81111561243d57600080fd5b612449868287016123bf565b9497909650939450505050565b803563ffffffff8116811461246a57600080fd5b919050565b6000806000806060858703121561248557600080fd5b84356124908161230c565b935061249e60208601612456565b9250604085013567ffffffffffffffff8111156124ba57600080fd5b6124c6878288016123bf565b95989497509550505050565b600080602083850312156124e557600080fd5b823567ffffffffffffffff808211156124fd57600080fd5b818501915085601f83011261251157600080fd5b81358181111561252057600080fd5b8660208260051b850101111561253557600080fd5b60209290920196919550909350505050565b60008060006060848603121561255c57600080fd5b83356125678161230c565b925060208401356125778161230c565b929592945050506040919091013590565b7f4e487b7100000000000000000000000000000000000000000000000000000000600052601160045260246000fd5b60007fffffffffffffffffffffffffffffffffffffffffffffffffffffffffffffffff8214156125e9576125e9612588565b5060010190565b73ffffffffffffffffffffffffffffffffffffffff8416815260406020820152816040820152818360608301376000818301606090810191909152601f9092017fffffffffffffffffffffffffffffffffffffffffffffffffffffffffffffffe016010192915050565b60006020828403121561266c57600080fd5b8151801515811461238a57600080fd5b7f4e487b7100000000000000000000000000000000000000000000000000000000600052603260045260246000fd5b600082357fffffffffffffffffffffffffffffffffffffffffffffffffffffffffffffffa18336030181126126df57600080fd5b9190910192915050565b6000602082840312156126fb57600080fd5b61238a82612456565b60008083357fffffffffffffffffffffffffffffffffffffffffffffffffffffffffffffffe184360301811261273957600080fd5b83018035915067ffffffffffffffff82111561275457600080fd5b602001915036819003821315611f1357600080fd5b600063ffffffff80831681851680830382111561278857612788612588565b01949350505050565b7f4e487b7100000000000000000000000000000000000000000000000000000000600052601260045260246000fd5b6000826127cf576127cf612791565b500690565b6000816127e3576127e3612588565b507fffffffffffffffffffffffffffffffffffffffffffffffffffffffffffffffff0190565b60008261281857612818612791565b500490565b7f4e487b7100000000000000000000000000000000000000000000000000000000600052602160045260246000fdfea264697066735822122088bd0562504df11cccaec3951229fb0e675af52457f19110fce518e8a4a9af7064736f6c63430008090033",
  "devdoc": {
    "kind": "dev",
    "methods": {},
    "version": 1
  },
  "userdoc": {
    "kind": "user",
    "methods": {},
    "version": 1
  },
  "storageLayout": {
    "storage": [
      {
        "astId": 10778,
        "contract": "src/alliances/AllianceRegistry.sol:AllianceRegistry",
        "label": "_allianceNonces",
        "offset": 0,
        "slot": "0",
        "type": "t_mapping(t_address,t_mapping(t_contract(IAlliance)15134,t_uint256))"
      },
      {
        "astId": 10802,
        "contract": "src/alliances/AllianceRegistry.sol:AllianceRegistry",
        "label": "_alliances",
        "offset": 0,
        "slot": "1",
        "type": "t_mapping(t_address,t_struct(Alliances)10797_storage)"
      }
    ],
    "types": {
      "t_address": {
        "encoding": "inplace",
        "label": "address",
        "numberOfBytes": "20"
      },
      "t_contract(IAlliance)15134": {
        "encoding": "inplace",
        "label": "contract IAlliance",
        "numberOfBytes": "20"
      },
      "t_mapping(t_address,t_mapping(t_contract(IAlliance)15134,t_uint256))": {
        "encoding": "mapping",
        "key": "t_address",
        "label": "mapping(address => mapping(contract IAlliance => uint256))",
        "numberOfBytes": "32",
        "value": "t_mapping(t_contract(IAlliance)15134,t_uint256)"
      },
      "t_mapping(t_address,t_struct(Alliances)10797_storage)": {
        "encoding": "mapping",
        "key": "t_address",
        "label": "mapping(address => struct AllianceRegistry.Alliances)",
        "numberOfBytes": "32",
        "value": "t_struct(Alliances)10797_storage"
      },
      "t_mapping(t_contract(IAlliance)15134,t_uint256)": {
        "encoding": "mapping",
        "key": "t_contract(IAlliance)15134",
        "label": "mapping(contract IAlliance => uint256)",
        "numberOfBytes": "32",
        "value": "t_uint256"
      },
      "t_struct(AllianceRow)10784_storage": {
        "encoding": "inplace",
        "label": "struct AllianceRegistry.AllianceRow",
        "members": [
          {
            "astId": 10781,
            "contract": "src/alliances/AllianceRegistry.sol:AllianceRegistry",
            "label": "alliance",
            "offset": 0,
            "slot": "0",
            "type": "t_contract(IAlliance)15134"
          },
          {
            "astId": 10783,
            "contract": "src/alliances/AllianceRegistry.sol:AllianceRegistry",
            "label": "joinTime",
            "offset": 20,
            "slot": "0",
            "type": "t_uint96"
          }
        ],
        "numberOfBytes": "32"
      },
      "t_struct(Alliances)10797_storage": {
        "encoding": "inplace",
        "label": "struct AllianceRegistry.Alliances",
        "members": [
          {
            "astId": 10787,
            "contract": "src/alliances/AllianceRegistry.sol:AllianceRegistry",
            "label": "alliance0",
            "offset": 0,
            "slot": "0",
            "type": "t_struct(AllianceRow)10784_storage"
          },
          {
            "astId": 10790,
            "contract": "src/alliances/AllianceRegistry.sol:AllianceRegistry",
            "label": "alliance1",
            "offset": 0,
            "slot": "1",
            "type": "t_struct(AllianceRow)10784_storage"
          },
          {
            "astId": 10793,
            "contract": "src/alliances/AllianceRegistry.sol:AllianceRegistry",
            "label": "alliance2",
            "offset": 0,
            "slot": "2",
            "type": "t_struct(AllianceRow)10784_storage"
          },
          {
            "astId": 10796,
            "contract": "src/alliances/AllianceRegistry.sol:AllianceRegistry",
            "label": "alliance3",
            "offset": 0,
            "slot": "3",
            "type": "t_struct(AllianceRow)10784_storage"
          }
        ],
        "numberOfBytes": "128"
      },
      "t_uint256": {
        "encoding": "inplace",
        "label": "uint256",
        "numberOfBytes": "32"
      },
      "t_uint96": {
        "encoding": "inplace",
        "label": "uint96",
        "numberOfBytes": "12"
      }
    }
  }
}