{
  "address": "0x03F900739B325dea36001cC162d880c5296fe442",
  "abi": [
    {
      "inputs": [
        {
          "internalType": "contract AllianceRegistry",
          "name": "allianceRegistry",
          "type": "address"
        },
        {
          "internalType": "string",
          "name": "baseURI",
          "type": "string"
        }
      ],
      "stateMutability": "nonpayable",
      "type": "constructor"
    },
    {
      "inputs": [
        {
          "components": [
            {
              "internalType": "address",
              "name": "addr",
              "type": "address"
            },
            {
              "internalType": "uint32",
              "name": "nonce",
              "type": "uint32"
            },
            {
              "internalType": "bytes",
              "name": "signature",
              "type": "bytes"
            }
          ],
          "internalType": "struct AllianceRegistry.PlayerSubmission[]",
          "name": "playerSubmissions",
          "type": "tuple[]"
        }
      ],
      "name": "addMembers",
      "outputs": [],
      "stateMutability": "nonpayable",
      "type": "function"
    },
    {
      "inputs": [],
      "name": "admin",
      "outputs": [
        {
          "internalType": "address",
          "name": "",
          "type": "address"
        }
      ],
      "stateMutability": "view",
      "type": "function"
    },
    {
      "inputs": [
        {
          "internalType": "address",
          "name": "player",
          "type": "address"
        },
        {
          "internalType": "uint32",
          "name": "nonce",
          "type": "uint32"
        },
        {
          "internalType": "bytes",
          "name": "signature",
          "type": "bytes"
        },
        {
          "internalType": "bytes",
          "name": "inviteSignature",
          "type": "bytes"
        }
      ],
      "name": "claimInvite",
      "outputs": [],
      "stateMutability": "nonpayable",
      "type": "function"
    },
    {
      "inputs": [],
      "name": "frontendURI",
      "outputs": [
        {
          "internalType": "string",
          "name": "",
          "type": "string"
        }
      ],
      "stateMutability": "view",
      "type": "function"
    },
    {
      "inputs": [
        {
          "internalType": "bytes32",
          "name": "salt",
          "type": "bytes32"
        }
      ],
      "name": "getAddress",
      "outputs": [
        {
          "internalType": "address",
          "name": "",
          "type": "address"
        }
      ],
      "stateMutability": "view",
      "type": "function"
    },
    {
      "inputs": [
        {
          "internalType": "string",
          "name": "baseURI",
          "type": "string"
        }
      ],
      "name": "init",
      "outputs": [],
      "stateMutability": "nonpayable",
      "type": "function"
    },
    {
      "inputs": [
        {
          "internalType": "address",
          "name": "initialAdmin",
          "type": "address"
        },
        {
          "components": [
            {
              "internalType": "address",
              "name": "addr",
              "type": "address"
            },
            {
              "internalType": "uint32",
              "name": "nonce",
              "type": "uint32"
            },
            {
              "internalType": "bytes",
              "name": "signature",
              "type": "bytes"
            }
          ],
          "internalType": "struct AllianceRegistry.PlayerSubmission[]",
          "name": "playerSubmissions",
          "type": "tuple[]"
        },
        {
          "internalType": "bytes32",
          "name": "salt",
          "type": "bytes32"
        }
      ],
      "name": "instantiate",
      "outputs": [],
      "stateMutability": "nonpayable",
      "type": "function"
    },
    {
      "inputs": [
        {
          "internalType": "address",
          "name": "",
          "type": "address"
        }
      ],
      "name": "memberNonces",
      "outputs": [
        {
          "internalType": "uint32",
          "name": "",
          "type": "uint32"
        }
      ],
      "stateMutability": "view",
      "type": "function"
    },
    {
      "inputs": [
        {
          "internalType": "address",
          "name": "newAdmin",
          "type": "address"
        },
        {
          "components": [
            {
              "internalType": "address",
              "name": "addr",
              "type": "address"
            },
            {
              "internalType": "uint32",
              "name": "nonce",
              "type": "uint32"
            },
            {
              "internalType": "bytes",
              "name": "signature",
              "type": "bytes"
            }
          ],
          "internalType": "struct AllianceRegistry.PlayerSubmission[]",
          "name": "playerSubmissions",
          "type": "tuple[]"
        }
      ],
      "name": "setAdminAndAddMembers",
      "outputs": [],
      "stateMutability": "nonpayable",
      "type": "function"
    }
  ],
  "transactionHash": "0x7616493a1254688339cd72493372448a1bcd8e26a515794f9c0a4c86d5442f71",
  "args": [
    "0xe33441c9C6A913176a7573Df744cb34A8f39043e",
    "https://basic-alliances-dev.conquest.etherplay.io/alliances/#"
  ],
  "numDeployments": 1,
  "solcInputHash": "1e3f71d1fdaa014c84f37911f255e75e",
  "bytecode": "0x60a06040523480156200001157600080fd5b5060405162002378380380620023788339810160408190526200003491620001a0565b6001600160a01b038216608052600080546001600160a81b031916610101179055620000608162000068565b5050620002dd565b600180546200007790620002a0565b159050620000cb5760405162461bcd60e51b815260206004820152601360248201527f414c52454144595f494e495449414c4953454400000000000000000000000000604482015260640160405180910390fd5b8051620000e0906001906020840190620000e4565b5050565b828054620000f290620002a0565b90600052602060002090601f01602090048101928262000116576000855562000161565b82601f106200013157805160ff191683800117855562000161565b8280016001018555821562000161579182015b828111156200016157825182559160200191906001019062000144565b506200016f92915062000173565b5090565b5b808211156200016f576000815560010162000174565b634e487b7160e01b600052604160045260246000fd5b60008060408385031215620001b457600080fd5b82516001600160a01b0381168114620001cc57600080fd5b602084810151919350906001600160401b0380821115620001ec57600080fd5b818601915086601f8301126200020157600080fd5b8151818111156200021657620002166200018a565b604051601f8201601f19908116603f011681019083821181831017156200024157620002416200018a565b8160405282815289868487010111156200025a57600080fd5b600093505b828410156200027e57848401860151818501870152928501926200025f565b82841115620002905760008684830101525b8096505050505050509250929050565b600181811c90821680620002b557607f821691505b60208210811415620002d757634e487b7160e01b600052602260045260246000fd5b50919050565b608051612071620003076000396000818161028301528181610aa90152610cdc01526120716000f3fe608060405234801561001057600080fd5b50600436106100a35760003560e01c80636ca1d0ed11610076578063f851a4401161005b578063f851a44014610170578063f9fbdb9e14610195578063fc4c03b4146101a857600080fd5b80636ca1d0ed1461014a578063f5f340591461015d57600080fd5b80630b7465e4146100a857806321f8a721146100bd57806340e2dfcf146100fa5780634fcead5714610135575b600080fd5b6100bb6100b636600461175b565b6101bb565b005b6100d06100cb36600461179d565b6102f0565b60405173ffffffffffffffffffffffffffffffffffffffff90911681526020015b60405180910390f35b6101206101083660046117df565b60026020526000908152604090205463ffffffff1681565b60405163ffffffff90911681526020016100f1565b61013d610433565b6040516100f19190611826565b6100bb610158366004611877565b610467565b6100bb61016b366004611927565b61064c565b6000546100d090610100900473ffffffffffffffffffffffffffffffffffffffff1681565b6100bb6101a33660046119e7565b610b22565b6100bb6101b6366004611ab6565b610baf565b600054610100900473ffffffffffffffffffffffffffffffffffffffff163314610246576040517f08c379a000000000000000000000000000000000000000000000000000000000815260206004820152600b60248201527f4e4f545f414c4c4f57454400000000000000000000000000000000000000000060448201526064015b60405180910390fd5b6040517f8efb75c300000000000000000000000000000000000000000000000000000000815273ffffffffffffffffffffffffffffffffffffffff7f00000000000000000000000000000000000000000000000000000000000000001690638efb75c3906102ba9085908590600401611c7b565b600060405180830381600087803b1580156102d457600080fd5b505af11580156102e8573d6000803e3d6000fd5b505050505050565b6000805460ff1661035d576040517f08c379a000000000000000000000000000000000000000000000000000000000815260206004820152601e60248201527f43414e4e4f545f494e5354414e54494154455f46524f4d5f434c4f4e45530000604482015260640161023d565b61042d3083336040516020016103a292919091825260601b7fffffffffffffffffffffffffffffffffffffffff00000000000000000000000016602082015260340190565b60405160208183030381529060405280519060200120306040517f3d602d80600a3d3981f3363d3d373d3d3d363d730000000000000000000000008152606093841b60148201527f5af43d82803e903d91602b57fd5bf3ff000000000000000000000000000000006028820152921b6038830152604c8201526037808220606c830152605591012090565b92915050565b60606001610442306014610d4c565b604051602001610453929190611ceb565b604051602081830303815290604052905090565b60005460ff166104d3576040517f08c379a000000000000000000000000000000000000000000000000000000000815260206004820152601e60248201527f43414e4e4f545f494e5354414e54494154455f46524f4d5f434c4f4e45530000604482015260640161023d565b600061053530833360405160200161051a92919091825260601b7fffffffffffffffffffffffffffffffffffffffff00000000000000000000000016602082015260340190565b60405160208183030381529060405280519060200120610f96565b6040517ff9fbdb9e00000000000000000000000000000000000000000000000000000000815290915073ffffffffffffffffffffffffffffffffffffffff82169063f9fbdb9e9061058b90600190600401611d8c565b600060405180830381600087803b1580156105a557600080fd5b505af11580156105b9573d6000803e3d6000fd5b50506040517ffc4c03b400000000000000000000000000000000000000000000000000000000815273ffffffffffffffffffffffffffffffffffffffff8416925063fc4c03b4915061061390889088908890600401611e2f565b600060405180830381600087803b15801561062d57600080fd5b505af1158015610641573d6000803e3d6000fd5b505050505050505050565b73ffffffffffffffffffffffffffffffffffffffff861660009081526002602052604090205463ffffffff90811690861681146106e5576040517f08c379a000000000000000000000000000000000000000000000000000000000815260206004820152600d60248201527f494e56414c49445f4e4f4e434500000000000000000000000000000000000000604482015260640161023d565b6106f0866001611e97565b73ffffffffffffffffffffffffffffffffffffffff8816600090815260026020526040902080547fffffffffffffffffffffffffffffffffffffffffffffffffffffffff000000001663ffffffff9283161790556060908716610855576040517f19457468657265756d205369676e6564204d6573736167653a0a31313100000060208201527f496e7669746520506c6179657220307830303030303030303030303030303030603d8201527f30303030303030303030303030303030303030303030303020546f20416c6c69605d8201527f616e636520307830303030303030303030303030303030303030303030303030607d8201527f3030303030303030303030303030300000000000000000000000000000000000609d82015260ac0160405160208183030381529060405290506108448160548a73ffffffffffffffffffffffffffffffffffffffff16611074565b61085081608b30611074565b610990565b6040517f19457468657265756d205369676e6564204d6573736167653a0a31333100000060208201527f496e7669746520506c6179657220307830303030303030303030303030303030603d8201527f30303030303030303030303030303030303030303030303020546f20416c6c69605d8201527f616e636520307830303030303030303030303030303030303030303030303030607d8201527f30303030303030303030303030303020286e6f6e63653a202020202020202020609d8201527f203029000000000000000000000000000000000000000000000000000000000060bd82015260c00160405160208183030381529060405290506109728160548a73ffffffffffffffffffffffffffffffffffffffff16611074565b61097e81608b30611074565b61099081609e8963ffffffff16611153565b60008180519060200120905060006109e086868080601f016020809104026020016040519081016040528093929190818152602001838380828437600092019190915250869392505061122d9050565b60005490915073ffffffffffffffffffffffffffffffffffffffff8083166101009092041614610a6c576040517f08c379a000000000000000000000000000000000000000000000000000000000815260206004820152601860248201527f494e56414c49445f494e564954455f5349474e41545552450000000000000000604482015260640161023d565b6040517f6da0663000000000000000000000000000000000000000000000000000000000815273ffffffffffffffffffffffffffffffffffffffff7f00000000000000000000000000000000000000000000000000000000000000001690636da0663090610ae4908d908d908d908d90600401611eb6565b600060405180830381600087803b158015610afe57600080fd5b505af1158015610b12573d6000803e3d6000fd5b5050505050505050505050505050565b60018054610b2f90611c97565b159050610b98576040517f08c379a000000000000000000000000000000000000000000000000000000000815260206004820152601360248201527f414c52454144595f494e495449414c4953454400000000000000000000000000604482015260640161023d565b8051610bab90600190602084019061167d565b5050565b600054610100900473ffffffffffffffffffffffffffffffffffffffff16801580610bef57503373ffffffffffffffffffffffffffffffffffffffff8216145b610c55576040517f08c379a000000000000000000000000000000000000000000000000000000000815260206004820152600b60248201527f4e4f545f414c4c4f574544000000000000000000000000000000000000000000604482015260640161023d565b600080547fffffffffffffffffffffff0000000000000000000000000000000000000000ff1661010073ffffffffffffffffffffffffffffffffffffffff8716021790558115610d46576040517f8efb75c300000000000000000000000000000000000000000000000000000000815273ffffffffffffffffffffffffffffffffffffffff7f00000000000000000000000000000000000000000000000000000000000000001690638efb75c390610d139086908690600401611c7b565b600060405180830381600087803b158015610d2d57600080fd5b505af1158015610d41573d6000803e3d6000fd5b505050505b50505050565b60606000610d5b836002611efc565b610d66906002611f39565b67ffffffffffffffff811115610d7e57610d7e6119b8565b6040519080825280601f01601f191660200182016040528015610da8576020820181803683370190505b5090507f300000000000000000000000000000000000000000000000000000000000000081600081518110610ddf57610ddf611f51565b60200101907effffffffffffffffffffffffffffffffffffffffffffffffffffffffffffff1916908160001a9053507f780000000000000000000000000000000000000000000000000000000000000081600181518110610e4257610e42611f51565b60200101907effffffffffffffffffffffffffffffffffffffffffffffffffffffffffffff1916908160001a9053506000610e7e846002611efc565b610e89906001611f39565b90505b6001811115610f26577f303132333435363738396162636465660000000000000000000000000000000085600f1660108110610eca57610eca611f51565b1a60f81b828281518110610ee057610ee0611f51565b60200101907effffffffffffffffffffffffffffffffffffffffffffffffffffffffffffff1916908160001a90535060049490941c93610f1f81611f80565b9050610e8c565b508315610f8f576040517f08c379a000000000000000000000000000000000000000000000000000000000815260206004820181905260248201527f537472696e67733a20686578206c656e67746820696e73756666696369656e74604482015260640161023d565b9392505050565b60006040517f3d602d80600a3d3981f3363d3d373d3d3d363d7300000000000000000000000081528360601b60148201527f5af43d82803e903d91602b57fd5bf300000000000000000000000000000000006028820152826037826000f591505073ffffffffffffffffffffffffffffffffffffffff811661042d576040517f08c379a000000000000000000000000000000000000000000000000000000000815260206004820152601760248201527f455243313136373a2063726561746532206661696c6564000000000000000000604482015260640161023d565b801561114e576040805180820190915260108082527f303132333435363738396162636465660000000000000000000000000000000060208301526110b99083611fe4565b815181106110c9576110c9611f51565b01602001517fff000000000000000000000000000000000000000000000000000000000000001683836110fb81611f80565b94508151811061110d5761110d611f51565b60200101907effffffffffffffffffffffffffffffffffffffffffffffffffffffffffffff1916908160001a905350611147601082611ff8565b9050611074565b505050565b801561114e5760408051808201909152600a8082527f303132333435363738390000000000000000000000000000000000000000000060208301526111989083611fe4565b815181106111a8576111a8611f51565b01602001517fff000000000000000000000000000000000000000000000000000000000000001683836111da81611f80565b9450815181106111ec576111ec611f51565b60200101907effffffffffffffffffffffffffffffffffffffffffffffffffffffffffffff1916908160001a905350611226600a82611ff8565b9050611153565b600080600061123c8585611251565b91509150611249816112c1565b509392505050565b6000808251604114156112885760208301516040840151606085015160001a61127c8782858561151d565b945094505050506112ba565b8251604014156112b257602083015160408401516112a7868383611635565b9350935050506112ba565b506000905060025b9250929050565b60008160048111156112d5576112d561200c565b14156112de5750565b60018160048111156112f2576112f261200c565b141561135a576040517f08c379a000000000000000000000000000000000000000000000000000000000815260206004820152601860248201527f45434453413a20696e76616c6964207369676e61747572650000000000000000604482015260640161023d565b600281600481111561136e5761136e61200c565b14156113d6576040517f08c379a000000000000000000000000000000000000000000000000000000000815260206004820152601f60248201527f45434453413a20696e76616c6964207369676e6174757265206c656e67746800604482015260640161023d565b60038160048111156113ea576113ea61200c565b1415611478576040517f08c379a000000000000000000000000000000000000000000000000000000000815260206004820152602260248201527f45434453413a20696e76616c6964207369676e6174757265202773272076616c60448201527f7565000000000000000000000000000000000000000000000000000000000000606482015260840161023d565b600481600481111561148c5761148c61200c565b141561151a576040517f08c379a000000000000000000000000000000000000000000000000000000000815260206004820152602260248201527f45434453413a20696e76616c6964207369676e6174757265202776272076616c60448201527f7565000000000000000000000000000000000000000000000000000000000000606482015260840161023d565b50565b6000807f7fffffffffffffffffffffffffffffff5d576e7357a4501ddfe92f46681b20a0831115611554575060009050600361162c565b8460ff16601b1415801561156c57508460ff16601c14155b1561157d575060009050600461162c565b6040805160008082526020820180845289905260ff881692820192909252606081018690526080810185905260019060a0016020604051602081039080840390855afa1580156115d1573d6000803e3d6000fd5b50506040517fffffffffffffffffffffffffffffffffffffffffffffffffffffffffffffffe0015191505073ffffffffffffffffffffffffffffffffffffffff81166116255760006001925092505061162c565b9150600090505b94509492505050565b6000807f7fffffffffffffffffffffffffffffffffffffffffffffffffffffffffffffff831660ff84901c601b0161166f8782888561151d565b935093505050935093915050565b82805461168990611c97565b90600052602060002090601f0160209004810192826116ab57600085556116f1565b82601f106116c457805160ff19168380011785556116f1565b828001600101855582156116f1579182015b828111156116f15782518255916020019190600101906116d6565b506116fd929150611701565b5090565b5b808211156116fd5760008155600101611702565b60008083601f84011261172857600080fd5b50813567ffffffffffffffff81111561174057600080fd5b6020830191508360208260051b85010111156112ba57600080fd5b6000806020838503121561176e57600080fd5b823567ffffffffffffffff81111561178557600080fd5b61179185828601611716565b90969095509350505050565b6000602082840312156117af57600080fd5b5035919050565b803573ffffffffffffffffffffffffffffffffffffffff811681146117da57600080fd5b919050565b6000602082840312156117f157600080fd5b610f8f826117b6565b60005b838110156118155781810151838201526020016117fd565b83811115610d465750506000910152565b60208152600082518060208401526118458160408501602087016117fa565b601f017fffffffffffffffffffffffffffffffffffffffffffffffffffffffffffffffe0169190910160400192915050565b6000806000806060858703121561188d57600080fd5b611896856117b6565b9350602085013567ffffffffffffffff8111156118b257600080fd5b6118be87828801611716565b9598909750949560400135949350505050565b803563ffffffff811681146117da57600080fd5b60008083601f8401126118f757600080fd5b50813567ffffffffffffffff81111561190f57600080fd5b6020830191508360208285010111156112ba57600080fd5b6000806000806000806080878903121561194057600080fd5b611949876117b6565b9550611957602088016118d1565b9450604087013567ffffffffffffffff8082111561197457600080fd5b6119808a838b016118e5565b9096509450606089013591508082111561199957600080fd5b506119a689828a016118e5565b979a9699509497509295939492505050565b7f4e487b7100000000000000000000000000000000000000000000000000000000600052604160045260246000fd5b6000602082840312156119f957600080fd5b813567ffffffffffffffff80821115611a1157600080fd5b818401915084601f830112611a2557600080fd5b813581811115611a3757611a376119b8565b604051601f82017fffffffffffffffffffffffffffffffffffffffffffffffffffffffffffffffe0908116603f01168101908382118183101715611a7d57611a7d6119b8565b81604052828152876020848701011115611a9657600080fd5b826020860160208301376000928101602001929092525095945050505050565b600080600060408486031215611acb57600080fd5b611ad4846117b6565b9250602084013567ffffffffffffffff811115611af057600080fd5b611afc86828701611716565b9497909650939450505050565b8183528181602085013750600060208284010152600060207fffffffffffffffffffffffffffffffffffffffffffffffffffffffffffffffe0601f840116840101905092915050565b81835260006020808501808196508560051b810191508460005b87811015611c6e57828403895281357fffffffffffffffffffffffffffffffffffffffffffffffffffffffffffffffa1883603018112611bab57600080fd5b8701606073ffffffffffffffffffffffffffffffffffffffff611bcd836117b6565b16865263ffffffff611be08884016118d1565b16878701526040808301357fffffffffffffffffffffffffffffffffffffffffffffffffffffffffffffffe1843603018112611c1b57600080fd5b8301803567ffffffffffffffff811115611c3457600080fd5b803603851315611c4357600080fd5b83838a0152611c57848a01828c8501611b09565b9d8a019d9850505093870193505050600101611b6c565b5091979650505050505050565b602081526000611c8f602083018486611b52565b949350505050565b600181811c90821680611cab57607f821691505b60208210811415611ce5577f4e487b7100000000000000000000000000000000000000000000000000000000600052602260045260246000fd5b50919050565b6000808454611cf981611c97565b60018281168015611d115760018114611d4057611d6f565b7fffffffffffffffffffffffffffffffffffffffffffffffffffffffffffffff00841687528287019450611d6f565b8860005260208060002060005b85811015611d665781548a820152908401908201611d4d565b50505082870194505b505050508351611d838183602088016117fa565b01949350505050565b6000602080835260008454611da081611c97565b80848701526040600180841660008114611dc15760018114611df357611e21565b7fffffffffffffffffffffffffffffffffffffffffffffffffffffffffffffff008516838a0152606089019550611e21565b896000528660002060005b85811015611e195781548b8201860152908301908801611dfe565b8a0184019650505b509398975050505050505050565b73ffffffffffffffffffffffffffffffffffffffff84168152604060208201526000611e5f604083018486611b52565b95945050505050565b7f4e487b7100000000000000000000000000000000000000000000000000000000600052601160045260246000fd5b600063ffffffff808316818516808303821115611d8357611d83611e68565b73ffffffffffffffffffffffffffffffffffffffff8516815263ffffffff84166020820152606060408201526000611ef2606083018486611b09565b9695505050505050565b6000817fffffffffffffffffffffffffffffffffffffffffffffffffffffffffffffffff0483118215151615611f3457611f34611e68565b500290565b60008219821115611f4c57611f4c611e68565b500190565b7f4e487b7100000000000000000000000000000000000000000000000000000000600052603260045260246000fd5b600081611f8f57611f8f611e68565b507fffffffffffffffffffffffffffffffffffffffffffffffffffffffffffffffff0190565b7f4e487b7100000000000000000000000000000000000000000000000000000000600052601260045260246000fd5b600082611ff357611ff3611fb5565b500690565b60008261200757612007611fb5565b500490565b7f4e487b7100000000000000000000000000000000000000000000000000000000600052602160045260246000fdfea264697066735822122073f5c0adcbfa4944bfd4c5ef4c177aa91dd949a3b574dbfe6b296010085be72e64736f6c63430008090033",
  "devdoc": {
    "kind": "dev",
    "methods": {},
    "version": 1
  },
  "userdoc": {
    "kind": "user",
    "methods": {},
    "version": 1
  },
  "storageLayout": {
    "storage": [
      {
        "astId": 12611,
        "contract": "src/alliances/BasicAlliance.sol:BasicAlliance",
        "label": "_original",
        "offset": 0,
        "slot": "0",
        "type": "t_bool"
      },
      {
        "astId": 12616,
        "contract": "src/alliances/BasicAlliance.sol:BasicAlliance",
        "label": "admin",
        "offset": 1,
        "slot": "0",
        "type": "t_address"
      },
      {
        "astId": 12618,
        "contract": "src/alliances/BasicAlliance.sol:BasicAlliance",
        "label": "_baseURI",
        "offset": 0,
        "slot": "1",
        "type": "t_string_storage"
      },
      {
        "astId": 12622,
        "contract": "src/alliances/BasicAlliance.sol:BasicAlliance",
        "label": "memberNonces",
        "offset": 0,
        "slot": "2",
        "type": "t_mapping(t_address,t_uint32)"
      }
    ],
    "types": {
      "t_address": {
        "encoding": "inplace",
        "label": "address",
        "numberOfBytes": "20"
      },
      "t_bool": {
        "encoding": "inplace",
        "label": "bool",
        "numberOfBytes": "1"
      },
      "t_mapping(t_address,t_uint32)": {
        "encoding": "mapping",
        "key": "t_address",
        "label": "mapping(address => uint32)",
        "numberOfBytes": "32",
        "value": "t_uint32"
      },
      "t_string_storage": {
        "encoding": "bytes",
        "label": "string",
        "numberOfBytes": "32"
      },
      "t_uint32": {
        "encoding": "inplace",
        "label": "uint32",
        "numberOfBytes": "4"
      }
    }
  }
}