{
  "address": "0x171b33E5ec357ffef018661E0Dd5a83298Ea3A23",
  "abi": [
    {
      "inputs": [
        {
          "internalType": "contract AllianceRegistry",
          "name": "allianceRegistry",
          "type": "address"
        }
      ],
      "stateMutability": "nonpayable",
      "type": "constructor"
    },
    {
      "inputs": [
        {
          "components": [
            {
              "internalType": "address",
              "name": "addr",
              "type": "address"
            },
            {
              "internalType": "uint32",
              "name": "nonce",
              "type": "uint32"
            },
            {
              "internalType": "bytes",
              "name": "signature",
              "type": "bytes"
            }
          ],
          "internalType": "struct AllianceRegistry.PlayerSubmission[]",
          "name": "playerSubmissions",
          "type": "tuple[]"
        }
      ],
      "name": "addMembers",
      "outputs": [],
      "stateMutability": "nonpayable",
      "type": "function"
    },
    {
      "inputs": [],
      "name": "admin",
      "outputs": [
        {
          "internalType": "address",
          "name": "",
          "type": "address"
        }
      ],
      "stateMutability": "view",
      "type": "function"
    },
    {
      "inputs": [
        {
          "internalType": "bytes32",
          "name": "salt",
          "type": "bytes32"
        }
      ],
      "name": "getAddress",
      "outputs": [
        {
          "internalType": "address",
          "name": "",
          "type": "address"
        }
      ],
      "stateMutability": "view",
      "type": "function"
    },
    {
      "inputs": [
        {
          "internalType": "address",
          "name": "initialAdmin",
          "type": "address"
        },
        {
          "components": [
            {
              "internalType": "address",
              "name": "addr",
              "type": "address"
            },
            {
              "internalType": "uint32",
              "name": "nonce",
              "type": "uint32"
            },
            {
              "internalType": "bytes",
              "name": "signature",
              "type": "bytes"
            }
          ],
          "internalType": "struct AllianceRegistry.PlayerSubmission[]",
          "name": "playerSubmissions",
          "type": "tuple[]"
        },
        {
          "internalType": "bytes32",
          "name": "salt",
          "type": "bytes32"
        }
      ],
      "name": "instantiate",
      "outputs": [],
      "stateMutability": "nonpayable",
      "type": "function"
    },
    {
      "inputs": [
        {
          "internalType": "address",
          "name": "newAdmin",
          "type": "address"
        },
        {
          "components": [
            {
              "internalType": "address",
              "name": "addr",
              "type": "address"
            },
            {
              "internalType": "uint32",
              "name": "nonce",
              "type": "uint32"
            },
            {
              "internalType": "bytes",
              "name": "signature",
              "type": "bytes"
            }
          ],
          "internalType": "struct AllianceRegistry.PlayerSubmission[]",
          "name": "playerSubmissions",
          "type": "tuple[]"
        }
      ],
      "name": "setAdminAndAddMembers",
      "outputs": [],
      "stateMutability": "nonpayable",
      "type": "function"
    }
  ],
  "transactionHash": "0xa0043c587b85ca51f44e3803527d19060cad86f2e1ef86e03416eb812667b8ca",
  "args": [
    "0x62aa7B084801BFD8F2B32480C80e321290E79A47"
  ],
  "numDeployments": 1,
  "solcInputHash": "54031a5456ab27c09a0d821c4b18f56f",
  "bytecode": "0x60a060405234801561001057600080fd5b50604051610b83380380610b8383398101604081905261002f91610054565b6001600160a01b0316608052600080546001600160a81b031916610101179055610084565b60006020828403121561006657600080fd5b81516001600160a01b038116811461007d57600080fd5b9392505050565b608051610add6100a6600039600081816101d0015261060d0152610add6000f3fe608060405234801561001057600080fd5b50600436106100675760003560e01c80636ca1d0ed116100505780636ca1d0ed146100bd578063f851a440146100d0578063fc4c03b4146100f557600080fd5b80630b7465e41461006c57806321f8a72114610081575b600080fd5b61007f61007a3660046107a7565b610108565b005b61009461008f3660046107e9565b61023d565b60405173ffffffffffffffffffffffffffffffffffffffff909116815260200160405180910390f35b61007f6100cb36600461082b565b610380565b60005461009490610100900473ffffffffffffffffffffffffffffffffffffffff1681565b61007f610103366004610885565b6104e0565b600054610100900473ffffffffffffffffffffffffffffffffffffffff163314610193576040517f08c379a000000000000000000000000000000000000000000000000000000000815260206004820152600b60248201527f4e4f545f414c4c4f57454400000000000000000000000000000000000000000060448201526064015b60405180910390fd5b6040517f8efb75c300000000000000000000000000000000000000000000000000000000815273ffffffffffffffffffffffffffffffffffffffff7f00000000000000000000000000000000000000000000000000000000000000001690638efb75c3906102079085908590600401610a52565b600060405180830381600087803b15801561022157600080fd5b505af1158015610235573d6000803e3d6000fd5b505050505050565b6000805460ff166102aa576040517f08c379a000000000000000000000000000000000000000000000000000000000815260206004820152601e60248201527f43414e4e4f545f494e5354414e54494154455f46524f4d5f434c4f4e45530000604482015260640161018a565b61037a3083336040516020016102ef92919091825260601b7fffffffffffffffffffffffffffffffffffffffff00000000000000000000000016602082015260340190565b60405160208183030381529060405280519060200120306040517f3d602d80600a3d3981f3363d3d373d3d3d363d730000000000000000000000008152606093841b60148201527f5af43d82803e903d91602b57fd5bf3ff000000000000000000000000000000006028820152921b6038830152604c8201526037808220606c830152605591012090565b92915050565b60005460ff166103ec576040517f08c379a000000000000000000000000000000000000000000000000000000000815260206004820152601e60248201527f43414e4e4f545f494e5354414e54494154455f46524f4d5f434c4f4e45530000604482015260640161018a565b600061044e30833360405160200161043392919091825260601b7fffffffffffffffffffffffffffffffffffffffff00000000000000000000000016602082015260340190565b6040516020818303038152906040528051906020012061067d565b6040517ffc4c03b400000000000000000000000000000000000000000000000000000000815290915073ffffffffffffffffffffffffffffffffffffffff82169063fc4c03b4906104a790889088908890600401610a6e565b600060405180830381600087803b1580156104c157600080fd5b505af11580156104d5573d6000803e3d6000fd5b505050505050505050565b600054610100900473ffffffffffffffffffffffffffffffffffffffff1680158061052057503373ffffffffffffffffffffffffffffffffffffffff8216145b610586576040517f08c379a000000000000000000000000000000000000000000000000000000000815260206004820152600b60248201527f4e4f545f414c4c4f574544000000000000000000000000000000000000000000604482015260640161018a565b600080547fffffffffffffffffffffff0000000000000000000000000000000000000000ff1661010073ffffffffffffffffffffffffffffffffffffffff8716021790558115610677576040517f8efb75c300000000000000000000000000000000000000000000000000000000815273ffffffffffffffffffffffffffffffffffffffff7f00000000000000000000000000000000000000000000000000000000000000001690638efb75c3906106449086908690600401610a52565b600060405180830381600087803b15801561065e57600080fd5b505af1158015610672573d6000803e3d6000fd5b505050505b50505050565b60006040517f3d602d80600a3d3981f3363d3d373d3d3d363d7300000000000000000000000081528360601b60148201527f5af43d82803e903d91602b57fd5bf300000000000000000000000000000000006028820152826037826000f591505073ffffffffffffffffffffffffffffffffffffffff811661037a576040517f08c379a000000000000000000000000000000000000000000000000000000000815260206004820152601760248201527f455243313136373a2063726561746532206661696c6564000000000000000000604482015260640161018a565b60008083601f84011261076d57600080fd5b50813567ffffffffffffffff81111561078557600080fd5b6020830191508360208260051b85010111156107a057600080fd5b9250929050565b600080602083850312156107ba57600080fd5b823567ffffffffffffffff8111156107d157600080fd5b6107dd8582860161075b565b90969095509350505050565b6000602082840312156107fb57600080fd5b5035919050565b803573ffffffffffffffffffffffffffffffffffffffff8116811461082657600080fd5b919050565b6000806000806060858703121561084157600080fd5b61084a85610802565b9350602085013567ffffffffffffffff81111561086657600080fd5b6108728782880161075b565b9598909750949560400135949350505050565b60008060006040848603121561089a57600080fd5b6108a384610802565b9250602084013567ffffffffffffffff8111156108bf57600080fd5b6108cb8682870161075b565b9497909650939450505050565b8183528181602085013750600060208284010152600060207fffffffffffffffffffffffffffffffffffffffffffffffffffffffffffffffe0601f840116840101905092915050565b81835260006020808501808196508560051b810191508460005b87811015610a4557828403895281357fffffffffffffffffffffffffffffffffffffffffffffffffffffffffffffffa188360301811261097a57600080fd5b8701606073ffffffffffffffffffffffffffffffffffffffff61099c83610802565b1686528682013563ffffffff81168082146109b657600080fd5b8789015250604082810135368490037fffffffffffffffffffffffffffffffffffffffffffffffffffffffffffffffe10181126109f257600080fd5b8301803567ffffffffffffffff811115610a0b57600080fd5b803603851315610a1a57600080fd5b83838a0152610a2e848a01828c85016108d8565b9d8a019d985050509387019350505060010161093b565b5091979650505050505050565b602081526000610a66602083018486610921565b949350505050565b73ffffffffffffffffffffffffffffffffffffffff84168152604060208201526000610a9e604083018486610921565b9594505050505056fea2646970667358221220e5f8456c148e00c94d1650dc8862d4698e0e865b38e2fa1d98f9c1a51b5f6dfa64736f6c63430008090033",
  "devdoc": {
    "kind": "dev",
    "methods": {},
    "version": 1
  },
  "userdoc": {
    "kind": "user",
    "methods": {},
    "version": 1
  },
  "storageLayout": {
    "storage": [
      {
        "astId": 12114,
        "contract": "src/alliances/BasicAlliance.sol:BasicAlliance",
        "label": "_original",
        "offset": 0,
        "slot": "0",
        "type": "t_bool"
      },
      {
        "astId": 12119,
        "contract": "src/alliances/BasicAlliance.sol:BasicAlliance",
        "label": "admin",
        "offset": 1,
        "slot": "0",
        "type": "t_address"
      }
    ],
    "types": {
      "t_address": {
        "encoding": "inplace",
        "label": "address",
        "numberOfBytes": "20"
      },
      "t_bool": {
        "encoding": "inplace",
        "label": "bool",
        "numberOfBytes": "1"
      }
    }
  }
}