{
  "address": "0x78043197C5c7cA3C364efeBBacEf9a4f60b1CFC3",
  "abi": [
    {
      "inputs": [
        {
          "internalType": "address",
          "name": "gateway",
          "type": "address"
        },
        {
          "internalType": "address",
          "name": "l2Contract",
          "type": "address"
        }
      ],
      "stateMutability": "nonpayable",
      "type": "constructor"
    },
    {
      "anonymous": false,
      "inputs": [
        {
          "indexed": true,
          "internalType": "address",
          "name": "owner",
          "type": "address"
        },
        {
          "indexed": true,
          "internalType": "address",
          "name": "spender",
          "type": "address"
        },
        {
          "indexed": false,
          "internalType": "uint256",
          "name": "value",
          "type": "uint256"
        }
      ],
      "name": "Approval",
      "type": "event"
    },
    {
      "anonymous": false,
      "inputs": [
        {
          "indexed": true,
          "internalType": "address",
          "name": "from",
          "type": "address"
        },
        {
          "indexed": true,
          "internalType": "address",
          "name": "to",
          "type": "address"
        },
        {
          "indexed": false,
          "internalType": "uint256",
          "name": "value",
          "type": "uint256"
        }
      ],
      "name": "Transfer",
      "type": "event"
    },
    {
      "inputs": [],
      "name": "DOMAIN_SEPARATOR",
      "outputs": [
        {
          "internalType": "bytes32",
          "name": "",
          "type": "bytes32"
        }
      ],
      "stateMutability": "view",
      "type": "function"
    },
    {
      "inputs": [
        {
          "internalType": "address",
          "name": "owner",
          "type": "address"
        },
        {
          "internalType": "address",
          "name": "spender",
          "type": "address"
        }
      ],
      "name": "allowance",
      "outputs": [
        {
          "internalType": "uint256",
          "name": "",
          "type": "uint256"
        }
      ],
      "stateMutability": "view",
      "type": "function"
    },
    {
      "inputs": [
        {
          "internalType": "address[]",
          "name": "accounts",
          "type": "address[]"
        }
      ],
      "name": "anyNotAuthorized",
      "outputs": [
        {
          "internalType": "bool",
          "name": "",
          "type": "bool"
        }
      ],
      "stateMutability": "view",
      "type": "function"
    },
    {
      "inputs": [
        {
          "internalType": "address",
          "name": "spender",
          "type": "address"
        },
        {
          "internalType": "uint256",
          "name": "amount",
          "type": "uint256"
        }
      ],
      "name": "approve",
      "outputs": [
        {
          "internalType": "bool",
          "name": "",
          "type": "bool"
        }
      ],
      "stateMutability": "nonpayable",
      "type": "function"
    },
    {
      "inputs": [
        {
          "internalType": "address",
          "name": "spender",
          "type": "address"
        },
        {
          "internalType": "uint256",
          "name": "amount",
          "type": "uint256"
        },
        {
          "internalType": "bytes",
          "name": "data",
          "type": "bytes"
        }
      ],
      "name": "approveAndCall",
      "outputs": [
        {
          "internalType": "bool",
          "name": "",
          "type": "bool"
        }
      ],
      "stateMutability": "nonpayable",
      "type": "function"
    },
    {
      "inputs": [
        {
          "internalType": "address[]",
          "name": "accounts",
          "type": "address[]"
        },
        {
          "internalType": "bool",
          "name": "auth",
          "type": "bool"
        }
      ],
      "name": "authorize",
      "outputs": [],
      "stateMutability": "nonpayable",
      "type": "function"
    },
    {
      "inputs": [
        {
          "internalType": "address",
          "name": "",
          "type": "address"
        }
      ],
      "name": "authorized",
      "outputs": [
        {
          "internalType": "bool",
          "name": "",
          "type": "bool"
        }
      ],
      "stateMutability": "view",
      "type": "function"
    },
    {
      "inputs": [
        {
          "internalType": "address",
          "name": "owner",
          "type": "address"
        }
      ],
      "name": "balanceOf",
      "outputs": [
        {
          "internalType": "uint256",
          "name": "",
          "type": "uint256"
        }
      ],
      "stateMutability": "view",
      "type": "function"
    },
    {
      "inputs": [],
      "name": "decimals",
      "outputs": [
        {
          "internalType": "uint8",
          "name": "",
          "type": "uint8"
        }
      ],
      "stateMutability": "pure",
      "type": "function"
    },
    {
      "inputs": [
        {
          "internalType": "address payable[]",
          "name": "tos",
          "type": "address[]"
        },
        {
          "internalType": "uint256",
          "name": "totalAmount",
          "type": "uint256"
        }
      ],
      "name": "distributeAlongWithETH",
      "outputs": [
        {
          "internalType": "bool",
          "name": "",
          "type": "bool"
        }
      ],
      "stateMutability": "payable",
      "type": "function"
    },
    {
      "inputs": [
        {
          "internalType": "address payable[]",
          "name": "tos",
          "type": "address[]"
        },
        {
          "internalType": "uint256[]",
          "name": "amounts",
          "type": "uint256[]"
        }
      ],
      "name": "distributeVariousAmountsAlongWithETH",
      "outputs": [
        {
          "internalType": "bool",
          "name": "",
          "type": "bool"
        }
      ],
      "stateMutability": "payable",
      "type": "function"
    },
    {
      "inputs": [
        {
          "internalType": "address[]",
          "name": "accounts",
          "type": "address[]"
        }
      ],
      "name": "enableRequireAuthorization",
      "outputs": [],
      "stateMutability": "nonpayable",
      "type": "function"
    },
    {
      "inputs": [],
      "name": "name",
      "outputs": [
        {
          "internalType": "string",
          "name": "",
          "type": "string"
        }
      ],
      "stateMutability": "pure",
      "type": "function"
    },
    {
      "inputs": [
        {
          "internalType": "address",
          "name": "owner",
          "type": "address"
        }
      ],
      "name": "nonces",
      "outputs": [
        {
          "internalType": "uint256",
          "name": "",
          "type": "uint256"
        }
      ],
      "stateMutability": "view",
      "type": "function"
    },
    {
      "inputs": [
        {
          "internalType": "address",
          "name": "forAddress",
          "type": "address"
        },
        {
          "internalType": "address",
          "name": "to",
          "type": "address"
        },
        {
          "internalType": "uint256",
          "name": "amount",
          "type": "uint256"
        },
        {
          "internalType": "bytes",
          "name": "data",
          "type": "bytes"
        }
      ],
      "name": "payForAndCall",
      "outputs": [
        {
          "internalType": "bool",
          "name": "",
          "type": "bool"
        }
      ],
      "stateMutability": "nonpayable",
      "type": "function"
    },
    {
      "inputs": [
        {
          "internalType": "address",
          "name": "owner",
          "type": "address"
        },
        {
          "internalType": "address",
          "name": "spender",
          "type": "address"
        },
        {
          "internalType": "uint256",
          "name": "value",
          "type": "uint256"
        },
        {
          "internalType": "uint256",
          "name": "deadline",
          "type": "uint256"
        },
        {
          "internalType": "uint8",
          "name": "v",
          "type": "uint8"
        },
        {
          "internalType": "bytes32",
          "name": "r",
          "type": "bytes32"
        },
        {
          "internalType": "bytes32",
          "name": "s",
          "type": "bytes32"
        }
      ],
      "name": "permit",
      "outputs": [],
      "stateMutability": "nonpayable",
      "type": "function"
    },
    {
      "inputs": [],
      "name": "requireAuthorization",
      "outputs": [
        {
          "internalType": "bool",
          "name": "",
          "type": "bool"
        }
      ],
      "stateMutability": "view",
      "type": "function"
    },
    {
      "inputs": [
        {
          "internalType": "bool",
          "name": "req",
          "type": "bool"
        }
      ],
      "name": "setRequireAuthorization",
      "outputs": [],
      "stateMutability": "nonpayable",
      "type": "function"
    },
    {
      "inputs": [],
      "name": "symbol",
      "outputs": [
        {
          "internalType": "string",
          "name": "",
          "type": "string"
        }
      ],
      "stateMutability": "view",
      "type": "function"
    },
    {
      "inputs": [],
      "name": "totalSupply",
      "outputs": [
        {
          "internalType": "uint256",
          "name": "",
          "type": "uint256"
        }
      ],
      "stateMutability": "view",
      "type": "function"
    },
    {
      "inputs": [
        {
          "internalType": "address",
          "name": "",
          "type": "address"
        }
      ],
      "name": "touched",
      "outputs": [
        {
          "internalType": "bool",
          "name": "",
          "type": "bool"
        }
      ],
      "stateMutability": "view",
      "type": "function"
    },
    {
      "inputs": [
        {
          "internalType": "address",
          "name": "to",
          "type": "address"
        },
        {
          "internalType": "uint256",
          "name": "amount",
          "type": "uint256"
        }
      ],
      "name": "transfer",
      "outputs": [
        {
          "internalType": "bool",
          "name": "",
          "type": "bool"
        }
      ],
      "stateMutability": "nonpayable",
      "type": "function"
    },
    {
      "inputs": [
        {
          "internalType": "address payable",
          "name": "to",
          "type": "address"
        },
        {
          "internalType": "uint256",
          "name": "amount",
          "type": "uint256"
        }
      ],
      "name": "transferAlongWithETH",
      "outputs": [
        {
          "internalType": "bool",
          "name": "",
          "type": "bool"
        }
      ],
      "stateMutability": "payable",
      "type": "function"
    },
    {
      "inputs": [
        {
          "internalType": "address",
          "name": "to",
          "type": "address"
        },
        {
          "internalType": "uint256",
          "name": "amount",
          "type": "uint256"
        },
        {
          "internalType": "bytes",
          "name": "data",
          "type": "bytes"
        }
      ],
      "name": "transferAndCall",
      "outputs": [
        {
          "internalType": "bool",
          "name": "",
          "type": "bool"
        }
      ],
      "stateMutability": "nonpayable",
      "type": "function"
    },
    {
      "inputs": [
        {
          "internalType": "address",
          "name": "from",
          "type": "address"
        },
        {
          "internalType": "address",
          "name": "to",
          "type": "address"
        },
        {
          "internalType": "uint256",
          "name": "amount",
          "type": "uint256"
        }
      ],
      "name": "transferFrom",
      "outputs": [
        {
          "internalType": "bool",
          "name": "",
          "type": "bool"
        }
      ],
      "stateMutability": "nonpayable",
      "type": "function"
    },
    {
      "inputs": [
        {
          "internalType": "address",
          "name": "from",
          "type": "address"
        },
        {
          "internalType": "address",
          "name": "to",
          "type": "address"
        },
        {
          "internalType": "uint256",
          "name": "amount",
          "type": "uint256"
        },
        {
          "internalType": "bytes",
          "name": "data",
          "type": "bytes"
        }
      ],
      "name": "transferFromAndCall",
      "outputs": [
        {
          "internalType": "bool",
          "name": "",
          "type": "bool"
        }
      ],
      "stateMutability": "nonpayable",
      "type": "function"
    }
  ],
  "args": [
    "0x0000000000000000000000000000000000000000",
    "0x0000000000000000000000000000000000000000"
  ],
  "numDeployments": 1,
  "solcInputHash": "1e3f71d1fdaa014c84f37911f255e75e",
  "bytecode": "0x60e06040523480156200001157600080fd5b506040516200232b3803806200232b833981016040819052620000349162000127565b6040805180820190915260018152603160f81b60208201527f91ab3d17e3a50a9d89e63fd30b92be7f5336b03b287bb946787a83a9d62a2766620000a860408051808201909152601981527f436f6e7175657374277320546f6b656e20466f72207864616900000000000000602082015290565b8051602091820120835184830120604080519384019490945292820152606081019190915230608082015260a00160408051601f198184030181529190528051602090910120608052506001600160a01b0391821660a0521660c0526200015f565b80516001600160a01b03811681146200012257600080fd5b919050565b600080604083850312156200013b57600080fd5b62000146836200010a565b915062000156602084016200010a565b90509250929050565b60805160a05160c05161219b620001906000396000505060005050600081816102ae0152610dda015261219b6000f3fe6080604052600436106101a15760003560e01c806395d89b41116100e1578063cae9ca511161008a578063dd9835ec11610064578063dd9835ec1461052b578063df752eed1461055b578063e2c6fb4f1461056e578063e7fcb0651461058e57600080fd5b8063cae9ca51146104cb578063d505accf146104eb578063dd62ed3e1461050b57600080fd5b8063a9aadaad116100bb578063a9aadaad1461045b578063b91816111461047b578063c1d34b89146104ab57600080fd5b806395d89b41146103d2578063a256bb9e1461041b578063a9059cbb1461043b57600080fd5b80633644e5151161014e57806363d994c71161012857806363d994c71461030a57806370a082311461032a5780637ecebe001461036d578063876530c7146103b057600080fd5b80633644e5151461029c5780634000aea0146102d0578063480c84e1146102f057600080fd5b806318160ddd1161017f57806318160ddd1461024157806323b872dd14610260578063313ce5671461028057600080fd5b806306fdde03146101a6578063095ea7b3146101fe5780630e02df541461022e575b600080fd5b3480156101b257600080fd5b5060408051808201909152601981527f436f6e7175657374277320546f6b656e20466f7220786461690000000000000060208201525b6040516101f59190611979565b60405180910390f35b34801561020a57600080fd5b5061021e610219366004611a21565b6105a1565b60405190151581526020016101f5565b61021e61023c366004611a99565b6105b8565b34801561024d57600080fd5b506000545b6040519081526020016101f5565b34801561026c57600080fd5b5061021e61027b366004611ae5565b610786565b34801561028c57600080fd5b50604051601281526020016101f5565b3480156102a857600080fd5b506102527f000000000000000000000000000000000000000000000000000000000000000081565b3480156102dc57600080fd5b5061021e6102eb366004611b68565b61079d565b3480156102fc57600080fd5b5060055461021e9060ff1681565b34801561031657600080fd5b5061021e610325366004611bc4565b61085d565b34801561033657600080fd5b50610252610345366004611c37565b73ffffffffffffffffffffffffffffffffffffffff1660009081526001602052604090205490565b34801561037957600080fd5b50610252610388366004611c37565b73ffffffffffffffffffffffffffffffffffffffff1660009081526003602052604090205490565b3480156103bc57600080fd5b506103d06103cb366004611d58565b610920565b005b3480156103de57600080fd5b506101e86040518060400160405280600481526020017f584351540000000000000000000000000000000000000000000000000000000081525081565b34801561042757600080fd5b5061021e610436366004611daa565b610a6d565b34801561044757600080fd5b5061021e610456366004611a21565b610aec565b34801561046757600080fd5b506103d0610476366004611de7565b610af9565b34801561048757600080fd5b5061021e610496366004611c37565b60046020526000908152604090205460ff1681565b3480156104b757600080fd5b5061021e6104c6366004611bc4565b610be0565b3480156104d757600080fd5b5061021e6104e6366004611b68565b610c45565b3480156104f757600080fd5b506103d0610506366004611e04565b610ca8565b34801561051757600080fd5b50610252610526366004611e7b565b610fe8565b34801561053757600080fd5b5061021e610546366004611c37565b60066020526000908152604090205460ff1681565b61021e610569366004611ea9565b611068565b34801561057a57600080fd5b506103d0610589366004611f09565b611225565b61021e61059c366004611a21565b611328565b60006105ae338484611377565b5060015b92915050565b6000806105c58434611f7a565b90506105d18482611fb5565b341461063e576040517f08c379a000000000000000000000000000000000000000000000000000000000815260206004820152601160248201527f494e56414c49445f4d53475f56414c554500000000000000000000000000000060448201526064015b60405180910390fd5b600061064a8585611f7a565b90506106568582611fb5565b84146106be576040517f08c379a000000000000000000000000000000000000000000000000000000000815260206004820152601460248201527f494e56414c49445f544f54414c5f414d4f554e540000000000000000000000006044820152606401610635565b60005b85811015610779576106fa338888848181106106df576106df611ff2565b90506020020160208101906106f49190611c37565b84611485565b86868281811061070c5761070c611ff2565b90506020020160208101906107219190611c37565b73ffffffffffffffffffffffffffffffffffffffff166108fc849081150290604051600060405180830381858888f19350505050158015610766573d6000803e3d6000fd5b508061077181612021565b9150506106c1565b5060019695505050505050565b60006107938484846115df565b5060019392505050565b60006107aa338686611485565b6040517fa4c0ed3600000000000000000000000000000000000000000000000000000000815273ffffffffffffffffffffffffffffffffffffffff86169063a4c0ed36906108029033908890889088906004016120a3565b602060405180830381600087803b15801561081c57600080fd5b505af1158015610830573d6000803e3d6000fd5b505050506040513d601f19601f8201168201806040525081019061085491906120d9565b95945050505050565b600061086a338686611485565b6040517f9b6be06500000000000000000000000000000000000000000000000000000000815273ffffffffffffffffffffffffffffffffffffffff861690639b6be065906108c49033908a908990899089906004016120f6565b602060405180830381600087803b1580156108de57600080fd5b505af11580156108f2573d6000803e3d6000fd5b505050506040513d601f19601f8201168201806040525081019061091691906120d9565b9695505050505050565b7fb53127684a568b3173ae13b9f8a6016e243e63b6e8ee1178d6a717850b5d61035473ffffffffffffffffffffffffffffffffffffffff163373ffffffffffffffffffffffffffffffffffffffff16146109d6576040517f08c379a000000000000000000000000000000000000000000000000000000000815260206004820152600960248201527f4e4f545f41444d494e00000000000000000000000000000000000000000000006044820152606401610635565b60005b8251811015610a685781600460008584815181106109f9576109f9611ff2565b60209081029190910181015173ffffffffffffffffffffffffffffffffffffffff16825281019190915260400160002080547fffffffffffffffffffffffffffffffffffffffffffffffffffffffffffffff001691151591909117905580610a6081612021565b9150506109d9565b505050565b6000805b8251811015610ae35760046000848381518110610a9057610a90611ff2565b60209081029190910181015173ffffffffffffffffffffffffffffffffffffffff1682528101919091526040016000205460ff16610ad15750600192915050565b80610adb81612021565b915050610a71565b50600092915050565b60006105ae338484611485565b7fb53127684a568b3173ae13b9f8a6016e243e63b6e8ee1178d6a717850b5d61035473ffffffffffffffffffffffffffffffffffffffff163373ffffffffffffffffffffffffffffffffffffffff1614610baf576040517f08c379a000000000000000000000000000000000000000000000000000000000815260206004820152600960248201527f4e4f545f41444d494e00000000000000000000000000000000000000000000006044820152606401610635565b600580547fffffffffffffffffffffffffffffffffffffffffffffffffffffffffffffff0016911515919091179055565b6000610bed8686866115df565b6040517fa4c0ed3600000000000000000000000000000000000000000000000000000000815273ffffffffffffffffffffffffffffffffffffffff86169063a4c0ed36906108c49089908890889088906004016120a3565b6000610c52338686611377565b6040517eba451f00000000000000000000000000000000000000000000000000000000815273ffffffffffffffffffffffffffffffffffffffff86169062ba451f906108029033908890889088906004016120a3565b73ffffffffffffffffffffffffffffffffffffffff8716610d25576040517f08c379a000000000000000000000000000000000000000000000000000000000815260206004820152601460248201527f494e56414c49445f5a45524f5f414444524553530000000000000000000000006044820152606401610635565b73ffffffffffffffffffffffffffffffffffffffff87811660008181526003602090815260408083205481517f6e71edae12b1b97f4d1f60370fef10105fa2faae0126114a169c64845d6126c98185015280830195909552948b166060850152608084018a905260a0840185905260c08085018a90528151808603909101815260e0850190915280519101207f19010000000000000000000000000000000000000000000000000000000000006101008401527f00000000000000000000000000000000000000000000000000000000000000006101028401526101228301529061014201604080517fffffffffffffffffffffffffffffffffffffffffffffffffffffffffffffffe081840301815282825280516020918201206000845290830180835281905260ff8816918301919091526060820186905260808201859052915060019060a0016020604051602081039080840390855afa158015610e90573d6000803e3d6000fd5b5050506020604051035173ffffffffffffffffffffffffffffffffffffffff168973ffffffffffffffffffffffffffffffffffffffff1614610f2e576040517f08c379a000000000000000000000000000000000000000000000000000000000815260206004820152601160248201527f494e56414c49445f5349474e41545552450000000000000000000000000000006044820152606401610635565b851580610f3b5750854211155b610fa1576040517f08c379a000000000000000000000000000000000000000000000000000000000815260206004820152600860248201527f544f4f5f4c4154450000000000000000000000000000000000000000000000006044820152606401610635565b610fac826001612136565b73ffffffffffffffffffffffffffffffffffffffff8a16600090815260036020526040902055610fdd898989611377565b505050505050505050565b600073ffffffffffffffffffffffffffffffffffffffff831630141561102f57507fffffffffffffffffffffffffffffffffffffffffffffffffffffffffffffffff6105b2565b5073ffffffffffffffffffffffffffffffffffffffff918216600090815260026020908152604080832093909416825291909152205490565b6000806110758534611f7a565b90506110818582611fb5565b34146110e9576040517f08c379a000000000000000000000000000000000000000000000000000000000815260206004820152601160248201527f494e56414c49445f4d53475f56414c55450000000000000000000000000000006044820152606401610635565b848314611152576040517f08c379a000000000000000000000000000000000000000000000000000000000815260206004820152600f60248201527f4e4f545f53414d455f4c454e47544800000000000000000000000000000000006044820152606401610635565b60005b85811015610779576111a63388888481811061117357611173611ff2565b90506020020160208101906111889190611c37565b87878581811061119a5761119a611ff2565b90506020020135611485565b8686828181106111b8576111b8611ff2565b90506020020160208101906111cd9190611c37565b73ffffffffffffffffffffffffffffffffffffffff166108fc839081150290604051600060405180830381858888f19350505050158015611212573d6000803e3d6000fd5b508061121d81612021565b915050611155565b7fb53127684a568b3173ae13b9f8a6016e243e63b6e8ee1178d6a717850b5d61035473ffffffffffffffffffffffffffffffffffffffff163373ffffffffffffffffffffffffffffffffffffffff16146112db576040517f08c379a000000000000000000000000000000000000000000000000000000000815260206004820152600960248201527f4e4f545f41444d494e00000000000000000000000000000000000000000000006044820152606401610635565b6112e56001610af9565b61132482828080602002602001604051908101604052809392919081815260200183836020028082843760009201919091525060019250610920915050565b5050565b6000611335338484611485565b60405173ffffffffffffffffffffffffffffffffffffffff8416903480156108fc02916000818181858888f19350505050158015610793573d6000803e3d6000fd5b73ffffffffffffffffffffffffffffffffffffffff8316158015906113b1575073ffffffffffffffffffffffffffffffffffffffff821615155b611417576040517f08c379a000000000000000000000000000000000000000000000000000000000815260206004820152601460248201527f494e56414c49445f5a45524f5f414444524553530000000000000000000000006044820152606401610635565b73ffffffffffffffffffffffffffffffffffffffff83811660008181526002602090815260408083209487168084529482529182902085905590518481527f8c5be1e5ebec7d5bd14f71427d1e84f3dd0314c0f7b2291e5b200ac8c7c3b925910160405180910390a3505050565b60055460ff1615806114bc575073ffffffffffffffffffffffffffffffffffffffff831660009081526004602052604090205460ff165b806114ec575073ffffffffffffffffffffffffffffffffffffffff821660009081526004602052604090205460ff165b8061151d575073ffffffffffffffffffffffffffffffffffffffff821660009081526006602052604090205460ff16155b611583576040517f08c379a000000000000000000000000000000000000000000000000000000000815260206004820152601760248201527f4e4f545f415554484f52495a45445f5452414e534645520000000000000000006044820152606401610635565b61158e83838361172b565b5073ffffffffffffffffffffffffffffffffffffffff16600090815260066020526040902080547fffffffffffffffffffffffffffffffffffffffffffffffffffffffffffffff0016600117905550565b3373ffffffffffffffffffffffffffffffffffffffff84161480159061161b575073ffffffffffffffffffffffffffffffffffffffff83163014155b156117205773ffffffffffffffffffffffffffffffffffffffff831660009081526002602090815260408083203384529091529020547fffffffffffffffffffffffffffffffffffffffffffffffffffffffffffffffff811461171e57818110156116e2576040517f08c379a000000000000000000000000000000000000000000000000000000000815260206004820152601760248201527f4e4f545f415554484f495a45445f414c4c4f57414e43450000000000000000006044820152606401610635565b6116ec828261214e565b73ffffffffffffffffffffffffffffffffffffffff851660009081526002602090815260408083203384529091529020555b505b610a68838383611485565b73ffffffffffffffffffffffffffffffffffffffff82166117a8576040517f08c379a000000000000000000000000000000000000000000000000000000000815260206004820152601460248201527f494e56414c49445f5a45524f5f414444524553530000000000000000000000006044820152606401610635565b73ffffffffffffffffffffffffffffffffffffffff8216301415611828576040517f08c379a000000000000000000000000000000000000000000000000000000000815260206004820152601460248201527f494e56414c49445f544849535f414444524553530000000000000000000000006044820152606401610635565b73ffffffffffffffffffffffffffffffffffffffff8316600090815260016020526040902054818110156118b8576040517f08c379a000000000000000000000000000000000000000000000000000000000815260206004820152601160248201527f4e4f545f454e4f5547485f544f4b454e530000000000000000000000000000006044820152606401610635565b6118c2828261214e565b73ffffffffffffffffffffffffffffffffffffffff8086166000908152600160205260408082209390935590851681529081208054849290611905908490612136565b925050819055508273ffffffffffffffffffffffffffffffffffffffff168473ffffffffffffffffffffffffffffffffffffffff167fddf252ad1be2c89b69c2b068fc378daa952ba7f163c4a11628f55a4df523b3ef8460405161196b91815260200190565b60405180910390a350505050565b600060208083528351808285015260005b818110156119a65785810183015185820160400152820161198a565b818111156119b8576000604083870101525b50601f017fffffffffffffffffffffffffffffffffffffffffffffffffffffffffffffffe016929092016040019392505050565b73ffffffffffffffffffffffffffffffffffffffff81168114611a0e57600080fd5b50565b8035611a1c816119ec565b919050565b60008060408385031215611a3457600080fd5b8235611a3f816119ec565b946020939093013593505050565b60008083601f840112611a5f57600080fd5b50813567ffffffffffffffff811115611a7757600080fd5b6020830191508360208260051b8501011115611a9257600080fd5b9250929050565b600080600060408486031215611aae57600080fd5b833567ffffffffffffffff811115611ac557600080fd5b611ad186828701611a4d565b909790965060209590950135949350505050565b600080600060608486031215611afa57600080fd5b8335611b05816119ec565b92506020840135611b15816119ec565b929592945050506040919091013590565b60008083601f840112611b3857600080fd5b50813567ffffffffffffffff811115611b5057600080fd5b602083019150836020828501011115611a9257600080fd5b60008060008060608587031215611b7e57600080fd5b8435611b89816119ec565b935060208501359250604085013567ffffffffffffffff811115611bac57600080fd5b611bb887828801611b26565b95989497509550505050565b600080600080600060808688031215611bdc57600080fd5b8535611be7816119ec565b94506020860135611bf7816119ec565b935060408601359250606086013567ffffffffffffffff811115611c1a57600080fd5b611c2688828901611b26565b969995985093965092949392505050565b600060208284031215611c4957600080fd5b8135611c54816119ec565b9392505050565b7f4e487b7100000000000000000000000000000000000000000000000000000000600052604160045260246000fd5b600082601f830112611c9b57600080fd5b8135602067ffffffffffffffff80831115611cb857611cb8611c5b565b8260051b6040517fffffffffffffffffffffffffffffffffffffffffffffffffffffffffffffffe0603f83011681018181108482111715611cfb57611cfb611c5b565b604052938452858101830193838101925087851115611d1957600080fd5b83870191505b84821015611d3f57611d3082611a11565b83529183019190830190611d1f565b979650505050505050565b8015158114611a0e57600080fd5b60008060408385031215611d6b57600080fd5b823567ffffffffffffffff811115611d8257600080fd5b611d8e85828601611c8a565b9250506020830135611d9f81611d4a565b809150509250929050565b600060208284031215611dbc57600080fd5b813567ffffffffffffffff811115611dd357600080fd5b611ddf84828501611c8a565b949350505050565b600060208284031215611df957600080fd5b8135611c5481611d4a565b600080600080600080600060e0888a031215611e1f57600080fd5b8735611e2a816119ec565b96506020880135611e3a816119ec565b95506040880135945060608801359350608088013560ff81168114611e5e57600080fd5b9699959850939692959460a0840135945060c09093013592915050565b60008060408385031215611e8e57600080fd5b8235611e99816119ec565b91506020830135611d9f816119ec565b60008060008060408587031215611ebf57600080fd5b843567ffffffffffffffff80821115611ed757600080fd5b611ee388838901611a4d565b90965094506020870135915080821115611efc57600080fd5b50611bb887828801611a4d565b60008060208385031215611f1c57600080fd5b823567ffffffffffffffff811115611f3357600080fd5b611f3f85828601611a4d565b90969095509350505050565b7f4e487b7100000000000000000000000000000000000000000000000000000000600052601160045260246000fd5b600082611fb0577f4e487b7100000000000000000000000000000000000000000000000000000000600052601260045260246000fd5b500490565b6000817fffffffffffffffffffffffffffffffffffffffffffffffffffffffffffffffff0483118215151615611fed57611fed611f4b565b500290565b7f4e487b7100000000000000000000000000000000000000000000000000000000600052603260045260246000fd5b60007fffffffffffffffffffffffffffffffffffffffffffffffffffffffffffffffff82141561205357612053611f4b565b5060010190565b8183528181602085013750600060208284010152600060207fffffffffffffffffffffffffffffffffffffffffffffffffffffffffffffffe0601f840116840101905092915050565b73ffffffffffffffffffffffffffffffffffffffff8516815283602082015260606040820152600061091660608301848661205a565b6000602082840312156120eb57600080fd5b8151611c5481611d4a565b600073ffffffffffffffffffffffffffffffffffffffff808816835280871660208401525084604083015260806060830152611d3f60808301848661205a565b6000821982111561214957612149611f4b565b500190565b60008282101561216057612160611f4b565b50039056fea264697066735822122093d5ea27df239e979f3c2a5c56f0e8662f03bdebc6708d219e1282946063efc664736f6c63430008090033",
  "devdoc": {
    "kind": "dev",
    "methods": {
      "allowance(address,address)": {
        "details": "Returns the remaining number of tokens that `spender` will be allowed to spend on behalf of `owner` through {transferFrom}. This is zero by default. This value changes when {approve} or {transferFrom} are called."
      },
      "approve(address,uint256)": {
        "details": "Sets `amount` as the allowance of `spender` over the caller's tokens. Returns a boolean value indicating whether the operation succeeded. IMPORTANT: Beware that changing an allowance with this method brings the risk that someone may use both the old and the new allowance by unfortunate transaction ordering. One possible solution to mitigate this race condition is to first reduce the spender's allowance to 0 and set the desired value afterwards: https://github.com/ethereum/EIPs/issues/20#issuecomment-263524729 Emits an {Approval} event."
      },
      "totalSupply()": {
        "details": "Returns the amount of tokens in existence."
      }
    },
    "version": 1
  },
  "userdoc": {
    "kind": "user",
    "methods": {},
    "version": 1
  },
  "storageLayout": {
    "storage": [
      {
        "astId": 13174,
        "contract": "src/l1/GenericL1ERC20Token.sol:GenericL1ERC20Token",
        "label": "_totalSupply",
        "offset": 0,
        "slot": "0",
        "type": "t_uint256"
      },
      {
        "astId": 13178,
        "contract": "src/l1/GenericL1ERC20Token.sol:GenericL1ERC20Token",
        "label": "_balances",
        "offset": 0,
        "slot": "1",
        "type": "t_mapping(t_address,t_uint256)"
      },
      {
        "astId": 13184,
        "contract": "src/l1/GenericL1ERC20Token.sol:GenericL1ERC20Token",
        "label": "_allowances",
        "offset": 0,
        "slot": "2",
        "type": "t_mapping(t_address,t_mapping(t_address,t_uint256))"
      },
      {
        "astId": 14040,
        "contract": "src/l1/GenericL1ERC20Token.sol:GenericL1ERC20Token",
        "label": "_nonces",
        "offset": 0,
        "slot": "3",
        "type": "t_mapping(t_address,t_uint256)"
      },
      {
        "astId": 15740,
        "contract": "src/l1/GenericL1ERC20Token.sol:GenericL1ERC20Token",
        "label": "authorized",
        "offset": 0,
        "slot": "4",
        "type": "t_mapping(t_address,t_bool)"
      },
      {
        "astId": 15742,
        "contract": "src/l1/GenericL1ERC20Token.sol:GenericL1ERC20Token",
        "label": "requireAuthorization",
        "offset": 0,
        "slot": "5",
        "type": "t_bool"
      },
      {
        "astId": 15746,
        "contract": "src/l1/GenericL1ERC20Token.sol:GenericL1ERC20Token",
        "label": "touched",
        "offset": 0,
        "slot": "6",
        "type": "t_mapping(t_address,t_bool)"
      }
    ],
    "types": {
      "t_address": {
        "encoding": "inplace",
        "label": "address",
        "numberOfBytes": "20"
      },
      "t_bool": {
        "encoding": "inplace",
        "label": "bool",
        "numberOfBytes": "1"
      },
      "t_mapping(t_address,t_bool)": {
        "encoding": "mapping",
        "key": "t_address",
        "label": "mapping(address => bool)",
        "numberOfBytes": "32",
        "value": "t_bool"
      },
      "t_mapping(t_address,t_mapping(t_address,t_uint256))": {
        "encoding": "mapping",
        "key": "t_address",
        "label": "mapping(address => mapping(address => uint256))",
        "numberOfBytes": "32",
        "value": "t_mapping(t_address,t_uint256)"
      },
      "t_mapping(t_address,t_uint256)": {
        "encoding": "mapping",
        "key": "t_address",
        "label": "mapping(address => uint256)",
        "numberOfBytes": "32",
        "value": "t_uint256"
      },
      "t_uint256": {
        "encoding": "inplace",
        "label": "uint256",
        "numberOfBytes": "32"
      }
    }
  }
}