{
  "address": "0xf367F4f017fF58F5DCdAA6F514f13C78647A1B8b",
  "abi": [
    {
      "inputs": [
        {
          "components": [
            {
              "internalType": "contract IERC20",
              "name": "stakingToken",
              "type": "address"
            },
            {
              "internalType": "contract AllianceRegistry",
              "name": "allianceRegistry",
              "type": "address"
            },
            {
              "internalType": "bytes32",
              "name": "genesis",
              "type": "bytes32"
            },
            {
              "internalType": "uint256",
              "name": "resolveWindow",
              "type": "uint256"
            },
            {
              "internalType": "uint256",
              "name": "timePerDistance",
              "type": "uint256"
            },
            {
              "internalType": "uint256",
              "name": "exitDuration",
              "type": "uint256"
            },
            {
              "internalType": "uint32",
              "name": "acquireNumSpaceships",
              "type": "uint32"
            },
            {
              "internalType": "uint32",
              "name": "productionSpeedUp",
              "type": "uint32"
            },
            {
              "internalType": "uint256",
              "name": "frontrunningDelay",
              "type": "uint256"
            },
            {
              "internalType": "uint256",
              "name": "productionCapAsDuration",
              "type": "uint256"
            },
            {
              "internalType": "uint256",
              "name": "upkeepProductionDecreaseRatePer10000th",
              "type": "uint256"
            },
            {
              "internalType": "uint256",
              "name": "fleetSizeFactor6",
              "type": "uint256"
            },
            {
              "internalType": "uint32",
              "name": "expansionDelta",
              "type": "uint32"
            },
            {
              "internalType": "uint256",
              "name": "giftTaxPer10000",
              "type": "uint256"
            }
          ],
          "internalType": "struct OuterSpaceFacetBase.Config",
          "name": "config",
          "type": "tuple"
        }
      ],
      "stateMutability": "nonpayable",
      "type": "constructor"
    },
    {
      "anonymous": false,
      "inputs": [
        {
          "indexed": true,
          "internalType": "address",
          "name": "owner",
          "type": "address"
        },
        {
          "indexed": true,
          "internalType": "address",
          "name": "operator",
          "type": "address"
        },
        {
          "indexed": false,
          "internalType": "bool",
          "name": "approved",
          "type": "bool"
        }
      ],
      "name": "ApprovalForAll",
      "type": "event"
    },
    {
      "anonymous": false,
      "inputs": [
        {
          "indexed": true,
          "internalType": "address",
          "name": "owner",
          "type": "address"
        },
        {
          "indexed": true,
          "internalType": "uint256",
          "name": "location",
          "type": "uint256"
        },
        {
          "indexed": false,
          "internalType": "uint256",
          "name": "stake",
          "type": "uint256"
        }
      ],
      "name": "ExitComplete",
      "type": "event"
    },
    {
      "anonymous": false,
      "inputs": [
        {
          "indexed": true,
          "internalType": "uint256",
          "name": "fleet",
          "type": "uint256"
        },
        {
          "indexed": true,
          "internalType": "address",
          "name": "fleetOwner",
          "type": "address"
        },
        {
          "indexed": true,
          "internalType": "address",
          "name": "destinationOwner",
          "type": "address"
        },
        {
          "indexed": false,
          "internalType": "uint256",
          "name": "destination",
          "type": "uint256"
        },
        {
          "indexed": false,
          "internalType": "bool",
          "name": "gift",
          "type": "bool"
        },
        {
          "indexed": false,
          "internalType": "uint32",
          "name": "fleetLoss",
          "type": "uint32"
        },
        {
          "indexed": false,
          "internalType": "uint32",
          "name": "planetLoss",
          "type": "uint32"
        },
        {
          "indexed": false,
          "internalType": "uint32",
          "name": "inFlightFleetLoss",
          "type": "uint32"
        },
        {
          "indexed": false,
          "internalType": "uint32",
          "name": "inFlightPlanetLoss",
          "type": "uint32"
        },
        {
          "indexed": false,
          "internalType": "bool",
          "name": "won",
          "type": "bool"
        },
        {
          "indexed": false,
          "internalType": "uint32",
          "name": "newNumspaceships",
          "type": "uint32"
        },
        {
          "indexed": false,
          "internalType": "int40",
          "name": "newTravelingUpkeep",
          "type": "int40"
        },
        {
          "indexed": false,
          "internalType": "uint32",
          "name": "newOverflow",
          "type": "uint32"
        },
        {
          "indexed": false,
          "internalType": "uint32",
          "name": "accumulatedDefenseAdded",
          "type": "uint32"
        },
        {
          "indexed": false,
          "internalType": "uint32",
          "name": "accumulatedAttackAdded",
          "type": "uint32"
        }
      ],
      "name": "FleetArrived",
      "type": "event"
    },
    {
      "anonymous": false,
      "inputs": [
        {
          "indexed": true,
          "internalType": "address",
          "name": "fleetSender",
          "type": "address"
        },
        {
          "indexed": true,
          "internalType": "address",
          "name": "fleetOwner",
          "type": "address"
        },
        {
          "indexed": true,
          "internalType": "uint256",
          "name": "from",
          "type": "uint256"
        },
        {
          "indexed": false,
          "internalType": "address",
          "name": "operator",
          "type": "address"
        },
        {
          "indexed": false,
          "internalType": "uint256",
          "name": "fleet",
          "type": "uint256"
        },
        {
          "indexed": false,
          "internalType": "uint32",
          "name": "quantity",
          "type": "uint32"
        },
        {
          "indexed": false,
          "internalType": "uint32",
          "name": "newNumSpaceships",
          "type": "uint32"
        },
        {
          "indexed": false,
          "internalType": "int40",
          "name": "newTravelingUpkeep",
          "type": "int40"
        },
        {
          "indexed": false,
          "internalType": "uint32",
          "name": "newOverflow",
          "type": "uint32"
        }
      ],
      "name": "FleetSent",
      "type": "event"
    },
    {
      "anonymous": false,
      "inputs": [
        {
          "indexed": false,
          "internalType": "bytes32",
          "name": "genesis",
          "type": "bytes32"
        },
        {
          "indexed": false,
          "internalType": "uint256",
          "name": "resolveWindow",
          "type": "uint256"
        },
        {
          "indexed": false,
          "internalType": "uint256",
          "name": "timePerDistance",
          "type": "uint256"
        },
        {
          "indexed": false,
          "internalType": "uint256",
          "name": "exitDuration",
          "type": "uint256"
        },
        {
          "indexed": false,
          "internalType": "uint32",
          "name": "acquireNumSpaceships",
          "type": "uint32"
        },
        {
          "indexed": false,
          "internalType": "uint32",
          "name": "productionSpeedUp",
          "type": "uint32"
        },
        {
          "indexed": false,
          "internalType": "uint256",
          "name": "frontrunningDelay",
          "type": "uint256"
        },
        {
          "indexed": false,
          "internalType": "uint256",
          "name": "productionCapAsDuration",
          "type": "uint256"
        },
        {
          "indexed": false,
          "internalType": "uint256",
          "name": "upkeepProductionDecreaseRatePer10000th",
          "type": "uint256"
        },
        {
          "indexed": false,
          "internalType": "uint256",
          "name": "fleetSizeFactor6",
          "type": "uint256"
        },
        {
          "indexed": false,
          "internalType": "uint32",
          "name": "initialSpaceExpansion",
          "type": "uint32"
        },
        {
          "indexed": false,
          "internalType": "uint32",
          "name": "expansionDelta",
          "type": "uint32"
        },
        {
          "indexed": false,
          "internalType": "uint256",
          "name": "giftTaxPer10000",
          "type": "uint256"
        }
      ],
      "name": "Initialized",
      "type": "event"
    },
    {
      "anonymous": false,
      "inputs": [
        {
          "indexed": true,
          "internalType": "address",
          "name": "owner",
          "type": "address"
        },
        {
          "indexed": true,
          "internalType": "uint256",
          "name": "location",
          "type": "uint256"
        }
      ],
      "name": "PlanetExit",
      "type": "event"
    },
    {
      "anonymous": false,
      "inputs": [
        {
          "indexed": true,
          "internalType": "uint256",
          "name": "location",
          "type": "uint256"
        }
      ],
      "name": "PlanetReset",
      "type": "event"
    },
    {
      "anonymous": false,
      "inputs": [
        {
          "indexed": true,
          "internalType": "address",
          "name": "acquirer",
          "type": "address"
        },
        {
          "indexed": true,
          "internalType": "uint256",
          "name": "location",
          "type": "uint256"
        },
        {
          "indexed": false,
          "internalType": "uint32",
          "name": "numSpaceships",
          "type": "uint32"
        },
        {
          "indexed": false,
          "internalType": "int40",
          "name": "travelingUpkeep",
          "type": "int40"
        },
        {
          "indexed": false,
          "internalType": "uint32",
          "name": "overflow",
          "type": "uint32"
        },
        {
          "indexed": false,
          "internalType": "uint256",
          "name": "stake",
          "type": "uint256"
        }
      ],
      "name": "PlanetStake",
      "type": "event"
    },
    {
      "anonymous": false,
      "inputs": [
        {
          "indexed": true,
          "internalType": "address",
          "name": "previousOwner",
          "type": "address"
        },
        {
          "indexed": true,
          "internalType": "address",
          "name": "newOwner",
          "type": "address"
        },
        {
          "indexed": true,
          "internalType": "uint256",
          "name": "location",
          "type": "uint256"
        },
        {
          "indexed": false,
          "internalType": "uint32",
          "name": "newNumspaceships",
          "type": "uint32"
        },
        {
          "indexed": false,
          "internalType": "int40",
          "name": "newTravelingUpkeep",
          "type": "int40"
        },
        {
          "indexed": false,
          "internalType": "uint32",
          "name": "newOverflow",
          "type": "uint32"
        }
      ],
      "name": "PlanetTransfer",
      "type": "event"
    },
    {
      "anonymous": false,
      "inputs": [
        {
          "indexed": true,
          "internalType": "uint256",
          "name": "location",
          "type": "uint256"
        },
        {
          "indexed": true,
          "internalType": "address",
          "name": "giver",
          "type": "address"
        },
        {
          "indexed": false,
          "internalType": "uint256",
          "name": "rewardId",
          "type": "uint256"
        }
      ],
      "name": "RewardSetup",
      "type": "event"
    },
    {
      "anonymous": false,
      "inputs": [
        {
          "indexed": true,
          "internalType": "address",
          "name": "owner",
          "type": "address"
        },
        {
          "indexed": true,
          "internalType": "uint256",
          "name": "location",
          "type": "uint256"
        },
        {
          "indexed": true,
          "internalType": "uint256",
          "name": "rewardId",
          "type": "uint256"
        }
      ],
      "name": "RewardToWithdraw",
      "type": "event"
    },
    {
      "anonymous": false,
      "inputs": [
        {
          "indexed": true,
          "internalType": "address",
          "name": "owner",
          "type": "address"
        },
        {
          "indexed": false,
          "internalType": "uint256",
          "name": "newStake",
          "type": "uint256"
        }
      ],
      "name": "StakeToWithdraw",
      "type": "event"
    },
    {
      "anonymous": false,
      "inputs": [
        {
          "indexed": true,
          "internalType": "address",
          "name": "from",
          "type": "address"
        },
        {
          "indexed": true,
          "internalType": "address",
          "name": "to",
          "type": "address"
        },
        {
          "indexed": true,
          "internalType": "uint256",
          "name": "location",
          "type": "uint256"
        }
      ],
      "name": "Transfer",
      "type": "event"
    },
    {
      "anonymous": false,
      "inputs": [
        {
          "indexed": true,
          "internalType": "uint256",
          "name": "origin",
          "type": "uint256"
        },
        {
          "indexed": true,
          "internalType": "uint256",
          "name": "fleet",
          "type": "uint256"
        },
        {
          "indexed": false,
          "internalType": "uint32",
          "name": "newNumspaceships",
          "type": "uint32"
        },
        {
          "indexed": false,
          "internalType": "int40",
          "name": "newTravelingUpkeep",
          "type": "int40"
        },
        {
          "indexed": false,
          "internalType": "uint32",
          "name": "newOverflow",
          "type": "uint32"
        }
      ],
      "name": "TravelingUpkeepReductionFromDestruction",
      "type": "event"
    },
    {
      "inputs": [
        {
          "internalType": "uint256",
          "name": "fleetId",
          "type": "uint256"
        },
        {
          "internalType": "uint256",
          "name": "from",
          "type": "uint256"
        }
      ],
      "name": "getFleet",
      "outputs": [
        {
          "internalType": "address",
          "name": "owner",
          "type": "address"
        },
        {
          "internalType": "uint40",
          "name": "launchTime",
          "type": "uint40"
        },
        {
          "internalType": "uint32",
          "name": "quantity",
          "type": "uint32"
        },
        {
          "internalType": "uint64",
          "name": "flyingAtLaunch",
          "type": "uint64"
        },
        {
          "internalType": "uint64",
          "name": "destroyedAtLaunch",
          "type": "uint64"
        }
      ],
      "stateMutability": "view",
      "type": "function"
    },
    {
      "inputs": [
        {
          "internalType": "uint256",
          "name": "fleetId",
          "type": "uint256"
        },
        {
          "components": [
            {
              "internalType": "uint256",
              "name": "from",
              "type": "uint256"
            },
            {
              "internalType": "uint256",
              "name": "to",
              "type": "uint256"
            },
            {
              "internalType": "uint256",
              "name": "distance",
              "type": "uint256"
            },
            {
              "internalType": "uint256",
              "name": "arrivalTimeWanted",
              "type": "uint256"
            },
            {
              "internalType": "bool",
              "name": "gift",
              "type": "bool"
            },
            {
              "internalType": "address",
              "name": "specific",
              "type": "address"
            },
            {
              "internalType": "bytes32",
              "name": "secret",
              "type": "bytes32"
            },
            {
              "internalType": "address",
              "name": "fleetSender",
              "type": "address"
            },
            {
              "internalType": "address",
              "name": "operator",
              "type": "address"
            }
          ],
          "internalType": "struct ImportingOuterSpaceTypes.FleetResolution",
          "name": "resolution",
          "type": "tuple"
        }
      ],
      "name": "resolveFleet",
      "outputs": [],
      "stateMutability": "nonpayable",
      "type": "function"
    },
    {
      "inputs": [
        {
          "internalType": "uint256",
          "name": "from",
          "type": "uint256"
        },
        {
          "internalType": "uint32",
          "name": "quantity",
          "type": "uint32"
        },
        {
          "internalType": "bytes32",
          "name": "toHash",
          "type": "bytes32"
        }
      ],
      "name": "send",
      "outputs": [],
      "stateMutability": "nonpayable",
      "type": "function"
    },
    {
      "inputs": [
        {
          "components": [
            {
              "internalType": "address",
              "name": "fleetSender",
              "type": "address"
            },
            {
              "internalType": "address",
              "name": "fleetOwner",
              "type": "address"
            },
            {
              "internalType": "uint256",
              "name": "from",
              "type": "uint256"
            },
            {
              "internalType": "uint32",
              "name": "quantity",
              "type": "uint32"
            },
            {
              "internalType": "bytes32",
              "name": "toHash",
              "type": "bytes32"
            }
          ],
          "internalType": "struct ImportingOuterSpaceTypes.FleetLaunch",
          "name": "launch",
          "type": "tuple"
        }
      ],
      "name": "sendFor",
      "outputs": [],
      "stateMutability": "nonpayable",
      "type": "function"
    }
  ],
  "transactionHash": "0x0dc89861f44bbcc9e2c7a4a172c44f3fc26a21e6cba8551f6ecd9c7510e5b71e",
  "args": [
    {
      "stakingToken": "0x8c122dED711FA63729F8958A2343679772CaBfE1",
      "allianceRegistry": "0x6Da6Bfaf2C77c60997E2B100A9Fceb3e1f3ed51F",
      "genesis": "0xee563ebbe85edccc120c5082a5066539b0e9b7958b5fbac114523a95a8162671",
      "resolveWindow": 1728,
      "timePerDistance": 72,
      "exitDuration": 2592,
      "acquireNumSpaceships": 100000,
      "productionSpeedUp": 100,
      "frontrunningDelay": 18,
      "productionCapAsDuration": 259200,
      "upkeepProductionDecreaseRatePer10000th": 5000,
      "fleetSizeFactor6": 500000,
      "initialSpaceExpansion": 12,
      "expansionDelta": 4,
      "giftTaxPer10000": 2000
    }
  ],
  "numDeployments": 2,
  "linkedData": {
    "genesisHash": "0xee563ebbe85edccc120c5082a5066539b0e9b7958b5fbac114523a95a8162671",
    "resolveWindow": 1728,
    "timePerDistance": 72,
    "exitDuration": 2592,
    "acquireNumSpaceships": 100000,
    "productionSpeedUp": 100,
    "chainGenesisHash": "",
    "frontrunningDelay": 18,
    "productionCapAsDuration": 259200,
    "upkeepProductionDecreaseRatePer10000th": 5000,
    "fleetSizeFactor6": 500000,
    "initialSpaceExpansion": 12,
    "expansionDelta": 4,
    "giftTaxPer10000": 2000
  },
  "solcInputHash": "b902faa98ce902021e588c9be9420de6",
  "bytecode": "0x6102406040523480156200001257600080fd5b50604051620058c2380380620058c28339810160408190526200003591620001bc565b806000600482608001516200004b91906200029c565b608083015190915062000060826004620002ce565b63ffffffff1614620000b85760405162461bcd60e51b815260206004820152601d60248201527f54494d455f5045525f444953545f4e4f545f444956495349424c455f34000000604482015260640160405180910390fd5b81516001600160a01b0390811660805260208301511660a0908152604083015160c0908152606084015160e090815263ffffffff9384166101009081529285015161012090815291850151841661014090815290850151841661016090815292850151610180908152918501516101a0908152908501516101c052918401516101e052830151909116610200520151610220525062000309565b6040516101c081016001600160401b03811182821017156200018457634e487b7160e01b600052604160045260246000fd5b60405290565b80516001600160a01b0381168114620001a257600080fd5b919050565b805163ffffffff81168114620001a257600080fd5b60006101c08284031215620001d057600080fd5b620001da62000152565b620001e5836200018a565b8152620001f5602084016200018a565b602082015260408301516040820152606083015160608201526080830151608082015260a083015160a08201526200023060c08401620001a7565b60c08201526200024360e08401620001a7565b60e0820152610100838101519082015261012080840151908201526101408084015190820152610160808401519082015261018062000284818501620001a7565b908201526101a0928301519281019290925250919050565b600063ffffffff80841680620002c257634e487b7160e01b600052601260045260246000fd5b92169190910492915050565b600063ffffffff808316818516818304811182151516156200030057634e487b7160e01b600052601160045260246000fd5b02949350505050565b60805160a05160c05160e05161010051610120516101405161016051610180516101a0516101c0516101e05161020051610220516154536200046f6000396000611e2701526000505060008181613e8001528181613eb301528181613f340152613f670152600061100d015260008181611087015281816113f3015281816125aa015281816133df01528181613c70015281816142ee01526145e70152600081816103f50152818161174f01528181611d2b01528181611ece01528181611f7d015281816120240152614003015260008181610fb80152818161113e015281816112b40152611318015260006125e8015260006124ce01526000611b7c01526000611c6f015260008181610eca015261196a015260008181612a2f01528181612bb301528181612ccd01528181612ddd01528181612f140152818161300c01528181613109015281816131ec015281816132e301526139780152600050506154536000f3fe608060405234801561001057600080fd5b506004361061004c5760003560e01c8063112e685114610051578063cf3ecf0714610066578063ee54339314610079578063f69438c3146100ea575b600080fd5b61006461005f36600461479b565b6100fd565b005b6100646100743660046147d0565b6101d1565b61008c6100873660046147e8565b610381565b6040805173ffffffffffffffffffffffffffffffffffffffff909616865264ffffffffff909416602086015263ffffffff9092169284019290925267ffffffffffffffff918216606084015216608082015260a00160405180910390f35b6100646100f836600461480a565b610465565b6000336040805160208101859052908101869052606082811b7fffffffffffffffffffffffffffffffffffffffff0000000000000000000000001690820181905260748201529091506000906088016040516020818303038152906040528051906020012060001c90506101ca81836040518060a001604052808673ffffffffffffffffffffffffffffffffffffffff1681526020018673ffffffffffffffffffffffffffffffffffffffff1681526020018981526020018863ffffffff16815260200187815250610622565b5050505050565b336101df6020830183614892565b73ffffffffffffffffffffffffffffffffffffffff168173ffffffffffffffffffffffffffffffffffffffff16146102c757600360006102226020850185614892565b73ffffffffffffffffffffffffffffffffffffffff9081168252602080830193909352604091820160009081209185168152925290205460ff166102c7576040517f08c379a000000000000000000000000000000000000000000000000000000000815260206004820152601660248201527f4e4f545f415554484f52495a45445f544f5f53454e440000000000000000000060448201526064015b60405180910390fd5b6000608083013560408401356102e06020860186614892565b6040805160208101949094528301919091527fffffffffffffffffffffffffffffffffffffffff000000000000000000000000606091821b8116828401529084901b166074820152608801604080517fffffffffffffffffffffffffffffffffffffffffffffffffffffffffffffffe08184030181529190528051602090910120905061037c818361037736879003870187614900565b610622565b505050565b60008281526001602052604081205473ffffffffffffffffffffffffffffffffffffffff81169174010000000000000000000000000000000000000000820464ffffffffff1691790100000000000000000000000000000000000000000000000000900463ffffffff1690808061041960027f0000000000000000000000000000000000000000000000000000000000000000614a0c565b61042a9064ffffffffff8716614a0c565b6000978852600460209081526040808a20928a529190529096205494979396509194505063ffffffff80841693640100000000900416919050565b8160c0820135602083013561048060a0850160808601614a30565b61049060c0860160a08701614892565b85606001356040516020016104ef959493929190948552602085019390935290151560f81b604084015260601b7fffffffffffffffffffffffffffffffffffffffff000000000000000000000000166041830152605582015260750190565b604080517fffffffffffffffffffffffffffffffffffffffffffffffffffffffffffffffe081840301815291905280516020909101208235610538610100850160e08601614892565b61054a61012086016101008701614892565b6040805160208101959095528401929092527fffffffffffffffffffffffffffffffffffffffff000000000000000000000000606091821b81168285015291901b1660748201526088016040516020818303038152906040528051906020012060001c14610614576040517f08c379a000000000000000000000000000000000000000000000000000000000815260206004820152601c60248201527f494e56414c49445f464c4545545f444154415f4f525f5345435245540000000060448201526064016102be565b61061e8282610a9b565b5050565b604080820151600090815260208190529081206040805160e081018252825473ffffffffffffffffffffffffffffffffffffffff8116825264ffffffffff74010000000000000000000000000000000000000000820481166020840152790100000000000000000000000000000000000000000000000000909104811682840152600184015463ffffffff8082166060850152640100000000820490921660808401526901000000000000000000810460040b60a08401526e01000000000000000000000000000090041660c0820152908401519192506000916107069190610dc6565b8254909150790100000000000000000000000000000000000000000000000000900464ffffffffff1615610796576040517f08c379a000000000000000000000000000000000000000000000000000000000815260206004820152600b60248201527f504c414e45545f4558495400000000000000000000000000000000000000000060448201526064016102be565b8154835173ffffffffffffffffffffffffffffffffffffffff90811691161461081b576040517f08c379a000000000000000000000000000000000000000000000000000000000815260206004820152600960248201527f4e4f545f4f574e4552000000000000000000000000000000000000000000000060448201526064016102be565b61082481610f26565b826060015163ffffffff16816060015163ffffffff1610156108a2576040517f08c379a000000000000000000000000000000000000000000000000000000000815260206004820152601560248201527f535041434553484950535f4e4f545f454e4f554748000000000000000000000060448201526064016102be565b6108b08184606001516113d6565b6108bc828260006114b5565b6108ce83604001518460600151611746565b6040518060600160405280846020015173ffffffffffffffffffffffffffffffffffffffff1681526020014264ffffffffff168152602001846060015163ffffffff168152506001600087815260200190815260200160002060008201518160000160006101000a81548173ffffffffffffffffffffffffffffffffffffffff021916908373ffffffffffffffffffffffffffffffffffffffff16021790555060208201518160000160146101000a81548164ffffffffff021916908364ffffffffff16021790555060408201518160000160196101000a81548163ffffffff021916908363ffffffff1602179055509050508260400151836020015173ffffffffffffffffffffffffffffffffffffffff16846000015173ffffffffffffffffffffffffffffffffffffffff167f22cbc8dd686d2b19557805c93c5d123703e520cb709b4c179c7b723dc621138287898860600151876060015188608001518960e00151604051610a8c9695949392919073ffffffffffffffffffffffffffffffffffffffff969096168652602086019490945263ffffffff9283166040860152908216606085015260040b60808401521660a082015260c00190565b60405180910390a45050505050565b60208181013560008181528083526040808220815160e081018352815473ffffffffffffffffffffffffffffffffffffffff8116825264ffffffffff7401000000000000000000000000000000000000000082048116978301979097527901000000000000000000000000000000000000000000000000009004861692810192909252600181015463ffffffff8082166060850152640100000000820490961660808401526901000000000000000000810460040b60a08401526e010000000000000000000000000000900490941660c08201529091610b7b9190610dc6565b600085815260016020526040812091925090610b98908535611871565b90506000816040015163ffffffff1611610c0e576040517f08c379a000000000000000000000000000000000000000000000000000000000815260206004820152601260248201527f464c4545545f444f5f4e4f545f4558495354000000000000000000000000000060448201526064016102be565b610c3084604001358560000135866020013584606001518661014001516119d7565b610c4d846040013585606001358360200151846060015185611b68565b610c5682610f26565b610c6e81610c6936879003870187614a4b565b611d22565b610c8c81610c8136879003870187614a4b565b846101200151611df1565b610c968183611e18565b610ca08183611ea4565b610cb881610cb336879003870187614a4b565b61200b565b610cc4858286356120c2565b610cd483838361010001516114b5565b610cde818361229c565b60006001600087815260200190815260200160002060000160196101000a81548163ffffffff021916908363ffffffff16021790555081610100015173ffffffffffffffffffffffffffffffffffffffff16816000015173ffffffffffffffffffffffffffffffffffffffff16867f4b6201a9525ecb63853af18e9bcccd8166dc40fc02b71a262a5a9a523064be1287602001358560c0015186610120015187610140015188608001518960a001518a61010001518c606001518d608001518e60e001518e61020001518f6102200151604051610a8c9c9b9a99989796959493929190614ade565b6040805161016081018252600080825260208201819052918101829052606081018290526080810182905260a0810182905260c0810182905260e0810182905261010081018290526101208101829052610140810191909152600080610e2f8560600151612497565b85855260808088015164ffffffffff908116602088015283151560408089019190915263ffffffff80851660608a015260a0808c015160040b948a0194909452908a01805183169389019390935291511660c0808801919091528801511660e0860152865173ffffffffffffffffffffffffffffffffffffffff9081166101008701528751166101208601529092509050610f1784604080517f00000000000000000000000000000000000000000000000000000000000000006020820152908101829052600090606001604051602081830303815290604052805190602001209050919050565b61014084015250909392505050565b60a081015164ffffffffff1615610f7757610f448160a001516124b6565b15610f7757600060c082018190526060820181905260808201819052610120820181905260e08201819052604090910152565b6000816020015164ffffffffff1642610f909190614b6a565b90506000610fa2836101400151612503565b90506000610e1061ffff8316610fde63ffffffff7f00000000000000000000000000000000000000000000000000000000000000001686614b81565b610fe89190614b81565b610ff29190614a0c565b9050600080856080015160040b1315611078576127106110327f000000000000000000000000000000000000000000000000000000000000000084614b81565b61103c9190614a0c565b9050846080015164ffffffffff1681111561105f5750608084015164ffffffffff165b80856080015161106f9190614bbe565b60040b60808601525b606085015163ffffffff1660007f0000000000000000000000000000000000000000000000000000000000000000156112975760006110b6866125a0565b9050600088604001516110ca5760006110cc565b815b9050808411156112025760c089015164ffffffffff166111fd5760e08901516107089063ffffffff161561112e57828a60e0015161070861110d9190614c24565b63ffffffff1661111d9190614a0c565b905061070881101561112e57506107085b6000610e108261116463ffffffff7f0000000000000000000000000000000000000000000000000000000000000000168d614b81565b61116e9190614b81565b6111789190614a0c565b90506111848387614b6a565b811115611198576111958387614b6a565b90505b858111156111cb578a60400151156111c257856111b5888a614b6a565b6111bf9190614c50565b94505b600095506111fa565b8a60400151156111ed57806111e0888a614b6a565b6111ea9190614c50565b94505b6111f78187614b6a565b95505b50505b61124a565b88604001511561124a5760006112188583614b6a565b905060006112268789614b6a565b9050818111156112405761123a8282614b6a565b94508190505b6111f78187614c50565b886040015115611290576000838a6080015160040b6112699190614c68565b905061127482614cdc565b8112156112875761128482614cdc565b90505b60040b60808a01525b5050611376565b8660400151156113095782610e1061ffff87166112da63ffffffff7f0000000000000000000000000000000000000000000000000000000000000000168a614b81565b6112e49190614b81565b6112ee9190614a0c565b6112f89190614b6a565b6113029083614c50565b9150611376565b6000610e1061133e63ffffffff7f00000000000000000000000000000000000000000000000000000000000000001689614b81565b61134a90610708614b81565b6113549190614a0c565b9050828111156113675750600091611374565b6113718184614b6a565b92505b505b638000000082106113995761139060016380000000614d15565b63ffffffff1691505b63ffffffff8216606088015260408701511580156113bf5750606087015163ffffffff16155b156113cd5760006101208801525b50505050505050565b80826060018181516113e89190614d15565b63ffffffff169052507f00000000000000000000000000000000000000000000000000000000000000001561061e57816040015115611473576000611431836101400151612503565b9050600061143e826125a0565b905060008363ffffffff16856080015160040b61145b9190614d3a565b9050818113156114685750805b60040b608085015250505b8063ffffffff168260e0015163ffffffff1611156114aa57808260e00181815161149d9190614d15565b63ffffffff169052505050565b600060e08301525050565b60008260a0015164ffffffffff161180156114d9575060c082015164ffffffffff16155b156114e7576114e78261260d565b81610120015173ffffffffffffffffffffffffffffffffffffffff1682610100015173ffffffffffffffffffffffffffffffffffffffff16146115c257610120820151835473ffffffffffffffffffffffffffffffffffffffff9182167fffffffffffffff000000000000000000000000000000000000000000000000009091168117740100000000000000000000000000000000000000004264ffffffffff16021785558351610100850151604051919316907fddf252ad1be2c89b69c2b068fc378daa952ba7f163c4a11628f55a4df523b3ef90600090a45b80156115f35782547fffff0000000000ffffffffffffffffffffffffffffffffffffffffffffffffff168355611664565b8160a0015164ffffffffff168260c0015164ffffffffff16146116645760c0820151835464ffffffffff909116790100000000000000000000000000000000000000000000000000027fffff0000000000ffffffffffffffffffffffffffffffffffffffffffffffffff9091161783555b611676826040015183606001516126d2565b60019093018054608084015160e0909401514264ffffffffff908116640100000000027fffffffffffffffffffffffffffffffffffffffffffffff0000000000ffffffff63ffffffff9384166e01000000000000000000000000000002167fffffffffffffffffffffffffffff00000000ffffffffff0000000000ffffffff929097166901000000000000000000027fffffffffffffffffffffffffffffffffffff0000000000ffffffffff00000000909416979092169690961791909117949094169290921792909217905550565b600061177360027f0000000000000000000000000000000000000000000000000000000000000000614a0c565b61177d9042614a0c565b600084815260046020908152604080832084845290915290205490915063ffffffff166117aa8382614dae565b90508263ffffffff168163ffffffff161015611822576040517f08c379a000000000000000000000000000000000000000000000000000000000815260206004820152600e60248201527f4f524249545f4f564552464c4f5700000000000000000000000000000000000060448201526064016102be565b6000938452600460209081526040808620938652929052922080547fffffffffffffffffffffffffffffffffffffffffffffffffffffffff000000001663ffffffff9093169290921790915550565b60408051610260810182526000606082018190526080820181905260a0820181905260c0820181905260e08201819052610100820181905261012082018190526101408201819052610160820181905261018082018190526101a082018190526101c082018190526101e0820181905261020082018190526102208201819052610240820152835473ffffffffffffffffffffffffffffffffffffffff8116825274010000000000000000000000000000000000000000810464ffffffffff166020830152790100000000000000000000000000000000000000000000000000900463ffffffff16918101919091526119b782604080517f00000000000000000000000000000000000000000000000000000000000000006020820152908101829052600090606001604051602081830303815290604052805190602001209050919050565b606082018190526119c7906126f8565b61ffff1661024082015292915050565b6000806119e38461278f565b915091506000806119f38561278f565b90925090506000600284820b611a0e60808c901c6004614dd6565b611a189190614e8c565b600084900b611a2c60808c901c6004614dd6565b611a369190614e8c565b611a409190614efc565b611a4a919061512c565b6002600087900b611a6e6fffffffffffffffffffffffffffffffff8d166004614dd6565b611a789190614e8c565b600086900b611a9a6fffffffffffffffffffffffffffffffff8d166004614dd6565b611aa49190614e8c565b611aae9190614efc565b611ab8919061512c565b611ac29190614e8c565b600f0b905080611ad360028c6151eb565b11158015611af657506002611ae98b6001614c50565b611af391906151eb565b81105b611b5c576040517f08c379a000000000000000000000000000000000000000000000000000000000815260206004820152600e60248201527f77726f6e672064697374616e636500000000000000000000000000000000000060448201526064016102be565b50505050505050505050565b6000611b73836127c3565b61ffff16611ba37f0000000000000000000000000000000000000000000000000000000000000000612710614b81565b611bad9088614b81565b611bb79190614a0c565b611bc89064ffffffffff8616614c50565b90506000611bd6868361285a565b90508515611bf15764ffffffffff86166101e0840152611c00565b64ffffffffff82166101e08401525b80421015611c6a576040517f08c379a000000000000000000000000000000000000000000000000000000000815260206004820152600960248201527f746f6f206561726c79000000000000000000000000000000000000000000000060448201526064016102be565b611c947f000000000000000000000000000000000000000000000000000000000000000082614c50565b42106113cd576040517f08c379a000000000000000000000000000000000000000000000000000000000815260206004820152602b60248201527f746f6f206c6174652c20796f7572207370616365736869707320617265206c6f60448201527f737420696e20737061636500000000000000000000000000000000000000000060648201526084016102be565b6000611d4f60027f0000000000000000000000000000000000000000000000000000000000000000614a0c565b836020015164ffffffffff16611d659190614a0c565b8251600090815260046020908152604080832084845290915290819020549085015191925063ffffffff640100000000909104811691908116821015611dc5578185604001818151611db79190614d15565b63ffffffff16905250611dcd565b600060408601525b6040850151611ddc9082614d15565b63ffffffff1660809095019490945250505050565b600080611dff838587612871565b90151560c0870152151560e09095019490945250505050565b8160e0015115611e86576127107f0000000000000000000000000000000000000000000000000000000000000000836040015163ffffffff16611e5b9190614b81565b611e659190614a0c565b826040015163ffffffff16611e7a9190614b6a565b63ffffffff1660408301525b8160c0015115611e9a5761061e828261333a565b61061e828261346b565b60a082015163ffffffff161561061e5780516000908152600460205260408120816001611ef260027f0000000000000000000000000000000000000000000000000000000000000000614a0c565b611efc9042614a0c565b611f069190614b6a565b815260208082019290925260409081016000908120610160870151815461018089015163ffffffff908116640100000000027fffffffffffffffffffffffffffffffffffffffffffffffff00000000000000009092169216919091171781558551825260049093529081209192509081611fa160027f0000000000000000000000000000000000000000000000000000000000000000614a0c565b611fab9042614a0c565b815260208101919091526040016000206101a085015181546101c087015163ffffffff908116640100000000027fffffffffffffffffffffffffffffffffffffffffffffffff000000000000000090921692169190911717905550505050565b608082015163ffffffff161561061e57600061204860027f0000000000000000000000000000000000000000000000000000000000000000614a0c565b836020015164ffffffffff1661205e9190614a0c565b6080840151835160009081526004602081815260408084208685529091529091208054939450919261209f908490640100000000900463ffffffff16614d15565b92506101000a81548163ffffffff021916908363ffffffff160217905550505050565b61012082015163ffffffff161561037c57600081815260208181526040808320815160e081018352815473ffffffffffffffffffffffffffffffffffffffff8116825264ffffffffff7401000000000000000000000000000000000000000082048116958301959095527901000000000000000000000000000000000000000000000000009004841692810192909252600181015463ffffffff8082166060850152640100000000820490941660808401526901000000000000000000810460040b60a08401526e010000000000000000000000000000900490921660c08201529091906121b09084610dc6565b90506121bb81610f26565b60006121cb826101400151612503565b905060006121d8826125a0565b9050600086610120015160030b846080015160040b6121f79190614c68565b905061220282614cdc565b8112156122155761221282614cdc565b90505b600481900b608085015261222b858560006114b5565b87867fb3dfee8f5fa319b23a50d6c744d7bdab47db988bb6b44eb38eaec1a967023282866060015187608001518860e0015160405161228a9392919063ffffffff938416815260049290920b6020830152909116604082015260600190565b60405180910390a35050505050505050565b8161010001511561231457516000908152600960209081526040808320845173ffffffffffffffffffffffffffffffffffffffff16845282528083206101e09094015164ffffffffff1683529290522080547fffff000000000000000000000000000000000000000000000000000000000000169055565b8160e0015161061e5780516000908152600960209081526040808320855173ffffffffffffffffffffffffffffffffffffffff90811685529083528184206101e087015164ffffffffff16855290925290912061010083015181547fffffffffffffffffffffffff000000000000000000000000000000000000000016921691909117815560a08301516101408401516123ae9190614dae565b815461012085015161024086015161ffff167c0100000000000000000000000000000000000000000000000000000000027fffff0000ffffffffffffffffffffffffffffffffffffffffffffffffffffffff63ffffffff92831674010000000000000000000000000000000000000000027fffffffffffffffff00000000ffffffffffffffffffffffffffffffffffffffff95909316780100000000000000000000000000000000000000000000000002949094167fffffffff0000000000000000ffffffffffffffffffffffffffffffffffffffff9093169290921717919091161790555050565b63800000008181168114906000906124af90846151fa565b9050915091565b6000808264ffffffffff161180156124fd57506124fa7f000000000000000000000000000000000000000000000000000000000000000064ffffffffff8416614c50565b42115b92915050565b600061250e8261366b565b612574576040517f08c379a000000000000000000000000000000000000000000000000000000000815260206004820152601160248201527f504c414e45545f4e4f545f45584953545300000000000000000000000000000060448201526064016102be565b6124fd82600c7f0708083409600a8c0bb80ce40e100e100e100e101068151819c81e7823282ee0613687565b6000610e106125d37f000000000000000000000000000000000000000000000000000000000000000061ffff8516614b81565b6125dd9190614a0c565b6124fd9063ffffffff7f000000000000000000000000000000000000000000000000000000000000000016614c50565b60006126288261010001518360000151846101400151613701565b61010083015173ffffffffffffffffffffffffffffffffffffffff1660009081526002602052604081205491925090612662908390614c50565b6101008401805173ffffffffffffffffffffffffffffffffffffffff9081166000908152600260209081526040918290208590559251905184815293945016917f4d135695228631e73b5a31e6fc8af4e5825cde63774c3c48695b4af814d7b019910160405180910390a2505050565b600081836126e15760006126e7565b63800000005b6126f19190614dae565b9392505050565b60006127038261366b565b612769576040517f08c379a000000000000000000000000000000000000000000000000000000000815260206004820152601160248201527f504c414e45545f4e4f545f45584953545300000000000000000000000000000060448201526064016102be565b612774826014613826565b6127839060ff1661019061521d565b6124fd90610fa061523e565b60008061279e838260036138c0565b6127a990600161525b565b91506127b883600260036138c0565b6124af90600161525b565b60006127ce8261366b565b612834576040517f08c379a000000000000000000000000000000000000000000000000000000000815260206004820152601160248201527f504c414e45545f4e4f545f45584953545300000000000000000000000000000060448201526064016102be565b61283f826024613826565b61284e9060ff1661014d61521d565b6124fd9061138d61523e565b60008183101561286a57816126f1565b5090919050565b60008073ffffffffffffffffffffffffffffffffffffffff85166128b15760006128a884600001518660e0015186602001516138dd565b91509150613332565b825173ffffffffffffffffffffffffffffffffffffffff868116911614801561290957508360e0015173ffffffffffffffffffffffffffffffffffffffff168573ffffffffffffffffffffffffffffffffffffffff16145b1561291a5750600190506000613332565b8360800151806129435750825173ffffffffffffffffffffffffffffffffffffffff8681169116145b156130425760a084015173ffffffffffffffffffffffffffffffffffffffff16158061299e57508473ffffffffffffffffffffffffffffffffffffffff168460a0015173ffffffffffffffffffffffffffffffffffffffff16145b806129c25750825173ffffffffffffffffffffffffffffffffffffffff8681169116145b15612aec5760e084015160208401516040517fdf2c0f4900000000000000000000000000000000000000000000000000000000815273ffffffffffffffffffffffffffffffffffffffff9283166004820152878316602482015264ffffffffff90911660448201526000917f0000000000000000000000000000000000000000000000000000000000000000169063df2c0f4990606401604080518083038186803b158015612a7057600080fd5b505afa158015612a84573d6000803e3d6000fd5b505050506040513d601f19601f82011682018060405250810190612aa891906152cf565b9150506001816bffffffffffffffffffffffff1660001480612ae25750846020015164ffffffffff16826bffffffffffffffffffffffff16115b9250925050613332565b60a084015173ffffffffffffffffffffffffffffffffffffffff1660011415612e9c578360e0015173ffffffffffffffffffffffffffffffffffffffff16836000015173ffffffffffffffffffffffffffffffffffffffff161415612c685760e084015160208401516040517fdf2c0f4900000000000000000000000000000000000000000000000000000000815273ffffffffffffffffffffffffffffffffffffffff9283166004820152878316602482015264ffffffffff90911660448201526000917f0000000000000000000000000000000000000000000000000000000000000000169063df2c0f49906064015b604080518083038186803b158015612bf557600080fd5b505afa158015612c09573d6000803e3d6000fd5b505050506040513d601f19601f82011682018060405250810190612c2d91906152cf565b9150506000816bffffffffffffffffffffffff1611846020015164ffffffffff16826bffffffffffffffffffffffff16119250925050613332565b825160208401516040517fdf2c0f4900000000000000000000000000000000000000000000000000000000815273ffffffffffffffffffffffffffffffffffffffff9283166004820152878316602482015264ffffffffff90911660448201526000917f0000000000000000000000000000000000000000000000000000000000000000169063df2c0f4990606401604080518083038186803b158015612d0e57600080fd5b505afa158015612d22573d6000803e3d6000fd5b505050506040513d601f19601f82011682018060405250810190612d4691906152cf565b9150506bffffffffffffffffffffffff8116612d75576000612ae285600001518760e0015187602001516138dd565b60e085015160208501516040517fdf2c0f4900000000000000000000000000000000000000000000000000000000815273ffffffffffffffffffffffffffffffffffffffff9283166004820152888316602482015264ffffffffff90911660448201526000917f0000000000000000000000000000000000000000000000000000000000000000169063df2c0f49906064015b604080518083038186803b158015612e1f57600080fd5b505afa158015612e33573d6000803e3d6000fd5b505050506040513d601f19601f82011682018060405250810190612e5791906152cf565b9150506001816bffffffffffffffffffffffff1660001480612e915750856020015164ffffffffff16826bffffffffffffffffffffffff16115b935093505050613332565b60018460a0015173ffffffffffffffffffffffffffffffffffffffff16111561303d5760a08401516040517f4ed2986d00000000000000000000000000000000000000000000000000000000815273ffffffffffffffffffffffffffffffffffffffff878116600483015291821660248201526000917f00000000000000000000000000000000000000000000000000000000000000001690634ed2986d90604401604080518083038186803b158015612f5557600080fd5b505afa158015612f69573d6000803e3d6000fd5b505050506040513d601f19601f82011682018060405250810190612f8d9190615304565b5090506bffffffffffffffffffffffff81161561303b5760e085015160208501516040517fdf2c0f4900000000000000000000000000000000000000000000000000000000815273ffffffffffffffffffffffffffffffffffffffff9283166004820152888316602482015264ffffffffff90911660448201526000917f0000000000000000000000000000000000000000000000000000000000000000169063df2c0f4990606401612e08565b505b613314565b60a084015173ffffffffffffffffffffffffffffffffffffffff1660011415613138578360e0015173ffffffffffffffffffffffffffffffffffffffff16836000015173ffffffffffffffffffffffffffffffffffffffff161415612c685760e084015160208401516040517fdf2c0f4900000000000000000000000000000000000000000000000000000000815273ffffffffffffffffffffffffffffffffffffffff9283166004820152878316602482015264ffffffffff90911660448201526000917f0000000000000000000000000000000000000000000000000000000000000000169063df2c0f4990606401612bde565b60018460a0015173ffffffffffffffffffffffffffffffffffffffff1611801561319257508473ffffffffffffffffffffffffffffffffffffffff168460a0015173ffffffffffffffffffffffffffffffffffffffff1614155b156133145760a08401516040517f4ed2986d00000000000000000000000000000000000000000000000000000000815273ffffffffffffffffffffffffffffffffffffffff878116600483015291821660248201526000917f00000000000000000000000000000000000000000000000000000000000000001690634ed2986d90604401604080518083038186803b15801561322d57600080fd5b505afa158015613241573d6000803e3d6000fd5b505050506040513d601f19601f820116820180604052508101906132659190615304565b5090506bffffffffffffffffffffffff81166133125760e085015160208501516040517fdf2c0f4900000000000000000000000000000000000000000000000000000000815273ffffffffffffffffffffffffffffffffffffffff9283166004820152888316602482015264ffffffffff90911660448201526000917f0000000000000000000000000000000000000000000000000000000000000000169063df2c0f4990606401612e08565b505b600061332d84600001518660e0015186602001516138dd565b915091505b935093915050565b6000826040015182606001516133509190614dae565b63ffffffff1690506380000000811061337b5761337260016380000000614d15565b63ffffffff1690505b63ffffffff8116606083015260408201516133c1578160e0015163ffffffff16826060015163ffffffff16111561037c57606082015163ffffffff1660e0830152505050565b60006133d96133d4846101400151612503565b6125a0565b905060007f000000000000000000000000000000000000000000000000000000000000000011801561341057508063ffffffff1682115b1561345d578260e0015163ffffffff168184606001516134309190614d15565b63ffffffff1611156134585780836060015161344c9190614d15565b63ffffffff1660e08401525b613465565b600060e08401525b50505050565b80604001511580156134975750613486816101400151613a2e565b61ffff16816060015163ffffffff16105b156134a65761061e8282613ac5565b6101e08201516134b890610a8c615330565b64ffffffffff16421015613661578160e001516136615780516000908152600960209081526040808320855173ffffffffffffffffffffffffffffffffffffffff90811685529083528184206101e087015164ffffffffff1685528352928190208151608081018352905480851680835274010000000000000000000000000000000000000000820463ffffffff9081169584019590955278010000000000000000000000000000000000000000000000008204909416928201929092527c010000000000000000000000000000000000000000000000000000000090910461ffff1660608201526101008401519092161480156135bf5750602081015163ffffffff1615155b1561365f57806020015163ffffffff16836040015163ffffffff166135e49190614c50565b8160200151826060015161ffff166135fc9190614c24565b63ffffffff16846040015163ffffffff1685610240015161ffff166136219190614b81565b61362b9190614c50565b6136359190614a0c565b61ffff16610240840152602081015163ffffffff9081166102208501526040820151166102008401525b505b61061e8282613bab565b600061367a82603460106138c0565b60ff166001149050919050565b6000806136948585613826565b9050826136a2826002615350565b6136ad906001615371565b60ff16602081106136c0576136c0615396565b1a836136cd836002615350565b60ff16602081106136e0576136e0615396565b6136ee91901a61010061521d565b6136f8919061523e565b95945050505050565b6000670de0b6b3a764000061371583613d06565b61ffff166137239190614b81565b9050828473ffffffffffffffffffffffffffffffffffffffff167f1c363b29828a892b7cddafe9583ef52e0d5aca0ea7011bda6ccf039e1781f7388360405161376e91815260200190565b60405180910390a3600083815260076020526040902054801561381e5773ffffffffffffffffffffffffffffffffffffffff85166000818152600860209081526040808320858452825280832080547fffffffffffffffffffffffffffffffffffffffffffffffffffffffffffffff001660011790558783526007909152808220829055518392879290917f74f110a1e0cd4892234c7ba49df9f8a354cd8d29b272f7557c9b8c3c38a653369190a45b509392505050565b600080613835848460406138c0565b905060006138446002836153c5565b905060006138536002846153e7565b905060007f01223334444555555666666677777777888888889999999aaaaaabbbbcccddef60ff84166020811061388c5761388c615396565b1a905060ff82166138aa5760048160ff16901c9450505050506124fd565b6138b56010826153e7565b9450505050506124fd565b60006138d560ff80841690851686901c615409565b949350505050565b60008273ffffffffffffffffffffffffffffffffffffffff168473ffffffffffffffffffffffffffffffffffffffff16141561391b575060006126f1565b6040517fdf2c0f4900000000000000000000000000000000000000000000000000000000815273ffffffffffffffffffffffffffffffffffffffff8581166004830152848116602483015264ffffffffff841660448301526000917f00000000000000000000000000000000000000000000000000000000000000009091169063df2c0f4990606401604080518083038186803b1580156139bb57600080fd5b505afa1580156139cf573d6000803e3d6000fd5b505050506040513d601f19601f820116820180604052508101906139f391906152cf565b9150506bffffffffffffffffffffffff811615806136f857508264ffffffffff16816bffffffffffffffffffffffff16119150509392505050565b6000613a398261366b565b613a9f576040517f08c379a000000000000000000000000000000000000000000000000000000000815260206004820152601160248201527f504c414e45545f4e4f545f45584953545300000000000000000000000000000060448201526064016102be565b613aaa82602c613826565b613ab99060ff16610bb861521d565b6124fd90613a9861523e565b6000613ad483606001516126f8565b90506000613ae6836101400151613ddd565b90506000613af8846101400151613a2e565b9050600080613b1f876040015163ffffffff168461ffff168761ffff168761ffff16613e59565b63ffffffff8083166101208b01529193509150811661ffff8416148015613b5557508163ffffffff16876040015163ffffffff16115b156113cd57818760400151613b6a9190614d15565b63ffffffff908116606088015216610140870152505060016101008501525050905173ffffffffffffffffffffffffffffffffffffffff1661012090910152565b613bb58282613ffa565b6000826101a001518361016001518461020001518460600151613bd89190614dae565b613be29190614dae565b613bec9190614dae565b63ffffffff1690506000613c04836101400151612503565b905081158015613c1e57506000846040015163ffffffff16115b15613cf057835173ffffffffffffffffffffffffffffffffffffffff1661012084015260408085015163ffffffff166060850152830151613c6e57606083015163ffffffff1660e0840152613ce3565b7f000000000000000000000000000000000000000000000000000000000000000015613ce3576000613c9f826125a0565b90508063ffffffff16846060015163ffffffff161115613cd957808460600151613cc99190614d15565b63ffffffff1660e0850152613ce1565b600060e08501525b505b6001610100850152613465565b613cfb84848461416f565b613465848483614701565b6000613d118261366b565b613d77576040517f08c379a000000000000000000000000000000000000000000000000000000000815260206004820152601160248201527f504c414e45545f4e4f545f45584953545300000000000000000000000000000060448201526064016102be565b6000613d8483600c613826565b905060ff81167e060008000a000c000e00100012001400140016001800200028003000380048613db582600261521d565b613dc090600161523e565b61ffff1660208110613dd457613dd4615396565b1a949350505050565b6000613de88261366b565b613e4e576040517f08c379a000000000000000000000000000000000000000000000000000000000815260206004820152601160248201527f504c414e45545f4e4f545f45584953545300000000000000000000000000000060448201526064016102be565b61277482601c613826565b600080851580613e67575084155b15613e7757506000905080613ff1565b600085613ea4887f0000000000000000000000000000000000000000000000000000000000000000614b81565b613eae9190614a0c565b613edb7f0000000000000000000000000000000000000000000000000000000000000000620f4240614b6a565b613ee59190614c50565b613eef9088614b81565b90506000620f424085613f028885614b81565b613f0c9190614a0c565b613f169190614a0c565b905080871115613f2b57879350809250613fee565b600088613f58897f0000000000000000000000000000000000000000000000000000000000000000614b81565b613f629190614a0c565b613f8f7f0000000000000000000000000000000000000000000000000000000000000000620f4240614b6a565b613f999190614c50565b613fa39089614b81565b90506000620f424088613fb68985614b81565b613fc09190614a0c565b613fca9190614a0c565b63ffffffff169050898110613fe757613fe460018b614b6a565b90505b9450879350505b50505b94509492505050565b600061402760027f0000000000000000000000000000000000000000000000000000000000000000614a0c565b6140319042614a0c565b825160009081526004602052604081209192509081614051600185614b6a565b815260208101919091526040016000208054909150638000000063ffffffff9091161161408557805463ffffffff1661408b565b637fffffff5b63ffffffff90811661016086015281546380000000640100000000909104909116116140c6578054640100000000900463ffffffff166140cc565b637fffffff5b63ffffffff90811661018086015283516000908152600460209081526040808320868452909152902080549091638000000091161161411257805463ffffffff16614118565b637fffffff5b63ffffffff9081166101a08701528154638000000064010000000090910490911611614153578054640100000000900463ffffffff16614159565b637fffffff5b63ffffffff166101c09095019490945250505050565b61024083015161014083015160009061418790613ddd565b9050600085610220015186604001516141a09190614dae565b63ffffffff1690506000806141bf83878761ffff168761ffff16613e59565b63ffffffff8082166101408c01528083166101208c015260408b015192945090925016158015906141fa57508588610140015163ffffffff16145b156143a257600088610200015163ffffffff16886060015163ffffffff16886142239190614b6a565b61422d9190614b6a565b905063800000008111156142535761424a60016380000000614d15565b63ffffffff1690505b63ffffffff811660a08a018190526101408a01516142719190614d15565b63ffffffff166101408a015261022089015160408a0151849161429391614dae565b61429d9190614d15565b63ffffffff16606089015260016101008a0152885173ffffffffffffffffffffffffffffffffffffffff1661012089015260408801516142ec57606088015163ffffffff1660e089015261439c565b7f00000000000000000000000000000000000000000000000000000000000000001561439c576000614322896101400151612503565b9050600061432f826125a0565b90508063ffffffff168a6060015163ffffffff161115614391578960e0015163ffffffff16818b606001516143649190614d15565b63ffffffff16111561438c57808a606001516143809190614d15565b63ffffffff1660e08b01525b614399565b600060e08b01525b50505b506146f7565b87610220015188604001516143b79190614dae565b63ffffffff1688610120015163ffffffff1614156146955787610200015187606001516143e49190614dae565b63ffffffff168163ffffffff16111561454b57610200880151606088015161440c9083614d15565b6144169190614d15565b63ffffffff90811660a08a01908152600060608a0152516101608a0151908216911610614482578760a0015188610160018181516144549190614d15565b63ffffffff1690525060a088015161018089018051614474908390614dae565b63ffffffff16905250614577565b876101600151886101800181815161449a9190614dae565b63ffffffff1690525061016088015160a08901516000916144ba91614d15565b90508063ffffffff16896101a0015163ffffffff16106145135780896101a0018181516144e79190614d15565b63ffffffff169052506101c089018051829190614505908390614dae565b63ffffffff1690525061453d565b886101a00151896101c00181815161452b9190614dae565b63ffffffff1690525060006101a08a01525b506000610160890152614577565b8088610200015188606001516145619190614dae565b61456b9190614d15565b63ffffffff1660608801525b8760a0015188610140015161458c9190614d15565b63ffffffff1661014089015260408701516145e5578660e0015163ffffffff168163ffffffff1611156145c557600060e08801526146f7565b808760e0018181516145d79190614d15565b63ffffffff169052506146f7565b7f00000000000000000000000000000000000000000000000000000000000000001561469057600061461b886101400151612503565b90506000614628826125a0565b90508063ffffffff16896060015163ffffffff161115614685578860e0015163ffffffff168363ffffffff161161467957828960e00181815161466b9190614d15565b63ffffffff1690525061468d565b600060e08a015261468d565b600060e08a01525b50505b6146f7565b6040517f08c379a000000000000000000000000000000000000000000000000000000000815260206004820152600960248201527f5a45524f5f5a45524f000000000000000000000000000000000000000000000060448201526064016102be565b5050505050505050565b600061470c826125a0565b905060008461012001518560a0015186610140015161472b9190614dae565b6147359190614dae565b63ffffffff169050600081856080015160040b6147529190614c68565b905061475d83614cdc565b8112156147705761476d83614cdc565b90505b60040b60809094019390935250505050565b803563ffffffff8116811461479657600080fd5b919050565b6000806000606084860312156147b057600080fd5b833592506147c060208501614782565b9150604084013590509250925092565b600060a082840312156147e257600080fd5b50919050565b600080604083850312156147fb57600080fd5b50508035926020909101359150565b60008082840361014081121561481f57600080fd5b833592506101207fffffffffffffffffffffffffffffffffffffffffffffffffffffffffffffffe08201121561485457600080fd5b506020830190509250929050565b73ffffffffffffffffffffffffffffffffffffffff8116811461488457600080fd5b50565b803561479681614862565b6000602082840312156148a457600080fd5b81356126f181614862565b604051610120810167ffffffffffffffff811182821017156148fa577f4e487b7100000000000000000000000000000000000000000000000000000000600052604160045260246000fd5b60405290565b600060a0828403121561491257600080fd5b60405160a0810181811067ffffffffffffffff8211171561495c577f4e487b7100000000000000000000000000000000000000000000000000000000600052604160045260246000fd5b604052823561496a81614862565b8152602083013561497a81614862565b60208201526040838101359082015261499560608401614782565b6060820152608083013560808201528091505092915050565b7f4e487b7100000000000000000000000000000000000000000000000000000000600052601260045260246000fd5b7f4e487b7100000000000000000000000000000000000000000000000000000000600052601160045260246000fd5b600082614a1b57614a1b6149ae565b500490565b8035801515811461479657600080fd5b600060208284031215614a4257600080fd5b6126f182614a20565b60006101208284031215614a5e57600080fd5b614a666148af565b82358152602083013560208201526040830135604082015260608301356060820152614a9460808401614a20565b6080820152614aa560a08401614887565b60a082015260c083013560c0820152614ac060e08401614887565b60e0820152610100614ad3818501614887565b908201529392505050565b8c81528b1515602082015263ffffffff8b811660408301528a81166060830152898116608083015288811660a083015287151560c0830152861660e08201526101808101614b3261010083018760040b9052565b63ffffffff851661012083015263ffffffff841661014083015263ffffffff83166101608301529d9c50505050505050505050505050565b600082821015614b7c57614b7c6149dd565b500390565b6000817fffffffffffffffffffffffffffffffffffffffffffffffffffffffffffffffff0483118215151615614bb957614bb96149dd565b500290565b60008160040b8360040b60008112817fffffffffffffffffffffffffffffffffffffffffffffffffffffff800000000001831281151615614c0157614c016149dd565b81647fffffffff018313811615614c1a57614c1a6149dd565b5090039392505050565b600063ffffffff80831681851681830481118215151615614c4757614c476149dd565b02949350505050565b60008219821115614c6357614c636149dd565b500190565b6000808312837f800000000000000000000000000000000000000000000000000000000000000001831281151615614ca257614ca26149dd565b837f7fffffffffffffffffffffffffffffffffffffffffffffffffffffffffffffff018313811615614cd657614cd66149dd565b50500390565b60007f8000000000000000000000000000000000000000000000000000000000000000821415614d0e57614d0e6149dd565b5060000390565b600063ffffffff83811690831681811015614d3257614d326149dd565b039392505050565b6000808212827f7fffffffffffffffffffffffffffffffffffffffffffffffffffffffffffffff03841381151615614d7457614d746149dd565b827f8000000000000000000000000000000000000000000000000000000000000000038412811615614da857614da86149dd565b50500190565b600063ffffffff808316818516808303821115614dcd57614dcd6149dd565b01949350505050565b600081600f0b83600f0b6f7fffffffffffffffffffffffffffffff600082136000841383830485118282161615614e0f57614e0f6149dd565b7fffffffffffffffffffffffffffffffff800000000000000000000000000000006000851286820586128184161615614e4a57614e4a6149dd565b60008712925085820587128484161615614e6657614e666149dd565b85850587128184161615614e7c57614e7c6149dd565b5050509290910295945050505050565b600081600f0b83600f0b60008212826f7fffffffffffffffffffffffffffffff03821381151615614ebf57614ebf6149dd565b827fffffffffffffffffffffffffffffffff80000000000000000000000000000000038212811615614ef357614ef36149dd565b50019392505050565b600081600f0b83600f0b60008112817fffffffffffffffffffffffffffffffff8000000000000000000000000000000001831281151615614f3f57614f3f6149dd565b816f7fffffffffffffffffffffffffffffff018313811615614c1a57614c1a6149dd565b600181815b80851115614fbc57817fffffffffffffffffffffffffffffffffffffffffffffffffffffffffffffffff04821115614fa257614fa26149dd565b80851615614faf57918102915b93841c9390800290614f68565b509250929050565b80825b6001808611614fd65750613332565b816f7fffffffffffffffffffffffffffffff04821115614ff857614ff86149dd565b8086161561500557918102915b9490941c938002614fc7565b600082801561502757600181146150315761503a565b60019150506124fd565b829150506124fd565b5081615048575060006124fd565b50600160008213808214615061578015615088576150aa565b826f7fffffffffffffffffffffffffffffff04831115615083576150836149dd565b6150aa565b826f7fffffffffffffffffffffffffffffff058312156150aa576150aa6149dd565b50808316156150b65750805b6150c68360011c83840283614fc4565b806f7fffffffffffffffffffffffffffffff0482116000831316156150ed576150ed6149dd565b807fffffffffffffffffffffffffffffffff80000000000000000000000000000000058212600083121615615124576151246149dd565b029392505050565b60006126f160ff841683600f0b615011565b60008261514d575060016124fd565b8161515a575060006124fd565b816001811461502757600281146151705761518c565b60ff841115615181576151816149dd565b50506001821b6124fd565b5060208310610133831016604e8410600b84101617156151af575081810a6124fd565b6151b98383614f63565b807fffffffffffffffffffffffffffffffffffffffffffffffffffffffffffffffff04821115615124576151246149dd565b60006126f160ff84168361513e565b600063ffffffff80841680615211576152116149ae565b92169190910692915050565b600061ffff80831681851681830481118215151615614c4757614c476149dd565b600061ffff808316818516808303821115614dcd57614dcd6149dd565b60008160000b8360000b60008112817fffffffffffffffffffffffffffffffffffffffffffffffffffffffffffffff800183128115161561529e5761529e6149dd565b81607f018313811615614c1a57614c1a6149dd565b80516bffffffffffffffffffffffff8116811461479657600080fd5b600080604083850312156152e257600080fd5b82516152ed81614862565b91506152fb602084016152b3565b90509250929050565b6000806040838503121561531757600080fd5b615320836152b3565b9150602083015190509250929050565b600064ffffffffff808316818516808303821115614dcd57614dcd6149dd565b600060ff821660ff84168160ff0481118215151615615124576151246149dd565b600060ff821660ff84168060ff0382111561538e5761538e6149dd565b019392505050565b7f4e487b7100000000000000000000000000000000000000000000000000000000600052603260045260246000fd5b600060ff8316806153d8576153d86149ae565b8060ff84160491505092915050565b600060ff8316806153fa576153fa6149ae565b8060ff84160691505092915050565b600082615418576154186149ae565b50069056fea26469706673582212208810fa8c0a733bd2185378efd39498e10fe572c22bd0c0767086c5cbabc68f3e64736f6c63430008090033",
  "devdoc": {
    "kind": "dev",
    "methods": {},
    "version": 1
  },
  "userdoc": {
    "kind": "user",
    "methods": {},
    "version": 1
  },
  "storageLayout": {
    "storage": [
      {
        "astId": 16858,
        "contract": "src/outerspace/facets/OuterSpaceFleetsFacet.sol:OuterSpaceFleetsFacet",
        "label": "_planets",
        "offset": 0,
        "slot": "0",
        "type": "t_mapping(t_uint256,t_struct(Planet)23495_storage)"
      },
      {
        "astId": 16863,
        "contract": "src/outerspace/facets/OuterSpaceFleetsFacet.sol:OuterSpaceFleetsFacet",
        "label": "_fleets",
        "offset": 0,
        "slot": "1",
        "type": "t_mapping(t_uint256,t_struct(Fleet)23502_storage)"
      },
      {
        "astId": 16867,
        "contract": "src/outerspace/facets/OuterSpaceFleetsFacet.sol:OuterSpaceFleetsFacet",
        "label": "_stakeReadyToBeWithdrawn",
        "offset": 0,
        "slot": "2",
        "type": "t_mapping(t_address,t_uint256)"
      },
      {
        "astId": 16873,
        "contract": "src/outerspace/facets/OuterSpaceFleetsFacet.sol:OuterSpaceFleetsFacet",
        "label": "_operators",
        "offset": 0,
        "slot": "3",
        "type": "t_mapping(t_address,t_mapping(t_address,t_bool))"
      },
      {
        "astId": 16880,
        "contract": "src/outerspace/facets/OuterSpaceFleetsFacet.sol:OuterSpaceFleetsFacet",
        "label": "_inFlight",
        "offset": 0,
        "slot": "4",
        "type": "t_mapping(t_uint256,t_mapping(t_uint256,t_struct(InFlight)23471_storage))"
      },
      {
        "astId": 16883,
        "contract": "src/outerspace/facets/OuterSpaceFleetsFacet.sol:OuterSpaceFleetsFacet",
        "label": "_discovered",
        "offset": 0,
        "slot": "5",
        "type": "t_struct(Discovered)23480_storage"
      },
      {
        "astId": 16887,
        "contract": "src/outerspace/facets/OuterSpaceFleetsFacet.sol:OuterSpaceFleetsFacet",
        "label": "_prevRewardIds",
        "offset": 0,
        "slot": "6",
        "type": "t_mapping(t_address,t_uint256)"
      },
      {
        "astId": 16891,
        "contract": "src/outerspace/facets/OuterSpaceFleetsFacet.sol:OuterSpaceFleetsFacet",
        "label": "_rewards",
        "offset": 0,
        "slot": "7",
        "type": "t_mapping(t_uint256,t_uint256)"
      },
      {
        "astId": 16897,
        "contract": "src/outerspace/facets/OuterSpaceFleetsFacet.sol:OuterSpaceFleetsFacet",
        "label": "_rewardsToWithdraw",
        "offset": 0,
        "slot": "8",
        "type": "t_mapping(t_address,t_mapping(t_uint256,t_bool))"
      },
      {
        "astId": 16906,
        "contract": "src/outerspace/facets/OuterSpaceFleetsFacet.sol:OuterSpaceFleetsFacet",
        "label": "_attacks",
        "offset": 0,
        "slot": "9",
        "type": "t_mapping(t_uint256,t_mapping(t_address,t_mapping(t_uint256,t_struct(AccumulatedAttack)23575_storage)))"
      }
    ],
    "types": {
      "t_address": {
        "encoding": "inplace",
        "label": "address",
        "numberOfBytes": "20"
      },
      "t_bool": {
        "encoding": "inplace",
        "label": "bool",
        "numberOfBytes": "1"
      },
      "t_int40": {
        "encoding": "inplace",
        "label": "int40",
        "numberOfBytes": "5"
      },
      "t_mapping(t_address,t_bool)": {
        "encoding": "mapping",
        "key": "t_address",
        "label": "mapping(address => bool)",
        "numberOfBytes": "32",
        "value": "t_bool"
      },
      "t_mapping(t_address,t_mapping(t_address,t_bool))": {
        "encoding": "mapping",
        "key": "t_address",
        "label": "mapping(address => mapping(address => bool))",
        "numberOfBytes": "32",
        "value": "t_mapping(t_address,t_bool)"
      },
      "t_mapping(t_address,t_mapping(t_uint256,t_bool))": {
        "encoding": "mapping",
        "key": "t_address",
        "label": "mapping(address => mapping(uint256 => bool))",
        "numberOfBytes": "32",
        "value": "t_mapping(t_uint256,t_bool)"
      },
      "t_mapping(t_address,t_mapping(t_uint256,t_struct(AccumulatedAttack)23575_storage))": {
        "encoding": "mapping",
        "key": "t_address",
        "label": "mapping(address => mapping(uint256 => struct ImportingOuterSpaceTypes.AccumulatedAttack))",
        "numberOfBytes": "32",
        "value": "t_mapping(t_uint256,t_struct(AccumulatedAttack)23575_storage)"
      },
      "t_mapping(t_address,t_uint256)": {
        "encoding": "mapping",
        "key": "t_address",
        "label": "mapping(address => uint256)",
        "numberOfBytes": "32",
        "value": "t_uint256"
      },
      "t_mapping(t_uint256,t_bool)": {
        "encoding": "mapping",
        "key": "t_uint256",
        "label": "mapping(uint256 => bool)",
        "numberOfBytes": "32",
        "value": "t_bool"
      },
      "t_mapping(t_uint256,t_mapping(t_address,t_mapping(t_uint256,t_struct(AccumulatedAttack)23575_storage)))": {
        "encoding": "mapping",
        "key": "t_uint256",
        "label": "mapping(uint256 => mapping(address => mapping(uint256 => struct ImportingOuterSpaceTypes.AccumulatedAttack)))",
        "numberOfBytes": "32",
        "value": "t_mapping(t_address,t_mapping(t_uint256,t_struct(AccumulatedAttack)23575_storage))"
      },
      "t_mapping(t_uint256,t_mapping(t_uint256,t_struct(InFlight)23471_storage))": {
        "encoding": "mapping",
        "key": "t_uint256",
        "label": "mapping(uint256 => mapping(uint256 => struct ImportingOuterSpaceTypes.InFlight))",
        "numberOfBytes": "32",
        "value": "t_mapping(t_uint256,t_struct(InFlight)23471_storage)"
      },
      "t_mapping(t_uint256,t_struct(AccumulatedAttack)23575_storage)": {
        "encoding": "mapping",
        "key": "t_uint256",
        "label": "mapping(uint256 => struct ImportingOuterSpaceTypes.AccumulatedAttack)",
        "numberOfBytes": "32",
        "value": "t_struct(AccumulatedAttack)23575_storage"
      },
      "t_mapping(t_uint256,t_struct(Fleet)23502_storage)": {
        "encoding": "mapping",
        "key": "t_uint256",
        "label": "mapping(uint256 => struct ImportingOuterSpaceTypes.Fleet)",
        "numberOfBytes": "32",
        "value": "t_struct(Fleet)23502_storage"
      },
      "t_mapping(t_uint256,t_struct(InFlight)23471_storage)": {
        "encoding": "mapping",
        "key": "t_uint256",
        "label": "mapping(uint256 => struct ImportingOuterSpaceTypes.InFlight)",
        "numberOfBytes": "32",
        "value": "t_struct(InFlight)23471_storage"
      },
      "t_mapping(t_uint256,t_struct(Planet)23495_storage)": {
        "encoding": "mapping",
        "key": "t_uint256",
        "label": "mapping(uint256 => struct ImportingOuterSpaceTypes.Planet)",
        "numberOfBytes": "32",
        "value": "t_struct(Planet)23495_storage"
      },
      "t_mapping(t_uint256,t_uint256)": {
        "encoding": "mapping",
        "key": "t_uint256",
        "label": "mapping(uint256 => uint256)",
        "numberOfBytes": "32",
        "value": "t_uint256"
      },
      "t_struct(AccumulatedAttack)23575_storage": {
        "encoding": "inplace",
        "label": "struct ImportingOuterSpaceTypes.AccumulatedAttack",
        "members": [
          {
            "astId": 23568,
            "contract": "src/outerspace/facets/OuterSpaceFleetsFacet.sol:OuterSpaceFleetsFacet",
            "label": "target",
            "offset": 0,
            "slot": "0",
            "type": "t_address"
          },
          {
            "astId": 23570,
            "contract": "src/outerspace/facets/OuterSpaceFleetsFacet.sol:OuterSpaceFleetsFacet",
            "label": "numAttackSpent",
            "offset": 20,
            "slot": "0",
            "type": "t_uint32"
          },
          {
            "astId": 23572,
            "contract": "src/outerspace/facets/OuterSpaceFleetsFacet.sol:OuterSpaceFleetsFacet",
            "label": "damageCausedSoFar",
            "offset": 24,
            "slot": "0",
            "type": "t_uint32"
          },
          {
            "astId": 23574,
            "contract": "src/outerspace/facets/OuterSpaceFleetsFacet.sol:OuterSpaceFleetsFacet",
            "label": "averageAttackPower",
            "offset": 28,
            "slot": "0",
            "type": "t_uint16"
          }
        ],
        "numberOfBytes": "32"
      },
      "t_struct(Discovered)23480_storage": {
        "encoding": "inplace",
        "label": "struct ImportingOuterSpaceTypes.Discovered",
        "members": [
          {
            "astId": 23473,
            "contract": "src/outerspace/facets/OuterSpaceFleetsFacet.sol:OuterSpaceFleetsFacet",
            "label": "minX",
            "offset": 0,
            "slot": "0",
            "type": "t_uint32"
          },
          {
            "astId": 23475,
            "contract": "src/outerspace/facets/OuterSpaceFleetsFacet.sol:OuterSpaceFleetsFacet",
            "label": "maxX",
            "offset": 4,
            "slot": "0",
            "type": "t_uint32"
          },
          {
            "astId": 23477,
            "contract": "src/outerspace/facets/OuterSpaceFleetsFacet.sol:OuterSpaceFleetsFacet",
            "label": "minY",
            "offset": 8,
            "slot": "0",
            "type": "t_uint32"
          },
          {
            "astId": 23479,
            "contract": "src/outerspace/facets/OuterSpaceFleetsFacet.sol:OuterSpaceFleetsFacet",
            "label": "maxY",
            "offset": 12,
            "slot": "0",
            "type": "t_uint32"
          }
        ],
        "numberOfBytes": "32"
      },
      "t_struct(Fleet)23502_storage": {
        "encoding": "inplace",
        "label": "struct ImportingOuterSpaceTypes.Fleet",
        "members": [
          {
            "astId": 23497,
            "contract": "src/outerspace/facets/OuterSpaceFleetsFacet.sol:OuterSpaceFleetsFacet",
            "label": "owner",
            "offset": 0,
            "slot": "0",
            "type": "t_address"
          },
          {
            "astId": 23499,
            "contract": "src/outerspace/facets/OuterSpaceFleetsFacet.sol:OuterSpaceFleetsFacet",
            "label": "launchTime",
            "offset": 20,
            "slot": "0",
            "type": "t_uint40"
          },
          {
            "astId": 23501,
            "contract": "src/outerspace/facets/OuterSpaceFleetsFacet.sol:OuterSpaceFleetsFacet",
            "label": "quantity",
            "offset": 25,
            "slot": "0",
            "type": "t_uint32"
          }
        ],
        "numberOfBytes": "32"
      },
      "t_struct(InFlight)23471_storage": {
        "encoding": "inplace",
        "label": "struct ImportingOuterSpaceTypes.InFlight",
        "members": [
          {
            "astId": 23468,
            "contract": "src/outerspace/facets/OuterSpaceFleetsFacet.sol:OuterSpaceFleetsFacet",
            "label": "flying",
            "offset": 0,
            "slot": "0",
            "type": "t_uint32"
          },
          {
            "astId": 23470,
            "contract": "src/outerspace/facets/OuterSpaceFleetsFacet.sol:OuterSpaceFleetsFacet",
            "label": "destroyed",
            "offset": 4,
            "slot": "0",
            "type": "t_uint32"
          }
        ],
        "numberOfBytes": "32"
      },
      "t_struct(Planet)23495_storage": {
        "encoding": "inplace",
        "label": "struct ImportingOuterSpaceTypes.Planet",
        "members": [
          {
            "astId": 23482,
            "contract": "src/outerspace/facets/OuterSpaceFleetsFacet.sol:OuterSpaceFleetsFacet",
            "label": "owner",
            "offset": 0,
            "slot": "0",
            "type": "t_address"
          },
          {
            "astId": 23484,
            "contract": "src/outerspace/facets/OuterSpaceFleetsFacet.sol:OuterSpaceFleetsFacet",
            "label": "ownershipStartTime",
            "offset": 20,
            "slot": "0",
            "type": "t_uint40"
          },
          {
            "astId": 23486,
            "contract": "src/outerspace/facets/OuterSpaceFleetsFacet.sol:OuterSpaceFleetsFacet",
            "label": "exitStartTime",
            "offset": 25,
            "slot": "0",
            "type": "t_uint40"
          },
          {
            "astId": 23488,
            "contract": "src/outerspace/facets/OuterSpaceFleetsFacet.sol:OuterSpaceFleetsFacet",
            "label": "numSpaceships",
            "offset": 0,
            "slot": "1",
            "type": "t_uint32"
          },
          {
            "astId": 23490,
            "contract": "src/outerspace/facets/OuterSpaceFleetsFacet.sol:OuterSpaceFleetsFacet",
            "label": "lastUpdated",
            "offset": 4,
            "slot": "1",
            "type": "t_uint40"
          },
          {
            "astId": 23492,
            "contract": "src/outerspace/facets/OuterSpaceFleetsFacet.sol:OuterSpaceFleetsFacet",
            "label": "travelingUpkeep",
            "offset": 9,
            "slot": "1",
            "type": "t_int40"
          },
          {
            "astId": 23494,
            "contract": "src/outerspace/facets/OuterSpaceFleetsFacet.sol:OuterSpaceFleetsFacet",
            "label": "overflow",
            "offset": 14,
            "slot": "1",
            "type": "t_uint32"
          }
        ],
        "numberOfBytes": "64"
      },
      "t_uint16": {
        "encoding": "inplace",
        "label": "uint16",
        "numberOfBytes": "2"
      },
      "t_uint256": {
        "encoding": "inplace",
        "label": "uint256",
        "numberOfBytes": "32"
      },
      "t_uint32": {
        "encoding": "inplace",
        "label": "uint32",
        "numberOfBytes": "4"
      },
      "t_uint40": {
        "encoding": "inplace",
        "label": "uint40",
        "numberOfBytes": "5"
      }
    }
  }
}