{
  "address": "0xd67ffb1d0563058Bda7d487e58b806b68E530C16",
  "abi": [
    {
      "inputs": [
        {
          "internalType": "contract IERC20",
          "name": "stakingToken",
          "type": "address"
        },
        {
          "internalType": "contract AllianceRegistry",
          "name": "theAllianceRegistry",
          "type": "address"
        },
        {
          "internalType": "bytes32",
          "name": "genesis",
          "type": "bytes32"
        },
        {
          "internalType": "uint32",
          "name": "resolveWindow",
          "type": "uint32"
        },
        {
          "internalType": "uint32",
          "name": "timePerDistance",
          "type": "uint32"
        },
        {
          "internalType": "uint32",
          "name": "exitDuration",
          "type": "uint32"
        },
        {
          "internalType": "uint32",
          "name": "acquireNumSpaceships",
          "type": "uint32"
        },
        {
          "internalType": "uint32",
          "name": "productionSpeedUp",
          "type": "uint32"
        },
        {
          "internalType": "uint32",
          "name": "frontrunningDelay",
          "type": "uint32"
        },
        {
          "internalType": "uint32",
          "name": "productionCapAsDuration",
          "type": "uint32"
        },
        {
          "internalType": "uint32",
          "name": "fleetSizeFactor6",
          "type": "uint32"
        }
      ],
      "stateMutability": "nonpayable",
      "type": "constructor"
    },
    {
      "anonymous": false,
      "inputs": [
        {
          "indexed": true,
          "internalType": "address",
          "name": "owner",
          "type": "address"
        },
        {
          "indexed": true,
          "internalType": "address",
          "name": "operator",
          "type": "address"
        },
        {
          "indexed": false,
          "internalType": "bool",
          "name": "approved",
          "type": "bool"
        }
      ],
      "name": "ApprovalForAll",
      "type": "event"
    },
    {
      "anonymous": false,
      "inputs": [
        {
          "indexed": true,
          "internalType": "address",
          "name": "owner",
          "type": "address"
        },
        {
          "indexed": true,
          "internalType": "uint256",
          "name": "location",
          "type": "uint256"
        },
        {
          "indexed": false,
          "internalType": "uint256",
          "name": "stake",
          "type": "uint256"
        }
      ],
      "name": "ExitComplete",
      "type": "event"
    },
    {
      "anonymous": false,
      "inputs": [
        {
          "indexed": true,
          "internalType": "uint256",
          "name": "fleet",
          "type": "uint256"
        },
        {
          "indexed": true,
          "internalType": "address",
          "name": "fleetOwner",
          "type": "address"
        },
        {
          "indexed": true,
          "internalType": "address",
          "name": "destinationOwner",
          "type": "address"
        },
        {
          "indexed": false,
          "internalType": "uint256",
          "name": "destination",
          "type": "uint256"
        },
        {
          "indexed": false,
          "internalType": "bool",
          "name": "gift",
          "type": "bool"
        },
        {
          "indexed": false,
          "internalType": "uint32",
          "name": "fleetLoss",
          "type": "uint32"
        },
        {
          "indexed": false,
          "internalType": "uint32",
          "name": "planetLoss",
          "type": "uint32"
        },
        {
          "indexed": false,
          "internalType": "uint32",
          "name": "inFlightFleetLoss",
          "type": "uint32"
        },
        {
          "indexed": false,
          "internalType": "uint32",
          "name": "inFlightPlanetLoss",
          "type": "uint32"
        },
        {
          "indexed": false,
          "internalType": "bool",
          "name": "won",
          "type": "bool"
        },
        {
          "indexed": false,
          "internalType": "uint32",
          "name": "newNumspaceships",
          "type": "uint32"
        }
      ],
      "name": "FleetArrived",
      "type": "event"
    },
    {
      "anonymous": false,
      "inputs": [
        {
          "indexed": true,
          "internalType": "address",
          "name": "fleetSender",
          "type": "address"
        },
        {
          "indexed": true,
          "internalType": "address",
          "name": "fleetOwner",
          "type": "address"
        },
        {
          "indexed": true,
          "internalType": "uint256",
          "name": "from",
          "type": "uint256"
        },
        {
          "indexed": false,
          "internalType": "address",
          "name": "operator",
          "type": "address"
        },
        {
          "indexed": false,
          "internalType": "uint256",
          "name": "fleet",
          "type": "uint256"
        },
        {
          "indexed": false,
          "internalType": "uint32",
          "name": "quantity",
          "type": "uint32"
        },
        {
          "indexed": false,
          "internalType": "uint32",
          "name": "newNumSpaceships",
          "type": "uint32"
        }
      ],
      "name": "FleetSent",
      "type": "event"
    },
    {
      "anonymous": false,
      "inputs": [
        {
          "indexed": true,
          "internalType": "address",
          "name": "owner",
          "type": "address"
        },
        {
          "indexed": true,
          "internalType": "uint256",
          "name": "location",
          "type": "uint256"
        }
      ],
      "name": "PlanetExit",
      "type": "event"
    },
    {
      "anonymous": false,
      "inputs": [
        {
          "indexed": true,
          "internalType": "uint256",
          "name": "location",
          "type": "uint256"
        }
      ],
      "name": "PlanetReset",
      "type": "event"
    },
    {
      "anonymous": false,
      "inputs": [
        {
          "indexed": true,
          "internalType": "address",
          "name": "acquirer",
          "type": "address"
        },
        {
          "indexed": true,
          "internalType": "uint256",
          "name": "location",
          "type": "uint256"
        },
        {
          "indexed": false,
          "internalType": "uint32",
          "name": "numSpaceships",
          "type": "uint32"
        },
        {
          "indexed": false,
          "internalType": "uint256",
          "name": "stake",
          "type": "uint256"
        }
      ],
      "name": "PlanetStake",
      "type": "event"
    },
    {
      "anonymous": false,
      "inputs": [
        {
          "indexed": true,
          "internalType": "uint256",
          "name": "location",
          "type": "uint256"
        },
        {
          "indexed": true,
          "internalType": "address",
          "name": "giver",
          "type": "address"
        },
        {
          "indexed": false,
          "internalType": "uint256",
          "name": "rewardId",
          "type": "uint256"
        }
      ],
      "name": "RewardSetup",
      "type": "event"
    },
    {
      "anonymous": false,
      "inputs": [
        {
          "indexed": true,
          "internalType": "address",
          "name": "owner",
          "type": "address"
        },
        {
          "indexed": true,
          "internalType": "uint256",
          "name": "location",
          "type": "uint256"
        },
        {
          "indexed": true,
          "internalType": "uint256",
          "name": "rewardId",
          "type": "uint256"
        }
      ],
      "name": "RewardToWithdraw",
      "type": "event"
    },
    {
      "anonymous": false,
      "inputs": [
        {
          "indexed": true,
          "internalType": "address",
          "name": "owner",
          "type": "address"
        },
        {
          "indexed": false,
          "internalType": "uint256",
          "name": "newStake",
          "type": "uint256"
        }
      ],
      "name": "StakeToWithdraw",
      "type": "event"
    },
    {
      "inputs": [
        {
          "internalType": "uint256",
          "name": "location",
          "type": "uint256"
        },
        {
          "internalType": "uint256",
          "name": "amount",
          "type": "uint256"
        }
      ],
      "name": "acquireViaTransferFrom",
      "outputs": [],
      "stateMutability": "nonpayable",
      "type": "function"
    },
    {
      "inputs": [
        {
          "internalType": "uint256",
          "name": "location",
          "type": "uint256"
        },
        {
          "internalType": "address",
          "name": "sponsor",
          "type": "address"
        }
      ],
      "name": "addReward",
      "outputs": [],
      "stateMutability": "nonpayable",
      "type": "function"
    },
    {
      "inputs": [],
      "name": "allianceRegistry",
      "outputs": [
        {
          "internalType": "contract AllianceRegistry",
          "name": "",
          "type": "address"
        }
      ],
      "stateMutability": "view",
      "type": "function"
    },
    {
      "inputs": [
        {
          "internalType": "address",
          "name": "owner",
          "type": "address"
        }
      ],
      "name": "balanceToWithdraw",
      "outputs": [
        {
          "internalType": "uint256",
          "name": "",
          "type": "uint256"
        }
      ],
      "stateMutability": "view",
      "type": "function"
    },
    {
      "inputs": [
        {
          "internalType": "address",
          "name": "owner",
          "type": "address"
        },
        {
          "internalType": "uint256",
          "name": "location",
          "type": "uint256"
        }
      ],
      "name": "exitFor",
      "outputs": [],
      "stateMutability": "nonpayable",
      "type": "function"
    },
    {
      "inputs": [
        {
          "internalType": "address",
          "name": "owner",
          "type": "address"
        },
        {
          "internalType": "uint256[]",
          "name": "locations",
          "type": "uint256[]"
        }
      ],
      "name": "fetchAndWithdrawFor",
      "outputs": [],
      "stateMutability": "nonpayable",
      "type": "function"
    },
    {
      "inputs": [],
      "name": "getDiscovered",
      "outputs": [
        {
          "components": [
            {
              "internalType": "uint32",
              "name": "minX",
              "type": "uint32"
            },
            {
              "internalType": "uint32",
              "name": "maxX",
              "type": "uint32"
            },
            {
              "internalType": "uint32",
              "name": "minY",
              "type": "uint32"
            },
            {
              "internalType": "uint32",
              "name": "maxY",
              "type": "uint32"
            }
          ],
          "internalType": "struct OuterSpace.Discovered",
          "name": "",
          "type": "tuple"
        }
      ],
      "stateMutability": "view",
      "type": "function"
    },
    {
      "inputs": [
        {
          "internalType": "uint256",
          "name": "fleetId",
          "type": "uint256"
        },
        {
          "internalType": "uint256",
          "name": "from",
          "type": "uint256"
        }
      ],
      "name": "getFleet",
      "outputs": [
        {
          "internalType": "address",
          "name": "owner",
          "type": "address"
        },
        {
          "internalType": "uint32",
          "name": "launchTime",
          "type": "uint32"
        },
        {
          "internalType": "uint32",
          "name": "quantity",
          "type": "uint32"
        },
        {
          "internalType": "uint64",
          "name": "flyingAtLaunch",
          "type": "uint64"
        },
        {
          "internalType": "uint64",
          "name": "destroyedAtLaunch",
          "type": "uint64"
        }
      ],
      "stateMutability": "view",
      "type": "function"
    },
    {
      "inputs": [],
      "name": "getGeneisHash",
      "outputs": [
        {
          "internalType": "bytes32",
          "name": "",
          "type": "bytes32"
        }
      ],
      "stateMutability": "view",
      "type": "function"
    },
    {
      "inputs": [
        {
          "internalType": "uint256",
          "name": "location",
          "type": "uint256"
        }
      ],
      "name": "getPlanet",
      "outputs": [
        {
          "components": [
            {
              "internalType": "address",
              "name": "owner",
              "type": "address"
            },
            {
              "internalType": "uint32",
              "name": "exitTime",
              "type": "uint32"
            },
            {
              "internalType": "uint32",
              "name": "numSpaceships",
              "type": "uint32"
            },
            {
              "internalType": "uint32",
              "name": "lastUpdated",
              "type": "uint32"
            },
            {
              "internalType": "bool",
              "name": "active",
              "type": "bool"
            },
            {
              "internalType": "uint256",
              "name": "reward",
              "type": "uint256"
            }
          ],
          "internalType": "struct OuterSpace.ExternalPlanet",
          "name": "state",
          "type": "tuple"
        },
        {
          "components": [
            {
              "internalType": "int8",
              "name": "subX",
              "type": "int8"
            },
            {
              "internalType": "int8",
              "name": "subY",
              "type": "int8"
            },
            {
              "internalType": "uint16",
              "name": "stake",
              "type": "uint16"
            },
            {
              "internalType": "uint16",
              "name": "production",
              "type": "uint16"
            },
            {
              "internalType": "uint16",
              "name": "attack",
              "type": "uint16"
            },
            {
              "internalType": "uint16",
              "name": "defense",
              "type": "uint16"
            },
            {
              "internalType": "uint16",
              "name": "speed",
              "type": "uint16"
            },
            {
              "internalType": "uint16",
              "name": "natives",
              "type": "uint16"
            }
          ],
          "internalType": "struct OuterSpace.PlanetStats",
          "name": "stats",
          "type": "tuple"
        }
      ],
      "stateMutability": "view",
      "type": "function"
    },
    {
      "inputs": [
        {
          "internalType": "uint256[]",
          "name": "locations",
          "type": "uint256[]"
        }
      ],
      "name": "getPlanetStates",
      "outputs": [
        {
          "components": [
            {
              "internalType": "address",
              "name": "owner",
              "type": "address"
            },
            {
              "internalType": "uint32",
              "name": "exitTime",
              "type": "uint32"
            },
            {
              "internalType": "uint32",
              "name": "numSpaceships",
              "type": "uint32"
            },
            {
              "internalType": "uint32",
              "name": "lastUpdated",
              "type": "uint32"
            },
            {
              "internalType": "bool",
              "name": "active",
              "type": "bool"
            },
            {
              "internalType": "uint256",
              "name": "reward",
              "type": "uint256"
            }
          ],
          "internalType": "struct OuterSpace.ExternalPlanet[]",
          "name": "planetStates",
          "type": "tuple[]"
        },
        {
          "components": [
            {
              "internalType": "uint32",
              "name": "minX",
              "type": "uint32"
            },
            {
              "internalType": "uint32",
              "name": "maxX",
              "type": "uint32"
            },
            {
              "internalType": "uint32",
              "name": "minY",
              "type": "uint32"
            },
            {
              "internalType": "uint32",
              "name": "maxY",
              "type": "uint32"
            }
          ],
          "internalType": "struct OuterSpace.Discovered",
          "name": "discovered",
          "type": "tuple"
        }
      ],
      "stateMutability": "view",
      "type": "function"
    },
    {
      "inputs": [
        {
          "internalType": "address",
          "name": "",
          "type": "address"
        },
        {
          "internalType": "address",
          "name": "forAddress",
          "type": "address"
        },
        {
          "internalType": "uint256",
          "name": "amount",
          "type": "uint256"
        },
        {
          "internalType": "bytes",
          "name": "data",
          "type": "bytes"
        }
      ],
      "name": "onTokenPaidFor",
      "outputs": [
        {
          "internalType": "bool",
          "name": "",
          "type": "bool"
        }
      ],
      "stateMutability": "nonpayable",
      "type": "function"
    },
    {
      "inputs": [
        {
          "internalType": "address",
          "name": "",
          "type": "address"
        },
        {
          "internalType": "uint256",
          "name": "amount",
          "type": "uint256"
        },
        {
          "internalType": "bytes",
          "name": "data",
          "type": "bytes"
        }
      ],
      "name": "onTokenTransfer",
      "outputs": [
        {
          "internalType": "bool",
          "name": "",
          "type": "bool"
        }
      ],
      "stateMutability": "nonpayable",
      "type": "function"
    },
    {
      "inputs": [
        {
          "internalType": "contract IERC20",
          "name": "",
          "type": "address"
        },
        {
          "internalType": "contract AllianceRegistry",
          "name": "",
          "type": "address"
        },
        {
          "internalType": "bytes32",
          "name": "",
          "type": "bytes32"
        },
        {
          "internalType": "uint32",
          "name": "",
          "type": "uint32"
        },
        {
          "internalType": "uint32",
          "name": "",
          "type": "uint32"
        },
        {
          "internalType": "uint32",
          "name": "",
          "type": "uint32"
        },
        {
          "internalType": "uint32",
          "name": "",
          "type": "uint32"
        },
        {
          "internalType": "uint32",
          "name": "",
          "type": "uint32"
        },
        {
          "internalType": "uint32",
          "name": "",
          "type": "uint32"
        },
        {
          "internalType": "uint32",
          "name": "",
          "type": "uint32"
        },
        {
          "internalType": "uint32",
          "name": "",
          "type": "uint32"
        }
      ],
      "name": "postUpgrade",
      "outputs": [],
      "stateMutability": "nonpayable",
      "type": "function"
    },
    {
      "inputs": [
        {
          "internalType": "uint256",
          "name": "location",
          "type": "uint256"
        }
      ],
      "name": "resetPlanet",
      "outputs": [],
      "stateMutability": "nonpayable",
      "type": "function"
    },
    {
      "inputs": [
        {
          "internalType": "uint256",
          "name": "fleetId",
          "type": "uint256"
        },
        {
          "components": [
            {
              "internalType": "uint256",
              "name": "from",
              "type": "uint256"
            },
            {
              "internalType": "uint256",
              "name": "to",
              "type": "uint256"
            },
            {
              "internalType": "uint256",
              "name": "distance",
              "type": "uint256"
            },
            {
              "internalType": "address",
              "name": "alliance",
              "type": "address"
            },
            {
              "internalType": "bytes32",
              "name": "secret",
              "type": "bytes32"
            },
            {
              "internalType": "address",
              "name": "fleetSender",
              "type": "address"
            },
            {
              "internalType": "address",
              "name": "operator",
              "type": "address"
            }
          ],
          "internalType": "struct OuterSpace.FleetResolution",
          "name": "resolution",
          "type": "tuple"
        }
      ],
      "name": "resolveFleet",
      "outputs": [],
      "stateMutability": "nonpayable",
      "type": "function"
    },
    {
      "inputs": [
        {
          "internalType": "uint256",
          "name": "from",
          "type": "uint256"
        },
        {
          "internalType": "uint32",
          "name": "quantity",
          "type": "uint32"
        },
        {
          "internalType": "bytes32",
          "name": "toHash",
          "type": "bytes32"
        }
      ],
      "name": "send",
      "outputs": [],
      "stateMutability": "nonpayable",
      "type": "function"
    },
    {
      "inputs": [
        {
          "components": [
            {
              "internalType": "address",
              "name": "fleetSender",
              "type": "address"
            },
            {
              "internalType": "address",
              "name": "fleetOwner",
              "type": "address"
            },
            {
              "internalType": "uint256",
              "name": "from",
              "type": "uint256"
            },
            {
              "internalType": "uint32",
              "name": "quantity",
              "type": "uint32"
            },
            {
              "internalType": "bytes32",
              "name": "toHash",
              "type": "bytes32"
            }
          ],
          "internalType": "struct OuterSpace.FleetLaunch",
          "name": "launch",
          "type": "tuple"
        }
      ],
      "name": "sendFor",
      "outputs": [],
      "stateMutability": "nonpayable",
      "type": "function"
    },
    {
      "inputs": [
        {
          "internalType": "address",
          "name": "operator",
          "type": "address"
        },
        {
          "internalType": "bool",
          "name": "approved",
          "type": "bool"
        }
      ],
      "name": "setApprovalForAll",
      "outputs": [],
      "stateMutability": "nonpayable",
      "type": "function"
    },
    {
      "inputs": [
        {
          "internalType": "address",
          "name": "owner",
          "type": "address"
        }
      ],
      "name": "withdrawFor",
      "outputs": [],
      "stateMutability": "nonpayable",
      "type": "function"
    }
  ],
  "transactionHash": "0x44ed0b0eb2255d21793e431331f2f9eb65d8328fdc8626589bdf86b932732ab9",
  "args": [
    "0xd1435072e860Ef1ABFd4DBC59754529c0217C00A",
    "0x6a4E14e371221a2d187eF0D3b1c007BA1E9d74B3",
    "0x9e9e23df9a65ca95f7a3b613673c89db774d0cdaaa1850160a59406c0220d7f6",
    43200,
    7200,
    259200,
    100000,
    1,
    1800,
    259200,
    500000
  ],
  "linkedData": {
    "genesisHash": "0x9e9e23df9a65ca95f7a3b613673c89db774d0cdaaa1850160a59406c0220d7f6",
    "resolveWindow": 43200,
    "timePerDistance": 7200,
    "exitDuration": 259200,
    "acquireNumSpaceships": 100000,
    "productionSpeedUp": 1,
    "chainGenesisHash": "",
    "frontrunningDelay": 1800,
    "productionCapAsDuration": 259200,
    "fleetSizeFactor6": 500000
  },
  "solcInputHash": "eaf5401b50902e7d1607994779860544",
  "bytecode": "0x6101e06040523480156200001257600080fd5b5060405162005d8a38038062005d8a83398101604081905262000035916200021b565b600062000044600489620002fb565b905063ffffffff88166200005a8260046200032d565b63ffffffff1614620000b25760405162461bcd60e51b815260206004820152601d60248201527f54494d455f5045525f444953545f4e4f545f444956495349424c455f34000000604482015260640160405180910390fd5b6001600160a01b03808d1660c0528b1660805260a08a905263ffffffff808a1660e05281811661010052878116610120528681166101405285811661016052848116610180528381166101a05282166101c0526200011a8c8c8c8c8c8c8c8c8c8c8c6200012c565b50505050505050505050505062000368565b60006200014660008051602062005d6a8339815191525490565b90506001600160a01b03811662000176576001600160a01b0360008051602062005d6a833981519152556200018c565b336001600160a01b038216146200018c57600080fd5b60055463ffffffff16620001da576040805160808101825260108082526020820181905291810182905260600152600580546001600160801b0319166c100000001000000010000000101790555b505050505050505050505050565b6001600160a01b0381168114620001fe57600080fd5b50565b805163ffffffff811681146200021657600080fd5b919050565b60008060008060008060008060008060006101608c8e0312156200023e57600080fd5b8b516200024b81620001e8565b60208d0151909b506200025e81620001e8565b60408d0151909a5098506200027660608d0162000201565b97506200028660808d0162000201565b96506200029660a08d0162000201565b9550620002a660c08d0162000201565b9450620002b660e08d0162000201565b9350620002c76101008d0162000201565b9250620002d86101208d0162000201565b9150620002e96101408d0162000201565b90509295989b509295989b9093969950565b600063ffffffff808416806200032157634e487b7160e01b600052601260045260246000fd5b92169190910492915050565b600063ffffffff808316818516818304811182151516156200035f57634e487b7160e01b600052601160045260246000fd5b02949350505050565b60805160a05160c05160e05161010051610120516101405161016051610180516101a0516101c051615894620004d660003960008181613b7101528181613ba401528181613c250152613c58015260008181611fd7015261200b01526000818161140b015281816121ff0152818161313c015281816144fe01528181614586015281816146130152818161469401526148660152600081816120d4015261216601526000818161204401528181612a5601528181612ae701528181612b3501528181612b7c01528181612bfb0152612c2c01526000611ac0015260006134d401526000613576015260008181610b0301528181610b9201528181610cc20152611caa0152600081816102110152818161155d0152818161197501528181611b4301528181611d7801528181613269015281816132cf0152818161347b015281816137d30152818161395e015281816139e50152613eb701526000818161040901526136f801526158946000f3fe608060405234801561001057600080fd5b506004361061016c5760003560e01c8063a22cb465116100cd578063c956083811610081578063e2e9b07911610066578063e2e9b07914610396578063ee543393146103a9578063f9c8974d1461040457600080fd5b8063c95608381461035a578063cf3ecf071461038357600080fd5b8063aba789f5116100b2578063aba789f51461029b578063afc82370146102bc578063c5aaa0ae146102cf57600080fd5b8063a22cb46514610275578063a4c0ed361461028857600080fd5b806356bf642d116101245780637cef64d8116101095780637cef64d81461020f5780639b6be0651461023f5780639eca672c1461026257600080fd5b806356bf642d146101e95780637ba423fb146101fc57600080fd5b80631b7c9c17116101555780631b7c9c1714610199578063243f66c9146101ac57806334efcb8e146101bf57600080fd5b80630b9c522814610171578063112e685114610186575b600080fd5b61018461017f366004614973565b610443565b005b6101846101943660046149a5565b610505565b6101846101a73660046149f2565b6105ac565b6101846101ba366004614abb565b61069d565b6101d26101cd366004614973565b6107d7565b6040516101e0929190614af4565b60405180910390f35b6101846101f7366004614bd0565b6108f2565b61018461020a366004614c00565b610ab2565b7f00000000000000000000000000000000000000000000000000000000000000005b6040519081526020016101e0565b61025261024d366004614c64565b610b85565b60405190151581526020016101e0565b610184610270366004614cd7565b610c27565b610184610283366004614d02565b610c4a565b610252610296366004614d30565b610cb5565b6102ae6102a9366004614dd1565b610d4d565b6040516101e0929190614e13565b6101846102ca366004614ee9565b610f5d565b61034d604080516080810182526000808252602082018190529181018290526060810191909152506040805160808101825260055463ffffffff80821683526401000000008204811660208401526801000000000000000082048116938301939093526c010000000000000000000000009004909116606082015290565b6040516101e09190614f15565b610231610368366004614cd7565b6001600160a01b031660009081526002602052604090205490565b610184610391366004614f4e565b611092565b6101846103a4366004614f66565b6112ba565b6103bc6103b7366004614c00565b6113d0565b604080516001600160a01b03909616865263ffffffff9485166020870152939092169284019290925267ffffffffffffffff918216606084015216608082015260a0016101e0565b61042b7f000000000000000000000000000000000000000000000000000000000000000081565b6040516001600160a01b0390911681526020016101e0565b7fb53127684a568b3173ae13b9f8a6016e243e63b6e8ee1178d6a717850b5d6103546001600160a01b0316336001600160a01b0316146104ca5760405162461bcd60e51b815260206004820152600e60248201527f4e4f545f415554484f52495a454400000000000000000000000000000000000060448201526064015b60405180910390fd5b6000818152602081905260408082208290555182917fb9e622395e3bd0e793c5448e9c44434069fc36c8904b50ab65bca22b05d425e691a250565b6000336040805160208101859052908101869052606082811b6bffffffffffffffffffffffff191690820181905260748201529091506000906088016040516020818303038152906040528051906020012060001c90506105a581836040518060a00160405280866001600160a01b03168152602001866001600160a01b031681526020018981526020018863ffffffff16815260200187815250611482565b5050505050565b60006105d67fb53127684a568b3173ae13b9f8a6016e243e63b6e8ee1178d6a717850b5d61035490565b90506001600160a01b038116610615576001600160a01b037fb53127684a568b3173ae13b9f8a6016e243e63b6e8ee1178d6a717850b5d61035561062a565b336001600160a01b0382161461062a57600080fd5b60055463ffffffff1661068f576040805160808101825260108082526020820181905291810182905260600152600580547fffffffffffffffffffffffffffffffff00000000000000000000000000000000166c100000001000000010000000101790555b505050505050505050505050565b81608082018035906020840135906000906106bb9060608701614cd7565b6040805160208101959095528401929092526001600160a01b039091161160f81b606082015260610160408051601f198184030181529190528051602090910120823561070e60c0850160a08601614cd7565b61071e60e0860160c08701614cd7565b6040805160208101959095528401929092526bffffffffffffffffffffffff19606091821b81168285015291901b1660748201526088016040516020818303038152906040528051906020012060001c146107bb5760405162461bcd60e51b815260206004820152601d60248201527f494e56414c49445f464c4545545f444154415f4f525f5345435245542700000060448201526064016104c1565b6107d3826107ce36849003840184614fd1565b6117c2565b5050565b6040805160c081018252600080825260208201819052918101829052606081018290526080810182905260a08101919091526040805161010081018252600080825260208201819052918101829052606081018290526080810182905260a0810182905260c0810182905260e081019190915260008381526020819052604081208054909150600090819061087890600160c01b900463ffffffff1661190f565b6040805160c08101825286546001600160a01b038116825263ffffffff600160a01b8204811660208085019190915281861684860152600160e01b909204166060830152841515608083015260008b81526007909152919091205460a0820152965090925090506108e88661192e565b9350505050915091565b7fb53127684a568b3173ae13b9f8a6016e243e63b6e8ee1178d6a717850b5d6103546001600160a01b0316336001600160a01b0316146109745760405162461bcd60e51b815260206004820152600e60248201527f4e4f545f415554484f52495a454400000000000000000000000000000000000060448201526064016104c1565b60008281526020818152604091829020825160808101845290546001600160a01b038116825263ffffffff600160a01b82048116938301849052600160c01b8204811694830194909452600160e01b900490921660608301526109d690611aa9565b156109fa57805160008481526020819052604081206109fa92869290919080611af4565b60008381526007602052604090205480610a68576001600160a01b03831660009081526006602052604081208054909190610a3490615091565b91829055509050610a58816bffffffffffffffffffffffff19606086901b166150ac565b6000858152600760205260409020555b826001600160a01b0316847fec3a2d89aa52417930dcfd96d54282db3cdc02a9c65e1d9def8f7407c60fc02783604051610aa491815260200190565b60405180910390a350505050565b33610abe818385611b3d565b6040517f23b872dd0000000000000000000000000000000000000000000000000000000081526001600160a01b038281166004830152306024830152604482018490527f000000000000000000000000000000000000000000000000000000000000000016906323b872dd90606401602060405180830381600087803b158015610b4757600080fd5b505af1158015610b5b573d6000803e3d6000fd5b505050506040513d601f19601f82011682018060405250810190610b7f91906150c4565b50505050565b6000336001600160a01b037f00000000000000000000000000000000000000000000000000000000000000001614610bff5760405162461bcd60e51b815260206004820152600d60248201527f494e56414c49445f45524332300000000000000000000000000000000000000060448201526064016104c1565b6000610c0d83850185614973565b9050610c1a868683611b3d565b5060019695505050505050565b6001600160a01b0381166000908152600260205260409020546107d38282611c60565b3360008181526003602090815260408083206001600160a01b03871680855290835292819020805460ff19168615159081179091558151908152905184927f17307eab39ab6107e8899845ad3d59bd9653f200f220920489ca2b5937696c31928290030190a3505050565b6000336001600160a01b037f00000000000000000000000000000000000000000000000000000000000000001614610d2f5760405162461bcd60e51b815260206004820152600d60248201527f494e56414c49445f45524332300000000000000000000000000000000000000060448201526064016104c1565b600080610d3e84860186614ee9565b91509150610c1a828783611b3d565b604080516080810182526000808252602082018190529181018290526060818101929092528267ffffffffffffffff811115610d8b57610d8b614fbb565b604051908082528060200260200182016040528015610deb57816020015b6040805160c08101825260008082526020808301829052928201819052606082018190526080820181905260a08201528252600019909201910181610da95790505b50915060005b83811015610eff576000610e28868684818110610e1057610e106150e1565b90506020020135600090815260208190526040902090565b80549091506000908190610e4890600160c01b900463ffffffff1661190f565b6040805160c08101825286546001600160a01b038116825263ffffffff600160a01b82048116602084015280851693830193909352600160e01b900490911660608201528215156080820152919350915060a08101600760008b8b89818110610eb357610eb36150e1565b90506020020135815260200190815260200160002054815250868581518110610ede57610ede6150e1565b60200260200101819052505050508080610ef790615091565b915050610df1565b50506040805160808101825260055463ffffffff80821683526401000000008204811660208401526801000000000000000082048116938301939093526c010000000000000000000000009004909116606082015290939092509050565b600081815260208190526040902080546001600160a01b03848116911614610fc75760405162461bcd60e51b815260206004820152600960248201527f4e4f545f4f574e4552000000000000000000000000000000000000000000000060448201526064016104c1565b8054600160a01b900463ffffffff16156110235760405162461bcd60e51b815260206004820152600f60248201527f45584954494e475f414c5245414459000000000000000000000000000000000060448201526064016104c1565b80547fffffffffffffffff00000000ffffffffffffffffffffffffffffffffffffffff16600160a01b4263ffffffff160217815560405182906001600160a01b038516907fb9182e4e152947f1e6691fa0ee6f68f21f607fed825945c270e69995acad805f90600090a3505050565b336110a06020830183614cd7565b6001600160a01b0316816001600160a01b03161461114257600360006110c96020850185614cd7565b6001600160a01b039081168252602080830193909352604091820160009081209185168152925290205460ff166111425760405162461bcd60e51b815260206004820152601660248201527f4e4f545f415554484f52495a45445f544f5f53454e440000000000000000000060448201526064016104c1565b60006080830135604084013561115b6020860186614cd7565b6040805160208101949094528301919091526bffffffffffffffffffffffff19606091821b8116828401529084901b16607482015260880160408051601f19818403018152919052805160209182012091506111b990840184614cd7565b6001600160a01b03166111d26040850160208601614cd7565b6001600160a01b03161415801561120a57506001600160a01b0382166111fe6040850160208601614cd7565b6001600160a01b031614155b1561129c57600360006112236040860160208701614cd7565b6001600160a01b039081168252602080830193909352604091820160009081209186168152925290205460ff1661129c5760405162461bcd60e51b815260206004820152601760248201527f4e4f545f415554484f52495a45445f544f5f464c45455400000000000000000060448201526064016104c1565b6112b581836112b0368790038701876150f7565b611482565b505050565b6000805b8281101561139f5760006112dd858584818110610e1057610e106150e1565b80549091506112f890600160a01b900463ffffffff16611aa9565b1561138c5780546001600160a01b038781169116146113595760405162461bcd60e51b815260206004820152600960248201527f4e4f545f4f574e4552000000000000000000000000000000000000000000000060448201526064016104c1565b61137f85858481811061136e5761136e6150e1565b905060200201358783600080611d72565b61138990846150ac565b92505b508061139781615091565b9150506112be565b506001600160a01b0384166000908152600260205260408120546113c49083906150ac565b90506105a58582611c60565b6000828152600160205260408120546001600160a01b0381169163ffffffff600160a01b8304811692600160c01b90041690808061142f60027f00000000000000000000000000000000000000000000000000000000000000006151a2565b61143f9063ffffffff87166151a2565b6000978852600460209081526040808a20928a529190529096205494979396509194505067ffffffffffffffff8084169368010000000000000000900416919050565b60408181015160009081526020819052208054600160a01b900463ffffffff16156114ef5760405162461bcd60e51b815260206004820152600b60248201527f504c414e45545f4558495400000000000000000000000000000000000000000060448201526064016104c1565b805482516001600160a01b0390811691161461154d5760405162461bcd60e51b815260206004820152600960248201527f4e4f545f4f574e4552000000000000000000000000000000000000000000000060448201526064016104c1565b60006115aa8360400151604080517f00000000000000000000000000000000000000000000000000000000000000006020820152908101829052600090606001604051602081830303815290604052805190602001209050919050565b905060006115b782611f1f565b835490915060009081906115e29063ffffffff600160c01b8204811691600160e01b90041685611f96565b91509150856060015163ffffffff168163ffffffff1610156116465760405162461bcd60e51b815260206004820152601560248201527f535041434553484950535f4e4f545f454e4f554748000000000000000000000060448201526064016104c1565b60008061165d83858a604001518b606001516121e6565b91509150604051806060016040528089602001516001600160a01b031681526020018363ffffffff168152602001896060015163ffffffff16815250600160008c815260200190815260200160002060008201518160000160006101000a8154816001600160a01b0302191690836001600160a01b0316021790555060208201518160000160146101000a81548163ffffffff021916908363ffffffff16021790555060408201518160000160186101000a81548163ffffffff021916908363ffffffff160217905550905050876040015188602001516001600160a01b031689600001516001600160a01b03167fa069887d9311acae9fe31657a1cc64ab2f9d55b74319d0193094208f946a0e778c8e8d60600151876040516117ae94939291906001600160a01b03949094168452602084019290925263ffffffff908116604084015216606082015260800190565b60405180910390a450505050505050505050565b6000828152600160209081526040808320815160608101835290546001600160a01b038116825263ffffffff600160a01b8204811694830194909452600160c01b90049092169082015290806118188385612379565b9150915060006118378560200151600090815260208190526040902090565b6040805160808101825291546001600160a01b038116835263ffffffff600160a01b8204811660208501819052600160c01b8304821693850193909352600160e01b90910416606083015285519192506118d49190889061189790611aa9565b6118a25783516118a5565b60005b602089015160608a01518a516001600160a01b0382161515916118ce918c918a9086908e61242f565b886124be565b5050506000928352505060016020526040902080547fffffffff00000000ffffffffffffffffffffffffffffffffffffffffffffffff169055565b638000000081811681149060009061192790846151b6565b9050915091565b60408051610100810182526000808252602080830182905282840182905260608084018390526080840183905260a0840183905260c0840183905260e084019290925283517f000000000000000000000000000000000000000000000000000000000000000081830152808501869052845180820386018152920190935280519201919091206119bd81612573565b611a095760405162461bcd60e51b815260206004820152601a60248201527f6e6f20706c616e657420696e2074686973206c6f636174696f6e00000000000060448201526064016104c1565b600080611a158361258f565b915091506040518061010001604052808360000b81526020018260000b8152602001611a40856125c3565b61ffff168152602001611a5285611f1f565b61ffff168152602001611a6485612674565b61ffff168152602001611a76856126e5565b61ffff168152602001611a888561273b565b61ffff168152602001611a9a856127ac565b61ffff16905295945050505050565b6000808263ffffffff16118015611aee5750611aeb7f000000000000000000000000000000000000000000000000000000000000000063ffffffff84166150ac565b42115b92915050565b6000611b038686868686611d72565b6001600160a01b038616600090815260026020526040902054909150611b35908690611b309084906150ac565b61281d565b505050505050565b604080517f000000000000000000000000000000000000000000000000000000000000000060208083019190915281830184905282518083038401815260609092019092528051910120670de0b6b3a7640000611b99826125c3565b61ffff16611ba791906151d9565b8314611bf55760405162461bcd60e51b815260206004820152600e60248201527f494e56414c49445f414d4f554e5400000000000000000000000000000000000060448201526064016104c1565b6000611c02858484612876565b9050611c0d83612cc8565b6040805163ffffffff831681526020810186905284916001600160a01b038816917f5a2bd9d3c37a402271eaa8b4cd01a1a65831589c630b4b8ab1967eca76c0412c910160405180910390a35050505050565b611c6b82600061281d565b6040517fa9059cbb0000000000000000000000000000000000000000000000000000000081526001600160a01b038381166004830152602482018390527f0000000000000000000000000000000000000000000000000000000000000000169063a9059cbb90604401602060405180830381600087803b158015611cee57600080fd5b505af1158015611d02573d6000803e3d6000fd5b505050506040513d601f19601f82011682018060405250810190611d2691906150c4565b6107d35760405162461bcd60e51b815260206004820152600f60248201527f4641494c45445f5452414e53464552000000000000000000000000000000000060448201526064016104c1565b604080517f0000000000000000000000000000000000000000000000000000000000000000602080830191909152818301889052825180830384018152606090920190925280519101206000906000670de0b6b3a7640000611dd3836125c3565b61ffff16611de191906151d9565b905087876001600160a01b03167f1c363b29828a892b7cddafe9583ef52e0d5aca0ea7011bda6ccf039e1781f73883604051611e1f91815260200190565b60405180910390a36000888152600760205260409020548015611ea4576001600160a01b03881660008181526008602090815260408083208584528252808320805460ff191660011790558c835260079091528082208290555183928c9290917f74f110a1e0cd4892234c7ba49df9f8a354cd8d29b272f7557c9b8c3c38a653369190a45b50855463ffffffff858116600160c01b027fffffffff00000000ffffffffffffffffffffffffffffffffffffffffffffffff42909216600160e01b027bffffffff0000000000000000000000000000000000000000000000009093166001600160a01b03891617929092171617865591505095945050505050565b6000611f2a82612573565b611f6a5760405162461bcd60e51b8152602060048201526011602482015270504c414e45545f4e4f545f45584953545360781b60448201526064016104c1565b611aee82600c7f0708083409600a8c0bb80ce40e100e100e100e101068151819c81e7823282ee0613092565b600080611fa28561190f565b90925090506000611fb8600163800000006151f8565b63ffffffff1690506000611fcc864261521d565b905063ffffffff83167f00000000000000000000000000000000000000000000000000000000000000001561215657600080610e1061202f61ffff8a167f00000000000000000000000000000000000000000000000000000000000000006151d9565b61203991906151a2565b6120699063ffffffff7f0000000000000000000000000000000000000000000000000000000000000000166150ac565b9050808663ffffffff1611156120af5783915061208c8163ffffffff881661521d565b8211156120a6576120a38163ffffffff881661521d565b91505b600094506120c2565b6120bf63ffffffff87168261521d565b94505b8615612131576000610e1063ffffffff7f00000000000000000000000000000000000000000000000000000000000000001661210261ffff8c16886151d9565b61210c91906151d9565b61211691906151a2565b9050858111156121235750845b61212d81856150ac565b9350505b82821115612142576000925061214f565b61214c828461521d565b92505b50506121b5565b84156121b557610e1063ffffffff7f00000000000000000000000000000000000000000000000000000000000000001661219461ffff8916856151d9565b61219e91906151d9565b6121a891906151a2565b6121b290826150ac565b90505b638000000081106121d8576121cf600163800000006151f8565b63ffffffff1690505b809350505050935093915050565b60008281526020819052604081208190600061222360027f00000000000000000000000000000000000000000000000000000000000000006151a2565b61222d90426151a2565b600087815260046020908152604080832084845290915290205490915067ffffffffffffffff1661226463ffffffff871682615234565b90508563ffffffff168167ffffffffffffffff1610156122c65760405162461bcd60e51b815260206004820152600860248201527f4f564552464c4f5700000000000000000000000000000000000000000000000060448201526064016104c1565b60008781526004602090815260408083208584529091529020805467ffffffffffffffff191667ffffffffffffffff8316179055429450612307868a6151f8565b9350612313888561310c565b835477ffffffffffffffffffffffffffffffffffffffffffffffff16600160c01b63ffffffff928316027bffffffffffffffffffffffffffffffffffffffffffffffffffffffff1617600160e01b91871691909102179092555091969095509350505050565b6040820151600063ffffffff82166123d35760405162461bcd60e51b815260206004820152601260248201527f464c4545545f444f5f4e4f545f4558495354000000000000000000000000000060448201526064016104c1565b6123e68284600001518660200151613132565b91508184604001516123f891906151f8565b9050612411836040015184600001518560200151613259565b612428836040015184600001518660200151613475565b9250929050565b6040805160a0810182526000808252602082018190529181018290526060810182905260808101919091526000836001600160a01b031611801561247c575084516001600160a01b031615155b1561249e576124978760000151868685878c6020015161360f565b90506124b4565b612497876000015188602001518888888761391e565b9695505050505050565b846001600160a01b0316876001600160a01b0316877f606ed05ee5450c129097ad509fc76dd97bde7b9bfc9a935df4671051779e0eb0878787602001518860400151888a600001518b606001518c60800151604051612562989796959493929190978852951515602088015263ffffffff948516604088015292841660608701529083166080860152821660a0850152151560c08401521660e08201526101000190565b60405180910390a450505050505050565b60006125828260346010613a93565b60ff166001149050919050565b60008061259e83826003613a93565b6125a9906001615260565b91506125b88360026003613a93565b611927906001615260565b60006125ce82612573565b61260e5760405162461bcd60e51b8152602060048201526011602482015270504c414e45545f4e4f545f45584953545360781b60448201526064016104c1565b600061261b83600c613ab0565b905060ff81167e060008000a000c000e0010001200140014001600180020002800300038004861264c8260026152c2565b6126579060016152ec565b61ffff166020811061266b5761266b6150e1565b1a949350505050565b600061267f82612573565b6126bf5760405162461bcd60e51b8152602060048201526011602482015270504c414e45545f4e4f545f45584953545360781b60448201526064016104c1565b6126ca826014613ab0565b6126d99060ff166101906152c2565b611aee90610fa06152ec565b60006126f082612573565b6127305760405162461bcd60e51b8152602060048201526011602482015270504c414e45545f4e4f545f45584953545360781b60448201526064016104c1565b6126ca82601c613ab0565b600061274682612573565b6127865760405162461bcd60e51b8152602060048201526011602482015270504c414e45545f4e4f545f45584953545360781b60448201526064016104c1565b612791826024613ab0565b6127a09060ff1661014d6152c2565b611aee9061138d6152ec565b60006127b782612573565b6127f75760405162461bcd60e51b8152602060048201526011602482015270504c414e45545f4e4f545f45584953545360781b60448201526064016104c1565b61280282602c613ab0565b6128119060ff16610bb86152c2565b611aee90613a986152ec565b6001600160a01b03821660008181526002602052604090819020839055517f4d135695228631e73b5a31e6fc8af4e5825cde63774c3c48695b4af814d7b0199061286a9084815260200190565b60405180910390a25050565b600082815260208190526040812081906040805160808101825282546001600160a01b038116825263ffffffff600160a01b820481166020840152600160c01b82048116938301849052600160e01b90910416606082018190529293509160009182916128ec91906128e789611f1f565b611f96565b91509150600080846060015163ffffffff166000141561291a5761290f886127ac565b61ffff169050612a4e565b602085015163ffffffff161561298c576129378560200151611aa9565b6129835760405162461bcd60e51b815260206004820152600d60248201527f5354494c4c5f45584954494e470000000000000000000000000000000000000060448201526064016104c1565b60019150612a4e565b83156129da5760405162461bcd60e51b815260206004820152600c60248201527f5354494c4c5f414354495645000000000000000000000000000000000000000060448201526064016104c1565b896001600160a01b031685600001516001600160a01b03161480612a02575063ffffffff8316155b612a4e5760405162461bcd60e51b815260206004820152600860248201527f4f4343555049454400000000000000000000000000000000000000000000000060448201526064016104c1565b8115612a97577f00000000000000000000000000000000000000000000000000000000000000009250612a92898660000151888d612a8d60018961310c565b611af4565b612cba565b85547fffffffffffffffffffffffff0000000000000000000000000000000000000000166001600160a01b038b1617865563ffffffff811615612c275760006360916f80421115612b3057612b287f000000000000000000000000000000000000000000000000000000000000000063ffffffff168363ffffffff16612710612b1f8d6126e5565b61ffff16613b4a565b509050612b7a565b612b767f000000000000000000000000000000000000000000000000000000000000000063ffffffff168363ffffffff16612710612b6d8d6126e5565b61ffff16613ceb565b5090505b7f000000000000000000000000000000000000000000000000000000000000000063ffffffff168163ffffffff1610612bf55760405162461bcd60e51b815260206004820152600f60248201527f4641494c45445f4341505455524544000000000000000000000000000000000060448201526064016104c1565b612c1f817f00000000000000000000000000000000000000000000000000000000000000006151f8565b935050612c54565b612c517f000000000000000000000000000000000000000000000000000000000000000084615309565b92505b612c5f60018461310c565b865477ffffffffffffffffffffffffffffffffffffffffffffffff16600160c01b63ffffffff928316027bffffffffffffffffffffffffffffffffffffffffffffffffffffffff1617600160e01b4292909216919091021786555b509098975050505050505050565b604080516080808201835260055463ffffffff80821684526401000000008204811660208501526801000000000000000082048116948401949094526c0100000000000000000000000090049092166060820152906fffffffffffffffffffffffffffffffff8316600f0b9083901d600080831215612dec57835163ffffffff16612d5284615328565b1315612da05760405162461bcd60e51b815260206004820152601660248201527f4e4f545f524541434841424c455f5945545f4d494e580000000000000000000060448201526064016104c1565b6008612dab84615328565b612db59190615361565b925063ffffffff831315612dcb5763ffffffff92505b835163ffffffff16831315612de7575063ffffffff8216835260015b612e8f565b836020015163ffffffff16831315612e465760405162461bcd60e51b815260206004820152601660248201527f4e4f545f524541434841424c455f5945545f4d4158580000000000000000000060448201526064016104c1565b612e51600884615361565b925063ffffffff831315612e675763ffffffff92505b8263ffffffff16846020015163ffffffff161015612e8f575063ffffffff8216602084015260015b6000821215612f4c57604084015163ffffffff16612eac83615328565b1315612efa5760405162461bcd60e51b815260206004820152601660248201527f4e4f545f524541434841424c455f5945545f4d494e590000000000000000000060448201526064016104c1565b6008612f0583615328565b612f0f9190615361565b915063ffffffff821315612f255763ffffffff91505b81846040015163ffffffff161215612f47575063ffffffff8116604084015260015b612fe9565b836060015163ffffffff16821315612fa65760405162461bcd60e51b815260206004820152601660248201527f4e4f545f524541434841424c455f5945545f4d4158590000000000000000000060448201526064016104c1565b612fb1600883615361565b915063ffffffff821315612fc75763ffffffff91505b81846060015163ffffffff161215612fe9575063ffffffff8116606084015260015b80156105a55783516005805460208701516040880151606089015163ffffffff9081166c01000000000000000000000000027fffffffffffffffffffffffffffffffff00000000ffffffffffffffffffffffff9282166801000000000000000002929092166fffffffffffffffff0000000000000000199382166401000000000267ffffffffffffffff1990951691909616179290921716929092179190911790555050505050565b60008061309f8585613ab0565b9050826130ad8260026153d5565b6130b89060016153fe565b60ff16602081106130cb576130cb6150e1565b1a836130d88360026153d5565b60ff16602081106130eb576130eb6150e1565b6130f991901a6101006152c2565b61310391906152ec565b95945050505050565b6000818361311b576000613121565b63800000005b61312b9190615309565b9392505050565b60008061316060027f00000000000000000000000000000000000000000000000000000000000000006151a2565b6131709063ffffffff85166151a2565b600085815260046020908152604080832084845290915290205490915068010000000000000000900467ffffffffffffffff1663ffffffff86168110156131f2576131bb81876151f8565b6000868152600460209081526040808320868452909152902080546fffffffffffffffff000000000000000019169055955061324f565b600095506132008682615423565b60008681526004602090815260408083208684529091529020805467ffffffffffffffff9290921668010000000000000000026fffffffffffffffff0000000000000000199092169190911790555b5093949350505050565b6000806132bb6132b685604080517f00000000000000000000000000000000000000000000000000000000000000006020820152908101829052600090606001604051602081830303815290604052805190602001209050919050565b61258f565b9150915060008061331c6132b686604080517f00000000000000000000000000000000000000000000000000000000000000006020820152908101829052600090606001604051602081830303815290604052805190602001209050919050565b90925090506000600284820b61333760808a901c6004615444565b61334191906154eb565b600084900b61335560808a901c6004615444565b61335f91906154eb565b613369919061554c565b6133739190615740565b6002600087900b6133976fffffffffffffffffffffffffffffffff8b166004615444565b6133a191906154eb565b600086900b6133c36fffffffffffffffffffffffffffffffff8b166004615444565b6133cd91906154eb565b6133d7919061554c565b6133e19190615740565b6133eb91906154eb565b600f0b9050806133fc60028a6157e1565b1115801561341f575060026134128960016150ac565b61341c91906157e1565b81105b61346b5760405162461bcd60e51b815260206004820152600e60248201527f77726f6e672064697374616e636500000000000000000000000000000000000060448201526064016104c1565b5050505050505050565b604080517f0000000000000000000000000000000000000000000000000000000000000000602080830191909152818301859052825180830384018152606090920190925280519101206000906134cb9061273b565b61ffff166134fb7f00000000000000000000000000000000000000000000000000000000000000006127106151d9565b61350590866151d9565b61350f91906151a2565b61351f9063ffffffff84166150ac565b9050804210156135715760405162461bcd60e51b815260206004820152600960248201527f746f6f206561726c79000000000000000000000000000000000000000000000060448201526064016104c1565b61359b7f0000000000000000000000000000000000000000000000000000000000000000826150ac565b4210610b7f5760405162461bcd60e51b815260206004820152602b60248201527f746f6f206c6174652c20796f7572207370616365736869707320617265206c6f60448201527f737420696e20737061636500000000000000000000000000000000000000000060648201526084016104c1565b6040805160a081018252600080825260208083018290529282018190526060820181905260808201529086015161364590611aa9565b156136955785516001600160a01b03811661365d5750865b8651600087815260208190526040902061368d91889163ffffffff8916613685576000613687565b845b89613e1b565b9150506124b4565b60016001600160a01b03841681101561377c5786516040517f5db2269e0000000000000000000000000000000000000000000000000000000081526001600160a01b0386811660048301528a8116602483015291821660448201524260648201527f000000000000000000000000000000000000000000000000000000000000000090911690635db2269e9060840160206040518083038186803b15801561373c57600080fd5b505afa158015613750573d6000803e3d6000fd5b505050506040513d601f19601f8201168201806040525081019061377491906150c4565b159050613795565b86516001600160a01b0389811691161415613795575060005b80156137cd576127106137b06109c463ffffffff88166151d9565b6137ba91906151a2565b6137ca9063ffffffff871661521d565b94505b604080517f000000000000000000000000000000000000000000000000000000000000000060208083019190915281830189905282518083038401815260609092019092528051910120600061382282611f1f565b90506000806138408b604001518c6060015163ffffffff1685611f96565b909250905060006138518a83615309565b63ffffffff1690506380000000811061387c57613873600163800000006151f8565b63ffffffff1690505b60008b815260208190526040902080547bffffffffffffffffffffffffffffffffffffffffffffffffffffffff16600160e01b4263ffffffff16021790556138c4838261310c565b60008c8152602081905260409020805463ffffffff928316600160c01b027fffffffff00000000ffffffffffffffffffffffffffffffffffffffffffffffff90911617905516608087015250505050509695505050505050565b6040805160a081018252600080825260208201819052918101829052606081018290526080810191909152606084015163ffffffff166139b057604080517f00000000000000000000000000000000000000000000000000000000000000006020808301919091528183018690528251808303840181526060909201909252805191012061368d888888878588613e87565b6139bd8460200151611aa9565b156139df57835160008481526020819052604090206124979185918a86613e1b565b604080517f00000000000000000000000000000000000000000000000000000000000000006020808301829052828401879052835180840385018152606084018552805190820120608084019290925260a08084018a90528451808503909101815260c090930190935281519190920120600090613a5c90612674565b90506000613a69836126e5565b90506000613a7684611f1f565b9050613a888b8b85858c8c878d6140ad565b9450505050506124b4565b6000613aa860ff80841690851686901c6157f0565b949350505050565b600080613abf84846040613a93565b90506000613ace600283615804565b90506000613add600284615826565b905060007f01223334444555555666666677777777888888889999999aaaaaabbbbcccddef60ff841660208110613b1657613b166150e1565b1a905060ff8216613b345760048160ff16901c945050505050611aee565b613b3f601082615826565b945050505050611aee565b600080851580613b58575084155b15613b6857506000905080613ce2565b600085613b95887f00000000000000000000000000000000000000000000000000000000000000006151d9565b613b9f91906151a2565b613bcc7f0000000000000000000000000000000000000000000000000000000000000000620f424061521d565b613bd691906150ac565b613be090886151d9565b90506000620f424085613bf388856151d9565b613bfd91906151a2565b613c0791906151a2565b905080871115613c1c57879350809250613cdf565b600088613c49897f00000000000000000000000000000000000000000000000000000000000000006151d9565b613c5391906151a2565b613c807f0000000000000000000000000000000000000000000000000000000000000000620f424061521d565b613c8a91906150ac565b613c9490896151d9565b90506000620f424088613ca789856151d9565b613cb191906151a2565b613cbb91906151a2565b63ffffffff169050898110613cd857613cd560018b61521d565b90505b9450879350505b50505b94509492505050565b600080851580613cf9575084155b15613d0957506000905080613ce2565b6000613d1585886151d9565b90506000613d2385886151d9565b9050600082613d36896305f5e1006151d9565b613d4091906151a2565b9050613d50886305f5e1006151d9565b613d5a84836151d9565b1015613d6e5780613d6a81615091565b9150505b600082613d7f8b6305f5e1006151d9565b613d8991906151a2565b9050613d998a6305f5e1006151d9565b613da384836151d9565b1015613db75780613db381615091565b9150505b6000613dc383836141eb565b9050613de76305f5e100613dd786846151d9565b613de191906151a2565b8c6141eb565b9650613e0b6305f5e100613dfb87846151d9565b613e0591906151a2565b8b6141eb565b9550505050505094509492505050565b6040805160a081018252600080825260208201819052918101829052606081018290526080810191909152613e6986868660008663ffffffff1611613e61576000613e63565b865b86611af4565b63ffffffff9091166080820181905215156060820152949350505050565b6040805160a0810182526000808252602080830182905282840182905260608084018390526080840183905284517f0000000000000000000000000000000000000000000000000000000000000000818401528086018a905285518082038701815291019094528351930192909220909190613f0290612674565b90506000613f0f856126e5565b90506000613f1c866127ac565b90506000806360916f808b63ffffffff161115613f5b57613f518763ffffffff168461ffff168761ffff168761ffff16613b4a565b9092509050613f7f565b613f798763ffffffff168461ffff168761ffff168761ffff16613ceb565b90925090505b63ffffffff8083166020880152811661ffff8416148015613fab57508163ffffffff168763ffffffff16115b1561409e57613fba82886151f8565b63ffffffff1660808701819052613fd39060009061310c565b6000808b815260200190815260200160002060000160186101000a81548163ffffffff021916908363ffffffff160217905550426000808b8152602001908152602001600020600001601c6101000a81548163ffffffff021916908363ffffffff1602179055508b6000808b815260200190815260200160002060000160006101000a8154816001600160a01b0302191690836001600160a01b0316021790555080866040019063ffffffff16908163ffffffff168152505060018660600190151590811515815250505b50505050509695505050505050565b6040805160a0810182526000808252602082018190529181018290526060810182905260808101829052906140e3868686614202565b9050806040015163ffffffff166000148015614105575060008363ffffffff16115b156141cc57600085815260208190526040902080547fffffffffffffffff000000000000000000000000000000000000000000000000166001600160a01b038c161790558051614155908461310c565b6000868152602081905260409020805477ffffffffffffffffffffffffffffffffffffffffffffffff16600160c01b63ffffffff938416027bffffffffffffffffffffffffffffffffffffffffffffffffffffffff1617600160e01b428416021790556001606084015283166080830152506141df565b6141db818b8b88878d8d6142bb565b9150505b98975050505050505050565b6000818311156141fb578161312b565b5090919050565b6040805160e081018252600080825260208201819052918101829052606081018290526080810182905260a0810182905260c08101919091526000806142578660400151876060015163ffffffff1686611f96565b91509150600080600080600061426d868b614858565b9a15158c5263ffffffff998a1660208d01529290981660408b015267ffffffffffffffff90811660608b015296871660808a0152861660a089015250505050911660c0830152509392505050565b6040805160a081018252600080825260208201819052918101829052606081018290526080810182905290806360916f8063ffffffff891611156143275761431d8663ffffffff168b6040015163ffffffff168761ffff168761ffff16613b4a565b9092509050614351565b61434b8663ffffffff168b6040015163ffffffff168761ffff168761ffff16613ceb565b90925090505b63ffffffff80831660208086019190915282821660408601819052908c015190911610156146fa5760208a015161438890826151f8565b63ffffffff90811680855260208c0151909116604085015260608b015167ffffffffffffffff161061440b57826000015163ffffffff168a6060018181516143d09190615423565b67ffffffffffffffff16905250825160808b01805163ffffffff909216916143f9908390615234565b67ffffffffffffffff169052506144e1565b89606001518a6080018181516144219190615234565b67ffffffffffffffff1690525060608a015183516000916144479163ffffffff16615423565b90508067ffffffffffffffff168b60a0015167ffffffffffffffff16106144ad57808b60a00181815161447a9190615423565b67ffffffffffffffff1690525060c08b01805182919061449b908390615234565b67ffffffffffffffff169052506144d8565b8a60a001518b60c0018181516144c39190615234565b67ffffffffffffffff16905250600060a08c01525b50600060608b01525b60608a0151600088815260046020526040812090600161452260027f00000000000000000000000000000000000000000000000000000000000000006151a2565b61452c90426151a2565b614536919061521d565b815260208082019290925260409081016000908120805467ffffffffffffffff191667ffffffffffffffff959095169490941790935560808d01518a845260049092528220909160016145aa60027f00000000000000000000000000000000000000000000000000000000000000006151a2565b6145b490426151a2565b6145be919061521d565b815260200190815260200160002060000160086101000a81548167ffffffffffffffff021916908367ffffffffffffffff1602179055508960a0015160046000898152602001908152602001600020600060027f000000000000000000000000000000000000000000000000000000000000000061463c91906151a2565b61464690426151a2565b815260208082019290925260409081016000908120805467ffffffffffffffff191667ffffffffffffffff959095169490941790935560c08d01518a84526004909252822090916146b860027f00000000000000000000000000000000000000000000000000000000000000006151a2565b6146c290426151a2565b815260200190815260200160002060000160086101000a81548167ffffffffffffffff021916908367ffffffffffffffff1602179055505b60008663ffffffff161180156147235750896020015163ffffffff16836040015163ffffffff16145b156148035761473282876151f8565b63ffffffff166080840190815260016060850152600088815260208190526040902080547fffffffffffffffff000000000000000000000000000000000000000000000000166001600160a01b038c161790558a519051614793919061310c565b6000888152602081905260409020805477ffffffffffffffffffffffffffffffffffffffffffffffff16600160c01b63ffffffff938416027bffffffffffffffffffffffffffffffffffffffffffffffffffffffff1617600160e01b42939093169290920291909117905561484b565b8563ffffffff16836020015163ffffffff16141561484357808a6020015161482b91906151f8565b63ffffffff16608084018190528a516147939161310c565b61484b615848565b5050979650505050505050565b8160008080808061488a60027f00000000000000000000000000000000000000000000000000000000000000006151a2565b61489490426151a2565b60008881526004602052604081209192506148b060018461521d565b815260208082019290925260409081016000908120548a8252600490935290812067ffffffffffffffff90921696506148ea60018461521d565b815260208082019290925260409081016000908120548a825260048452828220858352909352205467ffffffffffffffff9182169550818116945068010000000000000000900416915061496663ffffffff87166149488588615234565b6149529190615234565b67ffffffffffffffff1663ffffffff6141eb565b9550509295509295909350565b60006020828403121561498557600080fd5b5035919050565b803563ffffffff811681146149a057600080fd5b919050565b6000806000606084860312156149ba57600080fd5b833592506149ca6020850161498c565b9150604084013590509250925092565b6001600160a01b03811681146149ef57600080fd5b50565b60008060008060008060008060008060006101608c8e031215614a1457600080fd5b8b35614a1f816149da565b9a5060208c0135614a2f816149da565b995060408c01359850614a4460608d0161498c565b9750614a5260808d0161498c565b9650614a6060a08d0161498c565b9550614a6e60c08d0161498c565b9450614a7c60e08d0161498c565b9350614a8b6101008d0161498c565b9250614a9a6101208d0161498c565b9150614aa96101408d0161498c565b90509295989b509295989b9093969950565b600080828403610100811215614ad057600080fd5b8335925060e0601f1982011215614ae657600080fd5b506020830190509250929050565b6101c08101614b5182856001600160a01b038151168252602081015163ffffffff8082166020850152806040840151166040850152806060840151166060850152505060808101511515608083015260a081015160a08301525050565b8251600090810b60c08401526020840151900b60e0830152604083015161ffff9081166101008401526060840151166101208301526080830151614b9c61014084018261ffff169052565b5060a083015161ffff90811661016084015260c0840151811661018084015260e0909301519092166101a090910152919050565b60008060408385031215614be357600080fd5b823591506020830135614bf5816149da565b809150509250929050565b60008060408385031215614c1357600080fd5b50508035926020909101359150565b60008083601f840112614c3457600080fd5b50813567ffffffffffffffff811115614c4c57600080fd5b60208301915083602082850101111561242857600080fd5b600080600080600060808688031215614c7c57600080fd5b8535614c87816149da565b94506020860135614c97816149da565b935060408601359250606086013567ffffffffffffffff811115614cba57600080fd5b614cc688828901614c22565b969995985093965092949392505050565b600060208284031215614ce957600080fd5b813561312b816149da565b80151581146149ef57600080fd5b60008060408385031215614d1557600080fd5b8235614d20816149da565b91506020830135614bf581614cf4565b60008060008060608587031215614d4657600080fd5b8435614d51816149da565b935060208501359250604085013567ffffffffffffffff811115614d7457600080fd5b614d8087828801614c22565b95989497509550505050565b60008083601f840112614d9e57600080fd5b50813567ffffffffffffffff811115614db657600080fd5b6020830191508360208260051b850101111561242857600080fd5b60008060208385031215614de457600080fd5b823567ffffffffffffffff811115614dfb57600080fd5b614e0785828601614d8c565b90969095509350505050565b60a0808252835190820181905260009060c090818401906020808801855b83811015614ea257614e928583516001600160a01b038151168252602081015163ffffffff8082166020850152806040840151166040850152806060840151166060850152505060808101511515608083015260a081015160a08301525050565b9385019390820190600101614e31565b5050829450614ede81870188805163ffffffff908116835260208083015182169084015260408083015182169084015260609182015116910152565b505050509392505050565b60008060408385031215614efc57600080fd5b8235614f07816149da565b946020939093013593505050565b60808101611aee8284805163ffffffff908116835260208083015182169084015260408083015182169084015260609182015116910152565b600060a08284031215614f6057600080fd5b50919050565b600080600060408486031215614f7b57600080fd5b8335614f86816149da565b9250602084013567ffffffffffffffff811115614fa257600080fd5b614fae86828701614d8c565b9497909650939450505050565b634e487b7160e01b600052604160045260246000fd5b600060e08284031215614fe357600080fd5b60405160e0810181811067ffffffffffffffff8211171561501457634e487b7160e01b600052604160045260246000fd5b8060405250823581526020830135602082015260408301356040820152606083013561503f816149da565b60608201526080838101359082015260a083013561505c816149da565b60a082015260c083013561506f816149da565b60c08201529392505050565b634e487b7160e01b600052601160045260246000fd5b60006000198214156150a5576150a561507b565b5060010190565b600082198211156150bf576150bf61507b565b500190565b6000602082840312156150d657600080fd5b815161312b81614cf4565b634e487b7160e01b600052603260045260246000fd5b600060a0828403121561510957600080fd5b60405160a0810181811067ffffffffffffffff8211171561513a57634e487b7160e01b600052604160045260246000fd5b6040528235615148816149da565b81526020830135615158816149da565b6020820152604083810135908201526151736060840161498c565b6060820152608083013560808201528091505092915050565b634e487b7160e01b600052601260045260246000fd5b6000826151b1576151b161518c565b500490565b600063ffffffff808416806151cd576151cd61518c565b92169190910692915050565b60008160001904831182151516156151f3576151f361507b565b500290565b600063ffffffff838116908316818110156152155761521561507b565b039392505050565b60008282101561522f5761522f61507b565b500390565b600067ffffffffffffffff8083168185168083038211156152575761525761507b565b01949350505050565b60008160000b8360000b60008112817fffffffffffffffffffffffffffffffffffffffffffffffffffffffffffffff80018312811516156152a3576152a361507b565b81607f0183138116156152b8576152b861507b565b5090039392505050565b600061ffff808316818516818304811182151516156152e3576152e361507b565b02949350505050565b600061ffff8083168185168083038211156152575761525761507b565b600063ffffffff8083168185168083038211156152575761525761507b565b60007f800000000000000000000000000000000000000000000000000000000000000082141561535a5761535a61507b565b5060000390565b6000808212827f7fffffffffffffffffffffffffffffffffffffffffffffffffffffffffffffff0384138115161561539b5761539b61507b565b827f80000000000000000000000000000000000000000000000000000000000000000384128116156153cf576153cf61507b565b50500190565b600060ff821660ff84168160ff04811182151516156153f6576153f661507b565b029392505050565b600060ff821660ff84168060ff0382111561541b5761541b61507b565b019392505050565b600067ffffffffffffffff838116908316818110156152155761521561507b565b600081600f0b83600f0b6f7fffffffffffffffffffffffffffffff60008213600084138383048511828216161561547d5761547d61507b565b6f7fffffffffffffffffffffffffffffff1960008512868205861281841616156154a9576154a961507b565b600087129250858205871284841616156154c5576154c561507b565b858505871281841616156154db576154db61507b565b5050509290910295945050505050565b600081600f0b83600f0b60008212826f7fffffffffffffffffffffffffffffff0382138115161561551e5761551e61507b565b826f7fffffffffffffffffffffffffffffff190382128116156155435761554361507b565b50019392505050565b600081600f0b83600f0b60008112816f7fffffffffffffffffffffffffffffff19018312811516156155805761558061507b565b816f7fffffffffffffffffffffffffffffff0183138116156152b8576152b861507b565b600181815b808511156155df5781600019048211156155c5576155c561507b565b808516156155d257918102915b93841c93908002906155a9565b509250929050565b80825b60018086116155f95750615634565b816f7fffffffffffffffffffffffffffffff0482111561561b5761561b61507b565b8086161561562857918102915b9490941c9380026155ea565b935093915050565b6000828015615652576001811461565c57615665565b6001915050611aee565b82915050611aee565b508161567357506000611aee565b5060016000821380821461568c5780156156b3576156d5565b826f7fffffffffffffffffffffffffffffff048311156156ae576156ae61507b565b6156d5565b826f7fffffffffffffffffffffffffffffff058312156156d5576156d561507b565b50808316156156e15750805b6156f18360011c838402836155e7565b806f7fffffffffffffffffffffffffffffff0482116000831316156157185761571861507b565b806f7fffffffffffffffffffffffffffffff190582126000831216156153f6576153f661507b565b600061312b60ff841683600f0b61563c565b60008261576157506001611aee565b8161576e57506000611aee565b81600181146156525760028114615784576157a0565b60ff8411156157955761579561507b565b50506001821b611aee565b5060208310610133831016604e8410600b84101617156157c3575081810a611aee565b6157cd83836155a4565b80600019048211156153f6576153f661507b565b600061312b60ff841683615752565b6000826157ff576157ff61518c565b500690565b600060ff8316806158175761581761518c565b8060ff84160491505092915050565b600060ff8316806158395761583961518c565b8060ff84160691505092915050565b634e487b7160e01b600052600160045260246000fdfea26469706673582212203e2b2cecd8f0163681dccbb851f1a12e2807154e382f1fbde56217cb4447624264736f6c63430008090033b53127684a568b3173ae13b9f8a6016e243e63b6e8ee1178d6a717850b5d6103",
  "devdoc": {
    "kind": "dev",
    "methods": {},
    "version": 1
  },
  "userdoc": {
    "kind": "user",
    "methods": {},
    "version": 1
  },
  "storageLayout": {
    "storage": [
      {
        "astId": 15005,
        "contract": "src/OuterSpace.sol:OuterSpace",
        "label": "_planets",
        "offset": 0,
        "slot": "0",
        "type": "t_mapping(t_uint256,t_struct(Planet)15053_storage)"
      },
      {
        "astId": 15010,
        "contract": "src/OuterSpace.sol:OuterSpace",
        "label": "_fleets",
        "offset": 0,
        "slot": "1",
        "type": "t_mapping(t_uint256,t_struct(Fleet)15060_storage)"
      },
      {
        "astId": 15014,
        "contract": "src/OuterSpace.sol:OuterSpace",
        "label": "_stakeReadyToBeWithdrawn",
        "offset": 0,
        "slot": "2",
        "type": "t_mapping(t_address,t_uint256)"
      },
      {
        "astId": 15020,
        "contract": "src/OuterSpace.sol:OuterSpace",
        "label": "_operators",
        "offset": 0,
        "slot": "3",
        "type": "t_mapping(t_address,t_mapping(t_address,t_bool))"
      },
      {
        "astId": 15032,
        "contract": "src/OuterSpace.sol:OuterSpace",
        "label": "_inFlight",
        "offset": 0,
        "slot": "4",
        "type": "t_mapping(t_uint256,t_mapping(t_uint256,t_struct(InFlight)15025_storage))"
      },
      {
        "astId": 15044,
        "contract": "src/OuterSpace.sol:OuterSpace",
        "label": "_discovered",
        "offset": 0,
        "slot": "5",
        "type": "t_struct(Discovered)15041_storage"
      },
      {
        "astId": 15064,
        "contract": "src/OuterSpace.sol:OuterSpace",
        "label": "_prevRewardIds",
        "offset": 0,
        "slot": "6",
        "type": "t_mapping(t_address,t_uint256)"
      },
      {
        "astId": 15068,
        "contract": "src/OuterSpace.sol:OuterSpace",
        "label": "_rewards",
        "offset": 0,
        "slot": "7",
        "type": "t_mapping(t_uint256,t_uint256)"
      },
      {
        "astId": 15074,
        "contract": "src/OuterSpace.sol:OuterSpace",
        "label": "_rewardsToWithdraw",
        "offset": 0,
        "slot": "8",
        "type": "t_mapping(t_address,t_mapping(t_uint256,t_bool))"
      }
    ],
    "types": {
      "t_address": {
        "encoding": "inplace",
        "label": "address",
        "numberOfBytes": "20"
      },
      "t_bool": {
        "encoding": "inplace",
        "label": "bool",
        "numberOfBytes": "1"
      },
      "t_mapping(t_address,t_bool)": {
        "encoding": "mapping",
        "key": "t_address",
        "label": "mapping(address => bool)",
        "numberOfBytes": "32",
        "value": "t_bool"
      },
      "t_mapping(t_address,t_mapping(t_address,t_bool))": {
        "encoding": "mapping",
        "key": "t_address",
        "label": "mapping(address => mapping(address => bool))",
        "numberOfBytes": "32",
        "value": "t_mapping(t_address,t_bool)"
      },
      "t_mapping(t_address,t_mapping(t_uint256,t_bool))": {
        "encoding": "mapping",
        "key": "t_address",
        "label": "mapping(address => mapping(uint256 => bool))",
        "numberOfBytes": "32",
        "value": "t_mapping(t_uint256,t_bool)"
      },
      "t_mapping(t_address,t_uint256)": {
        "encoding": "mapping",
        "key": "t_address",
        "label": "mapping(address => uint256)",
        "numberOfBytes": "32",
        "value": "t_uint256"
      },
      "t_mapping(t_uint256,t_bool)": {
        "encoding": "mapping",
        "key": "t_uint256",
        "label": "mapping(uint256 => bool)",
        "numberOfBytes": "32",
        "value": "t_bool"
      },
      "t_mapping(t_uint256,t_mapping(t_uint256,t_struct(InFlight)15025_storage))": {
        "encoding": "mapping",
        "key": "t_uint256",
        "label": "mapping(uint256 => mapping(uint256 => struct OuterSpace.InFlight))",
        "numberOfBytes": "32",
        "value": "t_mapping(t_uint256,t_struct(InFlight)15025_storage)"
      },
      "t_mapping(t_uint256,t_struct(Fleet)15060_storage)": {
        "encoding": "mapping",
        "key": "t_uint256",
        "label": "mapping(uint256 => struct OuterSpace.Fleet)",
        "numberOfBytes": "32",
        "value": "t_struct(Fleet)15060_storage"
      },
      "t_mapping(t_uint256,t_struct(InFlight)15025_storage)": {
        "encoding": "mapping",
        "key": "t_uint256",
        "label": "mapping(uint256 => struct OuterSpace.InFlight)",
        "numberOfBytes": "32",
        "value": "t_struct(InFlight)15025_storage"
      },
      "t_mapping(t_uint256,t_struct(Planet)15053_storage)": {
        "encoding": "mapping",
        "key": "t_uint256",
        "label": "mapping(uint256 => struct OuterSpace.Planet)",
        "numberOfBytes": "32",
        "value": "t_struct(Planet)15053_storage"
      },
      "t_mapping(t_uint256,t_uint256)": {
        "encoding": "mapping",
        "key": "t_uint256",
        "label": "mapping(uint256 => uint256)",
        "numberOfBytes": "32",
        "value": "t_uint256"
      },
      "t_struct(Discovered)15041_storage": {
        "encoding": "inplace",
        "label": "struct OuterSpace.Discovered",
        "members": [
          {
            "astId": 15034,
            "contract": "src/OuterSpace.sol:OuterSpace",
            "label": "minX",
            "offset": 0,
            "slot": "0",
            "type": "t_uint32"
          },
          {
            "astId": 15036,
            "contract": "src/OuterSpace.sol:OuterSpace",
            "label": "maxX",
            "offset": 4,
            "slot": "0",
            "type": "t_uint32"
          },
          {
            "astId": 15038,
            "contract": "src/OuterSpace.sol:OuterSpace",
            "label": "minY",
            "offset": 8,
            "slot": "0",
            "type": "t_uint32"
          },
          {
            "astId": 15040,
            "contract": "src/OuterSpace.sol:OuterSpace",
            "label": "maxY",
            "offset": 12,
            "slot": "0",
            "type": "t_uint32"
          }
        ],
        "numberOfBytes": "32"
      },
      "t_struct(Fleet)15060_storage": {
        "encoding": "inplace",
        "label": "struct OuterSpace.Fleet",
        "members": [
          {
            "astId": 15055,
            "contract": "src/OuterSpace.sol:OuterSpace",
            "label": "owner",
            "offset": 0,
            "slot": "0",
            "type": "t_address"
          },
          {
            "astId": 15057,
            "contract": "src/OuterSpace.sol:OuterSpace",
            "label": "launchTime",
            "offset": 20,
            "slot": "0",
            "type": "t_uint32"
          },
          {
            "astId": 15059,
            "contract": "src/OuterSpace.sol:OuterSpace",
            "label": "quantity",
            "offset": 24,
            "slot": "0",
            "type": "t_uint32"
          }
        ],
        "numberOfBytes": "32"
      },
      "t_struct(InFlight)15025_storage": {
        "encoding": "inplace",
        "label": "struct OuterSpace.InFlight",
        "members": [
          {
            "astId": 15022,
            "contract": "src/OuterSpace.sol:OuterSpace",
            "label": "flying",
            "offset": 0,
            "slot": "0",
            "type": "t_uint64"
          },
          {
            "astId": 15024,
            "contract": "src/OuterSpace.sol:OuterSpace",
            "label": "destroyed",
            "offset": 8,
            "slot": "0",
            "type": "t_uint64"
          }
        ],
        "numberOfBytes": "32"
      },
      "t_struct(Planet)15053_storage": {
        "encoding": "inplace",
        "label": "struct OuterSpace.Planet",
        "members": [
          {
            "astId": 15046,
            "contract": "src/OuterSpace.sol:OuterSpace",
            "label": "owner",
            "offset": 0,
            "slot": "0",
            "type": "t_address"
          },
          {
            "astId": 15048,
            "contract": "src/OuterSpace.sol:OuterSpace",
            "label": "exitTime",
            "offset": 20,
            "slot": "0",
            "type": "t_uint32"
          },
          {
            "astId": 15050,
            "contract": "src/OuterSpace.sol:OuterSpace",
            "label": "numSpaceships",
            "offset": 24,
            "slot": "0",
            "type": "t_uint32"
          },
          {
            "astId": 15052,
            "contract": "src/OuterSpace.sol:OuterSpace",
            "label": "lastUpdated",
            "offset": 28,
            "slot": "0",
            "type": "t_uint32"
          }
        ],
        "numberOfBytes": "32"
      },
      "t_uint256": {
        "encoding": "inplace",
        "label": "uint256",
        "numberOfBytes": "32"
      },
      "t_uint32": {
        "encoding": "inplace",
        "label": "uint32",
        "numberOfBytes": "4"
      },
      "t_uint64": {
        "encoding": "inplace",
        "label": "uint64",
        "numberOfBytes": "8"
      }
    }
  }
}