{
  "address": "0x3d1E2eC4556Bea4f60ABd70B11F3CBE2c4d550B1",
  "abi": [
    {
      "inputs": [
        {
          "internalType": "contract IERC20",
          "name": "stakingToken",
          "type": "address"
        },
        {
          "internalType": "contract AllianceRegistry",
          "name": "theAllianceRegistry",
          "type": "address"
        },
        {
          "internalType": "bytes32",
          "name": "genesis",
          "type": "bytes32"
        },
        {
          "internalType": "uint32",
          "name": "resolveWindow",
          "type": "uint32"
        },
        {
          "internalType": "uint32",
          "name": "timePerDistance",
          "type": "uint32"
        },
        {
          "internalType": "uint32",
          "name": "exitDuration",
          "type": "uint32"
        },
        {
          "internalType": "uint32",
          "name": "acquireNumSpaceships",
          "type": "uint32"
        },
        {
          "internalType": "uint32",
          "name": "productionSpeedUp",
          "type": "uint32"
        },
        {
          "internalType": "uint32",
          "name": "frontrunningDelay",
          "type": "uint32"
        },
        {
          "internalType": "uint32",
          "name": "productionCapAsDuration",
          "type": "uint32"
        },
        {
          "internalType": "uint32",
          "name": "fleetSizeFactor6",
          "type": "uint32"
        }
      ],
      "stateMutability": "nonpayable",
      "type": "constructor"
    },
    {
      "anonymous": false,
      "inputs": [
        {
          "indexed": true,
          "internalType": "address",
          "name": "owner",
          "type": "address"
        },
        {
          "indexed": true,
          "internalType": "address",
          "name": "operator",
          "type": "address"
        },
        {
          "indexed": false,
          "internalType": "bool",
          "name": "approved",
          "type": "bool"
        }
      ],
      "name": "ApprovalForAll",
      "type": "event"
    },
    {
      "anonymous": false,
      "inputs": [
        {
          "indexed": true,
          "internalType": "address",
          "name": "owner",
          "type": "address"
        },
        {
          "indexed": true,
          "internalType": "uint256",
          "name": "location",
          "type": "uint256"
        },
        {
          "indexed": false,
          "internalType": "uint256",
          "name": "stake",
          "type": "uint256"
        }
      ],
      "name": "ExitComplete",
      "type": "event"
    },
    {
      "anonymous": false,
      "inputs": [
        {
          "indexed": true,
          "internalType": "uint256",
          "name": "fleet",
          "type": "uint256"
        },
        {
          "indexed": true,
          "internalType": "address",
          "name": "fleetOwner",
          "type": "address"
        },
        {
          "indexed": true,
          "internalType": "address",
          "name": "destinationOwner",
          "type": "address"
        },
        {
          "indexed": false,
          "internalType": "uint256",
          "name": "destination",
          "type": "uint256"
        },
        {
          "indexed": false,
          "internalType": "bool",
          "name": "gift",
          "type": "bool"
        },
        {
          "indexed": false,
          "internalType": "uint32",
          "name": "fleetLoss",
          "type": "uint32"
        },
        {
          "indexed": false,
          "internalType": "uint32",
          "name": "planetLoss",
          "type": "uint32"
        },
        {
          "indexed": false,
          "internalType": "uint32",
          "name": "inFlightFleetLoss",
          "type": "uint32"
        },
        {
          "indexed": false,
          "internalType": "uint32",
          "name": "inFlightPlanetLoss",
          "type": "uint32"
        },
        {
          "indexed": false,
          "internalType": "bool",
          "name": "won",
          "type": "bool"
        },
        {
          "indexed": false,
          "internalType": "uint32",
          "name": "newNumspaceships",
          "type": "uint32"
        }
      ],
      "name": "FleetArrived",
      "type": "event"
    },
    {
      "anonymous": false,
      "inputs": [
        {
          "indexed": true,
          "internalType": "address",
          "name": "fleetSender",
          "type": "address"
        },
        {
          "indexed": true,
          "internalType": "address",
          "name": "fleetOwner",
          "type": "address"
        },
        {
          "indexed": true,
          "internalType": "uint256",
          "name": "from",
          "type": "uint256"
        },
        {
          "indexed": false,
          "internalType": "address",
          "name": "operator",
          "type": "address"
        },
        {
          "indexed": false,
          "internalType": "uint256",
          "name": "fleet",
          "type": "uint256"
        },
        {
          "indexed": false,
          "internalType": "uint32",
          "name": "quantity",
          "type": "uint32"
        },
        {
          "indexed": false,
          "internalType": "uint32",
          "name": "newNumSpaceships",
          "type": "uint32"
        }
      ],
      "name": "FleetSent",
      "type": "event"
    },
    {
      "anonymous": false,
      "inputs": [
        {
          "indexed": false,
          "internalType": "uint32",
          "name": "minX",
          "type": "uint32"
        },
        {
          "indexed": false,
          "internalType": "uint32",
          "name": "maxX",
          "type": "uint32"
        },
        {
          "indexed": false,
          "internalType": "uint32",
          "name": "minY",
          "type": "uint32"
        },
        {
          "indexed": false,
          "internalType": "uint32",
          "name": "maxY",
          "type": "uint32"
        },
        {
          "indexed": false,
          "internalType": "bytes32",
          "name": "genesis",
          "type": "bytes32"
        }
      ],
      "name": "Initialized",
      "type": "event"
    },
    {
      "anonymous": false,
      "inputs": [
        {
          "indexed": true,
          "internalType": "address",
          "name": "owner",
          "type": "address"
        },
        {
          "indexed": true,
          "internalType": "uint256",
          "name": "location",
          "type": "uint256"
        }
      ],
      "name": "PlanetExit",
      "type": "event"
    },
    {
      "anonymous": false,
      "inputs": [
        {
          "indexed": true,
          "internalType": "uint256",
          "name": "location",
          "type": "uint256"
        }
      ],
      "name": "PlanetReset",
      "type": "event"
    },
    {
      "anonymous": false,
      "inputs": [
        {
          "indexed": true,
          "internalType": "address",
          "name": "acquirer",
          "type": "address"
        },
        {
          "indexed": true,
          "internalType": "uint256",
          "name": "location",
          "type": "uint256"
        },
        {
          "indexed": false,
          "internalType": "uint32",
          "name": "numSpaceships",
          "type": "uint32"
        },
        {
          "indexed": false,
          "internalType": "uint256",
          "name": "stake",
          "type": "uint256"
        }
      ],
      "name": "PlanetStake",
      "type": "event"
    },
    {
      "anonymous": false,
      "inputs": [
        {
          "indexed": true,
          "internalType": "uint256",
          "name": "location",
          "type": "uint256"
        },
        {
          "indexed": true,
          "internalType": "address",
          "name": "giver",
          "type": "address"
        },
        {
          "indexed": false,
          "internalType": "uint256",
          "name": "rewardId",
          "type": "uint256"
        }
      ],
      "name": "RewardSetup",
      "type": "event"
    },
    {
      "anonymous": false,
      "inputs": [
        {
          "indexed": true,
          "internalType": "address",
          "name": "owner",
          "type": "address"
        },
        {
          "indexed": true,
          "internalType": "uint256",
          "name": "location",
          "type": "uint256"
        },
        {
          "indexed": true,
          "internalType": "uint256",
          "name": "rewardId",
          "type": "uint256"
        }
      ],
      "name": "RewardToWithdraw",
      "type": "event"
    },
    {
      "anonymous": false,
      "inputs": [
        {
          "indexed": true,
          "internalType": "address",
          "name": "owner",
          "type": "address"
        },
        {
          "indexed": false,
          "internalType": "uint256",
          "name": "newStake",
          "type": "uint256"
        }
      ],
      "name": "StakeToWithdraw",
      "type": "event"
    },
    {
      "inputs": [
        {
          "internalType": "uint256",
          "name": "location",
          "type": "uint256"
        },
        {
          "internalType": "uint256",
          "name": "amount",
          "type": "uint256"
        }
      ],
      "name": "acquireViaTransferFrom",
      "outputs": [],
      "stateMutability": "nonpayable",
      "type": "function"
    },
    {
      "inputs": [
        {
          "internalType": "uint256",
          "name": "location",
          "type": "uint256"
        },
        {
          "internalType": "address",
          "name": "sponsor",
          "type": "address"
        }
      ],
      "name": "addReward",
      "outputs": [],
      "stateMutability": "nonpayable",
      "type": "function"
    },
    {
      "inputs": [],
      "name": "allianceRegistry",
      "outputs": [
        {
          "internalType": "contract AllianceRegistry",
          "name": "",
          "type": "address"
        }
      ],
      "stateMutability": "view",
      "type": "function"
    },
    {
      "inputs": [
        {
          "internalType": "address",
          "name": "owner",
          "type": "address"
        }
      ],
      "name": "balanceToWithdraw",
      "outputs": [
        {
          "internalType": "uint256",
          "name": "",
          "type": "uint256"
        }
      ],
      "stateMutability": "view",
      "type": "function"
    },
    {
      "inputs": [
        {
          "internalType": "address",
          "name": "owner",
          "type": "address"
        },
        {
          "internalType": "uint256",
          "name": "location",
          "type": "uint256"
        }
      ],
      "name": "exitFor",
      "outputs": [],
      "stateMutability": "nonpayable",
      "type": "function"
    },
    {
      "inputs": [
        {
          "internalType": "address",
          "name": "owner",
          "type": "address"
        },
        {
          "internalType": "uint256[]",
          "name": "locations",
          "type": "uint256[]"
        }
      ],
      "name": "fetchAndWithdrawFor",
      "outputs": [],
      "stateMutability": "nonpayable",
      "type": "function"
    },
    {
      "inputs": [],
      "name": "getDiscovered",
      "outputs": [
        {
          "components": [
            {
              "internalType": "uint32",
              "name": "minX",
              "type": "uint32"
            },
            {
              "internalType": "uint32",
              "name": "maxX",
              "type": "uint32"
            },
            {
              "internalType": "uint32",
              "name": "minY",
              "type": "uint32"
            },
            {
              "internalType": "uint32",
              "name": "maxY",
              "type": "uint32"
            }
          ],
          "internalType": "struct OuterSpace.Discovered",
          "name": "",
          "type": "tuple"
        }
      ],
      "stateMutability": "view",
      "type": "function"
    },
    {
      "inputs": [
        {
          "internalType": "uint256",
          "name": "fleetId",
          "type": "uint256"
        },
        {
          "internalType": "uint256",
          "name": "from",
          "type": "uint256"
        }
      ],
      "name": "getFleet",
      "outputs": [
        {
          "internalType": "address",
          "name": "owner",
          "type": "address"
        },
        {
          "internalType": "uint32",
          "name": "launchTime",
          "type": "uint32"
        },
        {
          "internalType": "uint32",
          "name": "quantity",
          "type": "uint32"
        },
        {
          "internalType": "uint64",
          "name": "flyingAtLaunch",
          "type": "uint64"
        },
        {
          "internalType": "uint64",
          "name": "destroyedAtLaunch",
          "type": "uint64"
        }
      ],
      "stateMutability": "view",
      "type": "function"
    },
    {
      "inputs": [],
      "name": "getGeneisHash",
      "outputs": [
        {
          "internalType": "bytes32",
          "name": "",
          "type": "bytes32"
        }
      ],
      "stateMutability": "view",
      "type": "function"
    },
    {
      "inputs": [
        {
          "internalType": "uint256",
          "name": "location",
          "type": "uint256"
        }
      ],
      "name": "getPlanet",
      "outputs": [
        {
          "components": [
            {
              "internalType": "address",
              "name": "owner",
              "type": "address"
            },
            {
              "internalType": "uint32",
              "name": "exitTime",
              "type": "uint32"
            },
            {
              "internalType": "uint32",
              "name": "numSpaceships",
              "type": "uint32"
            },
            {
              "internalType": "uint32",
              "name": "lastUpdated",
              "type": "uint32"
            },
            {
              "internalType": "bool",
              "name": "active",
              "type": "bool"
            },
            {
              "internalType": "uint256",
              "name": "reward",
              "type": "uint256"
            }
          ],
          "internalType": "struct OuterSpace.ExternalPlanet",
          "name": "state",
          "type": "tuple"
        },
        {
          "components": [
            {
              "internalType": "int8",
              "name": "subX",
              "type": "int8"
            },
            {
              "internalType": "int8",
              "name": "subY",
              "type": "int8"
            },
            {
              "internalType": "uint16",
              "name": "stake",
              "type": "uint16"
            },
            {
              "internalType": "uint16",
              "name": "production",
              "type": "uint16"
            },
            {
              "internalType": "uint16",
              "name": "attack",
              "type": "uint16"
            },
            {
              "internalType": "uint16",
              "name": "defense",
              "type": "uint16"
            },
            {
              "internalType": "uint16",
              "name": "speed",
              "type": "uint16"
            },
            {
              "internalType": "uint16",
              "name": "natives",
              "type": "uint16"
            }
          ],
          "internalType": "struct OuterSpace.PlanetStats",
          "name": "stats",
          "type": "tuple"
        }
      ],
      "stateMutability": "view",
      "type": "function"
    },
    {
      "inputs": [
        {
          "internalType": "uint256[]",
          "name": "locations",
          "type": "uint256[]"
        }
      ],
      "name": "getPlanetStates",
      "outputs": [
        {
          "components": [
            {
              "internalType": "address",
              "name": "owner",
              "type": "address"
            },
            {
              "internalType": "uint32",
              "name": "exitTime",
              "type": "uint32"
            },
            {
              "internalType": "uint32",
              "name": "numSpaceships",
              "type": "uint32"
            },
            {
              "internalType": "uint32",
              "name": "lastUpdated",
              "type": "uint32"
            },
            {
              "internalType": "bool",
              "name": "active",
              "type": "bool"
            },
            {
              "internalType": "uint256",
              "name": "reward",
              "type": "uint256"
            }
          ],
          "internalType": "struct OuterSpace.ExternalPlanet[]",
          "name": "planetStates",
          "type": "tuple[]"
        },
        {
          "components": [
            {
              "internalType": "uint32",
              "name": "minX",
              "type": "uint32"
            },
            {
              "internalType": "uint32",
              "name": "maxX",
              "type": "uint32"
            },
            {
              "internalType": "uint32",
              "name": "minY",
              "type": "uint32"
            },
            {
              "internalType": "uint32",
              "name": "maxY",
              "type": "uint32"
            }
          ],
          "internalType": "struct OuterSpace.Discovered",
          "name": "discovered",
          "type": "tuple"
        }
      ],
      "stateMutability": "view",
      "type": "function"
    },
    {
      "inputs": [
        {
          "internalType": "address",
          "name": "",
          "type": "address"
        },
        {
          "internalType": "address",
          "name": "forAddress",
          "type": "address"
        },
        {
          "internalType": "uint256",
          "name": "amount",
          "type": "uint256"
        },
        {
          "internalType": "bytes",
          "name": "data",
          "type": "bytes"
        }
      ],
      "name": "onTokenPaidFor",
      "outputs": [
        {
          "internalType": "bool",
          "name": "",
          "type": "bool"
        }
      ],
      "stateMutability": "nonpayable",
      "type": "function"
    },
    {
      "inputs": [
        {
          "internalType": "address",
          "name": "",
          "type": "address"
        },
        {
          "internalType": "uint256",
          "name": "amount",
          "type": "uint256"
        },
        {
          "internalType": "bytes",
          "name": "data",
          "type": "bytes"
        }
      ],
      "name": "onTokenTransfer",
      "outputs": [
        {
          "internalType": "bool",
          "name": "",
          "type": "bool"
        }
      ],
      "stateMutability": "nonpayable",
      "type": "function"
    },
    {
      "inputs": [
        {
          "internalType": "contract IERC20",
          "name": "",
          "type": "address"
        },
        {
          "internalType": "contract AllianceRegistry",
          "name": "",
          "type": "address"
        },
        {
          "internalType": "bytes32",
          "name": "genesis",
          "type": "bytes32"
        },
        {
          "internalType": "uint32",
          "name": "",
          "type": "uint32"
        },
        {
          "internalType": "uint32",
          "name": "",
          "type": "uint32"
        },
        {
          "internalType": "uint32",
          "name": "",
          "type": "uint32"
        },
        {
          "internalType": "uint32",
          "name": "",
          "type": "uint32"
        },
        {
          "internalType": "uint32",
          "name": "",
          "type": "uint32"
        },
        {
          "internalType": "uint32",
          "name": "",
          "type": "uint32"
        },
        {
          "internalType": "uint32",
          "name": "",
          "type": "uint32"
        },
        {
          "internalType": "uint32",
          "name": "",
          "type": "uint32"
        }
      ],
      "name": "postUpgrade",
      "outputs": [],
      "stateMutability": "nonpayable",
      "type": "function"
    },
    {
      "inputs": [
        {
          "internalType": "uint256",
          "name": "location",
          "type": "uint256"
        }
      ],
      "name": "resetPlanet",
      "outputs": [],
      "stateMutability": "nonpayable",
      "type": "function"
    },
    {
      "inputs": [
        {
          "internalType": "uint256",
          "name": "fleetId",
          "type": "uint256"
        },
        {
          "components": [
            {
              "internalType": "uint256",
              "name": "from",
              "type": "uint256"
            },
            {
              "internalType": "uint256",
              "name": "to",
              "type": "uint256"
            },
            {
              "internalType": "uint256",
              "name": "distance",
              "type": "uint256"
            },
            {
              "internalType": "address",
              "name": "alliance",
              "type": "address"
            },
            {
              "internalType": "bytes32",
              "name": "secret",
              "type": "bytes32"
            },
            {
              "internalType": "address",
              "name": "fleetSender",
              "type": "address"
            },
            {
              "internalType": "address",
              "name": "operator",
              "type": "address"
            }
          ],
          "internalType": "struct OuterSpace.FleetResolution",
          "name": "resolution",
          "type": "tuple"
        }
      ],
      "name": "resolveFleet",
      "outputs": [],
      "stateMutability": "nonpayable",
      "type": "function"
    },
    {
      "inputs": [
        {
          "internalType": "uint256",
          "name": "from",
          "type": "uint256"
        },
        {
          "internalType": "uint32",
          "name": "quantity",
          "type": "uint32"
        },
        {
          "internalType": "bytes32",
          "name": "toHash",
          "type": "bytes32"
        }
      ],
      "name": "send",
      "outputs": [],
      "stateMutability": "nonpayable",
      "type": "function"
    },
    {
      "inputs": [
        {
          "components": [
            {
              "internalType": "address",
              "name": "fleetSender",
              "type": "address"
            },
            {
              "internalType": "address",
              "name": "fleetOwner",
              "type": "address"
            },
            {
              "internalType": "uint256",
              "name": "from",
              "type": "uint256"
            },
            {
              "internalType": "uint32",
              "name": "quantity",
              "type": "uint32"
            },
            {
              "internalType": "bytes32",
              "name": "toHash",
              "type": "bytes32"
            }
          ],
          "internalType": "struct OuterSpace.FleetLaunch",
          "name": "launch",
          "type": "tuple"
        }
      ],
      "name": "sendFor",
      "outputs": [],
      "stateMutability": "nonpayable",
      "type": "function"
    },
    {
      "inputs": [
        {
          "internalType": "address",
          "name": "operator",
          "type": "address"
        },
        {
          "internalType": "bool",
          "name": "approved",
          "type": "bool"
        }
      ],
      "name": "setApprovalForAll",
      "outputs": [],
      "stateMutability": "nonpayable",
      "type": "function"
    },
    {
      "inputs": [
        {
          "internalType": "address",
          "name": "owner",
          "type": "address"
        }
      ],
      "name": "withdrawFor",
      "outputs": [],
      "stateMutability": "nonpayable",
      "type": "function"
    }
  ],
  "transactionHash": "0xcf579136f2edacb46f3e6a73e107a9721fdaf32e25c5236ecbd335c586773970",
  "args": [
    "0xd1435072e860Ef1ABFd4DBC59754529c0217C00A",
    "0x6a4E14e371221a2d187eF0D3b1c007BA1E9d74B3",
    "0x9e9e23df9a65ca95f7a3b613673c89db774d0cdaaa1850160a59406c0220d7f6",
    43200,
    7200,
    259200,
    100000,
    1,
    1800,
    259200,
    500000
  ],
  "linkedData": {
    "genesisHash": "0x9e9e23df9a65ca95f7a3b613673c89db774d0cdaaa1850160a59406c0220d7f6",
    "resolveWindow": 43200,
    "timePerDistance": 7200,
    "exitDuration": 259200,
    "acquireNumSpaceships": 100000,
    "productionSpeedUp": 1,
    "chainGenesisHash": "",
    "frontrunningDelay": 1800,
    "productionCapAsDuration": 259200,
    "fleetSizeFactor6": 500000
  },
  "solcInputHash": "12af03720322af06ad5f8cf7e8fea0c0",
  "bytecode": "0x6101e06040523480156200001257600080fd5b5060405162005ea038038062005ea083398101604081905262000035916200029a565b6000620000446004896200037a565b905063ffffffff88166200005a826004620003ac565b63ffffffff1614620000b25760405162461bcd60e51b815260206004820152601d60248201527f54494d455f5045525f444953545f4e4f545f444956495349424c455f34000000604482015260640160405180910390fd5b6001600160a01b03808d1660c0528b1660805260a08a905263ffffffff808a1660e05281811661010052878116610120528681166101405285811661016052848116610180528381166101a05282166101c0526200011a8c8c8c8c8c8c8c8c8c8c8c6200012c565b505050505050505050505050620003e7565b60006200014660008051602062005e808339815191525490565b90506001600160a01b03811662000176576001600160a01b0360008051602062005e80833981519152556200018c565b336001600160a01b038216146200018c57600080fd5b60055463ffffffff1662000259576040805160808082018352601080835260208084018290528385018290526060938401829052600580546001600160801b0319166c100000001000000010000000101790819055855192835263ffffffff64010000000082048116928401929092526801000000000000000081048216838701526c010000000000000000000000009004169281019290925281018c905290517f3086e986d6b4ec35754cd5a19b964d1012b58b3584a51a321d0fb693ae4cfcd99160a0908290030190a15b505050505050505050505050565b6001600160a01b03811681146200027d57600080fd5b50565b805163ffffffff811681146200029557600080fd5b919050565b60008060008060008060008060008060006101608c8e031215620002bd57600080fd5b8b51620002ca8162000267565b60208d0151909b50620002dd8162000267565b60408d0151909a509850620002f560608d0162000280565b97506200030560808d0162000280565b96506200031560a08d0162000280565b95506200032560c08d0162000280565b94506200033560e08d0162000280565b9350620003466101008d0162000280565b9250620003576101208d0162000280565b9150620003686101408d0162000280565b90509295989b509295989b9093969950565b600063ffffffff80841680620003a057634e487b7160e01b600052601260045260246000fd5b92169190910492915050565b600063ffffffff80831681851681830481118215151615620003de57634e487b7160e01b600052601160045260246000fd5b02949350505050565b60805160a05160c05160e05161010051610120516101405161016051610180516101a0516101c05161592b6200055560003960008181613c0801528181613c3b01528181613cbc0152613cef015260008181612056015261208a01526000818161148a01528181612296015281816131d3015281816145950152818161461d015281816146aa0152818161472b01526148fd01526000818161216b01526121fd0152600081816120c301528181612aed01528181612b7e01528181612bcc01528181612c1301528181612c920152612cc301526000611b3f0152600061356b0152600061360d015260008181610b8201528181610c1101528181610d410152611d29015260008181610211015281816115dc015281816119f401528181611bc201528181611df70152818161330001528181613366015281816135120152818161386a015281816139f501528181613a7c0152613f4e015260008181610409015261378f015261592b6000f3fe608060405234801561001057600080fd5b506004361061016c5760003560e01c8063a22cb465116100cd578063c956083811610081578063e2e9b07911610066578063e2e9b07914610396578063ee543393146103a9578063f9c8974d1461040457600080fd5b8063c95608381461035a578063cf3ecf071461038357600080fd5b8063aba789f5116100b2578063aba789f51461029b578063afc82370146102bc578063c5aaa0ae146102cf57600080fd5b8063a22cb46514610275578063a4c0ed361461028857600080fd5b806356bf642d116101245780637cef64d8116101095780637cef64d81461020f5780639b6be0651461023f5780639eca672c1461026257600080fd5b806356bf642d146101e95780637ba423fb146101fc57600080fd5b80631b7c9c17116101555780631b7c9c1714610199578063243f66c9146101ac57806334efcb8e146101bf57600080fd5b80630b9c522814610171578063112e685114610186575b600080fd5b61018461017f366004614a0a565b610443565b005b610184610194366004614a3c565b610505565b6101846101a7366004614a89565b6105ac565b6101846101ba366004614b52565b61071c565b6101d26101cd366004614a0a565b610856565b6040516101e0929190614b8b565b60405180910390f35b6101846101f7366004614c67565b610971565b61018461020a366004614c97565b610b31565b7f00000000000000000000000000000000000000000000000000000000000000005b6040519081526020016101e0565b61025261024d366004614cfb565b610c04565b60405190151581526020016101e0565b610184610270366004614d6e565b610ca6565b610184610283366004614d99565b610cc9565b610252610296366004614dc7565b610d34565b6102ae6102a9366004614e68565b610dcc565b6040516101e0929190614eaa565b6101846102ca366004614f80565b610fdc565b61034d604080516080810182526000808252602082018190529181018290526060810191909152506040805160808101825260055463ffffffff80821683526401000000008204811660208401526801000000000000000082048116938301939093526c010000000000000000000000009004909116606082015290565b6040516101e09190614fac565b610231610368366004614d6e565b6001600160a01b031660009081526002602052604090205490565b610184610391366004614fe5565b611111565b6101846103a4366004614ffd565b611339565b6103bc6103b7366004614c97565b61144f565b604080516001600160a01b03909616865263ffffffff9485166020870152939092169284019290925267ffffffffffffffff918216606084015216608082015260a0016101e0565b61042b7f000000000000000000000000000000000000000000000000000000000000000081565b6040516001600160a01b0390911681526020016101e0565b7fb53127684a568b3173ae13b9f8a6016e243e63b6e8ee1178d6a717850b5d6103546001600160a01b0316336001600160a01b0316146104ca5760405162461bcd60e51b815260206004820152600e60248201527f4e4f545f415554484f52495a454400000000000000000000000000000000000060448201526064015b60405180910390fd5b6000818152602081905260408082208290555182917fb9e622395e3bd0e793c5448e9c44434069fc36c8904b50ab65bca22b05d425e691a250565b6000336040805160208101859052908101869052606082811b6bffffffffffffffffffffffff191690820181905260748201529091506000906088016040516020818303038152906040528051906020012060001c90506105a581836040518060a00160405280866001600160a01b03168152602001866001600160a01b031681526020018981526020018863ffffffff16815260200187815250611501565b5050505050565b60006105d67fb53127684a568b3173ae13b9f8a6016e243e63b6e8ee1178d6a717850b5d61035490565b90506001600160a01b038116610615576001600160a01b037fb53127684a568b3173ae13b9f8a6016e243e63b6e8ee1178d6a717850b5d61035561062a565b336001600160a01b0382161461062a57600080fd5b60055463ffffffff1661070e576040805160808082018352601080835260208084018290528385018290526060938401829052600580547fffffffffffffffffffffffffffffffff00000000000000000000000000000000166c100000001000000010000000101790819055855192835263ffffffff64010000000082048116928401929092526801000000000000000081048216838701526c010000000000000000000000009004169281019290925281018c905290517f3086e986d6b4ec35754cd5a19b964d1012b58b3584a51a321d0fb693ae4cfcd99160a0908290030190a15b505050505050505050505050565b816080820180359060208401359060009061073a9060608701614d6e565b6040805160208101959095528401929092526001600160a01b039091161160f81b606082015260610160408051601f198184030181529190528051602090910120823561078d60c0850160a08601614d6e565b61079d60e0860160c08701614d6e565b6040805160208101959095528401929092526bffffffffffffffffffffffff19606091821b81168285015291901b1660748201526088016040516020818303038152906040528051906020012060001c1461083a5760405162461bcd60e51b815260206004820152601d60248201527f494e56414c49445f464c4545545f444154415f4f525f5345435245542700000060448201526064016104c1565b6108528261084d36849003840184615068565b611841565b5050565b6040805160c081018252600080825260208201819052918101829052606081018290526080810182905260a08101919091526040805161010081018252600080825260208201819052918101829052606081018290526080810182905260a0810182905260c0810182905260e08101919091526000838152602081905260408120805490915060009081906108f790600160c01b900463ffffffff1661198e565b6040805160c08101825286546001600160a01b038116825263ffffffff600160a01b8204811660208085019190915281861684860152600160e01b909204166060830152841515608083015260008b81526007909152919091205460a082015296509092509050610967866119ad565b9350505050915091565b7fb53127684a568b3173ae13b9f8a6016e243e63b6e8ee1178d6a717850b5d6103546001600160a01b0316336001600160a01b0316146109f35760405162461bcd60e51b815260206004820152600e60248201527f4e4f545f415554484f52495a454400000000000000000000000000000000000060448201526064016104c1565b60008281526020818152604091829020825160808101845290546001600160a01b038116825263ffffffff600160a01b82048116938301849052600160c01b8204811694830194909452600160e01b90049092166060830152610a5590611b28565b15610a795780516000848152602081905260408120610a7992869290919080611b73565b60008381526007602052604090205480610ae7576001600160a01b03831660009081526006602052604081208054909190610ab390615128565b91829055509050610ad7816bffffffffffffffffffffffff19606086901b16615143565b6000858152600760205260409020555b826001600160a01b0316847fec3a2d89aa52417930dcfd96d54282db3cdc02a9c65e1d9def8f7407c60fc02783604051610b2391815260200190565b60405180910390a350505050565b33610b3d818385611bbc565b6040517f23b872dd0000000000000000000000000000000000000000000000000000000081526001600160a01b038281166004830152306024830152604482018490527f000000000000000000000000000000000000000000000000000000000000000016906323b872dd90606401602060405180830381600087803b158015610bc657600080fd5b505af1158015610bda573d6000803e3d6000fd5b505050506040513d601f19601f82011682018060405250810190610bfe919061515b565b50505050565b6000336001600160a01b037f00000000000000000000000000000000000000000000000000000000000000001614610c7e5760405162461bcd60e51b815260206004820152600d60248201527f494e56414c49445f45524332300000000000000000000000000000000000000060448201526064016104c1565b6000610c8c83850185614a0a565b9050610c99868683611bbc565b5060019695505050505050565b6001600160a01b0381166000908152600260205260409020546108528282611cdf565b3360008181526003602090815260408083206001600160a01b03871680855290835292819020805460ff19168615159081179091558151908152905184927f17307eab39ab6107e8899845ad3d59bd9653f200f220920489ca2b5937696c31928290030190a3505050565b6000336001600160a01b037f00000000000000000000000000000000000000000000000000000000000000001614610dae5760405162461bcd60e51b815260206004820152600d60248201527f494e56414c49445f45524332300000000000000000000000000000000000000060448201526064016104c1565b600080610dbd84860186614f80565b91509150610c99828783611bbc565b604080516080810182526000808252602082018190529181018290526060818101929092528267ffffffffffffffff811115610e0a57610e0a615052565b604051908082528060200260200182016040528015610e6a57816020015b6040805160c08101825260008082526020808301829052928201819052606082018190526080820181905260a08201528252600019909201910181610e285790505b50915060005b83811015610f7e576000610ea7868684818110610e8f57610e8f615178565b90506020020135600090815260208190526040902090565b80549091506000908190610ec790600160c01b900463ffffffff1661198e565b6040805160c08101825286546001600160a01b038116825263ffffffff600160a01b82048116602084015280851693830193909352600160e01b900490911660608201528215156080820152919350915060a08101600760008b8b89818110610f3257610f32615178565b90506020020135815260200190815260200160002054815250868581518110610f5d57610f5d615178565b60200260200101819052505050508080610f7690615128565b915050610e70565b50506040805160808101825260055463ffffffff80821683526401000000008204811660208401526801000000000000000082048116938301939093526c010000000000000000000000009004909116606082015290939092509050565b600081815260208190526040902080546001600160a01b038481169116146110465760405162461bcd60e51b815260206004820152600960248201527f4e4f545f4f574e4552000000000000000000000000000000000000000000000060448201526064016104c1565b8054600160a01b900463ffffffff16156110a25760405162461bcd60e51b815260206004820152600f60248201527f45584954494e475f414c5245414459000000000000000000000000000000000060448201526064016104c1565b80547fffffffffffffffff00000000ffffffffffffffffffffffffffffffffffffffff16600160a01b4263ffffffff160217815560405182906001600160a01b038516907fb9182e4e152947f1e6691fa0ee6f68f21f607fed825945c270e69995acad805f90600090a3505050565b3361111f6020830183614d6e565b6001600160a01b0316816001600160a01b0316146111c157600360006111486020850185614d6e565b6001600160a01b039081168252602080830193909352604091820160009081209185168152925290205460ff166111c15760405162461bcd60e51b815260206004820152601660248201527f4e4f545f415554484f52495a45445f544f5f53454e440000000000000000000060448201526064016104c1565b6000608083013560408401356111da6020860186614d6e565b6040805160208101949094528301919091526bffffffffffffffffffffffff19606091821b8116828401529084901b16607482015260880160408051601f198184030181529190528051602091820120915061123890840184614d6e565b6001600160a01b03166112516040850160208601614d6e565b6001600160a01b03161415801561128957506001600160a01b03821661127d6040850160208601614d6e565b6001600160a01b031614155b1561131b57600360006112a26040860160208701614d6e565b6001600160a01b039081168252602080830193909352604091820160009081209186168152925290205460ff1661131b5760405162461bcd60e51b815260206004820152601760248201527f4e4f545f415554484f52495a45445f544f5f464c45455400000000000000000060448201526064016104c1565b611334818361132f3687900387018761518e565b611501565b505050565b6000805b8281101561141e57600061135c858584818110610e8f57610e8f615178565b805490915061137790600160a01b900463ffffffff16611b28565b1561140b5780546001600160a01b038781169116146113d85760405162461bcd60e51b815260206004820152600960248201527f4e4f545f4f574e4552000000000000000000000000000000000000000000000060448201526064016104c1565b6113fe8585848181106113ed576113ed615178565b905060200201358783600080611df1565b6114089084615143565b92505b508061141681615128565b91505061133d565b506001600160a01b038416600090815260026020526040812054611443908390615143565b90506105a58582611cdf565b6000828152600160205260408120546001600160a01b0381169163ffffffff600160a01b8304811692600160c01b9004169080806114ae60027f0000000000000000000000000000000000000000000000000000000000000000615239565b6114be9063ffffffff8716615239565b6000978852600460209081526040808a20928a529190529096205494979396509194505067ffffffffffffffff8084169368010000000000000000900416919050565b60408181015160009081526020819052208054600160a01b900463ffffffff161561156e5760405162461bcd60e51b815260206004820152600b60248201527f504c414e45545f4558495400000000000000000000000000000000000000000060448201526064016104c1565b805482516001600160a01b039081169116146115cc5760405162461bcd60e51b815260206004820152600960248201527f4e4f545f4f574e4552000000000000000000000000000000000000000000000060448201526064016104c1565b60006116298360400151604080517f00000000000000000000000000000000000000000000000000000000000000006020820152908101829052600090606001604051602081830303815290604052805190602001209050919050565b9050600061163682611f9e565b835490915060009081906116619063ffffffff600160c01b8204811691600160e01b90041685612015565b91509150856060015163ffffffff168163ffffffff1610156116c55760405162461bcd60e51b815260206004820152601560248201527f535041434553484950535f4e4f545f454e4f554748000000000000000000000060448201526064016104c1565b6000806116dc83858a604001518b6060015161227d565b91509150604051806060016040528089602001516001600160a01b031681526020018363ffffffff168152602001896060015163ffffffff16815250600160008c815260200190815260200160002060008201518160000160006101000a8154816001600160a01b0302191690836001600160a01b0316021790555060208201518160000160146101000a81548163ffffffff021916908363ffffffff16021790555060408201518160000160186101000a81548163ffffffff021916908363ffffffff160217905550905050876040015188602001516001600160a01b031689600001516001600160a01b03167fa069887d9311acae9fe31657a1cc64ab2f9d55b74319d0193094208f946a0e778c8e8d606001518760405161182d94939291906001600160a01b03949094168452602084019290925263ffffffff908116604084015216606082015260800190565b60405180910390a450505050505050505050565b6000828152600160209081526040808320815160608101835290546001600160a01b038116825263ffffffff600160a01b8204811694830194909452600160c01b90049092169082015290806118978385612410565b9150915060006118b68560200151600090815260208190526040902090565b6040805160808101825291546001600160a01b038116835263ffffffff600160a01b8204811660208501819052600160c01b8304821693850193909352600160e01b90910416606083015285519192506119539190889061191690611b28565b611921578351611924565b60005b602089015160608a01518a516001600160a01b03821615159161194d918c918a9086908e6124c6565b88612555565b5050506000928352505060016020526040902080547fffffffff00000000ffffffffffffffffffffffffffffffffffffffffffffffff169055565b63800000008181168114906000906119a6908461524d565b9050915091565b60408051610100810182526000808252602080830182905282840182905260608084018390526080840183905260a0840183905260c0840183905260e084019290925283517f00000000000000000000000000000000000000000000000000000000000000008183015280850186905284518082038601815292019093528051920191909120611a3c8161260a565b611a885760405162461bcd60e51b815260206004820152601a60248201527f6e6f20706c616e657420696e2074686973206c6f636174696f6e00000000000060448201526064016104c1565b600080611a9483612626565b915091506040518061010001604052808360000b81526020018260000b8152602001611abf8561265a565b61ffff168152602001611ad185611f9e565b61ffff168152602001611ae38561270b565b61ffff168152602001611af58561277c565b61ffff168152602001611b07856127d2565b61ffff168152602001611b1985612843565b61ffff16905295945050505050565b6000808263ffffffff16118015611b6d5750611b6a7f000000000000000000000000000000000000000000000000000000000000000063ffffffff8416615143565b42115b92915050565b6000611b828686868686611df1565b6001600160a01b038616600090815260026020526040902054909150611bb4908690611baf908490615143565b6128b4565b505050505050565b604080517f000000000000000000000000000000000000000000000000000000000000000060208083019190915281830184905282518083038401815260609092019092528051910120670de0b6b3a7640000611c188261265a565b61ffff16611c269190615270565b8314611c745760405162461bcd60e51b815260206004820152600e60248201527f494e56414c49445f414d4f554e5400000000000000000000000000000000000060448201526064016104c1565b6000611c8185848461290d565b9050611c8c83612d5f565b6040805163ffffffff831681526020810186905284916001600160a01b038816917f5a2bd9d3c37a402271eaa8b4cd01a1a65831589c630b4b8ab1967eca76c0412c910160405180910390a35050505050565b611cea8260006128b4565b6040517fa9059cbb0000000000000000000000000000000000000000000000000000000081526001600160a01b038381166004830152602482018390527f0000000000000000000000000000000000000000000000000000000000000000169063a9059cbb90604401602060405180830381600087803b158015611d6d57600080fd5b505af1158015611d81573d6000803e3d6000fd5b505050506040513d601f19601f82011682018060405250810190611da5919061515b565b6108525760405162461bcd60e51b815260206004820152600f60248201527f4641494c45445f5452414e53464552000000000000000000000000000000000060448201526064016104c1565b604080517f0000000000000000000000000000000000000000000000000000000000000000602080830191909152818301889052825180830384018152606090920190925280519101206000906000670de0b6b3a7640000611e528361265a565b61ffff16611e609190615270565b905087876001600160a01b03167f1c363b29828a892b7cddafe9583ef52e0d5aca0ea7011bda6ccf039e1781f73883604051611e9e91815260200190565b60405180910390a36000888152600760205260409020548015611f23576001600160a01b03881660008181526008602090815260408083208584528252808320805460ff191660011790558c835260079091528082208290555183928c9290917f74f110a1e0cd4892234c7ba49df9f8a354cd8d29b272f7557c9b8c3c38a653369190a45b50855463ffffffff858116600160c01b027fffffffff00000000ffffffffffffffffffffffffffffffffffffffffffffffff42909216600160e01b027bffffffff0000000000000000000000000000000000000000000000009093166001600160a01b03891617929092171617865591505095945050505050565b6000611fa98261260a565b611fe95760405162461bcd60e51b8152602060048201526011602482015270504c414e45545f4e4f545f45584953545360781b60448201526064016104c1565b611b6d82600c7f0708083409600a8c0bb80ce40e100e100e100e101068151819c81e7823282ee0613129565b6000806120218561198e565b909250905060006120376001638000000061528f565b63ffffffff169050600061204b86426152b4565b905063ffffffff83167f0000000000000000000000000000000000000000000000000000000000000000156121ed57600080610e106120ae61ffff8a167f0000000000000000000000000000000000000000000000000000000000000000615270565b6120b89190615239565b6120e89063ffffffff7f000000000000000000000000000000000000000000000000000000000000000016615143565b9050808663ffffffff16111561214657610e1061210785610708615270565b6121119190615239565b91506121238163ffffffff88166152b4565b82111561213d5761213a8163ffffffff88166152b4565b91505b60009450612159565b61215663ffffffff8716826152b4565b94505b86156121c8576000610e1063ffffffff7f00000000000000000000000000000000000000000000000000000000000000001661219961ffff8c1688615270565b6121a39190615270565b6121ad9190615239565b9050858111156121ba5750845b6121c48185615143565b9350505b828211156121d957600092506121e6565b6121e382846152b4565b92505b505061224c565b841561224c57610e1063ffffffff7f00000000000000000000000000000000000000000000000000000000000000001661222b61ffff891685615270565b6122359190615270565b61223f9190615239565b6122499082615143565b90505b6380000000811061226f576122666001638000000061528f565b63ffffffff1690505b809350505050935093915050565b6000828152602081905260408120819060006122ba60027f0000000000000000000000000000000000000000000000000000000000000000615239565b6122c49042615239565b600087815260046020908152604080832084845290915290205490915067ffffffffffffffff166122fb63ffffffff8716826152cb565b90508563ffffffff168167ffffffffffffffff16101561235d5760405162461bcd60e51b815260206004820152600860248201527f4f564552464c4f5700000000000000000000000000000000000000000000000060448201526064016104c1565b60008781526004602090815260408083208584529091529020805467ffffffffffffffff191667ffffffffffffffff831617905542945061239e868a61528f565b93506123aa88856131a3565b835477ffffffffffffffffffffffffffffffffffffffffffffffff16600160c01b63ffffffff928316027bffffffffffffffffffffffffffffffffffffffffffffffffffffffff1617600160e01b91871691909102179092555091969095509350505050565b6040820151600063ffffffff821661246a5760405162461bcd60e51b815260206004820152601260248201527f464c4545545f444f5f4e4f545f4558495354000000000000000000000000000060448201526064016104c1565b61247d82846000015186602001516131c9565b915081846040015161248f919061528f565b90506124a88360400151846000015185602001516132f0565b6124bf83604001518460000151866020015161350c565b9250929050565b6040805160a0810182526000808252602082018190529181018290526060810182905260808101919091526000836001600160a01b0316118015612513575084516001600160a01b031615155b156125355761252e8760000151868685878c602001516136a6565b905061254b565b61252e87600001518860200151888888876139b5565b9695505050505050565b846001600160a01b0316876001600160a01b0316877f606ed05ee5450c129097ad509fc76dd97bde7b9bfc9a935df4671051779e0eb0878787602001518860400151888a600001518b606001518c608001516040516125f9989796959493929190978852951515602088015263ffffffff948516604088015292841660608701529083166080860152821660a0850152151560c08401521660e08201526101000190565b60405180910390a450505050505050565b60006126198260346010613b2a565b60ff166001149050919050565b60008061263583826003613b2a565b6126409060016152f7565b915061264f8360026003613b2a565b6119a69060016152f7565b60006126658261260a565b6126a55760405162461bcd60e51b8152602060048201526011602482015270504c414e45545f4e4f545f45584953545360781b60448201526064016104c1565b60006126b283600c613b47565b905060ff81167e060008000a000c000e001000120014001400160018002000280030003800486126e3826002615359565b6126ee906001615383565b61ffff166020811061270257612702615178565b1a949350505050565b60006127168261260a565b6127565760405162461bcd60e51b8152602060048201526011602482015270504c414e45545f4e4f545f45584953545360781b60448201526064016104c1565b612761826014613b47565b6127709060ff16610190615359565b611b6d90610fa0615383565b60006127878261260a565b6127c75760405162461bcd60e51b8152602060048201526011602482015270504c414e45545f4e4f545f45584953545360781b60448201526064016104c1565b61276182601c613b47565b60006127dd8261260a565b61281d5760405162461bcd60e51b8152602060048201526011602482015270504c414e45545f4e4f545f45584953545360781b60448201526064016104c1565b612828826024613b47565b6128379060ff1661014d615359565b611b6d9061138d615383565b600061284e8261260a565b61288e5760405162461bcd60e51b8152602060048201526011602482015270504c414e45545f4e4f545f45584953545360781b60448201526064016104c1565b61289982602c613b47565b6128a89060ff16610bb8615359565b611b6d90613a98615383565b6001600160a01b03821660008181526002602052604090819020839055517f4d135695228631e73b5a31e6fc8af4e5825cde63774c3c48695b4af814d7b019906129019084815260200190565b60405180910390a25050565b600082815260208190526040812081906040805160808101825282546001600160a01b038116825263ffffffff600160a01b820481166020840152600160c01b82048116938301849052600160e01b9091041660608201819052929350916000918291612983919061297e89611f9e565b612015565b91509150600080846060015163ffffffff16600014156129b1576129a688612843565b61ffff169050612ae5565b602085015163ffffffff1615612a23576129ce8560200151611b28565b612a1a5760405162461bcd60e51b815260206004820152600d60248201527f5354494c4c5f45584954494e470000000000000000000000000000000000000060448201526064016104c1565b60019150612ae5565b8315612a715760405162461bcd60e51b815260206004820152600c60248201527f5354494c4c5f414354495645000000000000000000000000000000000000000060448201526064016104c1565b896001600160a01b031685600001516001600160a01b03161480612a99575063ffffffff8316155b612ae55760405162461bcd60e51b815260206004820152600860248201527f4f4343555049454400000000000000000000000000000000000000000000000060448201526064016104c1565b8115612b2e577f00000000000000000000000000000000000000000000000000000000000000009250612b29898660000151888d612b246001896131a3565b611b73565b612d51565b85547fffffffffffffffffffffffff0000000000000000000000000000000000000000166001600160a01b038b1617865563ffffffff811615612cbe5760006360916f80421115612bc757612bbf7f000000000000000000000000000000000000000000000000000000000000000063ffffffff168363ffffffff16612710612bb68d61277c565b61ffff16613be1565b509050612c11565b612c0d7f000000000000000000000000000000000000000000000000000000000000000063ffffffff168363ffffffff16612710612c048d61277c565b61ffff16613d82565b5090505b7f000000000000000000000000000000000000000000000000000000000000000063ffffffff168163ffffffff1610612c8c5760405162461bcd60e51b815260206004820152600f60248201527f4641494c45445f4341505455524544000000000000000000000000000000000060448201526064016104c1565b612cb6817f000000000000000000000000000000000000000000000000000000000000000061528f565b935050612ceb565b612ce87f0000000000000000000000000000000000000000000000000000000000000000846153a0565b92505b612cf66001846131a3565b865477ffffffffffffffffffffffffffffffffffffffffffffffff16600160c01b63ffffffff928316027bffffffffffffffffffffffffffffffffffffffffffffffffffffffff1617600160e01b4292909216919091021786555b509098975050505050505050565b604080516080808201835260055463ffffffff80821684526401000000008204811660208501526801000000000000000082048116948401949094526c0100000000000000000000000090049092166060820152906fffffffffffffffffffffffffffffffff8316600f0b9083901d600080831215612e8357835163ffffffff16612de9846153bf565b1315612e375760405162461bcd60e51b815260206004820152601660248201527f4e4f545f524541434841424c455f5945545f4d494e580000000000000000000060448201526064016104c1565b6008612e42846153bf565b612e4c91906153f8565b925063ffffffff831315612e625763ffffffff92505b835163ffffffff16831315612e7e575063ffffffff8216835260015b612f26565b836020015163ffffffff16831315612edd5760405162461bcd60e51b815260206004820152601660248201527f4e4f545f524541434841424c455f5945545f4d4158580000000000000000000060448201526064016104c1565b612ee86008846153f8565b925063ffffffff831315612efe5763ffffffff92505b8263ffffffff16846020015163ffffffff161015612f26575063ffffffff8216602084015260015b6000821215612fe357604084015163ffffffff16612f43836153bf565b1315612f915760405162461bcd60e51b815260206004820152601660248201527f4e4f545f524541434841424c455f5945545f4d494e590000000000000000000060448201526064016104c1565b6008612f9c836153bf565b612fa691906153f8565b915063ffffffff821315612fbc5763ffffffff91505b81846040015163ffffffff161215612fde575063ffffffff8116604084015260015b613080565b836060015163ffffffff1682131561303d5760405162461bcd60e51b815260206004820152601660248201527f4e4f545f524541434841424c455f5945545f4d4158590000000000000000000060448201526064016104c1565b6130486008836153f8565b915063ffffffff82131561305e5763ffffffff91505b81846060015163ffffffff161215613080575063ffffffff8116606084015260015b80156105a55783516005805460208701516040880151606089015163ffffffff9081166c01000000000000000000000000027fffffffffffffffffffffffffffffffff00000000ffffffffffffffffffffffff9282166801000000000000000002929092166fffffffffffffffff0000000000000000199382166401000000000267ffffffffffffffff1990951691909616179290921716929092179190911790555050505050565b6000806131368585613b47565b90508261314482600261546c565b61314f906001615495565b60ff166020811061316257613162615178565b1a8361316f83600261546c565b60ff166020811061318257613182615178565b61319091901a610100615359565b61319a9190615383565b95945050505050565b600081836131b25760006131b8565b63800000005b6131c291906153a0565b9392505050565b6000806131f760027f0000000000000000000000000000000000000000000000000000000000000000615239565b6132079063ffffffff8516615239565b600085815260046020908152604080832084845290915290205490915068010000000000000000900467ffffffffffffffff1663ffffffff861681101561328957613252818761528f565b6000868152600460209081526040808320868452909152902080546fffffffffffffffff00000000000000001916905595506132e6565b6000955061329786826154ba565b60008681526004602090815260408083208684529091529020805467ffffffffffffffff9290921668010000000000000000026fffffffffffffffff0000000000000000199092169190911790555b5093949350505050565b60008061335261334d85604080517f00000000000000000000000000000000000000000000000000000000000000006020820152908101829052600090606001604051602081830303815290604052805190602001209050919050565b612626565b915091506000806133b361334d86604080517f00000000000000000000000000000000000000000000000000000000000000006020820152908101829052600090606001604051602081830303815290604052805190602001209050919050565b90925090506000600284820b6133ce60808a901c60046154db565b6133d89190615582565b600084900b6133ec60808a901c60046154db565b6133f69190615582565b61340091906155e3565b61340a91906157d7565b6002600087900b61342e6fffffffffffffffffffffffffffffffff8b1660046154db565b6134389190615582565b600086900b61345a6fffffffffffffffffffffffffffffffff8b1660046154db565b6134649190615582565b61346e91906155e3565b61347891906157d7565b6134829190615582565b600f0b90508061349360028a615878565b111580156134b6575060026134a9896001615143565b6134b39190615878565b81105b6135025760405162461bcd60e51b815260206004820152600e60248201527f77726f6e672064697374616e636500000000000000000000000000000000000060448201526064016104c1565b5050505050505050565b604080517f000000000000000000000000000000000000000000000000000000000000000060208083019190915281830185905282518083038401815260609092019092528051910120600090613562906127d2565b61ffff166135927f0000000000000000000000000000000000000000000000000000000000000000612710615270565b61359c9086615270565b6135a69190615239565b6135b69063ffffffff8416615143565b9050804210156136085760405162461bcd60e51b815260206004820152600960248201527f746f6f206561726c79000000000000000000000000000000000000000000000060448201526064016104c1565b6136327f000000000000000000000000000000000000000000000000000000000000000082615143565b4210610bfe5760405162461bcd60e51b815260206004820152602b60248201527f746f6f206c6174652c20796f7572207370616365736869707320617265206c6f60448201527f737420696e20737061636500000000000000000000000000000000000000000060648201526084016104c1565b6040805160a08101825260008082526020808301829052928201819052606082018190526080820152908601516136dc90611b28565b1561372c5785516001600160a01b0381166136f45750865b8651600087815260208190526040902061372491889163ffffffff891661371c57600061371e565b845b89613eb2565b91505061254b565b60016001600160a01b0384168110156138135786516040517f5db2269e0000000000000000000000000000000000000000000000000000000081526001600160a01b0386811660048301528a8116602483015291821660448201524260648201527f000000000000000000000000000000000000000000000000000000000000000090911690635db2269e9060840160206040518083038186803b1580156137d357600080fd5b505afa1580156137e7573d6000803e3d6000fd5b505050506040513d601f19601f8201168201806040525081019061380b919061515b565b15905061382c565b86516001600160a01b038981169116141561382c575060005b8015613864576127106138476109c463ffffffff8816615270565b6138519190615239565b6138619063ffffffff87166152b4565b94505b604080517f00000000000000000000000000000000000000000000000000000000000000006020808301919091528183018990528251808303840181526060909201909252805191012060006138b982611f9e565b90506000806138d78b604001518c6060015163ffffffff1685612015565b909250905060006138e88a836153a0565b63ffffffff169050638000000081106139135761390a6001638000000061528f565b63ffffffff1690505b60008b815260208190526040902080547bffffffffffffffffffffffffffffffffffffffffffffffffffffffff16600160e01b4263ffffffff160217905561395b83826131a3565b60008c8152602081905260409020805463ffffffff928316600160c01b027fffffffff00000000ffffffffffffffffffffffffffffffffffffffffffffffff90911617905516608087015250505050509695505050505050565b6040805160a081018252600080825260208201819052918101829052606081018290526080810191909152606084015163ffffffff16613a4757604080517f000000000000000000000000000000000000000000000000000000000000000060208083019190915281830186905282518083038401815260609092019092528051910120613724888888878588613f1e565b613a548460200151611b28565b15613a76578351600084815260208190526040902061252e9185918a86613eb2565b604080517f00000000000000000000000000000000000000000000000000000000000000006020808301829052828401879052835180840385018152606084018552805190820120608084019290925260a08084018a90528451808503909101815260c090930190935281519190920120600090613af39061270b565b90506000613b008361277c565b90506000613b0d84611f9e565b9050613b1f8b8b85858c8c878d614144565b94505050505061254b565b6000613b3f60ff80841690851686901c615887565b949350505050565b600080613b5684846040613b2a565b90506000613b6560028361589b565b90506000613b746002846158bd565b905060007f01223334444555555666666677777777888888889999999aaaaaabbbbcccddef60ff841660208110613bad57613bad615178565b1a905060ff8216613bcb5760048160ff16901c945050505050611b6d565b613bd66010826158bd565b945050505050611b6d565b600080851580613bef575084155b15613bff57506000905080613d79565b600085613c2c887f0000000000000000000000000000000000000000000000000000000000000000615270565b613c369190615239565b613c637f0000000000000000000000000000000000000000000000000000000000000000620f42406152b4565b613c6d9190615143565b613c779088615270565b90506000620f424085613c8a8885615270565b613c949190615239565b613c9e9190615239565b905080871115613cb357879350809250613d76565b600088613ce0897f0000000000000000000000000000000000000000000000000000000000000000615270565b613cea9190615239565b613d177f0000000000000000000000000000000000000000000000000000000000000000620f42406152b4565b613d219190615143565b613d2b9089615270565b90506000620f424088613d3e8985615270565b613d489190615239565b613d529190615239565b63ffffffff169050898110613d6f57613d6c60018b6152b4565b90505b9450879350505b50505b94509492505050565b600080851580613d90575084155b15613da057506000905080613d79565b6000613dac8588615270565b90506000613dba8588615270565b9050600082613dcd896305f5e100615270565b613dd79190615239565b9050613de7886305f5e100615270565b613df18483615270565b1015613e055780613e0181615128565b9150505b600082613e168b6305f5e100615270565b613e209190615239565b9050613e308a6305f5e100615270565b613e3a8483615270565b1015613e4e5780613e4a81615128565b9150505b6000613e5a8383614282565b9050613e7e6305f5e100613e6e8684615270565b613e789190615239565b8c614282565b9650613ea26305f5e100613e928784615270565b613e9c9190615239565b8b614282565b9550505050505094509492505050565b6040805160a081018252600080825260208201819052918101829052606081018290526080810191909152613f0086868660008663ffffffff1611613ef8576000613efa565b865b86611b73565b63ffffffff9091166080820181905215156060820152949350505050565b6040805160a0810182526000808252602080830182905282840182905260608084018390526080840183905284517f0000000000000000000000000000000000000000000000000000000000000000818401528086018a905285518082038701815291019094528351930192909220909190613f999061270b565b90506000613fa68561277c565b90506000613fb386612843565b90506000806360916f808b63ffffffff161115613ff257613fe88763ffffffff168461ffff168761ffff168761ffff16613be1565b9092509050614016565b6140108763ffffffff168461ffff168761ffff168761ffff16613d82565b90925090505b63ffffffff8083166020880152811661ffff841614801561404257508163ffffffff168763ffffffff16115b1561413557614051828861528f565b63ffffffff166080870181905261406a906000906131a3565b6000808b815260200190815260200160002060000160186101000a81548163ffffffff021916908363ffffffff160217905550426000808b8152602001908152602001600020600001601c6101000a81548163ffffffff021916908363ffffffff1602179055508b6000808b815260200190815260200160002060000160006101000a8154816001600160a01b0302191690836001600160a01b0316021790555080866040019063ffffffff16908163ffffffff168152505060018660600190151590811515815250505b50505050509695505050505050565b6040805160a08101825260008082526020820181905291810182905260608101829052608081018290529061417a868686614299565b9050806040015163ffffffff16600014801561419c575060008363ffffffff16115b1561426357600085815260208190526040902080547fffffffffffffffff000000000000000000000000000000000000000000000000166001600160a01b038c1617905580516141ec90846131a3565b6000868152602081905260409020805477ffffffffffffffffffffffffffffffffffffffffffffffff16600160c01b63ffffffff938416027bffffffffffffffffffffffffffffffffffffffffffffffffffffffff1617600160e01b42841602179055600160608401528316608083015250614276565b614272818b8b88878d8d614352565b9150505b98975050505050505050565b60008183111561429257816131c2565b5090919050565b6040805160e081018252600080825260208201819052918101829052606081018290526080810182905260a0810182905260c08101919091526000806142ee8660400151876060015163ffffffff1686612015565b915091506000806000806000614304868b6148ef565b9a15158c5263ffffffff998a1660208d01529290981660408b015267ffffffffffffffff90811660608b015296871660808a0152861660a089015250505050911660c0830152509392505050565b6040805160a081018252600080825260208201819052918101829052606081018290526080810182905290806360916f8063ffffffff891611156143be576143b48663ffffffff168b6040015163ffffffff168761ffff168761ffff16613be1565b90925090506143e8565b6143e28663ffffffff168b6040015163ffffffff168761ffff168761ffff16613d82565b90925090505b63ffffffff80831660208086019190915282821660408601819052908c015190911610156147915760208a015161441f908261528f565b63ffffffff90811680855260208c0151909116604085015260608b015167ffffffffffffffff16106144a257826000015163ffffffff168a60600181815161446791906154ba565b67ffffffffffffffff16905250825160808b01805163ffffffff909216916144909083906152cb565b67ffffffffffffffff16905250614578565b89606001518a6080018181516144b891906152cb565b67ffffffffffffffff1690525060608a015183516000916144de9163ffffffff166154ba565b90508067ffffffffffffffff168b60a0015167ffffffffffffffff161061454457808b60a00181815161451191906154ba565b67ffffffffffffffff1690525060c08b0180518291906145329083906152cb565b67ffffffffffffffff1690525061456f565b8a60a001518b60c00181815161455a91906152cb565b67ffffffffffffffff16905250600060a08c01525b50600060608b01525b60608a015160008881526004602052604081209060016145b960027f0000000000000000000000000000000000000000000000000000000000000000615239565b6145c39042615239565b6145cd91906152b4565b815260208082019290925260409081016000908120805467ffffffffffffffff191667ffffffffffffffff959095169490941790935560808d01518a8452600490925282209091600161464160027f0000000000000000000000000000000000000000000000000000000000000000615239565b61464b9042615239565b61465591906152b4565b815260200190815260200160002060000160086101000a81548167ffffffffffffffff021916908367ffffffffffffffff1602179055508960a0015160046000898152602001908152602001600020600060027f00000000000000000000000000000000000000000000000000000000000000006146d39190615239565b6146dd9042615239565b815260208082019290925260409081016000908120805467ffffffffffffffff191667ffffffffffffffff959095169490941790935560c08d01518a845260049092528220909161474f60027f0000000000000000000000000000000000000000000000000000000000000000615239565b6147599042615239565b815260200190815260200160002060000160086101000a81548167ffffffffffffffff021916908367ffffffffffffffff1602179055505b60008663ffffffff161180156147ba5750896020015163ffffffff16836040015163ffffffff16145b1561489a576147c9828761528f565b63ffffffff166080840190815260016060850152600088815260208190526040902080547fffffffffffffffff000000000000000000000000000000000000000000000000166001600160a01b038c161790558a51905161482a91906131a3565b6000888152602081905260409020805477ffffffffffffffffffffffffffffffffffffffffffffffff16600160c01b63ffffffff938416027bffffffffffffffffffffffffffffffffffffffffffffffffffffffff1617600160e01b4293909316929092029190911790556148e2565b8563ffffffff16836020015163ffffffff1614156148da57808a602001516148c2919061528f565b63ffffffff16608084018190528a5161482a916131a3565b6148e26158df565b5050979650505050505050565b8160008080808061492160027f0000000000000000000000000000000000000000000000000000000000000000615239565b61492b9042615239565b60008881526004602052604081209192506149476001846152b4565b815260208082019290925260409081016000908120548a8252600490935290812067ffffffffffffffff90921696506149816001846152b4565b815260208082019290925260409081016000908120548a825260048452828220858352909352205467ffffffffffffffff918216955081811694506801000000000000000090041691506149fd63ffffffff87166149df85886152cb565b6149e991906152cb565b67ffffffffffffffff1663ffffffff614282565b9550509295509295909350565b600060208284031215614a1c57600080fd5b5035919050565b803563ffffffff81168114614a3757600080fd5b919050565b600080600060608486031215614a5157600080fd5b83359250614a6160208501614a23565b9150604084013590509250925092565b6001600160a01b0381168114614a8657600080fd5b50565b60008060008060008060008060008060006101608c8e031215614aab57600080fd5b8b35614ab681614a71565b9a5060208c0135614ac681614a71565b995060408c01359850614adb60608d01614a23565b9750614ae960808d01614a23565b9650614af760a08d01614a23565b9550614b0560c08d01614a23565b9450614b1360e08d01614a23565b9350614b226101008d01614a23565b9250614b316101208d01614a23565b9150614b406101408d01614a23565b90509295989b509295989b9093969950565b600080828403610100811215614b6757600080fd5b8335925060e0601f1982011215614b7d57600080fd5b506020830190509250929050565b6101c08101614be882856001600160a01b038151168252602081015163ffffffff8082166020850152806040840151166040850152806060840151166060850152505060808101511515608083015260a081015160a08301525050565b8251600090810b60c08401526020840151900b60e0830152604083015161ffff9081166101008401526060840151166101208301526080830151614c3361014084018261ffff169052565b5060a083015161ffff90811661016084015260c0840151811661018084015260e0909301519092166101a090910152919050565b60008060408385031215614c7a57600080fd5b823591506020830135614c8c81614a71565b809150509250929050565b60008060408385031215614caa57600080fd5b50508035926020909101359150565b60008083601f840112614ccb57600080fd5b50813567ffffffffffffffff811115614ce357600080fd5b6020830191508360208285010111156124bf57600080fd5b600080600080600060808688031215614d1357600080fd5b8535614d1e81614a71565b94506020860135614d2e81614a71565b935060408601359250606086013567ffffffffffffffff811115614d5157600080fd5b614d5d88828901614cb9565b969995985093965092949392505050565b600060208284031215614d8057600080fd5b81356131c281614a71565b8015158114614a8657600080fd5b60008060408385031215614dac57600080fd5b8235614db781614a71565b91506020830135614c8c81614d8b565b60008060008060608587031215614ddd57600080fd5b8435614de881614a71565b935060208501359250604085013567ffffffffffffffff811115614e0b57600080fd5b614e1787828801614cb9565b95989497509550505050565b60008083601f840112614e3557600080fd5b50813567ffffffffffffffff811115614e4d57600080fd5b6020830191508360208260051b85010111156124bf57600080fd5b60008060208385031215614e7b57600080fd5b823567ffffffffffffffff811115614e9257600080fd5b614e9e85828601614e23565b90969095509350505050565b60a0808252835190820181905260009060c090818401906020808801855b83811015614f3957614f298583516001600160a01b038151168252602081015163ffffffff8082166020850152806040840151166040850152806060840151166060850152505060808101511515608083015260a081015160a08301525050565b9385019390820190600101614ec8565b5050829450614f7581870188805163ffffffff908116835260208083015182169084015260408083015182169084015260609182015116910152565b505050509392505050565b60008060408385031215614f9357600080fd5b8235614f9e81614a71565b946020939093013593505050565b60808101611b6d8284805163ffffffff908116835260208083015182169084015260408083015182169084015260609182015116910152565b600060a08284031215614ff757600080fd5b50919050565b60008060006040848603121561501257600080fd5b833561501d81614a71565b9250602084013567ffffffffffffffff81111561503957600080fd5b61504586828701614e23565b9497909650939450505050565b634e487b7160e01b600052604160045260246000fd5b600060e0828403121561507a57600080fd5b60405160e0810181811067ffffffffffffffff821117156150ab57634e487b7160e01b600052604160045260246000fd5b806040525082358152602083013560208201526040830135604082015260608301356150d681614a71565b60608201526080838101359082015260a08301356150f381614a71565b60a082015260c083013561510681614a71565b60c08201529392505050565b634e487b7160e01b600052601160045260246000fd5b600060001982141561513c5761513c615112565b5060010190565b6000821982111561515657615156615112565b500190565b60006020828403121561516d57600080fd5b81516131c281614d8b565b634e487b7160e01b600052603260045260246000fd5b600060a082840312156151a057600080fd5b60405160a0810181811067ffffffffffffffff821117156151d157634e487b7160e01b600052604160045260246000fd5b60405282356151df81614a71565b815260208301356151ef81614a71565b60208201526040838101359082015261520a60608401614a23565b6060820152608083013560808201528091505092915050565b634e487b7160e01b600052601260045260246000fd5b60008261524857615248615223565b500490565b600063ffffffff8084168061526457615264615223565b92169190910692915050565b600081600019048311821515161561528a5761528a615112565b500290565b600063ffffffff838116908316818110156152ac576152ac615112565b039392505050565b6000828210156152c6576152c6615112565b500390565b600067ffffffffffffffff8083168185168083038211156152ee576152ee615112565b01949350505050565b60008160000b8360000b60008112817fffffffffffffffffffffffffffffffffffffffffffffffffffffffffffffff800183128115161561533a5761533a615112565b81607f01831381161561534f5761534f615112565b5090039392505050565b600061ffff8083168185168183048111821515161561537a5761537a615112565b02949350505050565b600061ffff8083168185168083038211156152ee576152ee615112565b600063ffffffff8083168185168083038211156152ee576152ee615112565b60007f80000000000000000000000000000000000000000000000000000000000000008214156153f1576153f1615112565b5060000390565b6000808212827f7fffffffffffffffffffffffffffffffffffffffffffffffffffffffffffffff0384138115161561543257615432615112565b827f800000000000000000000000000000000000000000000000000000000000000003841281161561546657615466615112565b50500190565b600060ff821660ff84168160ff048111821515161561548d5761548d615112565b029392505050565b600060ff821660ff84168060ff038211156154b2576154b2615112565b019392505050565b600067ffffffffffffffff838116908316818110156152ac576152ac615112565b600081600f0b83600f0b6f7fffffffffffffffffffffffffffffff60008213600084138383048511828216161561551457615514615112565b6f7fffffffffffffffffffffffffffffff19600085128682058612818416161561554057615540615112565b6000871292508582058712848416161561555c5761555c615112565b8585058712818416161561557257615572615112565b5050509290910295945050505050565b600081600f0b83600f0b60008212826f7fffffffffffffffffffffffffffffff038213811516156155b5576155b5615112565b826f7fffffffffffffffffffffffffffffff190382128116156155da576155da615112565b50019392505050565b600081600f0b83600f0b60008112816f7fffffffffffffffffffffffffffffff190183128115161561561757615617615112565b816f7fffffffffffffffffffffffffffffff01831381161561534f5761534f615112565b600181815b8085111561567657816000190482111561565c5761565c615112565b8085161561566957918102915b93841c9390800290615640565b509250929050565b80825b600180861161569057506156cb565b816f7fffffffffffffffffffffffffffffff048211156156b2576156b2615112565b808616156156bf57918102915b9490941c938002615681565b935093915050565b60008280156156e957600181146156f3576156fc565b6001915050611b6d565b82915050611b6d565b508161570a57506000611b6d565b5060016000821380821461572357801561574a5761576c565b826f7fffffffffffffffffffffffffffffff0483111561574557615745615112565b61576c565b826f7fffffffffffffffffffffffffffffff0583121561576c5761576c615112565b50808316156157785750805b6157888360011c8384028361567e565b806f7fffffffffffffffffffffffffffffff0482116000831316156157af576157af615112565b806f7fffffffffffffffffffffffffffffff1905821260008312161561548d5761548d615112565b60006131c260ff841683600f0b6156d3565b6000826157f857506001611b6d565b8161580557506000611b6d565b81600181146156e9576002811461581b57615837565b60ff84111561582c5761582c615112565b50506001821b611b6d565b5060208310610133831016604e8410600b841016171561585a575081810a611b6d565b615864838361563b565b806000190482111561548d5761548d615112565b60006131c260ff8416836157e9565b60008261589657615896615223565b500690565b600060ff8316806158ae576158ae615223565b8060ff84160491505092915050565b600060ff8316806158d0576158d0615223565b8060ff84160691505092915050565b634e487b7160e01b600052600160045260246000fdfea26469706673582212201f02541471ee95438a8907785ed3db7a39703c6bf07e96c9126e7217e3d6992064736f6c63430008090033b53127684a568b3173ae13b9f8a6016e243e63b6e8ee1178d6a717850b5d6103",
  "devdoc": {
    "kind": "dev",
    "methods": {},
    "version": 1
  },
  "userdoc": {
    "kind": "user",
    "methods": {},
    "version": 1
  },
  "storageLayout": {
    "storage": [
      {
        "astId": 15005,
        "contract": "src/OuterSpace.sol:OuterSpace",
        "label": "_planets",
        "offset": 0,
        "slot": "0",
        "type": "t_mapping(t_uint256,t_struct(Planet)15053_storage)"
      },
      {
        "astId": 15010,
        "contract": "src/OuterSpace.sol:OuterSpace",
        "label": "_fleets",
        "offset": 0,
        "slot": "1",
        "type": "t_mapping(t_uint256,t_struct(Fleet)15060_storage)"
      },
      {
        "astId": 15014,
        "contract": "src/OuterSpace.sol:OuterSpace",
        "label": "_stakeReadyToBeWithdrawn",
        "offset": 0,
        "slot": "2",
        "type": "t_mapping(t_address,t_uint256)"
      },
      {
        "astId": 15020,
        "contract": "src/OuterSpace.sol:OuterSpace",
        "label": "_operators",
        "offset": 0,
        "slot": "3",
        "type": "t_mapping(t_address,t_mapping(t_address,t_bool))"
      },
      {
        "astId": 15032,
        "contract": "src/OuterSpace.sol:OuterSpace",
        "label": "_inFlight",
        "offset": 0,
        "slot": "4",
        "type": "t_mapping(t_uint256,t_mapping(t_uint256,t_struct(InFlight)15025_storage))"
      },
      {
        "astId": 15044,
        "contract": "src/OuterSpace.sol:OuterSpace",
        "label": "_discovered",
        "offset": 0,
        "slot": "5",
        "type": "t_struct(Discovered)15041_storage"
      },
      {
        "astId": 15064,
        "contract": "src/OuterSpace.sol:OuterSpace",
        "label": "_prevRewardIds",
        "offset": 0,
        "slot": "6",
        "type": "t_mapping(t_address,t_uint256)"
      },
      {
        "astId": 15068,
        "contract": "src/OuterSpace.sol:OuterSpace",
        "label": "_rewards",
        "offset": 0,
        "slot": "7",
        "type": "t_mapping(t_uint256,t_uint256)"
      },
      {
        "astId": 15074,
        "contract": "src/OuterSpace.sol:OuterSpace",
        "label": "_rewardsToWithdraw",
        "offset": 0,
        "slot": "8",
        "type": "t_mapping(t_address,t_mapping(t_uint256,t_bool))"
      }
    ],
    "types": {
      "t_address": {
        "encoding": "inplace",
        "label": "address",
        "numberOfBytes": "20"
      },
      "t_bool": {
        "encoding": "inplace",
        "label": "bool",
        "numberOfBytes": "1"
      },
      "t_mapping(t_address,t_bool)": {
        "encoding": "mapping",
        "key": "t_address",
        "label": "mapping(address => bool)",
        "numberOfBytes": "32",
        "value": "t_bool"
      },
      "t_mapping(t_address,t_mapping(t_address,t_bool))": {
        "encoding": "mapping",
        "key": "t_address",
        "label": "mapping(address => mapping(address => bool))",
        "numberOfBytes": "32",
        "value": "t_mapping(t_address,t_bool)"
      },
      "t_mapping(t_address,t_mapping(t_uint256,t_bool))": {
        "encoding": "mapping",
        "key": "t_address",
        "label": "mapping(address => mapping(uint256 => bool))",
        "numberOfBytes": "32",
        "value": "t_mapping(t_uint256,t_bool)"
      },
      "t_mapping(t_address,t_uint256)": {
        "encoding": "mapping",
        "key": "t_address",
        "label": "mapping(address => uint256)",
        "numberOfBytes": "32",
        "value": "t_uint256"
      },
      "t_mapping(t_uint256,t_bool)": {
        "encoding": "mapping",
        "key": "t_uint256",
        "label": "mapping(uint256 => bool)",
        "numberOfBytes": "32",
        "value": "t_bool"
      },
      "t_mapping(t_uint256,t_mapping(t_uint256,t_struct(InFlight)15025_storage))": {
        "encoding": "mapping",
        "key": "t_uint256",
        "label": "mapping(uint256 => mapping(uint256 => struct OuterSpace.InFlight))",
        "numberOfBytes": "32",
        "value": "t_mapping(t_uint256,t_struct(InFlight)15025_storage)"
      },
      "t_mapping(t_uint256,t_struct(Fleet)15060_storage)": {
        "encoding": "mapping",
        "key": "t_uint256",
        "label": "mapping(uint256 => struct OuterSpace.Fleet)",
        "numberOfBytes": "32",
        "value": "t_struct(Fleet)15060_storage"
      },
      "t_mapping(t_uint256,t_struct(InFlight)15025_storage)": {
        "encoding": "mapping",
        "key": "t_uint256",
        "label": "mapping(uint256 => struct OuterSpace.InFlight)",
        "numberOfBytes": "32",
        "value": "t_struct(InFlight)15025_storage"
      },
      "t_mapping(t_uint256,t_struct(Planet)15053_storage)": {
        "encoding": "mapping",
        "key": "t_uint256",
        "label": "mapping(uint256 => struct OuterSpace.Planet)",
        "numberOfBytes": "32",
        "value": "t_struct(Planet)15053_storage"
      },
      "t_mapping(t_uint256,t_uint256)": {
        "encoding": "mapping",
        "key": "t_uint256",
        "label": "mapping(uint256 => uint256)",
        "numberOfBytes": "32",
        "value": "t_uint256"
      },
      "t_struct(Discovered)15041_storage": {
        "encoding": "inplace",
        "label": "struct OuterSpace.Discovered",
        "members": [
          {
            "astId": 15034,
            "contract": "src/OuterSpace.sol:OuterSpace",
            "label": "minX",
            "offset": 0,
            "slot": "0",
            "type": "t_uint32"
          },
          {
            "astId": 15036,
            "contract": "src/OuterSpace.sol:OuterSpace",
            "label": "maxX",
            "offset": 4,
            "slot": "0",
            "type": "t_uint32"
          },
          {
            "astId": 15038,
            "contract": "src/OuterSpace.sol:OuterSpace",
            "label": "minY",
            "offset": 8,
            "slot": "0",
            "type": "t_uint32"
          },
          {
            "astId": 15040,
            "contract": "src/OuterSpace.sol:OuterSpace",
            "label": "maxY",
            "offset": 12,
            "slot": "0",
            "type": "t_uint32"
          }
        ],
        "numberOfBytes": "32"
      },
      "t_struct(Fleet)15060_storage": {
        "encoding": "inplace",
        "label": "struct OuterSpace.Fleet",
        "members": [
          {
            "astId": 15055,
            "contract": "src/OuterSpace.sol:OuterSpace",
            "label": "owner",
            "offset": 0,
            "slot": "0",
            "type": "t_address"
          },
          {
            "astId": 15057,
            "contract": "src/OuterSpace.sol:OuterSpace",
            "label": "launchTime",
            "offset": 20,
            "slot": "0",
            "type": "t_uint32"
          },
          {
            "astId": 15059,
            "contract": "src/OuterSpace.sol:OuterSpace",
            "label": "quantity",
            "offset": 24,
            "slot": "0",
            "type": "t_uint32"
          }
        ],
        "numberOfBytes": "32"
      },
      "t_struct(InFlight)15025_storage": {
        "encoding": "inplace",
        "label": "struct OuterSpace.InFlight",
        "members": [
          {
            "astId": 15022,
            "contract": "src/OuterSpace.sol:OuterSpace",
            "label": "flying",
            "offset": 0,
            "slot": "0",
            "type": "t_uint64"
          },
          {
            "astId": 15024,
            "contract": "src/OuterSpace.sol:OuterSpace",
            "label": "destroyed",
            "offset": 8,
            "slot": "0",
            "type": "t_uint64"
          }
        ],
        "numberOfBytes": "32"
      },
      "t_struct(Planet)15053_storage": {
        "encoding": "inplace",
        "label": "struct OuterSpace.Planet",
        "members": [
          {
            "astId": 15046,
            "contract": "src/OuterSpace.sol:OuterSpace",
            "label": "owner",
            "offset": 0,
            "slot": "0",
            "type": "t_address"
          },
          {
            "astId": 15048,
            "contract": "src/OuterSpace.sol:OuterSpace",
            "label": "exitTime",
            "offset": 20,
            "slot": "0",
            "type": "t_uint32"
          },
          {
            "astId": 15050,
            "contract": "src/OuterSpace.sol:OuterSpace",
            "label": "numSpaceships",
            "offset": 24,
            "slot": "0",
            "type": "t_uint32"
          },
          {
            "astId": 15052,
            "contract": "src/OuterSpace.sol:OuterSpace",
            "label": "lastUpdated",
            "offset": 28,
            "slot": "0",
            "type": "t_uint32"
          }
        ],
        "numberOfBytes": "32"
      },
      "t_uint256": {
        "encoding": "inplace",
        "label": "uint256",
        "numberOfBytes": "32"
      },
      "t_uint32": {
        "encoding": "inplace",
        "label": "uint32",
        "numberOfBytes": "4"
      },
      "t_uint64": {
        "encoding": "inplace",
        "label": "uint64",
        "numberOfBytes": "8"
      }
    }
  }
}