{
  "address": "0xAF62b7C7CF896355064Ac1f589c765ec370077b8",
  "abi": [
    {
      "inputs": [
        {
          "components": [
            {
              "internalType": "contract IERC20",
              "name": "stakingToken",
              "type": "address"
            },
            {
              "internalType": "contract AllianceRegistry",
              "name": "allianceRegistry",
              "type": "address"
            },
            {
              "internalType": "bytes32",
              "name": "genesis",
              "type": "bytes32"
            },
            {
              "internalType": "uint256",
              "name": "resolveWindow",
              "type": "uint256"
            },
            {
              "internalType": "uint256",
              "name": "timePerDistance",
              "type": "uint256"
            },
            {
              "internalType": "uint256",
              "name": "exitDuration",
              "type": "uint256"
            },
            {
              "internalType": "uint32",
              "name": "acquireNumSpaceships",
              "type": "uint32"
            },
            {
              "internalType": "uint32",
              "name": "productionSpeedUp",
              "type": "uint32"
            },
            {
              "internalType": "uint256",
              "name": "frontrunningDelay",
              "type": "uint256"
            },
            {
              "internalType": "uint256",
              "name": "productionCapAsDuration",
              "type": "uint256"
            },
            {
              "internalType": "uint256",
              "name": "upkeepProductionDecreaseRatePer10000th",
              "type": "uint256"
            },
            {
              "internalType": "uint256",
              "name": "fleetSizeFactor6",
              "type": "uint256"
            },
            {
              "internalType": "uint32",
              "name": "expansionDelta",
              "type": "uint32"
            },
            {
              "internalType": "uint256",
              "name": "giftTaxPer10000",
              "type": "uint256"
            }
          ],
          "internalType": "struct OuterSpaceFacetBase.Config",
          "name": "config",
          "type": "tuple"
        }
      ],
      "stateMutability": "nonpayable",
      "type": "constructor"
    },
    {
      "anonymous": false,
      "inputs": [
        {
          "indexed": true,
          "internalType": "address",
          "name": "owner",
          "type": "address"
        },
        {
          "indexed": true,
          "internalType": "address",
          "name": "operator",
          "type": "address"
        },
        {
          "indexed": false,
          "internalType": "bool",
          "name": "approved",
          "type": "bool"
        }
      ],
      "name": "ApprovalForAll",
      "type": "event"
    },
    {
      "anonymous": false,
      "inputs": [
        {
          "indexed": true,
          "internalType": "address",
          "name": "owner",
          "type": "address"
        },
        {
          "indexed": true,
          "internalType": "uint256",
          "name": "location",
          "type": "uint256"
        },
        {
          "indexed": false,
          "internalType": "uint256",
          "name": "stake",
          "type": "uint256"
        }
      ],
      "name": "ExitComplete",
      "type": "event"
    },
    {
      "anonymous": false,
      "inputs": [
        {
          "indexed": true,
          "internalType": "uint256",
          "name": "fleet",
          "type": "uint256"
        },
        {
          "indexed": true,
          "internalType": "address",
          "name": "fleetOwner",
          "type": "address"
        },
        {
          "indexed": true,
          "internalType": "address",
          "name": "destinationOwner",
          "type": "address"
        },
        {
          "indexed": false,
          "internalType": "uint256",
          "name": "destination",
          "type": "uint256"
        },
        {
          "indexed": false,
          "internalType": "bool",
          "name": "gift",
          "type": "bool"
        },
        {
          "indexed": false,
          "internalType": "uint32",
          "name": "fleetLoss",
          "type": "uint32"
        },
        {
          "indexed": false,
          "internalType": "uint32",
          "name": "planetLoss",
          "type": "uint32"
        },
        {
          "indexed": false,
          "internalType": "uint32",
          "name": "inFlightFleetLoss",
          "type": "uint32"
        },
        {
          "indexed": false,
          "internalType": "uint32",
          "name": "inFlightPlanetLoss",
          "type": "uint32"
        },
        {
          "indexed": false,
          "internalType": "bool",
          "name": "won",
          "type": "bool"
        },
        {
          "indexed": false,
          "internalType": "uint32",
          "name": "newNumspaceships",
          "type": "uint32"
        },
        {
          "indexed": false,
          "internalType": "int40",
          "name": "newTravelingUpkeep",
          "type": "int40"
        },
        {
          "indexed": false,
          "internalType": "uint32",
          "name": "newOverflow",
          "type": "uint32"
        },
        {
          "indexed": false,
          "internalType": "uint32",
          "name": "accumulatedDefenseAdded",
          "type": "uint32"
        },
        {
          "indexed": false,
          "internalType": "uint32",
          "name": "accumulatedAttackAdded",
          "type": "uint32"
        }
      ],
      "name": "FleetArrived",
      "type": "event"
    },
    {
      "anonymous": false,
      "inputs": [
        {
          "indexed": true,
          "internalType": "address",
          "name": "fleetSender",
          "type": "address"
        },
        {
          "indexed": true,
          "internalType": "address",
          "name": "fleetOwner",
          "type": "address"
        },
        {
          "indexed": true,
          "internalType": "uint256",
          "name": "from",
          "type": "uint256"
        },
        {
          "indexed": false,
          "internalType": "address",
          "name": "operator",
          "type": "address"
        },
        {
          "indexed": false,
          "internalType": "uint256",
          "name": "fleet",
          "type": "uint256"
        },
        {
          "indexed": false,
          "internalType": "uint32",
          "name": "quantity",
          "type": "uint32"
        },
        {
          "indexed": false,
          "internalType": "uint32",
          "name": "newNumSpaceships",
          "type": "uint32"
        },
        {
          "indexed": false,
          "internalType": "int40",
          "name": "newTravelingUpkeep",
          "type": "int40"
        },
        {
          "indexed": false,
          "internalType": "uint32",
          "name": "newOverflow",
          "type": "uint32"
        }
      ],
      "name": "FleetSent",
      "type": "event"
    },
    {
      "anonymous": false,
      "inputs": [
        {
          "indexed": false,
          "internalType": "bytes32",
          "name": "genesis",
          "type": "bytes32"
        },
        {
          "indexed": false,
          "internalType": "uint256",
          "name": "resolveWindow",
          "type": "uint256"
        },
        {
          "indexed": false,
          "internalType": "uint256",
          "name": "timePerDistance",
          "type": "uint256"
        },
        {
          "indexed": false,
          "internalType": "uint256",
          "name": "exitDuration",
          "type": "uint256"
        },
        {
          "indexed": false,
          "internalType": "uint32",
          "name": "acquireNumSpaceships",
          "type": "uint32"
        },
        {
          "indexed": false,
          "internalType": "uint32",
          "name": "productionSpeedUp",
          "type": "uint32"
        },
        {
          "indexed": false,
          "internalType": "uint256",
          "name": "frontrunningDelay",
          "type": "uint256"
        },
        {
          "indexed": false,
          "internalType": "uint256",
          "name": "productionCapAsDuration",
          "type": "uint256"
        },
        {
          "indexed": false,
          "internalType": "uint256",
          "name": "upkeepProductionDecreaseRatePer10000th",
          "type": "uint256"
        },
        {
          "indexed": false,
          "internalType": "uint256",
          "name": "fleetSizeFactor6",
          "type": "uint256"
        },
        {
          "indexed": false,
          "internalType": "uint32",
          "name": "initialSpaceExpansion",
          "type": "uint32"
        },
        {
          "indexed": false,
          "internalType": "uint32",
          "name": "expansionDelta",
          "type": "uint32"
        },
        {
          "indexed": false,
          "internalType": "uint256",
          "name": "giftTaxPer10000",
          "type": "uint256"
        }
      ],
      "name": "Initialized",
      "type": "event"
    },
    {
      "anonymous": false,
      "inputs": [
        {
          "indexed": true,
          "internalType": "address",
          "name": "owner",
          "type": "address"
        },
        {
          "indexed": true,
          "internalType": "uint256",
          "name": "location",
          "type": "uint256"
        }
      ],
      "name": "PlanetExit",
      "type": "event"
    },
    {
      "anonymous": false,
      "inputs": [
        {
          "indexed": true,
          "internalType": "uint256",
          "name": "location",
          "type": "uint256"
        }
      ],
      "name": "PlanetReset",
      "type": "event"
    },
    {
      "anonymous": false,
      "inputs": [
        {
          "indexed": true,
          "internalType": "address",
          "name": "acquirer",
          "type": "address"
        },
        {
          "indexed": true,
          "internalType": "uint256",
          "name": "location",
          "type": "uint256"
        },
        {
          "indexed": false,
          "internalType": "uint32",
          "name": "numSpaceships",
          "type": "uint32"
        },
        {
          "indexed": false,
          "internalType": "int40",
          "name": "travelingUpkeep",
          "type": "int40"
        },
        {
          "indexed": false,
          "internalType": "uint32",
          "name": "overflow",
          "type": "uint32"
        },
        {
          "indexed": false,
          "internalType": "uint256",
          "name": "stake",
          "type": "uint256"
        }
      ],
      "name": "PlanetStake",
      "type": "event"
    },
    {
      "anonymous": false,
      "inputs": [
        {
          "indexed": true,
          "internalType": "uint256",
          "name": "location",
          "type": "uint256"
        },
        {
          "indexed": true,
          "internalType": "address",
          "name": "giver",
          "type": "address"
        },
        {
          "indexed": false,
          "internalType": "uint256",
          "name": "rewardId",
          "type": "uint256"
        }
      ],
      "name": "RewardSetup",
      "type": "event"
    },
    {
      "anonymous": false,
      "inputs": [
        {
          "indexed": true,
          "internalType": "address",
          "name": "owner",
          "type": "address"
        },
        {
          "indexed": true,
          "internalType": "uint256",
          "name": "location",
          "type": "uint256"
        },
        {
          "indexed": true,
          "internalType": "uint256",
          "name": "rewardId",
          "type": "uint256"
        }
      ],
      "name": "RewardToWithdraw",
      "type": "event"
    },
    {
      "anonymous": false,
      "inputs": [
        {
          "indexed": true,
          "internalType": "address",
          "name": "owner",
          "type": "address"
        },
        {
          "indexed": false,
          "internalType": "uint256",
          "name": "newStake",
          "type": "uint256"
        }
      ],
      "name": "StakeToWithdraw",
      "type": "event"
    },
    {
      "anonymous": false,
      "inputs": [
        {
          "indexed": true,
          "internalType": "address",
          "name": "from",
          "type": "address"
        },
        {
          "indexed": true,
          "internalType": "address",
          "name": "to",
          "type": "address"
        },
        {
          "indexed": true,
          "internalType": "uint256",
          "name": "location",
          "type": "uint256"
        }
      ],
      "name": "Transfer",
      "type": "event"
    },
    {
      "anonymous": false,
      "inputs": [
        {
          "indexed": true,
          "internalType": "uint256",
          "name": "origin",
          "type": "uint256"
        },
        {
          "indexed": true,
          "internalType": "uint256",
          "name": "fleet",
          "type": "uint256"
        },
        {
          "indexed": false,
          "internalType": "uint32",
          "name": "newNumspaceships",
          "type": "uint32"
        },
        {
          "indexed": false,
          "internalType": "int40",
          "name": "newTravelingUpkeep",
          "type": "int40"
        },
        {
          "indexed": false,
          "internalType": "uint32",
          "name": "newOverflow",
          "type": "uint32"
        }
      ],
      "name": "TravelingUpkeepReductionFromDestruction",
      "type": "event"
    },
    {
      "inputs": [
        {
          "internalType": "uint256",
          "name": "location",
          "type": "uint256"
        },
        {
          "internalType": "uint256",
          "name": "amount",
          "type": "uint256"
        }
      ],
      "name": "acquireViaTransferFrom",
      "outputs": [],
      "stateMutability": "nonpayable",
      "type": "function"
    },
    {
      "inputs": [
        {
          "internalType": "address",
          "name": "owner",
          "type": "address"
        }
      ],
      "name": "balanceToWithdraw",
      "outputs": [
        {
          "internalType": "uint256",
          "name": "",
          "type": "uint256"
        }
      ],
      "stateMutability": "view",
      "type": "function"
    },
    {
      "inputs": [
        {
          "internalType": "address",
          "name": "owner",
          "type": "address"
        },
        {
          "internalType": "uint256",
          "name": "location",
          "type": "uint256"
        }
      ],
      "name": "exitFor",
      "outputs": [],
      "stateMutability": "nonpayable",
      "type": "function"
    },
    {
      "inputs": [
        {
          "internalType": "address",
          "name": "owner",
          "type": "address"
        },
        {
          "internalType": "uint256[]",
          "name": "locations",
          "type": "uint256[]"
        }
      ],
      "name": "fetchAndWithdrawFor",
      "outputs": [],
      "stateMutability": "nonpayable",
      "type": "function"
    },
    {
      "inputs": [
        {
          "internalType": "address",
          "name": "",
          "type": "address"
        },
        {
          "internalType": "address",
          "name": "forAddress",
          "type": "address"
        },
        {
          "internalType": "uint256",
          "name": "amount",
          "type": "uint256"
        },
        {
          "internalType": "bytes",
          "name": "data",
          "type": "bytes"
        }
      ],
      "name": "onTokenPaidFor",
      "outputs": [
        {
          "internalType": "bool",
          "name": "",
          "type": "bool"
        }
      ],
      "stateMutability": "nonpayable",
      "type": "function"
    },
    {
      "inputs": [
        {
          "internalType": "address",
          "name": "",
          "type": "address"
        },
        {
          "internalType": "uint256",
          "name": "amount",
          "type": "uint256"
        },
        {
          "internalType": "bytes",
          "name": "data",
          "type": "bytes"
        }
      ],
      "name": "onTokenTransfer",
      "outputs": [
        {
          "internalType": "bool",
          "name": "",
          "type": "bool"
        }
      ],
      "stateMutability": "nonpayable",
      "type": "function"
    },
    {
      "inputs": [
        {
          "internalType": "address",
          "name": "owner",
          "type": "address"
        }
      ],
      "name": "withdrawFor",
      "outputs": [],
      "stateMutability": "nonpayable",
      "type": "function"
    }
  ],
  "transactionHash": "0xf64866dc25fc43afad6f66b2357d8933e94c0184aa6a4adf4d362cffdfcec7e8",
  "args": [
    {
      "stakingToken": "0xb8ccc5677dF4c1451F7F1F88A23de10D65864d7B",
      "allianceRegistry": "0xfd8dea01BAEdcb1329C0667851A097911f7DF3aA",
      "genesis": "0xee563ebbe85edccc120c5082a5066539b0e9b7958b5fbac114523a95a8162670",
      "resolveWindow": 1728,
      "timePerDistance": 72,
      "exitDuration": 2592,
      "acquireNumSpaceships": 100000,
      "productionSpeedUp": 100,
      "frontrunningDelay": 18,
      "productionCapAsDuration": 259200,
      "upkeepProductionDecreaseRatePer10000th": 5000,
      "fleetSizeFactor6": 500000,
      "initialSpaceExpansion": 12,
      "expansionDelta": 4,
      "giftTaxPer10000": 2000
    }
  ],
  "numDeployments": 2,
  "linkedData": {
    "genesisHash": "0xee563ebbe85edccc120c5082a5066539b0e9b7958b5fbac114523a95a8162670",
    "resolveWindow": 1728,
    "timePerDistance": 72,
    "exitDuration": 2592,
    "acquireNumSpaceships": 100000,
    "productionSpeedUp": 100,
    "chainGenesisHash": "",
    "frontrunningDelay": 18,
    "productionCapAsDuration": 259200,
    "upkeepProductionDecreaseRatePer10000th": 5000,
    "fleetSizeFactor6": 500000,
    "initialSpaceExpansion": 12,
    "expansionDelta": 4,
    "giftTaxPer10000": 2000
  },
  "solcInputHash": "59d8d5897db5618f2c6d82f269debee4",
  "bytecode": "0x6102406040523480156200001257600080fd5b50604051620031e9380380620031e98339810160408190526200003591620001bc565b806000600482608001516200004b91906200029c565b608083015190915062000060826004620002ce565b63ffffffff1614620000b85760405162461bcd60e51b815260206004820152601d60248201527f54494d455f5045525f444953545f4e4f545f444956495349424c455f34000000604482015260640160405180910390fd5b81516001600160a01b0390811660805260208301511660a0908152604083015160c0908152606084015160e090815263ffffffff9384166101009081529285015161012090815291850151841661014090815290850151841661016090815292850151610180908152918501516101a0908152908501516101c052918401516101e052830151909116610200520151610220525062000309565b6040516101c081016001600160401b03811182821017156200018457634e487b7160e01b600052604160045260246000fd5b60405290565b80516001600160a01b0381168114620001a257600080fd5b919050565b805163ffffffff81168114620001a257600080fd5b60006101c08284031215620001d057600080fd5b620001da62000152565b620001e5836200018a565b8152620001f5602084016200018a565b602082015260408301516040820152606083015160608201526080830151608082015260a083015160a08201526200023060c08401620001a7565b60c08201526200024360e08401620001a7565b60e0820152610100838101519082015261012080840151908201526101408084015190820152610160808401519082015261018062000284818501620001a7565b908201526101a0928301519281019290925250919050565b600063ffffffff80841680620002c257634e487b7160e01b600052601260045260246000fd5b92169190910492915050565b600063ffffffff808316818516818304811182151516156200030057634e487b7160e01b600052601160045260246000fd5b02949350505050565b60805160a05160c05160e05161010051610120516101405161016051610180516101a0516101c0516101e0516102005161022051612dc2620004276000396000505060008181611b0701528181611bec01528181611cd90152611dc4015260008181612399015281816123cc0152818161244d0152612480015260006110390152600081816110b3015281816116bb01526121e101526000505060008181610fe40152818161116a015281816112e0015261134401526000818161155e015281816115a90152818161164201528181611680015261221f01526000611f2a0152600050506000505060008181610c040152610e1f015260005050600081816101ad015281816102490152818161034b01526106da0152612dc26000f3fe608060405234801561001057600080fd5b506004361061007d5760003560e01c8063a4c0ed361161005b578063a4c0ed36146100d2578063afc82370146100e5578063c9560838146100f8578063e2e9b0791461013c57600080fd5b80637ba423fb146100825780639b6be065146100975780639eca672c146100bf575b600080fd5b610095610090366004612695565b61014f565b005b6100aa6100a5366004612725565b61022f565b60405190151581526020015b60405180910390f35b6100956100cd366004612798565b6102fd565b6100aa6100e03660046127b5565b610331565b6100956100f3366004612811565b6103f0565b61012e610106366004612798565b73ffffffffffffffffffffffffffffffffffffffff1660009081526002602052604090205490565b6040519081526020016100b6565b61009561014a36600461283d565b6103fa565b3361015b81838561040a565b6040517f23b872dd00000000000000000000000000000000000000000000000000000000815273ffffffffffffffffffffffffffffffffffffffff8281166004830152306024830152604482018490527f000000000000000000000000000000000000000000000000000000000000000016906323b872dd90606401602060405180830381600087803b1580156101f157600080fd5b505af1158015610205573d6000803e3d6000fd5b505050506040513d601f19601f8201168201806040525081019061022991906128c5565b50505050565b60003373ffffffffffffffffffffffffffffffffffffffff7f000000000000000000000000000000000000000000000000000000000000000016146102d5576040517f08c379a000000000000000000000000000000000000000000000000000000000815260206004820152600d60248201527f494e56414c49445f45524332300000000000000000000000000000000000000060448201526064015b60405180910390fd5b60006102e3838501856128e7565b90506102f086868361040a565b5060019695505050505050565b73ffffffffffffffffffffffffffffffffffffffff811660009081526002602052604090205461032d828261062c565b5050565b60003373ffffffffffffffffffffffffffffffffffffffff7f000000000000000000000000000000000000000000000000000000000000000016146103d2576040517f08c379a000000000000000000000000000000000000000000000000000000000815260206004820152600d60248201527f494e56414c49445f45524332300000000000000000000000000000000000000060448201526064016102cc565b6000806103e184860186612811565b915091506102f082878361040a565b61032d8282610811565b610405838383610a44565b505050565b60008181526020819052604081206040805160e081018252825473ffffffffffffffffffffffffffffffffffffffff8116825264ffffffffff74010000000000000000000000000000000000000000820481166020840152790100000000000000000000000000000000000000000000000000909104811692820192909252600183015463ffffffff8082166060840152640100000000820490931660808301526901000000000000000000810460040b60a08301526e010000000000000000000000000000900490911660c08201529091506000906104ea9084610d1b565b9050670de0b6b3a7640000610503826101400151610e7b565b61ffff16610511919061292f565b8414610579576040517f08c379a000000000000000000000000000000000000000000000000000000000815260206004820152600e60248201527f494e56414c49445f414d4f554e5400000000000000000000000000000000000060448201526064016102cc565b61058281610f52565b61058c85826113db565b6105968282611741565b61059f83611a13565b828573ffffffffffffffffffffffffffffffffffffffff167f7bcb9b822a2e2cb38b8774da0bc62c6f1b2a9272d62f18009122bd6fad8523f9836060015184608001518560e001518960405161061d949392919063ffffffff948516815260049390930b602084015292166040820152606081019190915260800190565b60405180910390a35050505050565b73ffffffffffffffffffffffffffffffffffffffff821660008181526002602052604080822091909155517f4d135695228631e73b5a31e6fc8af4e5825cde63774c3c48695b4af814d7b019906106869084815260200190565b60405180910390a26040517fa9059cbb00000000000000000000000000000000000000000000000000000000815273ffffffffffffffffffffffffffffffffffffffff8381166004830152602482018390527f0000000000000000000000000000000000000000000000000000000000000000169063a9059cbb90604401602060405180830381600087803b15801561071e57600080fd5b505af1158015610732573d6000803e3d6000fd5b505050506040513d601f19601f8201168201806040525081019061075691906128c5565b6107bc576040517f08c379a000000000000000000000000000000000000000000000000000000000815260206004820152600f60248201527f4641494c45445f5452414e53464552000000000000000000000000000000000060448201526064016102cc565b8173ffffffffffffffffffffffffffffffffffffffff167f4d135695228631e73b5a31e6fc8af4e5825cde63774c3c48695b4af814d7b019600060405161080591815260200190565b60405180910390a25050565b600081815260208190526040812060018101549091906108369063ffffffff16611ef3565b509050806108a0576040517f08c379a000000000000000000000000000000000000000000000000000000000815260206004820152600a60248201527f4e4f545f4143544956450000000000000000000000000000000000000000000060448201526064016102cc565b815473ffffffffffffffffffffffffffffffffffffffff858116911614610923576040517f08c379a000000000000000000000000000000000000000000000000000000000815260206004820152600960248201527f4e4f545f4f574e4552000000000000000000000000000000000000000000000060448201526064016102cc565b8154790100000000000000000000000000000000000000000000000000900464ffffffffff16156109b0576040517f08c379a000000000000000000000000000000000000000000000000000000000815260206004820152600f60248201527f45584954494e475f414c5245414459000000000000000000000000000000000060448201526064016102cc565b81547fffff0000000000ffffffffffffffffffffffffffffffffffffffffffffffffff167901000000000000000000000000000000000000000000000000004264ffffffffff1602178255604051839073ffffffffffffffffffffffffffffffffffffffff8616907fb9182e4e152947f1e6691fa0ee6f68f21f607fed825945c270e69995acad805f90600090a350505050565b6000805b82811015610cd6576000610a7f858584818110610a6757610a6761296c565b90506020020135600090815260208190526040902090565b8054909150610ab190790100000000000000000000000000000000000000000000000000900464ffffffffff16611f12565b15610cc357805473ffffffffffffffffffffffffffffffffffffffff878116911614610b39576040517f08c379a000000000000000000000000000000000000000000000000000000000815260206004820152600960248201527f4e4f545f4f574e4552000000000000000000000000000000000000000000000060448201526064016102cc565b848483818110610b4b57610b4b61296c565b90506020020135600073ffffffffffffffffffffffffffffffffffffffff168773ffffffffffffffffffffffffffffffffffffffff167fddf252ad1be2c89b69c2b068fc378daa952ba7f163c4a11628f55a4df523b3ef60405160405180910390a48054610c569073ffffffffffffffffffffffffffffffffffffffff16868685818110610bdb57610bdb61296c565b90506020020135610c51888887818110610bf757610bf761296c565b90506020020135604080517f00000000000000000000000000000000000000000000000000000000000000006020820152908101829052600090606001604051602081830303815290604052805190602001209050919050565b611f5f565b610c60908461299b565b81547fffff0000000000000000000000000000000000000000000000000000000000001682556001820180547fffffffffffffffffffffffffffff0000000000000000000000000000000000001664010000000064ffffffffff42160217905592505b5080610cce816129b3565b915050610a48565b5073ffffffffffffffffffffffffffffffffffffffff8416600090815260026020526040812054610d0890839061299b565b9050610d14858261062c565b5050505050565b6040805161016081018252600080825260208201819052918101829052606081018290526080810182905260a0810182905260c0810182905260e0810182905261010081018290526101208101829052610140810191909152600080610d848560600151611ef3565b85855260808088015164ffffffffff908116602088015283151560408089019190915263ffffffff80851660608a015260a0808c015160040b948a0194909452908a01805183169389019390935291511660c0808801919091528801511660e0860152865173ffffffffffffffffffffffffffffffffffffffff9081166101008701528751166101208601529092509050610e6c84604080517f00000000000000000000000000000000000000000000000000000000000000006020820152908101829052600090606001604051602081830303815290604052805190602001209050919050565b61014084015250909392505050565b6000610e8682612084565b610eec576040517f08c379a000000000000000000000000000000000000000000000000000000000815260206004820152601160248201527f504c414e45545f4e4f545f45584953545300000000000000000000000000000060448201526064016102cc565b6000610ef983600c6120a0565b905060ff81167e060008000a000c000e00100012001400140016001800200028003000380048610f2a8260026129ec565b610f35906001612a16565b61ffff1660208110610f4957610f4961296c565b1a949350505050565b60a081015164ffffffffff1615610fa357610f708160a00151611f12565b15610fa357600060c082018190526060820181905260808201819052610120820181905260e08201819052604090910152565b6000816020015164ffffffffff1642610fbc9190612a3c565b90506000610fce83610140015161213a565b90506000610e1061ffff831661100a63ffffffff7f0000000000000000000000000000000000000000000000000000000000000000168661292f565b611014919061292f565b61101e9190612a82565b9050600080856080015160040b13156110a45761271061105e7f00000000000000000000000000000000000000000000000000000000000000008461292f565b6110689190612a82565b9050846080015164ffffffffff1681111561108b5750608084015164ffffffffff165b80856080015161109b9190612a96565b60040b60808601525b606085015163ffffffff1660007f0000000000000000000000000000000000000000000000000000000000000000156112c35760006110e2866121d7565b9050600088604001516110f65760006110f8565b815b90508084111561122e5760c089015164ffffffffff166112295760e08901516107089063ffffffff161561115a57828a60e001516107086111399190612afc565b63ffffffff166111499190612a82565b905061070881101561115a57506107085b6000610e108261119063ffffffff7f0000000000000000000000000000000000000000000000000000000000000000168d61292f565b61119a919061292f565b6111a49190612a82565b90506111b08387612a3c565b8111156111c4576111c18387612a3c565b90505b858111156111f7578a60400151156111ee57856111e1888a612a3c565b6111eb919061299b565b94505b60009550611226565b8a6040015115611219578061120c888a612a3c565b611216919061299b565b94505b6112238187612a3c565b95505b50505b611276565b8860400151156112765760006112448583612a3c565b905060006112528789612a3c565b90508181111561126c576112668282612a3c565b94508190505b611223818761299b565b8860400151156112bc576000838a6080015160040b6112959190612b1f565b90506112a082612b93565b8112156112b3576112b082612b93565b90505b60040b60808a01525b50506113a2565b8660400151156113355782610e1061ffff871661130663ffffffff7f0000000000000000000000000000000000000000000000000000000000000000168a61292f565b611310919061292f565b61131a9190612a82565b6113249190612a3c565b61132e908361299b565b91506113a2565b6000610e1061136a63ffffffff7f0000000000000000000000000000000000000000000000000000000000000000168961292f565b6113769061070861292f565b6113809190612a82565b90508281111561139357506000916113a0565b61139d8184612a3c565b92505b505b638000000082106113c5576113bc60016380000000612bcc565b63ffffffff1691505b5063ffffffff1660609095019490945250505050565b806040015115611447576040517f08c379a000000000000000000000000000000000000000000000000000000000815260206004820152600c60248201527f5354494c4c5f414354495645000000000000000000000000000000000000000060448201526064016102cc565b6000816060015163ffffffff16600014156114755761146a826101400151612244565b61ffff16905061150f565b8273ffffffffffffffffffffffffffffffffffffffff1682610100015173ffffffffffffffffffffffffffffffffffffffff161461150f576040517f08c379a000000000000000000000000000000000000000000000000000000000815260206004820152600860248201527f4f4343555049454400000000000000000000000000000000000000000000000060448201526064016102cc565b600061151f83610140015161213a565b9050600061152c826121d7565b73ffffffffffffffffffffffffffffffffffffffff8616610120860152905063ffffffff83161561167e5760006115a47f000000000000000000000000000000000000000000000000000000000000000063ffffffff168563ffffffff1661271061159b8961014001516122db565b61ffff16612372565b5090507f000000000000000000000000000000000000000000000000000000000000000063ffffffff168163ffffffff161061163c576040517f08c379a000000000000000000000000000000000000000000000000000000000815260206004820152600f60248201527f4641494c45445f4341505455524544000000000000000000000000000000000060448201526064016102cc565b611666817f0000000000000000000000000000000000000000000000000000000000000000612bcc565b63ffffffff16606086015250600060e085015261171f565b7f0000000000000000000000000000000000000000000000000000000000000000846060018181516116b09190612bf1565b63ffffffff169052507f00000000000000000000000000000000000000000000000000000000000000001561171f578063ffffffff16846060015163ffffffff161115611717578084606001516117079190612bcc565b63ffffffff1660e085015261171f565b600060e08501525b61172881612c10565b60030b6080850152505060016040909201919091525050565b60008160a0015164ffffffffff16118015611765575060c081015164ffffffffff16155b156117735761177381612513565b80610120015173ffffffffffffffffffffffffffffffffffffffff1681610100015173ffffffffffffffffffffffffffffffffffffffff16146118b757610120810151825464ffffffffff42811674010000000000000000000000000000000000000000027fffffffffffffff0000000000000000000000000000000000000000000000000090921673ffffffffffffffffffffffffffffffffffffffff9093169290921717835560a0820151161561184d5781547fffff0000000000ffffffffffffffffffffffffffffffffffffffffffffffffff1682555b806000015181610120015173ffffffffffffffffffffffffffffffffffffffff1682610100015173ffffffffffffffffffffffffffffffffffffffff167fddf252ad1be2c89b69c2b068fc378daa952ba7f163c4a11628f55a4df523b3ef60405160405180910390a45b60008160c0015164ffffffffff161180156118db575060a081015164ffffffffff16155b156119345760c0810151825464ffffffffff909116790100000000000000000000000000000000000000000000000000027fffff0000000000ffffffffffffffffffffffffffffffffffffffffffffffffff9091161782555b611946816040015182606001516125d8565b6001929092018054608083015160e09093015163ffffffff9485167fffffffffffffffffffffffffffffffffffff0000000000ffffffffff0000000090921691909117690100000000000000000064ffffffffff94851602177fffffffffffffffffffffffffffff00000000ffffffffff0000000000ffffffff166e01000000000000000000000000000094909116939093027fffffffffffffffffffffffffffffffffffffffffffffff0000000000ffffffff1692909217640100000000429290921691909102179055565b604080516080808201835260055463ffffffff80821684526401000000008204811660208501526801000000000000000082048116948401949094526c0100000000000000000000000090049092166060820152906fffffffffffffffffffffffffffffffff8316600f0b9083901d600080831215611b7357835163ffffffff16611a9d84612b93565b1315611b05576040517f08c379a000000000000000000000000000000000000000000000000000000000815260206004820152601660248201527f4e4f545f524541434841424c455f5945545f4d494e580000000000000000000060448201526064016102cc565b7f000000000000000000000000000000000000000000000000000000000000000060030b611b3284612b93565b611b3c9190612c4f565b925063ffffffff831315611b525763ffffffff92505b835163ffffffff16831315611b6e575063ffffffff8216835260015b611c52565b836020015163ffffffff16831315611be7576040517f08c379a000000000000000000000000000000000000000000000000000000000815260206004820152601660248201527f4e4f545f524541434841424c455f5945545f4d4158580000000000000000000060448201526064016102cc565b611c147f000000000000000000000000000000000000000000000000000000000000000060030b84612c4f565b925063ffffffff831315611c2a5763ffffffff92505b8263ffffffff16846020015163ffffffff161015611c52575063ffffffff8216602084015260015b6000821215611d4b57604084015163ffffffff16611c6f83612b93565b1315611cd7576040517f08c379a000000000000000000000000000000000000000000000000000000000815260206004820152601660248201527f4e4f545f524541434841424c455f5945545f4d494e590000000000000000000060448201526064016102cc565b7f000000000000000000000000000000000000000000000000000000000000000060030b611d0483612b93565b611d0e9190612c4f565b915063ffffffff821315611d245763ffffffff91505b81846040015163ffffffff161215611d46575063ffffffff8116604084015260015b611e24565b836060015163ffffffff16821315611dbf576040517f08c379a000000000000000000000000000000000000000000000000000000000815260206004820152601660248201527f4e4f545f524541434841424c455f5945545f4d4158590000000000000000000060448201526064016102cc565b611dec7f000000000000000000000000000000000000000000000000000000000000000060030b83612c4f565b915063ffffffff821315611e025763ffffffff91505b81846060015163ffffffff161215611e24575063ffffffff8116606084015260015b8015610d145783516005805460208701516040880151606089015163ffffffff9081166c01000000000000000000000000027fffffffffffffffffffffffffffffffff00000000ffffffffffffffffffffffff9282166801000000000000000002929092167fffffffffffffffffffffffffffffffff0000000000000000ffffffffffffffff938216640100000000027fffffffffffffffffffffffffffffffffffffffffffffffff000000000000000090951691909616179290921716929092179190911790555050505050565b6380000000818116811490600090611f0b9084612cc3565b9050915091565b6000808264ffffffffff16118015611f595750611f567f000000000000000000000000000000000000000000000000000000000000000064ffffffffff841661299b565b42115b92915050565b6000670de0b6b3a7640000611f7383610e7b565b61ffff16611f81919061292f565b9050828473ffffffffffffffffffffffffffffffffffffffff167f1c363b29828a892b7cddafe9583ef52e0d5aca0ea7011bda6ccf039e1781f73883604051611fcc91815260200190565b60405180910390a3600083815260076020526040902054801561207c5773ffffffffffffffffffffffffffffffffffffffff85166000818152600860209081526040808320858452825280832080547fffffffffffffffffffffffffffffffffffffffffffffffffffffffffffffff001660011790558783526007909152808220829055518392879290917f74f110a1e0cd4892234c7ba49df9f8a354cd8d29b272f7557c9b8c3c38a653369190a45b509392505050565b600061209382603460106125fe565b60ff166001149050919050565b6000806120af848460406125fe565b905060006120be600283612ce6565b905060006120cd600284612d08565b905060007f01223334444555555666666677777777888888889999999aaaaaabbbbcccddef60ff8416602081106121065761210661296c565b1a905060ff82166121245760048160ff16901c945050505050611f59565b61212f601082612d08565b979650505050505050565b600061214582612084565b6121ab576040517f08c379a000000000000000000000000000000000000000000000000000000000815260206004820152601160248201527f504c414e45545f4e4f545f45584953545300000000000000000000000000000060448201526064016102cc565b611f5982600c7f0708083409600a8c0bb80ce40e100e100e100e101068151819c81e7823282ee061261b565b6000610e1061220a7f000000000000000000000000000000000000000000000000000000000000000061ffff851661292f565b6122149190612a82565b611f599063ffffffff7f00000000000000000000000000000000000000000000000000000000000000001661299b565b600061224f82612084565b6122b5576040517f08c379a000000000000000000000000000000000000000000000000000000000815260206004820152601160248201527f504c414e45545f4e4f545f45584953545300000000000000000000000000000060448201526064016102cc565b6122c082602c6120a0565b6122cf9060ff16610bb86129ec565b611f5990613a98612a16565b60006122e682612084565b61234c576040517f08c379a000000000000000000000000000000000000000000000000000000000815260206004820152601160248201527f504c414e45545f4e4f545f45584953545300000000000000000000000000000060448201526064016102cc565b61235782601c6120a0565b6123669060ff166101906129ec565b611f5990610fa0612a16565b600080851580612380575084155b156123905750600090508061250a565b6000856123bd887f000000000000000000000000000000000000000000000000000000000000000061292f565b6123c79190612a82565b6123f47f0000000000000000000000000000000000000000000000000000000000000000620f4240612a3c565b6123fe919061299b565b612408908861292f565b90506000620f42408561241b888561292f565b6124259190612a82565b61242f9190612a82565b90508087111561244457879350809250612507565b600088612471897f000000000000000000000000000000000000000000000000000000000000000061292f565b61247b9190612a82565b6124a87f0000000000000000000000000000000000000000000000000000000000000000620f4240612a3c565b6124b2919061299b565b6124bc908961292f565b90506000620f4240886124cf898561292f565b6124d99190612a82565b6124e39190612a82565b63ffffffff169050898110612500576124fd60018b612a3c565b90505b9450879350505b50505b94509492505050565b600061252e8261010001518360000151846101400151611f5f565b61010083015173ffffffffffffffffffffffffffffffffffffffff166000908152600260205260408120549192509061256890839061299b565b6101008401805173ffffffffffffffffffffffffffffffffffffffff9081166000908152600260209081526040918290208590559251905184815293945016917f4d135695228631e73b5a31e6fc8af4e5825cde63774c3c48695b4af814d7b019910160405180910390a2505050565b600081836125e75760006125ed565b63800000005b6125f79190612bf1565b9392505050565b600061261360ff80841690851686901c612d2a565b949350505050565b60008061262885856120a0565b905082612636826002612d3e565b612641906001612d67565b60ff16602081106126545761265461296c565b1a83612661836002612d3e565b60ff16602081106126745761267461296c565b61268291901a6101006129ec565b61268c9190612a16565b95945050505050565b600080604083850312156126a857600080fd5b50508035926020909101359150565b73ffffffffffffffffffffffffffffffffffffffff811681146126d957600080fd5b50565b60008083601f8401126126ee57600080fd5b50813567ffffffffffffffff81111561270657600080fd5b60208301915083602082850101111561271e57600080fd5b9250929050565b60008060008060006080868803121561273d57600080fd5b8535612748816126b7565b94506020860135612758816126b7565b935060408601359250606086013567ffffffffffffffff81111561277b57600080fd5b612787888289016126dc565b969995985093965092949392505050565b6000602082840312156127aa57600080fd5b81356125f7816126b7565b600080600080606085870312156127cb57600080fd5b84356127d6816126b7565b935060208501359250604085013567ffffffffffffffff8111156127f957600080fd5b612805878288016126dc565b95989497509550505050565b6000806040838503121561282457600080fd5b823561282f816126b7565b946020939093013593505050565b60008060006040848603121561285257600080fd5b833561285d816126b7565b9250602084013567ffffffffffffffff8082111561287a57600080fd5b818601915086601f83011261288e57600080fd5b81358181111561289d57600080fd5b8760208260051b85010111156128b257600080fd5b6020830194508093505050509250925092565b6000602082840312156128d757600080fd5b815180151581146125f757600080fd5b6000602082840312156128f957600080fd5b5035919050565b7f4e487b7100000000000000000000000000000000000000000000000000000000600052601160045260246000fd5b6000817fffffffffffffffffffffffffffffffffffffffffffffffffffffffffffffffff048311821515161561296757612967612900565b500290565b7f4e487b7100000000000000000000000000000000000000000000000000000000600052603260045260246000fd5b600082198211156129ae576129ae612900565b500190565b60007fffffffffffffffffffffffffffffffffffffffffffffffffffffffffffffffff8214156129e5576129e5612900565b5060010190565b600061ffff80831681851681830481118215151615612a0d57612a0d612900565b02949350505050565b600061ffff808316818516808303821115612a3357612a33612900565b01949350505050565b600082821015612a4e57612a4e612900565b500390565b7f4e487b7100000000000000000000000000000000000000000000000000000000600052601260045260246000fd5b600082612a9157612a91612a53565b500490565b60008160040b8360040b60008112817fffffffffffffffffffffffffffffffffffffffffffffffffffffff800000000001831281151615612ad957612ad9612900565b81647fffffffff018313811615612af257612af2612900565b5090039392505050565b600063ffffffff80831681851681830481118215151615612a0d57612a0d612900565b6000808312837f800000000000000000000000000000000000000000000000000000000000000001831281151615612b5957612b59612900565b837f7fffffffffffffffffffffffffffffffffffffffffffffffffffffffffffffff018313811615612b8d57612b8d612900565b50500390565b60007f8000000000000000000000000000000000000000000000000000000000000000821415612bc557612bc5612900565b5060000390565b600063ffffffff83811690831681811015612be957612be9612900565b039392505050565b600063ffffffff808316818516808303821115612a3357612a33612900565b60008160030b7fffffffffffffffffffffffffffffffffffffffffffffffffffffffff80000000811415612c4657612c46612900565b60000392915050565b6000808212827f7fffffffffffffffffffffffffffffffffffffffffffffffffffffffffffffff03841381151615612c8957612c89612900565b827f8000000000000000000000000000000000000000000000000000000000000000038412811615612cbd57612cbd612900565b50500190565b600063ffffffff80841680612cda57612cda612a53565b92169190910692915050565b600060ff831680612cf957612cf9612a53565b8060ff84160491505092915050565b600060ff831680612d1b57612d1b612a53565b8060ff84160691505092915050565b600082612d3957612d39612a53565b500690565b600060ff821660ff84168160ff0481118215151615612d5f57612d5f612900565b029392505050565b600060ff821660ff84168060ff03821115612d8457612d84612900565b01939250505056fea2646970667358221220d20ce1e2f1b189c57d4ead184ec90ef04b661733b6529176345aed0189694e3264736f6c63430008090033",
  "devdoc": {
    "kind": "dev",
    "methods": {},
    "version": 1
  },
  "userdoc": {
    "kind": "user",
    "methods": {},
    "version": 1
  },
  "storageLayout": {
    "storage": [
      {
        "astId": 16858,
        "contract": "src/outerspace/facets/OuterSpaceStakingFacet.sol:OuterSpaceStakingFacet",
        "label": "_planets",
        "offset": 0,
        "slot": "0",
        "type": "t_mapping(t_uint256,t_struct(Planet)23373_storage)"
      },
      {
        "astId": 16863,
        "contract": "src/outerspace/facets/OuterSpaceStakingFacet.sol:OuterSpaceStakingFacet",
        "label": "_fleets",
        "offset": 0,
        "slot": "1",
        "type": "t_mapping(t_uint256,t_struct(Fleet)23380_storage)"
      },
      {
        "astId": 16867,
        "contract": "src/outerspace/facets/OuterSpaceStakingFacet.sol:OuterSpaceStakingFacet",
        "label": "_stakeReadyToBeWithdrawn",
        "offset": 0,
        "slot": "2",
        "type": "t_mapping(t_address,t_uint256)"
      },
      {
        "astId": 16873,
        "contract": "src/outerspace/facets/OuterSpaceStakingFacet.sol:OuterSpaceStakingFacet",
        "label": "_operators",
        "offset": 0,
        "slot": "3",
        "type": "t_mapping(t_address,t_mapping(t_address,t_bool))"
      },
      {
        "astId": 16880,
        "contract": "src/outerspace/facets/OuterSpaceStakingFacet.sol:OuterSpaceStakingFacet",
        "label": "_inFlight",
        "offset": 0,
        "slot": "4",
        "type": "t_mapping(t_uint256,t_mapping(t_uint256,t_struct(InFlight)23349_storage))"
      },
      {
        "astId": 16883,
        "contract": "src/outerspace/facets/OuterSpaceStakingFacet.sol:OuterSpaceStakingFacet",
        "label": "_discovered",
        "offset": 0,
        "slot": "5",
        "type": "t_struct(Discovered)23358_storage"
      },
      {
        "astId": 16887,
        "contract": "src/outerspace/facets/OuterSpaceStakingFacet.sol:OuterSpaceStakingFacet",
        "label": "_prevRewardIds",
        "offset": 0,
        "slot": "6",
        "type": "t_mapping(t_address,t_uint256)"
      },
      {
        "astId": 16891,
        "contract": "src/outerspace/facets/OuterSpaceStakingFacet.sol:OuterSpaceStakingFacet",
        "label": "_rewards",
        "offset": 0,
        "slot": "7",
        "type": "t_mapping(t_uint256,t_uint256)"
      },
      {
        "astId": 16897,
        "contract": "src/outerspace/facets/OuterSpaceStakingFacet.sol:OuterSpaceStakingFacet",
        "label": "_rewardsToWithdraw",
        "offset": 0,
        "slot": "8",
        "type": "t_mapping(t_address,t_mapping(t_uint256,t_bool))"
      },
      {
        "astId": 16906,
        "contract": "src/outerspace/facets/OuterSpaceStakingFacet.sol:OuterSpaceStakingFacet",
        "label": "_attacks",
        "offset": 0,
        "slot": "9",
        "type": "t_mapping(t_uint256,t_mapping(t_address,t_mapping(t_uint256,t_struct(AccumulatedAttack)23453_storage)))"
      }
    ],
    "types": {
      "t_address": {
        "encoding": "inplace",
        "label": "address",
        "numberOfBytes": "20"
      },
      "t_bool": {
        "encoding": "inplace",
        "label": "bool",
        "numberOfBytes": "1"
      },
      "t_int40": {
        "encoding": "inplace",
        "label": "int40",
        "numberOfBytes": "5"
      },
      "t_mapping(t_address,t_bool)": {
        "encoding": "mapping",
        "key": "t_address",
        "label": "mapping(address => bool)",
        "numberOfBytes": "32",
        "value": "t_bool"
      },
      "t_mapping(t_address,t_mapping(t_address,t_bool))": {
        "encoding": "mapping",
        "key": "t_address",
        "label": "mapping(address => mapping(address => bool))",
        "numberOfBytes": "32",
        "value": "t_mapping(t_address,t_bool)"
      },
      "t_mapping(t_address,t_mapping(t_uint256,t_bool))": {
        "encoding": "mapping",
        "key": "t_address",
        "label": "mapping(address => mapping(uint256 => bool))",
        "numberOfBytes": "32",
        "value": "t_mapping(t_uint256,t_bool)"
      },
      "t_mapping(t_address,t_mapping(t_uint256,t_struct(AccumulatedAttack)23453_storage))": {
        "encoding": "mapping",
        "key": "t_address",
        "label": "mapping(address => mapping(uint256 => struct ImportingOuterSpaceTypes.AccumulatedAttack))",
        "numberOfBytes": "32",
        "value": "t_mapping(t_uint256,t_struct(AccumulatedAttack)23453_storage)"
      },
      "t_mapping(t_address,t_uint256)": {
        "encoding": "mapping",
        "key": "t_address",
        "label": "mapping(address => uint256)",
        "numberOfBytes": "32",
        "value": "t_uint256"
      },
      "t_mapping(t_uint256,t_bool)": {
        "encoding": "mapping",
        "key": "t_uint256",
        "label": "mapping(uint256 => bool)",
        "numberOfBytes": "32",
        "value": "t_bool"
      },
      "t_mapping(t_uint256,t_mapping(t_address,t_mapping(t_uint256,t_struct(AccumulatedAttack)23453_storage)))": {
        "encoding": "mapping",
        "key": "t_uint256",
        "label": "mapping(uint256 => mapping(address => mapping(uint256 => struct ImportingOuterSpaceTypes.AccumulatedAttack)))",
        "numberOfBytes": "32",
        "value": "t_mapping(t_address,t_mapping(t_uint256,t_struct(AccumulatedAttack)23453_storage))"
      },
      "t_mapping(t_uint256,t_mapping(t_uint256,t_struct(InFlight)23349_storage))": {
        "encoding": "mapping",
        "key": "t_uint256",
        "label": "mapping(uint256 => mapping(uint256 => struct ImportingOuterSpaceTypes.InFlight))",
        "numberOfBytes": "32",
        "value": "t_mapping(t_uint256,t_struct(InFlight)23349_storage)"
      },
      "t_mapping(t_uint256,t_struct(AccumulatedAttack)23453_storage)": {
        "encoding": "mapping",
        "key": "t_uint256",
        "label": "mapping(uint256 => struct ImportingOuterSpaceTypes.AccumulatedAttack)",
        "numberOfBytes": "32",
        "value": "t_struct(AccumulatedAttack)23453_storage"
      },
      "t_mapping(t_uint256,t_struct(Fleet)23380_storage)": {
        "encoding": "mapping",
        "key": "t_uint256",
        "label": "mapping(uint256 => struct ImportingOuterSpaceTypes.Fleet)",
        "numberOfBytes": "32",
        "value": "t_struct(Fleet)23380_storage"
      },
      "t_mapping(t_uint256,t_struct(InFlight)23349_storage)": {
        "encoding": "mapping",
        "key": "t_uint256",
        "label": "mapping(uint256 => struct ImportingOuterSpaceTypes.InFlight)",
        "numberOfBytes": "32",
        "value": "t_struct(InFlight)23349_storage"
      },
      "t_mapping(t_uint256,t_struct(Planet)23373_storage)": {
        "encoding": "mapping",
        "key": "t_uint256",
        "label": "mapping(uint256 => struct ImportingOuterSpaceTypes.Planet)",
        "numberOfBytes": "32",
        "value": "t_struct(Planet)23373_storage"
      },
      "t_mapping(t_uint256,t_uint256)": {
        "encoding": "mapping",
        "key": "t_uint256",
        "label": "mapping(uint256 => uint256)",
        "numberOfBytes": "32",
        "value": "t_uint256"
      },
      "t_struct(AccumulatedAttack)23453_storage": {
        "encoding": "inplace",
        "label": "struct ImportingOuterSpaceTypes.AccumulatedAttack",
        "members": [
          {
            "astId": 23446,
            "contract": "src/outerspace/facets/OuterSpaceStakingFacet.sol:OuterSpaceStakingFacet",
            "label": "target",
            "offset": 0,
            "slot": "0",
            "type": "t_address"
          },
          {
            "astId": 23448,
            "contract": "src/outerspace/facets/OuterSpaceStakingFacet.sol:OuterSpaceStakingFacet",
            "label": "numAttackSpent",
            "offset": 20,
            "slot": "0",
            "type": "t_uint32"
          },
          {
            "astId": 23450,
            "contract": "src/outerspace/facets/OuterSpaceStakingFacet.sol:OuterSpaceStakingFacet",
            "label": "damageCausedSoFar",
            "offset": 24,
            "slot": "0",
            "type": "t_uint32"
          },
          {
            "astId": 23452,
            "contract": "src/outerspace/facets/OuterSpaceStakingFacet.sol:OuterSpaceStakingFacet",
            "label": "averageAttackPower",
            "offset": 28,
            "slot": "0",
            "type": "t_uint16"
          }
        ],
        "numberOfBytes": "32"
      },
      "t_struct(Discovered)23358_storage": {
        "encoding": "inplace",
        "label": "struct ImportingOuterSpaceTypes.Discovered",
        "members": [
          {
            "astId": 23351,
            "contract": "src/outerspace/facets/OuterSpaceStakingFacet.sol:OuterSpaceStakingFacet",
            "label": "minX",
            "offset": 0,
            "slot": "0",
            "type": "t_uint32"
          },
          {
            "astId": 23353,
            "contract": "src/outerspace/facets/OuterSpaceStakingFacet.sol:OuterSpaceStakingFacet",
            "label": "maxX",
            "offset": 4,
            "slot": "0",
            "type": "t_uint32"
          },
          {
            "astId": 23355,
            "contract": "src/outerspace/facets/OuterSpaceStakingFacet.sol:OuterSpaceStakingFacet",
            "label": "minY",
            "offset": 8,
            "slot": "0",
            "type": "t_uint32"
          },
          {
            "astId": 23357,
            "contract": "src/outerspace/facets/OuterSpaceStakingFacet.sol:OuterSpaceStakingFacet",
            "label": "maxY",
            "offset": 12,
            "slot": "0",
            "type": "t_uint32"
          }
        ],
        "numberOfBytes": "32"
      },
      "t_struct(Fleet)23380_storage": {
        "encoding": "inplace",
        "label": "struct ImportingOuterSpaceTypes.Fleet",
        "members": [
          {
            "astId": 23375,
            "contract": "src/outerspace/facets/OuterSpaceStakingFacet.sol:OuterSpaceStakingFacet",
            "label": "owner",
            "offset": 0,
            "slot": "0",
            "type": "t_address"
          },
          {
            "astId": 23377,
            "contract": "src/outerspace/facets/OuterSpaceStakingFacet.sol:OuterSpaceStakingFacet",
            "label": "launchTime",
            "offset": 20,
            "slot": "0",
            "type": "t_uint40"
          },
          {
            "astId": 23379,
            "contract": "src/outerspace/facets/OuterSpaceStakingFacet.sol:OuterSpaceStakingFacet",
            "label": "quantity",
            "offset": 25,
            "slot": "0",
            "type": "t_uint32"
          }
        ],
        "numberOfBytes": "32"
      },
      "t_struct(InFlight)23349_storage": {
        "encoding": "inplace",
        "label": "struct ImportingOuterSpaceTypes.InFlight",
        "members": [
          {
            "astId": 23346,
            "contract": "src/outerspace/facets/OuterSpaceStakingFacet.sol:OuterSpaceStakingFacet",
            "label": "flying",
            "offset": 0,
            "slot": "0",
            "type": "t_uint32"
          },
          {
            "astId": 23348,
            "contract": "src/outerspace/facets/OuterSpaceStakingFacet.sol:OuterSpaceStakingFacet",
            "label": "destroyed",
            "offset": 4,
            "slot": "0",
            "type": "t_uint32"
          }
        ],
        "numberOfBytes": "32"
      },
      "t_struct(Planet)23373_storage": {
        "encoding": "inplace",
        "label": "struct ImportingOuterSpaceTypes.Planet",
        "members": [
          {
            "astId": 23360,
            "contract": "src/outerspace/facets/OuterSpaceStakingFacet.sol:OuterSpaceStakingFacet",
            "label": "owner",
            "offset": 0,
            "slot": "0",
            "type": "t_address"
          },
          {
            "astId": 23362,
            "contract": "src/outerspace/facets/OuterSpaceStakingFacet.sol:OuterSpaceStakingFacet",
            "label": "ownershipStartTime",
            "offset": 20,
            "slot": "0",
            "type": "t_uint40"
          },
          {
            "astId": 23364,
            "contract": "src/outerspace/facets/OuterSpaceStakingFacet.sol:OuterSpaceStakingFacet",
            "label": "exitStartTime",
            "offset": 25,
            "slot": "0",
            "type": "t_uint40"
          },
          {
            "astId": 23366,
            "contract": "src/outerspace/facets/OuterSpaceStakingFacet.sol:OuterSpaceStakingFacet",
            "label": "numSpaceships",
            "offset": 0,
            "slot": "1",
            "type": "t_uint32"
          },
          {
            "astId": 23368,
            "contract": "src/outerspace/facets/OuterSpaceStakingFacet.sol:OuterSpaceStakingFacet",
            "label": "lastUpdated",
            "offset": 4,
            "slot": "1",
            "type": "t_uint40"
          },
          {
            "astId": 23370,
            "contract": "src/outerspace/facets/OuterSpaceStakingFacet.sol:OuterSpaceStakingFacet",
            "label": "travelingUpkeep",
            "offset": 9,
            "slot": "1",
            "type": "t_int40"
          },
          {
            "astId": 23372,
            "contract": "src/outerspace/facets/OuterSpaceStakingFacet.sol:OuterSpaceStakingFacet",
            "label": "overflow",
            "offset": 14,
            "slot": "1",
            "type": "t_uint32"
          }
        ],
        "numberOfBytes": "64"
      },
      "t_uint16": {
        "encoding": "inplace",
        "label": "uint16",
        "numberOfBytes": "2"
      },
      "t_uint256": {
        "encoding": "inplace",
        "label": "uint256",
        "numberOfBytes": "32"
      },
      "t_uint32": {
        "encoding": "inplace",
        "label": "uint32",
        "numberOfBytes": "4"
      },
      "t_uint40": {
        "encoding": "inplace",
        "label": "uint40",
        "numberOfBytes": "5"
      }
    }
  }
}