{
  "address": "0x894E6A76b351975f3c10dF7FbFcd735c9A3BB05E",
  "abi": [
    {
      "inputs": [
        {
          "components": [
            {
              "internalType": "contract IERC20",
              "name": "stakingToken",
              "type": "address"
            },
            {
              "internalType": "contract AllianceRegistry",
              "name": "allianceRegistry",
              "type": "address"
            },
            {
              "internalType": "bytes32",
              "name": "genesis",
              "type": "bytes32"
            },
            {
              "internalType": "uint256",
              "name": "resolveWindow",
              "type": "uint256"
            },
            {
              "internalType": "uint256",
              "name": "timePerDistance",
              "type": "uint256"
            },
            {
              "internalType": "uint256",
              "name": "exitDuration",
              "type": "uint256"
            },
            {
              "internalType": "uint32",
              "name": "acquireNumSpaceships",
              "type": "uint32"
            },
            {
              "internalType": "uint32",
              "name": "productionSpeedUp",
              "type": "uint32"
            },
            {
              "internalType": "uint256",
              "name": "frontrunningDelay",
              "type": "uint256"
            },
            {
              "internalType": "uint256",
              "name": "productionCapAsDuration",
              "type": "uint256"
            },
            {
              "internalType": "uint256",
              "name": "upkeepProductionDecreaseRatePer10000th",
              "type": "uint256"
            },
            {
              "internalType": "uint256",
              "name": "fleetSizeFactor6",
              "type": "uint256"
            }
          ],
          "internalType": "struct OuterSpaceFacetBase.Config",
          "name": "config",
          "type": "tuple"
        }
      ],
      "stateMutability": "nonpayable",
      "type": "constructor"
    },
    {
      "anonymous": false,
      "inputs": [
        {
          "indexed": true,
          "internalType": "address",
          "name": "owner",
          "type": "address"
        },
        {
          "indexed": true,
          "internalType": "address",
          "name": "operator",
          "type": "address"
        },
        {
          "indexed": false,
          "internalType": "bool",
          "name": "approved",
          "type": "bool"
        }
      ],
      "name": "ApprovalForAll",
      "type": "event"
    },
    {
      "anonymous": false,
      "inputs": [
        {
          "indexed": true,
          "internalType": "address",
          "name": "owner",
          "type": "address"
        },
        {
          "indexed": true,
          "internalType": "uint256",
          "name": "location",
          "type": "uint256"
        },
        {
          "indexed": false,
          "internalType": "uint256",
          "name": "stake",
          "type": "uint256"
        }
      ],
      "name": "ExitComplete",
      "type": "event"
    },
    {
      "anonymous": false,
      "inputs": [
        {
          "indexed": true,
          "internalType": "uint256",
          "name": "fleet",
          "type": "uint256"
        },
        {
          "indexed": true,
          "internalType": "address",
          "name": "fleetOwner",
          "type": "address"
        },
        {
          "indexed": true,
          "internalType": "address",
          "name": "destinationOwner",
          "type": "address"
        },
        {
          "indexed": false,
          "internalType": "uint256",
          "name": "destination",
          "type": "uint256"
        },
        {
          "indexed": false,
          "internalType": "bool",
          "name": "gift",
          "type": "bool"
        },
        {
          "indexed": false,
          "internalType": "uint32",
          "name": "fleetLoss",
          "type": "uint32"
        },
        {
          "indexed": false,
          "internalType": "uint32",
          "name": "planetLoss",
          "type": "uint32"
        },
        {
          "indexed": false,
          "internalType": "uint32",
          "name": "inFlightFleetLoss",
          "type": "uint32"
        },
        {
          "indexed": false,
          "internalType": "uint32",
          "name": "inFlightPlanetLoss",
          "type": "uint32"
        },
        {
          "indexed": false,
          "internalType": "bool",
          "name": "won",
          "type": "bool"
        },
        {
          "indexed": false,
          "internalType": "uint32",
          "name": "newNumspaceships",
          "type": "uint32"
        },
        {
          "indexed": false,
          "internalType": "int40",
          "name": "newTravelingUpkeep",
          "type": "int40"
        },
        {
          "indexed": false,
          "internalType": "uint32",
          "name": "newOverflow",
          "type": "uint32"
        },
        {
          "indexed": false,
          "internalType": "uint32",
          "name": "accumulatedDefenseAdded",
          "type": "uint32"
        },
        {
          "indexed": false,
          "internalType": "uint32",
          "name": "accumulatedAttackAdded",
          "type": "uint32"
        }
      ],
      "name": "FleetArrived",
      "type": "event"
    },
    {
      "anonymous": false,
      "inputs": [
        {
          "indexed": true,
          "internalType": "address",
          "name": "fleetSender",
          "type": "address"
        },
        {
          "indexed": true,
          "internalType": "address",
          "name": "fleetOwner",
          "type": "address"
        },
        {
          "indexed": true,
          "internalType": "uint256",
          "name": "from",
          "type": "uint256"
        },
        {
          "indexed": false,
          "internalType": "address",
          "name": "operator",
          "type": "address"
        },
        {
          "indexed": false,
          "internalType": "uint256",
          "name": "fleet",
          "type": "uint256"
        },
        {
          "indexed": false,
          "internalType": "uint32",
          "name": "quantity",
          "type": "uint32"
        },
        {
          "indexed": false,
          "internalType": "uint32",
          "name": "newNumSpaceships",
          "type": "uint32"
        },
        {
          "indexed": false,
          "internalType": "int40",
          "name": "newTravelingUpkeep",
          "type": "int40"
        },
        {
          "indexed": false,
          "internalType": "uint32",
          "name": "newOverflow",
          "type": "uint32"
        }
      ],
      "name": "FleetSent",
      "type": "event"
    },
    {
      "anonymous": false,
      "inputs": [
        {
          "indexed": false,
          "internalType": "uint32",
          "name": "minX",
          "type": "uint32"
        },
        {
          "indexed": false,
          "internalType": "uint32",
          "name": "maxX",
          "type": "uint32"
        },
        {
          "indexed": false,
          "internalType": "uint32",
          "name": "minY",
          "type": "uint32"
        },
        {
          "indexed": false,
          "internalType": "uint32",
          "name": "maxY",
          "type": "uint32"
        },
        {
          "indexed": false,
          "internalType": "bytes32",
          "name": "genesis",
          "type": "bytes32"
        }
      ],
      "name": "Initialized",
      "type": "event"
    },
    {
      "anonymous": false,
      "inputs": [
        {
          "indexed": true,
          "internalType": "address",
          "name": "owner",
          "type": "address"
        },
        {
          "indexed": true,
          "internalType": "uint256",
          "name": "location",
          "type": "uint256"
        }
      ],
      "name": "PlanetExit",
      "type": "event"
    },
    {
      "anonymous": false,
      "inputs": [
        {
          "indexed": true,
          "internalType": "uint256",
          "name": "location",
          "type": "uint256"
        }
      ],
      "name": "PlanetReset",
      "type": "event"
    },
    {
      "anonymous": false,
      "inputs": [
        {
          "indexed": true,
          "internalType": "address",
          "name": "acquirer",
          "type": "address"
        },
        {
          "indexed": true,
          "internalType": "uint256",
          "name": "location",
          "type": "uint256"
        },
        {
          "indexed": false,
          "internalType": "uint32",
          "name": "numSpaceships",
          "type": "uint32"
        },
        {
          "indexed": false,
          "internalType": "int40",
          "name": "travelingUpkeep",
          "type": "int40"
        },
        {
          "indexed": false,
          "internalType": "uint32",
          "name": "overflow",
          "type": "uint32"
        },
        {
          "indexed": false,
          "internalType": "uint256",
          "name": "stake",
          "type": "uint256"
        }
      ],
      "name": "PlanetStake",
      "type": "event"
    },
    {
      "anonymous": false,
      "inputs": [
        {
          "indexed": true,
          "internalType": "uint256",
          "name": "location",
          "type": "uint256"
        },
        {
          "indexed": true,
          "internalType": "address",
          "name": "giver",
          "type": "address"
        },
        {
          "indexed": false,
          "internalType": "uint256",
          "name": "rewardId",
          "type": "uint256"
        }
      ],
      "name": "RewardSetup",
      "type": "event"
    },
    {
      "anonymous": false,
      "inputs": [
        {
          "indexed": true,
          "internalType": "address",
          "name": "owner",
          "type": "address"
        },
        {
          "indexed": true,
          "internalType": "uint256",
          "name": "location",
          "type": "uint256"
        },
        {
          "indexed": true,
          "internalType": "uint256",
          "name": "rewardId",
          "type": "uint256"
        }
      ],
      "name": "RewardToWithdraw",
      "type": "event"
    },
    {
      "anonymous": false,
      "inputs": [
        {
          "indexed": true,
          "internalType": "address",
          "name": "owner",
          "type": "address"
        },
        {
          "indexed": false,
          "internalType": "uint256",
          "name": "newStake",
          "type": "uint256"
        }
      ],
      "name": "StakeToWithdraw",
      "type": "event"
    },
    {
      "anonymous": false,
      "inputs": [
        {
          "indexed": true,
          "internalType": "address",
          "name": "from",
          "type": "address"
        },
        {
          "indexed": true,
          "internalType": "address",
          "name": "to",
          "type": "address"
        },
        {
          "indexed": true,
          "internalType": "uint256",
          "name": "location",
          "type": "uint256"
        }
      ],
      "name": "Transfer",
      "type": "event"
    },
    {
      "anonymous": false,
      "inputs": [
        {
          "indexed": true,
          "internalType": "uint256",
          "name": "origin",
          "type": "uint256"
        },
        {
          "indexed": true,
          "internalType": "uint256",
          "name": "fleet",
          "type": "uint256"
        },
        {
          "indexed": false,
          "internalType": "uint32",
          "name": "newNumspaceships",
          "type": "uint32"
        },
        {
          "indexed": false,
          "internalType": "int40",
          "name": "newTravelingUpkeep",
          "type": "int40"
        },
        {
          "indexed": false,
          "internalType": "uint32",
          "name": "newOverflow",
          "type": "uint32"
        }
      ],
      "name": "TravelingUpkeepReductionFromDestruction",
      "type": "event"
    },
    {
      "inputs": [
        {
          "internalType": "uint256",
          "name": "location",
          "type": "uint256"
        },
        {
          "internalType": "uint256",
          "name": "amount",
          "type": "uint256"
        }
      ],
      "name": "acquireViaTransferFrom",
      "outputs": [],
      "stateMutability": "nonpayable",
      "type": "function"
    },
    {
      "inputs": [
        {
          "internalType": "address",
          "name": "owner",
          "type": "address"
        }
      ],
      "name": "balanceToWithdraw",
      "outputs": [
        {
          "internalType": "uint256",
          "name": "",
          "type": "uint256"
        }
      ],
      "stateMutability": "view",
      "type": "function"
    },
    {
      "inputs": [
        {
          "internalType": "address",
          "name": "owner",
          "type": "address"
        },
        {
          "internalType": "uint256",
          "name": "location",
          "type": "uint256"
        }
      ],
      "name": "exitFor",
      "outputs": [],
      "stateMutability": "nonpayable",
      "type": "function"
    },
    {
      "inputs": [
        {
          "internalType": "address",
          "name": "owner",
          "type": "address"
        },
        {
          "internalType": "uint256[]",
          "name": "locations",
          "type": "uint256[]"
        }
      ],
      "name": "fetchAndWithdrawFor",
      "outputs": [],
      "stateMutability": "nonpayable",
      "type": "function"
    },
    {
      "inputs": [
        {
          "internalType": "address",
          "name": "",
          "type": "address"
        },
        {
          "internalType": "address",
          "name": "forAddress",
          "type": "address"
        },
        {
          "internalType": "uint256",
          "name": "amount",
          "type": "uint256"
        },
        {
          "internalType": "bytes",
          "name": "data",
          "type": "bytes"
        }
      ],
      "name": "onTokenPaidFor",
      "outputs": [
        {
          "internalType": "bool",
          "name": "",
          "type": "bool"
        }
      ],
      "stateMutability": "nonpayable",
      "type": "function"
    },
    {
      "inputs": [
        {
          "internalType": "address",
          "name": "",
          "type": "address"
        },
        {
          "internalType": "uint256",
          "name": "amount",
          "type": "uint256"
        },
        {
          "internalType": "bytes",
          "name": "data",
          "type": "bytes"
        }
      ],
      "name": "onTokenTransfer",
      "outputs": [
        {
          "internalType": "bool",
          "name": "",
          "type": "bool"
        }
      ],
      "stateMutability": "nonpayable",
      "type": "function"
    },
    {
      "inputs": [
        {
          "internalType": "address",
          "name": "owner",
          "type": "address"
        }
      ],
      "name": "withdrawFor",
      "outputs": [],
      "stateMutability": "nonpayable",
      "type": "function"
    }
  ],
  "transactionHash": "0x15495dcf59576cec82bc0559f851f84f137066d15a0d9226e0b5353f873f8246",
  "args": [
    {
      "stakingToken": "0x1501c5E8Ee6cacE2a72844fE915F469db5667a38",
      "allianceRegistry": "0x62aa7B084801BFD8F2B32480C80e321290E79A47",
      "genesis": "0xee563ebbe85edccc120c5082a5066539b0e9b7958b5fbac114523a95a8162667",
      "resolveWindow": 1728,
      "timePerDistance": 288,
      "exitDuration": 10368,
      "acquireNumSpaceships": 100000,
      "productionSpeedUp": 25,
      "frontrunningDelay": 72,
      "productionCapAsDuration": 259200,
      "upkeepProductionDecreaseRatePer10000th": 5000,
      "fleetSizeFactor6": 500000
    }
  ],
  "numDeployments": 1,
  "linkedData": {
    "genesisHash": "0xee563ebbe85edccc120c5082a5066539b0e9b7958b5fbac114523a95a8162667",
    "resolveWindow": 1728,
    "timePerDistance": 288,
    "exitDuration": 10368,
    "acquireNumSpaceships": 100000,
    "productionSpeedUp": 25,
    "chainGenesisHash": "",
    "frontrunningDelay": 72,
    "productionCapAsDuration": 259200,
    "upkeepProductionDecreaseRatePer10000th": 5000,
    "fleetSizeFactor6": 500000
  },
  "solcInputHash": "54031a5456ab27c09a0d821c4b18f56f",
  "bytecode": "0x6102006040523480156200001257600080fd5b506040516200303c3803806200303c8339810160408190526200003591620001a6565b806000600482608001516200004b919062000267565b60808301519091506200006082600462000299565b63ffffffff1614620000b85760405162461bcd60e51b815260206004820152601d60248201527f54494d455f5045525f444953545f4e4f545f444956495349424c455f34000000604482015260640160405180910390fd5b81516001600160a01b0390811660805260208301511660a0908152604083015160c0908152606084015160e090815263ffffffff938416610100908152928501516101209081529185015184166101409081529085015190931661016090815291840151610180528301516101a052908201516101c05201516101e05250620002d4565b60405161018081016001600160401b03811182821017156200016e57634e487b7160e01b600052604160045260246000fd5b60405290565b80516001600160a01b03811681146200018c57600080fd5b919050565b805163ffffffff811681146200018c57600080fd5b60006101808284031215620001ba57600080fd5b620001c46200013c565b620001cf8362000174565b8152620001df6020840162000174565b602082015260408301516040820152606083015160608201526080830151608082015260a083015160a08201526200021a60c0840162000191565b60c08201526200022d60e0840162000191565b60e0820152610100838101519082015261012080840151908201526101408084015190820152610160928301519281019290925250919050565b600063ffffffff808416806200028d57634e487b7160e01b600052601260045260246000fd5b92169190910492915050565b600063ffffffff80831681851681830481118215151615620002cb57634e487b7160e01b600052601160045260246000fd5b02949350505050565b60805160a05160c05160e05161010051610120516101405161016051610180516101a0516101c0516101e051612c72620003ca600039600081816122490152818161227c015281816122fd015261233001526000610fb70152600081816110310152818161105f015281816114b501526116a701526000505060008181610f5a015261127f01526000818161109d015281816114f30152818161154a015281816115950152818161162e015261166c01526000611e280152600050506000505060008181610b820152610d9d015260005050600081816101ad015281816102490152818161034b01526106da0152612c726000f3fe608060405234801561001057600080fd5b506004361061007d5760003560e01c8063a4c0ed361161005b578063a4c0ed36146100d2578063afc82370146100e5578063c9560838146100f8578063e2e9b0791461013c57600080fd5b80637ba423fb146100825780639b6be065146100975780639eca672c146100bf575b600080fd5b610095610090366004612545565b61014f565b005b6100aa6100a53660046125d5565b61022f565b60405190151581526020015b60405180910390f35b6100956100cd366004612648565b6102fd565b6100aa6100e0366004612665565b610331565b6100956100f33660046126c1565b6103f0565b61012e610106366004612648565b73ffffffffffffffffffffffffffffffffffffffff1660009081526002602052604090205490565b6040519081526020016100b6565b61009561014a3660046126ed565b6103fa565b3361015b81838561040a565b6040517f23b872dd00000000000000000000000000000000000000000000000000000000815273ffffffffffffffffffffffffffffffffffffffff8281166004830152306024830152604482018490527f000000000000000000000000000000000000000000000000000000000000000016906323b872dd90606401602060405180830381600087803b1580156101f157600080fd5b505af1158015610205573d6000803e3d6000fd5b505050506040513d601f19601f820116820180604052508101906102299190612775565b50505050565b60003373ffffffffffffffffffffffffffffffffffffffff7f000000000000000000000000000000000000000000000000000000000000000016146102d5576040517f08c379a000000000000000000000000000000000000000000000000000000000815260206004820152600d60248201527f494e56414c49445f45524332300000000000000000000000000000000000000060448201526064015b60405180910390fd5b60006102e383850185612797565b90506102f086868361040a565b5060019695505050505050565b73ffffffffffffffffffffffffffffffffffffffff811660009081526002602052604090205461032d828261062c565b5050565b60003373ffffffffffffffffffffffffffffffffffffffff7f000000000000000000000000000000000000000000000000000000000000000016146103d2576040517f08c379a000000000000000000000000000000000000000000000000000000000815260206004820152600d60248201527f494e56414c49445f45524332300000000000000000000000000000000000000060448201526064016102cc565b6000806103e1848601866126c1565b915091506102f082878361040a565b61032d8282610811565b6104058383836109c2565b505050565b60008181526020819052604081206040805160e081018252825473ffffffffffffffffffffffffffffffffffffffff8116825264ffffffffff74010000000000000000000000000000000000000000820481166020840152790100000000000000000000000000000000000000000000000000909104811692820192909252600183015463ffffffff8082166060840152640100000000820490931660808301526901000000000000000000810460040b60a08301526e010000000000000000000000000000900490911660c08201529091506000906104ea9084610c99565b9050670de0b6b3a7640000610503826101400151610df9565b61ffff1661051191906127df565b8414610579576040517f08c379a000000000000000000000000000000000000000000000000000000000815260206004820152600e60248201527f494e56414c49445f414d4f554e5400000000000000000000000000000000000060448201526064016102cc565b61058281610ed0565b61058c8582611352565b610596828261172d565b61059f836119b8565b828573ffffffffffffffffffffffffffffffffffffffff167f7bcb9b822a2e2cb38b8774da0bc62c6f1b2a9272d62f18009122bd6fad8523f9836060015184608001518560e001518960405161061d949392919063ffffffff948516815260049390930b602084015292166040820152606081019190915260800190565b60405180910390a35050505050565b73ffffffffffffffffffffffffffffffffffffffff821660008181526002602052604080822091909155517f4d135695228631e73b5a31e6fc8af4e5825cde63774c3c48695b4af814d7b019906106869084815260200190565b60405180910390a26040517fa9059cbb00000000000000000000000000000000000000000000000000000000815273ffffffffffffffffffffffffffffffffffffffff8381166004830152602482018390527f0000000000000000000000000000000000000000000000000000000000000000169063a9059cbb90604401602060405180830381600087803b15801561071e57600080fd5b505af1158015610732573d6000803e3d6000fd5b505050506040513d601f19601f820116820180604052508101906107569190612775565b6107bc576040517f08c379a000000000000000000000000000000000000000000000000000000000815260206004820152600f60248201527f4641494c45445f5452414e53464552000000000000000000000000000000000060448201526064016102cc565b8173ffffffffffffffffffffffffffffffffffffffff167f4d135695228631e73b5a31e6fc8af4e5825cde63774c3c48695b4af814d7b019600060405161080591815260200190565b60405180910390a25050565b6000818152602081905260409020805473ffffffffffffffffffffffffffffffffffffffff8481169116146108a2576040517f08c379a000000000000000000000000000000000000000000000000000000000815260206004820152600960248201527f4e4f545f4f574e4552000000000000000000000000000000000000000000000060448201526064016102cc565b8054790100000000000000000000000000000000000000000000000000900464ffffffffff161561092f576040517f08c379a000000000000000000000000000000000000000000000000000000000815260206004820152600f60248201527f45584954494e475f414c5245414459000000000000000000000000000000000060448201526064016102cc565b80547fffff0000000000ffffffffffffffffffffffffffffffffffffffffffffffffff167901000000000000000000000000000000000000000000000000004264ffffffffff1602178155604051829073ffffffffffffffffffffffffffffffffffffffff8516907fb9182e4e152947f1e6691fa0ee6f68f21f607fed825945c270e69995acad805f90600090a3505050565b6000805b82811015610c545760006109fd8585848181106109e5576109e561281c565b90506020020135600090815260208190526040902090565b8054909150610a2f90790100000000000000000000000000000000000000000000000000900464ffffffffff16611e10565b15610c4157805473ffffffffffffffffffffffffffffffffffffffff878116911614610ab7576040517f08c379a000000000000000000000000000000000000000000000000000000000815260206004820152600960248201527f4e4f545f4f574e4552000000000000000000000000000000000000000000000060448201526064016102cc565b848483818110610ac957610ac961281c565b90506020020135600073ffffffffffffffffffffffffffffffffffffffff168773ffffffffffffffffffffffffffffffffffffffff167fddf252ad1be2c89b69c2b068fc378daa952ba7f163c4a11628f55a4df523b3ef60405160405180910390a48054610bd49073ffffffffffffffffffffffffffffffffffffffff16868685818110610b5957610b5961281c565b90506020020135610bcf888887818110610b7557610b7561281c565b90506020020135604080517f00000000000000000000000000000000000000000000000000000000000000006020820152908101829052600090606001604051602081830303815290604052805190602001209050919050565b611e5d565b610bde908461284b565b81547fffff0000000000000000000000000000000000000000000000000000000000001682556001820180547fffffffffffffffffffffffffffff0000000000000000000000000000000000001664010000000064ffffffffff42160217905592505b5080610c4c81612863565b9150506109c6565b5073ffffffffffffffffffffffffffffffffffffffff8416600090815260026020526040812054610c8690839061284b565b9050610c92858261062c565b5050505050565b6040805161016081018252600080825260208201819052918101829052606081018290526080810182905260a0810182905260c0810182905260e0810182905261010081018290526101208101829052610140810191909152600080610d028560600151611f82565b85855260808088015164ffffffffff908116602088015283151560408089019190915263ffffffff80851660608a015260a0808c015160040b948a0194909452908a01805183169389019390935291511660c0808801919091528801511660e0860152865173ffffffffffffffffffffffffffffffffffffffff9081166101008701528751166101208601529092509050610dea84604080517f00000000000000000000000000000000000000000000000000000000000000006020820152908101829052600090606001604051602081830303815290604052805190602001209050919050565b61014084015250909392505050565b6000610e0482611fa1565b610e6a576040517f08c379a000000000000000000000000000000000000000000000000000000000815260206004820152601160248201527f504c414e45545f4e4f545f45584953545300000000000000000000000000000060448201526064016102cc565b6000610e7783600c611fbd565b905060ff81167e060008000a000c000e00100012001400140016001800200028003000380048610ea882600261289c565b610eb39060016128c6565b61ffff1660208110610ec757610ec761281c565b1a949350505050565b60a081015164ffffffffff1615610f2157610eee8160a00151611e10565b15610f2157600060c082018190526060820181905260808201819052610120820181905260e08201819052604090910152565b6000816020015164ffffffffff1642610f3a91906128ec565b90506000610f4c836101400151612057565b90506000610e1063ffffffff7f000000000000000000000000000000000000000000000000000000000000000016610f8861ffff8516866127df565b610f9291906127df565b610f9c9190612932565b9050600080856080015160040b131561102257612710610fdc7f0000000000000000000000000000000000000000000000000000000000000000846127df565b610fe69190612932565b9050846080015164ffffffffff168111156110095750608084015164ffffffffff165b8085608001516110199190612946565b60040b60808601525b606085015163ffffffff1660007f00000000000000000000000000000000000000000000000000000000000000001561126a576000610e106110887f000000000000000000000000000000000000000000000000000000000000000061ffff89166127df565b6110929190612932565b6110c29063ffffffff7f00000000000000000000000000000000000000000000000000000000000000001661284b565b9050600088604001516110d65760006110d8565b815b9050808411156111dd5760c089015164ffffffffff166111d85760e08901516107089063ffffffff161561113a57828a60e0015161070861111991906129ac565b63ffffffff166111299190612932565b905061070881101561113a57506107085b6000610e10611149838c6127df565b6111539190612932565b905061115f83876128ec565b8111156111735761117083876128ec565b90505b858111156111a6578a604001511561119d5785611190888a6128ec565b61119a919061284b565b94505b600095506111d5565b8a60400151156111c857806111bb888a6128ec565b6111c5919061284b565b94505b6111d281876128ec565b95505b50505b611225565b8860400151156112255760006111f385836128ec565b9050600061120187896128ec565b90508181111561121b5761121582826128ec565b94508190505b6111d2818761284b565b886040015115611263576000838a6080015160040b61124491906129cf565b90508181121561125a5761125782612a43565b90505b60040b60808a01525b5050611319565b8660400151156112dc5782610e1063ffffffff7f0000000000000000000000000000000000000000000000000000000000000000166112ad61ffff89168a6127df565b6112b791906127df565b6112c19190612932565b6112cb91906128ec565b6112d5908361284b565b9150611319565b6000610e106112ed886107086127df565b6112f79190612932565b90508281111561130a5750600091611317565b61131481846128ec565b92505b505b6380000000821061133c5761133360016380000000612a7c565b63ffffffff1691505b5063ffffffff1660609095019490945250505050565b8060400151156113be576040517f08c379a000000000000000000000000000000000000000000000000000000000815260206004820152600c60248201527f5354494c4c5f414354495645000000000000000000000000000000000000000060448201526064016102cc565b6000816060015163ffffffff16600014156113ec576113e18261014001516120f4565b61ffff169050611499565b8273ffffffffffffffffffffffffffffffffffffffff1682610100015173ffffffffffffffffffffffffffffffffffffffff1614806114335750606082015163ffffffff16155b611499576040517f08c379a000000000000000000000000000000000000000000000000000000000815260206004820152600860248201527f4f4343555049454400000000000000000000000000000000000000000000000060448201526064016102cc565b60006114a9836101400151612057565b90506000610e106114de7f000000000000000000000000000000000000000000000000000000000000000061ffff85166127df565b6114e89190612932565b6115189063ffffffff7f00000000000000000000000000000000000000000000000000000000000000001661284b565b73ffffffffffffffffffffffffffffffffffffffff8616610120860152905063ffffffff83161561166a5760006115907f000000000000000000000000000000000000000000000000000000000000000063ffffffff168563ffffffff1661271061158789610140015161218b565b61ffff16612222565b5090507f000000000000000000000000000000000000000000000000000000000000000063ffffffff168163ffffffff1610611628576040517f08c379a000000000000000000000000000000000000000000000000000000000815260206004820152600f60248201527f4641494c45445f4341505455524544000000000000000000000000000000000060448201526064016102cc565b611652817f0000000000000000000000000000000000000000000000000000000000000000612a7c565b63ffffffff16606086015250600060e085015261170b565b7f00000000000000000000000000000000000000000000000000000000000000008460600181815161169c9190612aa1565b63ffffffff169052507f00000000000000000000000000000000000000000000000000000000000000001561170b578063ffffffff16846060015163ffffffff161115611703578084606001516116f39190612a7c565b63ffffffff1660e085015261170b565b600060e08501525b61171481612ac0565b60030b6080850152505060016040909201919091525050565b60008160a0015164ffffffffff16118015611751575060c081015164ffffffffff16155b1561175f5761175f816123c3565b80610120015173ffffffffffffffffffffffffffffffffffffffff1681610100015173ffffffffffffffffffffffffffffffffffffffff161461185c57610120810151825473ffffffffffffffffffffffffffffffffffffffff9182167fffffffffffffff000000000000000000000000000000000000000000000000009091168117740100000000000000000000000000000000000000004264ffffffffff1602177fffff0000000000ffffffffffffffffffffffffffffffffffffffffffffffffff1684558251610100840151604051919316907fddf252ad1be2c89b69c2b068fc378daa952ba7f163c4a11628f55a4df523b3ef90600090a45b60008160c0015164ffffffffff16118015611880575060a081015164ffffffffff16155b156118d95760c0810151825464ffffffffff909116790100000000000000000000000000000000000000000000000000027fffff0000000000ffffffffffffffffffffffffffffffffffffffffffffffffff9091161782555b6118eb81604001518260600151612488565b6001929092018054608083015160e09093015163ffffffff9485167fffffffffffffffffffffffffffffffffffff0000000000ffffffffff0000000090921691909117690100000000000000000064ffffffffff94851602177fffffffffffffffffffffffffffff00000000ffffffffff0000000000ffffffff166e01000000000000000000000000000094909116939093027fffffffffffffffffffffffffffffffffffffffffffffff0000000000ffffffff1692909217640100000000429290921691909102179055565b604080516080808201835260055463ffffffff80821684526401000000008204811660208501526801000000000000000082048116948401949094526c0100000000000000000000000090049092166060820152906fffffffffffffffffffffffffffffffff8316600f0b9083901d600080831215611af657835163ffffffff16611a4284612a43565b1315611aaa576040517f08c379a000000000000000000000000000000000000000000000000000000000815260206004820152601660248201527f4e4f545f524541434841424c455f5945545f4d494e580000000000000000000060448201526064016102cc565b6008611ab584612a43565b611abf9190612aff565b925063ffffffff831315611ad55763ffffffff92505b835163ffffffff16831315611af1575063ffffffff8216835260015b611bb3565b836020015163ffffffff16831315611b6a576040517f08c379a000000000000000000000000000000000000000000000000000000000815260206004820152601660248201527f4e4f545f524541434841424c455f5945545f4d4158580000000000000000000060448201526064016102cc565b611b75600884612aff565b925063ffffffff831315611b8b5763ffffffff92505b8263ffffffff16846020015163ffffffff161015611bb3575063ffffffff8216602084015260015b6000821215611c8a57604084015163ffffffff16611bd083612a43565b1315611c38576040517f08c379a000000000000000000000000000000000000000000000000000000000815260206004820152601660248201527f4e4f545f524541434841424c455f5945545f4d494e590000000000000000000060448201526064016102cc565b6008611c4383612a43565b611c4d9190612aff565b915063ffffffff821315611c635763ffffffff91505b81846040015163ffffffff161215611c85575063ffffffff8116604084015260015b611d41565b836060015163ffffffff16821315611cfe576040517f08c379a000000000000000000000000000000000000000000000000000000000815260206004820152601660248201527f4e4f545f524541434841424c455f5945545f4d4158590000000000000000000060448201526064016102cc565b611d09600883612aff565b915063ffffffff821315611d1f5763ffffffff91505b81846060015163ffffffff161215611d41575063ffffffff8116606084015260015b8015610c925783516005805460208701516040880151606089015163ffffffff9081166c01000000000000000000000000027fffffffffffffffffffffffffffffffff00000000ffffffffffffffffffffffff9282166801000000000000000002929092167fffffffffffffffffffffffffffffffff0000000000000000ffffffffffffffff938216640100000000027fffffffffffffffffffffffffffffffffffffffffffffffff000000000000000090951691909616179290921716929092179190911790555050505050565b6000808264ffffffffff16118015611e575750611e547f000000000000000000000000000000000000000000000000000000000000000064ffffffffff841661284b565b42115b92915050565b6000670de0b6b3a7640000611e7183610df9565b61ffff16611e7f91906127df565b9050828473ffffffffffffffffffffffffffffffffffffffff167f1c363b29828a892b7cddafe9583ef52e0d5aca0ea7011bda6ccf039e1781f73883604051611eca91815260200190565b60405180910390a36000838152600760205260409020548015611f7a5773ffffffffffffffffffffffffffffffffffffffff85166000818152600860209081526040808320858452825280832080547fffffffffffffffffffffffffffffffffffffffffffffffffffffffffffffff001660011790558783526007909152808220829055518392879290917f74f110a1e0cd4892234c7ba49df9f8a354cd8d29b272f7557c9b8c3c38a653369190a45b509392505050565b6380000000818116811490600090611f9a9084612b73565b9050915091565b6000611fb082603460106124ae565b60ff166001149050919050565b600080611fcc848460406124ae565b90506000611fdb600283612b96565b90506000611fea600284612bb8565b905060007f01223334444555555666666677777777888888889999999aaaaaabbbbcccddef60ff8416602081106120235761202361281c565b1a905060ff82166120415760048160ff16901c945050505050611e57565b61204c601082612bb8565b979650505050505050565b600061206282611fa1565b6120c8576040517f08c379a000000000000000000000000000000000000000000000000000000000815260206004820152601160248201527f504c414e45545f4e4f545f45584953545300000000000000000000000000000060448201526064016102cc565b611e5782600c7f0708083409600a8c0bb80ce40e100e100e100e101068151819c81e7823282ee06124cb565b60006120ff82611fa1565b612165576040517f08c379a000000000000000000000000000000000000000000000000000000000815260206004820152601160248201527f504c414e45545f4e4f545f45584953545300000000000000000000000000000060448201526064016102cc565b61217082602c611fbd565b61217f9060ff16610bb861289c565b611e5790613a986128c6565b600061219682611fa1565b6121fc576040517f08c379a000000000000000000000000000000000000000000000000000000000815260206004820152601160248201527f504c414e45545f4e4f545f45584953545300000000000000000000000000000060448201526064016102cc565b61220782601c611fbd565b6122169060ff1661019061289c565b611e5790610fa06128c6565b600080851580612230575084155b15612240575060009050806123ba565b60008561226d887f00000000000000000000000000000000000000000000000000000000000000006127df565b6122779190612932565b6122a47f0000000000000000000000000000000000000000000000000000000000000000620f42406128ec565b6122ae919061284b565b6122b890886127df565b90506000620f4240856122cb88856127df565b6122d59190612932565b6122df9190612932565b9050808711156122f4578793508092506123b7565b600088612321897f00000000000000000000000000000000000000000000000000000000000000006127df565b61232b9190612932565b6123587f0000000000000000000000000000000000000000000000000000000000000000620f42406128ec565b612362919061284b565b61236c90896127df565b90506000620f42408861237f89856127df565b6123899190612932565b6123939190612932565b63ffffffff1690508981106123b0576123ad60018b6128ec565b90505b9450879350505b50505b94509492505050565b60006123de8261010001518360000151846101400151611e5d565b61010083015173ffffffffffffffffffffffffffffffffffffffff166000908152600260205260408120549192509061241890839061284b565b6101008401805173ffffffffffffffffffffffffffffffffffffffff9081166000908152600260209081526040918290208590559251905184815293945016917f4d135695228631e73b5a31e6fc8af4e5825cde63774c3c48695b4af814d7b019910160405180910390a2505050565b6000818361249757600061249d565b63800000005b6124a79190612aa1565b9392505050565b60006124c360ff80841690851686901c612bda565b949350505050565b6000806124d88585611fbd565b9050826124e6826002612bee565b6124f1906001612c17565b60ff16602081106125045761250461281c565b1a83612511836002612bee565b60ff16602081106125245761252461281c565b61253291901a61010061289c565b61253c91906128c6565b95945050505050565b6000806040838503121561255857600080fd5b50508035926020909101359150565b73ffffffffffffffffffffffffffffffffffffffff8116811461258957600080fd5b50565b60008083601f84011261259e57600080fd5b50813567ffffffffffffffff8111156125b657600080fd5b6020830191508360208285010111156125ce57600080fd5b9250929050565b6000806000806000608086880312156125ed57600080fd5b85356125f881612567565b9450602086013561260881612567565b935060408601359250606086013567ffffffffffffffff81111561262b57600080fd5b6126378882890161258c565b969995985093965092949392505050565b60006020828403121561265a57600080fd5b81356124a781612567565b6000806000806060858703121561267b57600080fd5b843561268681612567565b935060208501359250604085013567ffffffffffffffff8111156126a957600080fd5b6126b58782880161258c565b95989497509550505050565b600080604083850312156126d457600080fd5b82356126df81612567565b946020939093013593505050565b60008060006040848603121561270257600080fd5b833561270d81612567565b9250602084013567ffffffffffffffff8082111561272a57600080fd5b818601915086601f83011261273e57600080fd5b81358181111561274d57600080fd5b8760208260051b850101111561276257600080fd5b6020830194508093505050509250925092565b60006020828403121561278757600080fd5b815180151581146124a757600080fd5b6000602082840312156127a957600080fd5b5035919050565b7f4e487b7100000000000000000000000000000000000000000000000000000000600052601160045260246000fd5b6000817fffffffffffffffffffffffffffffffffffffffffffffffffffffffffffffffff0483118215151615612817576128176127b0565b500290565b7f4e487b7100000000000000000000000000000000000000000000000000000000600052603260045260246000fd5b6000821982111561285e5761285e6127b0565b500190565b60007fffffffffffffffffffffffffffffffffffffffffffffffffffffffffffffffff821415612895576128956127b0565b5060010190565b600061ffff808316818516818304811182151516156128bd576128bd6127b0565b02949350505050565b600061ffff8083168185168083038211156128e3576128e36127b0565b01949350505050565b6000828210156128fe576128fe6127b0565b500390565b7f4e487b7100000000000000000000000000000000000000000000000000000000600052601260045260246000fd5b60008261294157612941612903565b500490565b60008160040b8360040b60008112817fffffffffffffffffffffffffffffffffffffffffffffffffffffff800000000001831281151615612989576129896127b0565b81647fffffffff0183138116156129a2576129a26127b0565b5090039392505050565b600063ffffffff808316818516818304811182151516156128bd576128bd6127b0565b6000808312837f800000000000000000000000000000000000000000000000000000000000000001831281151615612a0957612a096127b0565b837f7fffffffffffffffffffffffffffffffffffffffffffffffffffffffffffffff018313811615612a3d57612a3d6127b0565b50500390565b60007f8000000000000000000000000000000000000000000000000000000000000000821415612a7557612a756127b0565b5060000390565b600063ffffffff83811690831681811015612a9957612a996127b0565b039392505050565b600063ffffffff8083168185168083038211156128e3576128e36127b0565b60008160030b7fffffffffffffffffffffffffffffffffffffffffffffffffffffffff80000000811415612af657612af66127b0565b60000392915050565b6000808212827f7fffffffffffffffffffffffffffffffffffffffffffffffffffffffffffffff03841381151615612b3957612b396127b0565b827f8000000000000000000000000000000000000000000000000000000000000000038412811615612b6d57612b6d6127b0565b50500190565b600063ffffffff80841680612b8a57612b8a612903565b92169190910692915050565b600060ff831680612ba957612ba9612903565b8060ff84160491505092915050565b600060ff831680612bcb57612bcb612903565b8060ff84160691505092915050565b600082612be957612be9612903565b500690565b600060ff821660ff84168160ff0481118215151615612c0f57612c0f6127b0565b029392505050565b600060ff821660ff84168060ff03821115612c3457612c346127b0565b01939250505056fea2646970667358221220336a4cf622a581e889f24cdd4d88c9e98d17bde611428670a6ae5d060dc6a61f64736f6c63430008090033",
  "devdoc": {
    "kind": "dev",
    "methods": {},
    "version": 1
  },
  "userdoc": {
    "kind": "user",
    "methods": {},
    "version": 1
  },
  "storageLayout": {
    "storage": [
      {
        "astId": 16595,
        "contract": "src/outerspace/facets/OuterSpaceStakingFacet.sol:OuterSpaceStakingFacet",
        "label": "_planets",
        "offset": 0,
        "slot": "0",
        "type": "t_mapping(t_uint256,t_struct(Planet)22896_storage)"
      },
      {
        "astId": 16600,
        "contract": "src/outerspace/facets/OuterSpaceStakingFacet.sol:OuterSpaceStakingFacet",
        "label": "_fleets",
        "offset": 0,
        "slot": "1",
        "type": "t_mapping(t_uint256,t_struct(Fleet)22903_storage)"
      },
      {
        "astId": 16604,
        "contract": "src/outerspace/facets/OuterSpaceStakingFacet.sol:OuterSpaceStakingFacet",
        "label": "_stakeReadyToBeWithdrawn",
        "offset": 0,
        "slot": "2",
        "type": "t_mapping(t_address,t_uint256)"
      },
      {
        "astId": 16610,
        "contract": "src/outerspace/facets/OuterSpaceStakingFacet.sol:OuterSpaceStakingFacet",
        "label": "_operators",
        "offset": 0,
        "slot": "3",
        "type": "t_mapping(t_address,t_mapping(t_address,t_bool))"
      },
      {
        "astId": 16617,
        "contract": "src/outerspace/facets/OuterSpaceStakingFacet.sol:OuterSpaceStakingFacet",
        "label": "_inFlight",
        "offset": 0,
        "slot": "4",
        "type": "t_mapping(t_uint256,t_mapping(t_uint256,t_struct(InFlight)22872_storage))"
      },
      {
        "astId": 16620,
        "contract": "src/outerspace/facets/OuterSpaceStakingFacet.sol:OuterSpaceStakingFacet",
        "label": "_discovered",
        "offset": 0,
        "slot": "5",
        "type": "t_struct(Discovered)22881_storage"
      },
      {
        "astId": 16624,
        "contract": "src/outerspace/facets/OuterSpaceStakingFacet.sol:OuterSpaceStakingFacet",
        "label": "_prevRewardIds",
        "offset": 0,
        "slot": "6",
        "type": "t_mapping(t_address,t_uint256)"
      },
      {
        "astId": 16628,
        "contract": "src/outerspace/facets/OuterSpaceStakingFacet.sol:OuterSpaceStakingFacet",
        "label": "_rewards",
        "offset": 0,
        "slot": "7",
        "type": "t_mapping(t_uint256,t_uint256)"
      },
      {
        "astId": 16634,
        "contract": "src/outerspace/facets/OuterSpaceStakingFacet.sol:OuterSpaceStakingFacet",
        "label": "_rewardsToWithdraw",
        "offset": 0,
        "slot": "8",
        "type": "t_mapping(t_address,t_mapping(t_uint256,t_bool))"
      },
      {
        "astId": 16643,
        "contract": "src/outerspace/facets/OuterSpaceStakingFacet.sol:OuterSpaceStakingFacet",
        "label": "_attacks",
        "offset": 0,
        "slot": "9",
        "type": "t_mapping(t_uint256,t_mapping(t_address,t_mapping(t_uint256,t_struct(AccumulatedAttack)22976_storage)))"
      }
    ],
    "types": {
      "t_address": {
        "encoding": "inplace",
        "label": "address",
        "numberOfBytes": "20"
      },
      "t_bool": {
        "encoding": "inplace",
        "label": "bool",
        "numberOfBytes": "1"
      },
      "t_int40": {
        "encoding": "inplace",
        "label": "int40",
        "numberOfBytes": "5"
      },
      "t_mapping(t_address,t_bool)": {
        "encoding": "mapping",
        "key": "t_address",
        "label": "mapping(address => bool)",
        "numberOfBytes": "32",
        "value": "t_bool"
      },
      "t_mapping(t_address,t_mapping(t_address,t_bool))": {
        "encoding": "mapping",
        "key": "t_address",
        "label": "mapping(address => mapping(address => bool))",
        "numberOfBytes": "32",
        "value": "t_mapping(t_address,t_bool)"
      },
      "t_mapping(t_address,t_mapping(t_uint256,t_bool))": {
        "encoding": "mapping",
        "key": "t_address",
        "label": "mapping(address => mapping(uint256 => bool))",
        "numberOfBytes": "32",
        "value": "t_mapping(t_uint256,t_bool)"
      },
      "t_mapping(t_address,t_mapping(t_uint256,t_struct(AccumulatedAttack)22976_storage))": {
        "encoding": "mapping",
        "key": "t_address",
        "label": "mapping(address => mapping(uint256 => struct ImportingOuterSpaceTypes.AccumulatedAttack))",
        "numberOfBytes": "32",
        "value": "t_mapping(t_uint256,t_struct(AccumulatedAttack)22976_storage)"
      },
      "t_mapping(t_address,t_uint256)": {
        "encoding": "mapping",
        "key": "t_address",
        "label": "mapping(address => uint256)",
        "numberOfBytes": "32",
        "value": "t_uint256"
      },
      "t_mapping(t_uint256,t_bool)": {
        "encoding": "mapping",
        "key": "t_uint256",
        "label": "mapping(uint256 => bool)",
        "numberOfBytes": "32",
        "value": "t_bool"
      },
      "t_mapping(t_uint256,t_mapping(t_address,t_mapping(t_uint256,t_struct(AccumulatedAttack)22976_storage)))": {
        "encoding": "mapping",
        "key": "t_uint256",
        "label": "mapping(uint256 => mapping(address => mapping(uint256 => struct ImportingOuterSpaceTypes.AccumulatedAttack)))",
        "numberOfBytes": "32",
        "value": "t_mapping(t_address,t_mapping(t_uint256,t_struct(AccumulatedAttack)22976_storage))"
      },
      "t_mapping(t_uint256,t_mapping(t_uint256,t_struct(InFlight)22872_storage))": {
        "encoding": "mapping",
        "key": "t_uint256",
        "label": "mapping(uint256 => mapping(uint256 => struct ImportingOuterSpaceTypes.InFlight))",
        "numberOfBytes": "32",
        "value": "t_mapping(t_uint256,t_struct(InFlight)22872_storage)"
      },
      "t_mapping(t_uint256,t_struct(AccumulatedAttack)22976_storage)": {
        "encoding": "mapping",
        "key": "t_uint256",
        "label": "mapping(uint256 => struct ImportingOuterSpaceTypes.AccumulatedAttack)",
        "numberOfBytes": "32",
        "value": "t_struct(AccumulatedAttack)22976_storage"
      },
      "t_mapping(t_uint256,t_struct(Fleet)22903_storage)": {
        "encoding": "mapping",
        "key": "t_uint256",
        "label": "mapping(uint256 => struct ImportingOuterSpaceTypes.Fleet)",
        "numberOfBytes": "32",
        "value": "t_struct(Fleet)22903_storage"
      },
      "t_mapping(t_uint256,t_struct(InFlight)22872_storage)": {
        "encoding": "mapping",
        "key": "t_uint256",
        "label": "mapping(uint256 => struct ImportingOuterSpaceTypes.InFlight)",
        "numberOfBytes": "32",
        "value": "t_struct(InFlight)22872_storage"
      },
      "t_mapping(t_uint256,t_struct(Planet)22896_storage)": {
        "encoding": "mapping",
        "key": "t_uint256",
        "label": "mapping(uint256 => struct ImportingOuterSpaceTypes.Planet)",
        "numberOfBytes": "32",
        "value": "t_struct(Planet)22896_storage"
      },
      "t_mapping(t_uint256,t_uint256)": {
        "encoding": "mapping",
        "key": "t_uint256",
        "label": "mapping(uint256 => uint256)",
        "numberOfBytes": "32",
        "value": "t_uint256"
      },
      "t_struct(AccumulatedAttack)22976_storage": {
        "encoding": "inplace",
        "label": "struct ImportingOuterSpaceTypes.AccumulatedAttack",
        "members": [
          {
            "astId": 22969,
            "contract": "src/outerspace/facets/OuterSpaceStakingFacet.sol:OuterSpaceStakingFacet",
            "label": "target",
            "offset": 0,
            "slot": "0",
            "type": "t_address"
          },
          {
            "astId": 22971,
            "contract": "src/outerspace/facets/OuterSpaceStakingFacet.sol:OuterSpaceStakingFacet",
            "label": "numAttackSpent",
            "offset": 20,
            "slot": "0",
            "type": "t_uint32"
          },
          {
            "astId": 22973,
            "contract": "src/outerspace/facets/OuterSpaceStakingFacet.sol:OuterSpaceStakingFacet",
            "label": "damageCausedSoFar",
            "offset": 24,
            "slot": "0",
            "type": "t_uint32"
          },
          {
            "astId": 22975,
            "contract": "src/outerspace/facets/OuterSpaceStakingFacet.sol:OuterSpaceStakingFacet",
            "label": "averageAttackPower",
            "offset": 28,
            "slot": "0",
            "type": "t_uint16"
          }
        ],
        "numberOfBytes": "32"
      },
      "t_struct(Discovered)22881_storage": {
        "encoding": "inplace",
        "label": "struct ImportingOuterSpaceTypes.Discovered",
        "members": [
          {
            "astId": 22874,
            "contract": "src/outerspace/facets/OuterSpaceStakingFacet.sol:OuterSpaceStakingFacet",
            "label": "minX",
            "offset": 0,
            "slot": "0",
            "type": "t_uint32"
          },
          {
            "astId": 22876,
            "contract": "src/outerspace/facets/OuterSpaceStakingFacet.sol:OuterSpaceStakingFacet",
            "label": "maxX",
            "offset": 4,
            "slot": "0",
            "type": "t_uint32"
          },
          {
            "astId": 22878,
            "contract": "src/outerspace/facets/OuterSpaceStakingFacet.sol:OuterSpaceStakingFacet",
            "label": "minY",
            "offset": 8,
            "slot": "0",
            "type": "t_uint32"
          },
          {
            "astId": 22880,
            "contract": "src/outerspace/facets/OuterSpaceStakingFacet.sol:OuterSpaceStakingFacet",
            "label": "maxY",
            "offset": 12,
            "slot": "0",
            "type": "t_uint32"
          }
        ],
        "numberOfBytes": "32"
      },
      "t_struct(Fleet)22903_storage": {
        "encoding": "inplace",
        "label": "struct ImportingOuterSpaceTypes.Fleet",
        "members": [
          {
            "astId": 22898,
            "contract": "src/outerspace/facets/OuterSpaceStakingFacet.sol:OuterSpaceStakingFacet",
            "label": "owner",
            "offset": 0,
            "slot": "0",
            "type": "t_address"
          },
          {
            "astId": 22900,
            "contract": "src/outerspace/facets/OuterSpaceStakingFacet.sol:OuterSpaceStakingFacet",
            "label": "launchTime",
            "offset": 20,
            "slot": "0",
            "type": "t_uint40"
          },
          {
            "astId": 22902,
            "contract": "src/outerspace/facets/OuterSpaceStakingFacet.sol:OuterSpaceStakingFacet",
            "label": "quantity",
            "offset": 25,
            "slot": "0",
            "type": "t_uint32"
          }
        ],
        "numberOfBytes": "32"
      },
      "t_struct(InFlight)22872_storage": {
        "encoding": "inplace",
        "label": "struct ImportingOuterSpaceTypes.InFlight",
        "members": [
          {
            "astId": 22869,
            "contract": "src/outerspace/facets/OuterSpaceStakingFacet.sol:OuterSpaceStakingFacet",
            "label": "flying",
            "offset": 0,
            "slot": "0",
            "type": "t_uint32"
          },
          {
            "astId": 22871,
            "contract": "src/outerspace/facets/OuterSpaceStakingFacet.sol:OuterSpaceStakingFacet",
            "label": "destroyed",
            "offset": 4,
            "slot": "0",
            "type": "t_uint32"
          }
        ],
        "numberOfBytes": "32"
      },
      "t_struct(Planet)22896_storage": {
        "encoding": "inplace",
        "label": "struct ImportingOuterSpaceTypes.Planet",
        "members": [
          {
            "astId": 22883,
            "contract": "src/outerspace/facets/OuterSpaceStakingFacet.sol:OuterSpaceStakingFacet",
            "label": "owner",
            "offset": 0,
            "slot": "0",
            "type": "t_address"
          },
          {
            "astId": 22885,
            "contract": "src/outerspace/facets/OuterSpaceStakingFacet.sol:OuterSpaceStakingFacet",
            "label": "ownershipStartTime",
            "offset": 20,
            "slot": "0",
            "type": "t_uint40"
          },
          {
            "astId": 22887,
            "contract": "src/outerspace/facets/OuterSpaceStakingFacet.sol:OuterSpaceStakingFacet",
            "label": "exitStartTime",
            "offset": 25,
            "slot": "0",
            "type": "t_uint40"
          },
          {
            "astId": 22889,
            "contract": "src/outerspace/facets/OuterSpaceStakingFacet.sol:OuterSpaceStakingFacet",
            "label": "numSpaceships",
            "offset": 0,
            "slot": "1",
            "type": "t_uint32"
          },
          {
            "astId": 22891,
            "contract": "src/outerspace/facets/OuterSpaceStakingFacet.sol:OuterSpaceStakingFacet",
            "label": "lastUpdated",
            "offset": 4,
            "slot": "1",
            "type": "t_uint40"
          },
          {
            "astId": 22893,
            "contract": "src/outerspace/facets/OuterSpaceStakingFacet.sol:OuterSpaceStakingFacet",
            "label": "travelingUpkeep",
            "offset": 9,
            "slot": "1",
            "type": "t_int40"
          },
          {
            "astId": 22895,
            "contract": "src/outerspace/facets/OuterSpaceStakingFacet.sol:OuterSpaceStakingFacet",
            "label": "overflow",
            "offset": 14,
            "slot": "1",
            "type": "t_uint32"
          }
        ],
        "numberOfBytes": "64"
      },
      "t_uint16": {
        "encoding": "inplace",
        "label": "uint16",
        "numberOfBytes": "2"
      },
      "t_uint256": {
        "encoding": "inplace",
        "label": "uint256",
        "numberOfBytes": "32"
      },
      "t_uint32": {
        "encoding": "inplace",
        "label": "uint32",
        "numberOfBytes": "4"
      },
      "t_uint40": {
        "encoding": "inplace",
        "label": "uint40",
        "numberOfBytes": "5"
      }
    }
  }
}