{
  "address": "0xB9D19010237254cf6c818afDDB399F3402EB50e4",
  "abi": [
    {
      "inputs": [
        {
          "internalType": "contract AllianceRegistry",
          "name": "allianceRegistry",
          "type": "address"
        }
      ],
      "stateMutability": "nonpayable",
      "type": "constructor"
    },
    {
      "inputs": [
        {
          "components": [
            {
              "internalType": "address",
              "name": "addr",
              "type": "address"
            },
            {
              "internalType": "uint32",
              "name": "nonce",
              "type": "uint32"
            },
            {
              "internalType": "bytes",
              "name": "signature",
              "type": "bytes"
            }
          ],
          "internalType": "struct AllianceRegistry.PlayerSubmission[]",
          "name": "playerSubmissions",
          "type": "tuple[]"
        }
      ],
      "name": "addMembers",
      "outputs": [],
      "stateMutability": "nonpayable",
      "type": "function"
    },
    {
      "inputs": [],
      "name": "admin",
      "outputs": [
        {
          "internalType": "address",
          "name": "",
          "type": "address"
        }
      ],
      "stateMutability": "view",
      "type": "function"
    },
    {
      "inputs": [
        {
          "internalType": "bytes32",
          "name": "salt",
          "type": "bytes32"
        }
      ],
      "name": "getAddress",
      "outputs": [
        {
          "internalType": "address",
          "name": "",
          "type": "address"
        }
      ],
      "stateMutability": "view",
      "type": "function"
    },
    {
      "inputs": [
        {
          "internalType": "address",
          "name": "initialAdmin",
          "type": "address"
        },
        {
          "components": [
            {
              "internalType": "address",
              "name": "addr",
              "type": "address"
            },
            {
              "internalType": "uint32",
              "name": "nonce",
              "type": "uint32"
            },
            {
              "internalType": "bytes",
              "name": "signature",
              "type": "bytes"
            }
          ],
          "internalType": "struct AllianceRegistry.PlayerSubmission[]",
          "name": "playerSubmissions",
          "type": "tuple[]"
        },
        {
          "internalType": "bytes32",
          "name": "salt",
          "type": "bytes32"
        }
      ],
      "name": "instantiate",
      "outputs": [],
      "stateMutability": "nonpayable",
      "type": "function"
    },
    {
      "inputs": [
        {
          "internalType": "address",
          "name": "newAdmin",
          "type": "address"
        },
        {
          "components": [
            {
              "internalType": "address",
              "name": "addr",
              "type": "address"
            },
            {
              "internalType": "uint32",
              "name": "nonce",
              "type": "uint32"
            },
            {
              "internalType": "bytes",
              "name": "signature",
              "type": "bytes"
            }
          ],
          "internalType": "struct AllianceRegistry.PlayerSubmission[]",
          "name": "playerSubmissions",
          "type": "tuple[]"
        }
      ],
      "name": "setAdminAndAddMembers",
      "outputs": [],
      "stateMutability": "nonpayable",
      "type": "function"
    }
  ],
  "transactionHash": "0x5e260db433423da4d5d64c630c42808f21eab6e9fd0743f2f55eea609818d620",
  "args": [
    "0xFDfD26F26AD38FA6d069E446Cd23CD6c432048B1"
  ],
  "numDeployments": 1,
  "solcInputHash": "037e1197a23bd7a7f8dec81bf3363a15",
  "bytecode": "0x60a060405234801561001057600080fd5b50604051610a32380380610a3283398101604081905261002f91610054565b6001600160a01b0316608052600080546001600160a81b031916610101179055610084565b60006020828403121561006657600080fd5b81516001600160a01b038116811461007d57600080fd5b9392505050565b60805161098c6100a660003960008181610182015261050a015261098c6000f3fe608060405234801561001057600080fd5b50600436106100675760003560e01c80636ca1d0ed116100505780636ca1d0ed146100b0578063f851a440146100c3578063fc4c03b4146100db57600080fd5b80630b7465e41461006c57806321f8a72114610081575b600080fd5b61007f61007a36600461067d565b6100ee565b005b61009461008f3660046106bf565b6101ef565b6040516001600160a01b03909116815260200160405180910390f35b61007f6100be3660046106f4565b610305565b6000546100949061010090046001600160a01b031681565b61007f6100e936600461074e565b61042b565b60005461010090046001600160a01b031633146101525760405162461bcd60e51b815260206004820152600b60248201527f4e4f545f414c4c4f57454400000000000000000000000000000000000000000060448201526064015b60405180910390fd5b6040517f8efb75c30000000000000000000000000000000000000000000000000000000081526001600160a01b037f00000000000000000000000000000000000000000000000000000000000000001690638efb75c3906101b9908590859060040161090e565b600060405180830381600087803b1580156101d357600080fd5b505af11580156101e7573d6000803e3d6000fd5b505050505050565b6000805460ff166102425760405162461bcd60e51b815260206004820152601e60248201527f43414e4e4f545f494e5354414e54494154455f46524f4d5f434c4f4e455300006044820152606401610149565b6102ff30833360405160200161027492919091825260601b6bffffffffffffffffffffffff1916602082015260340190565b60405160208183030381529060405280519060200120306040517f3d602d80600a3d3981f3363d3d373d3d3d363d730000000000000000000000008152606093841b60148201527f5af43d82803e903d91602b57fd5bf3ff000000000000000000000000000000006028820152921b6038830152604c8201526037808220606c830152605591012090565b92915050565b60005460ff166103575760405162461bcd60e51b815260206004820152601e60248201527f43414e4e4f545f494e5354414e54494154455f46524f4d5f434c4f4e455300006044820152606401610149565b60006103a630833360405160200161038b92919091825260601b6bffffffffffffffffffffffff1916602082015260340190565b6040516020818303038152906040528051906020012061057a565b6040517ffc4c03b40000000000000000000000000000000000000000000000000000000081529091506001600160a01b0382169063fc4c03b4906103f29088908890889060040161092a565b600060405180830381600087803b15801561040c57600080fd5b505af1158015610420573d6000803e3d6000fd5b505050505050505050565b60005461010090046001600160a01b03168015806104515750336001600160a01b038216145b61049d5760405162461bcd60e51b815260206004820152600b60248201527f4e4f545f414c4c4f5745440000000000000000000000000000000000000000006044820152606401610149565b600080547fffffffffffffffffffffff0000000000000000000000000000000000000000ff166101006001600160a01b038716021790558115610574576040517f8efb75c30000000000000000000000000000000000000000000000000000000081526001600160a01b037f00000000000000000000000000000000000000000000000000000000000000001690638efb75c390610541908690869060040161090e565b600060405180830381600087803b15801561055b57600080fd5b505af115801561056f573d6000803e3d6000fd5b505050505b50505050565b60006040517f3d602d80600a3d3981f3363d3d373d3d3d363d7300000000000000000000000081528360601b60148201527f5af43d82803e903d91602b57fd5bf300000000000000000000000000000000006028820152826037826000f59150506001600160a01b0381166102ff5760405162461bcd60e51b815260206004820152601760248201527f455243313136373a2063726561746532206661696c65640000000000000000006044820152606401610149565b60008083601f84011261064357600080fd5b50813567ffffffffffffffff81111561065b57600080fd5b6020830191508360208260051b850101111561067657600080fd5b9250929050565b6000806020838503121561069057600080fd5b823567ffffffffffffffff8111156106a757600080fd5b6106b385828601610631565b90969095509350505050565b6000602082840312156106d157600080fd5b5035919050565b80356001600160a01b03811681146106ef57600080fd5b919050565b6000806000806060858703121561070a57600080fd5b610713856106d8565b9350602085013567ffffffffffffffff81111561072f57600080fd5b61073b87828801610631565b9598909750949560400135949350505050565b60008060006040848603121561076357600080fd5b61076c846106d8565b9250602084013567ffffffffffffffff81111561078857600080fd5b61079486828701610631565b9497909650939450505050565b8183528181602085013750600060208284010152600060207fffffffffffffffffffffffffffffffffffffffffffffffffffffffffffffffe0601f840116840101905092915050565b81835260006020808501808196508560051b810191508460005b8781101561090157828403895281357fffffffffffffffffffffffffffffffffffffffffffffffffffffffffffffffa188360301811261084357600080fd5b870160606001600160a01b03610858836106d8565b1686528682013563ffffffff811680821461087257600080fd5b8789015250604082810135368490037fffffffffffffffffffffffffffffffffffffffffffffffffffffffffffffffe10181126108ae57600080fd5b8301803567ffffffffffffffff8111156108c757600080fd5b8036038513156108d657600080fd5b83838a01526108ea848a01828c85016107a1565b9d8a019d9850505093870193505050600101610804565b5091979650505050505050565b6020815260006109226020830184866107ea565b949350505050565b6001600160a01b038416815260406020820152600061094d6040830184866107ea565b9594505050505056fea26469706673582212203a6bae0d2211e05dc358abdb7d148a23f934dca8c9725ee64df7ca0bf5359f1d64736f6c63430008090033",
  "devdoc": {
    "kind": "dev",
    "methods": {},
    "version": 1
  },
  "userdoc": {
    "kind": "user",
    "methods": {},
    "version": 1
  },
  "storageLayout": {
    "storage": [
      {
        "astId": 10776,
        "contract": "src/Alliances/BasicAlliance.sol:BasicAlliance",
        "label": "_original",
        "offset": 0,
        "slot": "0",
        "type": "t_bool"
      },
      {
        "astId": 10781,
        "contract": "src/Alliances/BasicAlliance.sol:BasicAlliance",
        "label": "admin",
        "offset": 1,
        "slot": "0",
        "type": "t_address"
      }
    ],
    "types": {
      "t_address": {
        "encoding": "inplace",
        "label": "address",
        "numberOfBytes": "20"
      },
      "t_bool": {
        "encoding": "inplace",
        "label": "bool",
        "numberOfBytes": "1"
      }
    }
  }
}