{
  "address": "0x7e8e72e7F1712060315488441e46b9B98d4507AA",
  "abi": [
    {
      "inputs": [
        {
          "internalType": "address",
          "name": "minter",
          "type": "address"
        }
      ],
      "stateMutability": "nonpayable",
      "type": "constructor"
    },
    {
      "anonymous": false,
      "inputs": [
        {
          "indexed": true,
          "internalType": "address",
          "name": "owner",
          "type": "address"
        },
        {
          "indexed": true,
          "internalType": "address",
          "name": "spender",
          "type": "address"
        },
        {
          "indexed": false,
          "internalType": "uint256",
          "name": "value",
          "type": "uint256"
        }
      ],
      "name": "Approval",
      "type": "event"
    },
    {
      "anonymous": false,
      "inputs": [
        {
          "indexed": true,
          "internalType": "address",
          "name": "from",
          "type": "address"
        },
        {
          "indexed": true,
          "internalType": "address",
          "name": "to",
          "type": "address"
        },
        {
          "indexed": false,
          "internalType": "uint256",
          "name": "value",
          "type": "uint256"
        }
      ],
      "name": "Transfer",
      "type": "event"
    },
    {
      "inputs": [],
      "name": "DOMAIN_SEPARATOR",
      "outputs": [
        {
          "internalType": "bytes32",
          "name": "",
          "type": "bytes32"
        }
      ],
      "stateMutability": "view",
      "type": "function"
    },
    {
      "inputs": [
        {
          "internalType": "address",
          "name": "owner",
          "type": "address"
        },
        {
          "internalType": "address",
          "name": "spender",
          "type": "address"
        }
      ],
      "name": "allowance",
      "outputs": [
        {
          "internalType": "uint256",
          "name": "",
          "type": "uint256"
        }
      ],
      "stateMutability": "view",
      "type": "function"
    },
    {
      "inputs": [
        {
          "internalType": "address[]",
          "name": "accounts",
          "type": "address[]"
        }
      ],
      "name": "anyNotAuthorized",
      "outputs": [
        {
          "internalType": "bool",
          "name": "",
          "type": "bool"
        }
      ],
      "stateMutability": "view",
      "type": "function"
    },
    {
      "inputs": [
        {
          "internalType": "address",
          "name": "spender",
          "type": "address"
        },
        {
          "internalType": "uint256",
          "name": "amount",
          "type": "uint256"
        }
      ],
      "name": "approve",
      "outputs": [
        {
          "internalType": "bool",
          "name": "",
          "type": "bool"
        }
      ],
      "stateMutability": "nonpayable",
      "type": "function"
    },
    {
      "inputs": [
        {
          "internalType": "address",
          "name": "spender",
          "type": "address"
        },
        {
          "internalType": "uint256",
          "name": "amount",
          "type": "uint256"
        },
        {
          "internalType": "bytes",
          "name": "data",
          "type": "bytes"
        }
      ],
      "name": "approveAndCall",
      "outputs": [
        {
          "internalType": "bool",
          "name": "",
          "type": "bool"
        }
      ],
      "stateMutability": "nonpayable",
      "type": "function"
    },
    {
      "inputs": [
        {
          "internalType": "address[]",
          "name": "accounts",
          "type": "address[]"
        },
        {
          "internalType": "bool",
          "name": "auth",
          "type": "bool"
        }
      ],
      "name": "authorize",
      "outputs": [],
      "stateMutability": "nonpayable",
      "type": "function"
    },
    {
      "inputs": [
        {
          "internalType": "address",
          "name": "",
          "type": "address"
        }
      ],
      "name": "authorized",
      "outputs": [
        {
          "internalType": "bool",
          "name": "",
          "type": "bool"
        }
      ],
      "stateMutability": "view",
      "type": "function"
    },
    {
      "inputs": [
        {
          "internalType": "address",
          "name": "owner",
          "type": "address"
        }
      ],
      "name": "balanceOf",
      "outputs": [
        {
          "internalType": "uint256",
          "name": "",
          "type": "uint256"
        }
      ],
      "stateMutability": "view",
      "type": "function"
    },
    {
      "inputs": [],
      "name": "decimals",
      "outputs": [
        {
          "internalType": "uint8",
          "name": "",
          "type": "uint8"
        }
      ],
      "stateMutability": "pure",
      "type": "function"
    },
    {
      "inputs": [
        {
          "internalType": "address payable[]",
          "name": "tos",
          "type": "address[]"
        },
        {
          "internalType": "uint256",
          "name": "totalAmount",
          "type": "uint256"
        }
      ],
      "name": "distributeAlongWithETH",
      "outputs": [
        {
          "internalType": "bool",
          "name": "",
          "type": "bool"
        }
      ],
      "stateMutability": "payable",
      "type": "function"
    },
    {
      "inputs": [
        {
          "internalType": "address payable[]",
          "name": "tos",
          "type": "address[]"
        },
        {
          "internalType": "uint256[]",
          "name": "amounts",
          "type": "uint256[]"
        }
      ],
      "name": "distributeVariousAmountsAlongWithETH",
      "outputs": [
        {
          "internalType": "bool",
          "name": "",
          "type": "bool"
        }
      ],
      "stateMutability": "payable",
      "type": "function"
    },
    {
      "inputs": [
        {
          "internalType": "address[]",
          "name": "accounts",
          "type": "address[]"
        }
      ],
      "name": "enableRequireAuthorization",
      "outputs": [],
      "stateMutability": "nonpayable",
      "type": "function"
    },
    {
      "inputs": [
        {
          "internalType": "address",
          "name": "to",
          "type": "address"
        },
        {
          "internalType": "uint256",
          "name": "amount",
          "type": "uint256"
        }
      ],
      "name": "inflate",
      "outputs": [],
      "stateMutability": "nonpayable",
      "type": "function"
    },
    {
      "inputs": [],
      "name": "name",
      "outputs": [
        {
          "internalType": "string",
          "name": "",
          "type": "string"
        }
      ],
      "stateMutability": "pure",
      "type": "function"
    },
    {
      "inputs": [
        {
          "internalType": "address",
          "name": "owner",
          "type": "address"
        }
      ],
      "name": "nonces",
      "outputs": [
        {
          "internalType": "uint256",
          "name": "",
          "type": "uint256"
        }
      ],
      "stateMutability": "view",
      "type": "function"
    },
    {
      "inputs": [
        {
          "internalType": "address",
          "name": "forAddress",
          "type": "address"
        },
        {
          "internalType": "address",
          "name": "to",
          "type": "address"
        },
        {
          "internalType": "uint256",
          "name": "amount",
          "type": "uint256"
        },
        {
          "internalType": "bytes",
          "name": "data",
          "type": "bytes"
        }
      ],
      "name": "payForAndCall",
      "outputs": [
        {
          "internalType": "bool",
          "name": "",
          "type": "bool"
        }
      ],
      "stateMutability": "nonpayable",
      "type": "function"
    },
    {
      "inputs": [
        {
          "internalType": "address",
          "name": "owner",
          "type": "address"
        },
        {
          "internalType": "address",
          "name": "spender",
          "type": "address"
        },
        {
          "internalType": "uint256",
          "name": "value",
          "type": "uint256"
        },
        {
          "internalType": "uint256",
          "name": "deadline",
          "type": "uint256"
        },
        {
          "internalType": "uint8",
          "name": "v",
          "type": "uint8"
        },
        {
          "internalType": "bytes32",
          "name": "r",
          "type": "bytes32"
        },
        {
          "internalType": "bytes32",
          "name": "s",
          "type": "bytes32"
        }
      ],
      "name": "permit",
      "outputs": [],
      "stateMutability": "nonpayable",
      "type": "function"
    },
    {
      "inputs": [
        {
          "internalType": "address",
          "name": "minter",
          "type": "address"
        }
      ],
      "name": "postUpgrade",
      "outputs": [],
      "stateMutability": "nonpayable",
      "type": "function"
    },
    {
      "inputs": [],
      "name": "requireAuthorization",
      "outputs": [
        {
          "internalType": "bool",
          "name": "",
          "type": "bool"
        }
      ],
      "stateMutability": "view",
      "type": "function"
    },
    {
      "inputs": [
        {
          "internalType": "bool",
          "name": "req",
          "type": "bool"
        }
      ],
      "name": "setRequireAuthorization",
      "outputs": [],
      "stateMutability": "nonpayable",
      "type": "function"
    },
    {
      "inputs": [],
      "name": "symbol",
      "outputs": [
        {
          "internalType": "string",
          "name": "",
          "type": "string"
        }
      ],
      "stateMutability": "view",
      "type": "function"
    },
    {
      "inputs": [],
      "name": "totalSupply",
      "outputs": [
        {
          "internalType": "uint256",
          "name": "",
          "type": "uint256"
        }
      ],
      "stateMutability": "view",
      "type": "function"
    },
    {
      "inputs": [
        {
          "internalType": "address",
          "name": "",
          "type": "address"
        }
      ],
      "name": "touched",
      "outputs": [
        {
          "internalType": "bool",
          "name": "",
          "type": "bool"
        }
      ],
      "stateMutability": "view",
      "type": "function"
    },
    {
      "inputs": [
        {
          "internalType": "address",
          "name": "to",
          "type": "address"
        },
        {
          "internalType": "uint256",
          "name": "amount",
          "type": "uint256"
        }
      ],
      "name": "transfer",
      "outputs": [
        {
          "internalType": "bool",
          "name": "",
          "type": "bool"
        }
      ],
      "stateMutability": "nonpayable",
      "type": "function"
    },
    {
      "inputs": [
        {
          "internalType": "address payable",
          "name": "to",
          "type": "address"
        },
        {
          "internalType": "uint256",
          "name": "amount",
          "type": "uint256"
        }
      ],
      "name": "transferAlongWithETH",
      "outputs": [
        {
          "internalType": "bool",
          "name": "",
          "type": "bool"
        }
      ],
      "stateMutability": "payable",
      "type": "function"
    },
    {
      "inputs": [
        {
          "internalType": "address",
          "name": "to",
          "type": "address"
        },
        {
          "internalType": "uint256",
          "name": "amount",
          "type": "uint256"
        },
        {
          "internalType": "bytes",
          "name": "data",
          "type": "bytes"
        }
      ],
      "name": "transferAndCall",
      "outputs": [
        {
          "internalType": "bool",
          "name": "",
          "type": "bool"
        }
      ],
      "stateMutability": "nonpayable",
      "type": "function"
    },
    {
      "inputs": [
        {
          "internalType": "address",
          "name": "from",
          "type": "address"
        },
        {
          "internalType": "address",
          "name": "to",
          "type": "address"
        },
        {
          "internalType": "uint256",
          "name": "amount",
          "type": "uint256"
        }
      ],
      "name": "transferFrom",
      "outputs": [
        {
          "internalType": "bool",
          "name": "",
          "type": "bool"
        }
      ],
      "stateMutability": "nonpayable",
      "type": "function"
    },
    {
      "inputs": [
        {
          "internalType": "address",
          "name": "from",
          "type": "address"
        },
        {
          "internalType": "address",
          "name": "to",
          "type": "address"
        },
        {
          "internalType": "uint256",
          "name": "amount",
          "type": "uint256"
        },
        {
          "internalType": "bytes",
          "name": "data",
          "type": "bytes"
        }
      ],
      "name": "transferFromAndCall",
      "outputs": [
        {
          "internalType": "bool",
          "name": "",
          "type": "bool"
        }
      ],
      "stateMutability": "nonpayable",
      "type": "function"
    }
  ],
  "transactionHash": "0x6e37b933934883ab6f94946d10366181e53bef37be232781706012038bb4662b",
  "args": [
    "0xbE19B59E8C588d68f475A407C7BA5fE813AEb792"
  ],
  "numDeployments": 1,
  "solcInputHash": "1e3f71d1fdaa014c84f37911f255e75e",
  "bytecode": "0x60a06040523480156200001157600080fd5b506040516200259d3803806200259d83398101604081905262000034916200017a565b6040805180820190915260018152603160f81b60208201527f91ab3d17e3a50a9d89e63fd30b92be7f5336b03b287bb946787a83a9d62a27666200009b60408051808201909152601081526f21b7b738bab2b9ba13b9902a37b5b2b760811b602082015290565b8051602091820120835184830120604080519384019490945292820152606081019190915230608082015260a00160408051601f19818403018152919052805160209091012060805250620000f081620000f7565b50620001ac565b6000620001116000805160206200257d8339815191525490565b90506001600160a01b03811662000141576001600160a01b036000805160206200257d8339815191525562000157565b336001600160a01b038216146200015757600080fd5b50600480546001600160a01b0319166001600160a01b0392909216919091179055565b6000602082840312156200018d57600080fd5b81516001600160a01b0381168114620001a557600080fd5b9392505050565b6080516123ae620001cf600039600081816102c40152610f4f01526123ae6000f3fe6080604052600436106101b75760003560e01c806395d89b41116100ec578063cae9ca511161008a578063dd9835ec11610064578063dd9835ec14610581578063df752eed146105b1578063e2c6fb4f146105c4578063e7fcb065146105e457600080fd5b8063cae9ca5114610521578063d505accf14610541578063dd62ed3e1461056157600080fd5b8063a9aadaad116100c6578063a9aadaad14610491578063b9181611146104b1578063c1d34b89146104e1578063c79b24301461050157600080fd5b806395d89b4114610408578063a256bb9e14610451578063a9059cbb1461047157600080fd5b80633d3b26a61161015957806363d994c71161013357806363d994c71461034257806370a08231146103625780637ecebe00146103a5578063876530c7146103e857600080fd5b80633d3b26a6146102e65780634000aea014610308578063480c84e11461032857600080fd5b806318160ddd1161019557806318160ddd1461025757806323b872dd14610276578063313ce567146102965780633644e515146102b257600080fd5b806306fdde03146101bc578063095ea7b3146102145780630e02df5414610244575b600080fd5b3480156101c857600080fd5b5060408051808201909152601081527f436f6e7175657374277320546f6b656e0000000000000000000000000000000060208201525b60405161020b9190611b8c565b60405180910390f35b34801561022057600080fd5b5061023461022f366004611c34565b6105f7565b604051901515815260200161020b565b610234610252366004611cac565b61060e565b34801561026357600080fd5b506000545b60405190815260200161020b565b34801561028257600080fd5b50610234610291366004611cf8565b6107dc565b3480156102a257600080fd5b506040516012815260200161020b565b3480156102be57600080fd5b506102687f000000000000000000000000000000000000000000000000000000000000000081565b3480156102f257600080fd5b50610306610301366004611c34565b6107f3565b005b34801561031457600080fd5b50610234610323366004611d7b565b610825565b34801561033457600080fd5b506006546102349060ff1681565b34801561034e57600080fd5b5061023461035d366004611dd7565b6108e5565b34801561036e57600080fd5b5061026861037d366004611e4a565b73ffffffffffffffffffffffffffffffffffffffff1660009081526001602052604090205490565b3480156103b157600080fd5b506102686103c0366004611e4a565b73ffffffffffffffffffffffffffffffffffffffff1660009081526003602052604090205490565b3480156103f457600080fd5b50610306610403366004611f6b565b6109a8565b34801561041457600080fd5b506101fe6040518060400160405280600381526020017f435154000000000000000000000000000000000000000000000000000000000081525081565b34801561045d57600080fd5b5061023461046c366004611fbd565b610af5565b34801561047d57600080fd5b5061023461048c366004611c34565b610b74565b34801561049d57600080fd5b506103066104ac366004611ffa565b610b81565b3480156104bd57600080fd5b506102346104cc366004611e4a565b60056020526000908152604090205460ff1681565b3480156104ed57600080fd5b506102346104fc366004611dd7565b610c68565b34801561050d57600080fd5b5061030661051c366004611e4a565b610ccd565b34801561052d57600080fd5b5061023461053c366004611d7b565b610dba565b34801561054d57600080fd5b5061030661055c366004612017565b610e1d565b34801561056d57600080fd5b5061026861057c36600461208e565b61115d565b34801561058d57600080fd5b5061023461059c366004611e4a565b60076020526000908152604090205460ff1681565b6102346105bf3660046120bc565b6111dd565b3480156105d057600080fd5b506103066105df36600461211c565b61139a565b6102346105f2366004611c34565b611499565b60006106043384846114e8565b5060015b92915050565b60008061061b843461218d565b905061062784826121c8565b3414610694576040517f08c379a000000000000000000000000000000000000000000000000000000000815260206004820152601160248201527f494e56414c49445f4d53475f56414c554500000000000000000000000000000060448201526064015b60405180910390fd5b60006106a0858561218d565b90506106ac85826121c8565b8414610714576040517f08c379a000000000000000000000000000000000000000000000000000000000815260206004820152601460248201527f494e56414c49445f544f54414c5f414d4f554e54000000000000000000000000604482015260640161068b565b60005b858110156107cf576107503388888481811061073557610735612205565b905060200201602081019061074a9190611e4a565b846115f6565b86868281811061076257610762612205565b90506020020160208101906107779190611e4a565b73ffffffffffffffffffffffffffffffffffffffff166108fc849081150290604051600060405180830381858888f193505050501580156107bc573d6000803e3d6000fd5b50806107c781612234565b915050610717565b5060019695505050505050565b60006107e9848484611750565b5060019392505050565b60045473ffffffffffffffffffffffffffffffffffffffff16331461081757600080fd5b610821828261189c565b5050565b60006108323386866115f6565b6040517fa4c0ed3600000000000000000000000000000000000000000000000000000000815273ffffffffffffffffffffffffffffffffffffffff86169063a4c0ed369061088a9033908890889088906004016122b6565b602060405180830381600087803b1580156108a457600080fd5b505af11580156108b8573d6000803e3d6000fd5b505050506040513d601f19601f820116820180604052508101906108dc91906122ec565b95945050505050565b60006108f23386866115f6565b6040517f9b6be06500000000000000000000000000000000000000000000000000000000815273ffffffffffffffffffffffffffffffffffffffff861690639b6be0659061094c9033908a90899089908990600401612309565b602060405180830381600087803b15801561096657600080fd5b505af115801561097a573d6000803e3d6000fd5b505050506040513d601f19601f8201168201806040525081019061099e91906122ec565b9695505050505050565b7fb53127684a568b3173ae13b9f8a6016e243e63b6e8ee1178d6a717850b5d61035473ffffffffffffffffffffffffffffffffffffffff163373ffffffffffffffffffffffffffffffffffffffff1614610a5e576040517f08c379a000000000000000000000000000000000000000000000000000000000815260206004820152600960248201527f4e4f545f41444d494e0000000000000000000000000000000000000000000000604482015260640161068b565b60005b8251811015610af0578160056000858481518110610a8157610a81612205565b60209081029190910181015173ffffffffffffffffffffffffffffffffffffffff16825281019190915260400160002080547fffffffffffffffffffffffffffffffffffffffffffffffffffffffffffffff001691151591909117905580610ae881612234565b915050610a61565b505050565b6000805b8251811015610b6b5760056000848381518110610b1857610b18612205565b60209081029190910181015173ffffffffffffffffffffffffffffffffffffffff1682528101919091526040016000205460ff16610b595750600192915050565b80610b6381612234565b915050610af9565b50600092915050565b60006106043384846115f6565b7fb53127684a568b3173ae13b9f8a6016e243e63b6e8ee1178d6a717850b5d61035473ffffffffffffffffffffffffffffffffffffffff163373ffffffffffffffffffffffffffffffffffffffff1614610c37576040517f08c379a000000000000000000000000000000000000000000000000000000000815260206004820152600960248201527f4e4f545f41444d494e0000000000000000000000000000000000000000000000604482015260640161068b565b600680547fffffffffffffffffffffffffffffffffffffffffffffffffffffffffffffff0016911515919091179055565b6000610c75868686611750565b6040517fa4c0ed3600000000000000000000000000000000000000000000000000000000815273ffffffffffffffffffffffffffffffffffffffff86169063a4c0ed369061094c9089908890889088906004016122b6565b6000610cf77fb53127684a568b3173ae13b9f8a6016e243e63b6e8ee1178d6a717850b5d61035490565b905073ffffffffffffffffffffffffffffffffffffffff8116610d505773ffffffffffffffffffffffffffffffffffffffff7fb53127684a568b3173ae13b9f8a6016e243e63b6e8ee1178d6a717850b5d610355610d72565b3373ffffffffffffffffffffffffffffffffffffffff821614610d7257600080fd5b50600480547fffffffffffffffffffffffff00000000000000000000000000000000000000001673ffffffffffffffffffffffffffffffffffffffff92909216919091179055565b6000610dc73386866114e8565b6040517eba451f00000000000000000000000000000000000000000000000000000000815273ffffffffffffffffffffffffffffffffffffffff86169062ba451f9061088a9033908890889088906004016122b6565b73ffffffffffffffffffffffffffffffffffffffff8716610e9a576040517f08c379a000000000000000000000000000000000000000000000000000000000815260206004820152601460248201527f494e56414c49445f5a45524f5f41444452455353000000000000000000000000604482015260640161068b565b73ffffffffffffffffffffffffffffffffffffffff87811660008181526003602090815260408083205481517f6e71edae12b1b97f4d1f60370fef10105fa2faae0126114a169c64845d6126c98185015280830195909552948b166060850152608084018a905260a0840185905260c08085018a90528151808603909101815260e0850190915280519101207f19010000000000000000000000000000000000000000000000000000000000006101008401527f00000000000000000000000000000000000000000000000000000000000000006101028401526101228301529061014201604080517fffffffffffffffffffffffffffffffffffffffffffffffffffffffffffffffe081840301815282825280516020918201206000845290830180835281905260ff8816918301919091526060820186905260808201859052915060019060a0016020604051602081039080840390855afa158015611005573d6000803e3d6000fd5b5050506020604051035173ffffffffffffffffffffffffffffffffffffffff168973ffffffffffffffffffffffffffffffffffffffff16146110a3576040517f08c379a000000000000000000000000000000000000000000000000000000000815260206004820152601160248201527f494e56414c49445f5349474e4154555245000000000000000000000000000000604482015260640161068b565b8515806110b05750854211155b611116576040517f08c379a000000000000000000000000000000000000000000000000000000000815260206004820152600860248201527f544f4f5f4c415445000000000000000000000000000000000000000000000000604482015260640161068b565b611121826001612349565b73ffffffffffffffffffffffffffffffffffffffff8a166000908152600360205260409020556111528989896114e8565b505050505050505050565b600073ffffffffffffffffffffffffffffffffffffffff83163014156111a457507fffffffffffffffffffffffffffffffffffffffffffffffffffffffffffffffff610608565b5073ffffffffffffffffffffffffffffffffffffffff918216600090815260026020908152604080832093909416825291909152205490565b6000806111ea853461218d565b90506111f685826121c8565b341461125e576040517f08c379a000000000000000000000000000000000000000000000000000000000815260206004820152601160248201527f494e56414c49445f4d53475f56414c5545000000000000000000000000000000604482015260640161068b565b8483146112c7576040517f08c379a000000000000000000000000000000000000000000000000000000000815260206004820152600f60248201527f4e4f545f53414d455f4c454e4754480000000000000000000000000000000000604482015260640161068b565b60005b858110156107cf5761131b338888848181106112e8576112e8612205565b90506020020160208101906112fd9190611e4a565b87878581811061130f5761130f612205565b905060200201356115f6565b86868281811061132d5761132d612205565b90506020020160208101906113429190611e4a565b73ffffffffffffffffffffffffffffffffffffffff166108fc839081150290604051600060405180830381858888f19350505050158015611387573d6000803e3d6000fd5b508061139281612234565b9150506112ca565b7fb53127684a568b3173ae13b9f8a6016e243e63b6e8ee1178d6a717850b5d61035473ffffffffffffffffffffffffffffffffffffffff163373ffffffffffffffffffffffffffffffffffffffff1614611450576040517f08c379a000000000000000000000000000000000000000000000000000000000815260206004820152600960248201527f4e4f545f41444d494e0000000000000000000000000000000000000000000000604482015260640161068b565b61145a6001610b81565b610821828280806020026020016040519081016040528093929190818152602001838360200280828437600092019190915250600192506109a8915050565b60006114a63384846115f6565b60405173ffffffffffffffffffffffffffffffffffffffff8416903480156108fc02916000818181858888f193505050501580156107e9573d6000803e3d6000fd5b73ffffffffffffffffffffffffffffffffffffffff831615801590611522575073ffffffffffffffffffffffffffffffffffffffff821615155b611588576040517f08c379a000000000000000000000000000000000000000000000000000000000815260206004820152601460248201527f494e56414c49445f5a45524f5f41444452455353000000000000000000000000604482015260640161068b565b73ffffffffffffffffffffffffffffffffffffffff83811660008181526002602090815260408083209487168084529482529182902085905590518481527f8c5be1e5ebec7d5bd14f71427d1e84f3dd0314c0f7b2291e5b200ac8c7c3b925910160405180910390a3505050565b60065460ff16158061162d575073ffffffffffffffffffffffffffffffffffffffff831660009081526005602052604090205460ff165b8061165d575073ffffffffffffffffffffffffffffffffffffffff821660009081526005602052604090205460ff165b8061168e575073ffffffffffffffffffffffffffffffffffffffff821660009081526007602052604090205460ff16155b6116f4576040517f08c379a000000000000000000000000000000000000000000000000000000000815260206004820152601760248201527f4e4f545f415554484f52495a45445f5452414e53464552000000000000000000604482015260640161068b565b6116ff83838361193e565b5073ffffffffffffffffffffffffffffffffffffffff16600090815260076020526040902080547fffffffffffffffffffffffffffffffffffffffffffffffffffffffffffffff0016600117905550565b3373ffffffffffffffffffffffffffffffffffffffff84161480159061178c575073ffffffffffffffffffffffffffffffffffffffff83163014155b156118915773ffffffffffffffffffffffffffffffffffffffff831660009081526002602090815260408083203384529091529020547fffffffffffffffffffffffffffffffffffffffffffffffffffffffffffffffff811461188f5781811015611853576040517f08c379a000000000000000000000000000000000000000000000000000000000815260206004820152601760248201527f4e4f545f415554484f495a45445f414c4c4f57414e4345000000000000000000604482015260640161068b565b61185d8282612361565b73ffffffffffffffffffffffffffffffffffffffff851660009081526002602090815260408083203384529091529020555b505b610af08383836115f6565b806000808282546118ad9190612349565b909155505073ffffffffffffffffffffffffffffffffffffffff8216600090815260016020526040812080548392906118e7908490612349565b909155505060405181815273ffffffffffffffffffffffffffffffffffffffff8316906000907fddf252ad1be2c89b69c2b068fc378daa952ba7f163c4a11628f55a4df523b3ef9060200160405180910390a35050565b73ffffffffffffffffffffffffffffffffffffffff82166119bb576040517f08c379a000000000000000000000000000000000000000000000000000000000815260206004820152601460248201527f494e56414c49445f5a45524f5f41444452455353000000000000000000000000604482015260640161068b565b73ffffffffffffffffffffffffffffffffffffffff8216301415611a3b576040517f08c379a000000000000000000000000000000000000000000000000000000000815260206004820152601460248201527f494e56414c49445f544849535f41444452455353000000000000000000000000604482015260640161068b565b73ffffffffffffffffffffffffffffffffffffffff831660009081526001602052604090205481811015611acb576040517f08c379a000000000000000000000000000000000000000000000000000000000815260206004820152601160248201527f4e4f545f454e4f5547485f544f4b454e53000000000000000000000000000000604482015260640161068b565b611ad58282612361565b73ffffffffffffffffffffffffffffffffffffffff8086166000908152600160205260408082209390935590851681529081208054849290611b18908490612349565b925050819055508273ffffffffffffffffffffffffffffffffffffffff168473ffffffffffffffffffffffffffffffffffffffff167fddf252ad1be2c89b69c2b068fc378daa952ba7f163c4a11628f55a4df523b3ef84604051611b7e91815260200190565b60405180910390a350505050565b600060208083528351808285015260005b81811015611bb957858101830151858201604001528201611b9d565b81811115611bcb576000604083870101525b50601f017fffffffffffffffffffffffffffffffffffffffffffffffffffffffffffffffe016929092016040019392505050565b73ffffffffffffffffffffffffffffffffffffffff81168114611c2157600080fd5b50565b8035611c2f81611bff565b919050565b60008060408385031215611c4757600080fd5b8235611c5281611bff565b946020939093013593505050565b60008083601f840112611c7257600080fd5b50813567ffffffffffffffff811115611c8a57600080fd5b6020830191508360208260051b8501011115611ca557600080fd5b9250929050565b600080600060408486031215611cc157600080fd5b833567ffffffffffffffff811115611cd857600080fd5b611ce486828701611c60565b909790965060209590950135949350505050565b600080600060608486031215611d0d57600080fd5b8335611d1881611bff565b92506020840135611d2881611bff565b929592945050506040919091013590565b60008083601f840112611d4b57600080fd5b50813567ffffffffffffffff811115611d6357600080fd5b602083019150836020828501011115611ca557600080fd5b60008060008060608587031215611d9157600080fd5b8435611d9c81611bff565b935060208501359250604085013567ffffffffffffffff811115611dbf57600080fd5b611dcb87828801611d39565b95989497509550505050565b600080600080600060808688031215611def57600080fd5b8535611dfa81611bff565b94506020860135611e0a81611bff565b935060408601359250606086013567ffffffffffffffff811115611e2d57600080fd5b611e3988828901611d39565b969995985093965092949392505050565b600060208284031215611e5c57600080fd5b8135611e6781611bff565b9392505050565b7f4e487b7100000000000000000000000000000000000000000000000000000000600052604160045260246000fd5b600082601f830112611eae57600080fd5b8135602067ffffffffffffffff80831115611ecb57611ecb611e6e565b8260051b6040517fffffffffffffffffffffffffffffffffffffffffffffffffffffffffffffffe0603f83011681018181108482111715611f0e57611f0e611e6e565b604052938452858101830193838101925087851115611f2c57600080fd5b83870191505b84821015611f5257611f4382611c24565b83529183019190830190611f32565b979650505050505050565b8015158114611c2157600080fd5b60008060408385031215611f7e57600080fd5b823567ffffffffffffffff811115611f9557600080fd5b611fa185828601611e9d565b9250506020830135611fb281611f5d565b809150509250929050565b600060208284031215611fcf57600080fd5b813567ffffffffffffffff811115611fe657600080fd5b611ff284828501611e9d565b949350505050565b60006020828403121561200c57600080fd5b8135611e6781611f5d565b600080600080600080600060e0888a03121561203257600080fd5b873561203d81611bff565b9650602088013561204d81611bff565b95506040880135945060608801359350608088013560ff8116811461207157600080fd5b9699959850939692959460a0840135945060c09093013592915050565b600080604083850312156120a157600080fd5b82356120ac81611bff565b91506020830135611fb281611bff565b600080600080604085870312156120d257600080fd5b843567ffffffffffffffff808211156120ea57600080fd5b6120f688838901611c60565b9096509450602087013591508082111561210f57600080fd5b50611dcb87828801611c60565b6000806020838503121561212f57600080fd5b823567ffffffffffffffff81111561214657600080fd5b61215285828601611c60565b90969095509350505050565b7f4e487b7100000000000000000000000000000000000000000000000000000000600052601160045260246000fd5b6000826121c3577f4e487b7100000000000000000000000000000000000000000000000000000000600052601260045260246000fd5b500490565b6000817fffffffffffffffffffffffffffffffffffffffffffffffffffffffffffffffff04831182151516156122005761220061215e565b500290565b7f4e487b7100000000000000000000000000000000000000000000000000000000600052603260045260246000fd5b60007fffffffffffffffffffffffffffffffffffffffffffffffffffffffffffffffff8214156122665761226661215e565b5060010190565b8183528181602085013750600060208284010152600060207fffffffffffffffffffffffffffffffffffffffffffffffffffffffffffffffe0601f840116840101905092915050565b73ffffffffffffffffffffffffffffffffffffffff8516815283602082015260606040820152600061099e60608301848661226d565b6000602082840312156122fe57600080fd5b8151611e6781611f5d565b600073ffffffffffffffffffffffffffffffffffffffff808816835280871660208401525084604083015260806060830152611f5260808301848661226d565b6000821982111561235c5761235c61215e565b500190565b6000828210156123735761237361215e565b50039056fea2646970667358221220cdf7bff8540976066d865a46e3bbb55e105641a020ad097aa64827e9e53e3e6464736f6c63430008090033b53127684a568b3173ae13b9f8a6016e243e63b6e8ee1178d6a717850b5d6103",
  "devdoc": {
    "kind": "dev",
    "methods": {
      "allowance(address,address)": {
        "details": "Returns the remaining number of tokens that `spender` will be allowed to spend on behalf of `owner` through {transferFrom}. This is zero by default. This value changes when {approve} or {transferFrom} are called."
      },
      "approve(address,uint256)": {
        "details": "Sets `amount` as the allowance of `spender` over the caller's tokens. Returns a boolean value indicating whether the operation succeeded. IMPORTANT: Beware that changing an allowance with this method brings the risk that someone may use both the old and the new allowance by unfortunate transaction ordering. One possible solution to mitigate this race condition is to first reduce the spender's allowance to 0 and set the desired value afterwards: https://github.com/ethereum/EIPs/issues/20#issuecomment-263524729 Emits an {Approval} event."
      },
      "totalSupply()": {
        "details": "Returns the amount of tokens in existence."
      }
    },
    "version": 1
  },
  "userdoc": {
    "kind": "user",
    "methods": {},
    "version": 1
  },
  "storageLayout": {
    "storage": [
      {
        "astId": 13174,
        "contract": "src/conquest_token/ConquestToken.sol:ConquestToken",
        "label": "_totalSupply",
        "offset": 0,
        "slot": "0",
        "type": "t_uint256"
      },
      {
        "astId": 13178,
        "contract": "src/conquest_token/ConquestToken.sol:ConquestToken",
        "label": "_balances",
        "offset": 0,
        "slot": "1",
        "type": "t_mapping(t_address,t_uint256)"
      },
      {
        "astId": 13184,
        "contract": "src/conquest_token/ConquestToken.sol:ConquestToken",
        "label": "_allowances",
        "offset": 0,
        "slot": "2",
        "type": "t_mapping(t_address,t_mapping(t_address,t_uint256))"
      },
      {
        "astId": 14040,
        "contract": "src/conquest_token/ConquestToken.sol:ConquestToken",
        "label": "_nonces",
        "offset": 0,
        "slot": "3",
        "type": "t_mapping(t_address,t_uint256)"
      },
      {
        "astId": 15012,
        "contract": "src/conquest_token/ConquestToken.sol:ConquestToken",
        "label": "_minter",
        "offset": 0,
        "slot": "4",
        "type": "t_address"
      },
      {
        "astId": 15073,
        "contract": "src/conquest_token/ConquestToken.sol:ConquestToken",
        "label": "authorized",
        "offset": 0,
        "slot": "5",
        "type": "t_mapping(t_address,t_bool)"
      },
      {
        "astId": 15075,
        "contract": "src/conquest_token/ConquestToken.sol:ConquestToken",
        "label": "requireAuthorization",
        "offset": 0,
        "slot": "6",
        "type": "t_bool"
      },
      {
        "astId": 15079,
        "contract": "src/conquest_token/ConquestToken.sol:ConquestToken",
        "label": "touched",
        "offset": 0,
        "slot": "7",
        "type": "t_mapping(t_address,t_bool)"
      }
    ],
    "types": {
      "t_address": {
        "encoding": "inplace",
        "label": "address",
        "numberOfBytes": "20"
      },
      "t_bool": {
        "encoding": "inplace",
        "label": "bool",
        "numberOfBytes": "1"
      },
      "t_mapping(t_address,t_bool)": {
        "encoding": "mapping",
        "key": "t_address",
        "label": "mapping(address => bool)",
        "numberOfBytes": "32",
        "value": "t_bool"
      },
      "t_mapping(t_address,t_mapping(t_address,t_uint256))": {
        "encoding": "mapping",
        "key": "t_address",
        "label": "mapping(address => mapping(address => uint256))",
        "numberOfBytes": "32",
        "value": "t_mapping(t_address,t_uint256)"
      },
      "t_mapping(t_address,t_uint256)": {
        "encoding": "mapping",
        "key": "t_address",
        "label": "mapping(address => uint256)",
        "numberOfBytes": "32",
        "value": "t_uint256"
      },
      "t_uint256": {
        "encoding": "inplace",
        "label": "uint256",
        "numberOfBytes": "32"
      }
    }
  }
}