{
  "address": "0x73D27DD8E1ba978a64F2aC55bC6E524a7bC70763",
  "abi": [
    {
      "anonymous": false,
      "inputs": [
        {
          "indexed": true,
          "internalType": "contract IAlliance",
          "name": "alliance",
          "type": "address"
        },
        {
          "indexed": true,
          "internalType": "address",
          "name": "player",
          "type": "address"
        },
        {
          "indexed": false,
          "internalType": "bool",
          "name": "joining",
          "type": "bool"
        }
      ],
      "name": "AllianceLink",
      "type": "event"
    },
    {
      "inputs": [
        {
          "components": [
            {
              "internalType": "address",
              "name": "addr",
              "type": "address"
            },
            {
              "internalType": "uint32",
              "name": "nonce",
              "type": "uint32"
            },
            {
              "internalType": "bytes",
              "name": "signature",
              "type": "bytes"
            }
          ],
          "internalType": "struct AllianceRegistry.PlayerSubmission[]",
          "name": "playerSubmissions",
          "type": "tuple[]"
        }
      ],
      "name": "addMultiplePlayersToAlliance",
      "outputs": [],
      "stateMutability": "nonpayable",
      "type": "function"
    },
    {
      "inputs": [
        {
          "internalType": "address",
          "name": "player",
          "type": "address"
        },
        {
          "internalType": "uint32",
          "name": "nonce",
          "type": "uint32"
        },
        {
          "internalType": "bytes",
          "name": "signature",
          "type": "bytes"
        }
      ],
      "name": "addPlayerToAlliance",
      "outputs": [],
      "stateMutability": "nonpayable",
      "type": "function"
    },
    {
      "inputs": [
        {
          "internalType": "address",
          "name": "player",
          "type": "address"
        }
      ],
      "name": "ejectPlayerFromAlliance",
      "outputs": [],
      "stateMutability": "nonpayable",
      "type": "function"
    },
    {
      "inputs": [
        {
          "internalType": "address",
          "name": "player",
          "type": "address"
        },
        {
          "internalType": "contract IAlliance",
          "name": "alliance",
          "type": "address"
        }
      ],
      "name": "getAllianceData",
      "outputs": [
        {
          "internalType": "uint96",
          "name": "joinTime",
          "type": "uint96"
        },
        {
          "internalType": "uint256",
          "name": "nonce",
          "type": "uint256"
        }
      ],
      "stateMutability": "view",
      "type": "function"
    },
    {
      "inputs": [
        {
          "internalType": "address",
          "name": "player1",
          "type": "address"
        },
        {
          "internalType": "address",
          "name": "player2",
          "type": "address"
        },
        {
          "internalType": "uint256",
          "name": "timestamp",
          "type": "uint256"
        }
      ],
      "name": "havePlayersAnAllianceInCommon",
      "outputs": [
        {
          "internalType": "contract IAlliance",
          "name": "alliance",
          "type": "address"
        },
        {
          "internalType": "uint96",
          "name": "joinTime",
          "type": "uint96"
        }
      ],
      "stateMutability": "view",
      "type": "function"
    },
    {
      "inputs": [
        {
          "internalType": "contract IAlliance",
          "name": "alliance",
          "type": "address"
        },
        {
          "internalType": "bytes",
          "name": "data",
          "type": "bytes"
        }
      ],
      "name": "joinAlliance",
      "outputs": [
        {
          "internalType": "bool",
          "name": "joined",
          "type": "bool"
        }
      ],
      "stateMutability": "nonpayable",
      "type": "function"
    },
    {
      "inputs": [
        {
          "internalType": "contract IAlliance",
          "name": "alliance",
          "type": "address"
        }
      ],
      "name": "leaveAlliance",
      "outputs": [],
      "stateMutability": "nonpayable",
      "type": "function"
    }
  ],
  "transactionHash": "0x45372198c14c74a720789e85037fb5b83862dab4ebb099c116acd2eaeb05425a",
  "args": [],
  "solcInputHash": "b6306f36ae27f67da6f89af7c66a0689",
  "bytecode": "0x608060405234801561001057600080fd5b50611dab806100206000396000f3fe608060405234801561001057600080fd5b506004361061007d5760003560e01c80636da066301161005b5780636da06630146100f15780637a784cb4146101045780638efb75c314610117578063df2c0f491461012a57600080fd5b806317e796ea146100825780634ed2986d146100975780635f3f7a9a146100ce575b600080fd5b610095610090366004611901565b610164565b005b6100aa6100a5366004611925565b610171565b604080516001600160601b0390931683526020830191909152015b60405180910390f35b6100e16100dc3660046119a0565b610268565b60405190151581526020016100c5565b6100956100ff366004611a0e565b6104d4565b610095610112366004611901565b6104e6565b610095610125366004611a71565b610562565b61013d610138366004611ae6565b610625565b604080516001600160a01b0390931683526001600160601b039091166020830152016100c5565b61016e8133610b14565b50565b6001600160a01b0380831660008181526020818152604080832086861680855290835281842054948452600190925282208054929490921614156101c8578054600160a01b90046001600160601b03169250610260565b60018101546001600160a01b03858116911614156101fc576001810154600160a01b90046001600160601b03169250610260565b60028101546001600160a01b0385811691161415610230576002810154600160a01b90046001600160601b03169250610260565b60038101546001600160a01b0385811691161415610260576003810154600160a01b90046001600160601b031692505b509250929050565b336000908152600160205260408120805482906001600160a01b031615610297578061029381611b3d565b9150505b60018201546001600160a01b0316156102b857806102b481611b3d565b9150505b60028201546001600160a01b0316156102d957806102d581611b3d565b9150505b60038201546001600160a01b0316156103395760405162461bcd60e51b815260206004820152601960248201527f4d41585f4e554d5f414c4c49414e4345535f524541434845440000000000000060448201526064015b60405180910390fd5b6040517f1d99b5540000000000000000000000000000000000000000000000000000000081526001600160a01b03871690631d99b5549061038290339089908990600401611b58565b602060405180830381600087803b15801561039c57600080fd5b505af11580156103b0573d6000803e3d6000fd5b505050506040513d601f19601f820116820180604052508101906103d49190611b97565b925082156104cb5780610403576001600160601b034216600160a01b026001600160a01b038716178255610489565b8060011415610431576001600160601b034216600160a01b026001600160a01b038716176001830155610489565b806002141561045f576001600160601b034216600160a01b026001600160a01b038716176002830155610489565b8060031415610489576001600160601b034216600160a01b026001600160a01b0387161760038301555b6040516001815233906001600160a01b038816907f5e60402083b3427099886174996f295e5e29d12bbe871aef1041e9a4324cdb099060200160405180910390a35b50509392505050565b6104e084848484610c90565b50505050565b6104f03382610b14565b6040517f9192e3020000000000000000000000000000000000000000000000000000000081523360048201526001600160a01b03821690639192e30290602401600060405180830381600087803b15801561054a57600080fd5b505af192505050801561055b575060015b61016e5750565b60005b818110156106205761060e83838381811061058257610582611bb9565b90506020028101906105949190611bcf565b6105a2906020810190611901565b8484848181106105b4576105b4611bb9565b90506020028101906105c69190611bcf565b6105d7906040810190602001611c0d565b8585858181106105e9576105e9611bb9565b90506020028101906105fb9190611bcf565b610609906040810190611c28565b610c90565b8061061881611b3d565b915050610565565b505050565b6001600160a01b0380841660009081526001602052604080822092851682528120909182916106526118b3565b61065a6118b3565b60008060005b6004811015610b0457828114156107b7576040805180820190915260008082526020820152816106bd57506040805180820190915287546001600160a01b0381168252600160a01b90046001600160601b03166020820152610776565b81600114156106fc57506040805180820190915260018801546001600160a01b0381168252600160a01b90046001600160601b03166020820152610776565b816002141561073b57506040805180820190915260028801546001600160a01b0381168252600160a01b90046001600160601b03166020820152610776565b816003141561077657506040805180820190915260038801546001600160a01b0381168252600160a01b90046001600160601b031660208201525b80516001600160a01b0316610792575050505050505050610b0c565b80868561079e81611b3d565b9650600481106107b0576107b0611bb9565b6020020152505b60005b6004811015610af157828114156109125760408051808201909152600080825260208201528161081757506040805180820190915287546001600160a01b0381168252600160a01b90046001600160601b031660208201526108d0565b816001141561085657506040805180820190915260018801546001600160a01b0381168252600160a01b90046001600160601b031660208201526108d0565b816002141561089557506040805180820190915260028801546001600160a01b0381168252600160a01b90046001600160601b031660208201526108d0565b81600314156108d057506040805180820190915260038801546001600160a01b0381168252600160a01b90046001600160601b031660208201525b80516001600160a01b03166108ed57505050505050505050610b0c565b8086856108f981611b3d565b96506004811061090b5761090b611bb9565b6020020152505b84816004811061092457610924611bb9565b6020020151516001600160a01b031686836004811061094557610945611bb9565b6020020151516001600160a01b03161415610adf5784816004811061096c5761096c611bb9565b6020020151602001516001600160601b031686836004811061099057610990611bb9565b6020020151602001516001600160601b031610610a52578a8683600481106109ba576109ba611bb9565b6020020151602001516001600160601b03161015610a16578582600481106109e4576109e4611bb9565b6020020151518683600481106109fc576109fc611bb9565b602002015160200151995099505050505050505050610b0c565b858260048110610a2857610a28611bb9565b6020020151519950858260048110610a4257610a42611bb9565b6020020151602001519850610adf565b8a858260048110610a6557610a65611bb9565b6020020151602001516001600160601b03161015610aa757848160048110610a8f57610a8f611bb9565b6020020151518582600481106109fc576109fc611bb9565b848160048110610ab957610ab9611bb9565b6020020151519950848160048110610ad357610ad3611bb9565b60200201516020015198505b80610ae981611b3d565b9150506107ba565b5080610afc81611b3d565b915050610660565b505050505050505b935093915050565b33600090815260016020526040812080549091906001600160a01b03848116911614610b485780610b4481611b3d565b9150505b60018201546001600160a01b03848116911614610b6d5780610b6981611b3d565b9150505b60028201546001600160a01b03848116911614610b925780610b8e81611b3d565b9150505b60038201546001600160a01b03848116911614610bf15760405162461bcd60e51b815260206004820152601860248201527f4e4f545f504152545f4f465f5448455f414c4c49414e434500000000000000006044820152606401610330565b80610bff5760008255610c3a565b8060011415610c145760006001830155610c3a565b8060021415610c295760006002830155610c3a565b8060031415610c3a57600060038301555b836001600160a01b0316836001600160a01b03167f5e60402083b3427099886174996f295e5e29d12bbe871aef1041e9a4324cdb096000604051610c82911515815260200190565b60405180910390a350505050565b6001600160a01b038085166000908152600160205260408120805433939192911615610d215781546001600160a01b0384811691161415610d135760405162461bcd60e51b815260206004820152600e60248201527f414c52454144595f4a4f494e45440000000000000000000000000000000000006044820152606401610330565b80610d1d81611b3d565b9150505b60018201546001600160a01b031615610da25760018201546001600160a01b0384811691161415610d945760405162461bcd60e51b815260206004820152600e60248201527f414c52454144595f4a4f494e45440000000000000000000000000000000000006044820152606401610330565b80610d9e81611b3d565b9150505b60028201546001600160a01b031615610e235760028201546001600160a01b0384811691161415610e155760405162461bcd60e51b815260206004820152600e60248201527f414c52454144595f4a4f494e45440000000000000000000000000000000000006044820152606401610330565b80610e1f81611b3d565b9150505b60038201546001600160a01b0384811691161415610e835760405162461bcd60e51b815260206004820152600e60248201527f414c52454144595f4a4f494e45440000000000000000000000000000000000006044820152606401610330565b60038201546001600160a01b031615610ede5760405162461bcd60e51b815260206004820152601960248201527f4d41585f4e554d5f414c4c49414e4345535f52454143484544000000000000006044820152606401610330565b6001600160a01b038088166000908152602081815260408083209387168352929052205463ffffffff87168114610f575760405162461bcd60e51b815260206004820152600d60248201527f494e56414c49445f4e4f4e4345000000000000000000000000000000000000006044820152606401610330565b606063ffffffff8816610fff576040517f19457468657265756d205369676e6564204d6573736167653a0a35360000000060208201527f4a6f696e20416c6c69616e636520307830303030303030303030303030303030603c8201527f3030303030303030303030303030303030303030303030300000000000000000605c82015260740160408051601f198184030181529190529050610ffa816053336112b3565b6110cd565b6040517f19457468657265756d205369676e6564204d6573736167653a0a37360000000060208201527f4a6f696e20416c6c69616e636520307830303030303030303030303030303030603c8201527f30303030303030303030303030303030303030303030303020286e6f6e63653a605c8201527f2020202020202020202030290000000000000000000000000000000000000000607c82015260880160408051601f1981840301815291905290506110bb816053336112b3565b6110cd8160668a63ffffffff1661138d565b6110d681611467565b600081805190602001209050600061112689898080601f01602080910402602001604051908101604052809392919081815260200183838082843760009201919091525086939250506114d89050565b9050806001600160a01b03168b6001600160a01b0316146111895760405162461bcd60e51b815260206004820152601160248201527f494e56414c49445f5349474e41545552450000000000000000000000000000006044820152606401610330565b846111b0576001600160601b034216600160a01b026001600160a01b038816178655611236565b84600114156111de576001600160601b034216600160a01b026001600160a01b038816176001870155611236565b846002141561120c576001600160601b034216600160a01b026001600160a01b038816176002870155611236565b8460031415611236576001600160601b034216600160a01b026001600160a01b0388161760038701555b6112418a6001611c8d565b6001600160a01b038c8116600081815260208181526040808320948d168084529482529182902063ffffffff95909516909455516001815290927f5e60402083b3427099886174996f295e5e29d12bbe871aef1041e9a4324cdb09910160405180910390a35050505050505050505050565b8015610620576040805180820190915260108082527f303132333435363738396162636465660000000000000000000000000000000060208301526112f89083611ccb565b8151811061130857611308611bb9565b01602001517fff0000000000000000000000000000000000000000000000000000000000000016838361133a81611cdf565b94508151811061134c5761134c611bb9565b60200101907effffffffffffffffffffffffffffffffffffffffffffffffffffffffffffff1916908160001a905350611386601082611cf6565b90506112b3565b80156106205760408051808201909152600a8082527f303132333435363738390000000000000000000000000000000000000000000060208301526113d29083611ccb565b815181106113e2576113e2611bb9565b01602001517fff0000000000000000000000000000000000000000000000000000000000000016838361141481611cdf565b94508151811061142657611426611bb9565b60200101907effffffffffffffffffffffffffffffffffffffffffffffffffffffffffffff1916908160001a905350611460600a82611cf6565b905061138d565b61016e8160405160240161147b9190611d0a565b60408051601f198184030181529190526020810180517bffffffffffffffffffffffffffffffffffffffffffffffffffffffff167f41304fac000000000000000000000000000000000000000000000000000000001790526114fc565b60008060006114e7858561151d565b915091506114f48161158d565b509392505050565b80516a636f6e736f6c652e6c6f67602083016000808483855afa5050505050565b6000808251604114156115545760208301516040840151606085015160001a6115488782858561177e565b94509450505050611586565b82516040141561157e576020830151604084015161157386838361186b565b935093505050611586565b506000905060025b9250929050565b60008160048111156115a1576115a1611d5f565b14156115aa5750565b60018160048111156115be576115be611d5f565b141561160c5760405162461bcd60e51b815260206004820152601860248201527f45434453413a20696e76616c6964207369676e617475726500000000000000006044820152606401610330565b600281600481111561162057611620611d5f565b141561166e5760405162461bcd60e51b815260206004820152601f60248201527f45434453413a20696e76616c6964207369676e6174757265206c656e677468006044820152606401610330565b600381600481111561168257611682611d5f565b14156116f65760405162461bcd60e51b815260206004820152602260248201527f45434453413a20696e76616c6964207369676e6174757265202773272076616c60448201527f75650000000000000000000000000000000000000000000000000000000000006064820152608401610330565b600481600481111561170a5761170a611d5f565b141561016e5760405162461bcd60e51b815260206004820152602260248201527f45434453413a20696e76616c6964207369676e6174757265202776272076616c60448201527f75650000000000000000000000000000000000000000000000000000000000006064820152608401610330565b6000807f7fffffffffffffffffffffffffffffff5d576e7357a4501ddfe92f46681b20a08311156117b55750600090506003611862565b8460ff16601b141580156117cd57508460ff16601c14155b156117de5750600090506004611862565b6040805160008082526020820180845289905260ff881692820192909252606081018690526080810185905260019060a0016020604051602081039080840390855afa158015611832573d6000803e3d6000fd5b5050604051601f1901519150506001600160a01b03811661185b57600060019250925050611862565b9150600090505b94509492505050565b6000807f7fffffffffffffffffffffffffffffffffffffffffffffffffffffffffffffff831660ff84901c601b016118a58782888561177e565b935093505050935093915050565b60405180608001604052806004905b60408051808201909152600080825260208201528152602001906001900390816118c25790505090565b6001600160a01b038116811461016e57600080fd5b60006020828403121561191357600080fd5b813561191e816118ec565b9392505050565b6000806040838503121561193857600080fd5b8235611943816118ec565b91506020830135611953816118ec565b809150509250929050565b60008083601f84011261197057600080fd5b50813567ffffffffffffffff81111561198857600080fd5b60208301915083602082850101111561158657600080fd5b6000806000604084860312156119b557600080fd5b83356119c0816118ec565b9250602084013567ffffffffffffffff8111156119dc57600080fd5b6119e88682870161195e565b9497909650939450505050565b803563ffffffff81168114611a0957600080fd5b919050565b60008060008060608587031215611a2457600080fd5b8435611a2f816118ec565b9350611a3d602086016119f5565b9250604085013567ffffffffffffffff811115611a5957600080fd5b611a658782880161195e565b95989497509550505050565b60008060208385031215611a8457600080fd5b823567ffffffffffffffff80821115611a9c57600080fd5b818501915085601f830112611ab057600080fd5b813581811115611abf57600080fd5b8660208260051b8501011115611ad457600080fd5b60209290920196919550909350505050565b600080600060608486031215611afb57600080fd5b8335611b06816118ec565b92506020840135611b16816118ec565b929592945050506040919091013590565b634e487b7160e01b600052601160045260246000fd5b6000600019821415611b5157611b51611b27565b5060010190565b6001600160a01b038416815260406020820152816040820152818360608301376000818301606090810191909152601f909201601f1916010192915050565b600060208284031215611ba957600080fd5b8151801515811461191e57600080fd5b634e487b7160e01b600052603260045260246000fd5b600082357fffffffffffffffffffffffffffffffffffffffffffffffffffffffffffffffa1833603018112611c0357600080fd5b9190910192915050565b600060208284031215611c1f57600080fd5b61191e826119f5565b60008083357fffffffffffffffffffffffffffffffffffffffffffffffffffffffffffffffe1843603018112611c5d57600080fd5b83018035915067ffffffffffffffff821115611c7857600080fd5b60200191503681900382131561158657600080fd5b600063ffffffff808316818516808303821115611cac57611cac611b27565b01949350505050565b634e487b7160e01b600052601260045260246000fd5b600082611cda57611cda611cb5565b500690565b600081611cee57611cee611b27565b506000190190565b600082611d0557611d05611cb5565b500490565b600060208083528351808285015260005b81811015611d3757858101830151858201604001528201611d1b565b81811115611d49576000604083870101525b50601f01601f1916929092016040019392505050565b634e487b7160e01b600052602160045260246000fdfea2646970667358221220ff2d0a7060e9ae164127ce53d72293e674c515f81742bc9879267741fbe8d8eb64736f6c63430008090033",
  "devdoc": {
    "kind": "dev",
    "methods": {},
    "version": 1
  },
  "userdoc": {
    "kind": "user",
    "methods": {},
    "version": 1
  },
  "storageLayout": {
    "storage": [
      {
        "astId": 9238,
        "contract": "src/AllianceRegistry.sol:AllianceRegistry",
        "label": "_allianceNonces",
        "offset": 0,
        "slot": "0",
        "type": "t_mapping(t_address,t_mapping(t_contract(IAlliance)14899,t_uint256))"
      },
      {
        "astId": 9262,
        "contract": "src/AllianceRegistry.sol:AllianceRegistry",
        "label": "_alliances",
        "offset": 0,
        "slot": "1",
        "type": "t_mapping(t_address,t_struct(Alliances)9257_storage)"
      }
    ],
    "types": {
      "t_address": {
        "encoding": "inplace",
        "label": "address",
        "numberOfBytes": "20"
      },
      "t_contract(IAlliance)14899": {
        "encoding": "inplace",
        "label": "contract IAlliance",
        "numberOfBytes": "20"
      },
      "t_mapping(t_address,t_mapping(t_contract(IAlliance)14899,t_uint256))": {
        "encoding": "mapping",
        "key": "t_address",
        "label": "mapping(address => mapping(contract IAlliance => uint256))",
        "numberOfBytes": "32",
        "value": "t_mapping(t_contract(IAlliance)14899,t_uint256)"
      },
      "t_mapping(t_address,t_struct(Alliances)9257_storage)": {
        "encoding": "mapping",
        "key": "t_address",
        "label": "mapping(address => struct AllianceRegistry.Alliances)",
        "numberOfBytes": "32",
        "value": "t_struct(Alliances)9257_storage"
      },
      "t_mapping(t_contract(IAlliance)14899,t_uint256)": {
        "encoding": "mapping",
        "key": "t_contract(IAlliance)14899",
        "label": "mapping(contract IAlliance => uint256)",
        "numberOfBytes": "32",
        "value": "t_uint256"
      },
      "t_struct(AllianceRow)9244_storage": {
        "encoding": "inplace",
        "label": "struct AllianceRegistry.AllianceRow",
        "members": [
          {
            "astId": 9241,
            "contract": "src/AllianceRegistry.sol:AllianceRegistry",
            "label": "alliance",
            "offset": 0,
            "slot": "0",
            "type": "t_contract(IAlliance)14899"
          },
          {
            "astId": 9243,
            "contract": "src/AllianceRegistry.sol:AllianceRegistry",
            "label": "joinTime",
            "offset": 20,
            "slot": "0",
            "type": "t_uint96"
          }
        ],
        "numberOfBytes": "32"
      },
      "t_struct(Alliances)9257_storage": {
        "encoding": "inplace",
        "label": "struct AllianceRegistry.Alliances",
        "members": [
          {
            "astId": 9247,
            "contract": "src/AllianceRegistry.sol:AllianceRegistry",
            "label": "alliance0",
            "offset": 0,
            "slot": "0",
            "type": "t_struct(AllianceRow)9244_storage"
          },
          {
            "astId": 9250,
            "contract": "src/AllianceRegistry.sol:AllianceRegistry",
            "label": "alliance1",
            "offset": 0,
            "slot": "1",
            "type": "t_struct(AllianceRow)9244_storage"
          },
          {
            "astId": 9253,
            "contract": "src/AllianceRegistry.sol:AllianceRegistry",
            "label": "alliance2",
            "offset": 0,
            "slot": "2",
            "type": "t_struct(AllianceRow)9244_storage"
          },
          {
            "astId": 9256,
            "contract": "src/AllianceRegistry.sol:AllianceRegistry",
            "label": "alliance3",
            "offset": 0,
            "slot": "3",
            "type": "t_struct(AllianceRow)9244_storage"
          }
        ],
        "numberOfBytes": "128"
      },
      "t_uint256": {
        "encoding": "inplace",
        "label": "uint256",
        "numberOfBytes": "32"
      },
      "t_uint96": {
        "encoding": "inplace",
        "label": "uint96",
        "numberOfBytes": "12"
      }
    }
  }
}