{
  "address": "0x34c2FAF41326247eF75fA315C7762b2d00aAf899",
  "abi": [
    {
      "inputs": [
        {
          "internalType": "contract IERC20",
          "name": "stakingToken",
          "type": "address"
        },
        {
          "internalType": "bytes32",
          "name": "genesis",
          "type": "bytes32"
        },
        {
          "internalType": "uint32",
          "name": "resolveWindow",
          "type": "uint32"
        },
        {
          "internalType": "uint32",
          "name": "timePerDistance",
          "type": "uint32"
        },
        {
          "internalType": "uint32",
          "name": "exitDuration",
          "type": "uint32"
        },
        {
          "internalType": "uint32",
          "name": "acquireNumSpaceships",
          "type": "uint32"
        },
        {
          "internalType": "uint32",
          "name": "productionSpeedUp",
          "type": "uint32"
        }
      ],
      "stateMutability": "nonpayable",
      "type": "constructor"
    },
    {
      "anonymous": false,
      "inputs": [
        {
          "indexed": true,
          "internalType": "address",
          "name": "owner",
          "type": "address"
        },
        {
          "indexed": true,
          "internalType": "address",
          "name": "operator",
          "type": "address"
        },
        {
          "indexed": false,
          "internalType": "bool",
          "name": "approved",
          "type": "bool"
        }
      ],
      "name": "ApprovalForAll",
      "type": "event"
    },
    {
      "anonymous": false,
      "inputs": [
        {
          "indexed": true,
          "internalType": "uint256",
          "name": "fleet",
          "type": "uint256"
        },
        {
          "indexed": true,
          "internalType": "address",
          "name": "fleetOwner",
          "type": "address"
        },
        {
          "indexed": true,
          "internalType": "address",
          "name": "destinationOwner",
          "type": "address"
        },
        {
          "indexed": false,
          "internalType": "uint256",
          "name": "destination",
          "type": "uint256"
        },
        {
          "indexed": false,
          "internalType": "uint32",
          "name": "fleetLoss",
          "type": "uint32"
        },
        {
          "indexed": false,
          "internalType": "uint32",
          "name": "planetLoss",
          "type": "uint32"
        },
        {
          "indexed": false,
          "internalType": "uint32",
          "name": "inFlightFleetLoss",
          "type": "uint32"
        },
        {
          "indexed": false,
          "internalType": "uint32",
          "name": "inFlightPlanetLoss",
          "type": "uint32"
        },
        {
          "indexed": false,
          "internalType": "bool",
          "name": "won",
          "type": "bool"
        },
        {
          "indexed": false,
          "internalType": "uint32",
          "name": "newNumspaceships",
          "type": "uint32"
        }
      ],
      "name": "FleetArrived",
      "type": "event"
    },
    {
      "anonymous": false,
      "inputs": [
        {
          "indexed": true,
          "internalType": "address",
          "name": "fleetOwner",
          "type": "address"
        },
        {
          "indexed": true,
          "internalType": "uint256",
          "name": "from",
          "type": "uint256"
        },
        {
          "indexed": false,
          "internalType": "uint256",
          "name": "fleet",
          "type": "uint256"
        },
        {
          "indexed": false,
          "internalType": "uint32",
          "name": "quantity",
          "type": "uint32"
        },
        {
          "indexed": false,
          "internalType": "uint32",
          "name": "newNumSpaceships",
          "type": "uint32"
        }
      ],
      "name": "FleetSent",
      "type": "event"
    },
    {
      "anonymous": false,
      "inputs": [
        {
          "indexed": true,
          "internalType": "address",
          "name": "owner",
          "type": "address"
        },
        {
          "indexed": true,
          "internalType": "uint256",
          "name": "location",
          "type": "uint256"
        }
      ],
      "name": "PlanetExit",
      "type": "event"
    },
    {
      "anonymous": false,
      "inputs": [
        {
          "indexed": true,
          "internalType": "address",
          "name": "acquirer",
          "type": "address"
        },
        {
          "indexed": true,
          "internalType": "uint256",
          "name": "location",
          "type": "uint256"
        },
        {
          "indexed": false,
          "internalType": "uint32",
          "name": "numSpaceships",
          "type": "uint32"
        }
      ],
      "name": "PlanetStake",
      "type": "event"
    },
    {
      "anonymous": false,
      "inputs": [
        {
          "indexed": true,
          "internalType": "address",
          "name": "owner",
          "type": "address"
        },
        {
          "indexed": false,
          "internalType": "uint256",
          "name": "newStake",
          "type": "uint256"
        }
      ],
      "name": "StakeToWithdraw",
      "type": "event"
    },
    {
      "inputs": [
        {
          "internalType": "uint256",
          "name": "location",
          "type": "uint256"
        },
        {
          "internalType": "uint256",
          "name": "amount",
          "type": "uint256"
        }
      ],
      "name": "acquireViaTransferFrom",
      "outputs": [],
      "stateMutability": "nonpayable",
      "type": "function"
    },
    {
      "inputs": [
        {
          "internalType": "address",
          "name": "owner",
          "type": "address"
        }
      ],
      "name": "balanceToWithdraw",
      "outputs": [
        {
          "internalType": "uint256",
          "name": "",
          "type": "uint256"
        }
      ],
      "stateMutability": "view",
      "type": "function"
    },
    {
      "inputs": [
        {
          "internalType": "address",
          "name": "owner",
          "type": "address"
        },
        {
          "internalType": "uint256",
          "name": "location",
          "type": "uint256"
        }
      ],
      "name": "exitFor",
      "outputs": [],
      "stateMutability": "nonpayable",
      "type": "function"
    },
    {
      "inputs": [
        {
          "internalType": "address",
          "name": "owner",
          "type": "address"
        },
        {
          "internalType": "uint256[]",
          "name": "locations",
          "type": "uint256[]"
        }
      ],
      "name": "fetchAndWithdrawFor",
      "outputs": [],
      "stateMutability": "nonpayable",
      "type": "function"
    },
    {
      "inputs": [],
      "name": "getDiscovered",
      "outputs": [
        {
          "components": [
            {
              "internalType": "uint32",
              "name": "minX",
              "type": "uint32"
            },
            {
              "internalType": "uint32",
              "name": "maxX",
              "type": "uint32"
            },
            {
              "internalType": "uint32",
              "name": "minY",
              "type": "uint32"
            },
            {
              "internalType": "uint32",
              "name": "maxY",
              "type": "uint32"
            }
          ],
          "internalType": "struct OuterSpace.Discovered",
          "name": "",
          "type": "tuple"
        }
      ],
      "stateMutability": "view",
      "type": "function"
    },
    {
      "inputs": [
        {
          "internalType": "uint256",
          "name": "fleetId",
          "type": "uint256"
        },
        {
          "internalType": "uint256",
          "name": "from",
          "type": "uint256"
        }
      ],
      "name": "getFleet",
      "outputs": [
        {
          "internalType": "address",
          "name": "owner",
          "type": "address"
        },
        {
          "internalType": "uint32",
          "name": "launchTime",
          "type": "uint32"
        },
        {
          "internalType": "uint32",
          "name": "quantity",
          "type": "uint32"
        },
        {
          "internalType": "uint64",
          "name": "flyingAtLaunch",
          "type": "uint64"
        },
        {
          "internalType": "uint64",
          "name": "destroyedAtLaunch",
          "type": "uint64"
        }
      ],
      "stateMutability": "view",
      "type": "function"
    },
    {
      "inputs": [],
      "name": "getGeneisHash",
      "outputs": [
        {
          "internalType": "bytes32",
          "name": "",
          "type": "bytes32"
        }
      ],
      "stateMutability": "view",
      "type": "function"
    },
    {
      "inputs": [
        {
          "internalType": "uint256",
          "name": "location",
          "type": "uint256"
        }
      ],
      "name": "getPlanet",
      "outputs": [
        {
          "components": [
            {
              "internalType": "address",
              "name": "owner",
              "type": "address"
            },
            {
              "internalType": "uint32",
              "name": "exitTime",
              "type": "uint32"
            },
            {
              "internalType": "uint32",
              "name": "numSpaceships",
              "type": "uint32"
            },
            {
              "internalType": "uint32",
              "name": "lastUpdated",
              "type": "uint32"
            },
            {
              "internalType": "bool",
              "name": "active",
              "type": "bool"
            }
          ],
          "internalType": "struct OuterSpace.ExternalPlanet",
          "name": "state",
          "type": "tuple"
        },
        {
          "components": [
            {
              "internalType": "int8",
              "name": "subX",
              "type": "int8"
            },
            {
              "internalType": "int8",
              "name": "subY",
              "type": "int8"
            },
            {
              "internalType": "uint16",
              "name": "stake",
              "type": "uint16"
            },
            {
              "internalType": "uint16",
              "name": "production",
              "type": "uint16"
            },
            {
              "internalType": "uint16",
              "name": "attack",
              "type": "uint16"
            },
            {
              "internalType": "uint16",
              "name": "defense",
              "type": "uint16"
            },
            {
              "internalType": "uint16",
              "name": "speed",
              "type": "uint16"
            },
            {
              "internalType": "uint16",
              "name": "natives",
              "type": "uint16"
            }
          ],
          "internalType": "struct OuterSpace.PlanetStats",
          "name": "stats",
          "type": "tuple"
        }
      ],
      "stateMutability": "view",
      "type": "function"
    },
    {
      "inputs": [
        {
          "internalType": "uint256[]",
          "name": "locations",
          "type": "uint256[]"
        }
      ],
      "name": "getPlanetStates",
      "outputs": [
        {
          "components": [
            {
              "internalType": "address",
              "name": "owner",
              "type": "address"
            },
            {
              "internalType": "uint32",
              "name": "exitTime",
              "type": "uint32"
            },
            {
              "internalType": "uint32",
              "name": "numSpaceships",
              "type": "uint32"
            },
            {
              "internalType": "uint32",
              "name": "lastUpdated",
              "type": "uint32"
            },
            {
              "internalType": "bool",
              "name": "active",
              "type": "bool"
            }
          ],
          "internalType": "struct OuterSpace.ExternalPlanet[]",
          "name": "planetStates",
          "type": "tuple[]"
        },
        {
          "components": [
            {
              "internalType": "uint32",
              "name": "minX",
              "type": "uint32"
            },
            {
              "internalType": "uint32",
              "name": "maxX",
              "type": "uint32"
            },
            {
              "internalType": "uint32",
              "name": "minY",
              "type": "uint32"
            },
            {
              "internalType": "uint32",
              "name": "maxY",
              "type": "uint32"
            }
          ],
          "internalType": "struct OuterSpace.Discovered",
          "name": "discovered",
          "type": "tuple"
        }
      ],
      "stateMutability": "view",
      "type": "function"
    },
    {
      "inputs": [
        {
          "internalType": "address",
          "name": "",
          "type": "address"
        },
        {
          "internalType": "address",
          "name": "forAddress",
          "type": "address"
        },
        {
          "internalType": "uint256",
          "name": "amount",
          "type": "uint256"
        },
        {
          "internalType": "bytes",
          "name": "data",
          "type": "bytes"
        }
      ],
      "name": "onTokenPaidFor",
      "outputs": [
        {
          "internalType": "bool",
          "name": "",
          "type": "bool"
        }
      ],
      "stateMutability": "nonpayable",
      "type": "function"
    },
    {
      "inputs": [
        {
          "internalType": "address",
          "name": "",
          "type": "address"
        },
        {
          "internalType": "uint256",
          "name": "amount",
          "type": "uint256"
        },
        {
          "internalType": "bytes",
          "name": "data",
          "type": "bytes"
        }
      ],
      "name": "onTokenTransfer",
      "outputs": [
        {
          "internalType": "bool",
          "name": "",
          "type": "bool"
        }
      ],
      "stateMutability": "nonpayable",
      "type": "function"
    },
    {
      "inputs": [
        {
          "internalType": "contract IERC20",
          "name": "",
          "type": "address"
        },
        {
          "internalType": "bytes32",
          "name": "",
          "type": "bytes32"
        },
        {
          "internalType": "uint32",
          "name": "",
          "type": "uint32"
        },
        {
          "internalType": "uint32",
          "name": "",
          "type": "uint32"
        },
        {
          "internalType": "uint32",
          "name": "",
          "type": "uint32"
        },
        {
          "internalType": "uint32",
          "name": "",
          "type": "uint32"
        },
        {
          "internalType": "uint32",
          "name": "",
          "type": "uint32"
        }
      ],
      "name": "postUpgrade",
      "outputs": [],
      "stateMutability": "nonpayable",
      "type": "function"
    },
    {
      "inputs": [
        {
          "internalType": "uint256",
          "name": "fleetId",
          "type": "uint256"
        },
        {
          "internalType": "uint256",
          "name": "from",
          "type": "uint256"
        },
        {
          "internalType": "uint256",
          "name": "to",
          "type": "uint256"
        },
        {
          "internalType": "uint256",
          "name": "distance",
          "type": "uint256"
        },
        {
          "internalType": "bytes32",
          "name": "secret",
          "type": "bytes32"
        }
      ],
      "name": "resolveFleet",
      "outputs": [],
      "stateMutability": "nonpayable",
      "type": "function"
    },
    {
      "inputs": [
        {
          "internalType": "uint256",
          "name": "from",
          "type": "uint256"
        },
        {
          "internalType": "uint32",
          "name": "quantity",
          "type": "uint32"
        },
        {
          "internalType": "bytes32",
          "name": "toHash",
          "type": "bytes32"
        }
      ],
      "name": "send",
      "outputs": [],
      "stateMutability": "nonpayable",
      "type": "function"
    },
    {
      "inputs": [
        {
          "internalType": "address",
          "name": "owner",
          "type": "address"
        },
        {
          "internalType": "uint256",
          "name": "from",
          "type": "uint256"
        },
        {
          "internalType": "uint32",
          "name": "quantity",
          "type": "uint32"
        },
        {
          "internalType": "bytes32",
          "name": "toHash",
          "type": "bytes32"
        }
      ],
      "name": "sendFor",
      "outputs": [],
      "stateMutability": "nonpayable",
      "type": "function"
    },
    {
      "inputs": [
        {
          "internalType": "address",
          "name": "operator",
          "type": "address"
        },
        {
          "internalType": "bool",
          "name": "approved",
          "type": "bool"
        }
      ],
      "name": "setApprovalForAll",
      "outputs": [],
      "stateMutability": "nonpayable",
      "type": "function"
    },
    {
      "inputs": [
        {
          "internalType": "address",
          "name": "owner",
          "type": "address"
        }
      ],
      "name": "withdrawFor",
      "outputs": [],
      "stateMutability": "nonpayable",
      "type": "function"
    }
  ],
  "transactionHash": "0x66d943ae543f9f3796120658cafaa46904bfcfd8506d76c340ed1b0dd5a44e6b",
  "args": [
    "0xDAfbffa870778673EdeC657f1Da2F68085816916",
    "0xe0c3fa9ae97fc9b60baae605896b5e3e7cecb6baaaa4708162d1ec51e8d65a68",
    7200,
    7200,
    259200,
    100000,
    1
  ],
  "linkedData": {
    "genesisHash": "0xe0c3fa9ae97fc9b60baae605896b5e3e7cecb6baaaa4708162d1ec51e8d65a68",
    "resolveWindow": 7200,
    "timePerDistance": 7200,
    "exitDuration": 259200,
    "acquireNumSpaceships": 100000,
    "productionSpeedUp": 1
  },
  "solcInputHash": "4dc306e1e47e6f4403a13bb5adee8750",
  "bytecode": "0x6101606040523480156200001257600080fd5b5060405162005d9938038062005d9983398181016040528101906200003891906200039e565b600060048563ffffffff16816200004b57fe5b0490508463ffffffff166004820263ffffffff1614620000a2576040517f08c379a000000000000000000000000000000000000000000000000000000000815260040162000099906200048d565b60405180910390fd5b8773ffffffffffffffffffffffffffffffffffffffff1660a08173ffffffffffffffffffffffffffffffffffffffff1660601b8152505086608081815250508563ffffffff1660c081815250508063ffffffff1660e081815250508363ffffffff1661010081815250508263ffffffff166101208163ffffffff1660e01b815250508163ffffffff166101408163ffffffff1660e01b8152505062000153888888888888886200016160201b60201c565b505050505050505062000570565b6000620001736200033060201b60201c565b9050600073ffffffffffffffffffffffffffffffffffffffff168173ffffffffffffffffffffffffffffffffffffffff161415620001e85773ffffffffffffffffffffffffffffffffffffffff7fb53127684a568b3173ae13b9f8a6016e243e63b6e8ee1178d6a717850b5d61035562000222565b8073ffffffffffffffffffffffffffffffffffffffff163373ffffffffffffffffffffffffffffffffffffffff16146200022157600080fd5b5b6000600560000160009054906101000a900463ffffffff1663ffffffff16141562000326576040518060800160405280600c63ffffffff168152602001600c63ffffffff168152602001600c63ffffffff168152602001600c63ffffffff16815250600560008201518160000160006101000a81548163ffffffff021916908363ffffffff16021790555060208201518160000160046101000a81548163ffffffff021916908363ffffffff16021790555060408201518160000160086101000a81548163ffffffff021916908363ffffffff160217905550606082015181600001600c6101000a81548163ffffffff021916908363ffffffff1602179055509050505b5050505050505050565b60007fb53127684a568b3173ae13b9f8a6016e243e63b6e8ee1178d6a717850b5d610354905090565b6000815190506200036a8162000522565b92915050565b60008151905062000381816200053c565b92915050565b600081519050620003988162000556565b92915050565b600080600080600080600060e0888a031215620003ba57600080fd5b6000620003ca8a828b0162000370565b9750506020620003dd8a828b0162000359565b9650506040620003f08a828b0162000387565b9550506060620004038a828b0162000387565b9450506080620004168a828b0162000387565b93505060a0620004298a828b0162000387565b92505060c06200043c8a828b0162000387565b91505092959891949750929550565b60006200045a601d83620004af565b91507f54494d455f5045525f444953545f4e4f545f444956495349424c455f340000006000830152602082019050919050565b60006020820190508181036000830152620004a8816200044b565b9050919050565b600082825260208201905092915050565b6000620004cd82620004f2565b9050919050565b6000819050919050565b6000620004eb82620004c0565b9050919050565b600073ffffffffffffffffffffffffffffffffffffffff82169050919050565b600063ffffffff82169050919050565b6200052d81620004d4565b81146200053957600080fd5b50565b6200054781620004de565b81146200055357600080fd5b50565b620005618162000512565b81146200056d57600080fd5b50565b60805160a05160601c60c05160e051610100516101205160e01c6101405160e01c6157a4620005f560003980611e0b5250806122c5528061235a52806123a05280612410528061243a525080611c3a5250806130cc52508061314552508061077852806108575280610a6f528061191052508061082f5280611d5352506157a46000f3fe608060405234801561001057600080fd5b506004361061010b5760003560e01c8063a22cb465116100a2578063b92ce46711610071578063b92ce467146102b4578063c5aaa0ae146102d0578063c9560838146102ee578063e2e9b0791461031e578063ee5433931461033a5761010b565b8063a22cb4651461021b578063a4c0ed3614610237578063aba789f514610267578063afc82370146102985761010b565b80637ba423fb116100de5780637ba423fb146101955780637cef64d8146101b15780639b6be065146101cf5780639eca672c146101ff5761010b565b8063112e68511461011057806334efcb8e1461012c57806361f018c01461015d578063653d498314610179575b600080fd5b61012a6004803603810190610125919061478f565b61036e565b005b610146600480360381019061014191906146b3565b610386565b6040516101549291906154b4565b60405180910390f35b61017760048036038101906101729190614544565b610479565b005b610193600480360381019061018e9190614615565b61059c565b005b6101af60048036038101906101aa91906146dc565b61075f565b005b6101b961082b565b6040516101c691906151be565b60405180910390f35b6101e960048036038101906101e49190614388565b610853565b6040516101f691906151a3565b60405180910390f35b61021960048036038101906102149190614323565b61090f565b005b61023560048036038101906102309190614460565b610961565b005b610251600480360381019061024c91906144d8565b610a6b565b60405161025e91906151a3565b60405180910390f35b610281600480360381019061027c91906145a7565b610b2a565b60405161028f929190615173565b60405180910390f35b6102b260048036038101906102ad919061449c565b610d4f565b005b6102ce60048036038101906102c99190614718565b610eb7565b005b6102d8610ecb565b6040516102e59190615499565b60405180910390f35b61030860048036038101906103039190614323565b610f7d565b60405161031591906154de565b60405180910390f35b61033860048036038101906103339190614408565b610fc6565b005b610354600480360381019061034f91906146dc565b611133565b604051610365959493929190615120565b60405180910390f35b61038161037961126d565b848484611275565b505050565b61038e613f9e565b610396613ff7565b60006103a1846116f6565b90506000806103c38360000160189054906101000a900463ffffffff16611711565b915091506040518060a001604052808460000160009054906101000a900473ffffffffffffffffffffffffffffffffffffffff1673ffffffffffffffffffffffffffffffffffffffff1681526020018460000160149054906101000a900463ffffffff1663ffffffff1681526020018263ffffffff16815260200184600001601c9054906101000a900463ffffffff1663ffffffff168152602001831515815250945061046f86611750565b9350505050915091565b600061048361126d565b90508473ffffffffffffffffffffffffffffffffffffffff168173ffffffffffffffffffffffffffffffffffffffff161461058257600360008673ffffffffffffffffffffffffffffffffffffffff1673ffffffffffffffffffffffffffffffffffffffff16815260200190815260200160002060008273ffffffffffffffffffffffffffffffffffffffff1673ffffffffffffffffffffffffffffffffffffffff16815260200190815260200160002060009054906101000a900460ff16610581576040517f08c379a000000000000000000000000000000000000000000000000000000000815260040161057890615439565b60405180910390fd5b5b61059561058d61126d565b858585611275565b5050505050565b60006105a661184f565b9050600073ffffffffffffffffffffffffffffffffffffffff168173ffffffffffffffffffffffffffffffffffffffff1614156106195773ffffffffffffffffffffffffffffffffffffffff7fb53127684a568b3173ae13b9f8a6016e243e63b6e8ee1178d6a717850b5d610355610652565b8073ffffffffffffffffffffffffffffffffffffffff163373ffffffffffffffffffffffffffffffffffffffff161461065157600080fd5b5b6000600560000160009054906101000a900463ffffffff1663ffffffff161415610755576040518060800160405280600c63ffffffff168152602001600c63ffffffff168152602001600c63ffffffff168152602001600c63ffffffff16815250600560008201518160000160006101000a81548163ffffffff021916908363ffffffff16021790555060208201518160000160046101000a81548163ffffffff021916908363ffffffff16021790555060408201518160000160086101000a81548163ffffffff021916908363ffffffff160217905550606082015181600001600c6101000a81548163ffffffff021916908363ffffffff1602179055509050505b5050505050505050565b600061076961126d565b9050610776818385611878565b7f000000000000000000000000000000000000000000000000000000000000000073ffffffffffffffffffffffffffffffffffffffff166323b872dd8230856040518463ffffffff1660e01b81526004016107d3939291906150c0565b602060405180830381600087803b1580156107ed57600080fd5b505af1158015610801573d6000803e3d6000fd5b505050506040513d601f19601f8201168201806040525081019061082591906145ec565b50505050565b60007f0000000000000000000000000000000000000000000000000000000000000000905090565b60007f000000000000000000000000000000000000000000000000000000000000000073ffffffffffffffffffffffffffffffffffffffff163373ffffffffffffffffffffffffffffffffffffffff16146108e3576040517f08c379a00000000000000000000000000000000000000000000000000000000081526004016108da90615239565b60405180910390fd5b600083838101906108f491906146b3565b9050610901868683611878565b600191505095945050505050565b6000600260008373ffffffffffffffffffffffffffffffffffffffff1673ffffffffffffffffffffffffffffffffffffffff16815260200190815260200160002054905061095d8282611903565b5050565b600061096b61126d565b905081600360008373ffffffffffffffffffffffffffffffffffffffff1673ffffffffffffffffffffffffffffffffffffffff16815260200190815260200160002060008573ffffffffffffffffffffffffffffffffffffffff1673ffffffffffffffffffffffffffffffffffffffff16815260200190815260200160002060006101000a81548160ff0219169083151502179055508273ffffffffffffffffffffffffffffffffffffffff168173ffffffffffffffffffffffffffffffffffffffff167f17307eab39ab6107e8899845ad3d59bd9653f200f220920489ca2b5937696c3184604051610a5e91906151a3565b60405180910390a3505050565b60007f000000000000000000000000000000000000000000000000000000000000000073ffffffffffffffffffffffffffffffffffffffff163373ffffffffffffffffffffffffffffffffffffffff1614610afb576040517f08c379a0000000000000000000000000000000000000000000000000000000008152600401610af290615239565b60405180910390fd5b6000808484810190610b0d919061434c565b91509150610b1c828783611878565b600192505050949350505050565b6060610b34614058565b8383905067ffffffffffffffff81118015610b4e57600080fd5b50604051908082528060200260200182016040528015610b8857816020015b610b75613f9e565b815260200190600190039081610b6d5790505b50915060005b84849050811015610ca0576000610bb6868684818110610baa57fe5b905060200201356116f6565b9050600080610bd88360000160189054906101000a900463ffffffff16611711565b915091506040518060a001604052808460000160009054906101000a900473ffffffffffffffffffffffffffffffffffffffff1673ffffffffffffffffffffffffffffffffffffffff1681526020018460000160149054906101000a900463ffffffff1663ffffffff1681526020018263ffffffff16815260200184600001601c9054906101000a900463ffffffff1663ffffffff168152602001831515815250868581518110610c8557fe5b60200260200101819052505050508080600101915050610b8e565b5060056040518060800160405290816000820160009054906101000a900463ffffffff1663ffffffff1663ffffffff1681526020016000820160049054906101000a900463ffffffff1663ffffffff1663ffffffff1681526020016000820160089054906101000a900463ffffffff1663ffffffff1663ffffffff16815260200160008201600c9054906101000a900463ffffffff1663ffffffff1663ffffffff168152505090509250929050565b6000610d5a826116f6565b90508060000160009054906101000a900473ffffffffffffffffffffffffffffffffffffffff1673ffffffffffffffffffffffffffffffffffffffff168373ffffffffffffffffffffffffffffffffffffffff1614610dee576040517f08c379a0000000000000000000000000000000000000000000000000000000008152600401610de5906153d9565b60405180910390fd5b60008160000160149054906101000a900463ffffffff1663ffffffff1614610e4b576040517f08c379a0000000000000000000000000000000000000000000000000000000008152600401610e42906151f9565b60405180910390fd5b428160000160146101000a81548163ffffffff021916908363ffffffff160217905550818373ffffffffffffffffffffffffffffffffffffffff167fb9182e4e152947f1e6691fa0ee6f68f21f607fed825945c270e69995acad805f60405160405180910390a3505050565b610ec485858585856119fe565b5050505050565b610ed3614058565b60056040518060800160405290816000820160009054906101000a900463ffffffff1663ffffffff1663ffffffff1681526020016000820160049054906101000a900463ffffffff1663ffffffff1663ffffffff1681526020016000820160089054906101000a900463ffffffff1663ffffffff1663ffffffff16815260200160008201600c9054906101000a900463ffffffff1663ffffffff1663ffffffff1681525050905090565b6000600260008373ffffffffffffffffffffffffffffffffffffffff1673ffffffffffffffffffffffffffffffffffffffff168152602001908152602001600020549050919050565b6000805b838390508110156110db576000610ff2858584818110610fe657fe5b905060200201356116f6565b90506110118160000160149054906101000a900463ffffffff16611c26565b156110cd578060000160009054906101000a900473ffffffffffffffffffffffffffffffffffffffff1673ffffffffffffffffffffffffffffffffffffffff168673ffffffffffffffffffffffffffffffffffffffff16146110a8576040517f08c379a000000000000000000000000000000000000000000000000000000000815260040161109f906153d9565b60405180910390fd5b6110c88585848181106110b757fe5b905060200201358783600080611c6b565b830192505b508080600101915050610fca565b50600081600260008773ffffffffffffffffffffffffffffffffffffffff1673ffffffffffffffffffffffffffffffffffffffff1681526020019081526020016000205401905061112c8582611903565b5050505050565b60008060008060006001600088815260200190815260200160002060000160149054906101000a900463ffffffff1693506001600088815260200190815260200160002060000160189054906101000a900463ffffffff1692506001600088815260200190815260200160002060000160009054906101000a900473ffffffffffffffffffffffffffffffffffffffff16945060006002610708816111d457fe5b048563ffffffff16816111e357fe5b04905060046000888152602001908152602001600020600082815260200190815260200160002060000160089054906101000a900467ffffffffffffffff16915060046000888152602001908152602001600020600082815260200190815260200160002060000160009054906101000a900467ffffffffffffffff169250509295509295909350565b600033905090565b6000611280846116f6565b905060008160000160149054906101000a900463ffffffff1663ffffffff16146112df576040517f08c379a00000000000000000000000000000000000000000000000000000000081526004016112d690615259565b60405180910390fd5b8060000160009054906101000a900473ffffffffffffffffffffffffffffffffffffffff1673ffffffffffffffffffffffffffffffffffffffff168573ffffffffffffffffffffffffffffffffffffffff1614611371576040517f08c379a0000000000000000000000000000000000000000000000000000000008152600401611368906153d9565b60405180910390fd5b600061137c85611d4f565b9050600061138982611da1565b90506000806113c78560000160189054906101000a900463ffffffff1686600001601c9054906101000a900463ffffffff1663ffffffff1685611de3565b915091508663ffffffff168163ffffffff16101561141a576040517f08c379a000000000000000000000000000000000000000000000000000000000815260040161141190615219565b60405180910390fd5b600060026107088161142857fe5b04428161143157fe5b0490506000600460008b8152602001908152602001600020600083815260200190815260200160002060000160009054906101000a900467ffffffffffffffff1690508863ffffffff16810190508863ffffffff168167ffffffffffffffff1610156114d2576040517f08c379a00000000000000000000000000000000000000000000000000000000081526004016114c9906153b9565b60405180910390fd5b80600460008c8152602001908152602001600020600084815260200190815260200160002060000160006101000a81548167ffffffffffffffff021916908367ffffffffffffffff160217905550600042905060008a850390506115368682611e7a565b8960000160186101000a81548163ffffffff021916908363ffffffff1602179055508189600001601c6101000a81548163ffffffff021916908363ffffffff16021790555060008a8d604051602001611590929190615094565b6040516020818303038152906040528051906020012060001c905060405180606001604052808f73ffffffffffffffffffffffffffffffffffffffff1681526020018463ffffffff1681526020018d63ffffffff168152506001600083815260200190815260200160002060008201518160000160006101000a81548173ffffffffffffffffffffffffffffffffffffffff021916908373ffffffffffffffffffffffffffffffffffffffff16021790555060208201518160000160146101000a81548163ffffffff021916908363ffffffff16021790555060408201518160000160186101000a81548163ffffffff021916908363ffffffff1602179055509050508c8e73ffffffffffffffffffffffffffffffffffffffff167fd7da2af85ac97f64039a5304a609fe0eb346f04985c4fd55e0d9b10b8b886ee7838f866040516116de939291906154f9565b60405180910390a35050505050505050505050505050565b60008060008381526020019081526020016000209050919050565b600080638000000063ffffffff166380000000841663ffffffff16149150638000000063ffffffff168363ffffffff168161174857fe5b069050915091565b611758613ff7565b600061176383611d4f565b905061176e81611e98565b6117ad576040517f08c379a00000000000000000000000000000000000000000000000000000000081526004016117a490615299565b60405180910390fd5b6000806117b983611ebe565b915091506040518061010001604052808360000b81526020018260000b81526020016117e485611efe565b61ffff1681526020016117f685611da1565b61ffff16815260200161180885611fdb565b61ffff16815260200161181a85612003565b61ffff16815260200161182c8561202b565b61ffff16815260200161183e85612053565b61ffff168152509350505050919050565b60007fb53127684a568b3173ae13b9f8a6016e243e63b6e8ee1178d6a717850b5d610354905090565b6118848160001b61207b565b600061188f82611d4f565b9050670de0b6b3a76400006118a382611efe565b61ffff160283146118e9576040517f08c379a00000000000000000000000000000000000000000000000000000000081526004016118e090615459565b60405180910390fd5b6118f4848383612114565b6118fd8261250c565b50505050565b61190e82600061292c565b7f000000000000000000000000000000000000000000000000000000000000000073ffffffffffffffffffffffffffffffffffffffff1663a9059cbb83836040518363ffffffff1660e01b81526004016119699291906150f7565b602060405180830381600087803b15801561198357600080fd5b505af1158015611997573d6000803e3d6000fd5b505050506040513d601f19601f820116820180604052508101906119bb91906145ec565b6119fa576040517f08c379a00000000000000000000000000000000000000000000000000000000081526004016119f1906152b9565b60405180910390fd5b5050565b611a06614098565b600160008781526020019081526020016000206040518060600160405290816000820160009054906101000a900473ffffffffffffffffffffffffffffffffffffffff1673ffffffffffffffffffffffffffffffffffffffff1673ffffffffffffffffffffffffffffffffffffffff1681526020016000820160149054906101000a900463ffffffff1663ffffffff1663ffffffff1681526020016000820160189054906101000a900463ffffffff1663ffffffff1663ffffffff16815250509050600080611ad98389898989896129c2565b91509150611ae56140db565b611aee876116f6565b6040518060800160405290816000820160009054906101000a900473ffffffffffffffffffffffffffffffffffffffff1673ffffffffffffffffffffffffffffffffffffffff1673ffffffffffffffffffffffffffffffffffffffff1681526020016000820160149054906101000a900463ffffffff1663ffffffff1663ffffffff1681526020016000820160189054906101000a900463ffffffff1663ffffffff1663ffffffff16815260200160008201601c9054906101000a900463ffffffff1663ffffffff1663ffffffff16815250509050611be584600001518a83600001518a611bdf898e888f8c612ae9565b87612b61565b6000600160008b815260200190815260200160002060000160186101000a81548163ffffffff021916908363ffffffff160217905550505050505050505050565b6000808263ffffffff16118015611c6457507f00000000000000000000000000000000000000000000000000000000000000008263ffffffff160142115b9050919050565b600080611c7787611d4f565b90506000611c8482611efe565b905060008660000160146101000a81548163ffffffff021916908363ffffffff160217905550848660000160006101000a81548173ffffffffffffffffffffffffffffffffffffffff021916908373ffffffffffffffffffffffffffffffffffffffff1602179055504286600001601c6101000a81548163ffffffff021916908363ffffffff160217905550838660000160186101000a81548163ffffffff021916908363ffffffff160217905550670de0b6b3a76400008161ffff16029250505095945050505050565b60007f000000000000000000000000000000000000000000000000000000000000000082604051602001611d84929190615094565b604051602081830303815290604052805190602001209050919050565b6000611ddc600c7f0708083409600a8c0bb80ce40e100e100e100e101068151819c81e7823282ee060001b84612bef9092919063ffffffff16565b9050919050565b600080611def85611711565b80925081935050508115611e7257600084420390506000610e107f000000000000000000000000000000000000000000000000000000000000000063ffffffff168661ffff1684020281611e3f57fe5b048363ffffffff16019050638000000063ffffffff168110611e6c57600163800000000363ffffffff1690505b80925050505b935093915050565b60008183611e89576000611e8f565b63800000005b01905092915050565b60006001611eb36034601085612c489092919063ffffffff16565b60ff16149050919050565b600080611ed86000600385612c489092919063ffffffff16565b6001039150611ef46002600385612c489092919063ffffffff16565b6001039050915091565b600080611f15600c84612c6990919063ffffffff16565b90506000611f4f60047c010001000200020003000300040004000500050006000600070007000860001b86612bef9092919063ffffffff16565b90506000818360ff1601905060048161ffff161015611f715760009050611f8f565b60138161ffff161115611f8757600f9050611f8e565b6004810390505b5b7e0400050005000a000a000f000f00140014001e001e0028002800500050006460001b6001600283020161ffff1660208110611fc757fe5b1a60f81b60f81c60ff169350505050919050565b6000610190611ff4601484612c6990919063ffffffff16565b60ff1602610fa0019050919050565b600061019061201c601c84612c6990919063ffffffff16565b60ff1602610fa0019050919050565b600061014d612044602484612c6990919063ffffffff16565b60ff160261138d019050919050565b6000610bb861206c602c84612c6990919063ffffffff16565b60ff1602613a98019050919050565b61211181604051602401808281526020019150506040516020818303038152906040527f27b7cf85000000000000000000000000000000000000000000000000000000007bffffffffffffffffffffffffffffffffffffffffffffffffffffffff19166020820180517bffffffffffffffffffffffffffffffffffffffffffffffffffffffff8381831617835250505050612d15565b50565b600061211f836116f6565b905060008160000160009054906101000a900473ffffffffffffffffffffffffffffffffffffffff169050600082600001601c9054906101000a900463ffffffff16905060008360000160189054906101000a900463ffffffff16905060008460000160149054906101000a900463ffffffff1690506000806121b1848663ffffffff166121ac8b611da1565b611de3565b9150915060008060008763ffffffff1614156121db576121d08a612053565b61ffff1690506122bd565b60008563ffffffff161461223a576121f285611c26565b612231576040517f08c379a000000000000000000000000000000000000000000000000000000000815260040161222890615339565b60405180910390fd5b600191506122bc565b831561227b576040517f08c379a0000000000000000000000000000000000000000000000000000000008152600401612272906152d9565b60405180910390fd5b8b73ffffffffffffffffffffffffffffffffffffffff168873ffffffffffffffffffffffffffffffffffffffff16146122b6578290506122bb565b600090505b5b5b8115612302577f000000000000000000000000000000000000000000000000000000000000000092506122fd8b898b8f6122f8600189611e7a565b612d3e565b6124af565b8b8960000160006101000a81548173ffffffffffffffffffffffffffffffffffffffff021916908373ffffffffffffffffffffffffffffffffffffffff16021790555060008163ffffffff161461243857600061239b7f000000000000000000000000000000000000000000000000000000000000000063ffffffff168363ffffffff166127106123928f612003565b61ffff16612da2565b5090507f000000000000000000000000000000000000000000000000000000000000000063ffffffff168163ffffffff16111561240d576040517f08c379a0000000000000000000000000000000000000000000000000000000008152600401612404906152f9565b60405180910390fd5b807f00000000000000000000000000000000000000000000000000000000000000000393505061245e565b7f0000000000000000000000000000000000000000000000000000000000000000830192505b612469600184611e7a565b8960000160186101000a81548163ffffffff021916908363ffffffff1602179055504289600001601c6101000a81548163ffffffff021916908363ffffffff1602179055505b8a8c73ffffffffffffffffffffffffffffffffffffffff167f2a71ecd53ebaf1eabe3c13c9f5d7e094b90eb780d3f6f658a4feb23db632a96c856040516124f6919061559f565b60405180910390a3505050505050505050505050565b612514614058565b60056040518060800160405290816000820160009054906101000a900463ffffffff1663ffffffff1663ffffffff1681526020016000820160049054906101000a900463ffffffff1663ffffffff1663ffffffff1681526020016000820160089054906101000a900463ffffffff1663ffffffff1663ffffffff16815260200160008201600c9054906101000a900463ffffffff1663ffffffff1663ffffffff1681525050905060006fffffffffffffffffffffffffffffffff8316600f0b90506000608084901c600f0b905060008083121561269257836000015163ffffffff1683600003131561263b576040517f08c379a000000000000000000000000000000000000000000000000000000000815260040161263290615399565b60405180910390fd5b60068360000301925063ffffffff8313156126585763ffffffff92505b8263ffffffff16846000015163ffffffff16101561268d5782846000019063ffffffff16908163ffffffff1681525050600190505b61272f565b836020015163ffffffff168313156126df576040517f08c379a00000000000000000000000000000000000000000000000000000000081526004016126d690615319565b60405180910390fd5b60068301925063ffffffff8313156126f95763ffffffff92505b8263ffffffff16846020015163ffffffff16101561272e5782846020019063ffffffff16908163ffffffff1681525050600190505b5b60008212156127df57836040015163ffffffff16826000031315612788576040517f08c379a000000000000000000000000000000000000000000000000000000000815260040161277f906151d9565b60405180910390fd5b60068260000301915063ffffffff8213156127a55763ffffffff91505b8163ffffffff16846040015163ffffffff1610156127da5781846040019063ffffffff16908163ffffffff1681525050600190505b61287c565b836060015163ffffffff1682131561282c576040517f08c379a000000000000000000000000000000000000000000000000000000000815260040161282390615479565b60405180910390fd5b60068201915063ffffffff8213156128465763ffffffff91505b8163ffffffff16846060015163ffffffff16101561287b5781846060019063ffffffff16908163ffffffff1681525050600190505b5b80156129255783600560008201518160000160006101000a81548163ffffffff021916908363ffffffff16021790555060208201518160000160046101000a81548163ffffffff021916908363ffffffff16021790555060408201518160000160086101000a81548163ffffffff021916908363ffffffff160217905550606082015181600001600c6101000a81548163ffffffff021916908363ffffffff1602179055509050505b5050505050565b80600260008473ffffffffffffffffffffffffffffffffffffffff1673ffffffffffffffffffffffffffffffffffffffff168152602001908152602001600020819055508173ffffffffffffffffffffffffffffffffffffffff167f4d135695228631e73b5a31e6fc8af4e5825cde63774c3c48695b4af814d7b019826040516129b691906154de565b60405180910390a25050565b6000808683866040516020016129d9929190615094565b6040516020818303038152906040528051906020012087604051602001612a01929190615094565b6040516020818303038152906040528051906020012060001c14612a5a576040517f08c379a0000000000000000000000000000000000000000000000000000000008152600401612a5190615359565b60405180910390fd5b8760400151915060008263ffffffff1611612aaa576040517f08c379a0000000000000000000000000000000000000000000000000000000008152600401612aa190615279565b60405180910390fd5b612ab982878a60200151612e80565b9150818860400151039050612acf848787612fb9565b612ade84878a602001516130b0565b965096945050505050565b612af161412b565b856000015173ffffffffffffffffffffffffffffffffffffffff16846000015173ffffffffffffffffffffffffffffffffffffffff161415612b4457612b3d86600001518585856131ad565b9050612b58565b612b558660000151868686866132bc565b90505b95945050505050565b8373ffffffffffffffffffffffffffffffffffffffff168673ffffffffffffffffffffffffffffffffffffffff16867f7997eb1d618b1121acb21162e437706631dea1be00abe485637cf356eb5a90fa86866020015187604001518789600001518a606001518b60800151604051612bdf9796959493929190615530565b60405180910390a4505050505050565b600080612bfc8585612c69565b9050826001600283020160ff1660208110612c1357fe5b1a60f81b60f81c60ff16610100846002840260ff1660208110612c3257fe5b1a60f81b60f81c60ff1602019150509392505050565b60008160ff168360ff1685901c60001c81612c5f57fe5b0690509392505050565b600080612c7884846040612c48565b9050600060028260ff1681612c8957fe5b049050600060028360ff1681612c9b57fe5b06905060007f01223334444555555666666677777777888888889999999aaaaaabbbbcccddef60001b8360ff1660208110612cd257fe5b1a60f81b60f81c905060008260ff161415612cfa5760048160ff16901c945050505050612d0f565b60108160ff1681612d0757fe5b069450505050505b92915050565b60008151905060006a636f6e736f6c652e6c6f679050602083016000808483855afa5050505050565b6000612d4d8686868686611c6b565b9050612d9a8582600260008973ffffffffffffffffffffffffffffffffffffffff1673ffffffffffffffffffffffffffffffffffffffff168152602001908152602001600020540161292c565b505050505050565b6000806000861480612db45750600085145b15612dc55760008091509150612e77565b60008487029050600084870290506000826305f5e100890281612de457fe5b0490506305f5e10088028382021015612e005780806001019150505b6000826305f5e1008b0281612e1157fe5b0490506305f5e1008a028382021015612e2d5780806001019150505b6000612e39838361338f565b9050612e546305f5e10085830281612e4d57fe5b048c61338f565b9650612e6f6305f5e10086830281612e6857fe5b048b61338f565b955050505050505b94509492505050565b600080600261070881612e8f57fe5b048363ffffffff1681612e9e57fe5b049050600060046000868152602001908152602001600020600083815260200190815260200160002060000160089054906101000a900467ffffffffffffffff1690508563ffffffff168167ffffffffffffffff161015612f52578086039550600060046000878152602001908152602001600020600084815260200190815260200160002060000160086101000a81548167ffffffffffffffff021916908367ffffffffffffffff160217905550612fad565b600095508563ffffffff16810360046000878152602001908152602001600020600084815260200190815260200160002060000160086101000a81548167ffffffffffffffff021916908367ffffffffffffffff1602179055505b85925050509392505050565b600080612fcd612fc885611d4f565b611ebe565b91509150600080612fe5612fe086611d4f565b611ebe565b91509150600060028460000b600460808a901c02018360000b600460808a901c020103600f0b0a60028660000b60046fffffffffffffffffffffffffffffffff8b1602018560000b60046fffffffffffffffffffffffffffffffff8b16020103600f0b0a01600f0b9050806002890a1115801561306757506002600189010a81105b6130a6576040517f08c379a000000000000000000000000000000000000000000000000000000000815260040161309d90615419565b60405180910390fd5b5050505050505050565b60006130c36130be84611d4f565b61202b565b61ffff166127107f0000000000000000000000000000000000000000000000000000000000000000028502816130f557fe5b048263ffffffff1601905080421015613143576040517f08c379a000000000000000000000000000000000000000000000000000000000815260040161313a906153f9565b60405180910390fd5b7f0000000000000000000000000000000000000000000000000000000000000000810142106131a7576040517f08c379a000000000000000000000000000000000000000000000000000000000815260040161319e90615379565b60405180910390fd5b50505050565b6131b561412b565b6131c28460200151611c26565b156131f0576131e983856000015160008087815260200190815260200160002088866133a9565b90506132b4565b60006131fb84611d4f565b9050600061320882611da1565b90506000806132268860400151896060015163ffffffff1685611de3565b91509150600086820163ffffffff169050638000000063ffffffff16811061325957600163800000000363ffffffff1690505b6132638382611e7a565b6000808a815260200190815260200160002060000160186101000a81548163ffffffff021916908363ffffffff16021790555080866080019063ffffffff16908163ffffffff168152505050505050505b949350505050565b6132c461412b565b6000846060015163ffffffff1614156132f95760006132e284611d4f565b90506132f187878684876133df565b915050613386565b6133068460200151611c26565b156133345761332d83856000015160008087815260200190815260200160002089866133a9565b9050613386565b600061333f84611d4f565b9050600061335461334f88611d4f565b611fdb565b9050600061336183612003565b9050600061336e84611da1565b905061337f8a84848b8b868c613598565b9450505050505b95945050505050565b60008183111561339f57816133a1565b825b905092915050565b6133b161412b565b6133be8686868686612d3e565b81816080019063ffffffff16908163ffffffff168152505095945050505050565b6133e761412b565b60006133fa6133f587611d4f565b611fdb565b9050600061340785612003565b9050600061341486612053565b90506000806134378763ffffffff168461ffff168761ffff168761ffff16612da2565b9150915081866020019063ffffffff16908163ffffffff16815250508261ffff168163ffffffff1614801561347757508163ffffffff168763ffffffff16115b1561358a57818703866080019063ffffffff16908163ffffffff16815250506134a560008760800151611e7a565b6000808b815260200190815260200160002060000160186101000a81548163ffffffff021916908363ffffffff160217905550426000808b8152602001908152602001600020600001601c6101000a81548163ffffffff021916908363ffffffff1602179055508a6000808b815260200190815260200160002060000160006101000a81548173ffffffffffffffffffffffffffffffffffffffff021916908373ffffffffffffffffffffffffffffffffffffffff16021790555080866040019063ffffffff16908163ffffffff168152505060018660600190151590811515815250505b505050505095945050505050565b6135a061412b565b6135a8614174565b6135b3868686613712565b90506000816040015163ffffffff1614156136f5578860008087815260200190815260200160002060000160006101000a81548173ffffffffffffffffffffffffffffffffffffffff021916908373ffffffffffffffffffffffffffffffffffffffff160217905550600080600087815260200190815260200160002060000160146101000a81548163ffffffff021916908363ffffffff16021790555061365f816000015184611e7a565b60008087815260200190815260200160002060000160186101000a81548163ffffffff021916908363ffffffff16021790555042600080878152602001908152602001600020600001601c6101000a81548163ffffffff021916908363ffffffff160217905550600182606001901515908115158152505082826080019063ffffffff16908163ffffffff168152505050613707565b613703818a87868c8c613824565b9150505b979650505050505050565b61371a614174565b6000806137368660400151876060015163ffffffff1686611de3565b91509150600080600080600061374c868b613e4c565b945094509450945094508688600001901515908115158152505085886020019063ffffffff16908163ffffffff168152505084886040019063ffffffff16908163ffffffff168152505083886060019067ffffffffffffffff16908167ffffffffffffffff168152505082886080019067ffffffffffffffff16908167ffffffffffffffff1681525050818860a0019067ffffffffffffffff16908167ffffffffffffffff1681525050808860c0019067ffffffffffffffff16908167ffffffffffffffff1681525050505050505050509392505050565b61382c61412b565b6000806138538663ffffffff168a6040015163ffffffff168761ffff168761ffff16612da2565b9150915081836020019063ffffffff16908163ffffffff168152505080836040019063ffffffff16908163ffffffff1681525050886020015163ffffffff16836040015163ffffffff161115613c225788602001518103836000019063ffffffff16908163ffffffff16815250508860200151836040019063ffffffff16908163ffffffff1681525050826000015163ffffffff16896060015167ffffffffffffffff161061396157826000015163ffffffff16896060018181510391509067ffffffffffffffff16908167ffffffffffffffff1681525050826000015163ffffffff16896080018181510191509067ffffffffffffffff16908167ffffffffffffffff1681525050613a7f565b8860600151896080018181510191509067ffffffffffffffff16908167ffffffffffffffff168152505060008960600151846000015163ffffffff160390508067ffffffffffffffff168a60a0015167ffffffffffffffff1610613a1057808a60a0018181510391509067ffffffffffffffff16908167ffffffffffffffff1681525050808a60c0018181510191509067ffffffffffffffff16908167ffffffffffffffff1681525050613a5c565b8960a001518a60c0018181510191509067ffffffffffffffff16908167ffffffffffffffff168152505060008a60a0019067ffffffffffffffff16908167ffffffffffffffff16815250505b60008a6060019067ffffffffffffffff16908167ffffffffffffffff1681525050505b88606001516004600089815260200190815260200160002060006001600261070881613aa757fe5b044281613ab057fe5b0403815260200190815260200160002060000160006101000a81548167ffffffffffffffff021916908367ffffffffffffffff16021790555088608001516004600089815260200190815260200160002060006001600261070881613b1157fe5b044281613b1a57fe5b0403815260200190815260200160002060000160086101000a81548167ffffffffffffffff021916908367ffffffffffffffff1602179055508860a00151600460008981526020019081526020016000206000600261070881613b7957fe5b044281613b8257fe5b04815260200190815260200160002060000160006101000a81548167ffffffffffffffff021916908367ffffffffffffffff1602179055508860c00151600460008981526020019081526020016000206000600261070881613be057fe5b044281613be957fe5b04815260200190815260200160002060000160086101000a81548167ffffffffffffffff021916908367ffffffffffffffff1602179055505b60008663ffffffff16118015613c4b5750886020015163ffffffff16836040015163ffffffff16145b15613d8257818603836080019063ffffffff16908163ffffffff168152505060018360600190151590811515815250508760008089815260200190815260200160002060000160006101000a81548173ffffffffffffffffffffffffffffffffffffffff021916908373ffffffffffffffffffffffffffffffffffffffff160217905550600080600089815260200190815260200160002060000160146101000a81548163ffffffff021916908363ffffffff160217905550613d1689600001518460800151611e7a565b60008089815260200190815260200160002060000160186101000a81548163ffffffff021916908363ffffffff16021790555042600080898152602001908152602001600020600001601c6101000a81548163ffffffff021916908363ffffffff160217905550613e40565b8563ffffffff16836020015163ffffffff161415613e365780896020015103836080019063ffffffff16908163ffffffff1681525050613dca89600001518460800151611e7a565b60008089815260200190815260200160002060000160186101000a81548163ffffffff021916908363ffffffff16021790555042600080898152602001908152602001600020600001601c6101000a81548163ffffffff021916908363ffffffff160217905550613e3f565b6000613e3e57fe5b5b5b50509695505050505050565b60008060008060008694506000600261070881613e6557fe5b044281613e6e57fe5b04905060046000888152602001908152602001600020600060018303815260200190815260200160002060000160009054906101000a900467ffffffffffffffff16945060046000888152602001908152602001600020600060018303815260200190815260200160002060000160009054906101000a900467ffffffffffffffff16935060046000888152602001908152602001600020600082815260200190815260200160002060000160009054906101000a900467ffffffffffffffff16925060046000888152602001908152602001600020600082815260200190815260200160002060000160089054906101000a900467ffffffffffffffff169150613f918663ffffffff168487010167ffffffffffffffff1663ffffffff61338f565b9550509295509295909350565b6040518060a00160405280600073ffffffffffffffffffffffffffffffffffffffff168152602001600063ffffffff168152602001600063ffffffff168152602001600063ffffffff1681526020016000151581525090565b6040518061010001604052806000800b81526020016000800b8152602001600061ffff168152602001600061ffff168152602001600061ffff168152602001600061ffff168152602001600061ffff168152602001600061ffff1681525090565b6040518060800160405280600063ffffffff168152602001600063ffffffff168152602001600063ffffffff168152602001600063ffffffff1681525090565b6040518060600160405280600073ffffffffffffffffffffffffffffffffffffffff168152602001600063ffffffff168152602001600063ffffffff1681525090565b6040518060800160405280600073ffffffffffffffffffffffffffffffffffffffff168152602001600063ffffffff168152602001600063ffffffff168152602001600063ffffffff1681525090565b6040518060a00160405280600063ffffffff168152602001600063ffffffff168152602001600063ffffffff168152602001600015158152602001600063ffffffff1681525090565b6040518060e00160405280600015158152602001600063ffffffff168152602001600063ffffffff168152602001600067ffffffffffffffff168152602001600067ffffffffffffffff168152602001600067ffffffffffffffff168152602001600067ffffffffffffffff1681525090565b6000813590506141f6816156cd565b92915050565b60008135905061420b816156e4565b92915050565b60008083601f84011261422357600080fd5b8235905067ffffffffffffffff81111561423c57600080fd5b60208301915083602082028301111561425457600080fd5b9250929050565b60008135905061426a816156fb565b92915050565b60008151905061427f816156fb565b92915050565b60008135905061429481615712565b92915050565b60008083601f8401126142ac57600080fd5b8235905067ffffffffffffffff8111156142c557600080fd5b6020830191508360018202830111156142dd57600080fd5b9250929050565b6000813590506142f381615729565b92915050565b60008135905061430881615740565b92915050565b60008135905061431d81615757565b92915050565b60006020828403121561433557600080fd5b6000614343848285016141e7565b91505092915050565b6000806040838503121561435f57600080fd5b600061436d858286016141fc565b925050602061437e858286016142f9565b9150509250929050565b6000806000806000608086880312156143a057600080fd5b60006143ae888289016141e7565b95505060206143bf888289016141e7565b94505060406143d0888289016142f9565b935050606086013567ffffffffffffffff8111156143ed57600080fd5b6143f98882890161429a565b92509250509295509295909350565b60008060006040848603121561441d57600080fd5b600061442b868287016141e7565b935050602084013567ffffffffffffffff81111561444857600080fd5b61445486828701614211565b92509250509250925092565b6000806040838503121561447357600080fd5b6000614481858286016141e7565b92505060206144928582860161425b565b9150509250929050565b600080604083850312156144af57600080fd5b60006144bd858286016141e7565b92505060206144ce858286016142f9565b9150509250929050565b600080600080606085870312156144ee57600080fd5b60006144fc878288016141e7565b945050602061450d878288016142f9565b935050604085013567ffffffffffffffff81111561452a57600080fd5b6145368782880161429a565b925092505092959194509250565b6000806000806080858703121561455a57600080fd5b6000614568878288016141e7565b9450506020614579878288016142f9565b935050604061458a8782880161430e565b925050606061459b87828801614285565b91505092959194509250565b600080602083850312156145ba57600080fd5b600083013567ffffffffffffffff8111156145d457600080fd5b6145e085828601614211565b92509250509250929050565b6000602082840312156145fe57600080fd5b600061460c84828501614270565b91505092915050565b600080600080600080600060e0888a03121561463057600080fd5b600061463e8a828b016142e4565b975050602061464f8a828b01614285565b96505060406146608a828b0161430e565b95505060606146718a828b0161430e565b94505060806146828a828b0161430e565b93505060a06146938a828b0161430e565b92505060c06146a48a828b0161430e565b91505092959891949750929550565b6000602082840312156146c557600080fd5b60006146d3848285016142f9565b91505092915050565b600080604083850312156146ef57600080fd5b60006146fd858286016142f9565b925050602061470e858286016142f9565b9150509250929050565b600080600080600060a0868803121561473057600080fd5b600061473e888289016142f9565b955050602061474f888289016142f9565b9450506040614760888289016142f9565b9350506060614771888289016142f9565b925050608061478288828901614285565b9150509295509295909350565b6000806000606084860312156147a457600080fd5b60006147b2868287016142f9565b93505060206147c38682870161430e565b92505060406147d486828701614285565b9150509250925092565b60006147ea8383614ec0565b60a08301905092915050565b6147ff81615604565b82525050565b61480e81615604565b82525050565b600061481f826155ca565b61482981856155e2565b9350614834836155ba565b8060005b8381101561486557815161484c88826147de565b9750614857836155d5565b925050600181019050614838565b5085935050505092915050565b61487b81615628565b82525050565b61488a81615628565b82525050565b61489981615634565b82525050565b6148b06148ab82615634565b6156b9565b82525050565b6148bf81615650565b82525050565b60006148d26016836155f3565b91507f4e4f545f524541434841424c455f5945545f4d494e59000000000000000000006000830152602082019050919050565b6000614912600f836155f3565b91507f45584954494e475f414c524541445900000000000000000000000000000000006000830152602082019050919050565b60006149526015836155f3565b91507f535041434553484950535f4e4f545f454e4f55474800000000000000000000006000830152602082019050919050565b6000614992600d836155f3565b91507f494e56414c49445f4552433230000000000000000000000000000000000000006000830152602082019050919050565b60006149d2600b836155f3565b91507f504c414e45545f455849540000000000000000000000000000000000000000006000830152602082019050919050565b6000614a126012836155f3565b91507f464c4545545f444f5f4e4f545f455849535400000000000000000000000000006000830152602082019050919050565b6000614a52601a836155f3565b91507f6e6f20706c616e657420696e2074686973206c6f636174696f6e0000000000006000830152602082019050919050565b6000614a92600f836155f3565b91507f4641494c45445f5452414e5346455200000000000000000000000000000000006000830152602082019050919050565b6000614ad2600c836155f3565b91507f5354494c4c5f41435449564500000000000000000000000000000000000000006000830152602082019050919050565b6000614b12600f836155f3565b91507f4641494c45445f434150545552454400000000000000000000000000000000006000830152602082019050919050565b6000614b526016836155f3565b91507f4e4f545f524541434841424c455f5945545f4d415858000000000000000000006000830152602082019050919050565b6000614b92600d836155f3565b91507f5354494c4c5f45584954494e47000000000000000000000000000000000000006000830152602082019050919050565b6000614bd2601d836155f3565b91507f494e56414c49445f464c4545545f444154415f4f525f534543524554270000006000830152602082019050919050565b6000614c12602b836155f3565b91507f746f6f206c6174652c20796f7572207370616365736869707320617265206c6f60008301527f737420696e2073706163650000000000000000000000000000000000000000006020830152604082019050919050565b6000614c786016836155f3565b91507f4e4f545f524541434841424c455f5945545f4d494e58000000000000000000006000830152602082019050919050565b6000614cb86008836155f3565b91507f4f564552464c4f570000000000000000000000000000000000000000000000006000830152602082019050919050565b6000614cf86009836155f3565b91507f4e4f545f4f574e455200000000000000000000000000000000000000000000006000830152602082019050919050565b6000614d386009836155f3565b91507f746f6f206561726c7900000000000000000000000000000000000000000000006000830152602082019050919050565b6000614d78600e836155f3565b91507f77726f6e672064697374616e63650000000000000000000000000000000000006000830152602082019050919050565b6000614db8600e836155f3565b91507f4e4f545f415554484f52495a45440000000000000000000000000000000000006000830152602082019050919050565b6000614df8600e836155f3565b91507f494e56414c49445f414d4f554e540000000000000000000000000000000000006000830152602082019050919050565b6000614e386016836155f3565b91507f4e4f545f524541434841424c455f5945545f4d415859000000000000000000006000830152602082019050919050565b608082016000820151614e816000850182615067565b506020820151614e946020850182615067565b506040820151614ea76040850182615067565b506060820151614eba6060850182615067565b50505050565b60a082016000820151614ed660008501826147f6565b506020820151614ee96020850182615067565b506040820151614efc6040850182615067565b506060820151614f0f6060850182615067565b506080820151614f226080850182614872565b50505050565b60a082016000820151614f3e60008501826147f6565b506020820151614f516020850182615067565b506040820151614f646040850182615067565b506060820151614f776060850182615067565b506080820151614f8a6080850182614872565b50505050565b61010082016000820151614fa760008501826148b6565b506020820151614fba60208501826148b6565b506040820151614fcd6040850182615032565b506060820151614fe06060850182615032565b506080820151614ff36080850182615032565b5060a082015161500660a0850182615032565b5060c082015161501960c0850182615032565b5060e082015161502c60e0850182615032565b50505050565b61503b8161565d565b82525050565b61504a8161568b565b82525050565b61506161505c8261568b565b6156c3565b82525050565b61507081615695565b82525050565b61507f81615695565b82525050565b61508e816156a5565b82525050565b60006150a0828561489f565b6020820191506150b08284615050565b6020820191508190509392505050565b60006060820190506150d56000830186614805565b6150e26020830185614805565b6150ef6040830184615041565b949350505050565b600060408201905061510c6000830185614805565b6151196020830184615041565b9392505050565b600060a0820190506151356000830188614805565b6151426020830187615076565b61514f6040830186615076565b61515c6060830185615085565b6151696080830184615085565b9695505050505050565b600060a082019050818103600083015261518d8185614814565b905061519c6020830184614e6b565b9392505050565b60006020820190506151b86000830184614881565b92915050565b60006020820190506151d36000830184614890565b92915050565b600060208201905081810360008301526151f2816148c5565b9050919050565b6000602082019050818103600083015261521281614905565b9050919050565b6000602082019050818103600083015261523281614945565b9050919050565b6000602082019050818103600083015261525281614985565b9050919050565b60006020820190508181036000830152615272816149c5565b9050919050565b6000602082019050818103600083015261529281614a05565b9050919050565b600060208201905081810360008301526152b281614a45565b9050919050565b600060208201905081810360008301526152d281614a85565b9050919050565b600060208201905081810360008301526152f281614ac5565b9050919050565b6000602082019050818103600083015261531281614b05565b9050919050565b6000602082019050818103600083015261533281614b45565b9050919050565b6000602082019050818103600083015261535281614b85565b9050919050565b6000602082019050818103600083015261537281614bc5565b9050919050565b6000602082019050818103600083015261539281614c05565b9050919050565b600060208201905081810360008301526153b281614c6b565b9050919050565b600060208201905081810360008301526153d281614cab565b9050919050565b600060208201905081810360008301526153f281614ceb565b9050919050565b6000602082019050818103600083015261541281614d2b565b9050919050565b6000602082019050818103600083015261543281614d6b565b9050919050565b6000602082019050818103600083015261545281614dab565b9050919050565b6000602082019050818103600083015261547281614deb565b9050919050565b6000602082019050818103600083015261549281614e2b565b9050919050565b60006080820190506154ae6000830184614e6b565b92915050565b60006101a0820190506154ca6000830185614f28565b6154d760a0830184614f90565b9392505050565b60006020820190506154f36000830184615041565b92915050565b600060608201905061550e6000830186615041565b61551b6020830185615076565b6155286040830184615076565b949350505050565b600060e082019050615545600083018a615041565b6155526020830189615076565b61555f6040830188615076565b61556c6060830187615076565b6155796080830186615076565b61558660a0830185614881565b61559360c0830184615076565b98975050505050505050565b60006020820190506155b46000830184615076565b92915050565b6000819050602082019050919050565b600081519050919050565b6000602082019050919050565b600082825260208201905092915050565b600082825260208201905092915050565b600061560f8261566b565b9050919050565b60006156218261566b565b9050919050565b60008115159050919050565b6000819050919050565b600061564982615604565b9050919050565b60008160000b9050919050565b600061ffff82169050919050565b600073ffffffffffffffffffffffffffffffffffffffff82169050919050565b6000819050919050565b600063ffffffff82169050919050565b600067ffffffffffffffff82169050919050565b6000819050919050565b6000819050919050565b6156d681615604565b81146156e157600080fd5b50565b6156ed81615616565b81146156f857600080fd5b50565b61570481615628565b811461570f57600080fd5b50565b61571b81615634565b811461572657600080fd5b50565b6157328161563e565b811461573d57600080fd5b50565b6157498161568b565b811461575457600080fd5b50565b61576081615695565b811461576b57600080fd5b5056fea2646970667358221220d4eb0721e710562250ebcf268fe4b02f3d385a0aefc4f6b43064add3d03b726764736f6c63430007050033",
  "devdoc": {
    "kind": "dev",
    "methods": {},
    "version": 1
  },
  "userdoc": {
    "kind": "user",
    "methods": {},
    "version": 1
  },
  "storageLayout": {
    "storage": [
      {
        "astId": 8664,
        "contract": "src/OuterSpace.sol:OuterSpace",
        "label": "_planets",
        "offset": 0,
        "slot": "0",
        "type": "t_mapping(t_uint256,t_struct(Planet)8709_storage)"
      },
      {
        "astId": 8668,
        "contract": "src/OuterSpace.sol:OuterSpace",
        "label": "_fleets",
        "offset": 0,
        "slot": "1",
        "type": "t_mapping(t_uint256,t_struct(Fleet)8716_storage)"
      },
      {
        "astId": 8672,
        "contract": "src/OuterSpace.sol:OuterSpace",
        "label": "_stakeReadyToBeWithdrawn",
        "offset": 0,
        "slot": "2",
        "type": "t_mapping(t_address,t_uint256)"
      },
      {
        "astId": 8678,
        "contract": "src/OuterSpace.sol:OuterSpace",
        "label": "_operators",
        "offset": 0,
        "slot": "3",
        "type": "t_mapping(t_address,t_mapping(t_address,t_bool))"
      },
      {
        "astId": 8689,
        "contract": "src/OuterSpace.sol:OuterSpace",
        "label": "_inFlight",
        "offset": 0,
        "slot": "4",
        "type": "t_mapping(t_uint256,t_mapping(t_uint256,t_struct(InFlight)8683_storage))"
      },
      {
        "astId": 8700,
        "contract": "src/OuterSpace.sol:OuterSpace",
        "label": "_discovered",
        "offset": 0,
        "slot": "5",
        "type": "t_struct(Discovered)8698_storage"
      }
    ],
    "types": {
      "t_address": {
        "encoding": "inplace",
        "label": "address",
        "numberOfBytes": "20"
      },
      "t_bool": {
        "encoding": "inplace",
        "label": "bool",
        "numberOfBytes": "1"
      },
      "t_mapping(t_address,t_bool)": {
        "encoding": "mapping",
        "key": "t_address",
        "label": "mapping(address => bool)",
        "numberOfBytes": "32",
        "value": "t_bool"
      },
      "t_mapping(t_address,t_mapping(t_address,t_bool))": {
        "encoding": "mapping",
        "key": "t_address",
        "label": "mapping(address => mapping(address => bool))",
        "numberOfBytes": "32",
        "value": "t_mapping(t_address,t_bool)"
      },
      "t_mapping(t_address,t_uint256)": {
        "encoding": "mapping",
        "key": "t_address",
        "label": "mapping(address => uint256)",
        "numberOfBytes": "32",
        "value": "t_uint256"
      },
      "t_mapping(t_uint256,t_mapping(t_uint256,t_struct(InFlight)8683_storage))": {
        "encoding": "mapping",
        "key": "t_uint256",
        "label": "mapping(uint256 => mapping(uint256 => struct OuterSpace.InFlight))",
        "numberOfBytes": "32",
        "value": "t_mapping(t_uint256,t_struct(InFlight)8683_storage)"
      },
      "t_mapping(t_uint256,t_struct(Fleet)8716_storage)": {
        "encoding": "mapping",
        "key": "t_uint256",
        "label": "mapping(uint256 => struct OuterSpace.Fleet)",
        "numberOfBytes": "32",
        "value": "t_struct(Fleet)8716_storage"
      },
      "t_mapping(t_uint256,t_struct(InFlight)8683_storage)": {
        "encoding": "mapping",
        "key": "t_uint256",
        "label": "mapping(uint256 => struct OuterSpace.InFlight)",
        "numberOfBytes": "32",
        "value": "t_struct(InFlight)8683_storage"
      },
      "t_mapping(t_uint256,t_struct(Planet)8709_storage)": {
        "encoding": "mapping",
        "key": "t_uint256",
        "label": "mapping(uint256 => struct OuterSpace.Planet)",
        "numberOfBytes": "32",
        "value": "t_struct(Planet)8709_storage"
      },
      "t_struct(Discovered)8698_storage": {
        "encoding": "inplace",
        "label": "struct OuterSpace.Discovered",
        "members": [
          {
            "astId": 8691,
            "contract": "src/OuterSpace.sol:OuterSpace",
            "label": "minX",
            "offset": 0,
            "slot": "0",
            "type": "t_uint32"
          },
          {
            "astId": 8693,
            "contract": "src/OuterSpace.sol:OuterSpace",
            "label": "maxX",
            "offset": 4,
            "slot": "0",
            "type": "t_uint32"
          },
          {
            "astId": 8695,
            "contract": "src/OuterSpace.sol:OuterSpace",
            "label": "minY",
            "offset": 8,
            "slot": "0",
            "type": "t_uint32"
          },
          {
            "astId": 8697,
            "contract": "src/OuterSpace.sol:OuterSpace",
            "label": "maxY",
            "offset": 12,
            "slot": "0",
            "type": "t_uint32"
          }
        ],
        "numberOfBytes": "32"
      },
      "t_struct(Fleet)8716_storage": {
        "encoding": "inplace",
        "label": "struct OuterSpace.Fleet",
        "members": [
          {
            "astId": 8711,
            "contract": "src/OuterSpace.sol:OuterSpace",
            "label": "owner",
            "offset": 0,
            "slot": "0",
            "type": "t_address"
          },
          {
            "astId": 8713,
            "contract": "src/OuterSpace.sol:OuterSpace",
            "label": "launchTime",
            "offset": 20,
            "slot": "0",
            "type": "t_uint32"
          },
          {
            "astId": 8715,
            "contract": "src/OuterSpace.sol:OuterSpace",
            "label": "quantity",
            "offset": 24,
            "slot": "0",
            "type": "t_uint32"
          }
        ],
        "numberOfBytes": "32"
      },
      "t_struct(InFlight)8683_storage": {
        "encoding": "inplace",
        "label": "struct OuterSpace.InFlight",
        "members": [
          {
            "astId": 8680,
            "contract": "src/OuterSpace.sol:OuterSpace",
            "label": "flying",
            "offset": 0,
            "slot": "0",
            "type": "t_uint64"
          },
          {
            "astId": 8682,
            "contract": "src/OuterSpace.sol:OuterSpace",
            "label": "destroyed",
            "offset": 8,
            "slot": "0",
            "type": "t_uint64"
          }
        ],
        "numberOfBytes": "32"
      },
      "t_struct(Planet)8709_storage": {
        "encoding": "inplace",
        "label": "struct OuterSpace.Planet",
        "members": [
          {
            "astId": 8702,
            "contract": "src/OuterSpace.sol:OuterSpace",
            "label": "owner",
            "offset": 0,
            "slot": "0",
            "type": "t_address"
          },
          {
            "astId": 8704,
            "contract": "src/OuterSpace.sol:OuterSpace",
            "label": "exitTime",
            "offset": 20,
            "slot": "0",
            "type": "t_uint32"
          },
          {
            "astId": 8706,
            "contract": "src/OuterSpace.sol:OuterSpace",
            "label": "numSpaceships",
            "offset": 24,
            "slot": "0",
            "type": "t_uint32"
          },
          {
            "astId": 8708,
            "contract": "src/OuterSpace.sol:OuterSpace",
            "label": "lastUpdated",
            "offset": 28,
            "slot": "0",
            "type": "t_uint32"
          }
        ],
        "numberOfBytes": "32"
      },
      "t_uint256": {
        "encoding": "inplace",
        "label": "uint256",
        "numberOfBytes": "32"
      },
      "t_uint32": {
        "encoding": "inplace",
        "label": "uint32",
        "numberOfBytes": "4"
      },
      "t_uint64": {
        "encoding": "inplace",
        "label": "uint64",
        "numberOfBytes": "8"
      }
    }
  }
}