{
  "address": "0xcE0eA66D6f1511DDE2D01B4377532b7D73D393cF",
  "abi": [
    {
      "inputs": [
        {
          "internalType": "contract IERC20",
          "name": "stakingToken",
          "type": "address"
        },
        {
          "internalType": "bytes32",
          "name": "genesis",
          "type": "bytes32"
        },
        {
          "internalType": "uint16",
          "name": "resolveWindow",
          "type": "uint16"
        },
        {
          "internalType": "uint16",
          "name": "timePerDistance",
          "type": "uint16"
        },
        {
          "internalType": "uint16",
          "name": "exitDuration",
          "type": "uint16"
        }
      ],
      "stateMutability": "nonpayable",
      "type": "constructor"
    },
    {
      "anonymous": false,
      "inputs": [
        {
          "indexed": true,
          "internalType": "address",
          "name": "owner",
          "type": "address"
        },
        {
          "indexed": true,
          "internalType": "address",
          "name": "operator",
          "type": "address"
        },
        {
          "indexed": false,
          "internalType": "bool",
          "name": "approved",
          "type": "bool"
        }
      ],
      "name": "ApprovalForAll",
      "type": "event"
    },
    {
      "anonymous": false,
      "inputs": [
        {
          "indexed": true,
          "internalType": "address",
          "name": "sender",
          "type": "address"
        },
        {
          "indexed": true,
          "internalType": "uint256",
          "name": "fleet",
          "type": "uint256"
        },
        {
          "indexed": true,
          "internalType": "uint256",
          "name": "location",
          "type": "uint256"
        },
        {
          "indexed": false,
          "internalType": "uint32",
          "name": "fleetLoss",
          "type": "uint32"
        },
        {
          "indexed": false,
          "internalType": "uint32",
          "name": "toLoss",
          "type": "uint32"
        },
        {
          "indexed": false,
          "internalType": "bool",
          "name": "won",
          "type": "bool"
        },
        {
          "indexed": false,
          "internalType": "uint32",
          "name": "newNumspaceships",
          "type": "uint32"
        }
      ],
      "name": "Attack",
      "type": "event"
    },
    {
      "anonymous": false,
      "inputs": [
        {
          "indexed": true,
          "internalType": "address",
          "name": "sender",
          "type": "address"
        },
        {
          "indexed": true,
          "internalType": "uint256",
          "name": "fleet",
          "type": "uint256"
        },
        {
          "indexed": true,
          "internalType": "uint256",
          "name": "location",
          "type": "uint256"
        },
        {
          "indexed": false,
          "internalType": "uint32",
          "name": "newNumspaceships",
          "type": "uint32"
        }
      ],
      "name": "FleetArrived",
      "type": "event"
    },
    {
      "anonymous": false,
      "inputs": [
        {
          "indexed": true,
          "internalType": "address",
          "name": "sender",
          "type": "address"
        },
        {
          "indexed": true,
          "internalType": "uint256",
          "name": "from",
          "type": "uint256"
        },
        {
          "indexed": false,
          "internalType": "uint256",
          "name": "fleet",
          "type": "uint256"
        },
        {
          "indexed": false,
          "internalType": "uint32",
          "name": "quantity",
          "type": "uint32"
        },
        {
          "indexed": false,
          "internalType": "uint32",
          "name": "newNumSpaceships",
          "type": "uint32"
        }
      ],
      "name": "FleetSent",
      "type": "event"
    },
    {
      "anonymous": false,
      "inputs": [
        {
          "indexed": true,
          "internalType": "address",
          "name": "owner",
          "type": "address"
        },
        {
          "indexed": true,
          "internalType": "uint256",
          "name": "location",
          "type": "uint256"
        }
      ],
      "name": "PlanetExit",
      "type": "event"
    },
    {
      "anonymous": false,
      "inputs": [
        {
          "indexed": true,
          "internalType": "address",
          "name": "acquirer",
          "type": "address"
        },
        {
          "indexed": true,
          "internalType": "uint256",
          "name": "location",
          "type": "uint256"
        },
        {
          "indexed": false,
          "internalType": "uint32",
          "name": "numSpaceships",
          "type": "uint32"
        }
      ],
      "name": "PlanetStake",
      "type": "event"
    },
    {
      "anonymous": false,
      "inputs": [
        {
          "indexed": true,
          "internalType": "address",
          "name": "owner",
          "type": "address"
        },
        {
          "indexed": false,
          "internalType": "uint256",
          "name": "newStake",
          "type": "uint256"
        }
      ],
      "name": "StakeToWithdraw",
      "type": "event"
    },
    {
      "inputs": [
        {
          "internalType": "uint256",
          "name": "location",
          "type": "uint256"
        },
        {
          "internalType": "uint256",
          "name": "amount",
          "type": "uint256"
        }
      ],
      "name": "acquireViaTransferFrom",
      "outputs": [],
      "stateMutability": "nonpayable",
      "type": "function"
    },
    {
      "inputs": [
        {
          "internalType": "address",
          "name": "owner",
          "type": "address"
        },
        {
          "internalType": "uint256",
          "name": "location",
          "type": "uint256"
        }
      ],
      "name": "exitFor",
      "outputs": [],
      "stateMutability": "nonpayable",
      "type": "function"
    },
    {
      "inputs": [
        {
          "internalType": "address",
          "name": "owner",
          "type": "address"
        },
        {
          "internalType": "uint256[]",
          "name": "locations",
          "type": "uint256[]"
        }
      ],
      "name": "fetchAndWithdrawFor",
      "outputs": [],
      "stateMutability": "nonpayable",
      "type": "function"
    },
    {
      "inputs": [],
      "name": "getDiscovered",
      "outputs": [
        {
          "components": [
            {
              "internalType": "uint32",
              "name": "minX",
              "type": "uint32"
            },
            {
              "internalType": "uint32",
              "name": "maxX",
              "type": "uint32"
            },
            {
              "internalType": "uint32",
              "name": "minY",
              "type": "uint32"
            },
            {
              "internalType": "uint32",
              "name": "maxY",
              "type": "uint32"
            }
          ],
          "internalType": "struct OuterSpace.Discovered",
          "name": "",
          "type": "tuple"
        }
      ],
      "stateMutability": "view",
      "type": "function"
    },
    {
      "inputs": [
        {
          "internalType": "uint256",
          "name": "fleetId",
          "type": "uint256"
        }
      ],
      "name": "getFleet",
      "outputs": [
        {
          "internalType": "address",
          "name": "owner",
          "type": "address"
        },
        {
          "internalType": "uint32",
          "name": "launchTime",
          "type": "uint32"
        },
        {
          "internalType": "uint32",
          "name": "quantity",
          "type": "uint32"
        }
      ],
      "stateMutability": "view",
      "type": "function"
    },
    {
      "inputs": [],
      "name": "getGeneisHash",
      "outputs": [
        {
          "internalType": "bytes32",
          "name": "",
          "type": "bytes32"
        }
      ],
      "stateMutability": "view",
      "type": "function"
    },
    {
      "inputs": [
        {
          "internalType": "uint256",
          "name": "location",
          "type": "uint256"
        }
      ],
      "name": "getPlanet",
      "outputs": [
        {
          "components": [
            {
              "internalType": "address",
              "name": "owner",
              "type": "address"
            },
            {
              "internalType": "uint32",
              "name": "exitTime",
              "type": "uint32"
            },
            {
              "internalType": "uint32",
              "name": "numSpaceships",
              "type": "uint32"
            },
            {
              "internalType": "uint32",
              "name": "lastUpdated",
              "type": "uint32"
            },
            {
              "internalType": "bool",
              "name": "active",
              "type": "bool"
            }
          ],
          "internalType": "struct OuterSpace.ExternalPlanet",
          "name": "state",
          "type": "tuple"
        },
        {
          "components": [
            {
              "internalType": "int8",
              "name": "subX",
              "type": "int8"
            },
            {
              "internalType": "int8",
              "name": "subY",
              "type": "int8"
            },
            {
              "internalType": "uint16",
              "name": "stake",
              "type": "uint16"
            },
            {
              "internalType": "uint16",
              "name": "production",
              "type": "uint16"
            },
            {
              "internalType": "uint16",
              "name": "attack",
              "type": "uint16"
            },
            {
              "internalType": "uint16",
              "name": "defense",
              "type": "uint16"
            },
            {
              "internalType": "uint16",
              "name": "speed",
              "type": "uint16"
            },
            {
              "internalType": "uint16",
              "name": "natives",
              "type": "uint16"
            }
          ],
          "internalType": "struct OuterSpace.PlanetStats",
          "name": "stats",
          "type": "tuple"
        }
      ],
      "stateMutability": "view",
      "type": "function"
    },
    {
      "inputs": [
        {
          "internalType": "uint256[]",
          "name": "locations",
          "type": "uint256[]"
        }
      ],
      "name": "getPlanetStates",
      "outputs": [
        {
          "components": [
            {
              "internalType": "address",
              "name": "owner",
              "type": "address"
            },
            {
              "internalType": "uint32",
              "name": "exitTime",
              "type": "uint32"
            },
            {
              "internalType": "uint32",
              "name": "numSpaceships",
              "type": "uint32"
            },
            {
              "internalType": "uint32",
              "name": "lastUpdated",
              "type": "uint32"
            },
            {
              "internalType": "bool",
              "name": "active",
              "type": "bool"
            }
          ],
          "internalType": "struct OuterSpace.ExternalPlanet[]",
          "name": "planetStates",
          "type": "tuple[]"
        },
        {
          "components": [
            {
              "internalType": "uint32",
              "name": "minX",
              "type": "uint32"
            },
            {
              "internalType": "uint32",
              "name": "maxX",
              "type": "uint32"
            },
            {
              "internalType": "uint32",
              "name": "minY",
              "type": "uint32"
            },
            {
              "internalType": "uint32",
              "name": "maxY",
              "type": "uint32"
            }
          ],
          "internalType": "struct OuterSpace.Discovered",
          "name": "discovered",
          "type": "tuple"
        }
      ],
      "stateMutability": "view",
      "type": "function"
    },
    {
      "inputs": [
        {
          "internalType": "address",
          "name": "from",
          "type": "address"
        },
        {
          "internalType": "uint256",
          "name": "amount",
          "type": "uint256"
        },
        {
          "internalType": "bytes",
          "name": "data",
          "type": "bytes"
        }
      ],
      "name": "onTokenTransfer",
      "outputs": [
        {
          "internalType": "bool",
          "name": "",
          "type": "bool"
        }
      ],
      "stateMutability": "nonpayable",
      "type": "function"
    },
    {
      "inputs": [
        {
          "internalType": "contract IERC20",
          "name": "",
          "type": "address"
        },
        {
          "internalType": "bytes32",
          "name": "",
          "type": "bytes32"
        },
        {
          "internalType": "uint16",
          "name": "",
          "type": "uint16"
        },
        {
          "internalType": "uint16",
          "name": "",
          "type": "uint16"
        },
        {
          "internalType": "uint16",
          "name": "",
          "type": "uint16"
        }
      ],
      "name": "postUpgrade",
      "outputs": [],
      "stateMutability": "nonpayable",
      "type": "function"
    },
    {
      "inputs": [
        {
          "internalType": "uint256",
          "name": "fleetId",
          "type": "uint256"
        },
        {
          "internalType": "uint256",
          "name": "from",
          "type": "uint256"
        },
        {
          "internalType": "uint256",
          "name": "to",
          "type": "uint256"
        },
        {
          "internalType": "uint256",
          "name": "distance",
          "type": "uint256"
        },
        {
          "internalType": "bytes32",
          "name": "secret",
          "type": "bytes32"
        }
      ],
      "name": "resolveFleet",
      "outputs": [],
      "stateMutability": "nonpayable",
      "type": "function"
    },
    {
      "inputs": [
        {
          "internalType": "address",
          "name": "attacker",
          "type": "address"
        },
        {
          "internalType": "uint256",
          "name": "fleetId",
          "type": "uint256"
        },
        {
          "internalType": "uint256",
          "name": "from",
          "type": "uint256"
        },
        {
          "internalType": "uint256",
          "name": "to",
          "type": "uint256"
        },
        {
          "internalType": "uint256",
          "name": "distance",
          "type": "uint256"
        },
        {
          "internalType": "bytes32",
          "name": "secret",
          "type": "bytes32"
        }
      ],
      "name": "resolveFleetFor",
      "outputs": [],
      "stateMutability": "nonpayable",
      "type": "function"
    },
    {
      "inputs": [
        {
          "internalType": "uint256",
          "name": "from",
          "type": "uint256"
        },
        {
          "internalType": "uint32",
          "name": "quantity",
          "type": "uint32"
        },
        {
          "internalType": "bytes32",
          "name": "toHash",
          "type": "bytes32"
        }
      ],
      "name": "send",
      "outputs": [],
      "stateMutability": "nonpayable",
      "type": "function"
    },
    {
      "inputs": [
        {
          "internalType": "address",
          "name": "owner",
          "type": "address"
        },
        {
          "internalType": "uint256",
          "name": "from",
          "type": "uint256"
        },
        {
          "internalType": "uint32",
          "name": "quantity",
          "type": "uint32"
        },
        {
          "internalType": "bytes32",
          "name": "toHash",
          "type": "bytes32"
        }
      ],
      "name": "sendFor",
      "outputs": [],
      "stateMutability": "nonpayable",
      "type": "function"
    },
    {
      "inputs": [
        {
          "internalType": "address",
          "name": "operator",
          "type": "address"
        },
        {
          "internalType": "bool",
          "name": "approved",
          "type": "bool"
        }
      ],
      "name": "setApprovalForAll",
      "outputs": [],
      "stateMutability": "nonpayable",
      "type": "function"
    },
    {
      "inputs": [
        {
          "internalType": "address",
          "name": "owner",
          "type": "address"
        }
      ],
      "name": "withdrawFor",
      "outputs": [],
      "stateMutability": "nonpayable",
      "type": "function"
    }
  ],
  "transactionHash": "0x8a679044f18dea72121b8f7fcd54db15c2d38f42339a897458f3a9988fd0498c",
  "args": [
    "0x0ce6d17B1E361C29A4e23c7B5a28cF81d4a284a8",
    "0xe0c3fa9ae97fc9b60baae605896b5e3e7cecb6baaaa4708162d1ec51e8d65a69",
    7200,
    20,
    1440
  ],
  "linkedData": {
    "genesisHash": "0xe0c3fa9ae97fc9b60baae605896b5e3e7cecb6baaaa4708162d1ec51e8d65a69",
    "resolveWindow": 7200,
    "timePerDistance": 20,
    "exitDuration": 1440
  },
  "solcInputHash": "04cf1eb97bdf6390c49f96c605fbdf96",
  "bytecode": "0x6101206040523480156200001257600080fd5b506040516200512c3803806200512c83398181016040528101906200003891906200035c565b600060048361ffff16816200004957fe5b0490508261ffff166004820261ffff16146200009c576040517f08c379a0000000000000000000000000000000000000000000000000000000008152600401620000939062000420565b60405180910390fd5b8573ffffffffffffffffffffffffffffffffffffffff1660a08173ffffffffffffffffffffffffffffffffffffffff1660601b8152505084608081815250508361ffff1660c081815250508061ffff1660e081815250508161ffff1661010081815250506200011586868686866200012160201b60201c565b50505050505062000501565b600062000133620002ee60201b60201c565b9050600073ffffffffffffffffffffffffffffffffffffffff168173ffffffffffffffffffffffffffffffffffffffff161415620001a85773ffffffffffffffffffffffffffffffffffffffff7fb53127684a568b3173ae13b9f8a6016e243e63b6e8ee1178d6a717850b5d610355620001e2565b8073ffffffffffffffffffffffffffffffffffffffff163373ffffffffffffffffffffffffffffffffffffffff1614620001e157600080fd5b5b6000600460000160009054906101000a900463ffffffff1663ffffffff161415620002e6576040518060800160405280600c63ffffffff168152602001600c63ffffffff168152602001600c63ffffffff168152602001600c63ffffffff16815250600460008201518160000160006101000a81548163ffffffff021916908363ffffffff16021790555060208201518160000160046101000a81548163ffffffff021916908363ffffffff16021790555060408201518160000160086101000a81548163ffffffff021916908363ffffffff160217905550606082015181600001600c6101000a81548163ffffffff021916908363ffffffff1602179055509050505b505050505050565b60007fb53127684a568b3173ae13b9f8a6016e243e63b6e8ee1178d6a717850b5d610354905090565b6000815190506200032881620004b3565b92915050565b6000815190506200033f81620004cd565b92915050565b6000815190506200035681620004e7565b92915050565b600080600080600060a086880312156200037557600080fd5b600062000385888289016200032e565b9550506020620003988882890162000317565b9450506040620003ab8882890162000345565b9350506060620003be8882890162000345565b9250506080620003d18882890162000345565b9150509295509295909350565b6000620003ed60198362000442565b91507f54494d4550444953545f4e4f545f444956495349424c455f34000000000000006000830152602082019050919050565b600060208201905081810360008301526200043b81620003de565b9050919050565b600082825260208201905092915050565b6000620004608262000493565b9050919050565b6000819050919050565b60006200047e8262000453565b9050919050565b600061ffff82169050919050565b600073ffffffffffffffffffffffffffffffffffffffff82169050919050565b620004be8162000467565b8114620004ca57600080fd5b50565b620004d88162000471565b8114620004e457600080fd5b50565b620004f28162000485565b8114620004fe57600080fd5b50565b60805160a05160601c60c05160e05161010051614bd96200055360003980611c3752508061219c52508061221552508061084552806109ab5280610bf65250806108fc5280611e235250614bd96000f3fe608060405234801561001057600080fd5b50600436106101005760003560e01c8063a22cb46511610097578063b92ce46711610066578063b92ce46714610295578063c5aaa0ae146102b1578063e2e9b079146102cf578063f9740c75146102eb57610100565b8063a22cb465146101fc578063a4c0ed3614610218578063aba789f514610248578063afc823701461027957610100565b806361f018c0116100d357806361f018c01461018a5780637ba423fb146101a65780637cef64d8146101c25780639eca672c146101e057610100565b8063112e68511461010557806324cbafba1461012157806334efcb8e1461013d5780633f97e3ff1461016e575b600080fd5b61011f600480360381019061011a9190613add565b61031d565b005b61013b6004803603810190610136919061398a565b610335565b005b61015760048036038101906101529190613a01565b6104f6565b6040516101659291906148d0565b60405180910390f35b61018860048036038101906101839190613830565b6105e9565b005b6101a4600480360381019061019f91906138b9565b610709565b005b6101c060048036038101906101bb9190613a2a565b61082c565b005b6101ca6108f8565b6040516101d7919061457f565b60405180910390f35b6101fa60048036038101906101f591906136cb565b610920565b005b6102166004803603810190610211919061374c565b610ae8565b005b610232600480360381019061022d91906137c4565b610bf2565b60405161023f9190614564565b60405180910390f35b610262600480360381019061025d919061391c565b610cad565b604051610270929190614534565b60405180910390f35b610293600480360381019061028e9190613788565b610ed2565b005b6102af60048036038101906102aa9190613a66565b61103a565b005b6102b9611056565b6040516102c691906148b5565b60405180910390f35b6102e960048036038101906102e491906136f4565b611108565b005b61030560048036038101906103009190613a01565b611227565b604051610314939291906144fd565b60405180910390f35b6103306103286112be565b8484846112c6565b505050565b600061033f61163f565b9050600073ffffffffffffffffffffffffffffffffffffffff168173ffffffffffffffffffffffffffffffffffffffff1614156103b25773ffffffffffffffffffffffffffffffffffffffff7fb53127684a568b3173ae13b9f8a6016e243e63b6e8ee1178d6a717850b5d6103556103eb565b8073ffffffffffffffffffffffffffffffffffffffff163373ffffffffffffffffffffffffffffffffffffffff16146103ea57600080fd5b5b6000600460000160009054906101000a900463ffffffff1663ffffffff1614156104ee576040518060800160405280600c63ffffffff168152602001600c63ffffffff168152602001600c63ffffffff168152602001600c63ffffffff16815250600460008201518160000160006101000a81548163ffffffff021916908363ffffffff16021790555060208201518160000160046101000a81548163ffffffff021916908363ffffffff16021790555060408201518160000160086101000a81548163ffffffff021916908363ffffffff160217905550606082015181600001600c6101000a81548163ffffffff021916908363ffffffff1602179055509050505b505050505050565b6104fe613402565b61050661345b565b600061051184611668565b90506000806105338360000160189054906101000a900463ffffffff16611683565b915091506040518060a001604052808460000160009054906101000a900473ffffffffffffffffffffffffffffffffffffffff1673ffffffffffffffffffffffffffffffffffffffff1681526020018460000160149054906101000a900463ffffffff1663ffffffff1681526020018263ffffffff16815260200184600001601c9054906101000a900463ffffffff1663ffffffff16815260200183151581525094506105df866116c2565b9350505050915091565b60006105f36112be565b90508673ffffffffffffffffffffffffffffffffffffffff168173ffffffffffffffffffffffffffffffffffffffff16146106f257600360008873ffffffffffffffffffffffffffffffffffffffff1673ffffffffffffffffffffffffffffffffffffffff16815260200190815260200160002060008273ffffffffffffffffffffffffffffffffffffffff1673ffffffffffffffffffffffffffffffffffffffff16815260200190815260200160002060009054906101000a900460ff166106f1576040517f08c379a00000000000000000000000000000000000000000000000000000000081526004016106e890614835565b60405180910390fd5b5b6107008787878787876117c1565b50505050505050565b60006107136112be565b90508473ffffffffffffffffffffffffffffffffffffffff168173ffffffffffffffffffffffffffffffffffffffff161461081257600360008673ffffffffffffffffffffffffffffffffffffffff1673ffffffffffffffffffffffffffffffffffffffff16815260200190815260200160002060008273ffffffffffffffffffffffffffffffffffffffff1673ffffffffffffffffffffffffffffffffffffffff16815260200190815260200160002060009054906101000a900460ff16610811576040517f08c379a000000000000000000000000000000000000000000000000000000000815260040161080890614835565b60405180910390fd5b5b61082561081d6112be565b8585856112c6565b5050505050565b60006108366112be565b9050610843818385611b98565b7f000000000000000000000000000000000000000000000000000000000000000073ffffffffffffffffffffffffffffffffffffffff166323b872dd8230856040518463ffffffff1660e01b81526004016108a09392919061449d565b602060405180830381600087803b1580156108ba57600080fd5b505af11580156108ce573d6000803e3d6000fd5b505050506040513d601f19601f820116820180604052508101906108f29190613961565b50505050565b60007f0000000000000000000000000000000000000000000000000000000000000000905090565b6000600260008373ffffffffffffffffffffffffffffffffffffffff1673ffffffffffffffffffffffffffffffffffffffff1681526020019081526020016000205490506000600260008473ffffffffffffffffffffffffffffffffffffffff1673ffffffffffffffffffffffffffffffffffffffff168152602001908152602001600020819055507f000000000000000000000000000000000000000000000000000000000000000073ffffffffffffffffffffffffffffffffffffffff1663a9059cbb83836040518363ffffffff1660e01b8152600401610a049291906144d4565b602060405180830381600087803b158015610a1e57600080fd5b505af1158015610a32573d6000803e3d6000fd5b505050506040513d601f19601f82011682018060405250810190610a569190613961565b610a95576040517f08c379a0000000000000000000000000000000000000000000000000000000008152600401610a8c906146d5565b60405180910390fd5b8173ffffffffffffffffffffffffffffffffffffffff167f4d135695228631e73b5a31e6fc8af4e5825cde63774c3c48695b4af814d7b0196000604051610adc919061459a565b60405180910390a25050565b6000610af26112be565b905081600360008373ffffffffffffffffffffffffffffffffffffffff1673ffffffffffffffffffffffffffffffffffffffff16815260200190815260200160002060008573ffffffffffffffffffffffffffffffffffffffff1673ffffffffffffffffffffffffffffffffffffffff16815260200190815260200160002060006101000a81548160ff0219169083151502179055508273ffffffffffffffffffffffffffffffffffffffff168173ffffffffffffffffffffffffffffffffffffffff167f17307eab39ab6107e8899845ad3d59bd9653f200f220920489ca2b5937696c3184604051610be59190614564565b60405180910390a3505050565b60007f000000000000000000000000000000000000000000000000000000000000000073ffffffffffffffffffffffffffffffffffffffff163373ffffffffffffffffffffffffffffffffffffffff1614610c82576040517f08c379a0000000000000000000000000000000000000000000000000000000008152600401610c7990614635565b60405180910390fd5b60008383810190610c939190613a01565b9050610ca0868683611b98565b6001915050949350505050565b6060610cb76134bc565b8383905067ffffffffffffffff81118015610cd157600080fd5b50604051908082528060200260200182016040528015610d0b57816020015b610cf8613402565b815260200190600190039081610cf05790505b50915060005b84849050811015610e23576000610d39868684818110610d2d57fe5b90506020020135611668565b9050600080610d5b8360000160189054906101000a900463ffffffff16611683565b915091506040518060a001604052808460000160009054906101000a900473ffffffffffffffffffffffffffffffffffffffff1673ffffffffffffffffffffffffffffffffffffffff1681526020018460000160149054906101000a900463ffffffff1663ffffffff1681526020018263ffffffff16815260200184600001601c9054906101000a900463ffffffff1663ffffffff168152602001831515815250868581518110610e0857fe5b60200260200101819052505050508080600101915050610d11565b5060046040518060800160405290816000820160009054906101000a900463ffffffff1663ffffffff1663ffffffff1681526020016000820160049054906101000a900463ffffffff1663ffffffff1663ffffffff1681526020016000820160089054906101000a900463ffffffff1663ffffffff1663ffffffff16815260200160008201600c9054906101000a900463ffffffff1663ffffffff1663ffffffff168152505090509250929050565b6000610edd82611668565b90508060000160009054906101000a900473ffffffffffffffffffffffffffffffffffffffff1673ffffffffffffffffffffffffffffffffffffffff168373ffffffffffffffffffffffffffffffffffffffff1614610f71576040517f08c379a0000000000000000000000000000000000000000000000000000000008152600401610f68906147d5565b60405180910390fd5b60008160000160149054906101000a900463ffffffff1663ffffffff1614610fce576040517f08c379a0000000000000000000000000000000000000000000000000000000008152600401610fc590614615565b60405180910390fd5b428160000160146101000a81548163ffffffff021916908363ffffffff160217905550818373ffffffffffffffffffffffffffffffffffffffff167fb9182e4e152947f1e6691fa0ee6f68f21f607fed825945c270e69995acad805f60405160405180910390a3505050565b61104f6110456112be565b86868686866117c1565b5050505050565b61105e6134bc565b60046040518060800160405290816000820160009054906101000a900463ffffffff1663ffffffff1663ffffffff1681526020016000820160049054906101000a900463ffffffff1663ffffffff1663ffffffff1681526020016000820160089054906101000a900463ffffffff1663ffffffff1663ffffffff16815260200160008201600c9054906101000a900463ffffffff1663ffffffff1663ffffffff1681525050905090565b60005b8282905081101561121857600061113384848481811061112757fe5b90506020020135611668565b90506111528160000160149054906101000a900463ffffffff16611c23565b1561120a578060000160009054906101000a900473ffffffffffffffffffffffffffffffffffffffff1673ffffffffffffffffffffffffffffffffffffffff168573ffffffffffffffffffffffffffffffffffffffff16146111e9576040517f08c379a00000000000000000000000000000000000000000000000000000000081526004016111e0906147d5565b60405180910390fd5b6112098484848181106111f857fe5b905060200201358683600080611c68565b5b50808060010191505061110b565b5061122283610920565b505050565b60008060006001600085815260200190815260200160002060000160149054906101000a900463ffffffff1691506001600085815260200190815260200160002060000160189054906101000a900463ffffffff1690506001600085815260200190815260200160002060000160009054906101000a900473ffffffffffffffffffffffffffffffffffffffff1692509193909250565b600033905090565b60006112d184611668565b905060008160000160149054906101000a900463ffffffff1663ffffffff1614611330576040517f08c379a000000000000000000000000000000000000000000000000000000000815260040161132790614655565b60405180910390fd5b8060000160009054906101000a900473ffffffffffffffffffffffffffffffffffffffff1673ffffffffffffffffffffffffffffffffffffffff168573ffffffffffffffffffffffffffffffffffffffff16146113c2576040517f08c379a00000000000000000000000000000000000000000000000000000000081526004016113b9906146b5565b60405180910390fd5b60006113cd85611e1f565b905060006113da82611e71565b90506000806114188560000160189054906101000a900463ffffffff1686600001601c9054906101000a900463ffffffff1663ffffffff1685611eb3565b915091508663ffffffff168163ffffffff16101561146b576040517f08c379a0000000000000000000000000000000000000000000000000000000008152600401611462906147b5565b60405180910390fd5b6000429050600088830390506114818482611f22565b8760000160186101000a81548163ffffffff021916908363ffffffff1602179055508187600001601c6101000a81548163ffffffff021916908363ffffffff1602179055506000888b6040516020016114db929190614471565b6040516020818303038152906040528051906020012060001c905060405180606001604052808d73ffffffffffffffffffffffffffffffffffffffff1681526020018463ffffffff1681526020018b63ffffffff168152506001600083815260200190815260200160002060008201518160000160006101000a81548173ffffffffffffffffffffffffffffffffffffffff021916908373ffffffffffffffffffffffffffffffffffffffff16021790555060208201518160000160146101000a81548163ffffffff021916908363ffffffff16021790555060408201518160000160186101000a81548163ffffffff021916908363ffffffff1602179055509050508a8c73ffffffffffffffffffffffffffffffffffffffff167fd7da2af85ac97f64039a5304a609fe0eb346f04985c4fd55e0d9b10b8b886ee7838d8660405161162993929190614915565b60405180910390a3505050505050505050505050565b60007fb53127684a568b3173ae13b9f8a6016e243e63b6e8ee1178d6a717850b5d610354905090565b60008060008381526020019081526020016000209050919050565b600080638000000063ffffffff166380000000841663ffffffff16149150638000000063ffffffff168363ffffffff16816116ba57fe5b069050915091565b6116ca61345b565b60006116d583611e1f565b90506116e081611f40565b61171f576040517f08c379a000000000000000000000000000000000000000000000000000000000815260040161171690614695565b60405180910390fd5b60008061172b83611f66565b915091506040518061010001604052808360000b81526020018260000b815260200161175685611fa6565b61ffff16815260200161176885611e71565b61ffff16815260200161177a85611fea565b61ffff16815260200161178c85612012565b61ffff16815260200161179e8561203a565b61ffff1681526020016117b085612062565b61ffff168152509350505050919050565b6117c96134fc565b600160008781526020019081526020016000206040518060600160405290816000820160009054906101000a900473ffffffffffffffffffffffffffffffffffffffff1673ffffffffffffffffffffffffffffffffffffffff1673ffffffffffffffffffffffffffffffffffffffff1681526020016000820160149054906101000a900463ffffffff1663ffffffff1663ffffffff1681526020016000820160189054906101000a900463ffffffff1663ffffffff1663ffffffff16815250509050806000015173ffffffffffffffffffffffffffffffffffffffff168773ffffffffffffffffffffffffffffffffffffffff16146118fd576040517f08c379a00000000000000000000000000000000000000000000000000000000081526004016118f490614675565b60405180910390fd5b858285604051602001611911929190614471565b6040516020818303038152906040528051906020012086604051602001611939929190614471565b6040516020818303038152906040528051906020012060001c14611992576040517f08c379a0000000000000000000000000000000000000000000000000000000008152600401611989906145d5565b60405180910390fd5b6000816040015163ffffffff16116119df576040517f08c379a00000000000000000000000000000000000000000000000000000000081526004016119d6906145f5565b60405180910390fd5b6119e761353f565b6119f085611668565b6040518060800160405290816000820160009054906101000a900473ffffffffffffffffffffffffffffffffffffffff1673ffffffffffffffffffffffffffffffffffffffff1673ffffffffffffffffffffffffffffffffffffffff1681526020016000820160149054906101000a900463ffffffff1663ffffffff1663ffffffff1681526020016000820160189054906101000a900463ffffffff1663ffffffff1663ffffffff16815260200160008201601c9054906101000a900463ffffffff1663ffffffff1663ffffffff168152505090506000611ad8611ad387611e1f565b611e71565b9050611ae5858888612089565b611af485888560200151612180565b8873ffffffffffffffffffffffffffffffffffffffff16826000015173ffffffffffffffffffffffffffffffffffffffff161415611b4357611b3e898388848c886040015161227d565b611b57565b611b5689888489858d89604001516123ee565b5b6000600160008a815260200190815260200160002060000160186101000a81548163ffffffff021916908363ffffffff160217905550505050505050505050565b611ba48160001b6126e1565b6000611baf82611e1f565b9050670de0b6b3a7640000611bc382611fa6565b61ffff16028314611c09576040517f08c379a0000000000000000000000000000000000000000000000000000000008152600401611c0090614855565b60405180910390fd5b611c1484838361277a565b611c1d82612ad0565b50505050565b6000808263ffffffff16118015611c6157507f00000000000000000000000000000000000000000000000000000000000000008263ffffffff160142115b9050919050565b6000611c7386611e1f565b90506000611c8082611fa6565b905060008560000160146101000a81548163ffffffff021916908363ffffffff160217905550838560000160006101000a81548173ffffffffffffffffffffffffffffffffffffffff021916908373ffffffffffffffffffffffffffffffffffffffff1602179055504285600001601c6101000a81548163ffffffff021916908363ffffffff160217905550828560000160186101000a81548163ffffffff021916908363ffffffff1602179055506000670de0b6b3a76400008261ffff1602600260008973ffffffffffffffffffffffffffffffffffffffff1673ffffffffffffffffffffffffffffffffffffffff1681526020019081526020016000205401905080600260008973ffffffffffffffffffffffffffffffffffffffff1673ffffffffffffffffffffffffffffffffffffffff168152602001908152602001600020819055508673ffffffffffffffffffffffffffffffffffffffff167f4d135695228631e73b5a31e6fc8af4e5825cde63774c3c48695b4af814d7b01982604051611e0d91906148fa565b60405180910390a25050505050505050565b60007f000000000000000000000000000000000000000000000000000000000000000082604051602001611e54929190614471565b604051602081830303815290604052805190602001209050919050565b6000611eac600c7f0708083409600a8c0bb80ce40e100e100e100e101068151819c81e7823282ee060001b84612ef09092919063ffffffff16565b9050919050565b600080611ebf85611683565b80925081935050508115611f1a57600084420390506000610e108561ffff16830281611ee757fe5b048363ffffffff16019050638000000063ffffffff168110611f1457600163800000000363ffffffff1690505b80925050505b935093915050565b60008183611f31576000611f37565b63800000005b01905092915050565b60006001611f5b6034601085612f499092919063ffffffff16565b60ff16149050919050565b600080611f806000600385612f499092919063ffffffff16565b6001039150611f9c6002600385612f499092919063ffffffff16565b6001039050915091565b60006005611fe260047e01000200030004000500070009000a000a000c000f00140019001e0032006460001b85612ef09092919063ffffffff16565b029050919050565b6000610190612003601484612f6a90919063ffffffff16565b60ff1602610fa0019050919050565b600061019061202b601c84612f6a90919063ffffffff16565b60ff1602610fa0019050919050565b600061014d612053602484612f6a90919063ffffffff16565b60ff160261138d019050919050565b6000606461207a602c84612f6a90919063ffffffff16565b60ff16026107d0019050919050565b60008061209d61209885611e1f565b611f66565b915091506000806120b56120b086611e1f565b611f66565b91509150600060028460000b600460808a901c02018360000b600460808a901c020103600f0b0a60028660000b60046fffffffffffffffffffffffffffffffff8b1602018560000b60046fffffffffffffffffffffffffffffffff8b16020103600f0b0a01600f0b9050806002890a1115801561213757506002600189010a81105b612176576040517f08c379a000000000000000000000000000000000000000000000000000000000815260040161216d90614815565b60405180910390fd5b5050505050505050565b600061219361218e84611e1f565b61203a565b61ffff166127107f0000000000000000000000000000000000000000000000000000000000000000028502816121c557fe5b048263ffffffff1601905080421015612213576040517f08c379a000000000000000000000000000000000000000000000000000000000815260040161220a906147f5565b60405180910390fd5b7f000000000000000000000000000000000000000000000000000000000000000081014210612277576040517f08c379a000000000000000000000000000000000000000000000000000000000815260040161226e90614775565b60405180910390fd5b50505050565b61228a8560200151611c23565b15612306576122b18486600001516000808881526020019081526020016000208985611c68565b83828773ffffffffffffffffffffffffffffffffffffffff167f5ae4a32f52da37ce71ffbd586b7a6d06204ca2720e32e7009caf394f866eb1ea846040516122f9919061494c565b60405180910390a46123e6565b6000806123228760400151886060015163ffffffff1687611eb3565b91509150600083820163ffffffff169050638000000063ffffffff16811061235557600163800000000363ffffffff1690505b61235f8382611f22565b60008089815260200190815260200160002060000160186101000a81548163ffffffff021916908363ffffffff16021790555086858a73ffffffffffffffffffffffffffffffffffffffff167f5ae4a32f52da37ce71ffbd586b7a6d06204ca2720e32e7009caf394f866eb1ea846040516123da919061494c565b60405180910390a45050505b505050505050565b60006123f985611e1f565b90506000866060015163ffffffff16141561261857600061242161241c89611e1f565b611fea565b9050600061242e83612012565b9050600061243b84612062565b905060008061245e8763ffffffff168461ffff168761ffff168761ffff16613016565b915091508261ffff168163ffffffff1614801561248657508163ffffffff168763ffffffff16115b156125b5576000828803905061249d600082611f22565b6000808d815260200190815260200160002060000160186101000a81548163ffffffff021916908363ffffffff160217905550426000808d8152602001908152602001600020600001601c6101000a81548163ffffffff021916908363ffffffff1602179055508d6000808d815260200190815260200160002060000160006101000a81548173ffffffffffffffffffffffffffffffffffffffff021916908373ffffffffffffffffffffffffffffffffffffffff1602179055508a898f73ffffffffffffffffffffffffffffffffffffffff167ffbcd6656e9b46595bb8f8f32a788f85a157ecee2038db17a4fd65d98c0cc2b6986866001876040516125a794939291906149ac565b60405180910390a45061260e565b89888e73ffffffffffffffffffffffffffffffffffffffff167ffbcd6656e9b46595bb8f8f32a788f85a157ecee2038db17a4fd65d98c0cc2b698560008060006040516126059493929190614967565b60405180910390a45b50505050506126d7565b6126258660200151611c23565b156126a15761264c8587600001516000808981526020019081526020016000208b86611c68565b84838973ffffffffffffffffffffffffffffffffffffffff167f5ae4a32f52da37ce71ffbd586b7a6d06204ca2720e32e7009caf394f866eb1ea85604051612694919061494c565b60405180910390a46126d6565b60006126b46126af89611e1f565b611fea565b905060006126c183612012565b90506126d38a83838b8b8b8b8b6130d3565b50505b5b5050505050505050565b61277781604051602401808281526020019150506040516020818303038152906040527f27b7cf85000000000000000000000000000000000000000000000000000000007bffffffffffffffffffffffffffffffffffffffffffffffffffffffff19166020820180517bffffffffffffffffffffffffffffffffffffffffffffffffffffffff83818316178352505050506133bf565b50565b600061278583611668565b905060008160000160009054906101000a900473ffffffffffffffffffffffffffffffffffffffff169050600082600001601c9054906101000a900463ffffffff16905060008360000160189054906101000a900463ffffffff16905060008460000160149054906101000a900463ffffffff169050600080612817848663ffffffff166128128b611e71565b611eb3565b9150915060008060008763ffffffff161415612841576128368a612062565b61ffff169050612923565b60008563ffffffff16146128a05761285885611c23565b612897576040517f08c379a000000000000000000000000000000000000000000000000000000000815260040161288e90614755565b60405180910390fd5b60019150612922565b83156128e1576040517f08c379a00000000000000000000000000000000000000000000000000000000081526004016128d8906146f5565b60405180910390fd5b8b73ffffffffffffffffffffffffffffffffffffffff168873ffffffffffffffffffffffffffffffffffffffff161461291c57829050612921565b600090505b5b5b811561294a57610e1092506129458b898b8f612940600189611f22565b611c68565b612a73565b8b8960000160006101000a81548173ffffffffffffffffffffffffffffffffffffffff021916908373ffffffffffffffffffffffffffffffffffffffff16021790555060008163ffffffff1614612a1a5760006129bf610e108363ffffffff166127106129b68f612012565b61ffff16613016565b509050610e108163ffffffff161115612a0d576040517f08c379a0000000000000000000000000000000000000000000000000000000008152600401612a0490614715565b60405180910390fd5b80610e1003935050612a22565b610e10830192505b612a2d600184611f22565b8960000160186101000a81548163ffffffff021916908363ffffffff1602179055504289600001601c6101000a81548163ffffffff021916908363ffffffff1602179055505b8a8c73ffffffffffffffffffffffffffffffffffffffff167f2a71ecd53ebaf1eabe3c13c9f5d7e094b90eb780d3f6f658a4feb23db632a96c85604051612aba919061494c565b60405180910390a3505050505050505050505050565b612ad86134bc565b60046040518060800160405290816000820160009054906101000a900463ffffffff1663ffffffff1663ffffffff1681526020016000820160049054906101000a900463ffffffff1663ffffffff1663ffffffff1681526020016000820160089054906101000a900463ffffffff1663ffffffff1663ffffffff16815260200160008201600c9054906101000a900463ffffffff1663ffffffff1663ffffffff1681525050905060006fffffffffffffffffffffffffffffffff8316600f0b90506000608084901c600f0b9050600080831215612c5657836000015163ffffffff16836000031315612bff576040517f08c379a0000000000000000000000000000000000000000000000000000000008152600401612bf690614795565b60405180910390fd5b60068360000301925063ffffffff831315612c1c5763ffffffff92505b8263ffffffff16846000015163ffffffff161015612c515782846000019063ffffffff16908163ffffffff1681525050600190505b612cf3565b836020015163ffffffff16831315612ca3576040517f08c379a0000000000000000000000000000000000000000000000000000000008152600401612c9a90614735565b60405180910390fd5b60068301925063ffffffff831315612cbd5763ffffffff92505b8263ffffffff16846020015163ffffffff161015612cf25782846020019063ffffffff16908163ffffffff1681525050600190505b5b6000821215612da357836040015163ffffffff16826000031315612d4c576040517f08c379a0000000000000000000000000000000000000000000000000000000008152600401612d43906145b5565b60405180910390fd5b60068260000301915063ffffffff821315612d695763ffffffff91505b8163ffffffff16846040015163ffffffff161015612d9e5781846040019063ffffffff16908163ffffffff1681525050600190505b612e40565b836060015163ffffffff16821315612df0576040517f08c379a0000000000000000000000000000000000000000000000000000000008152600401612de790614875565b60405180910390fd5b60068201915063ffffffff821315612e0a5763ffffffff91505b8163ffffffff16846060015163ffffffff161015612e3f5781846060019063ffffffff16908163ffffffff1681525050600190505b5b8015612ee95783600460008201518160000160006101000a81548163ffffffff021916908363ffffffff16021790555060208201518160000160046101000a81548163ffffffff021916908363ffffffff16021790555060408201518160000160086101000a81548163ffffffff021916908363ffffffff160217905550606082015181600001600c6101000a81548163ffffffff021916908363ffffffff1602179055509050505b5050505050565b600080612efd8585612f6a565b9050826001600283020160ff1660208110612f1457fe5b1a60f81b60f81c60ff16610100846002840260ff1660208110612f3357fe5b1a60f81b60f81c60ff1602019150509392505050565b60008160ff168360ff1685901c60001c81612f6057fe5b0690509392505050565b600080612f7984846040612f49565b9050600060028260ff1681612f8a57fe5b049050600060028360ff1681612f9c57fe5b06905060007f01223334444555555666666677777777888888889999999aaaaaabbbbcccddef60001b8360ff1660208110612fd357fe5b1a60f81b60f81c905060008260ff161415612ffb5760048160ff16901c945050505050613010565b60108160ff168161300857fe5b069450505050505b92915050565b60008060008487029050600084870290506000826305f5e10089028161303857fe5b0490506305f5e100880283820210156130545780806001019150505b6000826305f5e1008b028161306557fe5b0490506305f5e1008a0283820210156130815780806001019150505b600061308d83836133e8565b90506130a86305f5e100858302816130a157fe5b048c6133e8565b96506130c36305f5e100868302816130bc57fe5b048b6133e8565b9550505050505094509492505050565b6000806130ef8760400151886060015163ffffffff1687611eb3565b915091506000806131168563ffffffff168463ffffffff168d61ffff168d61ffff16613016565b915091508463ffffffff168263ffffffff161415613203576000818403905061313f8582611f22565b6000808b815260200190815260200160002060000160186101000a81548163ffffffff021916908363ffffffff160217905550426000808b8152602001908152602001600020600001601c6101000a81548163ffffffff021916908363ffffffff16021790555088878e73ffffffffffffffffffffffffffffffffffffffff167ffbcd6656e9b46595bb8f8f32a788f85a157ecee2038db17a4fd65d98c0cc2b6986866000876040516131f594939291906149ac565b60405180910390a4506133b1565b8263ffffffff168163ffffffff16141561337557600082860390508c6000808b815260200190815260200160002060000160006101000a81548173ffffffffffffffffffffffffffffffffffffffff021916908373ffffffffffffffffffffffffffffffffffffffff16021790555060008060008b815260200190815260200160002060000160146101000a81548163ffffffff021916908363ffffffff1602179055506132b18582611f22565b6000808b815260200190815260200160002060000160186101000a81548163ffffffff021916908363ffffffff160217905550426000808b8152602001908152602001600020600001601c6101000a81548163ffffffff021916908363ffffffff16021790555088878e73ffffffffffffffffffffffffffffffffffffffff167ffbcd6656e9b46595bb8f8f32a788f85a157ecee2038db17a4fd65d98c0cc2b69868660018760405161336794939291906149ac565b60405180910390a4506133b0565b6040517f08c379a00000000000000000000000000000000000000000000000000000000081526004016133a790614895565b60405180910390fd5b5b505050505050505050505050565b60008151905060006a636f6e736f6c652e6c6f679050602083016000808483855afa5050505050565b6000818311156133f857816133fa565b825b905092915050565b6040518060a00160405280600073ffffffffffffffffffffffffffffffffffffffff168152602001600063ffffffff168152602001600063ffffffff168152602001600063ffffffff1681526020016000151581525090565b6040518061010001604052806000800b81526020016000800b8152602001600061ffff168152602001600061ffff168152602001600061ffff168152602001600061ffff168152602001600061ffff168152602001600061ffff1681525090565b6040518060800160405280600063ffffffff168152602001600063ffffffff168152602001600063ffffffff168152602001600063ffffffff1681525090565b6040518060600160405280600073ffffffffffffffffffffffffffffffffffffffff168152602001600063ffffffff168152602001600063ffffffff1681525090565b6040518060800160405280600073ffffffffffffffffffffffffffffffffffffffff168152602001600063ffffffff168152602001600063ffffffff168152602001600063ffffffff1681525090565b60008135905061359e81614b02565b92915050565b60008083601f8401126135b657600080fd5b8235905067ffffffffffffffff8111156135cf57600080fd5b6020830191508360208202830111156135e757600080fd5b9250929050565b6000813590506135fd81614b19565b92915050565b60008151905061361281614b19565b92915050565b60008135905061362781614b30565b92915050565b60008083601f84011261363f57600080fd5b8235905067ffffffffffffffff81111561365857600080fd5b60208301915083600182028301111561367057600080fd5b9250929050565b60008135905061368681614b47565b92915050565b60008135905061369b81614b5e565b92915050565b6000813590506136b081614b75565b92915050565b6000813590506136c581614b8c565b92915050565b6000602082840312156136dd57600080fd5b60006136eb8482850161358f565b91505092915050565b60008060006040848603121561370957600080fd5b60006137178682870161358f565b935050602084013567ffffffffffffffff81111561373457600080fd5b613740868287016135a4565b92509250509250925092565b6000806040838503121561375f57600080fd5b600061376d8582860161358f565b925050602061377e858286016135ee565b9150509250929050565b6000806040838503121561379b57600080fd5b60006137a98582860161358f565b92505060206137ba858286016136a1565b9150509250929050565b600080600080606085870312156137da57600080fd5b60006137e88782880161358f565b94505060206137f9878288016136a1565b935050604085013567ffffffffffffffff81111561381657600080fd5b6138228782880161362d565b925092505092959194509250565b60008060008060008060c0878903121561384957600080fd5b600061385789828a0161358f565b965050602061386889828a016136a1565b955050604061387989828a016136a1565b945050606061388a89828a016136a1565b935050608061389b89828a016136a1565b92505060a06138ac89828a01613618565b9150509295509295509295565b600080600080608085870312156138cf57600080fd5b60006138dd8782880161358f565b94505060206138ee878288016136a1565b93505060406138ff878288016136b6565b925050606061391087828801613618565b91505092959194509250565b6000806020838503121561392f57600080fd5b600083013567ffffffffffffffff81111561394957600080fd5b613955858286016135a4565b92509250509250929050565b60006020828403121561397357600080fd5b600061398184828501613603565b91505092915050565b600080600080600060a086880312156139a257600080fd5b60006139b088828901613677565b95505060206139c188828901613618565b94505060406139d28882890161368c565b93505060606139e38882890161368c565b92505060806139f48882890161368c565b9150509295509295909350565b600060208284031215613a1357600080fd5b6000613a21848285016136a1565b91505092915050565b60008060408385031215613a3d57600080fd5b6000613a4b858286016136a1565b9250506020613a5c858286016136a1565b9150509250929050565b600080600080600060a08688031215613a7e57600080fd5b6000613a8c888289016136a1565b9550506020613a9d888289016136a1565b9450506040613aae888289016136a1565b9350506060613abf888289016136a1565b9250506080613ad088828901613618565b9150509295509295909350565b600080600060608486031215613af257600080fd5b6000613b00868287016136a1565b9350506020613b11868287016136b6565b9250506040613b2286828701613618565b9150509250925092565b6000613b3883836142ac565b60a08301905092915050565b613b4d81614a3b565b82525050565b613b5c81614a3b565b82525050565b6000613b6d82614a01565b613b778185614a19565b9350613b82836149f1565b8060005b83811015613bb3578151613b9a8882613b2c565b9750613ba583614a0c565b925050600181019050613b86565b5085935050505092915050565b613bc981614a4d565b82525050565b613bd881614a4d565b82525050565b613be781614a59565b82525050565b613bfe613bf982614a59565b614aee565b82525050565b613c0d81614a75565b82525050565b613c1c81614aca565b82525050565b613c2b81614adc565b82525050565b6000613c3e601683614a2a565b91507f4e4f545f524541434841424c455f5945545f4d494e59000000000000000000006000830152602082019050919050565b6000613c7e602083614a2a565b91507f696e76616c69642027746f272c202766726f6d27206f722027736563726574276000830152602082019050919050565b6000613cbe600783614a2a565b91507f6e6f206d6f7265000000000000000000000000000000000000000000000000006000830152602082019050919050565b6000613cfe600f83614a2a565b91507f45584954494e475f414c524541445900000000000000000000000000000000006000830152602082019050919050565b6000613d3e600d83614a2a565b91507f494e56414c49445f4552433230000000000000000000000000000000000000006000830152602082019050919050565b6000613d7e600b83614a2a565b91507f504c414e45545f455849540000000000000000000000000000000000000000006000830152602082019050919050565b6000613dbe601283614a2a565b91507f6e6f74206f776e6572206f6620666c65657400000000000000000000000000006000830152602082019050919050565b6000613dfe601a83614a2a565b91507f6e6f20706c616e657420696e2074686973206c6f636174696f6e0000000000006000830152602082019050919050565b6000613e3e601783614a2a565b91507f6e6f74206f776e6572206f662074686520706c616e65740000000000000000006000830152602082019050919050565b6000613e7e600f83614a2a565b91507f4641494c45445f5452414e5346455200000000000000000000000000000000006000830152602082019050919050565b6000613ebe600c83614a2a565b91507f5354494c4c5f41435449564500000000000000000000000000000000000000006000830152602082019050919050565b6000613efe600f83614a2a565b91507f4641494c45445f434150545552454400000000000000000000000000000000006000830152602082019050919050565b6000613f3e601683614a2a565b91507f4e4f545f524541434841424c455f5945545f4d415858000000000000000000006000830152602082019050919050565b6000613f7e600d83614a2a565b91507f5354494c4c5f45584954494e47000000000000000000000000000000000000006000830152602082019050919050565b6000613fbe602b83614a2a565b91507f746f6f206c6174652c20796f7572207370616365736869707320617265206c6f60008301527f737420696e2073706163650000000000000000000000000000000000000000006020830152604082019050919050565b6000614024601683614a2a565b91507f4e4f545f524541434841424c455f5945545f4d494e58000000000000000000006000830152602082019050919050565b6000614064601583614a2a565b91507f6e6f7420656e6f756768207370616365736869707300000000000000000000006000830152602082019050919050565b60006140a4600983614a2a565b91507f4e4f545f4f574e455200000000000000000000000000000000000000000000006000830152602082019050919050565b60006140e4600983614a2a565b91507f746f6f206561726c7900000000000000000000000000000000000000000000006000830152602082019050919050565b6000614124600e83614a2a565b91507f77726f6e672064697374616e63650000000000000000000000000000000000006000830152602082019050919050565b6000614164600e83614a2a565b91507f4e4f545f415554484f52495a45440000000000000000000000000000000000006000830152602082019050919050565b60006141a4600e83614a2a565b91507f494e56414c49445f414d4f554e540000000000000000000000000000000000006000830152602082019050919050565b60006141e4601683614a2a565b91507f4e4f545f524541434841424c455f5945545f4d415859000000000000000000006000830152602082019050919050565b6000614224600a83614a2a565b91507f6e6f626f647920776f6e000000000000000000000000000000000000000000006000830152602082019050919050565b60808201600082015161426d6000850182614453565b5060208201516142806020850182614453565b5060408201516142936040850182614453565b5060608201516142a66060850182614453565b50505050565b60a0820160008201516142c26000850182613b44565b5060208201516142d56020850182614453565b5060408201516142e86040850182614453565b5060608201516142fb6060850182614453565b50608082015161430e6080850182613bc0565b50505050565b60a08201600082015161432a6000850182613b44565b50602082015161433d6020850182614453565b5060408201516143506040850182614453565b5060608201516143636060850182614453565b5060808201516143766080850182613bc0565b50505050565b610100820160008201516143936000850182613c04565b5060208201516143a66020850182613c04565b5060408201516143b9604085018261441e565b5060608201516143cc606085018261441e565b5060808201516143df608085018261441e565b5060a08201516143f260a085018261441e565b5060c082015161440560c085018261441e565b5060e082015161441860e085018261441e565b50505050565b61442781614a82565b82525050565b61443681614ab0565b82525050565b61444d61444882614ab0565b614af8565b82525050565b61445c81614aba565b82525050565b61446b81614aba565b82525050565b600061447d8285613bed565b60208201915061448d828461443c565b6020820191508190509392505050565b60006060820190506144b26000830186613b53565b6144bf6020830185613b53565b6144cc604083018461442d565b949350505050565b60006040820190506144e96000830185613b53565b6144f6602083018461442d565b9392505050565b60006060820190506145126000830186613b53565b61451f6020830185614462565b61452c6040830184614462565b949350505050565b600060a082019050818103600083015261454e8185613b62565b905061455d6020830184614257565b9392505050565b60006020820190506145796000830184613bcf565b92915050565b60006020820190506145946000830184613bde565b92915050565b60006020820190506145af6000830184613c13565b92915050565b600060208201905081810360008301526145ce81613c31565b9050919050565b600060208201905081810360008301526145ee81613c71565b9050919050565b6000602082019050818103600083015261460e81613cb1565b9050919050565b6000602082019050818103600083015261462e81613cf1565b9050919050565b6000602082019050818103600083015261464e81613d31565b9050919050565b6000602082019050818103600083015261466e81613d71565b9050919050565b6000602082019050818103600083015261468e81613db1565b9050919050565b600060208201905081810360008301526146ae81613df1565b9050919050565b600060208201905081810360008301526146ce81613e31565b9050919050565b600060208201905081810360008301526146ee81613e71565b9050919050565b6000602082019050818103600083015261470e81613eb1565b9050919050565b6000602082019050818103600083015261472e81613ef1565b9050919050565b6000602082019050818103600083015261474e81613f31565b9050919050565b6000602082019050818103600083015261476e81613f71565b9050919050565b6000602082019050818103600083015261478e81613fb1565b9050919050565b600060208201905081810360008301526147ae81614017565b9050919050565b600060208201905081810360008301526147ce81614057565b9050919050565b600060208201905081810360008301526147ee81614097565b9050919050565b6000602082019050818103600083015261480e816140d7565b9050919050565b6000602082019050818103600083015261482e81614117565b9050919050565b6000602082019050818103600083015261484e81614157565b9050919050565b6000602082019050818103600083015261486e81614197565b9050919050565b6000602082019050818103600083015261488e816141d7565b9050919050565b600060208201905081810360008301526148ae81614217565b9050919050565b60006080820190506148ca6000830184614257565b92915050565b60006101a0820190506148e66000830185614314565b6148f360a083018461437c565b9392505050565b600060208201905061490f600083018461442d565b92915050565b600060608201905061492a600083018661442d565b6149376020830185614462565b6149446040830184614462565b949350505050565b60006020820190506149616000830184614462565b92915050565b600060808201905061497c6000830187614462565b6149896020830186613c22565b6149966040830185613bcf565b6149a36060830184613c22565b95945050505050565b60006080820190506149c16000830187614462565b6149ce6020830186614462565b6149db6040830185613bcf565b6149e86060830184614462565b95945050505050565b6000819050602082019050919050565b600081519050919050565b6000602082019050919050565b600082825260208201905092915050565b600082825260208201905092915050565b6000614a4682614a90565b9050919050565b60008115159050919050565b6000819050919050565b6000614a6e82614a3b565b9050919050565b60008160000b9050919050565b600061ffff82169050919050565b600073ffffffffffffffffffffffffffffffffffffffff82169050919050565b6000819050919050565b600063ffffffff82169050919050565b6000614ad582614ab0565b9050919050565b6000614ae782614aba565b9050919050565b6000819050919050565b6000819050919050565b614b0b81614a3b565b8114614b1657600080fd5b50565b614b2281614a4d565b8114614b2d57600080fd5b50565b614b3981614a59565b8114614b4457600080fd5b50565b614b5081614a63565b8114614b5b57600080fd5b50565b614b6781614a82565b8114614b7257600080fd5b50565b614b7e81614ab0565b8114614b8957600080fd5b50565b614b9581614aba565b8114614ba057600080fd5b5056fea2646970667358221220e99134db472d153bb5b1647f961d6610869b9f71cafb77079c1f78e06412803364736f6c63430007050033",
  "devdoc": {
    "kind": "dev",
    "methods": {},
    "version": 1
  },
  "userdoc": {
    "kind": "user",
    "methods": {},
    "version": 1
  },
  "storageLayout": {
    "storage": [
      {
        "astId": 8656,
        "contract": "src/OuterSpace.sol:OuterSpace",
        "label": "_planets",
        "offset": 0,
        "slot": "0",
        "type": "t_mapping(t_uint256,t_struct(Planet)8690_storage)"
      },
      {
        "astId": 8660,
        "contract": "src/OuterSpace.sol:OuterSpace",
        "label": "_fleets",
        "offset": 0,
        "slot": "1",
        "type": "t_mapping(t_uint256,t_struct(Fleet)8697_storage)"
      },
      {
        "astId": 8664,
        "contract": "src/OuterSpace.sol:OuterSpace",
        "label": "_stakeReadyToBeWithdrawn",
        "offset": 0,
        "slot": "2",
        "type": "t_mapping(t_address,t_uint256)"
      },
      {
        "astId": 8670,
        "contract": "src/OuterSpace.sol:OuterSpace",
        "label": "_operators",
        "offset": 0,
        "slot": "3",
        "type": "t_mapping(t_address,t_mapping(t_address,t_bool))"
      },
      {
        "astId": 8681,
        "contract": "src/OuterSpace.sol:OuterSpace",
        "label": "_discovered",
        "offset": 0,
        "slot": "4",
        "type": "t_struct(Discovered)8679_storage"
      }
    ],
    "types": {
      "t_address": {
        "encoding": "inplace",
        "label": "address",
        "numberOfBytes": "20"
      },
      "t_bool": {
        "encoding": "inplace",
        "label": "bool",
        "numberOfBytes": "1"
      },
      "t_mapping(t_address,t_bool)": {
        "encoding": "mapping",
        "key": "t_address",
        "label": "mapping(address => bool)",
        "numberOfBytes": "32",
        "value": "t_bool"
      },
      "t_mapping(t_address,t_mapping(t_address,t_bool))": {
        "encoding": "mapping",
        "key": "t_address",
        "label": "mapping(address => mapping(address => bool))",
        "numberOfBytes": "32",
        "value": "t_mapping(t_address,t_bool)"
      },
      "t_mapping(t_address,t_uint256)": {
        "encoding": "mapping",
        "key": "t_address",
        "label": "mapping(address => uint256)",
        "numberOfBytes": "32",
        "value": "t_uint256"
      },
      "t_mapping(t_uint256,t_struct(Fleet)8697_storage)": {
        "encoding": "mapping",
        "key": "t_uint256",
        "label": "mapping(uint256 => struct OuterSpace.Fleet)",
        "numberOfBytes": "32",
        "value": "t_struct(Fleet)8697_storage"
      },
      "t_mapping(t_uint256,t_struct(Planet)8690_storage)": {
        "encoding": "mapping",
        "key": "t_uint256",
        "label": "mapping(uint256 => struct OuterSpace.Planet)",
        "numberOfBytes": "32",
        "value": "t_struct(Planet)8690_storage"
      },
      "t_struct(Discovered)8679_storage": {
        "encoding": "inplace",
        "label": "struct OuterSpace.Discovered",
        "members": [
          {
            "astId": 8672,
            "contract": "src/OuterSpace.sol:OuterSpace",
            "label": "minX",
            "offset": 0,
            "slot": "0",
            "type": "t_uint32"
          },
          {
            "astId": 8674,
            "contract": "src/OuterSpace.sol:OuterSpace",
            "label": "maxX",
            "offset": 4,
            "slot": "0",
            "type": "t_uint32"
          },
          {
            "astId": 8676,
            "contract": "src/OuterSpace.sol:OuterSpace",
            "label": "minY",
            "offset": 8,
            "slot": "0",
            "type": "t_uint32"
          },
          {
            "astId": 8678,
            "contract": "src/OuterSpace.sol:OuterSpace",
            "label": "maxY",
            "offset": 12,
            "slot": "0",
            "type": "t_uint32"
          }
        ],
        "numberOfBytes": "32"
      },
      "t_struct(Fleet)8697_storage": {
        "encoding": "inplace",
        "label": "struct OuterSpace.Fleet",
        "members": [
          {
            "astId": 8692,
            "contract": "src/OuterSpace.sol:OuterSpace",
            "label": "owner",
            "offset": 0,
            "slot": "0",
            "type": "t_address"
          },
          {
            "astId": 8694,
            "contract": "src/OuterSpace.sol:OuterSpace",
            "label": "launchTime",
            "offset": 20,
            "slot": "0",
            "type": "t_uint32"
          },
          {
            "astId": 8696,
            "contract": "src/OuterSpace.sol:OuterSpace",
            "label": "quantity",
            "offset": 24,
            "slot": "0",
            "type": "t_uint32"
          }
        ],
        "numberOfBytes": "32"
      },
      "t_struct(Planet)8690_storage": {
        "encoding": "inplace",
        "label": "struct OuterSpace.Planet",
        "members": [
          {
            "astId": 8683,
            "contract": "src/OuterSpace.sol:OuterSpace",
            "label": "owner",
            "offset": 0,
            "slot": "0",
            "type": "t_address"
          },
          {
            "astId": 8685,
            "contract": "src/OuterSpace.sol:OuterSpace",
            "label": "exitTime",
            "offset": 20,
            "slot": "0",
            "type": "t_uint32"
          },
          {
            "astId": 8687,
            "contract": "src/OuterSpace.sol:OuterSpace",
            "label": "numSpaceships",
            "offset": 24,
            "slot": "0",
            "type": "t_uint32"
          },
          {
            "astId": 8689,
            "contract": "src/OuterSpace.sol:OuterSpace",
            "label": "lastUpdated",
            "offset": 28,
            "slot": "0",
            "type": "t_uint32"
          }
        ],
        "numberOfBytes": "32"
      },
      "t_uint256": {
        "encoding": "inplace",
        "label": "uint256",
        "numberOfBytes": "32"
      },
      "t_uint32": {
        "encoding": "inplace",
        "label": "uint32",
        "numberOfBytes": "4"
      }
    }
  }
}