{
  "address": "0x134872ea84272Ae6604b8f9d5392eD75af1c0c54",
  "abi": [
    {
      "inputs": [
        {
          "internalType": "contract IERC20",
          "name": "stakingToken",
          "type": "address"
        },
        {
          "internalType": "bytes32",
          "name": "genesis",
          "type": "bytes32"
        },
        {
          "internalType": "uint32",
          "name": "resolveWindow",
          "type": "uint32"
        },
        {
          "internalType": "uint32",
          "name": "timePerDistance",
          "type": "uint32"
        },
        {
          "internalType": "uint32",
          "name": "exitDuration",
          "type": "uint32"
        },
        {
          "internalType": "uint32",
          "name": "acquireNumSpaceships",
          "type": "uint32"
        }
      ],
      "stateMutability": "nonpayable",
      "type": "constructor"
    },
    {
      "anonymous": false,
      "inputs": [
        {
          "indexed": true,
          "internalType": "address",
          "name": "owner",
          "type": "address"
        },
        {
          "indexed": true,
          "internalType": "address",
          "name": "operator",
          "type": "address"
        },
        {
          "indexed": false,
          "internalType": "bool",
          "name": "approved",
          "type": "bool"
        }
      ],
      "name": "ApprovalForAll",
      "type": "event"
    },
    {
      "anonymous": false,
      "inputs": [
        {
          "indexed": true,
          "internalType": "uint256",
          "name": "fleet",
          "type": "uint256"
        },
        {
          "indexed": true,
          "internalType": "address",
          "name": "fleetOwner",
          "type": "address"
        },
        {
          "indexed": true,
          "internalType": "address",
          "name": "destinationOwner",
          "type": "address"
        },
        {
          "indexed": false,
          "internalType": "uint256",
          "name": "destination",
          "type": "uint256"
        },
        {
          "indexed": false,
          "internalType": "uint32",
          "name": "fleetLoss",
          "type": "uint32"
        },
        {
          "indexed": false,
          "internalType": "uint32",
          "name": "planetLoss",
          "type": "uint32"
        },
        {
          "indexed": false,
          "internalType": "uint32",
          "name": "inFlightFleetLoss",
          "type": "uint32"
        },
        {
          "indexed": false,
          "internalType": "uint32",
          "name": "inFlightPlanetLoss",
          "type": "uint32"
        },
        {
          "indexed": false,
          "internalType": "bool",
          "name": "won",
          "type": "bool"
        },
        {
          "indexed": false,
          "internalType": "uint32",
          "name": "newNumspaceships",
          "type": "uint32"
        }
      ],
      "name": "FleetArrived",
      "type": "event"
    },
    {
      "anonymous": false,
      "inputs": [
        {
          "indexed": true,
          "internalType": "address",
          "name": "fleetOwner",
          "type": "address"
        },
        {
          "indexed": true,
          "internalType": "uint256",
          "name": "from",
          "type": "uint256"
        },
        {
          "indexed": false,
          "internalType": "uint256",
          "name": "fleet",
          "type": "uint256"
        },
        {
          "indexed": false,
          "internalType": "uint32",
          "name": "quantity",
          "type": "uint32"
        },
        {
          "indexed": false,
          "internalType": "uint32",
          "name": "newNumSpaceships",
          "type": "uint32"
        }
      ],
      "name": "FleetSent",
      "type": "event"
    },
    {
      "anonymous": false,
      "inputs": [
        {
          "indexed": true,
          "internalType": "address",
          "name": "owner",
          "type": "address"
        },
        {
          "indexed": true,
          "internalType": "uint256",
          "name": "location",
          "type": "uint256"
        }
      ],
      "name": "PlanetExit",
      "type": "event"
    },
    {
      "anonymous": false,
      "inputs": [
        {
          "indexed": true,
          "internalType": "address",
          "name": "acquirer",
          "type": "address"
        },
        {
          "indexed": true,
          "internalType": "uint256",
          "name": "location",
          "type": "uint256"
        },
        {
          "indexed": false,
          "internalType": "uint32",
          "name": "numSpaceships",
          "type": "uint32"
        }
      ],
      "name": "PlanetStake",
      "type": "event"
    },
    {
      "anonymous": false,
      "inputs": [
        {
          "indexed": true,
          "internalType": "address",
          "name": "owner",
          "type": "address"
        },
        {
          "indexed": false,
          "internalType": "uint256",
          "name": "newStake",
          "type": "uint256"
        }
      ],
      "name": "StakeToWithdraw",
      "type": "event"
    },
    {
      "inputs": [
        {
          "internalType": "uint256",
          "name": "location",
          "type": "uint256"
        },
        {
          "internalType": "uint256",
          "name": "amount",
          "type": "uint256"
        }
      ],
      "name": "acquireViaTransferFrom",
      "outputs": [],
      "stateMutability": "nonpayable",
      "type": "function"
    },
    {
      "inputs": [
        {
          "internalType": "address",
          "name": "owner",
          "type": "address"
        }
      ],
      "name": "balanceToWithdraw",
      "outputs": [
        {
          "internalType": "uint256",
          "name": "",
          "type": "uint256"
        }
      ],
      "stateMutability": "view",
      "type": "function"
    },
    {
      "inputs": [
        {
          "internalType": "address",
          "name": "owner",
          "type": "address"
        },
        {
          "internalType": "uint256",
          "name": "location",
          "type": "uint256"
        }
      ],
      "name": "exitFor",
      "outputs": [],
      "stateMutability": "nonpayable",
      "type": "function"
    },
    {
      "inputs": [
        {
          "internalType": "address",
          "name": "owner",
          "type": "address"
        },
        {
          "internalType": "uint256[]",
          "name": "locations",
          "type": "uint256[]"
        }
      ],
      "name": "fetchAndWithdrawFor",
      "outputs": [],
      "stateMutability": "nonpayable",
      "type": "function"
    },
    {
      "inputs": [],
      "name": "getDiscovered",
      "outputs": [
        {
          "components": [
            {
              "internalType": "uint32",
              "name": "minX",
              "type": "uint32"
            },
            {
              "internalType": "uint32",
              "name": "maxX",
              "type": "uint32"
            },
            {
              "internalType": "uint32",
              "name": "minY",
              "type": "uint32"
            },
            {
              "internalType": "uint32",
              "name": "maxY",
              "type": "uint32"
            }
          ],
          "internalType": "struct OuterSpace.Discovered",
          "name": "",
          "type": "tuple"
        }
      ],
      "stateMutability": "view",
      "type": "function"
    },
    {
      "inputs": [
        {
          "internalType": "uint256",
          "name": "fleetId",
          "type": "uint256"
        }
      ],
      "name": "getFleet",
      "outputs": [
        {
          "internalType": "address",
          "name": "owner",
          "type": "address"
        },
        {
          "internalType": "uint32",
          "name": "launchTime",
          "type": "uint32"
        },
        {
          "internalType": "uint32",
          "name": "quantity",
          "type": "uint32"
        }
      ],
      "stateMutability": "view",
      "type": "function"
    },
    {
      "inputs": [],
      "name": "getGeneisHash",
      "outputs": [
        {
          "internalType": "bytes32",
          "name": "",
          "type": "bytes32"
        }
      ],
      "stateMutability": "view",
      "type": "function"
    },
    {
      "inputs": [
        {
          "internalType": "uint256",
          "name": "location",
          "type": "uint256"
        }
      ],
      "name": "getPlanet",
      "outputs": [
        {
          "components": [
            {
              "internalType": "address",
              "name": "owner",
              "type": "address"
            },
            {
              "internalType": "uint32",
              "name": "exitTime",
              "type": "uint32"
            },
            {
              "internalType": "uint32",
              "name": "numSpaceships",
              "type": "uint32"
            },
            {
              "internalType": "uint32",
              "name": "lastUpdated",
              "type": "uint32"
            },
            {
              "internalType": "bool",
              "name": "active",
              "type": "bool"
            }
          ],
          "internalType": "struct OuterSpace.ExternalPlanet",
          "name": "state",
          "type": "tuple"
        },
        {
          "components": [
            {
              "internalType": "int8",
              "name": "subX",
              "type": "int8"
            },
            {
              "internalType": "int8",
              "name": "subY",
              "type": "int8"
            },
            {
              "internalType": "uint16",
              "name": "stake",
              "type": "uint16"
            },
            {
              "internalType": "uint16",
              "name": "production",
              "type": "uint16"
            },
            {
              "internalType": "uint16",
              "name": "attack",
              "type": "uint16"
            },
            {
              "internalType": "uint16",
              "name": "defense",
              "type": "uint16"
            },
            {
              "internalType": "uint16",
              "name": "speed",
              "type": "uint16"
            },
            {
              "internalType": "uint16",
              "name": "natives",
              "type": "uint16"
            }
          ],
          "internalType": "struct OuterSpace.PlanetStats",
          "name": "stats",
          "type": "tuple"
        }
      ],
      "stateMutability": "view",
      "type": "function"
    },
    {
      "inputs": [
        {
          "internalType": "uint256[]",
          "name": "locations",
          "type": "uint256[]"
        }
      ],
      "name": "getPlanetStates",
      "outputs": [
        {
          "components": [
            {
              "internalType": "address",
              "name": "owner",
              "type": "address"
            },
            {
              "internalType": "uint32",
              "name": "exitTime",
              "type": "uint32"
            },
            {
              "internalType": "uint32",
              "name": "numSpaceships",
              "type": "uint32"
            },
            {
              "internalType": "uint32",
              "name": "lastUpdated",
              "type": "uint32"
            },
            {
              "internalType": "bool",
              "name": "active",
              "type": "bool"
            }
          ],
          "internalType": "struct OuterSpace.ExternalPlanet[]",
          "name": "planetStates",
          "type": "tuple[]"
        },
        {
          "components": [
            {
              "internalType": "uint32",
              "name": "minX",
              "type": "uint32"
            },
            {
              "internalType": "uint32",
              "name": "maxX",
              "type": "uint32"
            },
            {
              "internalType": "uint32",
              "name": "minY",
              "type": "uint32"
            },
            {
              "internalType": "uint32",
              "name": "maxY",
              "type": "uint32"
            }
          ],
          "internalType": "struct OuterSpace.Discovered",
          "name": "discovered",
          "type": "tuple"
        }
      ],
      "stateMutability": "view",
      "type": "function"
    },
    {
      "inputs": [
        {
          "internalType": "address",
          "name": "",
          "type": "address"
        },
        {
          "internalType": "address",
          "name": "forAddress",
          "type": "address"
        },
        {
          "internalType": "uint256",
          "name": "amount",
          "type": "uint256"
        },
        {
          "internalType": "bytes",
          "name": "data",
          "type": "bytes"
        }
      ],
      "name": "onTokenPaidFor",
      "outputs": [
        {
          "internalType": "bool",
          "name": "",
          "type": "bool"
        }
      ],
      "stateMutability": "nonpayable",
      "type": "function"
    },
    {
      "inputs": [
        {
          "internalType": "address",
          "name": "",
          "type": "address"
        },
        {
          "internalType": "uint256",
          "name": "amount",
          "type": "uint256"
        },
        {
          "internalType": "bytes",
          "name": "data",
          "type": "bytes"
        }
      ],
      "name": "onTokenTransfer",
      "outputs": [
        {
          "internalType": "bool",
          "name": "",
          "type": "bool"
        }
      ],
      "stateMutability": "nonpayable",
      "type": "function"
    },
    {
      "inputs": [
        {
          "internalType": "contract IERC20",
          "name": "",
          "type": "address"
        },
        {
          "internalType": "bytes32",
          "name": "",
          "type": "bytes32"
        },
        {
          "internalType": "uint32",
          "name": "",
          "type": "uint32"
        },
        {
          "internalType": "uint32",
          "name": "",
          "type": "uint32"
        },
        {
          "internalType": "uint32",
          "name": "",
          "type": "uint32"
        },
        {
          "internalType": "uint32",
          "name": "",
          "type": "uint32"
        }
      ],
      "name": "postUpgrade",
      "outputs": [],
      "stateMutability": "nonpayable",
      "type": "function"
    },
    {
      "inputs": [
        {
          "internalType": "uint256",
          "name": "fleetId",
          "type": "uint256"
        },
        {
          "internalType": "uint256",
          "name": "from",
          "type": "uint256"
        },
        {
          "internalType": "uint256",
          "name": "to",
          "type": "uint256"
        },
        {
          "internalType": "uint256",
          "name": "distance",
          "type": "uint256"
        },
        {
          "internalType": "bytes32",
          "name": "secret",
          "type": "bytes32"
        }
      ],
      "name": "resolveFleet",
      "outputs": [],
      "stateMutability": "nonpayable",
      "type": "function"
    },
    {
      "inputs": [
        {
          "internalType": "uint256",
          "name": "from",
          "type": "uint256"
        },
        {
          "internalType": "uint32",
          "name": "quantity",
          "type": "uint32"
        },
        {
          "internalType": "bytes32",
          "name": "toHash",
          "type": "bytes32"
        }
      ],
      "name": "send",
      "outputs": [],
      "stateMutability": "nonpayable",
      "type": "function"
    },
    {
      "inputs": [
        {
          "internalType": "address",
          "name": "owner",
          "type": "address"
        },
        {
          "internalType": "uint256",
          "name": "from",
          "type": "uint256"
        },
        {
          "internalType": "uint32",
          "name": "quantity",
          "type": "uint32"
        },
        {
          "internalType": "bytes32",
          "name": "toHash",
          "type": "bytes32"
        }
      ],
      "name": "sendFor",
      "outputs": [],
      "stateMutability": "nonpayable",
      "type": "function"
    },
    {
      "inputs": [
        {
          "internalType": "address",
          "name": "operator",
          "type": "address"
        },
        {
          "internalType": "bool",
          "name": "approved",
          "type": "bool"
        }
      ],
      "name": "setApprovalForAll",
      "outputs": [],
      "stateMutability": "nonpayable",
      "type": "function"
    },
    {
      "inputs": [
        {
          "internalType": "address",
          "name": "owner",
          "type": "address"
        }
      ],
      "name": "withdrawFor",
      "outputs": [],
      "stateMutability": "nonpayable",
      "type": "function"
    }
  ],
  "transactionHash": "0xa8ec3d0030bc90550e14482f4600f0960af427de1cd9d72d01d7aab8ca932cc8",
  "args": [
    "0xF114F1D90010Cf5CD148Be2e1630A258cF994365",
    "0xe0c3fa9ae97fc9b60baae605896b5e3e7cecb6baaaa4708162d1ec51e8d65a68",
    7200,
    7200,
    259200,
    100000
  ],
  "linkedData": {
    "genesisHash": "0xe0c3fa9ae97fc9b60baae605896b5e3e7cecb6baaaa4708162d1ec51e8d65a68",
    "resolveWindow": 7200,
    "timePerDistance": 7200,
    "exitDuration": 259200
  },
  "solcInputHash": "f21837aa81ca0e8f663541cdd642693a",
  "bytecode": "0x6101406040523480156200001257600080fd5b5060405162005c0538038062005c05833981810160405281019062000038919062000383565b600060048463ffffffff16816200004b57fe5b0490508363ffffffff166004820263ffffffff1614620000a2576040517f08c379a000000000000000000000000000000000000000000000000000000000815260040162000099906200045b565b60405180910390fd5b8673ffffffffffffffffffffffffffffffffffffffff1660a08173ffffffffffffffffffffffffffffffffffffffff1660601b8152505085608081815250508463ffffffff1660c081815250508063ffffffff1660e081815250508263ffffffff1661010081815250508163ffffffff166101208163ffffffff1660e01b815250506200013a8787878787876200014760201b60201c565b505050505050506200053e565b6000620001596200031560201b60201c565b9050600073ffffffffffffffffffffffffffffffffffffffff168173ffffffffffffffffffffffffffffffffffffffff161415620001ce5773ffffffffffffffffffffffffffffffffffffffff7fb53127684a568b3173ae13b9f8a6016e243e63b6e8ee1178d6a717850b5d61035562000208565b8073ffffffffffffffffffffffffffffffffffffffff163373ffffffffffffffffffffffffffffffffffffffff16146200020757600080fd5b5b6000600560000160009054906101000a900463ffffffff1663ffffffff1614156200030c576040518060800160405280600c63ffffffff168152602001600c63ffffffff168152602001600c63ffffffff168152602001600c63ffffffff16815250600560008201518160000160006101000a81548163ffffffff021916908363ffffffff16021790555060208201518160000160046101000a81548163ffffffff021916908363ffffffff16021790555060408201518160000160086101000a81548163ffffffff021916908363ffffffff160217905550606082015181600001600c6101000a81548163ffffffff021916908363ffffffff1602179055509050505b50505050505050565b60007fb53127684a568b3173ae13b9f8a6016e243e63b6e8ee1178d6a717850b5d610354905090565b6000815190506200034f81620004f0565b92915050565b60008151905062000366816200050a565b92915050565b6000815190506200037d8162000524565b92915050565b60008060008060008060c087890312156200039d57600080fd5b6000620003ad89828a0162000355565b9650506020620003c089828a016200033e565b9550506040620003d389828a016200036c565b9450506060620003e689828a016200036c565b9350506080620003f989828a016200036c565b92505060a06200040c89828a016200036c565b9150509295509295509295565b600062000428601e836200047d565b91507f54494d455f5045525f20444953545f4e4f545f444956495349424c455f3400006000830152602082019050919050565b60006020820190508181036000830152620004768162000419565b9050919050565b600082825260208201905092915050565b60006200049b82620004c0565b9050919050565b6000819050919050565b6000620004b9826200048e565b9050919050565b600073ffffffffffffffffffffffffffffffffffffffff82169050919050565b600063ffffffff82169050919050565b620004fb81620004a2565b81146200050757600080fd5b50565b6200051581620004ac565b81146200052157600080fd5b50565b6200052f81620004e0565b81146200053b57600080fd5b50565b60805160a05160601c60c05160e051610100516101205160e01c61564f620005b6600039806121f7528061228c52806122d25280612342528061236c525080611b94525080612fdd52508061305652508061077552806108545280610a6c528061186a52508061082c5280611cad525061564f6000f3fe608060405234801561001057600080fd5b506004361061010b5760003560e01c8063a22cb465116100a2578063b92ce46711610071578063b92ce467146102b4578063c5aaa0ae146102d0578063c9560838146102ee578063e2e9b0791461031e578063f9740c751461033a5761010b565b8063a22cb4651461021b578063a4c0ed3614610237578063aba789f514610267578063afc82370146102985761010b565b80637ba423fb116100de5780637ba423fb146101955780637cef64d8146101b15780639b6be065146101cf5780639eca672c146101ff5761010b565b8063112e68511461011057806334efcb8e1461012c57806361f018c01461015d5780636adc09e514610179575b600080fd5b61012a60048036038101906101259190614679565b61036c565b005b6101466004803603810190610141919061459d565b610384565b604051610154929190615373565b60405180910390f35b61017760048036038101906101729190614443565b610477565b005b610193600480360381019061018e9190614514565b61059a565b005b6101af60048036038101906101aa91906145c6565b61075c565b005b6101b9610828565b6040516101c6919061507d565b60405180910390f35b6101e960048036038101906101e49190614287565b610850565b6040516101f69190615062565b60405180910390f35b61021960048036038101906102149190614222565b61090c565b005b6102356004803603810190610230919061435f565b61095e565b005b610251600480360381019061024c91906143d7565b610a68565b60405161025e9190615062565b60405180910390f35b610281600480360381019061027c91906144a6565b610b27565b60405161028f929190615032565b60405180910390f35b6102b260048036038101906102ad919061439b565b610d4c565b005b6102ce60048036038101906102c99190614602565b610eb4565b005b6102d8610ec8565b6040516102e59190615358565b60405180910390f35b61030860048036038101906103039190614222565b610f7a565b604051610315919061539d565b60405180910390f35b61033860048036038101906103339190614307565b610fc3565b005b610354600480360381019061034f919061459d565b611130565b60405161036393929190614ffb565b60405180910390f35b61037f6103776111c7565b8484846111cf565b505050565b61038c613e9d565b610394613ef6565b600061039f84611650565b90506000806103c18360000160189054906101000a900463ffffffff1661166b565b915091506040518060a001604052808460000160009054906101000a900473ffffffffffffffffffffffffffffffffffffffff1673ffffffffffffffffffffffffffffffffffffffff1681526020018460000160149054906101000a900463ffffffff1663ffffffff1681526020018263ffffffff16815260200184600001601c9054906101000a900463ffffffff1663ffffffff168152602001831515815250945061046d866116aa565b9350505050915091565b60006104816111c7565b90508473ffffffffffffffffffffffffffffffffffffffff168173ffffffffffffffffffffffffffffffffffffffff161461058057600360008673ffffffffffffffffffffffffffffffffffffffff1673ffffffffffffffffffffffffffffffffffffffff16815260200190815260200160002060008273ffffffffffffffffffffffffffffffffffffffff1673ffffffffffffffffffffffffffffffffffffffff16815260200190815260200160002060009054906101000a900460ff1661057f576040517f08c379a0000000000000000000000000000000000000000000000000000000008152600401610576906152f8565b60405180910390fd5b5b61059361058b6111c7565b8585856111cf565b5050505050565b60006105a46117a9565b9050600073ffffffffffffffffffffffffffffffffffffffff168173ffffffffffffffffffffffffffffffffffffffff1614156106175773ffffffffffffffffffffffffffffffffffffffff7fb53127684a568b3173ae13b9f8a6016e243e63b6e8ee1178d6a717850b5d610355610650565b8073ffffffffffffffffffffffffffffffffffffffff163373ffffffffffffffffffffffffffffffffffffffff161461064f57600080fd5b5b6000600560000160009054906101000a900463ffffffff1663ffffffff161415610753576040518060800160405280600c63ffffffff168152602001600c63ffffffff168152602001600c63ffffffff168152602001600c63ffffffff16815250600560008201518160000160006101000a81548163ffffffff021916908363ffffffff16021790555060208201518160000160046101000a81548163ffffffff021916908363ffffffff16021790555060408201518160000160086101000a81548163ffffffff021916908363ffffffff160217905550606082015181600001600c6101000a81548163ffffffff021916908363ffffffff1602179055509050505b50505050505050565b60006107666111c7565b90506107738183856117d2565b7f000000000000000000000000000000000000000000000000000000000000000073ffffffffffffffffffffffffffffffffffffffff166323b872dd8230856040518463ffffffff1660e01b81526004016107d093929190614f9b565b602060405180830381600087803b1580156107ea57600080fd5b505af11580156107fe573d6000803e3d6000fd5b505050506040513d601f19601f8201168201806040525081019061082291906144eb565b50505050565b60007f0000000000000000000000000000000000000000000000000000000000000000905090565b60007f000000000000000000000000000000000000000000000000000000000000000073ffffffffffffffffffffffffffffffffffffffff163373ffffffffffffffffffffffffffffffffffffffff16146108e0576040517f08c379a00000000000000000000000000000000000000000000000000000000081526004016108d7906150f8565b60405180910390fd5b600083838101906108f1919061459d565b90506108fe8686836117d2565b600191505095945050505050565b6000600260008373ffffffffffffffffffffffffffffffffffffffff1673ffffffffffffffffffffffffffffffffffffffff16815260200190815260200160002054905061095a828261185d565b5050565b60006109686111c7565b905081600360008373ffffffffffffffffffffffffffffffffffffffff1673ffffffffffffffffffffffffffffffffffffffff16815260200190815260200160002060008573ffffffffffffffffffffffffffffffffffffffff1673ffffffffffffffffffffffffffffffffffffffff16815260200190815260200160002060006101000a81548160ff0219169083151502179055508273ffffffffffffffffffffffffffffffffffffffff168173ffffffffffffffffffffffffffffffffffffffff167f17307eab39ab6107e8899845ad3d59bd9653f200f220920489ca2b5937696c3184604051610a5b9190615062565b60405180910390a3505050565b60007f000000000000000000000000000000000000000000000000000000000000000073ffffffffffffffffffffffffffffffffffffffff163373ffffffffffffffffffffffffffffffffffffffff1614610af8576040517f08c379a0000000000000000000000000000000000000000000000000000000008152600401610aef906150f8565b60405180910390fd5b6000808484810190610b0a919061424b565b91509150610b198287836117d2565b600192505050949350505050565b6060610b31613f57565b8383905067ffffffffffffffff81118015610b4b57600080fd5b50604051908082528060200260200182016040528015610b8557816020015b610b72613e9d565b815260200190600190039081610b6a5790505b50915060005b84849050811015610c9d576000610bb3868684818110610ba757fe5b90506020020135611650565b9050600080610bd58360000160189054906101000a900463ffffffff1661166b565b915091506040518060a001604052808460000160009054906101000a900473ffffffffffffffffffffffffffffffffffffffff1673ffffffffffffffffffffffffffffffffffffffff1681526020018460000160149054906101000a900463ffffffff1663ffffffff1681526020018263ffffffff16815260200184600001601c9054906101000a900463ffffffff1663ffffffff168152602001831515815250868581518110610c8257fe5b60200260200101819052505050508080600101915050610b8b565b5060056040518060800160405290816000820160009054906101000a900463ffffffff1663ffffffff1663ffffffff1681526020016000820160049054906101000a900463ffffffff1663ffffffff1663ffffffff1681526020016000820160089054906101000a900463ffffffff1663ffffffff1663ffffffff16815260200160008201600c9054906101000a900463ffffffff1663ffffffff1663ffffffff168152505090509250929050565b6000610d5782611650565b90508060000160009054906101000a900473ffffffffffffffffffffffffffffffffffffffff1673ffffffffffffffffffffffffffffffffffffffff168373ffffffffffffffffffffffffffffffffffffffff1614610deb576040517f08c379a0000000000000000000000000000000000000000000000000000000008152600401610de290615298565b60405180910390fd5b60008160000160149054906101000a900463ffffffff1663ffffffff1614610e48576040517f08c379a0000000000000000000000000000000000000000000000000000000008152600401610e3f906150b8565b60405180910390fd5b428160000160146101000a81548163ffffffff021916908363ffffffff160217905550818373ffffffffffffffffffffffffffffffffffffffff167fb9182e4e152947f1e6691fa0ee6f68f21f607fed825945c270e69995acad805f60405160405180910390a3505050565b610ec18585858585611958565b5050505050565b610ed0613f57565b60056040518060800160405290816000820160009054906101000a900463ffffffff1663ffffffff1663ffffffff1681526020016000820160049054906101000a900463ffffffff1663ffffffff1663ffffffff1681526020016000820160089054906101000a900463ffffffff1663ffffffff1663ffffffff16815260200160008201600c9054906101000a900463ffffffff1663ffffffff1663ffffffff1681525050905090565b6000600260008373ffffffffffffffffffffffffffffffffffffffff1673ffffffffffffffffffffffffffffffffffffffff168152602001908152602001600020549050919050565b6000805b838390508110156110d8576000610fef858584818110610fe357fe5b90506020020135611650565b905061100e8160000160149054906101000a900463ffffffff16611b80565b156110ca578060000160009054906101000a900473ffffffffffffffffffffffffffffffffffffffff1673ffffffffffffffffffffffffffffffffffffffff168673ffffffffffffffffffffffffffffffffffffffff16146110a5576040517f08c379a000000000000000000000000000000000000000000000000000000000815260040161109c90615298565b60405180910390fd5b6110c58585848181106110b457fe5b905060200201358783600080611bc5565b830192505b508080600101915050610fc7565b50600081600260008773ffffffffffffffffffffffffffffffffffffffff1673ffffffffffffffffffffffffffffffffffffffff16815260200190815260200160002054019050611129858261185d565b5050505050565b60008060006001600085815260200190815260200160002060000160149054906101000a900463ffffffff1691506001600085815260200190815260200160002060000160189054906101000a900463ffffffff1690506001600085815260200190815260200160002060000160009054906101000a900473ffffffffffffffffffffffffffffffffffffffff1692509193909250565b600033905090565b60006111da84611650565b905060008160000160149054906101000a900463ffffffff1663ffffffff1614611239576040517f08c379a000000000000000000000000000000000000000000000000000000000815260040161123090615118565b60405180910390fd5b8060000160009054906101000a900473ffffffffffffffffffffffffffffffffffffffff1673ffffffffffffffffffffffffffffffffffffffff168573ffffffffffffffffffffffffffffffffffffffff16146112cb576040517f08c379a00000000000000000000000000000000000000000000000000000000081526004016112c290615298565b60405180910390fd5b60006112d685611ca9565b905060006112e382611cfb565b90506000806113218560000160189054906101000a900463ffffffff1686600001601c9054906101000a900463ffffffff1663ffffffff1685611d3d565b915091508663ffffffff168163ffffffff161015611374576040517f08c379a000000000000000000000000000000000000000000000000000000000815260040161136b906150d8565b60405180910390fd5b600060026107088161138257fe5b04428161138b57fe5b0490506000600460008b8152602001908152602001600020600083815260200190815260200160002060000160009054906101000a900467ffffffffffffffff1690508863ffffffff16810190508863ffffffff168167ffffffffffffffff16101561142c576040517f08c379a000000000000000000000000000000000000000000000000000000000815260040161142390615278565b60405180910390fd5b80600460008c8152602001908152602001600020600084815260200190815260200160002060000160006101000a81548167ffffffffffffffff021916908367ffffffffffffffff160217905550600042905060008a850390506114908682611dac565b8960000160186101000a81548163ffffffff021916908363ffffffff1602179055508189600001601c6101000a81548163ffffffff021916908363ffffffff16021790555060008a8d6040516020016114ea929190614f6f565b6040516020818303038152906040528051906020012060001c905060405180606001604052808f73ffffffffffffffffffffffffffffffffffffffff1681526020018463ffffffff1681526020018d63ffffffff168152506001600083815260200190815260200160002060008201518160000160006101000a81548173ffffffffffffffffffffffffffffffffffffffff021916908373ffffffffffffffffffffffffffffffffffffffff16021790555060208201518160000160146101000a81548163ffffffff021916908363ffffffff16021790555060408201518160000160186101000a81548163ffffffff021916908363ffffffff1602179055509050508c8e73ffffffffffffffffffffffffffffffffffffffff167fd7da2af85ac97f64039a5304a609fe0eb346f04985c4fd55e0d9b10b8b886ee7838f86604051611638939291906153b8565b60405180910390a35050505050505050505050505050565b60008060008381526020019081526020016000209050919050565b600080638000000063ffffffff166380000000841663ffffffff16149150638000000063ffffffff168363ffffffff16816116a257fe5b069050915091565b6116b2613ef6565b60006116bd83611ca9565b90506116c881611dca565b611707576040517f08c379a00000000000000000000000000000000000000000000000000000000081526004016116fe90615158565b60405180910390fd5b60008061171383611df0565b915091506040518061010001604052808360000b81526020018260000b815260200161173e85611e30565b61ffff16815260200161175085611cfb565b61ffff16815260200161176285611f0d565b61ffff16815260200161177485611f35565b61ffff16815260200161178685611f5d565b61ffff16815260200161179885611f85565b61ffff168152509350505050919050565b60007fb53127684a568b3173ae13b9f8a6016e243e63b6e8ee1178d6a717850b5d610354905090565b6117de8160001b611fad565b60006117e982611ca9565b9050670de0b6b3a76400006117fd82611e30565b61ffff16028314611843576040517f08c379a000000000000000000000000000000000000000000000000000000000815260040161183a90615318565b60405180910390fd5b61184e848383612046565b6118578261243e565b50505050565b61186882600061285e565b7f000000000000000000000000000000000000000000000000000000000000000073ffffffffffffffffffffffffffffffffffffffff1663a9059cbb83836040518363ffffffff1660e01b81526004016118c3929190614fd2565b602060405180830381600087803b1580156118dd57600080fd5b505af11580156118f1573d6000803e3d6000fd5b505050506040513d601f19601f8201168201806040525081019061191591906144eb565b611954576040517f08c379a000000000000000000000000000000000000000000000000000000000815260040161194b90615178565b60405180910390fd5b5050565b611960613f97565b600160008781526020019081526020016000206040518060600160405290816000820160009054906101000a900473ffffffffffffffffffffffffffffffffffffffff1673ffffffffffffffffffffffffffffffffffffffff1673ffffffffffffffffffffffffffffffffffffffff1681526020016000820160149054906101000a900463ffffffff1663ffffffff1663ffffffff1681526020016000820160189054906101000a900463ffffffff1663ffffffff1663ffffffff16815250509050600080611a338389898989896128f4565b91509150611a3f613fda565b611a4887611650565b6040518060800160405290816000820160009054906101000a900473ffffffffffffffffffffffffffffffffffffffff1673ffffffffffffffffffffffffffffffffffffffff1673ffffffffffffffffffffffffffffffffffffffff1681526020016000820160149054906101000a900463ffffffff1663ffffffff1663ffffffff1681526020016000820160189054906101000a900463ffffffff1663ffffffff1663ffffffff16815260200160008201601c9054906101000a900463ffffffff1663ffffffff1663ffffffff16815250509050611b3f84600001518a83600001518a611b39898e888f8c612a1b565b87612a93565b6000600160008b815260200190815260200160002060000160186101000a81548163ffffffff021916908363ffffffff160217905550505050505050505050565b6000808263ffffffff16118015611bbe57507f00000000000000000000000000000000000000000000000000000000000000008263ffffffff160142115b9050919050565b600080611bd187611ca9565b90506000611bde82611e30565b905060008660000160146101000a81548163ffffffff021916908363ffffffff160217905550848660000160006101000a81548173ffffffffffffffffffffffffffffffffffffffff021916908373ffffffffffffffffffffffffffffffffffffffff1602179055504286600001601c6101000a81548163ffffffff021916908363ffffffff160217905550838660000160186101000a81548163ffffffff021916908363ffffffff160217905550670de0b6b3a76400008161ffff16029250505095945050505050565b60007f000000000000000000000000000000000000000000000000000000000000000082604051602001611cde929190614f6f565b604051602081830303815290604052805190602001209050919050565b6000611d36600c7f0708083409600a8c0bb80ce40e100e100e100e101068151819c81e7823282ee060001b84612b219092919063ffffffff16565b9050919050565b600080611d498561166b565b80925081935050508115611da457600084420390506000610e108561ffff16830281611d7157fe5b048363ffffffff16019050638000000063ffffffff168110611d9e57600163800000000363ffffffff1690505b80925050505b935093915050565b60008183611dbb576000611dc1565b63800000005b01905092915050565b60006001611de56034601085612b7a9092919063ffffffff16565b60ff16149050919050565b600080611e0a6000600385612b7a9092919063ffffffff16565b6001039150611e266002600385612b7a9092919063ffffffff16565b6001039050915091565b600080611e47600c84612b9b90919063ffffffff16565b90506000611e8160047c010001000200020003000300040004000500050006000600070007000860001b86612b219092919063ffffffff16565b90506000818360ff1601905060048161ffff161015611ea35760009050611ec1565b60138161ffff161115611eb957600f9050611ec0565b6004810390505b5b7e0400050005000a000a000f000f00140014001e001e0028002800500050006460001b6001600283020161ffff1660208110611ef957fe5b1a60f81b60f81c60ff169350505050919050565b6000610190611f26601484612b9b90919063ffffffff16565b60ff1602610fa0019050919050565b6000610190611f4e601c84612b9b90919063ffffffff16565b60ff1602610fa0019050919050565b600061014d611f76602484612b9b90919063ffffffff16565b60ff160261138d019050919050565b6000610bb8611f9e602c84612b9b90919063ffffffff16565b60ff1602613a98019050919050565b61204381604051602401808281526020019150506040516020818303038152906040527f27b7cf85000000000000000000000000000000000000000000000000000000007bffffffffffffffffffffffffffffffffffffffffffffffffffffffff19166020820180517bffffffffffffffffffffffffffffffffffffffffffffffffffffffff8381831617835250505050612c47565b50565b600061205183611650565b905060008160000160009054906101000a900473ffffffffffffffffffffffffffffffffffffffff169050600082600001601c9054906101000a900463ffffffff16905060008360000160189054906101000a900463ffffffff16905060008460000160149054906101000a900463ffffffff1690506000806120e3848663ffffffff166120de8b611cfb565b611d3d565b9150915060008060008763ffffffff16141561210d576121028a611f85565b61ffff1690506121ef565b60008563ffffffff161461216c5761212485611b80565b612163576040517f08c379a000000000000000000000000000000000000000000000000000000000815260040161215a906151f8565b60405180910390fd5b600191506121ee565b83156121ad576040517f08c379a00000000000000000000000000000000000000000000000000000000081526004016121a490615198565b60405180910390fd5b8b73ffffffffffffffffffffffffffffffffffffffff168873ffffffffffffffffffffffffffffffffffffffff16146121e8578290506121ed565b600090505b5b5b8115612234577f0000000000000000000000000000000000000000000000000000000000000000925061222f8b898b8f61222a600189611dac565b612c70565b6123e1565b8b8960000160006101000a81548173ffffffffffffffffffffffffffffffffffffffff021916908373ffffffffffffffffffffffffffffffffffffffff16021790555060008163ffffffff161461236a5760006122cd7f000000000000000000000000000000000000000000000000000000000000000063ffffffff168363ffffffff166127106122c48f611f35565b61ffff16612cd4565b5090507f000000000000000000000000000000000000000000000000000000000000000063ffffffff168163ffffffff16111561233f576040517f08c379a0000000000000000000000000000000000000000000000000000000008152600401612336906151b8565b60405180910390fd5b807f000000000000000000000000000000000000000000000000000000000000000003935050612390565b7f0000000000000000000000000000000000000000000000000000000000000000830192505b61239b600184611dac565b8960000160186101000a81548163ffffffff021916908363ffffffff1602179055504289600001601c6101000a81548163ffffffff021916908363ffffffff1602179055505b8a8c73ffffffffffffffffffffffffffffffffffffffff167f2a71ecd53ebaf1eabe3c13c9f5d7e094b90eb780d3f6f658a4feb23db632a96c85604051612428919061545e565b60405180910390a3505050505050505050505050565b612446613f57565b60056040518060800160405290816000820160009054906101000a900463ffffffff1663ffffffff1663ffffffff1681526020016000820160049054906101000a900463ffffffff1663ffffffff1663ffffffff1681526020016000820160089054906101000a900463ffffffff1663ffffffff1663ffffffff16815260200160008201600c9054906101000a900463ffffffff1663ffffffff1663ffffffff1681525050905060006fffffffffffffffffffffffffffffffff8316600f0b90506000608084901c600f0b90506000808312156125c457836000015163ffffffff1683600003131561256d576040517f08c379a000000000000000000000000000000000000000000000000000000000815260040161256490615258565b60405180910390fd5b60068360000301925063ffffffff83131561258a5763ffffffff92505b8263ffffffff16846000015163ffffffff1610156125bf5782846000019063ffffffff16908163ffffffff1681525050600190505b612661565b836020015163ffffffff16831315612611576040517f08c379a0000000000000000000000000000000000000000000000000000000008152600401612608906151d8565b60405180910390fd5b60068301925063ffffffff83131561262b5763ffffffff92505b8263ffffffff16846020015163ffffffff1610156126605782846020019063ffffffff16908163ffffffff1681525050600190505b5b600082121561271157836040015163ffffffff168260000313156126ba576040517f08c379a00000000000000000000000000000000000000000000000000000000081526004016126b190615098565b60405180910390fd5b60068260000301915063ffffffff8213156126d75763ffffffff91505b8163ffffffff16846040015163ffffffff16101561270c5781846040019063ffffffff16908163ffffffff1681525050600190505b6127ae565b836060015163ffffffff1682131561275e576040517f08c379a000000000000000000000000000000000000000000000000000000000815260040161275590615338565b60405180910390fd5b60068201915063ffffffff8213156127785763ffffffff91505b8163ffffffff16846060015163ffffffff1610156127ad5781846060019063ffffffff16908163ffffffff1681525050600190505b5b80156128575783600560008201518160000160006101000a81548163ffffffff021916908363ffffffff16021790555060208201518160000160046101000a81548163ffffffff021916908363ffffffff16021790555060408201518160000160086101000a81548163ffffffff021916908363ffffffff160217905550606082015181600001600c6101000a81548163ffffffff021916908363ffffffff1602179055509050505b5050505050565b80600260008473ffffffffffffffffffffffffffffffffffffffff1673ffffffffffffffffffffffffffffffffffffffff168152602001908152602001600020819055508173ffffffffffffffffffffffffffffffffffffffff167f4d135695228631e73b5a31e6fc8af4e5825cde63774c3c48695b4af814d7b019826040516128e8919061539d565b60405180910390a25050565b60008086838660405160200161290b929190614f6f565b6040516020818303038152906040528051906020012087604051602001612933929190614f6f565b6040516020818303038152906040528051906020012060001c1461298c576040517f08c379a000000000000000000000000000000000000000000000000000000000815260040161298390615218565b60405180910390fd5b8760400151915060008263ffffffff16116129dc576040517f08c379a00000000000000000000000000000000000000000000000000000000081526004016129d390615138565b60405180910390fd5b6129eb82878a60200151612d91565b9150818860400151039050612a01848787612eca565b612a1084878a60200151612fc1565b965096945050505050565b612a2361402a565b856000015173ffffffffffffffffffffffffffffffffffffffff16846000015173ffffffffffffffffffffffffffffffffffffffff161415612a7657612a6f86600001518585856130be565b9050612a8a565b612a878660000151868686866131cd565b90505b95945050505050565b8373ffffffffffffffffffffffffffffffffffffffff168673ffffffffffffffffffffffffffffffffffffffff16867f7997eb1d618b1121acb21162e437706631dea1be00abe485637cf356eb5a90fa86866020015187604001518789600001518a606001518b60800151604051612b1197969594939291906153ef565b60405180910390a4505050505050565b600080612b2e8585612b9b565b9050826001600283020160ff1660208110612b4557fe5b1a60f81b60f81c60ff16610100846002840260ff1660208110612b6457fe5b1a60f81b60f81c60ff1602019150509392505050565b60008160ff168360ff1685901c60001c81612b9157fe5b0690509392505050565b600080612baa84846040612b7a565b9050600060028260ff1681612bbb57fe5b049050600060028360ff1681612bcd57fe5b06905060007f01223334444555555666666677777777888888889999999aaaaaabbbbcccddef60001b8360ff1660208110612c0457fe5b1a60f81b60f81c905060008260ff161415612c2c5760048160ff16901c945050505050612c41565b60108160ff1681612c3957fe5b069450505050505b92915050565b60008151905060006a636f6e736f6c652e6c6f679050602083016000808483855afa5050505050565b6000612c7f8686868686611bc5565b9050612ccc8582600260008973ffffffffffffffffffffffffffffffffffffffff1673ffffffffffffffffffffffffffffffffffffffff168152602001908152602001600020540161285e565b505050505050565b60008060008487029050600084870290506000826305f5e100890281612cf657fe5b0490506305f5e10088028382021015612d125780806001019150505b6000826305f5e1008b0281612d2357fe5b0490506305f5e1008a028382021015612d3f5780806001019150505b6000612d4b83836132a0565b9050612d666305f5e10085830281612d5f57fe5b048c6132a0565b9650612d816305f5e10086830281612d7a57fe5b048b6132a0565b9550505050505094509492505050565b600080600261070881612da057fe5b048363ffffffff1681612daf57fe5b049050600060046000868152602001908152602001600020600083815260200190815260200160002060000160089054906101000a900467ffffffffffffffff1690508563ffffffff168167ffffffffffffffff161015612e63578086039550600060046000878152602001908152602001600020600084815260200190815260200160002060000160086101000a81548167ffffffffffffffff021916908367ffffffffffffffff160217905550612ebe565b600095508563ffffffff16810360046000878152602001908152602001600020600084815260200190815260200160002060000160086101000a81548167ffffffffffffffff021916908367ffffffffffffffff1602179055505b85925050509392505050565b600080612ede612ed985611ca9565b611df0565b91509150600080612ef6612ef186611ca9565b611df0565b91509150600060028460000b600460808a901c02018360000b600460808a901c020103600f0b0a60028660000b60046fffffffffffffffffffffffffffffffff8b1602018560000b60046fffffffffffffffffffffffffffffffff8b16020103600f0b0a01600f0b9050806002890a11158015612f7857506002600189010a81105b612fb7576040517f08c379a0000000000000000000000000000000000000000000000000000000008152600401612fae906152d8565b60405180910390fd5b5050505050505050565b6000612fd4612fcf84611ca9565b611f5d565b61ffff166127107f00000000000000000000000000000000000000000000000000000000000000000285028161300657fe5b048263ffffffff1601905080421015613054576040517f08c379a000000000000000000000000000000000000000000000000000000000815260040161304b906152b8565b60405180910390fd5b7f0000000000000000000000000000000000000000000000000000000000000000810142106130b8576040517f08c379a00000000000000000000000000000000000000000000000000000000081526004016130af90615238565b60405180910390fd5b50505050565b6130c661402a565b6130d38460200151611b80565b15613101576130fa83856000015160008087815260200190815260200160002088866132ba565b90506131c5565b600061310c84611ca9565b9050600061311982611cfb565b90506000806131378860400151896060015163ffffffff1685611d3d565b91509150600086820163ffffffff169050638000000063ffffffff16811061316a57600163800000000363ffffffff1690505b6131748382611dac565b6000808a815260200190815260200160002060000160186101000a81548163ffffffff021916908363ffffffff16021790555080866080019063ffffffff16908163ffffffff168152505050505050505b949350505050565b6131d561402a565b6000846060015163ffffffff16141561320a5760006131f384611ca9565b905061320287878684876132f0565b915050613297565b6132178460200151611b80565b156132455761323e83856000015160008087815260200190815260200160002089866132ba565b9050613297565b600061325084611ca9565b9050600061326561326088611ca9565b611f0d565b9050600061327283611f35565b9050600061327f84611cfb565b90506132908a84848b8b868c6134a9565b9450505050505b95945050505050565b6000818311156132b057816132b2565b825b905092915050565b6132c261402a565b6132cf8686868686612c70565b81816080019063ffffffff16908163ffffffff168152505095945050505050565b6132f861402a565b600061330b61330687611ca9565b611f0d565b9050600061331885611f35565b9050600061332586611f85565b90506000806133488763ffffffff168461ffff168761ffff168761ffff16612cd4565b9150915081866020019063ffffffff16908163ffffffff16815250508261ffff168163ffffffff1614801561338857508163ffffffff168763ffffffff16115b1561349b57818703866080019063ffffffff16908163ffffffff16815250506133b660008760800151611dac565b6000808b815260200190815260200160002060000160186101000a81548163ffffffff021916908363ffffffff160217905550426000808b8152602001908152602001600020600001601c6101000a81548163ffffffff021916908363ffffffff1602179055508a6000808b815260200190815260200160002060000160006101000a81548173ffffffffffffffffffffffffffffffffffffffff021916908373ffffffffffffffffffffffffffffffffffffffff16021790555080866040019063ffffffff16908163ffffffff168152505060018660600190151590811515815250505b505050505095945050505050565b6134b161402a565b6134b9614073565b6134c4868686613623565b90506000816040015163ffffffff161415613606578860008087815260200190815260200160002060000160006101000a81548173ffffffffffffffffffffffffffffffffffffffff021916908373ffffffffffffffffffffffffffffffffffffffff160217905550600080600087815260200190815260200160002060000160146101000a81548163ffffffff021916908363ffffffff160217905550613570816000015184611dac565b60008087815260200190815260200160002060000160186101000a81548163ffffffff021916908363ffffffff16021790555042600080878152602001908152602001600020600001601c6101000a81548163ffffffff021916908363ffffffff160217905550600182606001901515908115158152505082826080019063ffffffff16908163ffffffff168152505050613618565b613614818a87868c8c613735565b9150505b979650505050505050565b61362b614073565b6000806136478660400151876060015163ffffffff1686611d3d565b91509150600080600080600061365d868b613d4b565b945094509450945094508688600001901515908115158152505085886020019063ffffffff16908163ffffffff168152505084886040019063ffffffff16908163ffffffff168152505083886060019067ffffffffffffffff16908167ffffffffffffffff168152505082886080019067ffffffffffffffff16908167ffffffffffffffff1681525050818860a0019067ffffffffffffffff16908167ffffffffffffffff1681525050808860c0019067ffffffffffffffff16908167ffffffffffffffff1681525050505050505050509392505050565b61373d61402a565b6000806137648663ffffffff168a6040015163ffffffff168761ffff168761ffff16612cd4565b9150915081836020019063ffffffff16908163ffffffff168152505080836040019063ffffffff16908163ffffffff1681525050886020015163ffffffff16836040015163ffffffff161115613b335788602001518103836000019063ffffffff16908163ffffffff16815250508860200151836040019063ffffffff16908163ffffffff1681525050826000015163ffffffff16896060015167ffffffffffffffff161061387257826000015163ffffffff16896060018181510391509067ffffffffffffffff16908167ffffffffffffffff1681525050826000015163ffffffff16896080018181510191509067ffffffffffffffff16908167ffffffffffffffff1681525050613990565b8860600151896080018181510191509067ffffffffffffffff16908167ffffffffffffffff168152505060008960600151846000015163ffffffff160390508067ffffffffffffffff168a60a0015167ffffffffffffffff161061392157808a60a0018181510391509067ffffffffffffffff16908167ffffffffffffffff1681525050808a60c0018181510191509067ffffffffffffffff16908167ffffffffffffffff168152505061396d565b8960a001518a60c0018181510191509067ffffffffffffffff16908167ffffffffffffffff168152505060008a60a0019067ffffffffffffffff16908167ffffffffffffffff16815250505b60008a6060019067ffffffffffffffff16908167ffffffffffffffff1681525050505b886060015160046000898152602001908152602001600020600060016002610708816139b857fe5b0442816139c157fe5b0403815260200190815260200160002060000160006101000a81548167ffffffffffffffff021916908367ffffffffffffffff16021790555088608001516004600089815260200190815260200160002060006001600261070881613a2257fe5b044281613a2b57fe5b0403815260200190815260200160002060000160086101000a81548167ffffffffffffffff021916908367ffffffffffffffff1602179055508860a00151600460008981526020019081526020016000206000600261070881613a8a57fe5b044281613a9357fe5b04815260200190815260200160002060000160006101000a81548167ffffffffffffffff021916908367ffffffffffffffff1602179055508860c00151600460008981526020019081526020016000206000600261070881613af157fe5b044281613afa57fe5b04815260200190815260200160002060000160086101000a81548167ffffffffffffffff021916908367ffffffffffffffff1602179055505b886020015163ffffffff16836040015163ffffffff161415613c8157818603836080019063ffffffff16908163ffffffff168152505060018360600190151590811515815250508760008089815260200190815260200160002060000160006101000a81548173ffffffffffffffffffffffffffffffffffffffff021916908373ffffffffffffffffffffffffffffffffffffffff160217905550600080600089815260200190815260200160002060000160146101000a81548163ffffffff021916908363ffffffff160217905550613c1589600001518460800151611dac565b60008089815260200190815260200160002060000160186101000a81548163ffffffff021916908363ffffffff16021790555042600080898152602001908152602001600020600001601c6101000a81548163ffffffff021916908363ffffffff160217905550613d3f565b8563ffffffff16836020015163ffffffff161415613d355780896020015103836080019063ffffffff16908163ffffffff1681525050613cc989600001518460800151611dac565b60008089815260200190815260200160002060000160186101000a81548163ffffffff021916908363ffffffff16021790555042600080898152602001908152602001600020600001601c6101000a81548163ffffffff021916908363ffffffff160217905550613d3e565b6000613d3d57fe5b5b5b50509695505050505050565b60008060008060008694506000600261070881613d6457fe5b044281613d6d57fe5b04905060046000888152602001908152602001600020600060018303815260200190815260200160002060000160009054906101000a900467ffffffffffffffff16945060046000888152602001908152602001600020600060018303815260200190815260200160002060000160009054906101000a900467ffffffffffffffff16935060046000888152602001908152602001600020600082815260200190815260200160002060000160009054906101000a900467ffffffffffffffff16925060046000888152602001908152602001600020600082815260200190815260200160002060000160089054906101000a900467ffffffffffffffff169150613e908663ffffffff168487010167ffffffffffffffff1663ffffffff6132a0565b9550509295509295909350565b6040518060a00160405280600073ffffffffffffffffffffffffffffffffffffffff168152602001600063ffffffff168152602001600063ffffffff168152602001600063ffffffff1681526020016000151581525090565b6040518061010001604052806000800b81526020016000800b8152602001600061ffff168152602001600061ffff168152602001600061ffff168152602001600061ffff168152602001600061ffff168152602001600061ffff1681525090565b6040518060800160405280600063ffffffff168152602001600063ffffffff168152602001600063ffffffff168152602001600063ffffffff1681525090565b6040518060600160405280600073ffffffffffffffffffffffffffffffffffffffff168152602001600063ffffffff168152602001600063ffffffff1681525090565b6040518060800160405280600073ffffffffffffffffffffffffffffffffffffffff168152602001600063ffffffff168152602001600063ffffffff168152602001600063ffffffff1681525090565b6040518060a00160405280600063ffffffff168152602001600063ffffffff168152602001600063ffffffff168152602001600015158152602001600063ffffffff1681525090565b6040518060e00160405280600015158152602001600063ffffffff168152602001600063ffffffff168152602001600067ffffffffffffffff168152602001600067ffffffffffffffff168152602001600067ffffffffffffffff168152602001600067ffffffffffffffff1681525090565b6000813590506140f581615578565b92915050565b60008135905061410a8161558f565b92915050565b60008083601f84011261412257600080fd5b8235905067ffffffffffffffff81111561413b57600080fd5b60208301915083602082028301111561415357600080fd5b9250929050565b600081359050614169816155a6565b92915050565b60008151905061417e816155a6565b92915050565b600081359050614193816155bd565b92915050565b60008083601f8401126141ab57600080fd5b8235905067ffffffffffffffff8111156141c457600080fd5b6020830191508360018202830111156141dc57600080fd5b9250929050565b6000813590506141f2816155d4565b92915050565b600081359050614207816155eb565b92915050565b60008135905061421c81615602565b92915050565b60006020828403121561423457600080fd5b6000614242848285016140e6565b91505092915050565b6000806040838503121561425e57600080fd5b600061426c858286016140fb565b925050602061427d858286016141f8565b9150509250929050565b60008060008060006080868803121561429f57600080fd5b60006142ad888289016140e6565b95505060206142be888289016140e6565b94505060406142cf888289016141f8565b935050606086013567ffffffffffffffff8111156142ec57600080fd5b6142f888828901614199565b92509250509295509295909350565b60008060006040848603121561431c57600080fd5b600061432a868287016140e6565b935050602084013567ffffffffffffffff81111561434757600080fd5b61435386828701614110565b92509250509250925092565b6000806040838503121561437257600080fd5b6000614380858286016140e6565b92505060206143918582860161415a565b9150509250929050565b600080604083850312156143ae57600080fd5b60006143bc858286016140e6565b92505060206143cd858286016141f8565b9150509250929050565b600080600080606085870312156143ed57600080fd5b60006143fb878288016140e6565b945050602061440c878288016141f8565b935050604085013567ffffffffffffffff81111561442957600080fd5b61443587828801614199565b925092505092959194509250565b6000806000806080858703121561445957600080fd5b6000614467878288016140e6565b9450506020614478878288016141f8565b93505060406144898782880161420d565b925050606061449a87828801614184565b91505092959194509250565b600080602083850312156144b957600080fd5b600083013567ffffffffffffffff8111156144d357600080fd5b6144df85828601614110565b92509250509250929050565b6000602082840312156144fd57600080fd5b600061450b8482850161416f565b91505092915050565b60008060008060008060c0878903121561452d57600080fd5b600061453b89828a016141e3565b965050602061454c89828a01614184565b955050604061455d89828a0161420d565b945050606061456e89828a0161420d565b935050608061457f89828a0161420d565b92505060a061459089828a0161420d565b9150509295509295509295565b6000602082840312156145af57600080fd5b60006145bd848285016141f8565b91505092915050565b600080604083850312156145d957600080fd5b60006145e7858286016141f8565b92505060206145f8858286016141f8565b9150509250929050565b600080600080600060a0868803121561461a57600080fd5b6000614628888289016141f8565b9550506020614639888289016141f8565b945050604061464a888289016141f8565b935050606061465b888289016141f8565b925050608061466c88828901614184565b9150509295509295909350565b60008060006060848603121561468e57600080fd5b600061469c868287016141f8565b93505060206146ad8682870161420d565b92505060406146be86828701614184565b9150509250925092565b60006146d48383614daa565b60a08301905092915050565b6146e9816154c3565b82525050565b6146f8816154c3565b82525050565b600061470982615489565b61471381856154a1565b935061471e83615479565b8060005b8381101561474f57815161473688826146c8565b975061474183615494565b925050600181019050614722565b5085935050505092915050565b614765816154e7565b82525050565b614774816154e7565b82525050565b614783816154f3565b82525050565b61479a614795826154f3565b615564565b82525050565b6147a98161550f565b82525050565b60006147bc6016836154b2565b91507f4e4f545f524541434841424c455f5945545f4d494e59000000000000000000006000830152602082019050919050565b60006147fc600f836154b2565b91507f45584954494e475f414c524541445900000000000000000000000000000000006000830152602082019050919050565b600061483c6015836154b2565b91507f535041434553484950535f4e4f545f454e4f55474800000000000000000000006000830152602082019050919050565b600061487c600d836154b2565b91507f494e56414c49445f4552433230000000000000000000000000000000000000006000830152602082019050919050565b60006148bc600b836154b2565b91507f504c414e45545f455849540000000000000000000000000000000000000000006000830152602082019050919050565b60006148fc6012836154b2565b91507f464c4545545f444f5f4e4f545f455849535400000000000000000000000000006000830152602082019050919050565b600061493c601a836154b2565b91507f6e6f20706c616e657420696e2074686973206c6f636174696f6e0000000000006000830152602082019050919050565b600061497c600f836154b2565b91507f4641494c45445f5452414e5346455200000000000000000000000000000000006000830152602082019050919050565b60006149bc600c836154b2565b91507f5354494c4c5f41435449564500000000000000000000000000000000000000006000830152602082019050919050565b60006149fc600f836154b2565b91507f4641494c45445f434150545552454400000000000000000000000000000000006000830152602082019050919050565b6000614a3c6016836154b2565b91507f4e4f545f524541434841424c455f5945545f4d415858000000000000000000006000830152602082019050919050565b6000614a7c600d836154b2565b91507f5354494c4c5f45584954494e47000000000000000000000000000000000000006000830152602082019050919050565b6000614abc601d836154b2565b91507f494e56414c49445f464c4545545f444154415f4f525f534543524554270000006000830152602082019050919050565b6000614afc602b836154b2565b91507f746f6f206c6174652c20796f7572207370616365736869707320617265206c6f60008301527f737420696e2073706163650000000000000000000000000000000000000000006020830152604082019050919050565b6000614b626016836154b2565b91507f4e4f545f524541434841424c455f5945545f4d494e58000000000000000000006000830152602082019050919050565b6000614ba26008836154b2565b91507f4f564552464c4f570000000000000000000000000000000000000000000000006000830152602082019050919050565b6000614be26009836154b2565b91507f4e4f545f4f574e455200000000000000000000000000000000000000000000006000830152602082019050919050565b6000614c226009836154b2565b91507f746f6f206561726c7900000000000000000000000000000000000000000000006000830152602082019050919050565b6000614c62600e836154b2565b91507f77726f6e672064697374616e63650000000000000000000000000000000000006000830152602082019050919050565b6000614ca2600e836154b2565b91507f4e4f545f415554484f52495a45440000000000000000000000000000000000006000830152602082019050919050565b6000614ce2600e836154b2565b91507f494e56414c49445f414d4f554e540000000000000000000000000000000000006000830152602082019050919050565b6000614d226016836154b2565b91507f4e4f545f524541434841424c455f5945545f4d415859000000000000000000006000830152602082019050919050565b608082016000820151614d6b6000850182614f51565b506020820151614d7e6020850182614f51565b506040820151614d916040850182614f51565b506060820151614da46060850182614f51565b50505050565b60a082016000820151614dc060008501826146e0565b506020820151614dd36020850182614f51565b506040820151614de66040850182614f51565b506060820151614df96060850182614f51565b506080820151614e0c608085018261475c565b50505050565b60a082016000820151614e2860008501826146e0565b506020820151614e3b6020850182614f51565b506040820151614e4e6040850182614f51565b506060820151614e616060850182614f51565b506080820151614e74608085018261475c565b50505050565b61010082016000820151614e9160008501826147a0565b506020820151614ea460208501826147a0565b506040820151614eb76040850182614f1c565b506060820151614eca6060850182614f1c565b506080820151614edd6080850182614f1c565b5060a0820151614ef060a0850182614f1c565b5060c0820151614f0360c0850182614f1c565b5060e0820151614f1660e0850182614f1c565b50505050565b614f258161551c565b82525050565b614f348161554a565b82525050565b614f4b614f468261554a565b61556e565b82525050565b614f5a81615554565b82525050565b614f6981615554565b82525050565b6000614f7b8285614789565b602082019150614f8b8284614f3a565b6020820191508190509392505050565b6000606082019050614fb060008301866146ef565b614fbd60208301856146ef565b614fca6040830184614f2b565b949350505050565b6000604082019050614fe760008301856146ef565b614ff46020830184614f2b565b9392505050565b600060608201905061501060008301866146ef565b61501d6020830185614f60565b61502a6040830184614f60565b949350505050565b600060a082019050818103600083015261504c81856146fe565b905061505b6020830184614d55565b9392505050565b6000602082019050615077600083018461476b565b92915050565b6000602082019050615092600083018461477a565b92915050565b600060208201905081810360008301526150b1816147af565b9050919050565b600060208201905081810360008301526150d1816147ef565b9050919050565b600060208201905081810360008301526150f18161482f565b9050919050565b600060208201905081810360008301526151118161486f565b9050919050565b60006020820190508181036000830152615131816148af565b9050919050565b60006020820190508181036000830152615151816148ef565b9050919050565b600060208201905081810360008301526151718161492f565b9050919050565b600060208201905081810360008301526151918161496f565b9050919050565b600060208201905081810360008301526151b1816149af565b9050919050565b600060208201905081810360008301526151d1816149ef565b9050919050565b600060208201905081810360008301526151f181614a2f565b9050919050565b6000602082019050818103600083015261521181614a6f565b9050919050565b6000602082019050818103600083015261523181614aaf565b9050919050565b6000602082019050818103600083015261525181614aef565b9050919050565b6000602082019050818103600083015261527181614b55565b9050919050565b6000602082019050818103600083015261529181614b95565b9050919050565b600060208201905081810360008301526152b181614bd5565b9050919050565b600060208201905081810360008301526152d181614c15565b9050919050565b600060208201905081810360008301526152f181614c55565b9050919050565b6000602082019050818103600083015261531181614c95565b9050919050565b6000602082019050818103600083015261533181614cd5565b9050919050565b6000602082019050818103600083015261535181614d15565b9050919050565b600060808201905061536d6000830184614d55565b92915050565b60006101a0820190506153896000830185614e12565b61539660a0830184614e7a565b9392505050565b60006020820190506153b26000830184614f2b565b92915050565b60006060820190506153cd6000830186614f2b565b6153da6020830185614f60565b6153e76040830184614f60565b949350505050565b600060e082019050615404600083018a614f2b565b6154116020830189614f60565b61541e6040830188614f60565b61542b6060830187614f60565b6154386080830186614f60565b61544560a083018561476b565b61545260c0830184614f60565b98975050505050505050565b60006020820190506154736000830184614f60565b92915050565b6000819050602082019050919050565b600081519050919050565b6000602082019050919050565b600082825260208201905092915050565b600082825260208201905092915050565b60006154ce8261552a565b9050919050565b60006154e08261552a565b9050919050565b60008115159050919050565b6000819050919050565b6000615508826154c3565b9050919050565b60008160000b9050919050565b600061ffff82169050919050565b600073ffffffffffffffffffffffffffffffffffffffff82169050919050565b6000819050919050565b600063ffffffff82169050919050565b6000819050919050565b6000819050919050565b615581816154c3565b811461558c57600080fd5b50565b615598816154d5565b81146155a357600080fd5b50565b6155af816154e7565b81146155ba57600080fd5b50565b6155c6816154f3565b81146155d157600080fd5b50565b6155dd816154fd565b81146155e857600080fd5b50565b6155f48161554a565b81146155ff57600080fd5b50565b61560b81615554565b811461561657600080fd5b5056fea264697066735822122055ef5ff63c635234ba7b7ec68c22bbb6c119ae510eb5f4c53ecea5069f598db064736f6c63430007050033",
  "devdoc": {
    "kind": "dev",
    "methods": {},
    "version": 1
  },
  "userdoc": {
    "kind": "user",
    "methods": {},
    "version": 1
  },
  "storageLayout": {
    "storage": [
      {
        "astId": 8662,
        "contract": "src/OuterSpace.sol:OuterSpace",
        "label": "_planets",
        "offset": 0,
        "slot": "0",
        "type": "t_mapping(t_uint256,t_struct(Planet)8707_storage)"
      },
      {
        "astId": 8666,
        "contract": "src/OuterSpace.sol:OuterSpace",
        "label": "_fleets",
        "offset": 0,
        "slot": "1",
        "type": "t_mapping(t_uint256,t_struct(Fleet)8714_storage)"
      },
      {
        "astId": 8670,
        "contract": "src/OuterSpace.sol:OuterSpace",
        "label": "_stakeReadyToBeWithdrawn",
        "offset": 0,
        "slot": "2",
        "type": "t_mapping(t_address,t_uint256)"
      },
      {
        "astId": 8676,
        "contract": "src/OuterSpace.sol:OuterSpace",
        "label": "_operators",
        "offset": 0,
        "slot": "3",
        "type": "t_mapping(t_address,t_mapping(t_address,t_bool))"
      },
      {
        "astId": 8687,
        "contract": "src/OuterSpace.sol:OuterSpace",
        "label": "_inFlight",
        "offset": 0,
        "slot": "4",
        "type": "t_mapping(t_uint256,t_mapping(t_uint256,t_struct(InFlight)8681_storage))"
      },
      {
        "astId": 8698,
        "contract": "src/OuterSpace.sol:OuterSpace",
        "label": "_discovered",
        "offset": 0,
        "slot": "5",
        "type": "t_struct(Discovered)8696_storage"
      }
    ],
    "types": {
      "t_address": {
        "encoding": "inplace",
        "label": "address",
        "numberOfBytes": "20"
      },
      "t_bool": {
        "encoding": "inplace",
        "label": "bool",
        "numberOfBytes": "1"
      },
      "t_mapping(t_address,t_bool)": {
        "encoding": "mapping",
        "key": "t_address",
        "label": "mapping(address => bool)",
        "numberOfBytes": "32",
        "value": "t_bool"
      },
      "t_mapping(t_address,t_mapping(t_address,t_bool))": {
        "encoding": "mapping",
        "key": "t_address",
        "label": "mapping(address => mapping(address => bool))",
        "numberOfBytes": "32",
        "value": "t_mapping(t_address,t_bool)"
      },
      "t_mapping(t_address,t_uint256)": {
        "encoding": "mapping",
        "key": "t_address",
        "label": "mapping(address => uint256)",
        "numberOfBytes": "32",
        "value": "t_uint256"
      },
      "t_mapping(t_uint256,t_mapping(t_uint256,t_struct(InFlight)8681_storage))": {
        "encoding": "mapping",
        "key": "t_uint256",
        "label": "mapping(uint256 => mapping(uint256 => struct OuterSpace.InFlight))",
        "numberOfBytes": "32",
        "value": "t_mapping(t_uint256,t_struct(InFlight)8681_storage)"
      },
      "t_mapping(t_uint256,t_struct(Fleet)8714_storage)": {
        "encoding": "mapping",
        "key": "t_uint256",
        "label": "mapping(uint256 => struct OuterSpace.Fleet)",
        "numberOfBytes": "32",
        "value": "t_struct(Fleet)8714_storage"
      },
      "t_mapping(t_uint256,t_struct(InFlight)8681_storage)": {
        "encoding": "mapping",
        "key": "t_uint256",
        "label": "mapping(uint256 => struct OuterSpace.InFlight)",
        "numberOfBytes": "32",
        "value": "t_struct(InFlight)8681_storage"
      },
      "t_mapping(t_uint256,t_struct(Planet)8707_storage)": {
        "encoding": "mapping",
        "key": "t_uint256",
        "label": "mapping(uint256 => struct OuterSpace.Planet)",
        "numberOfBytes": "32",
        "value": "t_struct(Planet)8707_storage"
      },
      "t_struct(Discovered)8696_storage": {
        "encoding": "inplace",
        "label": "struct OuterSpace.Discovered",
        "members": [
          {
            "astId": 8689,
            "contract": "src/OuterSpace.sol:OuterSpace",
            "label": "minX",
            "offset": 0,
            "slot": "0",
            "type": "t_uint32"
          },
          {
            "astId": 8691,
            "contract": "src/OuterSpace.sol:OuterSpace",
            "label": "maxX",
            "offset": 4,
            "slot": "0",
            "type": "t_uint32"
          },
          {
            "astId": 8693,
            "contract": "src/OuterSpace.sol:OuterSpace",
            "label": "minY",
            "offset": 8,
            "slot": "0",
            "type": "t_uint32"
          },
          {
            "astId": 8695,
            "contract": "src/OuterSpace.sol:OuterSpace",
            "label": "maxY",
            "offset": 12,
            "slot": "0",
            "type": "t_uint32"
          }
        ],
        "numberOfBytes": "32"
      },
      "t_struct(Fleet)8714_storage": {
        "encoding": "inplace",
        "label": "struct OuterSpace.Fleet",
        "members": [
          {
            "astId": 8709,
            "contract": "src/OuterSpace.sol:OuterSpace",
            "label": "owner",
            "offset": 0,
            "slot": "0",
            "type": "t_address"
          },
          {
            "astId": 8711,
            "contract": "src/OuterSpace.sol:OuterSpace",
            "label": "launchTime",
            "offset": 20,
            "slot": "0",
            "type": "t_uint32"
          },
          {
            "astId": 8713,
            "contract": "src/OuterSpace.sol:OuterSpace",
            "label": "quantity",
            "offset": 24,
            "slot": "0",
            "type": "t_uint32"
          }
        ],
        "numberOfBytes": "32"
      },
      "t_struct(InFlight)8681_storage": {
        "encoding": "inplace",
        "label": "struct OuterSpace.InFlight",
        "members": [
          {
            "astId": 8678,
            "contract": "src/OuterSpace.sol:OuterSpace",
            "label": "flying",
            "offset": 0,
            "slot": "0",
            "type": "t_uint64"
          },
          {
            "astId": 8680,
            "contract": "src/OuterSpace.sol:OuterSpace",
            "label": "destroyed",
            "offset": 8,
            "slot": "0",
            "type": "t_uint64"
          }
        ],
        "numberOfBytes": "32"
      },
      "t_struct(Planet)8707_storage": {
        "encoding": "inplace",
        "label": "struct OuterSpace.Planet",
        "members": [
          {
            "astId": 8700,
            "contract": "src/OuterSpace.sol:OuterSpace",
            "label": "owner",
            "offset": 0,
            "slot": "0",
            "type": "t_address"
          },
          {
            "astId": 8702,
            "contract": "src/OuterSpace.sol:OuterSpace",
            "label": "exitTime",
            "offset": 20,
            "slot": "0",
            "type": "t_uint32"
          },
          {
            "astId": 8704,
            "contract": "src/OuterSpace.sol:OuterSpace",
            "label": "numSpaceships",
            "offset": 24,
            "slot": "0",
            "type": "t_uint32"
          },
          {
            "astId": 8706,
            "contract": "src/OuterSpace.sol:OuterSpace",
            "label": "lastUpdated",
            "offset": 28,
            "slot": "0",
            "type": "t_uint32"
          }
        ],
        "numberOfBytes": "32"
      },
      "t_uint256": {
        "encoding": "inplace",
        "label": "uint256",
        "numberOfBytes": "32"
      },
      "t_uint32": {
        "encoding": "inplace",
        "label": "uint32",
        "numberOfBytes": "4"
      },
      "t_uint64": {
        "encoding": "inplace",
        "label": "uint64",
        "numberOfBytes": "8"
      }
    }
  }
}