{
  "address": "0xe3b65787CAA77fc76A2D395E5d7994Ce1dA0896c",
  "abi": [
    {
      "inputs": [
        {
          "internalType": "contract IERC20",
          "name": "stakingToken",
          "type": "address"
        },
        {
          "internalType": "bytes32",
          "name": "genesis",
          "type": "bytes32"
        },
        {
          "internalType": "uint32",
          "name": "resolveWindow",
          "type": "uint32"
        },
        {
          "internalType": "uint32",
          "name": "timePerDistance",
          "type": "uint32"
        },
        {
          "internalType": "uint32",
          "name": "exitDuration",
          "type": "uint32"
        },
        {
          "internalType": "uint32",
          "name": "acquireNumSpaceships",
          "type": "uint32"
        },
        {
          "internalType": "uint32",
          "name": "productionSpeedUp",
          "type": "uint32"
        }
      ],
      "stateMutability": "nonpayable",
      "type": "constructor"
    },
    {
      "anonymous": false,
      "inputs": [
        {
          "indexed": true,
          "internalType": "address",
          "name": "owner",
          "type": "address"
        },
        {
          "indexed": true,
          "internalType": "address",
          "name": "operator",
          "type": "address"
        },
        {
          "indexed": false,
          "internalType": "bool",
          "name": "approved",
          "type": "bool"
        }
      ],
      "name": "ApprovalForAll",
      "type": "event"
    },
    {
      "anonymous": false,
      "inputs": [
        {
          "indexed": true,
          "internalType": "address",
          "name": "owner",
          "type": "address"
        },
        {
          "indexed": true,
          "internalType": "uint256",
          "name": "location",
          "type": "uint256"
        },
        {
          "indexed": false,
          "internalType": "uint256",
          "name": "stake",
          "type": "uint256"
        }
      ],
      "name": "ExitComplete",
      "type": "event"
    },
    {
      "anonymous": false,
      "inputs": [
        {
          "indexed": true,
          "internalType": "uint256",
          "name": "fleet",
          "type": "uint256"
        },
        {
          "indexed": true,
          "internalType": "address",
          "name": "fleetOwner",
          "type": "address"
        },
        {
          "indexed": true,
          "internalType": "address",
          "name": "destinationOwner",
          "type": "address"
        },
        {
          "indexed": false,
          "internalType": "uint256",
          "name": "destination",
          "type": "uint256"
        },
        {
          "indexed": false,
          "internalType": "uint32",
          "name": "fleetLoss",
          "type": "uint32"
        },
        {
          "indexed": false,
          "internalType": "uint32",
          "name": "planetLoss",
          "type": "uint32"
        },
        {
          "indexed": false,
          "internalType": "uint32",
          "name": "inFlightFleetLoss",
          "type": "uint32"
        },
        {
          "indexed": false,
          "internalType": "uint32",
          "name": "inFlightPlanetLoss",
          "type": "uint32"
        },
        {
          "indexed": false,
          "internalType": "bool",
          "name": "won",
          "type": "bool"
        },
        {
          "indexed": false,
          "internalType": "uint32",
          "name": "newNumspaceships",
          "type": "uint32"
        }
      ],
      "name": "FleetArrived",
      "type": "event"
    },
    {
      "anonymous": false,
      "inputs": [
        {
          "indexed": true,
          "internalType": "address",
          "name": "fleetOwner",
          "type": "address"
        },
        {
          "indexed": true,
          "internalType": "uint256",
          "name": "from",
          "type": "uint256"
        },
        {
          "indexed": false,
          "internalType": "uint256",
          "name": "fleet",
          "type": "uint256"
        },
        {
          "indexed": false,
          "internalType": "uint32",
          "name": "quantity",
          "type": "uint32"
        },
        {
          "indexed": false,
          "internalType": "uint32",
          "name": "newNumSpaceships",
          "type": "uint32"
        }
      ],
      "name": "FleetSent",
      "type": "event"
    },
    {
      "anonymous": false,
      "inputs": [
        {
          "indexed": true,
          "internalType": "address",
          "name": "owner",
          "type": "address"
        },
        {
          "indexed": true,
          "internalType": "uint256",
          "name": "location",
          "type": "uint256"
        }
      ],
      "name": "PlanetExit",
      "type": "event"
    },
    {
      "anonymous": false,
      "inputs": [
        {
          "indexed": true,
          "internalType": "address",
          "name": "acquirer",
          "type": "address"
        },
        {
          "indexed": true,
          "internalType": "uint256",
          "name": "location",
          "type": "uint256"
        },
        {
          "indexed": false,
          "internalType": "uint32",
          "name": "numSpaceships",
          "type": "uint32"
        },
        {
          "indexed": false,
          "internalType": "uint256",
          "name": "stake",
          "type": "uint256"
        }
      ],
      "name": "PlanetStake",
      "type": "event"
    },
    {
      "anonymous": false,
      "inputs": [
        {
          "indexed": true,
          "internalType": "address",
          "name": "owner",
          "type": "address"
        },
        {
          "indexed": false,
          "internalType": "uint256",
          "name": "newStake",
          "type": "uint256"
        }
      ],
      "name": "StakeToWithdraw",
      "type": "event"
    },
    {
      "inputs": [
        {
          "internalType": "uint256",
          "name": "location",
          "type": "uint256"
        },
        {
          "internalType": "uint256",
          "name": "amount",
          "type": "uint256"
        }
      ],
      "name": "acquireViaTransferFrom",
      "outputs": [],
      "stateMutability": "nonpayable",
      "type": "function"
    },
    {
      "inputs": [
        {
          "internalType": "address",
          "name": "owner",
          "type": "address"
        }
      ],
      "name": "balanceToWithdraw",
      "outputs": [
        {
          "internalType": "uint256",
          "name": "",
          "type": "uint256"
        }
      ],
      "stateMutability": "view",
      "type": "function"
    },
    {
      "inputs": [
        {
          "internalType": "address",
          "name": "owner",
          "type": "address"
        },
        {
          "internalType": "uint256",
          "name": "location",
          "type": "uint256"
        }
      ],
      "name": "exitFor",
      "outputs": [],
      "stateMutability": "nonpayable",
      "type": "function"
    },
    {
      "inputs": [
        {
          "internalType": "address",
          "name": "owner",
          "type": "address"
        },
        {
          "internalType": "uint256[]",
          "name": "locations",
          "type": "uint256[]"
        }
      ],
      "name": "fetchAndWithdrawFor",
      "outputs": [],
      "stateMutability": "nonpayable",
      "type": "function"
    },
    {
      "inputs": [],
      "name": "getDiscovered",
      "outputs": [
        {
          "components": [
            {
              "internalType": "uint32",
              "name": "minX",
              "type": "uint32"
            },
            {
              "internalType": "uint32",
              "name": "maxX",
              "type": "uint32"
            },
            {
              "internalType": "uint32",
              "name": "minY",
              "type": "uint32"
            },
            {
              "internalType": "uint32",
              "name": "maxY",
              "type": "uint32"
            }
          ],
          "internalType": "struct OuterSpace.Discovered",
          "name": "",
          "type": "tuple"
        }
      ],
      "stateMutability": "view",
      "type": "function"
    },
    {
      "inputs": [
        {
          "internalType": "uint256",
          "name": "fleetId",
          "type": "uint256"
        },
        {
          "internalType": "uint256",
          "name": "from",
          "type": "uint256"
        }
      ],
      "name": "getFleet",
      "outputs": [
        {
          "internalType": "address",
          "name": "owner",
          "type": "address"
        },
        {
          "internalType": "uint32",
          "name": "launchTime",
          "type": "uint32"
        },
        {
          "internalType": "uint32",
          "name": "quantity",
          "type": "uint32"
        },
        {
          "internalType": "uint64",
          "name": "flyingAtLaunch",
          "type": "uint64"
        },
        {
          "internalType": "uint64",
          "name": "destroyedAtLaunch",
          "type": "uint64"
        }
      ],
      "stateMutability": "view",
      "type": "function"
    },
    {
      "inputs": [],
      "name": "getGeneisHash",
      "outputs": [
        {
          "internalType": "bytes32",
          "name": "",
          "type": "bytes32"
        }
      ],
      "stateMutability": "view",
      "type": "function"
    },
    {
      "inputs": [
        {
          "internalType": "uint256",
          "name": "location",
          "type": "uint256"
        }
      ],
      "name": "getPlanet",
      "outputs": [
        {
          "components": [
            {
              "internalType": "address",
              "name": "owner",
              "type": "address"
            },
            {
              "internalType": "uint32",
              "name": "exitTime",
              "type": "uint32"
            },
            {
              "internalType": "uint32",
              "name": "numSpaceships",
              "type": "uint32"
            },
            {
              "internalType": "uint32",
              "name": "lastUpdated",
              "type": "uint32"
            },
            {
              "internalType": "bool",
              "name": "active",
              "type": "bool"
            }
          ],
          "internalType": "struct OuterSpace.ExternalPlanet",
          "name": "state",
          "type": "tuple"
        },
        {
          "components": [
            {
              "internalType": "int8",
              "name": "subX",
              "type": "int8"
            },
            {
              "internalType": "int8",
              "name": "subY",
              "type": "int8"
            },
            {
              "internalType": "uint16",
              "name": "stake",
              "type": "uint16"
            },
            {
              "internalType": "uint16",
              "name": "production",
              "type": "uint16"
            },
            {
              "internalType": "uint16",
              "name": "attack",
              "type": "uint16"
            },
            {
              "internalType": "uint16",
              "name": "defense",
              "type": "uint16"
            },
            {
              "internalType": "uint16",
              "name": "speed",
              "type": "uint16"
            },
            {
              "internalType": "uint16",
              "name": "natives",
              "type": "uint16"
            }
          ],
          "internalType": "struct OuterSpace.PlanetStats",
          "name": "stats",
          "type": "tuple"
        }
      ],
      "stateMutability": "view",
      "type": "function"
    },
    {
      "inputs": [
        {
          "internalType": "uint256[]",
          "name": "locations",
          "type": "uint256[]"
        }
      ],
      "name": "getPlanetStates",
      "outputs": [
        {
          "components": [
            {
              "internalType": "address",
              "name": "owner",
              "type": "address"
            },
            {
              "internalType": "uint32",
              "name": "exitTime",
              "type": "uint32"
            },
            {
              "internalType": "uint32",
              "name": "numSpaceships",
              "type": "uint32"
            },
            {
              "internalType": "uint32",
              "name": "lastUpdated",
              "type": "uint32"
            },
            {
              "internalType": "bool",
              "name": "active",
              "type": "bool"
            }
          ],
          "internalType": "struct OuterSpace.ExternalPlanet[]",
          "name": "planetStates",
          "type": "tuple[]"
        },
        {
          "components": [
            {
              "internalType": "uint32",
              "name": "minX",
              "type": "uint32"
            },
            {
              "internalType": "uint32",
              "name": "maxX",
              "type": "uint32"
            },
            {
              "internalType": "uint32",
              "name": "minY",
              "type": "uint32"
            },
            {
              "internalType": "uint32",
              "name": "maxY",
              "type": "uint32"
            }
          ],
          "internalType": "struct OuterSpace.Discovered",
          "name": "discovered",
          "type": "tuple"
        }
      ],
      "stateMutability": "view",
      "type": "function"
    },
    {
      "inputs": [
        {
          "internalType": "address",
          "name": "",
          "type": "address"
        },
        {
          "internalType": "address",
          "name": "forAddress",
          "type": "address"
        },
        {
          "internalType": "uint256",
          "name": "amount",
          "type": "uint256"
        },
        {
          "internalType": "bytes",
          "name": "data",
          "type": "bytes"
        }
      ],
      "name": "onTokenPaidFor",
      "outputs": [
        {
          "internalType": "bool",
          "name": "",
          "type": "bool"
        }
      ],
      "stateMutability": "nonpayable",
      "type": "function"
    },
    {
      "inputs": [
        {
          "internalType": "address",
          "name": "",
          "type": "address"
        },
        {
          "internalType": "uint256",
          "name": "amount",
          "type": "uint256"
        },
        {
          "internalType": "bytes",
          "name": "data",
          "type": "bytes"
        }
      ],
      "name": "onTokenTransfer",
      "outputs": [
        {
          "internalType": "bool",
          "name": "",
          "type": "bool"
        }
      ],
      "stateMutability": "nonpayable",
      "type": "function"
    },
    {
      "inputs": [
        {
          "internalType": "contract IERC20",
          "name": "",
          "type": "address"
        },
        {
          "internalType": "bytes32",
          "name": "",
          "type": "bytes32"
        },
        {
          "internalType": "uint32",
          "name": "",
          "type": "uint32"
        },
        {
          "internalType": "uint32",
          "name": "",
          "type": "uint32"
        },
        {
          "internalType": "uint32",
          "name": "",
          "type": "uint32"
        },
        {
          "internalType": "uint32",
          "name": "",
          "type": "uint32"
        },
        {
          "internalType": "uint32",
          "name": "",
          "type": "uint32"
        }
      ],
      "name": "postUpgrade",
      "outputs": [],
      "stateMutability": "nonpayable",
      "type": "function"
    },
    {
      "inputs": [
        {
          "internalType": "uint256",
          "name": "fleetId",
          "type": "uint256"
        },
        {
          "internalType": "uint256",
          "name": "from",
          "type": "uint256"
        },
        {
          "internalType": "uint256",
          "name": "to",
          "type": "uint256"
        },
        {
          "internalType": "uint256",
          "name": "distance",
          "type": "uint256"
        },
        {
          "internalType": "bytes32",
          "name": "secret",
          "type": "bytes32"
        }
      ],
      "name": "resolveFleet",
      "outputs": [],
      "stateMutability": "nonpayable",
      "type": "function"
    },
    {
      "inputs": [
        {
          "internalType": "uint256",
          "name": "from",
          "type": "uint256"
        },
        {
          "internalType": "uint32",
          "name": "quantity",
          "type": "uint32"
        },
        {
          "internalType": "bytes32",
          "name": "toHash",
          "type": "bytes32"
        }
      ],
      "name": "send",
      "outputs": [],
      "stateMutability": "nonpayable",
      "type": "function"
    },
    {
      "inputs": [
        {
          "internalType": "address",
          "name": "owner",
          "type": "address"
        },
        {
          "internalType": "uint256",
          "name": "from",
          "type": "uint256"
        },
        {
          "internalType": "uint32",
          "name": "quantity",
          "type": "uint32"
        },
        {
          "internalType": "bytes32",
          "name": "toHash",
          "type": "bytes32"
        }
      ],
      "name": "sendFor",
      "outputs": [],
      "stateMutability": "nonpayable",
      "type": "function"
    },
    {
      "inputs": [
        {
          "internalType": "address",
          "name": "operator",
          "type": "address"
        },
        {
          "internalType": "bool",
          "name": "approved",
          "type": "bool"
        }
      ],
      "name": "setApprovalForAll",
      "outputs": [],
      "stateMutability": "nonpayable",
      "type": "function"
    },
    {
      "inputs": [
        {
          "internalType": "address",
          "name": "owner",
          "type": "address"
        }
      ],
      "name": "withdrawFor",
      "outputs": [],
      "stateMutability": "nonpayable",
      "type": "function"
    }
  ],
  "transactionHash": "0x5e8de14e685e2199335414de3a83c215597147b46c24c126df7d41fceac84736",
  "args": [
    "0x1F26De42E1836a8bc489D850445B21B4356a0354",
    "0xe0c3fa9ae97fc9b60baae605896b5e3e7cecb6baaaa4708162d1ec51e8d65a68",
    7200,
    7200,
    259200,
    100000,
    1
  ],
  "linkedData": {
    "genesisHash": "0xe0c3fa9ae97fc9b60baae605896b5e3e7cecb6baaaa4708162d1ec51e8d65a68",
    "resolveWindow": 7200,
    "timePerDistance": 7200,
    "exitDuration": 259200,
    "acquireNumSpaceships": 100000,
    "productionSpeedUp": 1
  },
  "solcInputHash": "ef5eee407b94c32b05e1c2608a67d3e7",
  "bytecode": "0x6101606040523480156200001257600080fd5b5060405162005eea38038062005eea83398181016040528101906200003891906200039e565b600060048563ffffffff16816200004b57fe5b0490508463ffffffff166004820263ffffffff1614620000a2576040517f08c379a000000000000000000000000000000000000000000000000000000000815260040162000099906200048d565b60405180910390fd5b8773ffffffffffffffffffffffffffffffffffffffff1660a08173ffffffffffffffffffffffffffffffffffffffff1660601b8152505086608081815250508563ffffffff1660c081815250508063ffffffff1660e081815250508363ffffffff1661010081815250508263ffffffff166101208163ffffffff1660e01b815250508163ffffffff166101408163ffffffff1660e01b8152505062000153888888888888886200016160201b60201c565b505050505050505062000570565b6000620001736200033060201b60201c565b9050600073ffffffffffffffffffffffffffffffffffffffff168173ffffffffffffffffffffffffffffffffffffffff161415620001e85773ffffffffffffffffffffffffffffffffffffffff7fb53127684a568b3173ae13b9f8a6016e243e63b6e8ee1178d6a717850b5d61035562000222565b8073ffffffffffffffffffffffffffffffffffffffff163373ffffffffffffffffffffffffffffffffffffffff16146200022157600080fd5b5b6000600560000160009054906101000a900463ffffffff1663ffffffff16141562000326576040518060800160405280600c63ffffffff168152602001600c63ffffffff168152602001600c63ffffffff168152602001600c63ffffffff16815250600560008201518160000160006101000a81548163ffffffff021916908363ffffffff16021790555060208201518160000160046101000a81548163ffffffff021916908363ffffffff16021790555060408201518160000160086101000a81548163ffffffff021916908363ffffffff160217905550606082015181600001600c6101000a81548163ffffffff021916908363ffffffff1602179055509050505b5050505050505050565b60007fb53127684a568b3173ae13b9f8a6016e243e63b6e8ee1178d6a717850b5d610354905090565b6000815190506200036a8162000522565b92915050565b60008151905062000381816200053c565b92915050565b600081519050620003988162000556565b92915050565b600080600080600080600060e0888a031215620003ba57600080fd5b6000620003ca8a828b0162000370565b9750506020620003dd8a828b0162000359565b9650506040620003f08a828b0162000387565b9550506060620004038a828b0162000387565b9450506080620004168a828b0162000387565b93505060a0620004298a828b0162000387565b92505060c06200043c8a828b0162000387565b91505092959891949750929550565b60006200045a601d83620004af565b91507f54494d455f5045525f444953545f4e4f545f444956495349424c455f340000006000830152602082019050919050565b60006020820190508181036000830152620004a8816200044b565b9050919050565b600082825260208201905092915050565b6000620004cd82620004f2565b9050919050565b6000819050919050565b6000620004eb82620004c0565b9050919050565b600073ffffffffffffffffffffffffffffffffffffffff82169050919050565b600063ffffffff82169050919050565b6200052d81620004d4565b81146200053957600080fd5b50565b6200054781620004de565b81146200055357600080fd5b50565b620005618162000512565b81146200056d57600080fd5b50565b60805160a05160601c60c05160e051610100516101205160e01c6101405160e01c6158f5620005f560003980611ee15250806123c4528061245d52806124a35280612512528061253c525080611c9d5250806131585250806131d152508061077852806108575280610a6f528061195a52508061082f5280611e2952506158f56000f3fe608060405234801561001057600080fd5b506004361061010b5760003560e01c8063a22cb465116100a2578063b92ce46711610071578063b92ce467146102b4578063c5aaa0ae146102d0578063c9560838146102ee578063e2e9b0791461031e578063ee5433931461033a5761010b565b8063a22cb4651461021b578063a4c0ed3614610237578063aba789f514610267578063afc82370146102985761010b565b80637ba423fb116100de5780637ba423fb146101955780637cef64d8146101b15780639b6be065146101cf5780639eca672c146101ff5761010b565b8063112e68511461011057806334efcb8e1461012c57806361f018c01461015d578063653d498314610179575b600080fd5b61012a60048036038101906101259190614872565b61036e565b005b61014660048036038101906101419190614796565b610386565b6040516101549291906155f7565b60405180910390f35b61017760048036038101906101729190614627565b610479565b005b610193600480360381019061018e91906146f8565b61059c565b005b6101af60048036038101906101aa91906147bf565b61075f565b005b6101b961082b565b6040516101c691906152e1565b60405180910390f35b6101e960048036038101906101e4919061446b565b610853565b6040516101f691906152c6565b60405180910390f35b61021960048036038101906102149190614406565b61090f565b005b61023560048036038101906102309190614543565b610961565b005b610251600480360381019061024c91906145bb565b610a6b565b60405161025e91906152c6565b60405180910390f35b610281600480360381019061027c919061468a565b610b2a565b60405161028f929190615296565b60405180910390f35b6102b260048036038101906102ad919061457f565b610d4f565b005b6102ce60048036038101906102c991906147fb565b610eb7565b005b6102d8610ecb565b6040516102e591906155dc565b60405180910390f35b61030860048036038101906103039190614406565b610f7d565b6040516103159190615621565b60405180910390f35b610338600480360381019061033391906144eb565b610fc6565b005b610354600480360381019061034f91906147bf565b611133565b604051610365959493929190615243565b60405180910390f35b61038161037961126d565b848484611275565b505050565b61038e614081565b6103966140da565b60006103a1846116f6565b90506000806103c38360000160189054906101000a900463ffffffff16611711565b915091506040518060a001604052808460000160009054906101000a900473ffffffffffffffffffffffffffffffffffffffff1673ffffffffffffffffffffffffffffffffffffffff1681526020018460000160149054906101000a900463ffffffff1663ffffffff1681526020018263ffffffff16815260200184600001601c9054906101000a900463ffffffff1663ffffffff168152602001831515815250945061046f86611750565b9350505050915091565b600061048361126d565b90508473ffffffffffffffffffffffffffffffffffffffff168173ffffffffffffffffffffffffffffffffffffffff161461058257600360008673ffffffffffffffffffffffffffffffffffffffff1673ffffffffffffffffffffffffffffffffffffffff16815260200190815260200160002060008273ffffffffffffffffffffffffffffffffffffffff1673ffffffffffffffffffffffffffffffffffffffff16815260200190815260200160002060009054906101000a900460ff16610581576040517f08c379a00000000000000000000000000000000000000000000000000000000081526004016105789061557c565b60405180910390fd5b5b61059561058d61126d565b858585611275565b5050505050565b60006105a661184f565b9050600073ffffffffffffffffffffffffffffffffffffffff168173ffffffffffffffffffffffffffffffffffffffff1614156106195773ffffffffffffffffffffffffffffffffffffffff7fb53127684a568b3173ae13b9f8a6016e243e63b6e8ee1178d6a717850b5d610355610652565b8073ffffffffffffffffffffffffffffffffffffffff163373ffffffffffffffffffffffffffffffffffffffff161461065157600080fd5b5b6000600560000160009054906101000a900463ffffffff1663ffffffff161415610755576040518060800160405280600c63ffffffff168152602001600c63ffffffff168152602001600c63ffffffff168152602001600c63ffffffff16815250600560008201518160000160006101000a81548163ffffffff021916908363ffffffff16021790555060208201518160000160046101000a81548163ffffffff021916908363ffffffff16021790555060408201518160000160086101000a81548163ffffffff021916908363ffffffff160217905550606082015181600001600c6101000a81548163ffffffff021916908363ffffffff1602179055509050505b5050505050505050565b600061076961126d565b9050610776818385611878565b7f000000000000000000000000000000000000000000000000000000000000000073ffffffffffffffffffffffffffffffffffffffff166323b872dd8230856040518463ffffffff1660e01b81526004016107d3939291906151e3565b602060405180830381600087803b1580156107ed57600080fd5b505af1158015610801573d6000803e3d6000fd5b505050506040513d601f19601f8201168201806040525081019061082591906146cf565b50505050565b60007f0000000000000000000000000000000000000000000000000000000000000000905090565b60007f000000000000000000000000000000000000000000000000000000000000000073ffffffffffffffffffffffffffffffffffffffff163373ffffffffffffffffffffffffffffffffffffffff16146108e3576040517f08c379a00000000000000000000000000000000000000000000000000000000081526004016108da9061535c565b60405180910390fd5b600083838101906108f49190614796565b9050610901868683611878565b600191505095945050505050565b6000600260008373ffffffffffffffffffffffffffffffffffffffff1673ffffffffffffffffffffffffffffffffffffffff16815260200190815260200160002054905061095d828261194d565b5050565b600061096b61126d565b905081600360008373ffffffffffffffffffffffffffffffffffffffff1673ffffffffffffffffffffffffffffffffffffffff16815260200190815260200160002060008573ffffffffffffffffffffffffffffffffffffffff1673ffffffffffffffffffffffffffffffffffffffff16815260200190815260200160002060006101000a81548160ff0219169083151502179055508273ffffffffffffffffffffffffffffffffffffffff168173ffffffffffffffffffffffffffffffffffffffff167f17307eab39ab6107e8899845ad3d59bd9653f200f220920489ca2b5937696c3184604051610a5e91906152c6565b60405180910390a3505050565b60007f000000000000000000000000000000000000000000000000000000000000000073ffffffffffffffffffffffffffffffffffffffff163373ffffffffffffffffffffffffffffffffffffffff1614610afb576040517f08c379a0000000000000000000000000000000000000000000000000000000008152600401610af29061535c565b60405180910390fd5b6000808484810190610b0d919061442f565b91509150610b1c828783611878565b600192505050949350505050565b6060610b3461413b565b8383905067ffffffffffffffff81118015610b4e57600080fd5b50604051908082528060200260200182016040528015610b8857816020015b610b75614081565b815260200190600190039081610b6d5790505b50915060005b84849050811015610ca0576000610bb6868684818110610baa57fe5b905060200201356116f6565b9050600080610bd88360000160189054906101000a900463ffffffff16611711565b915091506040518060a001604052808460000160009054906101000a900473ffffffffffffffffffffffffffffffffffffffff1673ffffffffffffffffffffffffffffffffffffffff1681526020018460000160149054906101000a900463ffffffff1663ffffffff1681526020018263ffffffff16815260200184600001601c9054906101000a900463ffffffff1663ffffffff168152602001831515815250868581518110610c8557fe5b60200260200101819052505050508080600101915050610b8e565b5060056040518060800160405290816000820160009054906101000a900463ffffffff1663ffffffff1663ffffffff1681526020016000820160049054906101000a900463ffffffff1663ffffffff1663ffffffff1681526020016000820160089054906101000a900463ffffffff1663ffffffff1663ffffffff16815260200160008201600c9054906101000a900463ffffffff1663ffffffff1663ffffffff168152505090509250929050565b6000610d5a826116f6565b90508060000160009054906101000a900473ffffffffffffffffffffffffffffffffffffffff1673ffffffffffffffffffffffffffffffffffffffff168373ffffffffffffffffffffffffffffffffffffffff1614610dee576040517f08c379a0000000000000000000000000000000000000000000000000000000008152600401610de59061551c565b60405180910390fd5b60008160000160149054906101000a900463ffffffff1663ffffffff1614610e4b576040517f08c379a0000000000000000000000000000000000000000000000000000000008152600401610e429061531c565b60405180910390fd5b428160000160146101000a81548163ffffffff021916908363ffffffff160217905550818373ffffffffffffffffffffffffffffffffffffffff167fb9182e4e152947f1e6691fa0ee6f68f21f607fed825945c270e69995acad805f60405160405180910390a3505050565b610ec48585858585611a48565b5050505050565b610ed361413b565b60056040518060800160405290816000820160009054906101000a900463ffffffff1663ffffffff1663ffffffff1681526020016000820160049054906101000a900463ffffffff1663ffffffff1663ffffffff1681526020016000820160089054906101000a900463ffffffff1663ffffffff1663ffffffff16815260200160008201600c9054906101000a900463ffffffff1663ffffffff1663ffffffff1681525050905090565b6000600260008373ffffffffffffffffffffffffffffffffffffffff1673ffffffffffffffffffffffffffffffffffffffff168152602001908152602001600020549050919050565b6000805b838390508110156110db576000610ff2858584818110610fe657fe5b905060200201356116f6565b90506110118160000160149054906101000a900463ffffffff16611c89565b156110cd578060000160009054906101000a900473ffffffffffffffffffffffffffffffffffffffff1673ffffffffffffffffffffffffffffffffffffffff168673ffffffffffffffffffffffffffffffffffffffff16146110a8576040517f08c379a000000000000000000000000000000000000000000000000000000000815260040161109f9061551c565b60405180910390fd5b6110c88585848181106110b757fe5b905060200201358783600080611cce565b830192505b508080600101915050610fca565b50600081600260008773ffffffffffffffffffffffffffffffffffffffff1673ffffffffffffffffffffffffffffffffffffffff1681526020019081526020016000205401905061112c858261194d565b5050505050565b60008060008060006001600088815260200190815260200160002060000160149054906101000a900463ffffffff1693506001600088815260200190815260200160002060000160189054906101000a900463ffffffff1692506001600088815260200190815260200160002060000160009054906101000a900473ffffffffffffffffffffffffffffffffffffffff16945060006002610708816111d457fe5b048563ffffffff16816111e357fe5b04905060046000888152602001908152602001600020600082815260200190815260200160002060000160089054906101000a900467ffffffffffffffff16915060046000888152602001908152602001600020600082815260200190815260200160002060000160009054906101000a900467ffffffffffffffff169250509295509295909350565b600033905090565b6000611280846116f6565b905060008160000160149054906101000a900463ffffffff1663ffffffff16146112df576040517f08c379a00000000000000000000000000000000000000000000000000000000081526004016112d69061537c565b60405180910390fd5b8060000160009054906101000a900473ffffffffffffffffffffffffffffffffffffffff1673ffffffffffffffffffffffffffffffffffffffff168573ffffffffffffffffffffffffffffffffffffffff1614611371576040517f08c379a00000000000000000000000000000000000000000000000000000000081526004016113689061551c565b60405180910390fd5b600061137c85611e25565b9050600061138982611e77565b90506000806113c78560000160189054906101000a900463ffffffff1686600001601c9054906101000a900463ffffffff1663ffffffff1685611eb9565b915091508663ffffffff168163ffffffff16101561141a576040517f08c379a00000000000000000000000000000000000000000000000000000000081526004016114119061533c565b60405180910390fd5b600060026107088161142857fe5b04428161143157fe5b0490506000600460008b8152602001908152602001600020600083815260200190815260200160002060000160009054906101000a900467ffffffffffffffff1690508863ffffffff16810190508863ffffffff168167ffffffffffffffff1610156114d2576040517f08c379a00000000000000000000000000000000000000000000000000000000081526004016114c9906154fc565b60405180910390fd5b80600460008c8152602001908152602001600020600084815260200190815260200160002060000160006101000a81548167ffffffffffffffff021916908367ffffffffffffffff160217905550600042905060008a850390506115368682611f50565b8960000160186101000a81548163ffffffff021916908363ffffffff1602179055508189600001601c6101000a81548163ffffffff021916908363ffffffff16021790555060008a8d6040516020016115909291906151b7565b6040516020818303038152906040528051906020012060001c905060405180606001604052808f73ffffffffffffffffffffffffffffffffffffffff1681526020018463ffffffff1681526020018d63ffffffff168152506001600083815260200190815260200160002060008201518160000160006101000a81548173ffffffffffffffffffffffffffffffffffffffff021916908373ffffffffffffffffffffffffffffffffffffffff16021790555060208201518160000160146101000a81548163ffffffff021916908363ffffffff16021790555060408201518160000160186101000a81548163ffffffff021916908363ffffffff1602179055509050508c8e73ffffffffffffffffffffffffffffffffffffffff167fd7da2af85ac97f64039a5304a609fe0eb346f04985c4fd55e0d9b10b8b886ee7838f866040516116de9392919061563c565b60405180910390a35050505050505050505050505050565b60008060008381526020019081526020016000209050919050565b600080638000000063ffffffff166380000000841663ffffffff16149150638000000063ffffffff168363ffffffff168161174857fe5b069050915091565b6117586140da565b600061176383611e25565b905061176e81611f6e565b6117ad576040517f08c379a00000000000000000000000000000000000000000000000000000000081526004016117a4906153bc565b60405180910390fd5b6000806117b983611f94565b915091506040518061010001604052808360000b81526020018260000b81526020016117e485611fd4565b61ffff1681526020016117f685611e77565b61ffff168152602001611808856120b1565b61ffff16815260200161181a856120d9565b61ffff16815260200161182c85612101565b61ffff16815260200161183e85612129565b61ffff168152509350505050919050565b60007fb53127684a568b3173ae13b9f8a6016e243e63b6e8ee1178d6a717850b5d610354905090565b600061188382611e25565b9050670de0b6b3a764000061189782611fd4565b61ffff160283146118dd576040517f08c379a00000000000000000000000000000000000000000000000000000000081526004016118d49061559c565b60405180910390fd5b60006118ea858484612151565b90506118f5836125c1565b828573ffffffffffffffffffffffffffffffffffffffff167f5a2bd9d3c37a402271eaa8b4cd01a1a65831589c630b4b8ab1967eca76c0412c838760405161193e9291906156e2565b60405180910390a35050505050565b6119588260006129e1565b7f000000000000000000000000000000000000000000000000000000000000000073ffffffffffffffffffffffffffffffffffffffff1663a9059cbb83836040518363ffffffff1660e01b81526004016119b392919061521a565b602060405180830381600087803b1580156119cd57600080fd5b505af11580156119e1573d6000803e3d6000fd5b505050506040513d601f19601f82011682018060405250810190611a0591906146cf565b611a44576040517f08c379a0000000000000000000000000000000000000000000000000000000008152600401611a3b906153dc565b60405180910390fd5b5050565b611a5061417b565b600160008781526020019081526020016000206040518060600160405290816000820160009054906101000a900473ffffffffffffffffffffffffffffffffffffffff1673ffffffffffffffffffffffffffffffffffffffff1673ffffffffffffffffffffffffffffffffffffffff1681526020016000820160149054906101000a900463ffffffff1663ffffffff1663ffffffff1681526020016000820160189054906101000a900463ffffffff1663ffffffff1663ffffffff16815250509050600080611b23838989898989612a77565b91509150611b2f6141be565b611b38876116f6565b6040518060800160405290816000820160009054906101000a900473ffffffffffffffffffffffffffffffffffffffff1673ffffffffffffffffffffffffffffffffffffffff1673ffffffffffffffffffffffffffffffffffffffff1681526020016000820160149054906101000a900463ffffffff1663ffffffff1663ffffffff1681526020016000820160189054906101000a900463ffffffff1663ffffffff1663ffffffff16815260200160008201601c9054906101000a900463ffffffff1663ffffffff1663ffffffff16815250509050611c4884600001518a611c238460200151611c89565b611c31578360000151611c34565b60005b8a611c42898e888f8c612b9e565b87612c16565b6000600160008b815260200190815260200160002060000160186101000a81548163ffffffff021916908363ffffffff160217905550505050505050505050565b6000808263ffffffff16118015611cc757507f00000000000000000000000000000000000000000000000000000000000000008263ffffffff160142115b9050919050565b600080611cda87611e25565b90506000670de0b6b3a7640000611cf083611fd4565b61ffff16029050878660000160009054906101000a900473ffffffffffffffffffffffffffffffffffffffff1673ffffffffffffffffffffffffffffffffffffffff167f1c363b29828a892b7cddafe9583ef52e0d5aca0ea7011bda6ccf039e1781f73883604051611d629190615621565b60405180910390a360008660000160146101000a81548163ffffffff021916908363ffffffff160217905550848660000160006101000a81548173ffffffffffffffffffffffffffffffffffffffff021916908373ffffffffffffffffffffffffffffffffffffffff1602179055504286600001601c6101000a81548163ffffffff021916908363ffffffff160217905550838660000160186101000a81548163ffffffff021916908363ffffffff160217905550809250505095945050505050565b60007f000000000000000000000000000000000000000000000000000000000000000082604051602001611e5a9291906151b7565b604051602081830303815290604052805190602001209050919050565b6000611eb2600c7f0708083409600a8c0bb80ce40e100e100e100e101068151819c81e7823282ee060001b84612ca49092919063ffffffff16565b9050919050565b600080611ec585611711565b80925081935050508115611f4857600084420390506000610e107f000000000000000000000000000000000000000000000000000000000000000063ffffffff168661ffff1684020281611f1557fe5b048363ffffffff16019050638000000063ffffffff168110611f4257600163800000000363ffffffff1690505b80925050505b935093915050565b60008183611f5f576000611f65565b63800000005b01905092915050565b60006001611f896034601085612cfd9092919063ffffffff16565b60ff16149050919050565b600080611fae6000600385612cfd9092919063ffffffff16565b6001039150611fca6002600385612cfd9092919063ffffffff16565b6001039050915091565b600080611feb600c84612d1e90919063ffffffff16565b9050600061202560047c010001000200020003000300040004000500050006000600070007000860001b86612ca49092919063ffffffff16565b90506000818360ff1601905060048161ffff1610156120475760009050612065565b60138161ffff16111561205d57600f9050612064565b6004810390505b5b7e0400050005000a000a000f000f00140014001e001e0028002800500050006460001b6001600283020161ffff166020811061209d57fe5b1a60f81b60f81c60ff169350505050919050565b60006101906120ca601484612d1e90919063ffffffff16565b60ff1602610fa0019050919050565b60006101906120f2601c84612d1e90919063ffffffff16565b60ff1602610fa0019050919050565b600061014d61211a602484612d1e90919063ffffffff16565b60ff160261138d019050919050565b6000610bb8612142602c84612d1e90919063ffffffff16565b60ff1602613a98019050919050565b60008061215d846116f6565b90506121676141be565b816040518060800160405290816000820160009054906101000a900473ffffffffffffffffffffffffffffffffffffffff1673ffffffffffffffffffffffffffffffffffffffff1673ffffffffffffffffffffffffffffffffffffffff1681526020016000820160149054906101000a900463ffffffff1663ffffffff1663ffffffff1681526020016000820160189054906101000a900463ffffffff1663ffffffff1663ffffffff16815260200160008201601c9054906101000a900463ffffffff1663ffffffff1663ffffffff168152505090506000806122618360400151846060015163ffffffff1661225c89611e77565b611eb9565b915091506000806000856060015163ffffffff16141561228f5761228488612129565b61ffff1690506123bc565b6000856020015163ffffffff16146122f6576122ae8560200151611c89565b6122ed576040517f08c379a00000000000000000000000000000000000000000000000000000000081526004016122e49061545c565b60405180910390fd5b600191506123bb565b8315612337576040517f08c379a000000000000000000000000000000000000000000000000000000000815260040161232e906153fc565b60405180910390fd5b8973ffffffffffffffffffffffffffffffffffffffff16856000015173ffffffffffffffffffffffffffffffffffffffff16148061237b575060008363ffffffff16145b6123ba576040517f08c379a00000000000000000000000000000000000000000000000000000000081526004016123b1906154bc565b60405180910390fd5b5b5b8115612405577f00000000000000000000000000000000000000000000000000000000000000009250612400898660000151888d6123fb600189611f50565b612dca565b6125b1565b898660000160006101000a81548173ffffffffffffffffffffffffffffffffffffffff021916908373ffffffffffffffffffffffffffffffffffffffff16021790555060008163ffffffff161461253a57600061249e7f000000000000000000000000000000000000000000000000000000000000000063ffffffff168363ffffffff166127106124958d6120d9565b61ffff16612e2e565b5090507f000000000000000000000000000000000000000000000000000000000000000063ffffffff168163ffffffff161061250f576040517f08c379a00000000000000000000000000000000000000000000000000000000081526004016125069061541c565b60405180910390fd5b807f000000000000000000000000000000000000000000000000000000000000000003935050612560565b7f0000000000000000000000000000000000000000000000000000000000000000830192505b61256b600184611f50565b8660000160186101000a81548163ffffffff021916908363ffffffff1602179055504286600001601c6101000a81548163ffffffff021916908363ffffffff1602179055505b8296505050505050509392505050565b6125c961413b565b60056040518060800160405290816000820160009054906101000a900463ffffffff1663ffffffff1663ffffffff1681526020016000820160049054906101000a900463ffffffff1663ffffffff1663ffffffff1681526020016000820160089054906101000a900463ffffffff1663ffffffff1663ffffffff16815260200160008201600c9054906101000a900463ffffffff1663ffffffff1663ffffffff1681525050905060006fffffffffffffffffffffffffffffffff8316600f0b90506000608084901c600f0b905060008083121561274757836000015163ffffffff168360000313156126f0576040517f08c379a00000000000000000000000000000000000000000000000000000000081526004016126e7906154dc565b60405180910390fd5b60068360000301925063ffffffff83131561270d5763ffffffff92505b8263ffffffff16846000015163ffffffff1610156127425782846000019063ffffffff16908163ffffffff1681525050600190505b6127e4565b836020015163ffffffff16831315612794576040517f08c379a000000000000000000000000000000000000000000000000000000000815260040161278b9061543c565b60405180910390fd5b60068301925063ffffffff8313156127ae5763ffffffff92505b8263ffffffff16846020015163ffffffff1610156127e35782846020019063ffffffff16908163ffffffff1681525050600190505b5b600082121561289457836040015163ffffffff1682600003131561283d576040517f08c379a0000000000000000000000000000000000000000000000000000000008152600401612834906152fc565b60405180910390fd5b60068260000301915063ffffffff82131561285a5763ffffffff91505b8163ffffffff16846040015163ffffffff16101561288f5781846040019063ffffffff16908163ffffffff1681525050600190505b612931565b836060015163ffffffff168213156128e1576040517f08c379a00000000000000000000000000000000000000000000000000000000081526004016128d8906155bc565b60405180910390fd5b60068201915063ffffffff8213156128fb5763ffffffff91505b8163ffffffff16846060015163ffffffff1610156129305781846060019063ffffffff16908163ffffffff1681525050600190505b5b80156129da5783600560008201518160000160006101000a81548163ffffffff021916908363ffffffff16021790555060208201518160000160046101000a81548163ffffffff021916908363ffffffff16021790555060408201518160000160086101000a81548163ffffffff021916908363ffffffff160217905550606082015181600001600c6101000a81548163ffffffff021916908363ffffffff1602179055509050505b5050505050565b80600260008473ffffffffffffffffffffffffffffffffffffffff1673ffffffffffffffffffffffffffffffffffffffff168152602001908152602001600020819055508173ffffffffffffffffffffffffffffffffffffffff167f4d135695228631e73b5a31e6fc8af4e5825cde63774c3c48695b4af814d7b01982604051612a6b9190615621565b60405180910390a25050565b600080868386604051602001612a8e9291906151b7565b6040516020818303038152906040528051906020012087604051602001612ab69291906151b7565b6040516020818303038152906040528051906020012060001c14612b0f576040517f08c379a0000000000000000000000000000000000000000000000000000000008152600401612b069061547c565b60405180910390fd5b8760400151915060008263ffffffff1611612b5f576040517f08c379a0000000000000000000000000000000000000000000000000000000008152600401612b569061539c565b60405180910390fd5b612b6e82878a60200151612f0c565b9150818860400151039050612b84848787613045565b612b9384878a6020015161313c565b965096945050505050565b612ba661420e565b856000015173ffffffffffffffffffffffffffffffffffffffff16846000015173ffffffffffffffffffffffffffffffffffffffff161415612bf957612bf28660000151858585613239565b9050612c0d565b612c0a86600001518686868661335e565b90505b95945050505050565b8373ffffffffffffffffffffffffffffffffffffffff168673ffffffffffffffffffffffffffffffffffffffff16867f7997eb1d618b1121acb21162e437706631dea1be00abe485637cf356eb5a90fa86866020015187604001518789600001518a606001518b60800151604051612c949796959493929190615673565b60405180910390a4505050505050565b600080612cb18585612d1e565b9050826001600283020160ff1660208110612cc857fe5b1a60f81b60f81c60ff16610100846002840260ff1660208110612ce757fe5b1a60f81b60f81c60ff1602019150509392505050565b60008160ff168360ff1685901c60001c81612d1457fe5b0690509392505050565b600080612d2d84846040612cfd565b9050600060028260ff1681612d3e57fe5b049050600060028360ff1681612d5057fe5b06905060007f01223334444555555666666677777777888888889999999aaaaaabbbbcccddef60001b8360ff1660208110612d8757fe5b1a60f81b60f81c905060008260ff161415612daf5760048160ff16901c945050505050612dc4565b60108160ff1681612dbc57fe5b069450505050505b92915050565b6000612dd98686868686611cce565b9050612e268582600260008973ffffffffffffffffffffffffffffffffffffffff1673ffffffffffffffffffffffffffffffffffffffff16815260200190815260200160002054016129e1565b505050505050565b6000806000861480612e405750600085145b15612e515760008091509150612f03565b60008487029050600084870290506000826305f5e100890281612e7057fe5b0490506305f5e10088028382021015612e8c5780806001019150505b6000826305f5e1008b0281612e9d57fe5b0490506305f5e1008a028382021015612eb95780806001019150505b6000612ec58383613431565b9050612ee06305f5e10085830281612ed957fe5b048c613431565b9650612efb6305f5e10086830281612ef457fe5b048b613431565b955050505050505b94509492505050565b600080600261070881612f1b57fe5b048363ffffffff1681612f2a57fe5b049050600060046000868152602001908152602001600020600083815260200190815260200160002060000160089054906101000a900467ffffffffffffffff1690508563ffffffff168167ffffffffffffffff161015612fde578086039550600060046000878152602001908152602001600020600084815260200190815260200160002060000160086101000a81548167ffffffffffffffff021916908367ffffffffffffffff160217905550613039565b600095508563ffffffff16810360046000878152602001908152602001600020600084815260200190815260200160002060000160086101000a81548167ffffffffffffffff021916908367ffffffffffffffff1602179055505b85925050509392505050565b60008061305961305485611e25565b611f94565b9150915060008061307161306c86611e25565b611f94565b91509150600060028460000b600460808a901c02018360000b600460808a901c020103600f0b0a60028660000b60046fffffffffffffffffffffffffffffffff8b1602018560000b60046fffffffffffffffffffffffffffffffff8b16020103600f0b0a01600f0b9050806002890a111580156130f357506002600189010a81105b613132576040517f08c379a00000000000000000000000000000000000000000000000000000000081526004016131299061555c565b60405180910390fd5b5050505050505050565b600061314f61314a84611e25565b612101565b61ffff166127107f00000000000000000000000000000000000000000000000000000000000000000285028161318157fe5b048263ffffffff16019050804210156131cf576040517f08c379a00000000000000000000000000000000000000000000000000000000081526004016131c69061553c565b60405180910390fd5b7f000000000000000000000000000000000000000000000000000000000000000081014210613233576040517f08c379a000000000000000000000000000000000000000000000000000000000815260040161322a9061549c565b60405180910390fd5b50505050565b61324161420e565b61324e8460200151611c89565b156132925761328b83856000015160008087815260200190815260200160002060008663ffffffff1611613283576000613285565b885b8661344b565b9050613356565b600061329d84611e25565b905060006132aa82611e77565b90506000806132c88860400151896060015163ffffffff1685611eb9565b91509150600086820163ffffffff169050638000000063ffffffff1681106132fb57600163800000000363ffffffff1690505b6133058382611f50565b6000808a815260200190815260200160002060000160186101000a81548163ffffffff021916908363ffffffff16021790555080866080019063ffffffff16908163ffffffff168152505050505050505b949350505050565b61336661420e565b6000846060015163ffffffff16141561339b57600061338484611e25565b905061339387878684876134b0565b915050613428565b6133a88460200151611c89565b156133d6576133cf838560000151600080878152602001908152602001600020898661344b565b9050613428565b60006133e184611e25565b905060006133f66133f188611e25565b6120b1565b90506000613403836120d9565b9050600061341084611e77565b90506134218a84848b8b868c613669565b9450505050505b95945050505050565b6000818311156134415781613443565b825b905092915050565b61345361420e565b61347686868660008663ffffffff161161346e576000613470565b865b86612dca565b81816080019063ffffffff16908163ffffffff168152505060008263ffffffff161181606001901515908115158152505095945050505050565b6134b861420e565b60006134cb6134c687611e25565b6120b1565b905060006134d8856120d9565b905060006134e586612129565b90506000806135088763ffffffff168461ffff168761ffff168761ffff16612e2e565b9150915081866020019063ffffffff16908163ffffffff16815250508261ffff168163ffffffff1614801561354857508163ffffffff168763ffffffff16115b1561365b57818703866080019063ffffffff16908163ffffffff168152505061357660008760800151611f50565b6000808b815260200190815260200160002060000160186101000a81548163ffffffff021916908363ffffffff160217905550426000808b8152602001908152602001600020600001601c6101000a81548163ffffffff021916908363ffffffff1602179055508a6000808b815260200190815260200160002060000160006101000a81548173ffffffffffffffffffffffffffffffffffffffff021916908373ffffffffffffffffffffffffffffffffffffffff16021790555080866040019063ffffffff16908163ffffffff168152505060018660600190151590811515815250505b505050505095945050505050565b61367161420e565b613679614257565b6136848686866137f5565b90506000816040015163ffffffff161480156136a6575060008363ffffffff16115b156137d8578860008087815260200190815260200160002060000160006101000a81548173ffffffffffffffffffffffffffffffffffffffff021916908373ffffffffffffffffffffffffffffffffffffffff160217905550600080600087815260200190815260200160002060000160146101000a81548163ffffffff021916908363ffffffff160217905550613742816000015184611f50565b60008087815260200190815260200160002060000160186101000a81548163ffffffff021916908363ffffffff16021790555042600080878152602001908152602001600020600001601c6101000a81548163ffffffff021916908363ffffffff160217905550600182606001901515908115158152505082826080019063ffffffff16908163ffffffff1681525050506137ea565b6137e6818a87868c8c613907565b9150505b979650505050505050565b6137fd614257565b6000806138198660400151876060015163ffffffff1686611eb9565b91509150600080600080600061382f868b613f2f565b945094509450945094508688600001901515908115158152505085886020019063ffffffff16908163ffffffff168152505084886040019063ffffffff16908163ffffffff168152505083886060019067ffffffffffffffff16908167ffffffffffffffff168152505082886080019067ffffffffffffffff16908167ffffffffffffffff1681525050818860a0019067ffffffffffffffff16908167ffffffffffffffff1681525050808860c0019067ffffffffffffffff16908167ffffffffffffffff1681525050505050505050509392505050565b61390f61420e565b6000806139368663ffffffff168a6040015163ffffffff168761ffff168761ffff16612e2e565b9150915081836020019063ffffffff16908163ffffffff168152505080836040019063ffffffff16908163ffffffff1681525050886020015163ffffffff16836040015163ffffffff161115613d055788602001518103836000019063ffffffff16908163ffffffff16815250508860200151836040019063ffffffff16908163ffffffff1681525050826000015163ffffffff16896060015167ffffffffffffffff1610613a4457826000015163ffffffff16896060018181510391509067ffffffffffffffff16908167ffffffffffffffff1681525050826000015163ffffffff16896080018181510191509067ffffffffffffffff16908167ffffffffffffffff1681525050613b62565b8860600151896080018181510191509067ffffffffffffffff16908167ffffffffffffffff168152505060008960600151846000015163ffffffff160390508067ffffffffffffffff168a60a0015167ffffffffffffffff1610613af357808a60a0018181510391509067ffffffffffffffff16908167ffffffffffffffff1681525050808a60c0018181510191509067ffffffffffffffff16908167ffffffffffffffff1681525050613b3f565b8960a001518a60c0018181510191509067ffffffffffffffff16908167ffffffffffffffff168152505060008a60a0019067ffffffffffffffff16908167ffffffffffffffff16815250505b60008a6060019067ffffffffffffffff16908167ffffffffffffffff1681525050505b88606001516004600089815260200190815260200160002060006001600261070881613b8a57fe5b044281613b9357fe5b0403815260200190815260200160002060000160006101000a81548167ffffffffffffffff021916908367ffffffffffffffff16021790555088608001516004600089815260200190815260200160002060006001600261070881613bf457fe5b044281613bfd57fe5b0403815260200190815260200160002060000160086101000a81548167ffffffffffffffff021916908367ffffffffffffffff1602179055508860a00151600460008981526020019081526020016000206000600261070881613c5c57fe5b044281613c6557fe5b04815260200190815260200160002060000160006101000a81548167ffffffffffffffff021916908367ffffffffffffffff1602179055508860c00151600460008981526020019081526020016000206000600261070881613cc357fe5b044281613ccc57fe5b04815260200190815260200160002060000160086101000a81548167ffffffffffffffff021916908367ffffffffffffffff1602179055505b60008663ffffffff16118015613d2e5750886020015163ffffffff16836040015163ffffffff16145b15613e6557818603836080019063ffffffff16908163ffffffff168152505060018360600190151590811515815250508760008089815260200190815260200160002060000160006101000a81548173ffffffffffffffffffffffffffffffffffffffff021916908373ffffffffffffffffffffffffffffffffffffffff160217905550600080600089815260200190815260200160002060000160146101000a81548163ffffffff021916908363ffffffff160217905550613df989600001518460800151611f50565b60008089815260200190815260200160002060000160186101000a81548163ffffffff021916908363ffffffff16021790555042600080898152602001908152602001600020600001601c6101000a81548163ffffffff021916908363ffffffff160217905550613f23565b8563ffffffff16836020015163ffffffff161415613f195780896020015103836080019063ffffffff16908163ffffffff1681525050613ead89600001518460800151611f50565b60008089815260200190815260200160002060000160186101000a81548163ffffffff021916908363ffffffff16021790555042600080898152602001908152602001600020600001601c6101000a81548163ffffffff021916908363ffffffff160217905550613f22565b6000613f2157fe5b5b5b50509695505050505050565b60008060008060008694506000600261070881613f4857fe5b044281613f5157fe5b04905060046000888152602001908152602001600020600060018303815260200190815260200160002060000160009054906101000a900467ffffffffffffffff16945060046000888152602001908152602001600020600060018303815260200190815260200160002060000160009054906101000a900467ffffffffffffffff16935060046000888152602001908152602001600020600082815260200190815260200160002060000160009054906101000a900467ffffffffffffffff16925060046000888152602001908152602001600020600082815260200190815260200160002060000160089054906101000a900467ffffffffffffffff1691506140748663ffffffff168487010167ffffffffffffffff1663ffffffff613431565b9550509295509295909350565b6040518060a00160405280600073ffffffffffffffffffffffffffffffffffffffff168152602001600063ffffffff168152602001600063ffffffff168152602001600063ffffffff1681526020016000151581525090565b6040518061010001604052806000800b81526020016000800b8152602001600061ffff168152602001600061ffff168152602001600061ffff168152602001600061ffff168152602001600061ffff168152602001600061ffff1681525090565b6040518060800160405280600063ffffffff168152602001600063ffffffff168152602001600063ffffffff168152602001600063ffffffff1681525090565b6040518060600160405280600073ffffffffffffffffffffffffffffffffffffffff168152602001600063ffffffff168152602001600063ffffffff1681525090565b6040518060800160405280600073ffffffffffffffffffffffffffffffffffffffff168152602001600063ffffffff168152602001600063ffffffff168152602001600063ffffffff1681525090565b6040518060a00160405280600063ffffffff168152602001600063ffffffff168152602001600063ffffffff168152602001600015158152602001600063ffffffff1681525090565b6040518060e00160405280600015158152602001600063ffffffff168152602001600063ffffffff168152602001600067ffffffffffffffff168152602001600067ffffffffffffffff168152602001600067ffffffffffffffff168152602001600067ffffffffffffffff1681525090565b6000813590506142d98161581e565b92915050565b6000813590506142ee81615835565b92915050565b60008083601f84011261430657600080fd5b8235905067ffffffffffffffff81111561431f57600080fd5b60208301915083602082028301111561433757600080fd5b9250929050565b60008135905061434d8161584c565b92915050565b6000815190506143628161584c565b92915050565b60008135905061437781615863565b92915050565b60008083601f84011261438f57600080fd5b8235905067ffffffffffffffff8111156143a857600080fd5b6020830191508360018202830111156143c057600080fd5b9250929050565b6000813590506143d68161587a565b92915050565b6000813590506143eb81615891565b92915050565b600081359050614400816158a8565b92915050565b60006020828403121561441857600080fd5b6000614426848285016142ca565b91505092915050565b6000806040838503121561444257600080fd5b6000614450858286016142df565b9250506020614461858286016143dc565b9150509250929050565b60008060008060006080868803121561448357600080fd5b6000614491888289016142ca565b95505060206144a2888289016142ca565b94505060406144b3888289016143dc565b935050606086013567ffffffffffffffff8111156144d057600080fd5b6144dc8882890161437d565b92509250509295509295909350565b60008060006040848603121561450057600080fd5b600061450e868287016142ca565b935050602084013567ffffffffffffffff81111561452b57600080fd5b614537868287016142f4565b92509250509250925092565b6000806040838503121561455657600080fd5b6000614564858286016142ca565b92505060206145758582860161433e565b9150509250929050565b6000806040838503121561459257600080fd5b60006145a0858286016142ca565b92505060206145b1858286016143dc565b9150509250929050565b600080600080606085870312156145d157600080fd5b60006145df878288016142ca565b94505060206145f0878288016143dc565b935050604085013567ffffffffffffffff81111561460d57600080fd5b6146198782880161437d565b925092505092959194509250565b6000806000806080858703121561463d57600080fd5b600061464b878288016142ca565b945050602061465c878288016143dc565b935050604061466d878288016143f1565b925050606061467e87828801614368565b91505092959194509250565b6000806020838503121561469d57600080fd5b600083013567ffffffffffffffff8111156146b757600080fd5b6146c3858286016142f4565b92509250509250929050565b6000602082840312156146e157600080fd5b60006146ef84828501614353565b91505092915050565b600080600080600080600060e0888a03121561471357600080fd5b60006147218a828b016143c7565b97505060206147328a828b01614368565b96505060406147438a828b016143f1565b95505060606147548a828b016143f1565b94505060806147658a828b016143f1565b93505060a06147768a828b016143f1565b92505060c06147878a828b016143f1565b91505092959891949750929550565b6000602082840312156147a857600080fd5b60006147b6848285016143dc565b91505092915050565b600080604083850312156147d257600080fd5b60006147e0858286016143dc565b92505060206147f1858286016143dc565b9150509250929050565b600080600080600060a0868803121561481357600080fd5b6000614821888289016143dc565b9550506020614832888289016143dc565b9450506040614843888289016143dc565b9350506060614854888289016143dc565b925050608061486588828901614368565b9150509295509295909350565b60008060006060848603121561488757600080fd5b6000614895868287016143dc565b93505060206148a6868287016143f1565b92505060406148b786828701614368565b9150509250925092565b60006148cd8383614fe3565b60a08301905092915050565b6148e281615755565b82525050565b6148f181615755565b82525050565b60006149028261571b565b61490c8185615733565b93506149178361570b565b8060005b8381101561494857815161492f88826148c1565b975061493a83615726565b92505060018101905061491b565b5085935050505092915050565b61495e81615779565b82525050565b61496d81615779565b82525050565b61497c81615785565b82525050565b61499361498e82615785565b61580a565b82525050565b6149a2816157a1565b82525050565b60006149b5601683615744565b91507f4e4f545f524541434841424c455f5945545f4d494e59000000000000000000006000830152602082019050919050565b60006149f5600f83615744565b91507f45584954494e475f414c524541445900000000000000000000000000000000006000830152602082019050919050565b6000614a35601583615744565b91507f535041434553484950535f4e4f545f454e4f55474800000000000000000000006000830152602082019050919050565b6000614a75600d83615744565b91507f494e56414c49445f4552433230000000000000000000000000000000000000006000830152602082019050919050565b6000614ab5600b83615744565b91507f504c414e45545f455849540000000000000000000000000000000000000000006000830152602082019050919050565b6000614af5601283615744565b91507f464c4545545f444f5f4e4f545f455849535400000000000000000000000000006000830152602082019050919050565b6000614b35601a83615744565b91507f6e6f20706c616e657420696e2074686973206c6f636174696f6e0000000000006000830152602082019050919050565b6000614b75600f83615744565b91507f4641494c45445f5452414e5346455200000000000000000000000000000000006000830152602082019050919050565b6000614bb5600c83615744565b91507f5354494c4c5f41435449564500000000000000000000000000000000000000006000830152602082019050919050565b6000614bf5600f83615744565b91507f4641494c45445f434150545552454400000000000000000000000000000000006000830152602082019050919050565b6000614c35601683615744565b91507f4e4f545f524541434841424c455f5945545f4d415858000000000000000000006000830152602082019050919050565b6000614c75600d83615744565b91507f5354494c4c5f45584954494e47000000000000000000000000000000000000006000830152602082019050919050565b6000614cb5601d83615744565b91507f494e56414c49445f464c4545545f444154415f4f525f534543524554270000006000830152602082019050919050565b6000614cf5602b83615744565b91507f746f6f206c6174652c20796f7572207370616365736869707320617265206c6f60008301527f737420696e2073706163650000000000000000000000000000000000000000006020830152604082019050919050565b6000614d5b600883615744565b91507f4f434355504945440000000000000000000000000000000000000000000000006000830152602082019050919050565b6000614d9b601683615744565b91507f4e4f545f524541434841424c455f5945545f4d494e58000000000000000000006000830152602082019050919050565b6000614ddb600883615744565b91507f4f564552464c4f570000000000000000000000000000000000000000000000006000830152602082019050919050565b6000614e1b600983615744565b91507f4e4f545f4f574e455200000000000000000000000000000000000000000000006000830152602082019050919050565b6000614e5b600983615744565b91507f746f6f206561726c7900000000000000000000000000000000000000000000006000830152602082019050919050565b6000614e9b600e83615744565b91507f77726f6e672064697374616e63650000000000000000000000000000000000006000830152602082019050919050565b6000614edb600e83615744565b91507f4e4f545f415554484f52495a45440000000000000000000000000000000000006000830152602082019050919050565b6000614f1b600e83615744565b91507f494e56414c49445f414d4f554e540000000000000000000000000000000000006000830152602082019050919050565b6000614f5b601683615744565b91507f4e4f545f524541434841424c455f5945545f4d415859000000000000000000006000830152602082019050919050565b608082016000820151614fa4600085018261518a565b506020820151614fb7602085018261518a565b506040820151614fca604085018261518a565b506060820151614fdd606085018261518a565b50505050565b60a082016000820151614ff960008501826148d9565b50602082015161500c602085018261518a565b50604082015161501f604085018261518a565b506060820151615032606085018261518a565b5060808201516150456080850182614955565b50505050565b60a08201600082015161506160008501826148d9565b506020820151615074602085018261518a565b506040820151615087604085018261518a565b50606082015161509a606085018261518a565b5060808201516150ad6080850182614955565b50505050565b610100820160008201516150ca6000850182614999565b5060208201516150dd6020850182614999565b5060408201516150f06040850182615155565b5060608201516151036060850182615155565b5060808201516151166080850182615155565b5060a082015161512960a0850182615155565b5060c082015161513c60c0850182615155565b5060e082015161514f60e0850182615155565b50505050565b61515e816157ae565b82525050565b61516d816157dc565b82525050565b61518461517f826157dc565b615814565b82525050565b615193816157e6565b82525050565b6151a2816157e6565b82525050565b6151b1816157f6565b82525050565b60006151c38285614982565b6020820191506151d38284615173565b6020820191508190509392505050565b60006060820190506151f860008301866148e8565b61520560208301856148e8565b6152126040830184615164565b949350505050565b600060408201905061522f60008301856148e8565b61523c6020830184615164565b9392505050565b600060a08201905061525860008301886148e8565b6152656020830187615199565b6152726040830186615199565b61527f60608301856151a8565b61528c60808301846151a8565b9695505050505050565b600060a08201905081810360008301526152b081856148f7565b90506152bf6020830184614f8e565b9392505050565b60006020820190506152db6000830184614964565b92915050565b60006020820190506152f66000830184614973565b92915050565b60006020820190508181036000830152615315816149a8565b9050919050565b60006020820190508181036000830152615335816149e8565b9050919050565b6000602082019050818103600083015261535581614a28565b9050919050565b6000602082019050818103600083015261537581614a68565b9050919050565b6000602082019050818103600083015261539581614aa8565b9050919050565b600060208201905081810360008301526153b581614ae8565b9050919050565b600060208201905081810360008301526153d581614b28565b9050919050565b600060208201905081810360008301526153f581614b68565b9050919050565b6000602082019050818103600083015261541581614ba8565b9050919050565b6000602082019050818103600083015261543581614be8565b9050919050565b6000602082019050818103600083015261545581614c28565b9050919050565b6000602082019050818103600083015261547581614c68565b9050919050565b6000602082019050818103600083015261549581614ca8565b9050919050565b600060208201905081810360008301526154b581614ce8565b9050919050565b600060208201905081810360008301526154d581614d4e565b9050919050565b600060208201905081810360008301526154f581614d8e565b9050919050565b6000602082019050818103600083015261551581614dce565b9050919050565b6000602082019050818103600083015261553581614e0e565b9050919050565b6000602082019050818103600083015261555581614e4e565b9050919050565b6000602082019050818103600083015261557581614e8e565b9050919050565b6000602082019050818103600083015261559581614ece565b9050919050565b600060208201905081810360008301526155b581614f0e565b9050919050565b600060208201905081810360008301526155d581614f4e565b9050919050565b60006080820190506155f16000830184614f8e565b92915050565b60006101a08201905061560d600083018561504b565b61561a60a08301846150b3565b9392505050565b60006020820190506156366000830184615164565b92915050565b60006060820190506156516000830186615164565b61565e6020830185615199565b61566b6040830184615199565b949350505050565b600060e082019050615688600083018a615164565b6156956020830189615199565b6156a26040830188615199565b6156af6060830187615199565b6156bc6080830186615199565b6156c960a0830185614964565b6156d660c0830184615199565b98975050505050505050565b60006040820190506156f76000830185615199565b6157046020830184615164565b9392505050565b6000819050602082019050919050565b600081519050919050565b6000602082019050919050565b600082825260208201905092915050565b600082825260208201905092915050565b6000615760826157bc565b9050919050565b6000615772826157bc565b9050919050565b60008115159050919050565b6000819050919050565b600061579a82615755565b9050919050565b60008160000b9050919050565b600061ffff82169050919050565b600073ffffffffffffffffffffffffffffffffffffffff82169050919050565b6000819050919050565b600063ffffffff82169050919050565b600067ffffffffffffffff82169050919050565b6000819050919050565b6000819050919050565b61582781615755565b811461583257600080fd5b50565b61583e81615767565b811461584957600080fd5b50565b61585581615779565b811461586057600080fd5b50565b61586c81615785565b811461587757600080fd5b50565b6158838161578f565b811461588e57600080fd5b50565b61589a816157dc565b81146158a557600080fd5b50565b6158b1816157e6565b81146158bc57600080fd5b5056fea26469706673582212209860488257aec865ab61322d576ca402d9b388e1a15028215e35ce40a902316364736f6c63430007050033",
  "devdoc": {
    "kind": "dev",
    "methods": {},
    "version": 1
  },
  "userdoc": {
    "kind": "user",
    "methods": {},
    "version": 1
  },
  "storageLayout": {
    "storage": [
      {
        "astId": 8664,
        "contract": "src/OuterSpace.sol:OuterSpace",
        "label": "_planets",
        "offset": 0,
        "slot": "0",
        "type": "t_mapping(t_uint256,t_struct(Planet)8709_storage)"
      },
      {
        "astId": 8668,
        "contract": "src/OuterSpace.sol:OuterSpace",
        "label": "_fleets",
        "offset": 0,
        "slot": "1",
        "type": "t_mapping(t_uint256,t_struct(Fleet)8716_storage)"
      },
      {
        "astId": 8672,
        "contract": "src/OuterSpace.sol:OuterSpace",
        "label": "_stakeReadyToBeWithdrawn",
        "offset": 0,
        "slot": "2",
        "type": "t_mapping(t_address,t_uint256)"
      },
      {
        "astId": 8678,
        "contract": "src/OuterSpace.sol:OuterSpace",
        "label": "_operators",
        "offset": 0,
        "slot": "3",
        "type": "t_mapping(t_address,t_mapping(t_address,t_bool))"
      },
      {
        "astId": 8689,
        "contract": "src/OuterSpace.sol:OuterSpace",
        "label": "_inFlight",
        "offset": 0,
        "slot": "4",
        "type": "t_mapping(t_uint256,t_mapping(t_uint256,t_struct(InFlight)8683_storage))"
      },
      {
        "astId": 8700,
        "contract": "src/OuterSpace.sol:OuterSpace",
        "label": "_discovered",
        "offset": 0,
        "slot": "5",
        "type": "t_struct(Discovered)8698_storage"
      }
    ],
    "types": {
      "t_address": {
        "encoding": "inplace",
        "label": "address",
        "numberOfBytes": "20"
      },
      "t_bool": {
        "encoding": "inplace",
        "label": "bool",
        "numberOfBytes": "1"
      },
      "t_mapping(t_address,t_bool)": {
        "encoding": "mapping",
        "key": "t_address",
        "label": "mapping(address => bool)",
        "numberOfBytes": "32",
        "value": "t_bool"
      },
      "t_mapping(t_address,t_mapping(t_address,t_bool))": {
        "encoding": "mapping",
        "key": "t_address",
        "label": "mapping(address => mapping(address => bool))",
        "numberOfBytes": "32",
        "value": "t_mapping(t_address,t_bool)"
      },
      "t_mapping(t_address,t_uint256)": {
        "encoding": "mapping",
        "key": "t_address",
        "label": "mapping(address => uint256)",
        "numberOfBytes": "32",
        "value": "t_uint256"
      },
      "t_mapping(t_uint256,t_mapping(t_uint256,t_struct(InFlight)8683_storage))": {
        "encoding": "mapping",
        "key": "t_uint256",
        "label": "mapping(uint256 => mapping(uint256 => struct OuterSpace.InFlight))",
        "numberOfBytes": "32",
        "value": "t_mapping(t_uint256,t_struct(InFlight)8683_storage)"
      },
      "t_mapping(t_uint256,t_struct(Fleet)8716_storage)": {
        "encoding": "mapping",
        "key": "t_uint256",
        "label": "mapping(uint256 => struct OuterSpace.Fleet)",
        "numberOfBytes": "32",
        "value": "t_struct(Fleet)8716_storage"
      },
      "t_mapping(t_uint256,t_struct(InFlight)8683_storage)": {
        "encoding": "mapping",
        "key": "t_uint256",
        "label": "mapping(uint256 => struct OuterSpace.InFlight)",
        "numberOfBytes": "32",
        "value": "t_struct(InFlight)8683_storage"
      },
      "t_mapping(t_uint256,t_struct(Planet)8709_storage)": {
        "encoding": "mapping",
        "key": "t_uint256",
        "label": "mapping(uint256 => struct OuterSpace.Planet)",
        "numberOfBytes": "32",
        "value": "t_struct(Planet)8709_storage"
      },
      "t_struct(Discovered)8698_storage": {
        "encoding": "inplace",
        "label": "struct OuterSpace.Discovered",
        "members": [
          {
            "astId": 8691,
            "contract": "src/OuterSpace.sol:OuterSpace",
            "label": "minX",
            "offset": 0,
            "slot": "0",
            "type": "t_uint32"
          },
          {
            "astId": 8693,
            "contract": "src/OuterSpace.sol:OuterSpace",
            "label": "maxX",
            "offset": 4,
            "slot": "0",
            "type": "t_uint32"
          },
          {
            "astId": 8695,
            "contract": "src/OuterSpace.sol:OuterSpace",
            "label": "minY",
            "offset": 8,
            "slot": "0",
            "type": "t_uint32"
          },
          {
            "astId": 8697,
            "contract": "src/OuterSpace.sol:OuterSpace",
            "label": "maxY",
            "offset": 12,
            "slot": "0",
            "type": "t_uint32"
          }
        ],
        "numberOfBytes": "32"
      },
      "t_struct(Fleet)8716_storage": {
        "encoding": "inplace",
        "label": "struct OuterSpace.Fleet",
        "members": [
          {
            "astId": 8711,
            "contract": "src/OuterSpace.sol:OuterSpace",
            "label": "owner",
            "offset": 0,
            "slot": "0",
            "type": "t_address"
          },
          {
            "astId": 8713,
            "contract": "src/OuterSpace.sol:OuterSpace",
            "label": "launchTime",
            "offset": 20,
            "slot": "0",
            "type": "t_uint32"
          },
          {
            "astId": 8715,
            "contract": "src/OuterSpace.sol:OuterSpace",
            "label": "quantity",
            "offset": 24,
            "slot": "0",
            "type": "t_uint32"
          }
        ],
        "numberOfBytes": "32"
      },
      "t_struct(InFlight)8683_storage": {
        "encoding": "inplace",
        "label": "struct OuterSpace.InFlight",
        "members": [
          {
            "astId": 8680,
            "contract": "src/OuterSpace.sol:OuterSpace",
            "label": "flying",
            "offset": 0,
            "slot": "0",
            "type": "t_uint64"
          },
          {
            "astId": 8682,
            "contract": "src/OuterSpace.sol:OuterSpace",
            "label": "destroyed",
            "offset": 8,
            "slot": "0",
            "type": "t_uint64"
          }
        ],
        "numberOfBytes": "32"
      },
      "t_struct(Planet)8709_storage": {
        "encoding": "inplace",
        "label": "struct OuterSpace.Planet",
        "members": [
          {
            "astId": 8702,
            "contract": "src/OuterSpace.sol:OuterSpace",
            "label": "owner",
            "offset": 0,
            "slot": "0",
            "type": "t_address"
          },
          {
            "astId": 8704,
            "contract": "src/OuterSpace.sol:OuterSpace",
            "label": "exitTime",
            "offset": 20,
            "slot": "0",
            "type": "t_uint32"
          },
          {
            "astId": 8706,
            "contract": "src/OuterSpace.sol:OuterSpace",
            "label": "numSpaceships",
            "offset": 24,
            "slot": "0",
            "type": "t_uint32"
          },
          {
            "astId": 8708,
            "contract": "src/OuterSpace.sol:OuterSpace",
            "label": "lastUpdated",
            "offset": 28,
            "slot": "0",
            "type": "t_uint32"
          }
        ],
        "numberOfBytes": "32"
      },
      "t_uint256": {
        "encoding": "inplace",
        "label": "uint256",
        "numberOfBytes": "32"
      },
      "t_uint32": {
        "encoding": "inplace",
        "label": "uint32",
        "numberOfBytes": "4"
      },
      "t_uint64": {
        "encoding": "inplace",
        "label": "uint64",
        "numberOfBytes": "8"
      }
    }
  }
}