{
  "address": "0x94600A285827A90a5d2F034441eBB06D2ed0cef4",
  "abi": [
    {
      "inputs": [
        {
          "internalType": "contract IERC20",
          "name": "stakingToken",
          "type": "address"
        },
        {
          "internalType": "bytes32",
          "name": "genesis",
          "type": "bytes32"
        },
        {
          "internalType": "uint32",
          "name": "resolveWindow",
          "type": "uint32"
        },
        {
          "internalType": "uint32",
          "name": "timePerDistance",
          "type": "uint32"
        },
        {
          "internalType": "uint32",
          "name": "exitDuration",
          "type": "uint32"
        },
        {
          "internalType": "uint32",
          "name": "acquireNumSpaceships",
          "type": "uint32"
        },
        {
          "internalType": "uint32",
          "name": "productionSpeedUp",
          "type": "uint32"
        }
      ],
      "stateMutability": "nonpayable",
      "type": "constructor"
    },
    {
      "anonymous": false,
      "inputs": [
        {
          "indexed": true,
          "internalType": "address",
          "name": "owner",
          "type": "address"
        },
        {
          "indexed": true,
          "internalType": "address",
          "name": "operator",
          "type": "address"
        },
        {
          "indexed": false,
          "internalType": "bool",
          "name": "approved",
          "type": "bool"
        }
      ],
      "name": "ApprovalForAll",
      "type": "event"
    },
    {
      "anonymous": false,
      "inputs": [
        {
          "indexed": true,
          "internalType": "address",
          "name": "owner",
          "type": "address"
        },
        {
          "indexed": true,
          "internalType": "uint256",
          "name": "location",
          "type": "uint256"
        },
        {
          "indexed": false,
          "internalType": "uint256",
          "name": "stake",
          "type": "uint256"
        }
      ],
      "name": "ExitComplete",
      "type": "event"
    },
    {
      "anonymous": false,
      "inputs": [
        {
          "indexed": true,
          "internalType": "uint256",
          "name": "fleet",
          "type": "uint256"
        },
        {
          "indexed": true,
          "internalType": "address",
          "name": "fleetOwner",
          "type": "address"
        },
        {
          "indexed": true,
          "internalType": "address",
          "name": "destinationOwner",
          "type": "address"
        },
        {
          "indexed": false,
          "internalType": "uint256",
          "name": "destination",
          "type": "uint256"
        },
        {
          "indexed": false,
          "internalType": "uint32",
          "name": "fleetLoss",
          "type": "uint32"
        },
        {
          "indexed": false,
          "internalType": "uint32",
          "name": "planetLoss",
          "type": "uint32"
        },
        {
          "indexed": false,
          "internalType": "uint32",
          "name": "inFlightFleetLoss",
          "type": "uint32"
        },
        {
          "indexed": false,
          "internalType": "uint32",
          "name": "inFlightPlanetLoss",
          "type": "uint32"
        },
        {
          "indexed": false,
          "internalType": "bool",
          "name": "won",
          "type": "bool"
        },
        {
          "indexed": false,
          "internalType": "uint32",
          "name": "newNumspaceships",
          "type": "uint32"
        }
      ],
      "name": "FleetArrived",
      "type": "event"
    },
    {
      "anonymous": false,
      "inputs": [
        {
          "indexed": true,
          "internalType": "address",
          "name": "fleetOwner",
          "type": "address"
        },
        {
          "indexed": true,
          "internalType": "uint256",
          "name": "from",
          "type": "uint256"
        },
        {
          "indexed": false,
          "internalType": "uint256",
          "name": "fleet",
          "type": "uint256"
        },
        {
          "indexed": false,
          "internalType": "uint32",
          "name": "quantity",
          "type": "uint32"
        },
        {
          "indexed": false,
          "internalType": "uint32",
          "name": "newNumSpaceships",
          "type": "uint32"
        }
      ],
      "name": "FleetSent",
      "type": "event"
    },
    {
      "anonymous": false,
      "inputs": [
        {
          "indexed": true,
          "internalType": "address",
          "name": "owner",
          "type": "address"
        },
        {
          "indexed": true,
          "internalType": "uint256",
          "name": "location",
          "type": "uint256"
        }
      ],
      "name": "PlanetExit",
      "type": "event"
    },
    {
      "anonymous": false,
      "inputs": [
        {
          "indexed": true,
          "internalType": "address",
          "name": "acquirer",
          "type": "address"
        },
        {
          "indexed": true,
          "internalType": "uint256",
          "name": "location",
          "type": "uint256"
        },
        {
          "indexed": false,
          "internalType": "uint32",
          "name": "numSpaceships",
          "type": "uint32"
        },
        {
          "indexed": false,
          "internalType": "uint256",
          "name": "stake",
          "type": "uint256"
        }
      ],
      "name": "PlanetStake",
      "type": "event"
    },
    {
      "anonymous": false,
      "inputs": [
        {
          "indexed": true,
          "internalType": "uint256",
          "name": "location",
          "type": "uint256"
        },
        {
          "indexed": false,
          "internalType": "uint256",
          "name": "rewardId",
          "type": "uint256"
        }
      ],
      "name": "RewardSetup",
      "type": "event"
    },
    {
      "anonymous": false,
      "inputs": [
        {
          "indexed": true,
          "internalType": "address",
          "name": "owner",
          "type": "address"
        },
        {
          "indexed": true,
          "internalType": "uint256",
          "name": "location",
          "type": "uint256"
        },
        {
          "indexed": true,
          "internalType": "uint256",
          "name": "rewardId",
          "type": "uint256"
        }
      ],
      "name": "RewardToWithdraw",
      "type": "event"
    },
    {
      "anonymous": false,
      "inputs": [
        {
          "indexed": true,
          "internalType": "address",
          "name": "owner",
          "type": "address"
        },
        {
          "indexed": false,
          "internalType": "uint256",
          "name": "newStake",
          "type": "uint256"
        }
      ],
      "name": "StakeToWithdraw",
      "type": "event"
    },
    {
      "inputs": [
        {
          "internalType": "uint256",
          "name": "location",
          "type": "uint256"
        },
        {
          "internalType": "uint256",
          "name": "amount",
          "type": "uint256"
        }
      ],
      "name": "acquireViaTransferFrom",
      "outputs": [],
      "stateMutability": "nonpayable",
      "type": "function"
    },
    {
      "inputs": [
        {
          "internalType": "uint256",
          "name": "location",
          "type": "uint256"
        },
        {
          "internalType": "address",
          "name": "sponsor",
          "type": "address"
        }
      ],
      "name": "addReward",
      "outputs": [],
      "stateMutability": "nonpayable",
      "type": "function"
    },
    {
      "inputs": [
        {
          "internalType": "address",
          "name": "owner",
          "type": "address"
        }
      ],
      "name": "balanceToWithdraw",
      "outputs": [
        {
          "internalType": "uint256",
          "name": "",
          "type": "uint256"
        }
      ],
      "stateMutability": "view",
      "type": "function"
    },
    {
      "inputs": [
        {
          "internalType": "address",
          "name": "owner",
          "type": "address"
        },
        {
          "internalType": "uint256",
          "name": "location",
          "type": "uint256"
        }
      ],
      "name": "exitFor",
      "outputs": [],
      "stateMutability": "nonpayable",
      "type": "function"
    },
    {
      "inputs": [
        {
          "internalType": "address",
          "name": "owner",
          "type": "address"
        },
        {
          "internalType": "uint256[]",
          "name": "locations",
          "type": "uint256[]"
        }
      ],
      "name": "fetchAndWithdrawFor",
      "outputs": [],
      "stateMutability": "nonpayable",
      "type": "function"
    },
    {
      "inputs": [],
      "name": "getDiscovered",
      "outputs": [
        {
          "components": [
            {
              "internalType": "uint32",
              "name": "minX",
              "type": "uint32"
            },
            {
              "internalType": "uint32",
              "name": "maxX",
              "type": "uint32"
            },
            {
              "internalType": "uint32",
              "name": "minY",
              "type": "uint32"
            },
            {
              "internalType": "uint32",
              "name": "maxY",
              "type": "uint32"
            }
          ],
          "internalType": "struct OuterSpace.Discovered",
          "name": "",
          "type": "tuple"
        }
      ],
      "stateMutability": "view",
      "type": "function"
    },
    {
      "inputs": [
        {
          "internalType": "uint256",
          "name": "fleetId",
          "type": "uint256"
        },
        {
          "internalType": "uint256",
          "name": "from",
          "type": "uint256"
        }
      ],
      "name": "getFleet",
      "outputs": [
        {
          "internalType": "address",
          "name": "owner",
          "type": "address"
        },
        {
          "internalType": "uint32",
          "name": "launchTime",
          "type": "uint32"
        },
        {
          "internalType": "uint32",
          "name": "quantity",
          "type": "uint32"
        },
        {
          "internalType": "uint64",
          "name": "flyingAtLaunch",
          "type": "uint64"
        },
        {
          "internalType": "uint64",
          "name": "destroyedAtLaunch",
          "type": "uint64"
        }
      ],
      "stateMutability": "view",
      "type": "function"
    },
    {
      "inputs": [],
      "name": "getGeneisHash",
      "outputs": [
        {
          "internalType": "bytes32",
          "name": "",
          "type": "bytes32"
        }
      ],
      "stateMutability": "view",
      "type": "function"
    },
    {
      "inputs": [
        {
          "internalType": "uint256",
          "name": "location",
          "type": "uint256"
        }
      ],
      "name": "getPlanet",
      "outputs": [
        {
          "components": [
            {
              "internalType": "address",
              "name": "owner",
              "type": "address"
            },
            {
              "internalType": "uint32",
              "name": "exitTime",
              "type": "uint32"
            },
            {
              "internalType": "uint32",
              "name": "numSpaceships",
              "type": "uint32"
            },
            {
              "internalType": "uint32",
              "name": "lastUpdated",
              "type": "uint32"
            },
            {
              "internalType": "bool",
              "name": "active",
              "type": "bool"
            },
            {
              "internalType": "uint256",
              "name": "reward",
              "type": "uint256"
            }
          ],
          "internalType": "struct OuterSpace.ExternalPlanet",
          "name": "state",
          "type": "tuple"
        },
        {
          "components": [
            {
              "internalType": "int8",
              "name": "subX",
              "type": "int8"
            },
            {
              "internalType": "int8",
              "name": "subY",
              "type": "int8"
            },
            {
              "internalType": "uint16",
              "name": "stake",
              "type": "uint16"
            },
            {
              "internalType": "uint16",
              "name": "production",
              "type": "uint16"
            },
            {
              "internalType": "uint16",
              "name": "attack",
              "type": "uint16"
            },
            {
              "internalType": "uint16",
              "name": "defense",
              "type": "uint16"
            },
            {
              "internalType": "uint16",
              "name": "speed",
              "type": "uint16"
            },
            {
              "internalType": "uint16",
              "name": "natives",
              "type": "uint16"
            }
          ],
          "internalType": "struct OuterSpace.PlanetStats",
          "name": "stats",
          "type": "tuple"
        }
      ],
      "stateMutability": "view",
      "type": "function"
    },
    {
      "inputs": [
        {
          "internalType": "uint256[]",
          "name": "locations",
          "type": "uint256[]"
        }
      ],
      "name": "getPlanetStates",
      "outputs": [
        {
          "components": [
            {
              "internalType": "address",
              "name": "owner",
              "type": "address"
            },
            {
              "internalType": "uint32",
              "name": "exitTime",
              "type": "uint32"
            },
            {
              "internalType": "uint32",
              "name": "numSpaceships",
              "type": "uint32"
            },
            {
              "internalType": "uint32",
              "name": "lastUpdated",
              "type": "uint32"
            },
            {
              "internalType": "bool",
              "name": "active",
              "type": "bool"
            },
            {
              "internalType": "uint256",
              "name": "reward",
              "type": "uint256"
            }
          ],
          "internalType": "struct OuterSpace.ExternalPlanet[]",
          "name": "planetStates",
          "type": "tuple[]"
        },
        {
          "components": [
            {
              "internalType": "uint32",
              "name": "minX",
              "type": "uint32"
            },
            {
              "internalType": "uint32",
              "name": "maxX",
              "type": "uint32"
            },
            {
              "internalType": "uint32",
              "name": "minY",
              "type": "uint32"
            },
            {
              "internalType": "uint32",
              "name": "maxY",
              "type": "uint32"
            }
          ],
          "internalType": "struct OuterSpace.Discovered",
          "name": "discovered",
          "type": "tuple"
        }
      ],
      "stateMutability": "view",
      "type": "function"
    },
    {
      "inputs": [
        {
          "internalType": "address",
          "name": "",
          "type": "address"
        },
        {
          "internalType": "address",
          "name": "forAddress",
          "type": "address"
        },
        {
          "internalType": "uint256",
          "name": "amount",
          "type": "uint256"
        },
        {
          "internalType": "bytes",
          "name": "data",
          "type": "bytes"
        }
      ],
      "name": "onTokenPaidFor",
      "outputs": [
        {
          "internalType": "bool",
          "name": "",
          "type": "bool"
        }
      ],
      "stateMutability": "nonpayable",
      "type": "function"
    },
    {
      "inputs": [
        {
          "internalType": "address",
          "name": "",
          "type": "address"
        },
        {
          "internalType": "uint256",
          "name": "amount",
          "type": "uint256"
        },
        {
          "internalType": "bytes",
          "name": "data",
          "type": "bytes"
        }
      ],
      "name": "onTokenTransfer",
      "outputs": [
        {
          "internalType": "bool",
          "name": "",
          "type": "bool"
        }
      ],
      "stateMutability": "nonpayable",
      "type": "function"
    },
    {
      "inputs": [
        {
          "internalType": "contract IERC20",
          "name": "",
          "type": "address"
        },
        {
          "internalType": "bytes32",
          "name": "",
          "type": "bytes32"
        },
        {
          "internalType": "uint32",
          "name": "",
          "type": "uint32"
        },
        {
          "internalType": "uint32",
          "name": "",
          "type": "uint32"
        },
        {
          "internalType": "uint32",
          "name": "",
          "type": "uint32"
        },
        {
          "internalType": "uint32",
          "name": "",
          "type": "uint32"
        },
        {
          "internalType": "uint32",
          "name": "",
          "type": "uint32"
        }
      ],
      "name": "postUpgrade",
      "outputs": [],
      "stateMutability": "nonpayable",
      "type": "function"
    },
    {
      "inputs": [
        {
          "internalType": "uint256",
          "name": "fleetId",
          "type": "uint256"
        },
        {
          "internalType": "uint256",
          "name": "from",
          "type": "uint256"
        },
        {
          "internalType": "uint256",
          "name": "to",
          "type": "uint256"
        },
        {
          "internalType": "uint256",
          "name": "distance",
          "type": "uint256"
        },
        {
          "internalType": "bytes32",
          "name": "secret",
          "type": "bytes32"
        }
      ],
      "name": "resolveFleet",
      "outputs": [],
      "stateMutability": "nonpayable",
      "type": "function"
    },
    {
      "inputs": [
        {
          "internalType": "uint256",
          "name": "from",
          "type": "uint256"
        },
        {
          "internalType": "uint32",
          "name": "quantity",
          "type": "uint32"
        },
        {
          "internalType": "bytes32",
          "name": "toHash",
          "type": "bytes32"
        }
      ],
      "name": "send",
      "outputs": [],
      "stateMutability": "nonpayable",
      "type": "function"
    },
    {
      "inputs": [
        {
          "internalType": "address",
          "name": "owner",
          "type": "address"
        },
        {
          "internalType": "uint256",
          "name": "from",
          "type": "uint256"
        },
        {
          "internalType": "uint32",
          "name": "quantity",
          "type": "uint32"
        },
        {
          "internalType": "bytes32",
          "name": "toHash",
          "type": "bytes32"
        }
      ],
      "name": "sendFor",
      "outputs": [],
      "stateMutability": "nonpayable",
      "type": "function"
    },
    {
      "inputs": [
        {
          "internalType": "address",
          "name": "operator",
          "type": "address"
        },
        {
          "internalType": "bool",
          "name": "approved",
          "type": "bool"
        }
      ],
      "name": "setApprovalForAll",
      "outputs": [],
      "stateMutability": "nonpayable",
      "type": "function"
    },
    {
      "inputs": [
        {
          "internalType": "address",
          "name": "owner",
          "type": "address"
        }
      ],
      "name": "withdrawFor",
      "outputs": [],
      "stateMutability": "nonpayable",
      "type": "function"
    }
  ],
  "transactionHash": "0xf910eb2d5b88d2963f16989fc7366567b3cb2ce8b67065074fc9c358169c9add",
  "args": [
    "0x1F26De42E1836a8bc489D850445B21B4356a0354",
    "0xe0c3fa9ae97fc9b60baae605896b5e3e7cecb6baaaa4708162d1ec51e8d65a68",
    7200,
    7200,
    259200,
    100000,
    1
  ],
  "linkedData": {
    "genesisHash": "0xe0c3fa9ae97fc9b60baae605896b5e3e7cecb6baaaa4708162d1ec51e8d65a68",
    "resolveWindow": 7200,
    "timePerDistance": 7200,
    "exitDuration": 259200,
    "acquireNumSpaceships": 100000,
    "productionSpeedUp": 1
  },
  "solcInputHash": "6b16ab867f5fed9caec72b07f08ace84",
  "bytecode": "0x6101606040523480156200001257600080fd5b50604051620063413803806200634183398181016040528101906200003891906200039e565b600060048563ffffffff16816200004b57fe5b0490508463ffffffff166004820263ffffffff1614620000a2576040517f08c379a000000000000000000000000000000000000000000000000000000000815260040162000099906200048d565b60405180910390fd5b8773ffffffffffffffffffffffffffffffffffffffff1660a08173ffffffffffffffffffffffffffffffffffffffff1660601b8152505086608081815250508563ffffffff1660c081815250508063ffffffff1660e081815250508363ffffffff1661010081815250508263ffffffff166101208163ffffffff1660e01b815250508163ffffffff166101408163ffffffff1660e01b8152505062000153888888888888886200016160201b60201c565b505050505050505062000570565b6000620001736200033060201b60201c565b9050600073ffffffffffffffffffffffffffffffffffffffff168173ffffffffffffffffffffffffffffffffffffffff161415620001e85773ffffffffffffffffffffffffffffffffffffffff7fb53127684a568b3173ae13b9f8a6016e243e63b6e8ee1178d6a717850b5d61035562000222565b8073ffffffffffffffffffffffffffffffffffffffff163373ffffffffffffffffffffffffffffffffffffffff16146200022157600080fd5b5b6000600860000160009054906101000a900463ffffffff1663ffffffff16141562000326576040518060800160405280601063ffffffff168152602001601063ffffffff168152602001601063ffffffff168152602001601063ffffffff16815250600860008201518160000160006101000a81548163ffffffff021916908363ffffffff16021790555060208201518160000160046101000a81548163ffffffff021916908363ffffffff16021790555060408201518160000160086101000a81548163ffffffff021916908363ffffffff160217905550606082015181600001600c6101000a81548163ffffffff021916908363ffffffff1602179055509050505b5050505050505050565b60007fb53127684a568b3173ae13b9f8a6016e243e63b6e8ee1178d6a717850b5d610354905090565b6000815190506200036a8162000522565b92915050565b60008151905062000381816200053c565b92915050565b600081519050620003988162000556565b92915050565b600080600080600080600060e0888a031215620003ba57600080fd5b6000620003ca8a828b0162000370565b9750506020620003dd8a828b0162000359565b9650506040620003f08a828b0162000387565b9550506060620004038a828b0162000387565b9450506080620004168a828b0162000387565b93505060a0620004298a828b0162000387565b92505060c06200043c8a828b0162000387565b91505092959891949750929550565b60006200045a601d83620004af565b91507f54494d455f5045525f444953545f4e4f545f444956495349424c455f340000006000830152602082019050919050565b60006020820190508181036000830152620004a8816200044b565b9050919050565b600082825260208201905092915050565b6000620004cd82620004f2565b9050919050565b6000819050919050565b6000620004eb82620004c0565b9050919050565b600073ffffffffffffffffffffffffffffffffffffffff82169050919050565b600063ffffffff82169050919050565b6200052d81620004d4565b81146200053957600080fd5b50565b6200054781620004de565b81146200055357600080fd5b50565b620005618162000512565b81146200056d57600080fd5b50565b60805160a05160601c60c05160e051610100516101205160e01c6101405160e01c615d4c620005f56000398061232452508061289d5280612936528061297c52806129eb5280612a15525080611ba65250806135375250806135b0525080610a675280610b465280610d5e5280611d1d525080610b1e528061226c5250615d4c6000f3fe608060405234801561001057600080fd5b50600436106101165760003560e01c8063a22cb465116100a2578063b92ce46711610071578063b92ce467146102db578063c5aaa0ae146102f7578063c956083814610315578063e2e9b07914610345578063ee5433931461036157610116565b8063a22cb46514610242578063a4c0ed361461025e578063aba789f51461028e578063afc82370146102bf57610116565b8063653d4983116100e9578063653d4983146101a05780637ba423fb146101bc5780637cef64d8146101d85780639b6be065146101f65780639eca672c1461022657610116565b8063112e68511461011b57806334efcb8e1461013757806356bf642d1461016857806361f018c014610184575b600080fd5b61013560048036038101906101309190614c94565b610395565b005b610151600480360381019061014c9190614b7c565b6103ad565b60405161015f929190615a4e565b60405180910390f35b610182600480360381019061017d9190614ba5565b6104b9565b005b61019e60048036038101906101999190614a0d565b610768565b005b6101ba60048036038101906101b59190614ade565b61088b565b005b6101d660048036038101906101d19190614be1565b610a4e565b005b6101e0610b1a565b6040516101ed9190615738565b60405180910390f35b610210600480360381019061020b9190614851565b610b42565b60405161021d919061571d565b60405180910390f35b610240600480360381019061023b91906147ec565b610bfe565b005b61025c60048036038101906102579190614929565b610c50565b005b610278600480360381019061027391906149a1565b610d5a565b604051610285919061571d565b60405180910390f35b6102a860048036038101906102a39190614a70565b610e19565b6040516102b69291906156ed565b60405180910390f35b6102d960048036038101906102d49190614965565b611069565b005b6102f560048036038101906102f09190614c1d565b6111d1565b005b6102ff6111e5565b60405161030c9190615a33565b60405180910390f35b61032f600480360381019061032a91906147ec565b611297565b60405161033c9190615a78565b60405180910390f35b61035f600480360381019061035a91906148d1565b6112e0565b005b61037b60048036038101906103769190614be1565b61144d565b60405161038c95949392919061569a565b60405180910390f35b6103a86103a0611587565b84848461158f565b505050565b6103b5614460565b6103bd6144c0565b60006103c884611a10565b90506000806103ea8360000160189054906101000a900463ffffffff16611a2b565b915091506040518060c001604052808460000160009054906101000a900473ffffffffffffffffffffffffffffffffffffffff1673ffffffffffffffffffffffffffffffffffffffff1681526020018460000160149054906101000a900463ffffffff1663ffffffff1681526020018263ffffffff16815260200184600001601c9054906101000a900463ffffffff1663ffffffff1681526020018315158152602001600460008981526020019081526020016000205481525094506104af86611a6a565b9350505050915091565b6104c1611b69565b73ffffffffffffffffffffffffffffffffffffffff163373ffffffffffffffffffffffffffffffffffffffff1614610561576040517f08c379a000000000000000000000000000000000000000000000000000000000815260040180806020018281038252600e8152602001807f4e4f545f415554484f52495a454400000000000000000000000000000000000081525060200191505060405180910390fd5b610569614521565b6000808481526020019081526020016000206040518060800160405290816000820160009054906101000a900473ffffffffffffffffffffffffffffffffffffffff1673ffffffffffffffffffffffffffffffffffffffff1673ffffffffffffffffffffffffffffffffffffffff1681526020016000820160149054906101000a900463ffffffff1663ffffffff1663ffffffff1681526020016000820160189054906101000a900463ffffffff1663ffffffff1663ffffffff16815260200160008201601c9054906101000a900463ffffffff1663ffffffff1663ffffffff1681525050905061065d8160200151611b92565b1561068657610685838260000151600080878152602001908152602001600020600080611bd7565b5b600060046000858152602001908152602001600020549050600081141561072a57600360008473ffffffffffffffffffffffffffffffffffffffff1673ffffffffffffffffffffffffffffffffffffffff1681526020019081526020016000206000815460010191905081905590508060608473ffffffffffffffffffffffffffffffffffffffff16901b0160046000868152602001908152602001600020819055505b837f4c808d5eeb14d6e887046c8635adb3d27ad4977c0fda2a3ab15a0c95604e8d788260405161075a9190615a78565b60405180910390a250505050565b6000610772611587565b90508473ffffffffffffffffffffffffffffffffffffffff168173ffffffffffffffffffffffffffffffffffffffff161461087157600660008673ffffffffffffffffffffffffffffffffffffffff1673ffffffffffffffffffffffffffffffffffffffff16815260200190815260200160002060008273ffffffffffffffffffffffffffffffffffffffff1673ffffffffffffffffffffffffffffffffffffffff16815260200190815260200160002060009054906101000a900460ff16610870576040517f08c379a0000000000000000000000000000000000000000000000000000000008152600401610867906159d3565b60405180910390fd5b5b61088461087c611587565b85858561158f565b5050505050565b6000610895611b69565b9050600073ffffffffffffffffffffffffffffffffffffffff168173ffffffffffffffffffffffffffffffffffffffff1614156109085773ffffffffffffffffffffffffffffffffffffffff7fb53127684a568b3173ae13b9f8a6016e243e63b6e8ee1178d6a717850b5d610355610941565b8073ffffffffffffffffffffffffffffffffffffffff163373ffffffffffffffffffffffffffffffffffffffff161461094057600080fd5b5b6000600860000160009054906101000a900463ffffffff1663ffffffff161415610a44576040518060800160405280601063ffffffff168152602001601063ffffffff168152602001601063ffffffff168152602001601063ffffffff16815250600860008201518160000160006101000a81548163ffffffff021916908363ffffffff16021790555060208201518160000160046101000a81548163ffffffff021916908363ffffffff16021790555060408201518160000160086101000a81548163ffffffff021916908363ffffffff160217905550606082015181600001600c6101000a81548163ffffffff021916908363ffffffff1602179055509050505b5050505050505050565b6000610a58611587565b9050610a65818385611c3b565b7f000000000000000000000000000000000000000000000000000000000000000073ffffffffffffffffffffffffffffffffffffffff166323b872dd8230856040518463ffffffff1660e01b8152600401610ac29392919061563a565b602060405180830381600087803b158015610adc57600080fd5b505af1158015610af0573d6000803e3d6000fd5b505050506040513d601f19601f82011682018060405250810190610b149190614ab5565b50505050565b60007f0000000000000000000000000000000000000000000000000000000000000000905090565b60007f000000000000000000000000000000000000000000000000000000000000000073ffffffffffffffffffffffffffffffffffffffff163373ffffffffffffffffffffffffffffffffffffffff1614610bd2576040517f08c379a0000000000000000000000000000000000000000000000000000000008152600401610bc9906157b3565b60405180910390fd5b60008383810190610be39190614b7c565b9050610bf0868683611c3b565b600191505095945050505050565b6000600260008373ffffffffffffffffffffffffffffffffffffffff1673ffffffffffffffffffffffffffffffffffffffff168152602001908152602001600020549050610c4c8282611d10565b5050565b6000610c5a611587565b905081600660008373ffffffffffffffffffffffffffffffffffffffff1673ffffffffffffffffffffffffffffffffffffffff16815260200190815260200160002060008573ffffffffffffffffffffffffffffffffffffffff1673ffffffffffffffffffffffffffffffffffffffff16815260200190815260200160002060006101000a81548160ff0219169083151502179055508273ffffffffffffffffffffffffffffffffffffffff168173ffffffffffffffffffffffffffffffffffffffff167f17307eab39ab6107e8899845ad3d59bd9653f200f220920489ca2b5937696c3184604051610d4d919061571d565b60405180910390a3505050565b60007f000000000000000000000000000000000000000000000000000000000000000073ffffffffffffffffffffffffffffffffffffffff163373ffffffffffffffffffffffffffffffffffffffff1614610dea576040517f08c379a0000000000000000000000000000000000000000000000000000000008152600401610de1906157b3565b60405180910390fd5b6000808484810190610dfc9190614815565b91509150610e0b828783611c3b565b600192505050949350505050565b6060610e23614571565b8383905067ffffffffffffffff81118015610e3d57600080fd5b50604051908082528060200260200182016040528015610e7757816020015b610e64614460565b815260200190600190039081610e5c5790505b50915060005b84849050811015610fba576000610ea5868684818110610e9957fe5b90506020020135611a10565b9050600080610ec78360000160189054906101000a900463ffffffff16611a2b565b915091506040518060c001604052808460000160009054906101000a900473ffffffffffffffffffffffffffffffffffffffff1673ffffffffffffffffffffffffffffffffffffffff1681526020018460000160149054906101000a900463ffffffff1663ffffffff1681526020018263ffffffff16815260200184600001601c9054906101000a900463ffffffff1663ffffffff1681526020018315158152602001600460008b8b89818110610f7a57fe5b90506020020135815260200190815260200160002054815250868581518110610f9f57fe5b60200260200101819052505050508080600101915050610e7d565b5060086040518060800160405290816000820160009054906101000a900463ffffffff1663ffffffff1663ffffffff1681526020016000820160049054906101000a900463ffffffff1663ffffffff1663ffffffff1681526020016000820160089054906101000a900463ffffffff1663ffffffff1663ffffffff16815260200160008201600c9054906101000a900463ffffffff1663ffffffff1663ffffffff168152505090509250929050565b600061107482611a10565b90508060000160009054906101000a900473ffffffffffffffffffffffffffffffffffffffff1673ffffffffffffffffffffffffffffffffffffffff168373ffffffffffffffffffffffffffffffffffffffff1614611108576040517f08c379a00000000000000000000000000000000000000000000000000000000081526004016110ff90615973565b60405180910390fd5b60008160000160149054906101000a900463ffffffff1663ffffffff1614611165576040517f08c379a000000000000000000000000000000000000000000000000000000000815260040161115c90615773565b60405180910390fd5b428160000160146101000a81548163ffffffff021916908363ffffffff160217905550818373ffffffffffffffffffffffffffffffffffffffff167fb9182e4e152947f1e6691fa0ee6f68f21f607fed825945c270e69995acad805f60405160405180910390a3505050565b6111de8585858585611e0b565b5050505050565b6111ed614571565b60086040518060800160405290816000820160009054906101000a900463ffffffff1663ffffffff1663ffffffff1681526020016000820160049054906101000a900463ffffffff1663ffffffff1663ffffffff1681526020016000820160089054906101000a900463ffffffff1663ffffffff1663ffffffff16815260200160008201600c9054906101000a900463ffffffff1663ffffffff1663ffffffff1681525050905090565b6000600260008373ffffffffffffffffffffffffffffffffffffffff1673ffffffffffffffffffffffffffffffffffffffff168152602001908152602001600020549050919050565b6000805b838390508110156113f557600061130c85858481811061130057fe5b90506020020135611a10565b905061132b8160000160149054906101000a900463ffffffff16611b92565b156113e7578060000160009054906101000a900473ffffffffffffffffffffffffffffffffffffffff1673ffffffffffffffffffffffffffffffffffffffff168673ffffffffffffffffffffffffffffffffffffffff16146113c2576040517f08c379a00000000000000000000000000000000000000000000000000000000081526004016113b990615973565b60405180910390fd5b6113e28585848181106113d157fe5b90506020020135878360008061204c565b830192505b5080806001019150506112e4565b50600081600260008773ffffffffffffffffffffffffffffffffffffffff1673ffffffffffffffffffffffffffffffffffffffff168152602001908152602001600020540190506114468582611d10565b5050505050565b60008060008060006001600088815260200190815260200160002060000160149054906101000a900463ffffffff1693506001600088815260200190815260200160002060000160189054906101000a900463ffffffff1692506001600088815260200190815260200160002060000160009054906101000a900473ffffffffffffffffffffffffffffffffffffffff16945060006002610708816114ee57fe5b048563ffffffff16816114fd57fe5b04905060076000888152602001908152602001600020600082815260200190815260200160002060000160089054906101000a900467ffffffffffffffff16915060076000888152602001908152602001600020600082815260200190815260200160002060000160009054906101000a900467ffffffffffffffff169250509295509295909350565b600033905090565b600061159a84611a10565b905060008160000160149054906101000a900463ffffffff1663ffffffff16146115f9576040517f08c379a00000000000000000000000000000000000000000000000000000000081526004016115f0906157d3565b60405180910390fd5b8060000160009054906101000a900473ffffffffffffffffffffffffffffffffffffffff1673ffffffffffffffffffffffffffffffffffffffff168573ffffffffffffffffffffffffffffffffffffffff161461168b576040517f08c379a000000000000000000000000000000000000000000000000000000000815260040161168290615973565b60405180910390fd5b600061169685612268565b905060006116a3826122ba565b90506000806116e18560000160189054906101000a900463ffffffff1686600001601c9054906101000a900463ffffffff1663ffffffff16856122fc565b915091508663ffffffff168163ffffffff161015611734576040517f08c379a000000000000000000000000000000000000000000000000000000000815260040161172b90615793565b60405180910390fd5b600060026107088161174257fe5b04428161174b57fe5b0490506000600760008b8152602001908152602001600020600083815260200190815260200160002060000160009054906101000a900467ffffffffffffffff1690508863ffffffff16810190508863ffffffff168167ffffffffffffffff1610156117ec576040517f08c379a00000000000000000000000000000000000000000000000000000000081526004016117e390615953565b60405180910390fd5b80600760008c8152602001908152602001600020600084815260200190815260200160002060000160006101000a81548167ffffffffffffffff021916908367ffffffffffffffff160217905550600042905060008a850390506118508682612393565b8960000160186101000a81548163ffffffff021916908363ffffffff1602179055508189600001601c6101000a81548163ffffffff021916908363ffffffff16021790555060008a8d6040516020016118aa92919061560e565b6040516020818303038152906040528051906020012060001c905060405180606001604052808f73ffffffffffffffffffffffffffffffffffffffff1681526020018463ffffffff1681526020018d63ffffffff168152506001600083815260200190815260200160002060008201518160000160006101000a81548173ffffffffffffffffffffffffffffffffffffffff021916908373ffffffffffffffffffffffffffffffffffffffff16021790555060208201518160000160146101000a81548163ffffffff021916908363ffffffff16021790555060408201518160000160186101000a81548163ffffffff021916908363ffffffff1602179055509050508c8e73ffffffffffffffffffffffffffffffffffffffff167fd7da2af85ac97f64039a5304a609fe0eb346f04985c4fd55e0d9b10b8b886ee7838f866040516119f893929190615a93565b60405180910390a35050505050505050505050505050565b60008060008381526020019081526020016000209050919050565b600080638000000063ffffffff166380000000841663ffffffff16149150638000000063ffffffff168363ffffffff1681611a6257fe5b069050915091565b611a726144c0565b6000611a7d83612268565b9050611a88816123b1565b611ac7576040517f08c379a0000000000000000000000000000000000000000000000000000000008152600401611abe90615813565b60405180910390fd5b600080611ad3836123d7565b915091506040518061010001604052808360000b81526020018260000b8152602001611afe85612417565b61ffff168152602001611b10856122ba565b61ffff168152602001611b22856124f4565b61ffff168152602001611b348561251c565b61ffff168152602001611b4685612544565b61ffff168152602001611b588561256c565b61ffff168152509350505050919050565b60007fb53127684a568b3173ae13b9f8a6016e243e63b6e8ee1178d6a717850b5d610354905090565b6000808263ffffffff16118015611bd057507f00000000000000000000000000000000000000000000000000000000000000008263ffffffff160142115b9050919050565b6000611be6868686868661204c565b9050611c338582600260008973ffffffffffffffffffffffffffffffffffffffff1673ffffffffffffffffffffffffffffffffffffffff1681526020019081526020016000205401612594565b505050505050565b6000611c4682612268565b9050670de0b6b3a7640000611c5a82612417565b61ffff16028314611ca0576040517f08c379a0000000000000000000000000000000000000000000000000000000008152600401611c97906159f3565b60405180910390fd5b6000611cad85848461262a565b9050611cb883612a9a565b828573ffffffffffffffffffffffffffffffffffffffff167f5a2bd9d3c37a402271eaa8b4cd01a1a65831589c630b4b8ab1967eca76c0412c8387604051611d01929190615b39565b60405180910390a35050505050565b611d1b826000612594565b7f000000000000000000000000000000000000000000000000000000000000000073ffffffffffffffffffffffffffffffffffffffff1663a9059cbb83836040518363ffffffff1660e01b8152600401611d76929190615671565b602060405180830381600087803b158015611d9057600080fd5b505af1158015611da4573d6000803e3d6000fd5b505050506040513d601f19601f82011682018060405250810190611dc89190614ab5565b611e07576040517f08c379a0000000000000000000000000000000000000000000000000000000008152600401611dfe90615833565b60405180910390fd5b5050565b611e136145b1565b600160008781526020019081526020016000206040518060600160405290816000820160009054906101000a900473ffffffffffffffffffffffffffffffffffffffff1673ffffffffffffffffffffffffffffffffffffffff1673ffffffffffffffffffffffffffffffffffffffff1681526020016000820160149054906101000a900463ffffffff1663ffffffff1663ffffffff1681526020016000820160189054906101000a900463ffffffff1663ffffffff1663ffffffff16815250509050600080611ee6838989898989612eba565b91509150611ef2614521565b611efb87611a10565b6040518060800160405290816000820160009054906101000a900473ffffffffffffffffffffffffffffffffffffffff1673ffffffffffffffffffffffffffffffffffffffff1673ffffffffffffffffffffffffffffffffffffffff1681526020016000820160149054906101000a900463ffffffff1663ffffffff1663ffffffff1681526020016000820160189054906101000a900463ffffffff1663ffffffff1663ffffffff16815260200160008201601c9054906101000a900463ffffffff1663ffffffff1663ffffffff1681525050905061200b84600001518a611fe68460200151611b92565b611ff4578360000151611ff7565b60005b8a612005898e888f8c612fe1565b87613059565b6000600160008b815260200190815260200160002060000160186101000a81548163ffffffff021916908363ffffffff160217905550505050505050505050565b60008061205887612268565b90506000670de0b6b3a764000061206e83612417565b61ffff16029050878773ffffffffffffffffffffffffffffffffffffffff167f1c363b29828a892b7cddafe9583ef52e0d5aca0ea7011bda6ccf039e1781f738836040516120bc9190615a78565b60405180910390a36000600460008a8152602001908152602001600020549050600081146121ac576001600560008a73ffffffffffffffffffffffffffffffffffffffff1673ffffffffffffffffffffffffffffffffffffffff168152602001908152602001600020600083815260200190815260200160002060006101000a81548160ff0219169083151502179055506000600460008b81526020019081526020016000208190555080898973ffffffffffffffffffffffffffffffffffffffff167f74f110a1e0cd4892234c7ba49df9f8a354cd8d29b272f7557c9b8c3c38a6533660405160405180910390a45b60008760000160146101000a81548163ffffffff021916908363ffffffff160217905550858760000160006101000a81548173ffffffffffffffffffffffffffffffffffffffff021916908373ffffffffffffffffffffffffffffffffffffffff1602179055504287600001601c6101000a81548163ffffffff021916908363ffffffff160217905550848760000160186101000a81548163ffffffff021916908363ffffffff16021790555081935050505095945050505050565b60007f00000000000000000000000000000000000000000000000000000000000000008260405160200161229d92919061560e565b604051602081830303815290604052805190602001209050919050565b60006122f5600c7f0708083409600a8c0bb80ce40e100e100e100e101068151819c81e7823282ee060001b846130e79092919063ffffffff16565b9050919050565b60008061230885611a2b565b8092508193505050811561238b57600084420390506000610e107f000000000000000000000000000000000000000000000000000000000000000063ffffffff168661ffff168402028161235857fe5b048363ffffffff16019050638000000063ffffffff16811061238557600163800000000363ffffffff1690505b80925050505b935093915050565b600081836123a25760006123a8565b63800000005b01905092915050565b600060016123cc60346010856131409092919063ffffffff16565b60ff16149050919050565b6000806123f160006003856131409092919063ffffffff16565b600103915061240d60026003856131409092919063ffffffff16565b6001039050915091565b60008061242e600c8461316190919063ffffffff16565b9050600061246860047c010001000200020003000300040004000500050006000600070007000860001b866130e79092919063ffffffff16565b90506000818360ff1601905060048161ffff16101561248a57600090506124a8565b60138161ffff1611156124a057600f90506124a7565b6004810390505b5b7e0400050005000a000a000f000f00140014001e001e0028002800500050006460001b6001600283020161ffff16602081106124e057fe5b1a60f81b60f81c60ff169350505050919050565b600061019061250d60148461316190919063ffffffff16565b60ff1602610fa0019050919050565b6000610190612535601c8461316190919063ffffffff16565b60ff1602610fa0019050919050565b600061014d61255d60248461316190919063ffffffff16565b60ff160261138d019050919050565b6000610bb8612585602c8461316190919063ffffffff16565b60ff1602613a98019050919050565b80600260008473ffffffffffffffffffffffffffffffffffffffff1673ffffffffffffffffffffffffffffffffffffffff168152602001908152602001600020819055508173ffffffffffffffffffffffffffffffffffffffff167f4d135695228631e73b5a31e6fc8af4e5825cde63774c3c48695b4af814d7b0198260405161261e9190615a78565b60405180910390a25050565b60008061263684611a10565b9050612640614521565b816040518060800160405290816000820160009054906101000a900473ffffffffffffffffffffffffffffffffffffffff1673ffffffffffffffffffffffffffffffffffffffff1673ffffffffffffffffffffffffffffffffffffffff1681526020016000820160149054906101000a900463ffffffff1663ffffffff1663ffffffff1681526020016000820160189054906101000a900463ffffffff1663ffffffff1663ffffffff16815260200160008201601c9054906101000a900463ffffffff1663ffffffff1663ffffffff1681525050905060008061273a8360400151846060015163ffffffff16612735896122ba565b6122fc565b915091506000806000856060015163ffffffff1614156127685761275d8861256c565b61ffff169050612895565b6000856020015163ffffffff16146127cf576127878560200151611b92565b6127c6576040517f08c379a00000000000000000000000000000000000000000000000000000000081526004016127bd906158b3565b60405180910390fd5b60019150612894565b8315612810576040517f08c379a000000000000000000000000000000000000000000000000000000000815260040161280790615853565b60405180910390fd5b8973ffffffffffffffffffffffffffffffffffffffff16856000015173ffffffffffffffffffffffffffffffffffffffff161480612854575060008363ffffffff16145b612893576040517f08c379a000000000000000000000000000000000000000000000000000000000815260040161288a90615913565b60405180910390fd5b5b5b81156128de577f000000000000000000000000000000000000000000000000000000000000000092506128d9898660000151888d6128d4600189612393565b611bd7565b612a8a565b898660000160006101000a81548173ffffffffffffffffffffffffffffffffffffffff021916908373ffffffffffffffffffffffffffffffffffffffff16021790555060008163ffffffff1614612a135760006129777f000000000000000000000000000000000000000000000000000000000000000063ffffffff168363ffffffff1661271061296e8d61251c565b61ffff1661320d565b5090507f000000000000000000000000000000000000000000000000000000000000000063ffffffff168163ffffffff16106129e8576040517f08c379a00000000000000000000000000000000000000000000000000000000081526004016129df90615873565b60405180910390fd5b807f000000000000000000000000000000000000000000000000000000000000000003935050612a39565b7f0000000000000000000000000000000000000000000000000000000000000000830192505b612a44600184612393565b8660000160186101000a81548163ffffffff021916908363ffffffff1602179055504286600001601c6101000a81548163ffffffff021916908363ffffffff1602179055505b8296505050505050509392505050565b612aa2614571565b60086040518060800160405290816000820160009054906101000a900463ffffffff1663ffffffff1663ffffffff1681526020016000820160049054906101000a900463ffffffff1663ffffffff1663ffffffff1681526020016000820160089054906101000a900463ffffffff1663ffffffff1663ffffffff16815260200160008201600c9054906101000a900463ffffffff1663ffffffff1663ffffffff1681525050905060006fffffffffffffffffffffffffffffffff8316600f0b90506000608084901c600f0b9050600080831215612c2057836000015163ffffffff16836000031315612bc9576040517f08c379a0000000000000000000000000000000000000000000000000000000008152600401612bc090615933565b60405180910390fd5b60088360000301925063ffffffff831315612be65763ffffffff92505b8263ffffffff16846000015163ffffffff161015612c1b5782846000019063ffffffff16908163ffffffff1681525050600190505b612cbd565b836020015163ffffffff16831315612c6d576040517f08c379a0000000000000000000000000000000000000000000000000000000008152600401612c6490615893565b60405180910390fd5b60088301925063ffffffff831315612c875763ffffffff92505b8263ffffffff16846020015163ffffffff161015612cbc5782846020019063ffffffff16908163ffffffff1681525050600190505b5b6000821215612d6d57836040015163ffffffff16826000031315612d16576040517f08c379a0000000000000000000000000000000000000000000000000000000008152600401612d0d90615753565b60405180910390fd5b60088260000301915063ffffffff821315612d335763ffffffff91505b8163ffffffff16846040015163ffffffff161015612d685781846040019063ffffffff16908163ffffffff1681525050600190505b612e0a565b836060015163ffffffff16821315612dba576040517f08c379a0000000000000000000000000000000000000000000000000000000008152600401612db190615a13565b60405180910390fd5b60088201915063ffffffff821315612dd45763ffffffff91505b8163ffffffff16846060015163ffffffff161015612e095781846060019063ffffffff16908163ffffffff1681525050600190505b5b8015612eb35783600860008201518160000160006101000a81548163ffffffff021916908363ffffffff16021790555060208201518160000160046101000a81548163ffffffff021916908363ffffffff16021790555060408201518160000160086101000a81548163ffffffff021916908363ffffffff160217905550606082015181600001600c6101000a81548163ffffffff021916908363ffffffff1602179055509050505b5050505050565b600080868386604051602001612ed192919061560e565b6040516020818303038152906040528051906020012087604051602001612ef992919061560e565b6040516020818303038152906040528051906020012060001c14612f52576040517f08c379a0000000000000000000000000000000000000000000000000000000008152600401612f49906158d3565b60405180910390fd5b8760400151915060008263ffffffff1611612fa2576040517f08c379a0000000000000000000000000000000000000000000000000000000008152600401612f99906157f3565b60405180910390fd5b612fb182878a602001516132eb565b9150818860400151039050612fc7848787613424565b612fd684878a6020015161351b565b965096945050505050565b612fe96145f4565b856000015173ffffffffffffffffffffffffffffffffffffffff16846000015173ffffffffffffffffffffffffffffffffffffffff16141561303c576130358660000151858585613618565b9050613050565b61304d86600001518686868661373d565b90505b95945050505050565b8373ffffffffffffffffffffffffffffffffffffffff168673ffffffffffffffffffffffffffffffffffffffff16867f7997eb1d618b1121acb21162e437706631dea1be00abe485637cf356eb5a90fa86866020015187604001518789600001518a606001518b608001516040516130d79796959493929190615aca565b60405180910390a4505050505050565b6000806130f48585613161565b9050826001600283020160ff166020811061310b57fe5b1a60f81b60f81c60ff16610100846002840260ff166020811061312a57fe5b1a60f81b60f81c60ff1602019150509392505050565b60008160ff168360ff1685901c60001c8161315757fe5b0690509392505050565b60008061317084846040613140565b9050600060028260ff168161318157fe5b049050600060028360ff168161319357fe5b06905060007f01223334444555555666666677777777888888889999999aaaaaabbbbcccddef60001b8360ff16602081106131ca57fe5b1a60f81b60f81c905060008260ff1614156131f25760048160ff16901c945050505050613207565b60108160ff16816131ff57fe5b069450505050505b92915050565b600080600086148061321f5750600085145b1561323057600080915091506132e2565b60008487029050600084870290506000826305f5e10089028161324f57fe5b0490506305f5e1008802838202101561326b5780806001019150505b6000826305f5e1008b028161327c57fe5b0490506305f5e1008a0283820210156132985780806001019150505b60006132a48383613810565b90506132bf6305f5e100858302816132b857fe5b048c613810565b96506132da6305f5e100868302816132d357fe5b048b613810565b955050505050505b94509492505050565b6000806002610708816132fa57fe5b048363ffffffff168161330957fe5b049050600060076000868152602001908152602001600020600083815260200190815260200160002060000160089054906101000a900467ffffffffffffffff1690508563ffffffff168167ffffffffffffffff1610156133bd578086039550600060076000878152602001908152602001600020600084815260200190815260200160002060000160086101000a81548167ffffffffffffffff021916908367ffffffffffffffff160217905550613418565b600095508563ffffffff16810360076000878152602001908152602001600020600084815260200190815260200160002060000160086101000a81548167ffffffffffffffff021916908367ffffffffffffffff1602179055505b85925050509392505050565b60008061343861343385612268565b6123d7565b9150915060008061345061344b86612268565b6123d7565b91509150600060028460000b600460808a901c02018360000b600460808a901c020103600f0b0a60028660000b60046fffffffffffffffffffffffffffffffff8b1602018560000b60046fffffffffffffffffffffffffffffffff8b16020103600f0b0a01600f0b9050806002890a111580156134d257506002600189010a81105b613511576040517f08c379a0000000000000000000000000000000000000000000000000000000008152600401613508906159b3565b60405180910390fd5b5050505050505050565b600061352e61352984612268565b612544565b61ffff166127107f00000000000000000000000000000000000000000000000000000000000000000285028161356057fe5b048263ffffffff16019050804210156135ae576040517f08c379a00000000000000000000000000000000000000000000000000000000081526004016135a590615993565b60405180910390fd5b7f000000000000000000000000000000000000000000000000000000000000000081014210613612576040517f08c379a0000000000000000000000000000000000000000000000000000000008152600401613609906158f3565b60405180910390fd5b50505050565b6136206145f4565b61362d8460200151611b92565b156136715761366a83856000015160008087815260200190815260200160002060008663ffffffff1611613662576000613664565b885b8661382a565b9050613735565b600061367c84612268565b90506000613689826122ba565b90506000806136a78860400151896060015163ffffffff16856122fc565b91509150600086820163ffffffff169050638000000063ffffffff1681106136da57600163800000000363ffffffff1690505b6136e48382612393565b6000808a815260200190815260200160002060000160186101000a81548163ffffffff021916908363ffffffff16021790555080866080019063ffffffff16908163ffffffff168152505050505050505b949350505050565b6137456145f4565b6000846060015163ffffffff16141561377a57600061376384612268565b9050613772878786848761388f565b915050613807565b6137878460200151611b92565b156137b5576137ae838560000151600080878152602001908152602001600020898661382a565b9050613807565b60006137c084612268565b905060006137d56137d088612268565b6124f4565b905060006137e28361251c565b905060006137ef846122ba565b90506138008a84848b8b868c613a48565b9450505050505b95945050505050565b6000818311156138205781613822565b825b905092915050565b6138326145f4565b61385586868660008663ffffffff161161384d57600061384f565b865b86611bd7565b81816080019063ffffffff16908163ffffffff168152505060008263ffffffff161181606001901515908115158152505095945050505050565b6138976145f4565b60006138aa6138a587612268565b6124f4565b905060006138b78561251c565b905060006138c48661256c565b90506000806138e78763ffffffff168461ffff168761ffff168761ffff1661320d565b9150915081866020019063ffffffff16908163ffffffff16815250508261ffff168163ffffffff1614801561392757508163ffffffff168763ffffffff16115b15613a3a57818703866080019063ffffffff16908163ffffffff168152505061395560008760800151612393565b6000808b815260200190815260200160002060000160186101000a81548163ffffffff021916908363ffffffff160217905550426000808b8152602001908152602001600020600001601c6101000a81548163ffffffff021916908363ffffffff1602179055508a6000808b815260200190815260200160002060000160006101000a81548173ffffffffffffffffffffffffffffffffffffffff021916908373ffffffffffffffffffffffffffffffffffffffff16021790555080866040019063ffffffff16908163ffffffff168152505060018660600190151590811515815250505b505050505095945050505050565b613a506145f4565b613a5861463d565b613a63868686613bd4565b90506000816040015163ffffffff16148015613a85575060008363ffffffff16115b15613bb7578860008087815260200190815260200160002060000160006101000a81548173ffffffffffffffffffffffffffffffffffffffff021916908373ffffffffffffffffffffffffffffffffffffffff160217905550600080600087815260200190815260200160002060000160146101000a81548163ffffffff021916908363ffffffff160217905550613b21816000015184612393565b60008087815260200190815260200160002060000160186101000a81548163ffffffff021916908363ffffffff16021790555042600080878152602001908152602001600020600001601c6101000a81548163ffffffff021916908363ffffffff160217905550600182606001901515908115158152505082826080019063ffffffff16908163ffffffff168152505050613bc9565b613bc5818a87868c8c613ce6565b9150505b979650505050505050565b613bdc61463d565b600080613bf88660400151876060015163ffffffff16866122fc565b915091506000806000806000613c0e868b61430e565b945094509450945094508688600001901515908115158152505085886020019063ffffffff16908163ffffffff168152505084886040019063ffffffff16908163ffffffff168152505083886060019067ffffffffffffffff16908167ffffffffffffffff168152505082886080019067ffffffffffffffff16908167ffffffffffffffff1681525050818860a0019067ffffffffffffffff16908167ffffffffffffffff1681525050808860c0019067ffffffffffffffff16908167ffffffffffffffff1681525050505050505050509392505050565b613cee6145f4565b600080613d158663ffffffff168a6040015163ffffffff168761ffff168761ffff1661320d565b9150915081836020019063ffffffff16908163ffffffff168152505080836040019063ffffffff16908163ffffffff1681525050886020015163ffffffff16836040015163ffffffff1611156140e45788602001518103836000019063ffffffff16908163ffffffff16815250508860200151836040019063ffffffff16908163ffffffff1681525050826000015163ffffffff16896060015167ffffffffffffffff1610613e2357826000015163ffffffff16896060018181510391509067ffffffffffffffff16908167ffffffffffffffff1681525050826000015163ffffffff16896080018181510191509067ffffffffffffffff16908167ffffffffffffffff1681525050613f41565b8860600151896080018181510191509067ffffffffffffffff16908167ffffffffffffffff168152505060008960600151846000015163ffffffff160390508067ffffffffffffffff168a60a0015167ffffffffffffffff1610613ed257808a60a0018181510391509067ffffffffffffffff16908167ffffffffffffffff1681525050808a60c0018181510191509067ffffffffffffffff16908167ffffffffffffffff1681525050613f1e565b8960a001518a60c0018181510191509067ffffffffffffffff16908167ffffffffffffffff168152505060008a60a0019067ffffffffffffffff16908167ffffffffffffffff16815250505b60008a6060019067ffffffffffffffff16908167ffffffffffffffff1681525050505b88606001516007600089815260200190815260200160002060006001600261070881613f6957fe5b044281613f7257fe5b0403815260200190815260200160002060000160006101000a81548167ffffffffffffffff021916908367ffffffffffffffff16021790555088608001516007600089815260200190815260200160002060006001600261070881613fd357fe5b044281613fdc57fe5b0403815260200190815260200160002060000160086101000a81548167ffffffffffffffff021916908367ffffffffffffffff1602179055508860a0015160076000898152602001908152602001600020600060026107088161403b57fe5b04428161404457fe5b04815260200190815260200160002060000160006101000a81548167ffffffffffffffff021916908367ffffffffffffffff1602179055508860c001516007600089815260200190815260200160002060006002610708816140a257fe5b0442816140ab57fe5b04815260200190815260200160002060000160086101000a81548167ffffffffffffffff021916908367ffffffffffffffff1602179055505b60008663ffffffff1611801561410d5750886020015163ffffffff16836040015163ffffffff16145b1561424457818603836080019063ffffffff16908163ffffffff168152505060018360600190151590811515815250508760008089815260200190815260200160002060000160006101000a81548173ffffffffffffffffffffffffffffffffffffffff021916908373ffffffffffffffffffffffffffffffffffffffff160217905550600080600089815260200190815260200160002060000160146101000a81548163ffffffff021916908363ffffffff1602179055506141d889600001518460800151612393565b60008089815260200190815260200160002060000160186101000a81548163ffffffff021916908363ffffffff16021790555042600080898152602001908152602001600020600001601c6101000a81548163ffffffff021916908363ffffffff160217905550614302565b8563ffffffff16836020015163ffffffff1614156142f85780896020015103836080019063ffffffff16908163ffffffff168152505061428c89600001518460800151612393565b60008089815260200190815260200160002060000160186101000a81548163ffffffff021916908363ffffffff16021790555042600080898152602001908152602001600020600001601c6101000a81548163ffffffff021916908363ffffffff160217905550614301565b600061430057fe5b5b5b50509695505050505050565b6000806000806000869450600060026107088161432757fe5b04428161433057fe5b04905060076000888152602001908152602001600020600060018303815260200190815260200160002060000160009054906101000a900467ffffffffffffffff16945060076000888152602001908152602001600020600060018303815260200190815260200160002060000160009054906101000a900467ffffffffffffffff16935060076000888152602001908152602001600020600082815260200190815260200160002060000160009054906101000a900467ffffffffffffffff16925060076000888152602001908152602001600020600082815260200190815260200160002060000160089054906101000a900467ffffffffffffffff1691506144538663ffffffff168487010167ffffffffffffffff1663ffffffff613810565b9550509295509295909350565b6040518060c00160405280600073ffffffffffffffffffffffffffffffffffffffff168152602001600063ffffffff168152602001600063ffffffff168152602001600063ffffffff168152602001600015158152602001600081525090565b6040518061010001604052806000800b81526020016000800b8152602001600061ffff168152602001600061ffff168152602001600061ffff168152602001600061ffff168152602001600061ffff168152602001600061ffff1681525090565b6040518060800160405280600073ffffffffffffffffffffffffffffffffffffffff168152602001600063ffffffff168152602001600063ffffffff168152602001600063ffffffff1681525090565b6040518060800160405280600063ffffffff168152602001600063ffffffff168152602001600063ffffffff168152602001600063ffffffff1681525090565b6040518060600160405280600073ffffffffffffffffffffffffffffffffffffffff168152602001600063ffffffff168152602001600063ffffffff1681525090565b6040518060a00160405280600063ffffffff168152602001600063ffffffff168152602001600063ffffffff168152602001600015158152602001600063ffffffff1681525090565b6040518060e00160405280600015158152602001600063ffffffff168152602001600063ffffffff168152602001600067ffffffffffffffff168152602001600067ffffffffffffffff168152602001600067ffffffffffffffff168152602001600067ffffffffffffffff1681525090565b6000813590506146bf81615c75565b92915050565b6000813590506146d481615c8c565b92915050565b60008083601f8401126146ec57600080fd5b8235905067ffffffffffffffff81111561470557600080fd5b60208301915083602082028301111561471d57600080fd5b9250929050565b60008135905061473381615ca3565b92915050565b60008151905061474881615ca3565b92915050565b60008135905061475d81615cba565b92915050565b60008083601f84011261477557600080fd5b8235905067ffffffffffffffff81111561478e57600080fd5b6020830191508360018202830111156147a657600080fd5b9250929050565b6000813590506147bc81615cd1565b92915050565b6000813590506147d181615ce8565b92915050565b6000813590506147e681615cff565b92915050565b6000602082840312156147fe57600080fd5b600061480c848285016146b0565b91505092915050565b6000806040838503121561482857600080fd5b6000614836858286016146c5565b9250506020614847858286016147c2565b9150509250929050565b60008060008060006080868803121561486957600080fd5b6000614877888289016146b0565b9550506020614888888289016146b0565b9450506040614899888289016147c2565b935050606086013567ffffffffffffffff8111156148b657600080fd5b6148c288828901614763565b92509250509295509295909350565b6000806000604084860312156148e657600080fd5b60006148f4868287016146b0565b935050602084013567ffffffffffffffff81111561491157600080fd5b61491d868287016146da565b92509250509250925092565b6000806040838503121561493c57600080fd5b600061494a858286016146b0565b925050602061495b85828601614724565b9150509250929050565b6000806040838503121561497857600080fd5b6000614986858286016146b0565b9250506020614997858286016147c2565b9150509250929050565b600080600080606085870312156149b757600080fd5b60006149c5878288016146b0565b94505060206149d6878288016147c2565b935050604085013567ffffffffffffffff8111156149f357600080fd5b6149ff87828801614763565b925092505092959194509250565b60008060008060808587031215614a2357600080fd5b6000614a31878288016146b0565b9450506020614a42878288016147c2565b9350506040614a53878288016147d7565b9250506060614a648782880161474e565b91505092959194509250565b60008060208385031215614a8357600080fd5b600083013567ffffffffffffffff811115614a9d57600080fd5b614aa9858286016146da565b92509250509250929050565b600060208284031215614ac757600080fd5b6000614ad584828501614739565b91505092915050565b600080600080600080600060e0888a031215614af957600080fd5b6000614b078a828b016147ad565b9750506020614b188a828b0161474e565b9650506040614b298a828b016147d7565b9550506060614b3a8a828b016147d7565b9450506080614b4b8a828b016147d7565b93505060a0614b5c8a828b016147d7565b92505060c0614b6d8a828b016147d7565b91505092959891949750929550565b600060208284031215614b8e57600080fd5b6000614b9c848285016147c2565b91505092915050565b60008060408385031215614bb857600080fd5b6000614bc6858286016147c2565b9250506020614bd7858286016146b0565b9150509250929050565b60008060408385031215614bf457600080fd5b6000614c02858286016147c2565b9250506020614c13858286016147c2565b9150509250929050565b600080600080600060a08688031215614c3557600080fd5b6000614c43888289016147c2565b9550506020614c54888289016147c2565b9450506040614c65888289016147c2565b9350506060614c76888289016147c2565b9250506080614c878882890161474e565b9150509295509295909350565b600080600060608486031215614ca957600080fd5b6000614cb7868287016147c2565b9350506020614cc8868287016147d7565b9250506040614cd98682870161474e565b9150509250925092565b6000614cef8383615405565b60c08301905092915050565b614d0481615bac565b82525050565b614d1381615bac565b82525050565b6000614d2482615b72565b614d2e8185615b8a565b9350614d3983615b62565b8060005b83811015614d6a578151614d518882614ce3565b9750614d5c83615b7d565b925050600181019050614d3d565b5085935050505092915050565b614d8081615bd0565b82525050565b614d8f81615bd0565b82525050565b614d9e81615bdc565b82525050565b614db5614db082615bdc565b615c61565b82525050565b614dc481615bf8565b82525050565b6000614dd7601683615b9b565b91507f4e4f545f524541434841424c455f5945545f4d494e59000000000000000000006000830152602082019050919050565b6000614e17600f83615b9b565b91507f45584954494e475f414c524541445900000000000000000000000000000000006000830152602082019050919050565b6000614e57601583615b9b565b91507f535041434553484950535f4e4f545f454e4f55474800000000000000000000006000830152602082019050919050565b6000614e97600d83615b9b565b91507f494e56414c49445f4552433230000000000000000000000000000000000000006000830152602082019050919050565b6000614ed7600b83615b9b565b91507f504c414e45545f455849540000000000000000000000000000000000000000006000830152602082019050919050565b6000614f17601283615b9b565b91507f464c4545545f444f5f4e4f545f455849535400000000000000000000000000006000830152602082019050919050565b6000614f57601a83615b9b565b91507f6e6f20706c616e657420696e2074686973206c6f636174696f6e0000000000006000830152602082019050919050565b6000614f97600f83615b9b565b91507f4641494c45445f5452414e5346455200000000000000000000000000000000006000830152602082019050919050565b6000614fd7600c83615b9b565b91507f5354494c4c5f41435449564500000000000000000000000000000000000000006000830152602082019050919050565b6000615017600f83615b9b565b91507f4641494c45445f434150545552454400000000000000000000000000000000006000830152602082019050919050565b6000615057601683615b9b565b91507f4e4f545f524541434841424c455f5945545f4d415858000000000000000000006000830152602082019050919050565b6000615097600d83615b9b565b91507f5354494c4c5f45584954494e47000000000000000000000000000000000000006000830152602082019050919050565b60006150d7601d83615b9b565b91507f494e56414c49445f464c4545545f444154415f4f525f534543524554270000006000830152602082019050919050565b6000615117602b83615b9b565b91507f746f6f206c6174652c20796f7572207370616365736869707320617265206c6f60008301527f737420696e2073706163650000000000000000000000000000000000000000006020830152604082019050919050565b600061517d600883615b9b565b91507f4f434355504945440000000000000000000000000000000000000000000000006000830152602082019050919050565b60006151bd601683615b9b565b91507f4e4f545f524541434841424c455f5945545f4d494e58000000000000000000006000830152602082019050919050565b60006151fd600883615b9b565b91507f4f564552464c4f570000000000000000000000000000000000000000000000006000830152602082019050919050565b600061523d600983615b9b565b91507f4e4f545f4f574e455200000000000000000000000000000000000000000000006000830152602082019050919050565b600061527d600983615b9b565b91507f746f6f206561726c7900000000000000000000000000000000000000000000006000830152602082019050919050565b60006152bd600e83615b9b565b91507f77726f6e672064697374616e63650000000000000000000000000000000000006000830152602082019050919050565b60006152fd600e83615b9b565b91507f4e4f545f415554484f52495a45440000000000000000000000000000000000006000830152602082019050919050565b600061533d600e83615b9b565b91507f494e56414c49445f414d4f554e540000000000000000000000000000000000006000830152602082019050919050565b600061537d601683615b9b565b91507f4e4f545f524541434841424c455f5945545f4d415859000000000000000000006000830152602082019050919050565b6080820160008201516153c660008501826155e1565b5060208201516153d960208501826155e1565b5060408201516153ec60408501826155e1565b5060608201516153ff60608501826155e1565b50505050565b60c08201600082015161541b6000850182614cfb565b50602082015161542e60208501826155e1565b50604082015161544160408501826155e1565b50606082015161545460608501826155e1565b5060808201516154676080850182614d77565b5060a082015161547a60a08501826155ac565b50505050565b60c0820160008201516154966000850182614cfb565b5060208201516154a960208501826155e1565b5060408201516154bc60408501826155e1565b5060608201516154cf60608501826155e1565b5060808201516154e26080850182614d77565b5060a08201516154f560a08501826155ac565b50505050565b610100820160008201516155126000850182614dbb565b5060208201516155256020850182614dbb565b506040820151615538604085018261559d565b50606082015161554b606085018261559d565b50608082015161555e608085018261559d565b5060a082015161557160a085018261559d565b5060c082015161558460c085018261559d565b5060e082015161559760e085018261559d565b50505050565b6155a681615c05565b82525050565b6155b581615c33565b82525050565b6155c481615c33565b82525050565b6155db6155d682615c33565b615c6b565b82525050565b6155ea81615c3d565b82525050565b6155f981615c3d565b82525050565b61560881615c4d565b82525050565b600061561a8285614da4565b60208201915061562a82846155ca565b6020820191508190509392505050565b600060608201905061564f6000830186614d0a565b61565c6020830185614d0a565b61566960408301846155bb565b949350505050565b60006040820190506156866000830185614d0a565b61569360208301846155bb565b9392505050565b600060a0820190506156af6000830188614d0a565b6156bc60208301876155f0565b6156c960408301866155f0565b6156d660608301856155ff565b6156e360808301846155ff565b9695505050505050565b600060a08201905081810360008301526157078185614d19565b905061571660208301846153b0565b9392505050565b60006020820190506157326000830184614d86565b92915050565b600060208201905061574d6000830184614d95565b92915050565b6000602082019050818103600083015261576c81614dca565b9050919050565b6000602082019050818103600083015261578c81614e0a565b9050919050565b600060208201905081810360008301526157ac81614e4a565b9050919050565b600060208201905081810360008301526157cc81614e8a565b9050919050565b600060208201905081810360008301526157ec81614eca565b9050919050565b6000602082019050818103600083015261580c81614f0a565b9050919050565b6000602082019050818103600083015261582c81614f4a565b9050919050565b6000602082019050818103600083015261584c81614f8a565b9050919050565b6000602082019050818103600083015261586c81614fca565b9050919050565b6000602082019050818103600083015261588c8161500a565b9050919050565b600060208201905081810360008301526158ac8161504a565b9050919050565b600060208201905081810360008301526158cc8161508a565b9050919050565b600060208201905081810360008301526158ec816150ca565b9050919050565b6000602082019050818103600083015261590c8161510a565b9050919050565b6000602082019050818103600083015261592c81615170565b9050919050565b6000602082019050818103600083015261594c816151b0565b9050919050565b6000602082019050818103600083015261596c816151f0565b9050919050565b6000602082019050818103600083015261598c81615230565b9050919050565b600060208201905081810360008301526159ac81615270565b9050919050565b600060208201905081810360008301526159cc816152b0565b9050919050565b600060208201905081810360008301526159ec816152f0565b9050919050565b60006020820190508181036000830152615a0c81615330565b9050919050565b60006020820190508181036000830152615a2c81615370565b9050919050565b6000608082019050615a4860008301846153b0565b92915050565b60006101c082019050615a646000830185615480565b615a7160c08301846154fb565b9392505050565b6000602082019050615a8d60008301846155bb565b92915050565b6000606082019050615aa860008301866155bb565b615ab560208301856155f0565b615ac260408301846155f0565b949350505050565b600060e082019050615adf600083018a6155bb565b615aec60208301896155f0565b615af960408301886155f0565b615b0660608301876155f0565b615b1360808301866155f0565b615b2060a0830185614d86565b615b2d60c08301846155f0565b98975050505050505050565b6000604082019050615b4e60008301856155f0565b615b5b60208301846155bb565b9392505050565b6000819050602082019050919050565b600081519050919050565b6000602082019050919050565b600082825260208201905092915050565b600082825260208201905092915050565b6000615bb782615c13565b9050919050565b6000615bc982615c13565b9050919050565b60008115159050919050565b6000819050919050565b6000615bf182615bac565b9050919050565b60008160000b9050919050565b600061ffff82169050919050565b600073ffffffffffffffffffffffffffffffffffffffff82169050919050565b6000819050919050565b600063ffffffff82169050919050565b600067ffffffffffffffff82169050919050565b6000819050919050565b6000819050919050565b615c7e81615bac565b8114615c8957600080fd5b50565b615c9581615bbe565b8114615ca057600080fd5b50565b615cac81615bd0565b8114615cb757600080fd5b50565b615cc381615bdc565b8114615cce57600080fd5b50565b615cda81615be6565b8114615ce557600080fd5b50565b615cf181615c33565b8114615cfc57600080fd5b50565b615d0881615c3d565b8114615d1357600080fd5b5056fea26469706673582212205fc727ccf63476003824696dc67ee23c7f025d52a39785babeac8d964e1e29f364736f6c63430007050033",
  "devdoc": {
    "kind": "dev",
    "methods": {},
    "version": 1
  },
  "userdoc": {
    "kind": "user",
    "methods": {},
    "version": 1
  },
  "storageLayout": {
    "storage": [
      {
        "astId": 8670,
        "contract": "src/OuterSpace.sol:OuterSpace",
        "label": "_planets",
        "offset": 0,
        "slot": "0",
        "type": "t_mapping(t_uint256,t_struct(Planet)8729_storage)"
      },
      {
        "astId": 8674,
        "contract": "src/OuterSpace.sol:OuterSpace",
        "label": "_fleets",
        "offset": 0,
        "slot": "1",
        "type": "t_mapping(t_uint256,t_struct(Fleet)8736_storage)"
      },
      {
        "astId": 8678,
        "contract": "src/OuterSpace.sol:OuterSpace",
        "label": "_stakeReadyToBeWithdrawn",
        "offset": 0,
        "slot": "2",
        "type": "t_mapping(t_address,t_uint256)"
      },
      {
        "astId": 8682,
        "contract": "src/OuterSpace.sol:OuterSpace",
        "label": "_prevRewardIds",
        "offset": 0,
        "slot": "3",
        "type": "t_mapping(t_address,t_uint256)"
      },
      {
        "astId": 8686,
        "contract": "src/OuterSpace.sol:OuterSpace",
        "label": "_rewards",
        "offset": 0,
        "slot": "4",
        "type": "t_mapping(t_uint256,t_uint256)"
      },
      {
        "astId": 8692,
        "contract": "src/OuterSpace.sol:OuterSpace",
        "label": "_rewardsToWithdraw",
        "offset": 0,
        "slot": "5",
        "type": "t_mapping(t_address,t_mapping(t_uint256,t_bool))"
      },
      {
        "astId": 8698,
        "contract": "src/OuterSpace.sol:OuterSpace",
        "label": "_operators",
        "offset": 0,
        "slot": "6",
        "type": "t_mapping(t_address,t_mapping(t_address,t_bool))"
      },
      {
        "astId": 8709,
        "contract": "src/OuterSpace.sol:OuterSpace",
        "label": "_inFlight",
        "offset": 0,
        "slot": "7",
        "type": "t_mapping(t_uint256,t_mapping(t_uint256,t_struct(InFlight)8703_storage))"
      },
      {
        "astId": 8720,
        "contract": "src/OuterSpace.sol:OuterSpace",
        "label": "_discovered",
        "offset": 0,
        "slot": "8",
        "type": "t_struct(Discovered)8718_storage"
      }
    ],
    "types": {
      "t_address": {
        "encoding": "inplace",
        "label": "address",
        "numberOfBytes": "20"
      },
      "t_bool": {
        "encoding": "inplace",
        "label": "bool",
        "numberOfBytes": "1"
      },
      "t_mapping(t_address,t_bool)": {
        "encoding": "mapping",
        "key": "t_address",
        "label": "mapping(address => bool)",
        "numberOfBytes": "32",
        "value": "t_bool"
      },
      "t_mapping(t_address,t_mapping(t_address,t_bool))": {
        "encoding": "mapping",
        "key": "t_address",
        "label": "mapping(address => mapping(address => bool))",
        "numberOfBytes": "32",
        "value": "t_mapping(t_address,t_bool)"
      },
      "t_mapping(t_address,t_mapping(t_uint256,t_bool))": {
        "encoding": "mapping",
        "key": "t_address",
        "label": "mapping(address => mapping(uint256 => bool))",
        "numberOfBytes": "32",
        "value": "t_mapping(t_uint256,t_bool)"
      },
      "t_mapping(t_address,t_uint256)": {
        "encoding": "mapping",
        "key": "t_address",
        "label": "mapping(address => uint256)",
        "numberOfBytes": "32",
        "value": "t_uint256"
      },
      "t_mapping(t_uint256,t_bool)": {
        "encoding": "mapping",
        "key": "t_uint256",
        "label": "mapping(uint256 => bool)",
        "numberOfBytes": "32",
        "value": "t_bool"
      },
      "t_mapping(t_uint256,t_mapping(t_uint256,t_struct(InFlight)8703_storage))": {
        "encoding": "mapping",
        "key": "t_uint256",
        "label": "mapping(uint256 => mapping(uint256 => struct OuterSpace.InFlight))",
        "numberOfBytes": "32",
        "value": "t_mapping(t_uint256,t_struct(InFlight)8703_storage)"
      },
      "t_mapping(t_uint256,t_struct(Fleet)8736_storage)": {
        "encoding": "mapping",
        "key": "t_uint256",
        "label": "mapping(uint256 => struct OuterSpace.Fleet)",
        "numberOfBytes": "32",
        "value": "t_struct(Fleet)8736_storage"
      },
      "t_mapping(t_uint256,t_struct(InFlight)8703_storage)": {
        "encoding": "mapping",
        "key": "t_uint256",
        "label": "mapping(uint256 => struct OuterSpace.InFlight)",
        "numberOfBytes": "32",
        "value": "t_struct(InFlight)8703_storage"
      },
      "t_mapping(t_uint256,t_struct(Planet)8729_storage)": {
        "encoding": "mapping",
        "key": "t_uint256",
        "label": "mapping(uint256 => struct OuterSpace.Planet)",
        "numberOfBytes": "32",
        "value": "t_struct(Planet)8729_storage"
      },
      "t_mapping(t_uint256,t_uint256)": {
        "encoding": "mapping",
        "key": "t_uint256",
        "label": "mapping(uint256 => uint256)",
        "numberOfBytes": "32",
        "value": "t_uint256"
      },
      "t_struct(Discovered)8718_storage": {
        "encoding": "inplace",
        "label": "struct OuterSpace.Discovered",
        "members": [
          {
            "astId": 8711,
            "contract": "src/OuterSpace.sol:OuterSpace",
            "label": "minX",
            "offset": 0,
            "slot": "0",
            "type": "t_uint32"
          },
          {
            "astId": 8713,
            "contract": "src/OuterSpace.sol:OuterSpace",
            "label": "maxX",
            "offset": 4,
            "slot": "0",
            "type": "t_uint32"
          },
          {
            "astId": 8715,
            "contract": "src/OuterSpace.sol:OuterSpace",
            "label": "minY",
            "offset": 8,
            "slot": "0",
            "type": "t_uint32"
          },
          {
            "astId": 8717,
            "contract": "src/OuterSpace.sol:OuterSpace",
            "label": "maxY",
            "offset": 12,
            "slot": "0",
            "type": "t_uint32"
          }
        ],
        "numberOfBytes": "32"
      },
      "t_struct(Fleet)8736_storage": {
        "encoding": "inplace",
        "label": "struct OuterSpace.Fleet",
        "members": [
          {
            "astId": 8731,
            "contract": "src/OuterSpace.sol:OuterSpace",
            "label": "owner",
            "offset": 0,
            "slot": "0",
            "type": "t_address"
          },
          {
            "astId": 8733,
            "contract": "src/OuterSpace.sol:OuterSpace",
            "label": "launchTime",
            "offset": 20,
            "slot": "0",
            "type": "t_uint32"
          },
          {
            "astId": 8735,
            "contract": "src/OuterSpace.sol:OuterSpace",
            "label": "quantity",
            "offset": 24,
            "slot": "0",
            "type": "t_uint32"
          }
        ],
        "numberOfBytes": "32"
      },
      "t_struct(InFlight)8703_storage": {
        "encoding": "inplace",
        "label": "struct OuterSpace.InFlight",
        "members": [
          {
            "astId": 8700,
            "contract": "src/OuterSpace.sol:OuterSpace",
            "label": "flying",
            "offset": 0,
            "slot": "0",
            "type": "t_uint64"
          },
          {
            "astId": 8702,
            "contract": "src/OuterSpace.sol:OuterSpace",
            "label": "destroyed",
            "offset": 8,
            "slot": "0",
            "type": "t_uint64"
          }
        ],
        "numberOfBytes": "32"
      },
      "t_struct(Planet)8729_storage": {
        "encoding": "inplace",
        "label": "struct OuterSpace.Planet",
        "members": [
          {
            "astId": 8722,
            "contract": "src/OuterSpace.sol:OuterSpace",
            "label": "owner",
            "offset": 0,
            "slot": "0",
            "type": "t_address"
          },
          {
            "astId": 8724,
            "contract": "src/OuterSpace.sol:OuterSpace",
            "label": "exitTime",
            "offset": 20,
            "slot": "0",
            "type": "t_uint32"
          },
          {
            "astId": 8726,
            "contract": "src/OuterSpace.sol:OuterSpace",
            "label": "numSpaceships",
            "offset": 24,
            "slot": "0",
            "type": "t_uint32"
          },
          {
            "astId": 8728,
            "contract": "src/OuterSpace.sol:OuterSpace",
            "label": "lastUpdated",
            "offset": 28,
            "slot": "0",
            "type": "t_uint32"
          }
        ],
        "numberOfBytes": "32"
      },
      "t_uint256": {
        "encoding": "inplace",
        "label": "uint256",
        "numberOfBytes": "32"
      },
      "t_uint32": {
        "encoding": "inplace",
        "label": "uint32",
        "numberOfBytes": "4"
      },
      "t_uint64": {
        "encoding": "inplace",
        "label": "uint64",
        "numberOfBytes": "8"
      }
    }
  }
}