{
  "address": "0x2a0bA12218D23c85b8E0809d4d9457648e69DE66",
  "abi": [
    {
      "inputs": [
        {
          "internalType": "contract IERC20",
          "name": "stakingToken",
          "type": "address"
        },
        {
          "internalType": "bytes32",
          "name": "genesis",
          "type": "bytes32"
        },
        {
          "internalType": "uint32",
          "name": "resolveWindow",
          "type": "uint32"
        },
        {
          "internalType": "uint32",
          "name": "timePerDistance",
          "type": "uint32"
        },
        {
          "internalType": "uint32",
          "name": "exitDuration",
          "type": "uint32"
        },
        {
          "internalType": "uint32",
          "name": "acquireNumSpaceships",
          "type": "uint32"
        }
      ],
      "stateMutability": "nonpayable",
      "type": "constructor"
    },
    {
      "anonymous": false,
      "inputs": [
        {
          "indexed": true,
          "internalType": "address",
          "name": "owner",
          "type": "address"
        },
        {
          "indexed": true,
          "internalType": "address",
          "name": "operator",
          "type": "address"
        },
        {
          "indexed": false,
          "internalType": "bool",
          "name": "approved",
          "type": "bool"
        }
      ],
      "name": "ApprovalForAll",
      "type": "event"
    },
    {
      "anonymous": false,
      "inputs": [
        {
          "indexed": true,
          "internalType": "address",
          "name": "sender",
          "type": "address"
        },
        {
          "indexed": true,
          "internalType": "uint256",
          "name": "fleet",
          "type": "uint256"
        },
        {
          "indexed": true,
          "internalType": "uint256",
          "name": "location",
          "type": "uint256"
        },
        {
          "indexed": false,
          "internalType": "uint32",
          "name": "fleetLoss",
          "type": "uint32"
        },
        {
          "indexed": false,
          "internalType": "uint32",
          "name": "toLoss",
          "type": "uint32"
        },
        {
          "indexed": false,
          "internalType": "bool",
          "name": "won",
          "type": "bool"
        },
        {
          "indexed": false,
          "internalType": "uint32",
          "name": "newNumspaceships",
          "type": "uint32"
        }
      ],
      "name": "Attack",
      "type": "event"
    },
    {
      "anonymous": false,
      "inputs": [
        {
          "indexed": true,
          "internalType": "address",
          "name": "sender",
          "type": "address"
        },
        {
          "indexed": true,
          "internalType": "uint256",
          "name": "fleet",
          "type": "uint256"
        },
        {
          "indexed": true,
          "internalType": "uint256",
          "name": "location",
          "type": "uint256"
        },
        {
          "indexed": false,
          "internalType": "uint32",
          "name": "newNumspaceships",
          "type": "uint32"
        }
      ],
      "name": "FleetArrived",
      "type": "event"
    },
    {
      "anonymous": false,
      "inputs": [
        {
          "indexed": true,
          "internalType": "address",
          "name": "sender",
          "type": "address"
        },
        {
          "indexed": true,
          "internalType": "uint256",
          "name": "from",
          "type": "uint256"
        },
        {
          "indexed": false,
          "internalType": "uint256",
          "name": "fleet",
          "type": "uint256"
        },
        {
          "indexed": false,
          "internalType": "uint32",
          "name": "quantity",
          "type": "uint32"
        },
        {
          "indexed": false,
          "internalType": "uint32",
          "name": "newNumSpaceships",
          "type": "uint32"
        }
      ],
      "name": "FleetSent",
      "type": "event"
    },
    {
      "anonymous": false,
      "inputs": [
        {
          "indexed": true,
          "internalType": "address",
          "name": "owner",
          "type": "address"
        },
        {
          "indexed": true,
          "internalType": "uint256",
          "name": "location",
          "type": "uint256"
        }
      ],
      "name": "PlanetExit",
      "type": "event"
    },
    {
      "anonymous": false,
      "inputs": [
        {
          "indexed": true,
          "internalType": "address",
          "name": "acquirer",
          "type": "address"
        },
        {
          "indexed": true,
          "internalType": "uint256",
          "name": "location",
          "type": "uint256"
        },
        {
          "indexed": false,
          "internalType": "uint32",
          "name": "numSpaceships",
          "type": "uint32"
        }
      ],
      "name": "PlanetStake",
      "type": "event"
    },
    {
      "anonymous": false,
      "inputs": [
        {
          "indexed": true,
          "internalType": "address",
          "name": "owner",
          "type": "address"
        },
        {
          "indexed": false,
          "internalType": "uint256",
          "name": "newStake",
          "type": "uint256"
        }
      ],
      "name": "StakeToWithdraw",
      "type": "event"
    },
    {
      "inputs": [
        {
          "internalType": "uint256",
          "name": "location",
          "type": "uint256"
        },
        {
          "internalType": "uint256",
          "name": "amount",
          "type": "uint256"
        }
      ],
      "name": "acquireViaTransferFrom",
      "outputs": [],
      "stateMutability": "nonpayable",
      "type": "function"
    },
    {
      "inputs": [
        {
          "internalType": "address",
          "name": "owner",
          "type": "address"
        },
        {
          "internalType": "uint256",
          "name": "location",
          "type": "uint256"
        }
      ],
      "name": "exitFor",
      "outputs": [],
      "stateMutability": "nonpayable",
      "type": "function"
    },
    {
      "inputs": [
        {
          "internalType": "address",
          "name": "owner",
          "type": "address"
        },
        {
          "internalType": "uint256[]",
          "name": "locations",
          "type": "uint256[]"
        }
      ],
      "name": "fetchAndWithdrawFor",
      "outputs": [],
      "stateMutability": "nonpayable",
      "type": "function"
    },
    {
      "inputs": [],
      "name": "getDiscovered",
      "outputs": [
        {
          "components": [
            {
              "internalType": "uint32",
              "name": "minX",
              "type": "uint32"
            },
            {
              "internalType": "uint32",
              "name": "maxX",
              "type": "uint32"
            },
            {
              "internalType": "uint32",
              "name": "minY",
              "type": "uint32"
            },
            {
              "internalType": "uint32",
              "name": "maxY",
              "type": "uint32"
            }
          ],
          "internalType": "struct OuterSpace.Discovered",
          "name": "",
          "type": "tuple"
        }
      ],
      "stateMutability": "view",
      "type": "function"
    },
    {
      "inputs": [
        {
          "internalType": "uint256",
          "name": "fleetId",
          "type": "uint256"
        }
      ],
      "name": "getFleet",
      "outputs": [
        {
          "internalType": "address",
          "name": "owner",
          "type": "address"
        },
        {
          "internalType": "uint32",
          "name": "launchTime",
          "type": "uint32"
        },
        {
          "internalType": "uint32",
          "name": "quantity",
          "type": "uint32"
        }
      ],
      "stateMutability": "view",
      "type": "function"
    },
    {
      "inputs": [],
      "name": "getGeneisHash",
      "outputs": [
        {
          "internalType": "bytes32",
          "name": "",
          "type": "bytes32"
        }
      ],
      "stateMutability": "view",
      "type": "function"
    },
    {
      "inputs": [
        {
          "internalType": "uint256",
          "name": "location",
          "type": "uint256"
        }
      ],
      "name": "getPlanet",
      "outputs": [
        {
          "components": [
            {
              "internalType": "address",
              "name": "owner",
              "type": "address"
            },
            {
              "internalType": "uint32",
              "name": "exitTime",
              "type": "uint32"
            },
            {
              "internalType": "uint32",
              "name": "numSpaceships",
              "type": "uint32"
            },
            {
              "internalType": "uint32",
              "name": "lastUpdated",
              "type": "uint32"
            },
            {
              "internalType": "bool",
              "name": "active",
              "type": "bool"
            }
          ],
          "internalType": "struct OuterSpace.ExternalPlanet",
          "name": "state",
          "type": "tuple"
        },
        {
          "components": [
            {
              "internalType": "int8",
              "name": "subX",
              "type": "int8"
            },
            {
              "internalType": "int8",
              "name": "subY",
              "type": "int8"
            },
            {
              "internalType": "uint16",
              "name": "stake",
              "type": "uint16"
            },
            {
              "internalType": "uint16",
              "name": "production",
              "type": "uint16"
            },
            {
              "internalType": "uint16",
              "name": "attack",
              "type": "uint16"
            },
            {
              "internalType": "uint16",
              "name": "defense",
              "type": "uint16"
            },
            {
              "internalType": "uint16",
              "name": "speed",
              "type": "uint16"
            },
            {
              "internalType": "uint16",
              "name": "natives",
              "type": "uint16"
            }
          ],
          "internalType": "struct OuterSpace.PlanetStats",
          "name": "stats",
          "type": "tuple"
        }
      ],
      "stateMutability": "view",
      "type": "function"
    },
    {
      "inputs": [
        {
          "internalType": "uint256[]",
          "name": "locations",
          "type": "uint256[]"
        }
      ],
      "name": "getPlanetStates",
      "outputs": [
        {
          "components": [
            {
              "internalType": "address",
              "name": "owner",
              "type": "address"
            },
            {
              "internalType": "uint32",
              "name": "exitTime",
              "type": "uint32"
            },
            {
              "internalType": "uint32",
              "name": "numSpaceships",
              "type": "uint32"
            },
            {
              "internalType": "uint32",
              "name": "lastUpdated",
              "type": "uint32"
            },
            {
              "internalType": "bool",
              "name": "active",
              "type": "bool"
            }
          ],
          "internalType": "struct OuterSpace.ExternalPlanet[]",
          "name": "planetStates",
          "type": "tuple[]"
        },
        {
          "components": [
            {
              "internalType": "uint32",
              "name": "minX",
              "type": "uint32"
            },
            {
              "internalType": "uint32",
              "name": "maxX",
              "type": "uint32"
            },
            {
              "internalType": "uint32",
              "name": "minY",
              "type": "uint32"
            },
            {
              "internalType": "uint32",
              "name": "maxY",
              "type": "uint32"
            }
          ],
          "internalType": "struct OuterSpace.Discovered",
          "name": "discovered",
          "type": "tuple"
        }
      ],
      "stateMutability": "view",
      "type": "function"
    },
    {
      "inputs": [
        {
          "internalType": "address",
          "name": "from",
          "type": "address"
        },
        {
          "internalType": "uint256",
          "name": "amount",
          "type": "uint256"
        },
        {
          "internalType": "bytes",
          "name": "data",
          "type": "bytes"
        }
      ],
      "name": "onTokenTransfer",
      "outputs": [
        {
          "internalType": "bool",
          "name": "",
          "type": "bool"
        }
      ],
      "stateMutability": "nonpayable",
      "type": "function"
    },
    {
      "inputs": [
        {
          "internalType": "contract IERC20",
          "name": "",
          "type": "address"
        },
        {
          "internalType": "bytes32",
          "name": "",
          "type": "bytes32"
        },
        {
          "internalType": "uint32",
          "name": "",
          "type": "uint32"
        },
        {
          "internalType": "uint32",
          "name": "",
          "type": "uint32"
        },
        {
          "internalType": "uint32",
          "name": "",
          "type": "uint32"
        },
        {
          "internalType": "uint32",
          "name": "",
          "type": "uint32"
        }
      ],
      "name": "postUpgrade",
      "outputs": [],
      "stateMutability": "nonpayable",
      "type": "function"
    },
    {
      "inputs": [
        {
          "internalType": "uint256",
          "name": "fleetId",
          "type": "uint256"
        },
        {
          "internalType": "uint256",
          "name": "from",
          "type": "uint256"
        },
        {
          "internalType": "uint256",
          "name": "to",
          "type": "uint256"
        },
        {
          "internalType": "uint256",
          "name": "distance",
          "type": "uint256"
        },
        {
          "internalType": "bytes32",
          "name": "secret",
          "type": "bytes32"
        }
      ],
      "name": "resolveFleet",
      "outputs": [],
      "stateMutability": "nonpayable",
      "type": "function"
    },
    {
      "inputs": [
        {
          "internalType": "address",
          "name": "attacker",
          "type": "address"
        },
        {
          "internalType": "uint256",
          "name": "fleetId",
          "type": "uint256"
        },
        {
          "internalType": "uint256",
          "name": "from",
          "type": "uint256"
        },
        {
          "internalType": "uint256",
          "name": "to",
          "type": "uint256"
        },
        {
          "internalType": "uint256",
          "name": "distance",
          "type": "uint256"
        },
        {
          "internalType": "bytes32",
          "name": "secret",
          "type": "bytes32"
        }
      ],
      "name": "resolveFleetFor",
      "outputs": [],
      "stateMutability": "nonpayable",
      "type": "function"
    },
    {
      "inputs": [
        {
          "internalType": "uint256",
          "name": "from",
          "type": "uint256"
        },
        {
          "internalType": "uint32",
          "name": "quantity",
          "type": "uint32"
        },
        {
          "internalType": "bytes32",
          "name": "toHash",
          "type": "bytes32"
        }
      ],
      "name": "send",
      "outputs": [],
      "stateMutability": "nonpayable",
      "type": "function"
    },
    {
      "inputs": [
        {
          "internalType": "address",
          "name": "owner",
          "type": "address"
        },
        {
          "internalType": "uint256",
          "name": "from",
          "type": "uint256"
        },
        {
          "internalType": "uint32",
          "name": "quantity",
          "type": "uint32"
        },
        {
          "internalType": "bytes32",
          "name": "toHash",
          "type": "bytes32"
        }
      ],
      "name": "sendFor",
      "outputs": [],
      "stateMutability": "nonpayable",
      "type": "function"
    },
    {
      "inputs": [
        {
          "internalType": "address",
          "name": "operator",
          "type": "address"
        },
        {
          "internalType": "bool",
          "name": "approved",
          "type": "bool"
        }
      ],
      "name": "setApprovalForAll",
      "outputs": [],
      "stateMutability": "nonpayable",
      "type": "function"
    },
    {
      "inputs": [
        {
          "internalType": "address",
          "name": "owner",
          "type": "address"
        }
      ],
      "name": "withdrawFor",
      "outputs": [],
      "stateMutability": "nonpayable",
      "type": "function"
    }
  ],
  "transactionHash": "0xf5ee13d70c8b4329f4061a3e98dd89f9e7047f69f72f237be24425383e6155ab",
  "args": [
    "0x6e0b19BFEa15de1b46E772f4edFf43F5C75E5985",
    "0xe0c3fa9ae97fc9b60baae605896b5e3e7cecb6baaaa4708162d1ec51e8d65a68",
    7200,
    7200,
    259200,
    100000
  ],
  "linkedData": {
    "genesisHash": "0xe0c3fa9ae97fc9b60baae605896b5e3e7cecb6baaaa4708162d1ec51e8d65a68",
    "resolveWindow": 7200,
    "timePerDistance": 7200,
    "exitDuration": 259200
  },
  "solcInputHash": "fdd156dcadd2be73b9a03f2aafaa9239",
  "bytecode": "0x6101406040523480156200001257600080fd5b506040516200521138038062005211833981810160405281019062000038919062000383565b600060048463ffffffff16816200004b57fe5b0490508363ffffffff166004820263ffffffff1614620000a2576040517f08c379a000000000000000000000000000000000000000000000000000000000815260040162000099906200045b565b60405180910390fd5b8673ffffffffffffffffffffffffffffffffffffffff1660a08173ffffffffffffffffffffffffffffffffffffffff1660601b8152505085608081815250508463ffffffff1660c081815250508063ffffffff1660e081815250508263ffffffff1661010081815250508163ffffffff166101208163ffffffff1660e01b815250506200013a8787878787876200014760201b60201c565b505050505050506200053e565b6000620001596200031560201b60201c565b9050600073ffffffffffffffffffffffffffffffffffffffff168173ffffffffffffffffffffffffffffffffffffffff161415620001ce5773ffffffffffffffffffffffffffffffffffffffff7fb53127684a568b3173ae13b9f8a6016e243e63b6e8ee1178d6a717850b5d61035562000208565b8073ffffffffffffffffffffffffffffffffffffffff163373ffffffffffffffffffffffffffffffffffffffff16146200020757600080fd5b5b6000600460000160009054906101000a900463ffffffff1663ffffffff1614156200030c576040518060800160405280600c63ffffffff168152602001600c63ffffffff168152602001600c63ffffffff168152602001600c63ffffffff16815250600460008201518160000160006101000a81548163ffffffff021916908363ffffffff16021790555060208201518160000160046101000a81548163ffffffff021916908363ffffffff16021790555060408201518160000160086101000a81548163ffffffff021916908363ffffffff160217905550606082015181600001600c6101000a81548163ffffffff021916908363ffffffff1602179055509050505b50505050505050565b60007fb53127684a568b3173ae13b9f8a6016e243e63b6e8ee1178d6a717850b5d610354905090565b6000815190506200034f81620004f0565b92915050565b60008151905062000366816200050a565b92915050565b6000815190506200037d8162000524565b92915050565b60008060008060008060c087890312156200039d57600080fd5b6000620003ad89828a0162000355565b9650506020620003c089828a016200033e565b9550506040620003d389828a016200036c565b9450506060620003e689828a016200036c565b9350506080620003f989828a016200036c565b92505060a06200040c89828a016200036c565b9150509295509295509295565b6000620004286019836200047d565b91507f54494d4550444953545f4e4f545f444956495349424c455f34000000000000006000830152602082019050919050565b60006020820190508181036000830152620004768162000419565b9050919050565b600082825260208201905092915050565b60006200049b82620004c0565b9050919050565b6000819050919050565b6000620004b9826200048e565b9050919050565b600073ffffffffffffffffffffffffffffffffffffffff82169050919050565b600063ffffffff82169050919050565b620004fb81620004a2565b81146200050757600080fd5b50565b6200051581620004ac565b81146200052157600080fd5b50565b6200052f81620004e0565b81146200053b57600080fd5b50565b60805160a05160601c60c05160e051610100516101205160e01c614c60620005b16000398061292a52806129bf5280612a055280612a755280612a9f525080611c3852508061219b52508061221452508061084652806109ac5280610bf75250806108fd5280611e245250614c606000f3fe608060405234801561001057600080fd5b50600436106101005760003560e01c8063a22cb46511610097578063b92ce46711610066578063b92ce46714610295578063c5aaa0ae146102b1578063e2e9b079146102cf578063f9740c75146102eb57610100565b8063a22cb465146101fc578063a4c0ed3614610218578063aba789f514610248578063afc823701461027957610100565b80636adc09e5116100d35780636adc09e51461018a5780637ba423fb146101a65780637cef64d8146101c25780639eca672c146101e057610100565b8063112e68511461010557806334efcb8e146101215780633f97e3ff1461015257806361f018c01461016e575b600080fd5b61011f600480360381019061011a9190613b7b565b61031d565b005b61013b60048036038101906101369190613a9f565b610335565b60405161014992919061496e565b60405180910390f35b61016c600480360381019061016791906138bc565b610428565b005b61018860048036038101906101839190613945565b610548565b005b6101a4600480360381019061019f9190613a16565b61066b565b005b6101c060048036038101906101bb9190613ac8565b61082d565b005b6101ca6108f9565b6040516101d7919061461d565b60405180910390f35b6101fa60048036038101906101f59190613757565b610921565b005b610216600480360381019061021191906137d8565b610ae9565b005b610232600480360381019061022d9190613850565b610bf3565b60405161023f9190614602565b60405180910390f35b610262600480360381019061025d91906139a8565b610cae565b6040516102709291906145d2565b60405180910390f35b610293600480360381019061028e9190613814565b610ed3565b005b6102af60048036038101906102aa9190613b04565b61103b565b005b6102b9611057565b6040516102c69190614953565b60405180910390f35b6102e960048036038101906102e49190613780565b611109565b005b61030560048036038101906103009190613a9f565b611228565b6040516103149392919061459b565b60405180910390f35b6103306103286112bf565b8484846112c7565b505050565b61033d6134a3565b6103456134fc565b600061035084611640565b90506000806103728360000160189054906101000a900463ffffffff1661165b565b915091506040518060a001604052808460000160009054906101000a900473ffffffffffffffffffffffffffffffffffffffff1673ffffffffffffffffffffffffffffffffffffffff1681526020018460000160149054906101000a900463ffffffff1663ffffffff1681526020018263ffffffff16815260200184600001601c9054906101000a900463ffffffff1663ffffffff168152602001831515815250945061041e8661169a565b9350505050915091565b60006104326112bf565b90508673ffffffffffffffffffffffffffffffffffffffff168173ffffffffffffffffffffffffffffffffffffffff161461053157600360008873ffffffffffffffffffffffffffffffffffffffff1673ffffffffffffffffffffffffffffffffffffffff16815260200190815260200160002060008273ffffffffffffffffffffffffffffffffffffffff1673ffffffffffffffffffffffffffffffffffffffff16815260200190815260200160002060009054906101000a900460ff16610530576040517f08c379a0000000000000000000000000000000000000000000000000000000008152600401610527906148d3565b60405180910390fd5b5b61053f878787878787611799565b50505050505050565b60006105526112bf565b90508473ffffffffffffffffffffffffffffffffffffffff168173ffffffffffffffffffffffffffffffffffffffff161461065157600360008673ffffffffffffffffffffffffffffffffffffffff1673ffffffffffffffffffffffffffffffffffffffff16815260200190815260200160002060008273ffffffffffffffffffffffffffffffffffffffff1673ffffffffffffffffffffffffffffffffffffffff16815260200190815260200160002060009054906101000a900460ff16610650576040517f08c379a0000000000000000000000000000000000000000000000000000000008152600401610647906148d3565b60405180910390fd5b5b61066461065c6112bf565b8585856112c7565b5050505050565b6000610675611b70565b9050600073ffffffffffffffffffffffffffffffffffffffff168173ffffffffffffffffffffffffffffffffffffffff1614156106e85773ffffffffffffffffffffffffffffffffffffffff7fb53127684a568b3173ae13b9f8a6016e243e63b6e8ee1178d6a717850b5d610355610721565b8073ffffffffffffffffffffffffffffffffffffffff163373ffffffffffffffffffffffffffffffffffffffff161461072057600080fd5b5b6000600460000160009054906101000a900463ffffffff1663ffffffff161415610824576040518060800160405280600c63ffffffff168152602001600c63ffffffff168152602001600c63ffffffff168152602001600c63ffffffff16815250600460008201518160000160006101000a81548163ffffffff021916908363ffffffff16021790555060208201518160000160046101000a81548163ffffffff021916908363ffffffff16021790555060408201518160000160086101000a81548163ffffffff021916908363ffffffff160217905550606082015181600001600c6101000a81548163ffffffff021916908363ffffffff1602179055509050505b50505050505050565b60006108376112bf565b9050610844818385611b99565b7f000000000000000000000000000000000000000000000000000000000000000073ffffffffffffffffffffffffffffffffffffffff166323b872dd8230856040518463ffffffff1660e01b81526004016108a19392919061453b565b602060405180830381600087803b1580156108bb57600080fd5b505af11580156108cf573d6000803e3d6000fd5b505050506040513d601f19601f820116820180604052508101906108f391906139ed565b50505050565b60007f0000000000000000000000000000000000000000000000000000000000000000905090565b6000600260008373ffffffffffffffffffffffffffffffffffffffff1673ffffffffffffffffffffffffffffffffffffffff1681526020019081526020016000205490506000600260008473ffffffffffffffffffffffffffffffffffffffff1673ffffffffffffffffffffffffffffffffffffffff168152602001908152602001600020819055507f000000000000000000000000000000000000000000000000000000000000000073ffffffffffffffffffffffffffffffffffffffff1663a9059cbb83836040518363ffffffff1660e01b8152600401610a05929190614572565b602060405180830381600087803b158015610a1f57600080fd5b505af1158015610a33573d6000803e3d6000fd5b505050506040513d601f19601f82011682018060405250810190610a5791906139ed565b610a96576040517f08c379a0000000000000000000000000000000000000000000000000000000008152600401610a8d90614773565b60405180910390fd5b8173ffffffffffffffffffffffffffffffffffffffff167f4d135695228631e73b5a31e6fc8af4e5825cde63774c3c48695b4af814d7b0196000604051610add9190614638565b60405180910390a25050565b6000610af36112bf565b905081600360008373ffffffffffffffffffffffffffffffffffffffff1673ffffffffffffffffffffffffffffffffffffffff16815260200190815260200160002060008573ffffffffffffffffffffffffffffffffffffffff1673ffffffffffffffffffffffffffffffffffffffff16815260200190815260200160002060006101000a81548160ff0219169083151502179055508273ffffffffffffffffffffffffffffffffffffffff168173ffffffffffffffffffffffffffffffffffffffff167f17307eab39ab6107e8899845ad3d59bd9653f200f220920489ca2b5937696c3184604051610be69190614602565b60405180910390a3505050565b60007f000000000000000000000000000000000000000000000000000000000000000073ffffffffffffffffffffffffffffffffffffffff163373ffffffffffffffffffffffffffffffffffffffff1614610c83576040517f08c379a0000000000000000000000000000000000000000000000000000000008152600401610c7a906146d3565b60405180910390fd5b60008383810190610c949190613a9f565b9050610ca1868683611b99565b6001915050949350505050565b6060610cb861355d565b8383905067ffffffffffffffff81118015610cd257600080fd5b50604051908082528060200260200182016040528015610d0c57816020015b610cf96134a3565b815260200190600190039081610cf15790505b50915060005b84849050811015610e24576000610d3a868684818110610d2e57fe5b90506020020135611640565b9050600080610d5c8360000160189054906101000a900463ffffffff1661165b565b915091506040518060a001604052808460000160009054906101000a900473ffffffffffffffffffffffffffffffffffffffff1673ffffffffffffffffffffffffffffffffffffffff1681526020018460000160149054906101000a900463ffffffff1663ffffffff1681526020018263ffffffff16815260200184600001601c9054906101000a900463ffffffff1663ffffffff168152602001831515815250868581518110610e0957fe5b60200260200101819052505050508080600101915050610d12565b5060046040518060800160405290816000820160009054906101000a900463ffffffff1663ffffffff1663ffffffff1681526020016000820160049054906101000a900463ffffffff1663ffffffff1663ffffffff1681526020016000820160089054906101000a900463ffffffff1663ffffffff1663ffffffff16815260200160008201600c9054906101000a900463ffffffff1663ffffffff1663ffffffff168152505090509250929050565b6000610ede82611640565b90508060000160009054906101000a900473ffffffffffffffffffffffffffffffffffffffff1673ffffffffffffffffffffffffffffffffffffffff168373ffffffffffffffffffffffffffffffffffffffff1614610f72576040517f08c379a0000000000000000000000000000000000000000000000000000000008152600401610f6990614873565b60405180910390fd5b60008160000160149054906101000a900463ffffffff1663ffffffff1614610fcf576040517f08c379a0000000000000000000000000000000000000000000000000000000008152600401610fc6906146b3565b60405180910390fd5b428160000160146101000a81548163ffffffff021916908363ffffffff160217905550818373ffffffffffffffffffffffffffffffffffffffff167fb9182e4e152947f1e6691fa0ee6f68f21f607fed825945c270e69995acad805f60405160405180910390a3505050565b6110506110466112bf565b8686868686611799565b5050505050565b61105f61355d565b60046040518060800160405290816000820160009054906101000a900463ffffffff1663ffffffff1663ffffffff1681526020016000820160049054906101000a900463ffffffff1663ffffffff1663ffffffff1681526020016000820160089054906101000a900463ffffffff1663ffffffff1663ffffffff16815260200160008201600c9054906101000a900463ffffffff1663ffffffff1663ffffffff1681525050905090565b60005b8282905081101561121957600061113484848481811061112857fe5b90506020020135611640565b90506111538160000160149054906101000a900463ffffffff16611c24565b1561120b578060000160009054906101000a900473ffffffffffffffffffffffffffffffffffffffff1673ffffffffffffffffffffffffffffffffffffffff168573ffffffffffffffffffffffffffffffffffffffff16146111ea576040517f08c379a00000000000000000000000000000000000000000000000000000000081526004016111e190614873565b60405180910390fd5b61120a8484848181106111f957fe5b905060200201358683600080611c69565b5b50808060010191505061110c565b5061122383610921565b505050565b60008060006001600085815260200190815260200160002060000160149054906101000a900463ffffffff1691506001600085815260200190815260200160002060000160189054906101000a900463ffffffff1690506001600085815260200190815260200160002060000160009054906101000a900473ffffffffffffffffffffffffffffffffffffffff1692509193909250565b600033905090565b60006112d284611640565b905060008160000160149054906101000a900463ffffffff1663ffffffff1614611331576040517f08c379a0000000000000000000000000000000000000000000000000000000008152600401611328906146f3565b60405180910390fd5b8060000160009054906101000a900473ffffffffffffffffffffffffffffffffffffffff1673ffffffffffffffffffffffffffffffffffffffff168573ffffffffffffffffffffffffffffffffffffffff16146113c3576040517f08c379a00000000000000000000000000000000000000000000000000000000081526004016113ba90614753565b60405180910390fd5b60006113ce85611e20565b905060006113db82611e72565b90506000806114198560000160189054906101000a900463ffffffff1686600001601c9054906101000a900463ffffffff1663ffffffff1685611eb4565b915091508663ffffffff168163ffffffff16101561146c576040517f08c379a000000000000000000000000000000000000000000000000000000000815260040161146390614853565b60405180910390fd5b6000429050600088830390506114828482611f23565b8760000160186101000a81548163ffffffff021916908363ffffffff1602179055508187600001601c6101000a81548163ffffffff021916908363ffffffff1602179055506000888b6040516020016114dc92919061450f565b6040516020818303038152906040528051906020012060001c905060405180606001604052808d73ffffffffffffffffffffffffffffffffffffffff1681526020018463ffffffff1681526020018b63ffffffff168152506001600083815260200190815260200160002060008201518160000160006101000a81548173ffffffffffffffffffffffffffffffffffffffff021916908373ffffffffffffffffffffffffffffffffffffffff16021790555060208201518160000160146101000a81548163ffffffff021916908363ffffffff16021790555060408201518160000160186101000a81548163ffffffff021916908363ffffffff1602179055509050508a8c73ffffffffffffffffffffffffffffffffffffffff167fd7da2af85ac97f64039a5304a609fe0eb346f04985c4fd55e0d9b10b8b886ee7838d8660405161162a939291906149b3565b60405180910390a3505050505050505050505050565b60008060008381526020019081526020016000209050919050565b600080638000000063ffffffff166380000000841663ffffffff16149150638000000063ffffffff168363ffffffff168161169257fe5b069050915091565b6116a26134fc565b60006116ad83611e20565b90506116b881611f41565b6116f7576040517f08c379a00000000000000000000000000000000000000000000000000000000081526004016116ee90614733565b60405180910390fd5b60008061170383611f67565b915091506040518061010001604052808360000b81526020018260000b815260200161172e85611fa7565b61ffff16815260200161174085611e72565b61ffff16815260200161175285611fe8565b61ffff16815260200161176485612010565b61ffff16815260200161177685612038565b61ffff16815260200161178885612060565b61ffff168152509350505050919050565b6117a161359d565b600160008781526020019081526020016000206040518060600160405290816000820160009054906101000a900473ffffffffffffffffffffffffffffffffffffffff1673ffffffffffffffffffffffffffffffffffffffff1673ffffffffffffffffffffffffffffffffffffffff1681526020016000820160149054906101000a900463ffffffff1663ffffffff1663ffffffff1681526020016000820160189054906101000a900463ffffffff1663ffffffff1663ffffffff16815250509050806000015173ffffffffffffffffffffffffffffffffffffffff168773ffffffffffffffffffffffffffffffffffffffff16146118d5576040517f08c379a00000000000000000000000000000000000000000000000000000000081526004016118cc90614713565b60405180910390fd5b8582856040516020016118e992919061450f565b604051602081830303815290604052805190602001208660405160200161191192919061450f565b6040516020818303038152906040528051906020012060001c1461196a576040517f08c379a000000000000000000000000000000000000000000000000000000000815260040161196190614673565b60405180910390fd5b6000816040015163ffffffff16116119b7576040517f08c379a00000000000000000000000000000000000000000000000000000000081526004016119ae90614693565b60405180910390fd5b6119bf6135e0565b6119c885611640565b6040518060800160405290816000820160009054906101000a900473ffffffffffffffffffffffffffffffffffffffff1673ffffffffffffffffffffffffffffffffffffffff1673ffffffffffffffffffffffffffffffffffffffff1681526020016000820160149054906101000a900463ffffffff1663ffffffff1663ffffffff1681526020016000820160189054906101000a900463ffffffff1663ffffffff1663ffffffff16815260200160008201601c9054906101000a900463ffffffff1663ffffffff1663ffffffff168152505090506000611ab0611aab87611e20565b611e72565b9050611abd858888612088565b611acc8588856020015161217f565b8873ffffffffffffffffffffffffffffffffffffffff16826000015173ffffffffffffffffffffffffffffffffffffffff161415611b1b57611b16898388848c886040015161227c565b611b2f565b611b2e89888489858d89604001516123ed565b5b6000600160008a815260200190815260200160002060000160186101000a81548163ffffffff021916908363ffffffff160217905550505050505050505050565b60007fb53127684a568b3173ae13b9f8a6016e243e63b6e8ee1178d6a717850b5d610354905090565b611ba58160001b6126e0565b6000611bb082611e20565b9050670de0b6b3a7640000611bc482611fa7565b61ffff16028314611c0a576040517f08c379a0000000000000000000000000000000000000000000000000000000008152600401611c01906148f3565b60405180910390fd5b611c15848383612779565b611c1e82612b71565b50505050565b6000808263ffffffff16118015611c6257507f00000000000000000000000000000000000000000000000000000000000000008263ffffffff160142115b9050919050565b6000611c7486611e20565b90506000611c8182611fa7565b905060008560000160146101000a81548163ffffffff021916908363ffffffff160217905550838560000160006101000a81548173ffffffffffffffffffffffffffffffffffffffff021916908373ffffffffffffffffffffffffffffffffffffffff1602179055504285600001601c6101000a81548163ffffffff021916908363ffffffff160217905550828560000160186101000a81548163ffffffff021916908363ffffffff1602179055506000670de0b6b3a76400008261ffff1602600260008973ffffffffffffffffffffffffffffffffffffffff1673ffffffffffffffffffffffffffffffffffffffff1681526020019081526020016000205401905080600260008973ffffffffffffffffffffffffffffffffffffffff1673ffffffffffffffffffffffffffffffffffffffff168152602001908152602001600020819055508673ffffffffffffffffffffffffffffffffffffffff167f4d135695228631e73b5a31e6fc8af4e5825cde63774c3c48695b4af814d7b01982604051611e0e9190614998565b60405180910390a25050505050505050565b60007f000000000000000000000000000000000000000000000000000000000000000082604051602001611e5592919061450f565b604051602081830303815290604052805190602001209050919050565b6000611ead600c7f0708083409600a8c0bb80ce40e100e100e100e101068151819c81e7823282ee060001b84612f919092919063ffffffff16565b9050919050565b600080611ec08561165b565b80925081935050508115611f1b57600084420390506000610e108561ffff16830281611ee857fe5b048363ffffffff16019050638000000063ffffffff168110611f1557600163800000000363ffffffff1690505b80925050505b935093915050565b60008183611f32576000611f38565b63800000005b01905092915050565b60006001611f5c6034601085612fea9092919063ffffffff16565b60ff16149050919050565b600080611f816000600385612fea9092919063ffffffff16565b6001039150611f9d6002600385612fea9092919063ffffffff16565b6001039050915091565b6000611fe160047e0400050005000a000a000f000f00140014001e001e0028002800500050006460001b84612f919092919063ffffffff16565b9050919050565b600061019061200160148461300b90919063ffffffff16565b60ff1602610fa0019050919050565b6000610190612029601c8461300b90919063ffffffff16565b60ff1602610fa0019050919050565b600061014d61205160248461300b90919063ffffffff16565b60ff160261138d019050919050565b6000610bb8612079602c8461300b90919063ffffffff16565b60ff1602613a98019050919050565b60008061209c61209785611e20565b611f67565b915091506000806120b46120af86611e20565b611f67565b91509150600060028460000b600460808a901c02018360000b600460808a901c020103600f0b0a60028660000b60046fffffffffffffffffffffffffffffffff8b1602018560000b60046fffffffffffffffffffffffffffffffff8b16020103600f0b0a01600f0b9050806002890a1115801561213657506002600189010a81105b612175576040517f08c379a000000000000000000000000000000000000000000000000000000000815260040161216c906148b3565b60405180910390fd5b5050505050505050565b600061219261218d84611e20565b612038565b61ffff166127107f0000000000000000000000000000000000000000000000000000000000000000028502816121c457fe5b048263ffffffff1601905080421015612212576040517f08c379a000000000000000000000000000000000000000000000000000000000815260040161220990614893565b60405180910390fd5b7f000000000000000000000000000000000000000000000000000000000000000081014210612276576040517f08c379a000000000000000000000000000000000000000000000000000000000815260040161226d90614813565b60405180910390fd5b50505050565b6122898560200151611c24565b15612305576122b08486600001516000808881526020019081526020016000208985611c69565b83828773ffffffffffffffffffffffffffffffffffffffff167f5ae4a32f52da37ce71ffbd586b7a6d06204ca2720e32e7009caf394f866eb1ea846040516122f891906149ea565b60405180910390a46123e5565b6000806123218760400151886060015163ffffffff1687611eb4565b91509150600083820163ffffffff169050638000000063ffffffff16811061235457600163800000000363ffffffff1690505b61235e8382611f23565b60008089815260200190815260200160002060000160186101000a81548163ffffffff021916908363ffffffff16021790555086858a73ffffffffffffffffffffffffffffffffffffffff167f5ae4a32f52da37ce71ffbd586b7a6d06204ca2720e32e7009caf394f866eb1ea846040516123d991906149ea565b60405180910390a45050505b505050505050565b60006123f885611e20565b90506000866060015163ffffffff16141561261757600061242061241b89611e20565b611fe8565b9050600061242d83612010565b9050600061243a84612060565b905060008061245d8763ffffffff168461ffff168761ffff168761ffff166130b7565b915091508261ffff168163ffffffff1614801561248557508163ffffffff168763ffffffff16115b156125b4576000828803905061249c600082611f23565b6000808d815260200190815260200160002060000160186101000a81548163ffffffff021916908363ffffffff160217905550426000808d8152602001908152602001600020600001601c6101000a81548163ffffffff021916908363ffffffff1602179055508d6000808d815260200190815260200160002060000160006101000a81548173ffffffffffffffffffffffffffffffffffffffff021916908373ffffffffffffffffffffffffffffffffffffffff1602179055508a898f73ffffffffffffffffffffffffffffffffffffffff167ffbcd6656e9b46595bb8f8f32a788f85a157ecee2038db17a4fd65d98c0cc2b6986866001876040516125a69493929190614a4a565b60405180910390a45061260d565b89888e73ffffffffffffffffffffffffffffffffffffffff167ffbcd6656e9b46595bb8f8f32a788f85a157ecee2038db17a4fd65d98c0cc2b698560008060006040516126049493929190614a05565b60405180910390a45b50505050506126d6565b6126248660200151611c24565b156126a05761264b8587600001516000808981526020019081526020016000208b86611c69565b84838973ffffffffffffffffffffffffffffffffffffffff167f5ae4a32f52da37ce71ffbd586b7a6d06204ca2720e32e7009caf394f866eb1ea8560405161269391906149ea565b60405180910390a46126d5565b60006126b36126ae89611e20565b611fe8565b905060006126c083612010565b90506126d28a83838b8b8b8b8b613174565b50505b5b5050505050505050565b61277681604051602401808281526020019150506040516020818303038152906040527f27b7cf85000000000000000000000000000000000000000000000000000000007bffffffffffffffffffffffffffffffffffffffffffffffffffffffff19166020820180517bffffffffffffffffffffffffffffffffffffffffffffffffffffffff8381831617835250505050613460565b50565b600061278483611640565b905060008160000160009054906101000a900473ffffffffffffffffffffffffffffffffffffffff169050600082600001601c9054906101000a900463ffffffff16905060008360000160189054906101000a900463ffffffff16905060008460000160149054906101000a900463ffffffff169050600080612816848663ffffffff166128118b611e72565b611eb4565b9150915060008060008763ffffffff161415612840576128358a612060565b61ffff169050612922565b60008563ffffffff161461289f5761285785611c24565b612896576040517f08c379a000000000000000000000000000000000000000000000000000000000815260040161288d906147f3565b60405180910390fd5b60019150612921565b83156128e0576040517f08c379a00000000000000000000000000000000000000000000000000000000081526004016128d790614793565b60405180910390fd5b8b73ffffffffffffffffffffffffffffffffffffffff168873ffffffffffffffffffffffffffffffffffffffff161461291b57829050612920565b600090505b5b5b8115612967577f000000000000000000000000000000000000000000000000000000000000000092506129628b898b8f61295d600189611f23565b611c69565b612b14565b8b8960000160006101000a81548173ffffffffffffffffffffffffffffffffffffffff021916908373ffffffffffffffffffffffffffffffffffffffff16021790555060008163ffffffff1614612a9d576000612a007f000000000000000000000000000000000000000000000000000000000000000063ffffffff168363ffffffff166127106129f78f612010565b61ffff166130b7565b5090507f000000000000000000000000000000000000000000000000000000000000000063ffffffff168163ffffffff161115612a72576040517f08c379a0000000000000000000000000000000000000000000000000000000008152600401612a69906147b3565b60405180910390fd5b807f000000000000000000000000000000000000000000000000000000000000000003935050612ac3565b7f0000000000000000000000000000000000000000000000000000000000000000830192505b612ace600184611f23565b8960000160186101000a81548163ffffffff021916908363ffffffff1602179055504289600001601c6101000a81548163ffffffff021916908363ffffffff1602179055505b8a8c73ffffffffffffffffffffffffffffffffffffffff167f2a71ecd53ebaf1eabe3c13c9f5d7e094b90eb780d3f6f658a4feb23db632a96c85604051612b5b91906149ea565b60405180910390a3505050505050505050505050565b612b7961355d565b60046040518060800160405290816000820160009054906101000a900463ffffffff1663ffffffff1663ffffffff1681526020016000820160049054906101000a900463ffffffff1663ffffffff1663ffffffff1681526020016000820160089054906101000a900463ffffffff1663ffffffff1663ffffffff16815260200160008201600c9054906101000a900463ffffffff1663ffffffff1663ffffffff1681525050905060006fffffffffffffffffffffffffffffffff8316600f0b90506000608084901c600f0b9050600080831215612cf757836000015163ffffffff16836000031315612ca0576040517f08c379a0000000000000000000000000000000000000000000000000000000008152600401612c9790614833565b60405180910390fd5b60068360000301925063ffffffff831315612cbd5763ffffffff92505b8263ffffffff16846000015163ffffffff161015612cf25782846000019063ffffffff16908163ffffffff1681525050600190505b612d94565b836020015163ffffffff16831315612d44576040517f08c379a0000000000000000000000000000000000000000000000000000000008152600401612d3b906147d3565b60405180910390fd5b60068301925063ffffffff831315612d5e5763ffffffff92505b8263ffffffff16846020015163ffffffff161015612d935782846020019063ffffffff16908163ffffffff1681525050600190505b5b6000821215612e4457836040015163ffffffff16826000031315612ded576040517f08c379a0000000000000000000000000000000000000000000000000000000008152600401612de490614653565b60405180910390fd5b60068260000301915063ffffffff821315612e0a5763ffffffff91505b8163ffffffff16846040015163ffffffff161015612e3f5781846040019063ffffffff16908163ffffffff1681525050600190505b612ee1565b836060015163ffffffff16821315612e91576040517f08c379a0000000000000000000000000000000000000000000000000000000008152600401612e8890614913565b60405180910390fd5b60068201915063ffffffff821315612eab5763ffffffff91505b8163ffffffff16846060015163ffffffff161015612ee05781846060019063ffffffff16908163ffffffff1681525050600190505b5b8015612f8a5783600460008201518160000160006101000a81548163ffffffff021916908363ffffffff16021790555060208201518160000160046101000a81548163ffffffff021916908363ffffffff16021790555060408201518160000160086101000a81548163ffffffff021916908363ffffffff160217905550606082015181600001600c6101000a81548163ffffffff021916908363ffffffff1602179055509050505b5050505050565b600080612f9e858561300b565b9050826001600283020160ff1660208110612fb557fe5b1a60f81b60f81c60ff16610100846002840260ff1660208110612fd457fe5b1a60f81b60f81c60ff1602019150509392505050565b60008160ff168360ff1685901c60001c8161300157fe5b0690509392505050565b60008061301a84846040612fea565b9050600060028260ff168161302b57fe5b049050600060028360ff168161303d57fe5b06905060007f01223334444555555666666677777777888888889999999aaaaaabbbbcccddef60001b8360ff166020811061307457fe5b1a60f81b60f81c905060008260ff16141561309c5760048160ff16901c9450505050506130b1565b60108160ff16816130a957fe5b069450505050505b92915050565b60008060008487029050600084870290506000826305f5e1008902816130d957fe5b0490506305f5e100880283820210156130f55780806001019150505b6000826305f5e1008b028161310657fe5b0490506305f5e1008a0283820210156131225780806001019150505b600061312e8383613489565b90506131496305f5e1008583028161314257fe5b048c613489565b96506131646305f5e1008683028161315d57fe5b048b613489565b9550505050505094509492505050565b6000806131908760400151886060015163ffffffff1687611eb4565b915091506000806131b78563ffffffff168463ffffffff168d61ffff168d61ffff166130b7565b915091508463ffffffff168263ffffffff1614156132a457600081840390506131e08582611f23565b6000808b815260200190815260200160002060000160186101000a81548163ffffffff021916908363ffffffff160217905550426000808b8152602001908152602001600020600001601c6101000a81548163ffffffff021916908363ffffffff16021790555088878e73ffffffffffffffffffffffffffffffffffffffff167ffbcd6656e9b46595bb8f8f32a788f85a157ecee2038db17a4fd65d98c0cc2b6986866000876040516132969493929190614a4a565b60405180910390a450613452565b8263ffffffff168163ffffffff16141561341657600082860390508c6000808b815260200190815260200160002060000160006101000a81548173ffffffffffffffffffffffffffffffffffffffff021916908373ffffffffffffffffffffffffffffffffffffffff16021790555060008060008b815260200190815260200160002060000160146101000a81548163ffffffff021916908363ffffffff1602179055506133528582611f23565b6000808b815260200190815260200160002060000160186101000a81548163ffffffff021916908363ffffffff160217905550426000808b8152602001908152602001600020600001601c6101000a81548163ffffffff021916908363ffffffff16021790555088878e73ffffffffffffffffffffffffffffffffffffffff167ffbcd6656e9b46595bb8f8f32a788f85a157ecee2038db17a4fd65d98c0cc2b6986866001876040516134089493929190614a4a565b60405180910390a450613451565b6040517f08c379a000000000000000000000000000000000000000000000000000000000815260040161344890614933565b60405180910390fd5b5b505050505050505050505050565b60008151905060006a636f6e736f6c652e6c6f679050602083016000808483855afa5050505050565b600081831115613499578161349b565b825b905092915050565b6040518060a00160405280600073ffffffffffffffffffffffffffffffffffffffff168152602001600063ffffffff168152602001600063ffffffff168152602001600063ffffffff1681526020016000151581525090565b6040518061010001604052806000800b81526020016000800b8152602001600061ffff168152602001600061ffff168152602001600061ffff168152602001600061ffff168152602001600061ffff168152602001600061ffff1681525090565b6040518060800160405280600063ffffffff168152602001600063ffffffff168152602001600063ffffffff168152602001600063ffffffff1681525090565b6040518060600160405280600073ffffffffffffffffffffffffffffffffffffffff168152602001600063ffffffff168152602001600063ffffffff1681525090565b6040518060800160405280600073ffffffffffffffffffffffffffffffffffffffff168152602001600063ffffffff168152602001600063ffffffff168152602001600063ffffffff1681525090565b60008135905061363f81614ba0565b92915050565b60008083601f84011261365757600080fd5b8235905067ffffffffffffffff81111561367057600080fd5b60208301915083602082028301111561368857600080fd5b9250929050565b60008135905061369e81614bb7565b92915050565b6000815190506136b381614bb7565b92915050565b6000813590506136c881614bce565b92915050565b60008083601f8401126136e057600080fd5b8235905067ffffffffffffffff8111156136f957600080fd5b60208301915083600182028301111561371157600080fd5b9250929050565b60008135905061372781614be5565b92915050565b60008135905061373c81614bfc565b92915050565b60008135905061375181614c13565b92915050565b60006020828403121561376957600080fd5b600061377784828501613630565b91505092915050565b60008060006040848603121561379557600080fd5b60006137a386828701613630565b935050602084013567ffffffffffffffff8111156137c057600080fd5b6137cc86828701613645565b92509250509250925092565b600080604083850312156137eb57600080fd5b60006137f985828601613630565b925050602061380a8582860161368f565b9150509250929050565b6000806040838503121561382757600080fd5b600061383585828601613630565b92505060206138468582860161372d565b9150509250929050565b6000806000806060858703121561386657600080fd5b600061387487828801613630565b94505060206138858782880161372d565b935050604085013567ffffffffffffffff8111156138a257600080fd5b6138ae878288016136ce565b925092505092959194509250565b60008060008060008060c087890312156138d557600080fd5b60006138e389828a01613630565b96505060206138f489828a0161372d565b955050604061390589828a0161372d565b945050606061391689828a0161372d565b935050608061392789828a0161372d565b92505060a061393889828a016136b9565b9150509295509295509295565b6000806000806080858703121561395b57600080fd5b600061396987828801613630565b945050602061397a8782880161372d565b935050604061398b87828801613742565b925050606061399c878288016136b9565b91505092959194509250565b600080602083850312156139bb57600080fd5b600083013567ffffffffffffffff8111156139d557600080fd5b6139e185828601613645565b92509250509250929050565b6000602082840312156139ff57600080fd5b6000613a0d848285016136a4565b91505092915050565b60008060008060008060c08789031215613a2f57600080fd5b6000613a3d89828a01613718565b9650506020613a4e89828a016136b9565b9550506040613a5f89828a01613742565b9450506060613a7089828a01613742565b9350506080613a8189828a01613742565b92505060a0613a9289828a01613742565b9150509295509295509295565b600060208284031215613ab157600080fd5b6000613abf8482850161372d565b91505092915050565b60008060408385031215613adb57600080fd5b6000613ae98582860161372d565b9250506020613afa8582860161372d565b9150509250929050565b600080600080600060a08688031215613b1c57600080fd5b6000613b2a8882890161372d565b9550506020613b3b8882890161372d565b9450506040613b4c8882890161372d565b9350506060613b5d8882890161372d565b9250506080613b6e888289016136b9565b9150509295509295909350565b600080600060608486031215613b9057600080fd5b6000613b9e8682870161372d565b9350506020613baf86828701613742565b9250506040613bc0868287016136b9565b9150509250925092565b6000613bd6838361434a565b60a08301905092915050565b613beb81614ad9565b82525050565b613bfa81614ad9565b82525050565b6000613c0b82614a9f565b613c158185614ab7565b9350613c2083614a8f565b8060005b83811015613c51578151613c388882613bca565b9750613c4383614aaa565b925050600181019050613c24565b5085935050505092915050565b613c6781614aeb565b82525050565b613c7681614aeb565b82525050565b613c8581614af7565b82525050565b613c9c613c9782614af7565b614b8c565b82525050565b613cab81614b13565b82525050565b613cba81614b68565b82525050565b613cc981614b7a565b82525050565b6000613cdc601683614ac8565b91507f4e4f545f524541434841424c455f5945545f4d494e59000000000000000000006000830152602082019050919050565b6000613d1c602083614ac8565b91507f696e76616c69642027746f272c202766726f6d27206f722027736563726574276000830152602082019050919050565b6000613d5c600783614ac8565b91507f6e6f206d6f7265000000000000000000000000000000000000000000000000006000830152602082019050919050565b6000613d9c600f83614ac8565b91507f45584954494e475f414c524541445900000000000000000000000000000000006000830152602082019050919050565b6000613ddc600d83614ac8565b91507f494e56414c49445f4552433230000000000000000000000000000000000000006000830152602082019050919050565b6000613e1c600b83614ac8565b91507f504c414e45545f455849540000000000000000000000000000000000000000006000830152602082019050919050565b6000613e5c601283614ac8565b91507f6e6f74206f776e6572206f6620666c65657400000000000000000000000000006000830152602082019050919050565b6000613e9c601a83614ac8565b91507f6e6f20706c616e657420696e2074686973206c6f636174696f6e0000000000006000830152602082019050919050565b6000613edc601783614ac8565b91507f6e6f74206f776e6572206f662074686520706c616e65740000000000000000006000830152602082019050919050565b6000613f1c600f83614ac8565b91507f4641494c45445f5452414e5346455200000000000000000000000000000000006000830152602082019050919050565b6000613f5c600c83614ac8565b91507f5354494c4c5f41435449564500000000000000000000000000000000000000006000830152602082019050919050565b6000613f9c600f83614ac8565b91507f4641494c45445f434150545552454400000000000000000000000000000000006000830152602082019050919050565b6000613fdc601683614ac8565b91507f4e4f545f524541434841424c455f5945545f4d415858000000000000000000006000830152602082019050919050565b600061401c600d83614ac8565b91507f5354494c4c5f45584954494e47000000000000000000000000000000000000006000830152602082019050919050565b600061405c602b83614ac8565b91507f746f6f206c6174652c20796f7572207370616365736869707320617265206c6f60008301527f737420696e2073706163650000000000000000000000000000000000000000006020830152604082019050919050565b60006140c2601683614ac8565b91507f4e4f545f524541434841424c455f5945545f4d494e58000000000000000000006000830152602082019050919050565b6000614102601583614ac8565b91507f6e6f7420656e6f756768207370616365736869707300000000000000000000006000830152602082019050919050565b6000614142600983614ac8565b91507f4e4f545f4f574e455200000000000000000000000000000000000000000000006000830152602082019050919050565b6000614182600983614ac8565b91507f746f6f206561726c7900000000000000000000000000000000000000000000006000830152602082019050919050565b60006141c2600e83614ac8565b91507f77726f6e672064697374616e63650000000000000000000000000000000000006000830152602082019050919050565b6000614202600e83614ac8565b91507f4e4f545f415554484f52495a45440000000000000000000000000000000000006000830152602082019050919050565b6000614242600e83614ac8565b91507f494e56414c49445f414d4f554e540000000000000000000000000000000000006000830152602082019050919050565b6000614282601683614ac8565b91507f4e4f545f524541434841424c455f5945545f4d415859000000000000000000006000830152602082019050919050565b60006142c2600a83614ac8565b91507f6e6f626f647920776f6e000000000000000000000000000000000000000000006000830152602082019050919050565b60808201600082015161430b60008501826144f1565b50602082015161431e60208501826144f1565b50604082015161433160408501826144f1565b50606082015161434460608501826144f1565b50505050565b60a0820160008201516143606000850182613be2565b50602082015161437360208501826144f1565b50604082015161438660408501826144f1565b50606082015161439960608501826144f1565b5060808201516143ac6080850182613c5e565b50505050565b60a0820160008201516143c86000850182613be2565b5060208201516143db60208501826144f1565b5060408201516143ee60408501826144f1565b50606082015161440160608501826144f1565b5060808201516144146080850182613c5e565b50505050565b610100820160008201516144316000850182613ca2565b5060208201516144446020850182613ca2565b50604082015161445760408501826144bc565b50606082015161446a60608501826144bc565b50608082015161447d60808501826144bc565b5060a082015161449060a08501826144bc565b5060c08201516144a360c08501826144bc565b5060e08201516144b660e08501826144bc565b50505050565b6144c581614b20565b82525050565b6144d481614b4e565b82525050565b6144eb6144e682614b4e565b614b96565b82525050565b6144fa81614b58565b82525050565b61450981614b58565b82525050565b600061451b8285613c8b565b60208201915061452b82846144da565b6020820191508190509392505050565b60006060820190506145506000830186613bf1565b61455d6020830185613bf1565b61456a60408301846144cb565b949350505050565b60006040820190506145876000830185613bf1565b61459460208301846144cb565b9392505050565b60006060820190506145b06000830186613bf1565b6145bd6020830185614500565b6145ca6040830184614500565b949350505050565b600060a08201905081810360008301526145ec8185613c00565b90506145fb60208301846142f5565b9392505050565b60006020820190506146176000830184613c6d565b92915050565b60006020820190506146326000830184613c7c565b92915050565b600060208201905061464d6000830184613cb1565b92915050565b6000602082019050818103600083015261466c81613ccf565b9050919050565b6000602082019050818103600083015261468c81613d0f565b9050919050565b600060208201905081810360008301526146ac81613d4f565b9050919050565b600060208201905081810360008301526146cc81613d8f565b9050919050565b600060208201905081810360008301526146ec81613dcf565b9050919050565b6000602082019050818103600083015261470c81613e0f565b9050919050565b6000602082019050818103600083015261472c81613e4f565b9050919050565b6000602082019050818103600083015261474c81613e8f565b9050919050565b6000602082019050818103600083015261476c81613ecf565b9050919050565b6000602082019050818103600083015261478c81613f0f565b9050919050565b600060208201905081810360008301526147ac81613f4f565b9050919050565b600060208201905081810360008301526147cc81613f8f565b9050919050565b600060208201905081810360008301526147ec81613fcf565b9050919050565b6000602082019050818103600083015261480c8161400f565b9050919050565b6000602082019050818103600083015261482c8161404f565b9050919050565b6000602082019050818103600083015261484c816140b5565b9050919050565b6000602082019050818103600083015261486c816140f5565b9050919050565b6000602082019050818103600083015261488c81614135565b9050919050565b600060208201905081810360008301526148ac81614175565b9050919050565b600060208201905081810360008301526148cc816141b5565b9050919050565b600060208201905081810360008301526148ec816141f5565b9050919050565b6000602082019050818103600083015261490c81614235565b9050919050565b6000602082019050818103600083015261492c81614275565b9050919050565b6000602082019050818103600083015261494c816142b5565b9050919050565b600060808201905061496860008301846142f5565b92915050565b60006101a08201905061498460008301856143b2565b61499160a083018461441a565b9392505050565b60006020820190506149ad60008301846144cb565b92915050565b60006060820190506149c860008301866144cb565b6149d56020830185614500565b6149e26040830184614500565b949350505050565b60006020820190506149ff6000830184614500565b92915050565b6000608082019050614a1a6000830187614500565b614a276020830186613cc0565b614a346040830185613c6d565b614a416060830184613cc0565b95945050505050565b6000608082019050614a5f6000830187614500565b614a6c6020830186614500565b614a796040830185613c6d565b614a866060830184614500565b95945050505050565b6000819050602082019050919050565b600081519050919050565b6000602082019050919050565b600082825260208201905092915050565b600082825260208201905092915050565b6000614ae482614b2e565b9050919050565b60008115159050919050565b6000819050919050565b6000614b0c82614ad9565b9050919050565b60008160000b9050919050565b600061ffff82169050919050565b600073ffffffffffffffffffffffffffffffffffffffff82169050919050565b6000819050919050565b600063ffffffff82169050919050565b6000614b7382614b4e565b9050919050565b6000614b8582614b58565b9050919050565b6000819050919050565b6000819050919050565b614ba981614ad9565b8114614bb457600080fd5b50565b614bc081614aeb565b8114614bcb57600080fd5b50565b614bd781614af7565b8114614be257600080fd5b50565b614bee81614b01565b8114614bf957600080fd5b50565b614c0581614b4e565b8114614c1057600080fd5b50565b614c1c81614b58565b8114614c2757600080fd5b5056fea26469706673582212208a6fb6f07a8635efeb9de47a863f797ea77f61e330b4750f072c1a4748ab565764736f6c63430007050033",
  "devdoc": {
    "kind": "dev",
    "methods": {},
    "version": 1
  },
  "userdoc": {
    "kind": "user",
    "methods": {},
    "version": 1
  },
  "storageLayout": {
    "storage": [
      {
        "astId": 8658,
        "contract": "src/OuterSpace.sol:OuterSpace",
        "label": "_planets",
        "offset": 0,
        "slot": "0",
        "type": "t_mapping(t_uint256,t_struct(Planet)8692_storage)"
      },
      {
        "astId": 8662,
        "contract": "src/OuterSpace.sol:OuterSpace",
        "label": "_fleets",
        "offset": 0,
        "slot": "1",
        "type": "t_mapping(t_uint256,t_struct(Fleet)8699_storage)"
      },
      {
        "astId": 8666,
        "contract": "src/OuterSpace.sol:OuterSpace",
        "label": "_stakeReadyToBeWithdrawn",
        "offset": 0,
        "slot": "2",
        "type": "t_mapping(t_address,t_uint256)"
      },
      {
        "astId": 8672,
        "contract": "src/OuterSpace.sol:OuterSpace",
        "label": "_operators",
        "offset": 0,
        "slot": "3",
        "type": "t_mapping(t_address,t_mapping(t_address,t_bool))"
      },
      {
        "astId": 8683,
        "contract": "src/OuterSpace.sol:OuterSpace",
        "label": "_discovered",
        "offset": 0,
        "slot": "4",
        "type": "t_struct(Discovered)8681_storage"
      }
    ],
    "types": {
      "t_address": {
        "encoding": "inplace",
        "label": "address",
        "numberOfBytes": "20"
      },
      "t_bool": {
        "encoding": "inplace",
        "label": "bool",
        "numberOfBytes": "1"
      },
      "t_mapping(t_address,t_bool)": {
        "encoding": "mapping",
        "key": "t_address",
        "label": "mapping(address => bool)",
        "numberOfBytes": "32",
        "value": "t_bool"
      },
      "t_mapping(t_address,t_mapping(t_address,t_bool))": {
        "encoding": "mapping",
        "key": "t_address",
        "label": "mapping(address => mapping(address => bool))",
        "numberOfBytes": "32",
        "value": "t_mapping(t_address,t_bool)"
      },
      "t_mapping(t_address,t_uint256)": {
        "encoding": "mapping",
        "key": "t_address",
        "label": "mapping(address => uint256)",
        "numberOfBytes": "32",
        "value": "t_uint256"
      },
      "t_mapping(t_uint256,t_struct(Fleet)8699_storage)": {
        "encoding": "mapping",
        "key": "t_uint256",
        "label": "mapping(uint256 => struct OuterSpace.Fleet)",
        "numberOfBytes": "32",
        "value": "t_struct(Fleet)8699_storage"
      },
      "t_mapping(t_uint256,t_struct(Planet)8692_storage)": {
        "encoding": "mapping",
        "key": "t_uint256",
        "label": "mapping(uint256 => struct OuterSpace.Planet)",
        "numberOfBytes": "32",
        "value": "t_struct(Planet)8692_storage"
      },
      "t_struct(Discovered)8681_storage": {
        "encoding": "inplace",
        "label": "struct OuterSpace.Discovered",
        "members": [
          {
            "astId": 8674,
            "contract": "src/OuterSpace.sol:OuterSpace",
            "label": "minX",
            "offset": 0,
            "slot": "0",
            "type": "t_uint32"
          },
          {
            "astId": 8676,
            "contract": "src/OuterSpace.sol:OuterSpace",
            "label": "maxX",
            "offset": 4,
            "slot": "0",
            "type": "t_uint32"
          },
          {
            "astId": 8678,
            "contract": "src/OuterSpace.sol:OuterSpace",
            "label": "minY",
            "offset": 8,
            "slot": "0",
            "type": "t_uint32"
          },
          {
            "astId": 8680,
            "contract": "src/OuterSpace.sol:OuterSpace",
            "label": "maxY",
            "offset": 12,
            "slot": "0",
            "type": "t_uint32"
          }
        ],
        "numberOfBytes": "32"
      },
      "t_struct(Fleet)8699_storage": {
        "encoding": "inplace",
        "label": "struct OuterSpace.Fleet",
        "members": [
          {
            "astId": 8694,
            "contract": "src/OuterSpace.sol:OuterSpace",
            "label": "owner",
            "offset": 0,
            "slot": "0",
            "type": "t_address"
          },
          {
            "astId": 8696,
            "contract": "src/OuterSpace.sol:OuterSpace",
            "label": "launchTime",
            "offset": 20,
            "slot": "0",
            "type": "t_uint32"
          },
          {
            "astId": 8698,
            "contract": "src/OuterSpace.sol:OuterSpace",
            "label": "quantity",
            "offset": 24,
            "slot": "0",
            "type": "t_uint32"
          }
        ],
        "numberOfBytes": "32"
      },
      "t_struct(Planet)8692_storage": {
        "encoding": "inplace",
        "label": "struct OuterSpace.Planet",
        "members": [
          {
            "astId": 8685,
            "contract": "src/OuterSpace.sol:OuterSpace",
            "label": "owner",
            "offset": 0,
            "slot": "0",
            "type": "t_address"
          },
          {
            "astId": 8687,
            "contract": "src/OuterSpace.sol:OuterSpace",
            "label": "exitTime",
            "offset": 20,
            "slot": "0",
            "type": "t_uint32"
          },
          {
            "astId": 8689,
            "contract": "src/OuterSpace.sol:OuterSpace",
            "label": "numSpaceships",
            "offset": 24,
            "slot": "0",
            "type": "t_uint32"
          },
          {
            "astId": 8691,
            "contract": "src/OuterSpace.sol:OuterSpace",
            "label": "lastUpdated",
            "offset": 28,
            "slot": "0",
            "type": "t_uint32"
          }
        ],
        "numberOfBytes": "32"
      },
      "t_uint256": {
        "encoding": "inplace",
        "label": "uint256",
        "numberOfBytes": "32"
      },
      "t_uint32": {
        "encoding": "inplace",
        "label": "uint32",
        "numberOfBytes": "4"
      }
    }
  }
}