{
  "address": "0x4D1431aA2A3EB08C0784B8BF167043bd7E290593",
  "abi": [
    {
      "inputs": [
        {
          "internalType": "contract IERC20",
          "name": "stakingToken",
          "type": "address"
        },
        {
          "internalType": "contract AllianceRegistry",
          "name": "theAllianceRegistry",
          "type": "address"
        },
        {
          "internalType": "bytes32",
          "name": "genesis",
          "type": "bytes32"
        },
        {
          "internalType": "uint32",
          "name": "resolveWindow",
          "type": "uint32"
        },
        {
          "internalType": "uint32",
          "name": "timePerDistance",
          "type": "uint32"
        },
        {
          "internalType": "uint32",
          "name": "exitDuration",
          "type": "uint32"
        },
        {
          "internalType": "uint32",
          "name": "acquireNumSpaceships",
          "type": "uint32"
        },
        {
          "internalType": "uint32",
          "name": "productionSpeedUp",
          "type": "uint32"
        },
        {
          "internalType": "uint32",
          "name": "frontrunningDelay",
          "type": "uint32"
        },
        {
          "internalType": "uint32",
          "name": "productionCapAsDuration",
          "type": "uint32"
        },
        {
          "internalType": "uint32",
          "name": "fleetSizeFactor6",
          "type": "uint32"
        }
      ],
      "stateMutability": "nonpayable",
      "type": "constructor"
    },
    {
      "anonymous": false,
      "inputs": [
        {
          "indexed": true,
          "internalType": "address",
          "name": "owner",
          "type": "address"
        },
        {
          "indexed": true,
          "internalType": "address",
          "name": "operator",
          "type": "address"
        },
        {
          "indexed": false,
          "internalType": "bool",
          "name": "approved",
          "type": "bool"
        }
      ],
      "name": "ApprovalForAll",
      "type": "event"
    },
    {
      "anonymous": false,
      "inputs": [
        {
          "indexed": true,
          "internalType": "address",
          "name": "owner",
          "type": "address"
        },
        {
          "indexed": true,
          "internalType": "uint256",
          "name": "location",
          "type": "uint256"
        },
        {
          "indexed": false,
          "internalType": "uint256",
          "name": "stake",
          "type": "uint256"
        }
      ],
      "name": "ExitComplete",
      "type": "event"
    },
    {
      "anonymous": false,
      "inputs": [
        {
          "indexed": true,
          "internalType": "uint256",
          "name": "fleet",
          "type": "uint256"
        },
        {
          "indexed": true,
          "internalType": "address",
          "name": "fleetOwner",
          "type": "address"
        },
        {
          "indexed": true,
          "internalType": "address",
          "name": "destinationOwner",
          "type": "address"
        },
        {
          "indexed": false,
          "internalType": "uint256",
          "name": "destination",
          "type": "uint256"
        },
        {
          "indexed": false,
          "internalType": "bool",
          "name": "gift",
          "type": "bool"
        },
        {
          "indexed": false,
          "internalType": "uint32",
          "name": "fleetLoss",
          "type": "uint32"
        },
        {
          "indexed": false,
          "internalType": "uint32",
          "name": "planetLoss",
          "type": "uint32"
        },
        {
          "indexed": false,
          "internalType": "uint32",
          "name": "inFlightFleetLoss",
          "type": "uint32"
        },
        {
          "indexed": false,
          "internalType": "uint32",
          "name": "inFlightPlanetLoss",
          "type": "uint32"
        },
        {
          "indexed": false,
          "internalType": "bool",
          "name": "won",
          "type": "bool"
        },
        {
          "indexed": false,
          "internalType": "uint32",
          "name": "newNumspaceships",
          "type": "uint32"
        }
      ],
      "name": "FleetArrived",
      "type": "event"
    },
    {
      "anonymous": false,
      "inputs": [
        {
          "indexed": true,
          "internalType": "address",
          "name": "fleetSender",
          "type": "address"
        },
        {
          "indexed": true,
          "internalType": "address",
          "name": "fleetOwner",
          "type": "address"
        },
        {
          "indexed": true,
          "internalType": "uint256",
          "name": "from",
          "type": "uint256"
        },
        {
          "indexed": false,
          "internalType": "address",
          "name": "operator",
          "type": "address"
        },
        {
          "indexed": false,
          "internalType": "uint256",
          "name": "fleet",
          "type": "uint256"
        },
        {
          "indexed": false,
          "internalType": "uint32",
          "name": "quantity",
          "type": "uint32"
        },
        {
          "indexed": false,
          "internalType": "uint32",
          "name": "newNumSpaceships",
          "type": "uint32"
        }
      ],
      "name": "FleetSent",
      "type": "event"
    },
    {
      "anonymous": false,
      "inputs": [
        {
          "indexed": true,
          "internalType": "address",
          "name": "owner",
          "type": "address"
        },
        {
          "indexed": true,
          "internalType": "uint256",
          "name": "location",
          "type": "uint256"
        }
      ],
      "name": "PlanetExit",
      "type": "event"
    },
    {
      "anonymous": false,
      "inputs": [
        {
          "indexed": true,
          "internalType": "address",
          "name": "acquirer",
          "type": "address"
        },
        {
          "indexed": true,
          "internalType": "uint256",
          "name": "location",
          "type": "uint256"
        },
        {
          "indexed": false,
          "internalType": "uint32",
          "name": "numSpaceships",
          "type": "uint32"
        },
        {
          "indexed": false,
          "internalType": "uint256",
          "name": "stake",
          "type": "uint256"
        }
      ],
      "name": "PlanetStake",
      "type": "event"
    },
    {
      "anonymous": false,
      "inputs": [
        {
          "indexed": true,
          "internalType": "uint256",
          "name": "location",
          "type": "uint256"
        },
        {
          "indexed": true,
          "internalType": "address",
          "name": "giver",
          "type": "address"
        },
        {
          "indexed": false,
          "internalType": "uint256",
          "name": "rewardId",
          "type": "uint256"
        }
      ],
      "name": "RewardSetup",
      "type": "event"
    },
    {
      "anonymous": false,
      "inputs": [
        {
          "indexed": true,
          "internalType": "address",
          "name": "owner",
          "type": "address"
        },
        {
          "indexed": true,
          "internalType": "uint256",
          "name": "location",
          "type": "uint256"
        },
        {
          "indexed": true,
          "internalType": "uint256",
          "name": "rewardId",
          "type": "uint256"
        }
      ],
      "name": "RewardToWithdraw",
      "type": "event"
    },
    {
      "anonymous": false,
      "inputs": [
        {
          "indexed": true,
          "internalType": "address",
          "name": "owner",
          "type": "address"
        },
        {
          "indexed": false,
          "internalType": "uint256",
          "name": "newStake",
          "type": "uint256"
        }
      ],
      "name": "StakeToWithdraw",
      "type": "event"
    },
    {
      "inputs": [
        {
          "internalType": "uint256",
          "name": "location",
          "type": "uint256"
        },
        {
          "internalType": "uint256",
          "name": "amount",
          "type": "uint256"
        }
      ],
      "name": "acquireViaTransferFrom",
      "outputs": [],
      "stateMutability": "nonpayable",
      "type": "function"
    },
    {
      "inputs": [
        {
          "internalType": "uint256",
          "name": "location",
          "type": "uint256"
        },
        {
          "internalType": "address",
          "name": "sponsor",
          "type": "address"
        }
      ],
      "name": "addReward",
      "outputs": [],
      "stateMutability": "nonpayable",
      "type": "function"
    },
    {
      "inputs": [],
      "name": "allianceRegistry",
      "outputs": [
        {
          "internalType": "contract AllianceRegistry",
          "name": "",
          "type": "address"
        }
      ],
      "stateMutability": "view",
      "type": "function"
    },
    {
      "inputs": [
        {
          "internalType": "address",
          "name": "owner",
          "type": "address"
        }
      ],
      "name": "balanceToWithdraw",
      "outputs": [
        {
          "internalType": "uint256",
          "name": "",
          "type": "uint256"
        }
      ],
      "stateMutability": "view",
      "type": "function"
    },
    {
      "inputs": [
        {
          "internalType": "address",
          "name": "owner",
          "type": "address"
        },
        {
          "internalType": "uint256",
          "name": "location",
          "type": "uint256"
        }
      ],
      "name": "exitFor",
      "outputs": [],
      "stateMutability": "nonpayable",
      "type": "function"
    },
    {
      "inputs": [
        {
          "internalType": "address",
          "name": "owner",
          "type": "address"
        },
        {
          "internalType": "uint256[]",
          "name": "locations",
          "type": "uint256[]"
        }
      ],
      "name": "fetchAndWithdrawFor",
      "outputs": [],
      "stateMutability": "nonpayable",
      "type": "function"
    },
    {
      "inputs": [],
      "name": "getDiscovered",
      "outputs": [
        {
          "components": [
            {
              "internalType": "uint32",
              "name": "minX",
              "type": "uint32"
            },
            {
              "internalType": "uint32",
              "name": "maxX",
              "type": "uint32"
            },
            {
              "internalType": "uint32",
              "name": "minY",
              "type": "uint32"
            },
            {
              "internalType": "uint32",
              "name": "maxY",
              "type": "uint32"
            }
          ],
          "internalType": "struct OuterSpace.Discovered",
          "name": "",
          "type": "tuple"
        }
      ],
      "stateMutability": "view",
      "type": "function"
    },
    {
      "inputs": [
        {
          "internalType": "uint256",
          "name": "fleetId",
          "type": "uint256"
        },
        {
          "internalType": "uint256",
          "name": "from",
          "type": "uint256"
        }
      ],
      "name": "getFleet",
      "outputs": [
        {
          "internalType": "address",
          "name": "owner",
          "type": "address"
        },
        {
          "internalType": "uint32",
          "name": "launchTime",
          "type": "uint32"
        },
        {
          "internalType": "uint32",
          "name": "quantity",
          "type": "uint32"
        },
        {
          "internalType": "uint64",
          "name": "flyingAtLaunch",
          "type": "uint64"
        },
        {
          "internalType": "uint64",
          "name": "destroyedAtLaunch",
          "type": "uint64"
        }
      ],
      "stateMutability": "view",
      "type": "function"
    },
    {
      "inputs": [],
      "name": "getGeneisHash",
      "outputs": [
        {
          "internalType": "bytes32",
          "name": "",
          "type": "bytes32"
        }
      ],
      "stateMutability": "view",
      "type": "function"
    },
    {
      "inputs": [
        {
          "internalType": "uint256",
          "name": "location",
          "type": "uint256"
        }
      ],
      "name": "getPlanet",
      "outputs": [
        {
          "components": [
            {
              "internalType": "address",
              "name": "owner",
              "type": "address"
            },
            {
              "internalType": "uint32",
              "name": "exitTime",
              "type": "uint32"
            },
            {
              "internalType": "uint32",
              "name": "numSpaceships",
              "type": "uint32"
            },
            {
              "internalType": "uint32",
              "name": "lastUpdated",
              "type": "uint32"
            },
            {
              "internalType": "bool",
              "name": "active",
              "type": "bool"
            },
            {
              "internalType": "uint256",
              "name": "reward",
              "type": "uint256"
            }
          ],
          "internalType": "struct OuterSpace.ExternalPlanet",
          "name": "state",
          "type": "tuple"
        },
        {
          "components": [
            {
              "internalType": "int8",
              "name": "subX",
              "type": "int8"
            },
            {
              "internalType": "int8",
              "name": "subY",
              "type": "int8"
            },
            {
              "internalType": "uint16",
              "name": "stake",
              "type": "uint16"
            },
            {
              "internalType": "uint16",
              "name": "production",
              "type": "uint16"
            },
            {
              "internalType": "uint16",
              "name": "attack",
              "type": "uint16"
            },
            {
              "internalType": "uint16",
              "name": "defense",
              "type": "uint16"
            },
            {
              "internalType": "uint16",
              "name": "speed",
              "type": "uint16"
            },
            {
              "internalType": "uint16",
              "name": "natives",
              "type": "uint16"
            }
          ],
          "internalType": "struct OuterSpace.PlanetStats",
          "name": "stats",
          "type": "tuple"
        }
      ],
      "stateMutability": "view",
      "type": "function"
    },
    {
      "inputs": [
        {
          "internalType": "uint256[]",
          "name": "locations",
          "type": "uint256[]"
        }
      ],
      "name": "getPlanetStates",
      "outputs": [
        {
          "components": [
            {
              "internalType": "address",
              "name": "owner",
              "type": "address"
            },
            {
              "internalType": "uint32",
              "name": "exitTime",
              "type": "uint32"
            },
            {
              "internalType": "uint32",
              "name": "numSpaceships",
              "type": "uint32"
            },
            {
              "internalType": "uint32",
              "name": "lastUpdated",
              "type": "uint32"
            },
            {
              "internalType": "bool",
              "name": "active",
              "type": "bool"
            },
            {
              "internalType": "uint256",
              "name": "reward",
              "type": "uint256"
            }
          ],
          "internalType": "struct OuterSpace.ExternalPlanet[]",
          "name": "planetStates",
          "type": "tuple[]"
        },
        {
          "components": [
            {
              "internalType": "uint32",
              "name": "minX",
              "type": "uint32"
            },
            {
              "internalType": "uint32",
              "name": "maxX",
              "type": "uint32"
            },
            {
              "internalType": "uint32",
              "name": "minY",
              "type": "uint32"
            },
            {
              "internalType": "uint32",
              "name": "maxY",
              "type": "uint32"
            }
          ],
          "internalType": "struct OuterSpace.Discovered",
          "name": "discovered",
          "type": "tuple"
        }
      ],
      "stateMutability": "view",
      "type": "function"
    },
    {
      "inputs": [
        {
          "internalType": "address",
          "name": "",
          "type": "address"
        },
        {
          "internalType": "address",
          "name": "forAddress",
          "type": "address"
        },
        {
          "internalType": "uint256",
          "name": "amount",
          "type": "uint256"
        },
        {
          "internalType": "bytes",
          "name": "data",
          "type": "bytes"
        }
      ],
      "name": "onTokenPaidFor",
      "outputs": [
        {
          "internalType": "bool",
          "name": "",
          "type": "bool"
        }
      ],
      "stateMutability": "nonpayable",
      "type": "function"
    },
    {
      "inputs": [
        {
          "internalType": "address",
          "name": "",
          "type": "address"
        },
        {
          "internalType": "uint256",
          "name": "amount",
          "type": "uint256"
        },
        {
          "internalType": "bytes",
          "name": "data",
          "type": "bytes"
        }
      ],
      "name": "onTokenTransfer",
      "outputs": [
        {
          "internalType": "bool",
          "name": "",
          "type": "bool"
        }
      ],
      "stateMutability": "nonpayable",
      "type": "function"
    },
    {
      "inputs": [
        {
          "internalType": "contract IERC20",
          "name": "",
          "type": "address"
        },
        {
          "internalType": "contract AllianceRegistry",
          "name": "",
          "type": "address"
        },
        {
          "internalType": "bytes32",
          "name": "",
          "type": "bytes32"
        },
        {
          "internalType": "uint32",
          "name": "",
          "type": "uint32"
        },
        {
          "internalType": "uint32",
          "name": "",
          "type": "uint32"
        },
        {
          "internalType": "uint32",
          "name": "",
          "type": "uint32"
        },
        {
          "internalType": "uint32",
          "name": "",
          "type": "uint32"
        },
        {
          "internalType": "uint32",
          "name": "",
          "type": "uint32"
        },
        {
          "internalType": "uint32",
          "name": "",
          "type": "uint32"
        },
        {
          "internalType": "uint32",
          "name": "",
          "type": "uint32"
        },
        {
          "internalType": "uint32",
          "name": "",
          "type": "uint32"
        }
      ],
      "name": "postUpgrade",
      "outputs": [],
      "stateMutability": "nonpayable",
      "type": "function"
    },
    {
      "inputs": [
        {
          "internalType": "uint256",
          "name": "fleetId",
          "type": "uint256"
        },
        {
          "components": [
            {
              "internalType": "uint256",
              "name": "from",
              "type": "uint256"
            },
            {
              "internalType": "uint256",
              "name": "to",
              "type": "uint256"
            },
            {
              "internalType": "uint256",
              "name": "distance",
              "type": "uint256"
            },
            {
              "internalType": "address",
              "name": "alliance",
              "type": "address"
            },
            {
              "internalType": "bytes32",
              "name": "secret",
              "type": "bytes32"
            },
            {
              "internalType": "address",
              "name": "fleetSender",
              "type": "address"
            },
            {
              "internalType": "address",
              "name": "operator",
              "type": "address"
            }
          ],
          "internalType": "struct OuterSpace.FleetResolution",
          "name": "resolution",
          "type": "tuple"
        }
      ],
      "name": "resolveFleet",
      "outputs": [],
      "stateMutability": "nonpayable",
      "type": "function"
    },
    {
      "inputs": [
        {
          "internalType": "uint256",
          "name": "from",
          "type": "uint256"
        },
        {
          "internalType": "uint32",
          "name": "quantity",
          "type": "uint32"
        },
        {
          "internalType": "bytes32",
          "name": "toHash",
          "type": "bytes32"
        }
      ],
      "name": "send",
      "outputs": [],
      "stateMutability": "nonpayable",
      "type": "function"
    },
    {
      "inputs": [
        {
          "components": [
            {
              "internalType": "address",
              "name": "fleetSender",
              "type": "address"
            },
            {
              "internalType": "address",
              "name": "fleetOwner",
              "type": "address"
            },
            {
              "internalType": "uint256",
              "name": "from",
              "type": "uint256"
            },
            {
              "internalType": "uint32",
              "name": "quantity",
              "type": "uint32"
            },
            {
              "internalType": "bytes32",
              "name": "toHash",
              "type": "bytes32"
            }
          ],
          "internalType": "struct OuterSpace.FleetLaunch",
          "name": "launch",
          "type": "tuple"
        }
      ],
      "name": "sendFor",
      "outputs": [],
      "stateMutability": "nonpayable",
      "type": "function"
    },
    {
      "inputs": [
        {
          "internalType": "address",
          "name": "operator",
          "type": "address"
        },
        {
          "internalType": "bool",
          "name": "approved",
          "type": "bool"
        }
      ],
      "name": "setApprovalForAll",
      "outputs": [],
      "stateMutability": "nonpayable",
      "type": "function"
    },
    {
      "inputs": [
        {
          "internalType": "address",
          "name": "owner",
          "type": "address"
        }
      ],
      "name": "withdrawFor",
      "outputs": [],
      "stateMutability": "nonpayable",
      "type": "function"
    }
  ],
  "transactionHash": "0x8ce03e962e9982922db5704a4d8aca67a52d04656345927401bfac6c815101d6",
  "args": [
    "0xF0F686E26eB4E727d6DFF7f9c94858AD1414D7d6",
    "0xDf4Af0F12e1731552df75c115f9c0f68895fF9CE",
    "0xe0c3fa9ae97fc9b60baae605896b5e3e7cecb6baaaa4708162d1ec51e8d65111",
    43200,
    1440,
    51840,
    100000,
    5,
    360,
    51840,
    500000
  ],
  "linkedData": {
    "genesisHash": "0xe0c3fa9ae97fc9b60baae605896b5e3e7cecb6baaaa4708162d1ec51e8d65111",
    "resolveWindow": 43200,
    "timePerDistance": 1440,
    "exitDuration": 51840,
    "acquireNumSpaceships": 100000,
    "productionSpeedUp": 5,
    "chainGenesisHash": "",
    "frontrunningDelay": 360,
    "productionCapAsDuration": 51840,
    "fleetSizeFactor6": 500000
  },
  "solcInputHash": "f01a4b6130bfdbe86fbbe49ba8a8028f",
  "bytecode": "0x6101e06040523480156200001257600080fd5b5060405162005c9f38038062005c9f83398101604081905262000035916200021b565b600062000044600489620002fb565b905063ffffffff88166200005a8260046200032d565b63ffffffff1614620000b25760405162461bcd60e51b815260206004820152601d60248201527f54494d455f5045525f444953545f4e4f545f444956495349424c455f34000000604482015260640160405180910390fd5b6001600160a01b03808d1660c0528b1660805260a08a905263ffffffff808a1660e05281811661010052878116610120528681166101405285811661016052848116610180528381166101a05282166101c0526200011a8c8c8c8c8c8c8c8c8c8c8c6200012c565b50505050505050505050505062000368565b60006200014660008051602062005c7f8339815191525490565b90506001600160a01b03811662000176576001600160a01b0360008051602062005c7f833981519152556200018c565b336001600160a01b038216146200018c57600080fd5b60055463ffffffff16620001da576040805160808101825260108082526020820181905291810182905260600152600580546001600160801b0319166c100000001000000010000000101790555b505050505050505050505050565b6001600160a01b0381168114620001fe57600080fd5b50565b805163ffffffff811681146200021657600080fd5b919050565b60008060008060008060008060008060006101608c8e0312156200023e57600080fd5b8b516200024b81620001e8565b60208d0151909b506200025e81620001e8565b60408d0151909a5098506200027660608d0162000201565b97506200028660808d0162000201565b96506200029660a08d0162000201565b9550620002a660c08d0162000201565b9450620002b660e08d0162000201565b9350620002c76101008d0162000201565b9250620002d86101208d0162000201565b9150620002e96101408d0162000201565b90509295989b509295989b9093969950565b600063ffffffff808416806200032157634e487b7160e01b600052601260045260246000fd5b92169190910492915050565b600063ffffffff808316818516818304811182151516156200035f57634e487b7160e01b600052601160045260246000fd5b02949350505050565b60805160a05160c05160e05161010051610120516101405161016051610180516101a0516101c0516157a9620004d660003960008181613a8601528181613ab901528181613b3a0152613b6d015260008181611eec0152611f200152600081816113200152818161211401528181613051015281816144130152818161449b01528181614528015281816145a9015261477b015260008181611fe9015261207b015260008181611f590152818161296b015281816129fc01528181612a4a01528181612a9101528181612b100152612b41015260006119d5015260006133e90152600061348b015260008181610a1801528181610aa701528181610bd70152611bbf0152600081816101e3015281816114720152818161188a01528181611a5801528181611c8d0152818161317e015281816131e401528181613390015281816136e801528181613873015281816138fa0152613dcc0152600081816103db015261360d01526157a96000f3fe608060405234801561001057600080fd5b50600436106101515760003560e01c8063a22cb465116100cd578063c956083811610081578063e2e9b07911610066578063e2e9b07914610368578063ee5433931461037b578063f9c8974d146103d657600080fd5b8063c95608381461032c578063cf3ecf071461035557600080fd5b8063aba789f5116100b2578063aba789f51461026d578063afc823701461028e578063c5aaa0ae146102a157600080fd5b8063a22cb46514610247578063a4c0ed361461025a57600080fd5b806356bf642d116101245780637cef64d8116101095780637cef64d8146101e15780639b6be065146102115780639eca672c1461023457600080fd5b806356bf642d146101bb5780637ba423fb146101ce57600080fd5b8063112e6851146101565780631b7c9c171461016b578063243f66c91461017e57806334efcb8e14610191575b600080fd5b6101696101643660046148a1565b610415565b005b6101696101793660046148ee565b6104bc565b61016961018c3660046149b7565b6105ad565b6101a461019f3660046149f0565b6106ec565b6040516101b2929190614a09565b60405180910390f35b6101696101c9366004614ae5565b610807565b6101696101dc366004614b15565b6109c7565b7f00000000000000000000000000000000000000000000000000000000000000005b6040519081526020016101b2565b61022461021f366004614b79565b610a9a565b60405190151581526020016101b2565b610169610242366004614bec565b610b3c565b610169610255366004614c17565b610b5f565b610224610268366004614c45565b610bca565b61028061027b366004614ce6565b610c62565b6040516101b2929190614d28565b61016961029c366004614dfe565b610e72565b61031f604080516080810182526000808252602082018190529181018290526060810191909152506040805160808101825260055463ffffffff80821683526401000000008204811660208401526801000000000000000082048116938301939093526c010000000000000000000000009004909116606082015290565b6040516101b29190614e2a565b61020361033a366004614bec565b6001600160a01b031660009081526002602052604090205490565b610169610363366004614e63565b610fa7565b610169610376366004614e7b565b6111cf565b61038e610389366004614b15565b6112e5565b604080516001600160a01b03909616865263ffffffff9485166020870152939092169284019290925267ffffffffffffffff918216606084015216608082015260a0016101b2565b6103fd7f000000000000000000000000000000000000000000000000000000000000000081565b6040516001600160a01b0390911681526020016101b2565b6000336040805160208101859052908101869052606082811b6bffffffffffffffffffffffff191690820181905260748201529091506000906088016040516020818303038152906040528051906020012060001c90506104b581836040518060a00160405280866001600160a01b03168152602001866001600160a01b031681526020018981526020018863ffffffff16815260200187815250611397565b5050505050565b60006104e67fb53127684a568b3173ae13b9f8a6016e243e63b6e8ee1178d6a717850b5d61035490565b90506001600160a01b038116610525576001600160a01b037fb53127684a568b3173ae13b9f8a6016e243e63b6e8ee1178d6a717850b5d61035561053a565b336001600160a01b0382161461053a57600080fd5b60055463ffffffff1661059f576040805160808101825260108082526020820181905291810182905260600152600580547fffffffffffffffffffffffffffffffff00000000000000000000000000000000166c100000001000000010000000101790555b505050505050505050505050565b81608082018035906020840135906000906105cb9060608701614bec565b6040805160208101959095528401929092526001600160a01b039091161160f81b606082015260610160408051601f198184030181529190528051602090910120823561061e60c0850160a08601614bec565b61062e60e0860160c08701614bec565b6040805160208101959095528401929092526bffffffffffffffffffffffff19606091821b81168285015291901b1660748201526088016040516020818303038152906040528051906020012060001c146106d05760405162461bcd60e51b815260206004820152601d60248201527f494e56414c49445f464c4545545f444154415f4f525f5345435245542700000060448201526064015b60405180910390fd5b6106e8826106e336849003840184614ee6565b6116d7565b5050565b6040805160c081018252600080825260208201819052918101829052606081018290526080810182905260a08101919091526040805161010081018252600080825260208201819052918101829052606081018290526080810182905260a0810182905260c0810182905260e081019190915260008381526020819052604081208054909150600090819061078d90600160c01b900463ffffffff16611824565b6040805160c08101825286546001600160a01b038116825263ffffffff600160a01b8204811660208085019190915281861684860152600160e01b909204166060830152841515608083015260008b81526007909152919091205460a0820152965090925090506107fd86611843565b9350505050915091565b7fb53127684a568b3173ae13b9f8a6016e243e63b6e8ee1178d6a717850b5d6103546001600160a01b0316336001600160a01b0316146108895760405162461bcd60e51b815260206004820152600e60248201527f4e4f545f415554484f52495a454400000000000000000000000000000000000060448201526064016106c7565b60008281526020818152604091829020825160808101845290546001600160a01b038116825263ffffffff600160a01b82048116938301849052600160c01b8204811694830194909452600160e01b900490921660608301526108eb906119be565b1561090f578051600084815260208190526040812061090f92869290919080611a09565b6000838152600760205260409020548061097d576001600160a01b0383166000908152600660205260408120805490919061094990614fa6565b9182905550905061096d816bffffffffffffffffffffffff19606086901b16614fc1565b6000858152600760205260409020555b826001600160a01b0316847fec3a2d89aa52417930dcfd96d54282db3cdc02a9c65e1d9def8f7407c60fc027836040516109b991815260200190565b60405180910390a350505050565b336109d3818385611a52565b6040517f23b872dd0000000000000000000000000000000000000000000000000000000081526001600160a01b038281166004830152306024830152604482018490527f000000000000000000000000000000000000000000000000000000000000000016906323b872dd90606401602060405180830381600087803b158015610a5c57600080fd5b505af1158015610a70573d6000803e3d6000fd5b505050506040513d601f19601f82011682018060405250810190610a949190614fd9565b50505050565b6000336001600160a01b037f00000000000000000000000000000000000000000000000000000000000000001614610b145760405162461bcd60e51b815260206004820152600d60248201527f494e56414c49445f45524332300000000000000000000000000000000000000060448201526064016106c7565b6000610b22838501856149f0565b9050610b2f868683611a52565b5060019695505050505050565b6001600160a01b0381166000908152600260205260409020546106e88282611b75565b3360008181526003602090815260408083206001600160a01b03871680855290835292819020805460ff19168615159081179091558151908152905184927f17307eab39ab6107e8899845ad3d59bd9653f200f220920489ca2b5937696c31928290030190a3505050565b6000336001600160a01b037f00000000000000000000000000000000000000000000000000000000000000001614610c445760405162461bcd60e51b815260206004820152600d60248201527f494e56414c49445f45524332300000000000000000000000000000000000000060448201526064016106c7565b600080610c5384860186614dfe565b91509150610b2f828783611a52565b604080516080810182526000808252602082018190529181018290526060818101929092528267ffffffffffffffff811115610ca057610ca0614ed0565b604051908082528060200260200182016040528015610d0057816020015b6040805160c08101825260008082526020808301829052928201819052606082018190526080820181905260a08201528252600019909201910181610cbe5790505b50915060005b83811015610e14576000610d3d868684818110610d2557610d25614ff6565b90506020020135600090815260208190526040902090565b80549091506000908190610d5d90600160c01b900463ffffffff16611824565b6040805160c08101825286546001600160a01b038116825263ffffffff600160a01b82048116602084015280851693830193909352600160e01b900490911660608201528215156080820152919350915060a08101600760008b8b89818110610dc857610dc8614ff6565b90506020020135815260200190815260200160002054815250868581518110610df357610df3614ff6565b60200260200101819052505050508080610e0c90614fa6565b915050610d06565b50506040805160808101825260055463ffffffff80821683526401000000008204811660208401526801000000000000000082048116938301939093526c010000000000000000000000009004909116606082015290939092509050565b600081815260208190526040902080546001600160a01b03848116911614610edc5760405162461bcd60e51b815260206004820152600960248201527f4e4f545f4f574e4552000000000000000000000000000000000000000000000060448201526064016106c7565b8054600160a01b900463ffffffff1615610f385760405162461bcd60e51b815260206004820152600f60248201527f45584954494e475f414c5245414459000000000000000000000000000000000060448201526064016106c7565b80547fffffffffffffffff00000000ffffffffffffffffffffffffffffffffffffffff16600160a01b4263ffffffff160217815560405182906001600160a01b038516907fb9182e4e152947f1e6691fa0ee6f68f21f607fed825945c270e69995acad805f90600090a3505050565b33610fb56020830183614bec565b6001600160a01b0316816001600160a01b0316146110575760036000610fde6020850185614bec565b6001600160a01b039081168252602080830193909352604091820160009081209185168152925290205460ff166110575760405162461bcd60e51b815260206004820152601660248201527f4e4f545f415554484f52495a45445f544f5f53454e440000000000000000000060448201526064016106c7565b6000608083013560408401356110706020860186614bec565b6040805160208101949094528301919091526bffffffffffffffffffffffff19606091821b8116828401529084901b16607482015260880160408051601f19818403018152919052805160209182012091506110ce90840184614bec565b6001600160a01b03166110e76040850160208601614bec565b6001600160a01b03161415801561111f57506001600160a01b0382166111136040850160208601614bec565b6001600160a01b031614155b156111b157600360006111386040860160208701614bec565b6001600160a01b039081168252602080830193909352604091820160009081209186168152925290205460ff166111b15760405162461bcd60e51b815260206004820152601760248201527f4e4f545f415554484f52495a45445f544f5f464c45455400000000000000000060448201526064016106c7565b6111ca81836111c53687900387018761500c565b611397565b505050565b6000805b828110156112b45760006111f2858584818110610d2557610d25614ff6565b805490915061120d90600160a01b900463ffffffff166119be565b156112a15780546001600160a01b0387811691161461126e5760405162461bcd60e51b815260206004820152600960248201527f4e4f545f4f574e4552000000000000000000000000000000000000000000000060448201526064016106c7565b61129485858481811061128357611283614ff6565b905060200201358783600080611c87565b61129e9084614fc1565b92505b50806112ac81614fa6565b9150506111d3565b506001600160a01b0384166000908152600260205260408120546112d9908390614fc1565b90506104b58582611b75565b6000828152600160205260408120546001600160a01b0381169163ffffffff600160a01b8304811692600160c01b90041690808061134460027f00000000000000000000000000000000000000000000000000000000000000006150b7565b6113549063ffffffff87166150b7565b6000978852600460209081526040808a20928a529190529096205494979396509194505067ffffffffffffffff8084169368010000000000000000900416919050565b60408181015160009081526020819052208054600160a01b900463ffffffff16156114045760405162461bcd60e51b815260206004820152600b60248201527f504c414e45545f4558495400000000000000000000000000000000000000000060448201526064016106c7565b805482516001600160a01b039081169116146114625760405162461bcd60e51b815260206004820152600960248201527f4e4f545f4f574e4552000000000000000000000000000000000000000000000060448201526064016106c7565b60006114bf8360400151604080517f00000000000000000000000000000000000000000000000000000000000000006020820152908101829052600090606001604051602081830303815290604052805190602001209050919050565b905060006114cc82611e34565b835490915060009081906114f79063ffffffff600160c01b8204811691600160e01b90041685611eab565b91509150856060015163ffffffff168163ffffffff16101561155b5760405162461bcd60e51b815260206004820152601560248201527f535041434553484950535f4e4f545f454e4f554748000000000000000000000060448201526064016106c7565b60008061157283858a604001518b606001516120fb565b91509150604051806060016040528089602001516001600160a01b031681526020018363ffffffff168152602001896060015163ffffffff16815250600160008c815260200190815260200160002060008201518160000160006101000a8154816001600160a01b0302191690836001600160a01b0316021790555060208201518160000160146101000a81548163ffffffff021916908363ffffffff16021790555060408201518160000160186101000a81548163ffffffff021916908363ffffffff160217905550905050876040015188602001516001600160a01b031689600001516001600160a01b03167fa069887d9311acae9fe31657a1cc64ab2f9d55b74319d0193094208f946a0e778c8e8d60600151876040516116c394939291906001600160a01b03949094168452602084019290925263ffffffff908116604084015216606082015260800190565b60405180910390a450505050505050505050565b6000828152600160209081526040808320815160608101835290546001600160a01b038116825263ffffffff600160a01b8204811694830194909452600160c01b900490921690820152908061172d838561228e565b91509150600061174c8560200151600090815260208190526040902090565b6040805160808101825291546001600160a01b038116835263ffffffff600160a01b8204811660208501819052600160c01b8304821693850193909352600160e01b90910416606083015285519192506117e9919088906117ac906119be565b6117b75783516117ba565b60005b602089015160608a01518a516001600160a01b0382161515916117e3918c918a9086908e612344565b886123d3565b5050506000928352505060016020526040902080547fffffffff00000000ffffffffffffffffffffffffffffffffffffffffffffffff169055565b638000000081811681149060009061183c90846150cb565b9050915091565b60408051610100810182526000808252602080830182905282840182905260608084018390526080840183905260a0840183905260c0840183905260e084019290925283517f000000000000000000000000000000000000000000000000000000000000000081830152808501869052845180820386018152920190935280519201919091206118d281612488565b61191e5760405162461bcd60e51b815260206004820152601a60248201527f6e6f20706c616e657420696e2074686973206c6f636174696f6e00000000000060448201526064016106c7565b60008061192a836124a4565b915091506040518061010001604052808360000b81526020018260000b8152602001611955856124d8565b61ffff16815260200161196785611e34565b61ffff16815260200161197985612589565b61ffff16815260200161198b856125fa565b61ffff16815260200161199d85612650565b61ffff1681526020016119af856126c1565b61ffff16905295945050505050565b6000808263ffffffff16118015611a035750611a007f000000000000000000000000000000000000000000000000000000000000000063ffffffff8416614fc1565b42115b92915050565b6000611a188686868686611c87565b6001600160a01b038616600090815260026020526040902054909150611a4a908690611a45908490614fc1565b612732565b505050505050565b604080517f000000000000000000000000000000000000000000000000000000000000000060208083019190915281830184905282518083038401815260609092019092528051910120670de0b6b3a7640000611aae826124d8565b61ffff16611abc91906150ee565b8314611b0a5760405162461bcd60e51b815260206004820152600e60248201527f494e56414c49445f414d4f554e5400000000000000000000000000000000000060448201526064016106c7565b6000611b1785848461278b565b9050611b2283612bdd565b6040805163ffffffff831681526020810186905284916001600160a01b038816917f5a2bd9d3c37a402271eaa8b4cd01a1a65831589c630b4b8ab1967eca76c0412c910160405180910390a35050505050565b611b80826000612732565b6040517fa9059cbb0000000000000000000000000000000000000000000000000000000081526001600160a01b038381166004830152602482018390527f0000000000000000000000000000000000000000000000000000000000000000169063a9059cbb90604401602060405180830381600087803b158015611c0357600080fd5b505af1158015611c17573d6000803e3d6000fd5b505050506040513d601f19601f82011682018060405250810190611c3b9190614fd9565b6106e85760405162461bcd60e51b815260206004820152600f60248201527f4641494c45445f5452414e53464552000000000000000000000000000000000060448201526064016106c7565b604080517f0000000000000000000000000000000000000000000000000000000000000000602080830191909152818301889052825180830384018152606090920190925280519101206000906000670de0b6b3a7640000611ce8836124d8565b61ffff16611cf691906150ee565b905087876001600160a01b03167f1c363b29828a892b7cddafe9583ef52e0d5aca0ea7011bda6ccf039e1781f73883604051611d3491815260200190565b60405180910390a36000888152600760205260409020548015611db9576001600160a01b03881660008181526008602090815260408083208584528252808320805460ff191660011790558c835260079091528082208290555183928c9290917f74f110a1e0cd4892234c7ba49df9f8a354cd8d29b272f7557c9b8c3c38a653369190a45b50855463ffffffff858116600160c01b027fffffffff00000000ffffffffffffffffffffffffffffffffffffffffffffffff42909216600160e01b027bffffffff0000000000000000000000000000000000000000000000009093166001600160a01b03891617929092171617865591505095945050505050565b6000611e3f82612488565b611e7f5760405162461bcd60e51b8152602060048201526011602482015270504c414e45545f4e4f545f45584953545360781b60448201526064016106c7565b611a0382600c7f0708083409600a8c0bb80ce40e100e100e100e101068151819c81e7823282ee0612fa7565b600080611eb785611824565b90925090506000611ecd6001638000000061510d565b63ffffffff1690506000611ee18642615132565b905063ffffffff83167f00000000000000000000000000000000000000000000000000000000000000001561206b57600080610e10611f4461ffff8a167f00000000000000000000000000000000000000000000000000000000000000006150ee565b611f4e91906150b7565b611f7e9063ffffffff7f000000000000000000000000000000000000000000000000000000000000000016614fc1565b9050808663ffffffff161115611fc457839150611fa18163ffffffff8816615132565b821115611fbb57611fb88163ffffffff8816615132565b91505b60009450611fd7565b611fd463ffffffff871682615132565b94505b8615612046576000610e1063ffffffff7f00000000000000000000000000000000000000000000000000000000000000001661201761ffff8c16886150ee565b61202191906150ee565b61202b91906150b7565b9050858111156120385750845b6120428185614fc1565b9350505b828211156120575760009250612064565b6120618284615132565b92505b50506120ca565b84156120ca57610e1063ffffffff7f0000000000000000000000000000000000000000000000000000000000000000166120a961ffff8916856150ee565b6120b391906150ee565b6120bd91906150b7565b6120c79082614fc1565b90505b638000000081106120ed576120e46001638000000061510d565b63ffffffff1690505b809350505050935093915050565b60008281526020819052604081208190600061213860027f00000000000000000000000000000000000000000000000000000000000000006150b7565b61214290426150b7565b600087815260046020908152604080832084845290915290205490915067ffffffffffffffff1661217963ffffffff871682615149565b90508563ffffffff168167ffffffffffffffff1610156121db5760405162461bcd60e51b815260206004820152600860248201527f4f564552464c4f5700000000000000000000000000000000000000000000000060448201526064016106c7565b60008781526004602090815260408083208584529091529020805467ffffffffffffffff191667ffffffffffffffff831617905542945061221c868a61510d565b93506122288885613021565b835477ffffffffffffffffffffffffffffffffffffffffffffffff16600160c01b63ffffffff928316027bffffffffffffffffffffffffffffffffffffffffffffffffffffffff1617600160e01b91871691909102179092555091969095509350505050565b6040820151600063ffffffff82166122e85760405162461bcd60e51b815260206004820152601260248201527f464c4545545f444f5f4e4f545f4558495354000000000000000000000000000060448201526064016106c7565b6122fb8284600001518660200151613047565b915081846040015161230d919061510d565b905061232683604001518460000151856020015161316e565b61233d83604001518460000151866020015161338a565b9250929050565b6040805160a0810182526000808252602082018190529181018290526060810182905260808101919091526000836001600160a01b0316118015612391575084516001600160a01b031615155b156123b3576123ac8760000151868685878c60200151613524565b90506123c9565b6123ac8760000151886020015188888887613833565b9695505050505050565b846001600160a01b0316876001600160a01b0316877f606ed05ee5450c129097ad509fc76dd97bde7b9bfc9a935df4671051779e0eb0878787602001518860400151888a600001518b606001518c60800151604051612477989796959493929190978852951515602088015263ffffffff948516604088015292841660608701529083166080860152821660a0850152151560c08401521660e08201526101000190565b60405180910390a450505050505050565b600061249782603460106139a8565b60ff166001149050919050565b6000806124b3838260036139a8565b6124be906001615175565b91506124cd83600260036139a8565b61183c906001615175565b60006124e382612488565b6125235760405162461bcd60e51b8152602060048201526011602482015270504c414e45545f4e4f545f45584953545360781b60448201526064016106c7565b600061253083600c6139c5565b905060ff81167e060008000a000c000e001000120014001400160018002000280030003800486125618260026151d7565b61256c906001615201565b61ffff166020811061258057612580614ff6565b1a949350505050565b600061259482612488565b6125d45760405162461bcd60e51b8152602060048201526011602482015270504c414e45545f4e4f545f45584953545360781b60448201526064016106c7565b6125df8260146139c5565b6125ee9060ff166101906151d7565b611a0390610fa0615201565b600061260582612488565b6126455760405162461bcd60e51b8152602060048201526011602482015270504c414e45545f4e4f545f45584953545360781b60448201526064016106c7565b6125df82601c6139c5565b600061265b82612488565b61269b5760405162461bcd60e51b8152602060048201526011602482015270504c414e45545f4e4f545f45584953545360781b60448201526064016106c7565b6126a68260246139c5565b6126b59060ff1661014d6151d7565b611a039061138d615201565b60006126cc82612488565b61270c5760405162461bcd60e51b8152602060048201526011602482015270504c414e45545f4e4f545f45584953545360781b60448201526064016106c7565b61271782602c6139c5565b6127269060ff16610bb86151d7565b611a0390613a98615201565b6001600160a01b03821660008181526002602052604090819020839055517f4d135695228631e73b5a31e6fc8af4e5825cde63774c3c48695b4af814d7b0199061277f9084815260200190565b60405180910390a25050565b600082815260208190526040812081906040805160808101825282546001600160a01b038116825263ffffffff600160a01b820481166020840152600160c01b82048116938301849052600160e01b909104166060820181905292935091600091829161280191906127fc89611e34565b611eab565b91509150600080846060015163ffffffff166000141561282f57612824886126c1565b61ffff169050612963565b602085015163ffffffff16156128a15761284c85602001516119be565b6128985760405162461bcd60e51b815260206004820152600d60248201527f5354494c4c5f45584954494e470000000000000000000000000000000000000060448201526064016106c7565b60019150612963565b83156128ef5760405162461bcd60e51b815260206004820152600c60248201527f5354494c4c5f414354495645000000000000000000000000000000000000000060448201526064016106c7565b896001600160a01b031685600001516001600160a01b03161480612917575063ffffffff8316155b6129635760405162461bcd60e51b815260206004820152600860248201527f4f4343555049454400000000000000000000000000000000000000000000000060448201526064016106c7565b81156129ac577f000000000000000000000000000000000000000000000000000000000000000092506129a7898660000151888d6129a2600189613021565b611a09565b612bcf565b85547fffffffffffffffffffffffff0000000000000000000000000000000000000000166001600160a01b038b1617865563ffffffff811615612b3c5760006360916f80421115612a4557612a3d7f000000000000000000000000000000000000000000000000000000000000000063ffffffff168363ffffffff16612710612a348d6125fa565b61ffff16613a5f565b509050612a8f565b612a8b7f000000000000000000000000000000000000000000000000000000000000000063ffffffff168363ffffffff16612710612a828d6125fa565b61ffff16613c00565b5090505b7f000000000000000000000000000000000000000000000000000000000000000063ffffffff168163ffffffff1610612b0a5760405162461bcd60e51b815260206004820152600f60248201527f4641494c45445f4341505455524544000000000000000000000000000000000060448201526064016106c7565b612b34817f000000000000000000000000000000000000000000000000000000000000000061510d565b935050612b69565b612b667f00000000000000000000000000000000000000000000000000000000000000008461521e565b92505b612b74600184613021565b865477ffffffffffffffffffffffffffffffffffffffffffffffff16600160c01b63ffffffff928316027bffffffffffffffffffffffffffffffffffffffffffffffffffffffff1617600160e01b4292909216919091021786555b509098975050505050505050565b604080516080808201835260055463ffffffff80821684526401000000008204811660208501526801000000000000000082048116948401949094526c0100000000000000000000000090049092166060820152906fffffffffffffffffffffffffffffffff8316600f0b9083901d600080831215612d0157835163ffffffff16612c678461523d565b1315612cb55760405162461bcd60e51b815260206004820152601660248201527f4e4f545f524541434841424c455f5945545f4d494e580000000000000000000060448201526064016106c7565b6008612cc08461523d565b612cca9190615276565b925063ffffffff831315612ce05763ffffffff92505b835163ffffffff16831315612cfc575063ffffffff8216835260015b612da4565b836020015163ffffffff16831315612d5b5760405162461bcd60e51b815260206004820152601660248201527f4e4f545f524541434841424c455f5945545f4d4158580000000000000000000060448201526064016106c7565b612d66600884615276565b925063ffffffff831315612d7c5763ffffffff92505b8263ffffffff16846020015163ffffffff161015612da4575063ffffffff8216602084015260015b6000821215612e6157604084015163ffffffff16612dc18361523d565b1315612e0f5760405162461bcd60e51b815260206004820152601660248201527f4e4f545f524541434841424c455f5945545f4d494e590000000000000000000060448201526064016106c7565b6008612e1a8361523d565b612e249190615276565b915063ffffffff821315612e3a5763ffffffff91505b81846040015163ffffffff161215612e5c575063ffffffff8116604084015260015b612efe565b836060015163ffffffff16821315612ebb5760405162461bcd60e51b815260206004820152601660248201527f4e4f545f524541434841424c455f5945545f4d4158590000000000000000000060448201526064016106c7565b612ec6600883615276565b915063ffffffff821315612edc5763ffffffff91505b81846060015163ffffffff161215612efe575063ffffffff8116606084015260015b80156104b55783516005805460208701516040880151606089015163ffffffff9081166c01000000000000000000000000027fffffffffffffffffffffffffffffffff00000000ffffffffffffffffffffffff9282166801000000000000000002929092166fffffffffffffffff0000000000000000199382166401000000000267ffffffffffffffff1990951691909616179290921716929092179190911790555050505050565b600080612fb485856139c5565b905082612fc28260026152ea565b612fcd906001615313565b60ff1660208110612fe057612fe0614ff6565b1a83612fed8360026152ea565b60ff166020811061300057613000614ff6565b61300e91901a6101006151d7565b6130189190615201565b95945050505050565b60008183613030576000613036565b63800000005b613040919061521e565b9392505050565b60008061307560027f00000000000000000000000000000000000000000000000000000000000000006150b7565b6130859063ffffffff85166150b7565b600085815260046020908152604080832084845290915290205490915068010000000000000000900467ffffffffffffffff1663ffffffff8616811015613107576130d0818761510d565b6000868152600460209081526040808320868452909152902080546fffffffffffffffff0000000000000000191690559550613164565b600095506131158682615338565b60008681526004602090815260408083208684529091529020805467ffffffffffffffff9290921668010000000000000000026fffffffffffffffff0000000000000000199092169190911790555b5093949350505050565b6000806131d06131cb85604080517f00000000000000000000000000000000000000000000000000000000000000006020820152908101829052600090606001604051602081830303815290604052805190602001209050919050565b6124a4565b915091506000806132316131cb86604080517f00000000000000000000000000000000000000000000000000000000000000006020820152908101829052600090606001604051602081830303815290604052805190602001209050919050565b90925090506000600284820b61324c60808a901c6004615359565b6132569190615400565b600084900b61326a60808a901c6004615359565b6132749190615400565b61327e9190615461565b6132889190615655565b6002600087900b6132ac6fffffffffffffffffffffffffffffffff8b166004615359565b6132b69190615400565b600086900b6132d86fffffffffffffffffffffffffffffffff8b166004615359565b6132e29190615400565b6132ec9190615461565b6132f69190615655565b6133009190615400565b600f0b90508061331160028a6156f6565b1115801561333457506002613327896001614fc1565b61333191906156f6565b81105b6133805760405162461bcd60e51b815260206004820152600e60248201527f77726f6e672064697374616e636500000000000000000000000000000000000060448201526064016106c7565b5050505050505050565b604080517f0000000000000000000000000000000000000000000000000000000000000000602080830191909152818301859052825180830384018152606090920190925280519101206000906133e090612650565b61ffff166134107f00000000000000000000000000000000000000000000000000000000000000006127106150ee565b61341a90866150ee565b61342491906150b7565b6134349063ffffffff8416614fc1565b9050804210156134865760405162461bcd60e51b815260206004820152600960248201527f746f6f206561726c79000000000000000000000000000000000000000000000060448201526064016106c7565b6134b07f000000000000000000000000000000000000000000000000000000000000000082614fc1565b4210610a945760405162461bcd60e51b815260206004820152602b60248201527f746f6f206c6174652c20796f7572207370616365736869707320617265206c6f60448201527f737420696e20737061636500000000000000000000000000000000000000000060648201526084016106c7565b6040805160a081018252600080825260208083018290529282018190526060820181905260808201529086015161355a906119be565b156135aa5785516001600160a01b0381166135725750865b865160008781526020819052604090206135a291889163ffffffff891661359a57600061359c565b845b89613d30565b9150506123c9565b60016001600160a01b0384168110156136915786516040517f5db2269e0000000000000000000000000000000000000000000000000000000081526001600160a01b0386811660048301528a8116602483015291821660448201524260648201527f000000000000000000000000000000000000000000000000000000000000000090911690635db2269e9060840160206040518083038186803b15801561365157600080fd5b505afa158015613665573d6000803e3d6000fd5b505050506040513d601f19601f820116820180604052508101906136899190614fd9565b1590506136aa565b86516001600160a01b03898116911614156136aa575060005b80156136e2576127106136c56109c463ffffffff88166150ee565b6136cf91906150b7565b6136df9063ffffffff8716615132565b94505b604080517f000000000000000000000000000000000000000000000000000000000000000060208083019190915281830189905282518083038401815260609092019092528051910120600061373782611e34565b90506000806137558b604001518c6060015163ffffffff1685611eab565b909250905060006137668a8361521e565b63ffffffff16905063800000008110613791576137886001638000000061510d565b63ffffffff1690505b60008b815260208190526040902080547bffffffffffffffffffffffffffffffffffffffffffffffffffffffff16600160e01b4263ffffffff16021790556137d98382613021565b60008c8152602081905260409020805463ffffffff928316600160c01b027fffffffff00000000ffffffffffffffffffffffffffffffffffffffffffffffff90911617905516608087015250505050509695505050505050565b6040805160a081018252600080825260208201819052918101829052606081018290526080810191909152606084015163ffffffff166138c557604080517f0000000000000000000000000000000000000000000000000000000000000000602080830191909152818301869052825180830384018152606090920190925280519101206135a2888888878588613d9c565b6138d284602001516119be565b156138f457835160008481526020819052604090206123ac9185918a86613d30565b604080517f00000000000000000000000000000000000000000000000000000000000000006020808301829052828401879052835180840385018152606084018552805190820120608084019290925260a08084018a90528451808503909101815260c09093019093528151919092012060009061397190612589565b9050600061397e836125fa565b9050600061398b84611e34565b905061399d8b8b85858c8c878d613fc2565b9450505050506123c9565b60006139bd60ff80841690851686901c615705565b949350505050565b6000806139d4848460406139a8565b905060006139e3600283615719565b905060006139f260028461573b565b905060007f01223334444555555666666677777777888888889999999aaaaaabbbbcccddef60ff841660208110613a2b57613a2b614ff6565b1a905060ff8216613a495760048160ff16901c945050505050611a03565b613a5460108261573b565b945050505050611a03565b600080851580613a6d575084155b15613a7d57506000905080613bf7565b600085613aaa887f00000000000000000000000000000000000000000000000000000000000000006150ee565b613ab491906150b7565b613ae17f0000000000000000000000000000000000000000000000000000000000000000620f4240615132565b613aeb9190614fc1565b613af590886150ee565b90506000620f424085613b0888856150ee565b613b1291906150b7565b613b1c91906150b7565b905080871115613b3157879350809250613bf4565b600088613b5e897f00000000000000000000000000000000000000000000000000000000000000006150ee565b613b6891906150b7565b613b957f0000000000000000000000000000000000000000000000000000000000000000620f4240615132565b613b9f9190614fc1565b613ba990896150ee565b90506000620f424088613bbc89856150ee565b613bc691906150b7565b613bd091906150b7565b63ffffffff169050898110613bed57613bea60018b615132565b90505b9450879350505b50505b94509492505050565b600080851580613c0e575084155b15613c1e57506000905080613bf7565b6000613c2a85886150ee565b90506000613c3885886150ee565b9050600082613c4b896305f5e1006150ee565b613c5591906150b7565b9050613c65886305f5e1006150ee565b613c6f84836150ee565b1015613c835780613c7f81614fa6565b9150505b600082613c948b6305f5e1006150ee565b613c9e91906150b7565b9050613cae8a6305f5e1006150ee565b613cb884836150ee565b1015613ccc5780613cc881614fa6565b9150505b6000613cd88383614100565b9050613cfc6305f5e100613cec86846150ee565b613cf691906150b7565b8c614100565b9650613d206305f5e100613d1087846150ee565b613d1a91906150b7565b8b614100565b9550505050505094509492505050565b6040805160a081018252600080825260208201819052918101829052606081018290526080810191909152613d7e86868660008663ffffffff1611613d76576000613d78565b865b86611a09565b63ffffffff9091166080820181905215156060820152949350505050565b6040805160a0810182526000808252602080830182905282840182905260608084018390526080840183905284517f0000000000000000000000000000000000000000000000000000000000000000818401528086018a905285518082038701815291019094528351930192909220909190613e1790612589565b90506000613e24856125fa565b90506000613e31866126c1565b90506000806360916f808b63ffffffff161115613e7057613e668763ffffffff168461ffff168761ffff168761ffff16613a5f565b9092509050613e94565b613e8e8763ffffffff168461ffff168761ffff168761ffff16613c00565b90925090505b63ffffffff8083166020880152811661ffff8416148015613ec057508163ffffffff168763ffffffff16115b15613fb357613ecf828861510d565b63ffffffff1660808701819052613ee890600090613021565b6000808b815260200190815260200160002060000160186101000a81548163ffffffff021916908363ffffffff160217905550426000808b8152602001908152602001600020600001601c6101000a81548163ffffffff021916908363ffffffff1602179055508b6000808b815260200190815260200160002060000160006101000a8154816001600160a01b0302191690836001600160a01b0316021790555080866040019063ffffffff16908163ffffffff168152505060018660600190151590811515815250505b50505050509695505050505050565b6040805160a081018252600080825260208201819052918101829052606081018290526080810182905290613ff8868686614117565b9050806040015163ffffffff16600014801561401a575060008363ffffffff16115b156140e157600085815260208190526040902080547fffffffffffffffff000000000000000000000000000000000000000000000000166001600160a01b038c16179055805161406a9084613021565b6000868152602081905260409020805477ffffffffffffffffffffffffffffffffffffffffffffffff16600160c01b63ffffffff938416027bffffffffffffffffffffffffffffffffffffffffffffffffffffffff1617600160e01b428416021790556001606084015283166080830152506140f4565b6140f0818b8b88878d8d6141d0565b9150505b98975050505050505050565b6000818311156141105781613040565b5090919050565b6040805160e081018252600080825260208201819052918101829052606081018290526080810182905260a0810182905260c081019190915260008061416c8660400151876060015163ffffffff1686611eab565b915091506000806000806000614182868b61476d565b9a15158c5263ffffffff998a1660208d01529290981660408b015267ffffffffffffffff90811660608b015296871660808a0152861660a089015250505050911660c0830152509392505050565b6040805160a081018252600080825260208201819052918101829052606081018290526080810182905290806360916f8063ffffffff8916111561423c576142328663ffffffff168b6040015163ffffffff168761ffff168761ffff16613a5f565b9092509050614266565b6142608663ffffffff168b6040015163ffffffff168761ffff168761ffff16613c00565b90925090505b63ffffffff80831660208086019190915282821660408601819052908c0151909116101561460f5760208a015161429d908261510d565b63ffffffff90811680855260208c0151909116604085015260608b015167ffffffffffffffff161061432057826000015163ffffffff168a6060018181516142e59190615338565b67ffffffffffffffff16905250825160808b01805163ffffffff9092169161430e908390615149565b67ffffffffffffffff169052506143f6565b89606001518a6080018181516143369190615149565b67ffffffffffffffff1690525060608a0151835160009161435c9163ffffffff16615338565b90508067ffffffffffffffff168b60a0015167ffffffffffffffff16106143c257808b60a00181815161438f9190615338565b67ffffffffffffffff1690525060c08b0180518291906143b0908390615149565b67ffffffffffffffff169052506143ed565b8a60a001518b60c0018181516143d89190615149565b67ffffffffffffffff16905250600060a08c01525b50600060608b01525b60608a0151600088815260046020526040812090600161443760027f00000000000000000000000000000000000000000000000000000000000000006150b7565b61444190426150b7565b61444b9190615132565b815260208082019290925260409081016000908120805467ffffffffffffffff191667ffffffffffffffff959095169490941790935560808d01518a845260049092528220909160016144bf60027f00000000000000000000000000000000000000000000000000000000000000006150b7565b6144c990426150b7565b6144d39190615132565b815260200190815260200160002060000160086101000a81548167ffffffffffffffff021916908367ffffffffffffffff1602179055508960a0015160046000898152602001908152602001600020600060027f000000000000000000000000000000000000000000000000000000000000000061455191906150b7565b61455b90426150b7565b815260208082019290925260409081016000908120805467ffffffffffffffff191667ffffffffffffffff959095169490941790935560c08d01518a84526004909252822090916145cd60027f00000000000000000000000000000000000000000000000000000000000000006150b7565b6145d790426150b7565b815260200190815260200160002060000160086101000a81548167ffffffffffffffff021916908367ffffffffffffffff1602179055505b60008663ffffffff161180156146385750896020015163ffffffff16836040015163ffffffff16145b1561471857614647828761510d565b63ffffffff166080840190815260016060850152600088815260208190526040902080547fffffffffffffffff000000000000000000000000000000000000000000000000166001600160a01b038c161790558a5190516146a89190613021565b6000888152602081905260409020805477ffffffffffffffffffffffffffffffffffffffffffffffff16600160c01b63ffffffff938416027bffffffffffffffffffffffffffffffffffffffffffffffffffffffff1617600160e01b429390931692909202919091179055614760565b8563ffffffff16836020015163ffffffff16141561475857808a60200151614740919061510d565b63ffffffff16608084018190528a516146a891613021565b61476061575d565b5050979650505050505050565b8160008080808061479f60027f00000000000000000000000000000000000000000000000000000000000000006150b7565b6147a990426150b7565b60008881526004602052604081209192506147c5600184615132565b815260208082019290925260409081016000908120548a8252600490935290812067ffffffffffffffff90921696506147ff600184615132565b815260208082019290925260409081016000908120548a825260048452828220858352909352205467ffffffffffffffff9182169550818116945068010000000000000000900416915061487b63ffffffff871661485d8588615149565b6148679190615149565b67ffffffffffffffff1663ffffffff614100565b9550509295509295909350565b803563ffffffff8116811461489c57600080fd5b919050565b6000806000606084860312156148b657600080fd5b833592506148c660208501614888565b9150604084013590509250925092565b6001600160a01b03811681146148eb57600080fd5b50565b60008060008060008060008060008060006101608c8e03121561491057600080fd5b8b3561491b816148d6565b9a5060208c013561492b816148d6565b995060408c0135985061494060608d01614888565b975061494e60808d01614888565b965061495c60a08d01614888565b955061496a60c08d01614888565b945061497860e08d01614888565b93506149876101008d01614888565b92506149966101208d01614888565b91506149a56101408d01614888565b90509295989b509295989b9093969950565b6000808284036101008112156149cc57600080fd5b8335925060e0601f19820112156149e257600080fd5b506020830190509250929050565b600060208284031215614a0257600080fd5b5035919050565b6101c08101614a6682856001600160a01b038151168252602081015163ffffffff8082166020850152806040840151166040850152806060840151166060850152505060808101511515608083015260a081015160a08301525050565b8251600090810b60c08401526020840151900b60e0830152604083015161ffff9081166101008401526060840151166101208301526080830151614ab161014084018261ffff169052565b5060a083015161ffff90811661016084015260c0840151811661018084015260e0909301519092166101a090910152919050565b60008060408385031215614af857600080fd5b823591506020830135614b0a816148d6565b809150509250929050565b60008060408385031215614b2857600080fd5b50508035926020909101359150565b60008083601f840112614b4957600080fd5b50813567ffffffffffffffff811115614b6157600080fd5b60208301915083602082850101111561233d57600080fd5b600080600080600060808688031215614b9157600080fd5b8535614b9c816148d6565b94506020860135614bac816148d6565b935060408601359250606086013567ffffffffffffffff811115614bcf57600080fd5b614bdb88828901614b37565b969995985093965092949392505050565b600060208284031215614bfe57600080fd5b8135613040816148d6565b80151581146148eb57600080fd5b60008060408385031215614c2a57600080fd5b8235614c35816148d6565b91506020830135614b0a81614c09565b60008060008060608587031215614c5b57600080fd5b8435614c66816148d6565b935060208501359250604085013567ffffffffffffffff811115614c8957600080fd5b614c9587828801614b37565b95989497509550505050565b60008083601f840112614cb357600080fd5b50813567ffffffffffffffff811115614ccb57600080fd5b6020830191508360208260051b850101111561233d57600080fd5b60008060208385031215614cf957600080fd5b823567ffffffffffffffff811115614d1057600080fd5b614d1c85828601614ca1565b90969095509350505050565b60a0808252835190820181905260009060c090818401906020808801855b83811015614db757614da78583516001600160a01b038151168252602081015163ffffffff8082166020850152806040840151166040850152806060840151166060850152505060808101511515608083015260a081015160a08301525050565b9385019390820190600101614d46565b5050829450614df381870188805163ffffffff908116835260208083015182169084015260408083015182169084015260609182015116910152565b505050509392505050565b60008060408385031215614e1157600080fd5b8235614e1c816148d6565b946020939093013593505050565b60808101611a038284805163ffffffff908116835260208083015182169084015260408083015182169084015260609182015116910152565b600060a08284031215614e7557600080fd5b50919050565b600080600060408486031215614e9057600080fd5b8335614e9b816148d6565b9250602084013567ffffffffffffffff811115614eb757600080fd5b614ec386828701614ca1565b9497909650939450505050565b634e487b7160e01b600052604160045260246000fd5b600060e08284031215614ef857600080fd5b60405160e0810181811067ffffffffffffffff82111715614f2957634e487b7160e01b600052604160045260246000fd5b80604052508235815260208301356020820152604083013560408201526060830135614f54816148d6565b60608201526080838101359082015260a0830135614f71816148d6565b60a082015260c0830135614f84816148d6565b60c08201529392505050565b634e487b7160e01b600052601160045260246000fd5b6000600019821415614fba57614fba614f90565b5060010190565b60008219821115614fd457614fd4614f90565b500190565b600060208284031215614feb57600080fd5b815161304081614c09565b634e487b7160e01b600052603260045260246000fd5b600060a0828403121561501e57600080fd5b60405160a0810181811067ffffffffffffffff8211171561504f57634e487b7160e01b600052604160045260246000fd5b604052823561505d816148d6565b8152602083013561506d816148d6565b60208201526040838101359082015261508860608401614888565b6060820152608083013560808201528091505092915050565b634e487b7160e01b600052601260045260246000fd5b6000826150c6576150c66150a1565b500490565b600063ffffffff808416806150e2576150e26150a1565b92169190910692915050565b600081600019048311821515161561510857615108614f90565b500290565b600063ffffffff8381169083168181101561512a5761512a614f90565b039392505050565b60008282101561514457615144614f90565b500390565b600067ffffffffffffffff80831681851680830382111561516c5761516c614f90565b01949350505050565b60008160000b8360000b60008112817fffffffffffffffffffffffffffffffffffffffffffffffffffffffffffffff80018312811516156151b8576151b8614f90565b81607f0183138116156151cd576151cd614f90565b5090039392505050565b600061ffff808316818516818304811182151516156151f8576151f8614f90565b02949350505050565b600061ffff80831681851680830382111561516c5761516c614f90565b600063ffffffff80831681851680830382111561516c5761516c614f90565b60007f800000000000000000000000000000000000000000000000000000000000000082141561526f5761526f614f90565b5060000390565b6000808212827f7fffffffffffffffffffffffffffffffffffffffffffffffffffffffffffffff038413811516156152b0576152b0614f90565b827f80000000000000000000000000000000000000000000000000000000000000000384128116156152e4576152e4614f90565b50500190565b600060ff821660ff84168160ff048111821515161561530b5761530b614f90565b029392505050565b600060ff821660ff84168060ff0382111561533057615330614f90565b019392505050565b600067ffffffffffffffff8381169083168181101561512a5761512a614f90565b600081600f0b83600f0b6f7fffffffffffffffffffffffffffffff60008213600084138383048511828216161561539257615392614f90565b6f7fffffffffffffffffffffffffffffff1960008512868205861281841616156153be576153be614f90565b600087129250858205871284841616156153da576153da614f90565b858505871281841616156153f0576153f0614f90565b5050509290910295945050505050565b600081600f0b83600f0b60008212826f7fffffffffffffffffffffffffffffff0382138115161561543357615433614f90565b826f7fffffffffffffffffffffffffffffff1903821281161561545857615458614f90565b50019392505050565b600081600f0b83600f0b60008112816f7fffffffffffffffffffffffffffffff190183128115161561549557615495614f90565b816f7fffffffffffffffffffffffffffffff0183138116156151cd576151cd614f90565b600181815b808511156154f45781600019048211156154da576154da614f90565b808516156154e757918102915b93841c93908002906154be565b509250929050565b80825b600180861161550e5750615549565b816f7fffffffffffffffffffffffffffffff0482111561553057615530614f90565b8086161561553d57918102915b9490941c9380026154ff565b935093915050565b600082801561556757600181146155715761557a565b6001915050611a03565b82915050611a03565b508161558857506000611a03565b506001600082138082146155a15780156155c8576155ea565b826f7fffffffffffffffffffffffffffffff048311156155c3576155c3614f90565b6155ea565b826f7fffffffffffffffffffffffffffffff058312156155ea576155ea614f90565b50808316156155f65750805b6156068360011c838402836154fc565b806f7fffffffffffffffffffffffffffffff04821160008313161561562d5761562d614f90565b806f7fffffffffffffffffffffffffffffff1905821260008312161561530b5761530b614f90565b600061304060ff841683600f0b615551565b60008261567657506001611a03565b8161568357506000611a03565b81600181146155675760028114615699576156b5565b60ff8411156156aa576156aa614f90565b50506001821b611a03565b5060208310610133831016604e8410600b84101617156156d8575081810a611a03565b6156e283836154b9565b806000190482111561530b5761530b614f90565b600061304060ff841683615667565b600082615714576157146150a1565b500690565b600060ff83168061572c5761572c6150a1565b8060ff84160491505092915050565b600060ff83168061574e5761574e6150a1565b8060ff84160691505092915050565b634e487b7160e01b600052600160045260246000fdfea26469706673582212204ba487f561c5a64db787fa60dcb47e7f4d57e5818c3f3b6c17e994144a52646664736f6c63430008090033b53127684a568b3173ae13b9f8a6016e243e63b6e8ee1178d6a717850b5d6103",
  "devdoc": {
    "kind": "dev",
    "methods": {},
    "version": 1
  },
  "userdoc": {
    "kind": "user",
    "methods": {},
    "version": 1
  },
  "storageLayout": {
    "storage": [
      {
        "astId": 15005,
        "contract": "src/OuterSpace.sol:OuterSpace",
        "label": "_planets",
        "offset": 0,
        "slot": "0",
        "type": "t_mapping(t_uint256,t_struct(Planet)15053_storage)"
      },
      {
        "astId": 15010,
        "contract": "src/OuterSpace.sol:OuterSpace",
        "label": "_fleets",
        "offset": 0,
        "slot": "1",
        "type": "t_mapping(t_uint256,t_struct(Fleet)15060_storage)"
      },
      {
        "astId": 15014,
        "contract": "src/OuterSpace.sol:OuterSpace",
        "label": "_stakeReadyToBeWithdrawn",
        "offset": 0,
        "slot": "2",
        "type": "t_mapping(t_address,t_uint256)"
      },
      {
        "astId": 15020,
        "contract": "src/OuterSpace.sol:OuterSpace",
        "label": "_operators",
        "offset": 0,
        "slot": "3",
        "type": "t_mapping(t_address,t_mapping(t_address,t_bool))"
      },
      {
        "astId": 15032,
        "contract": "src/OuterSpace.sol:OuterSpace",
        "label": "_inFlight",
        "offset": 0,
        "slot": "4",
        "type": "t_mapping(t_uint256,t_mapping(t_uint256,t_struct(InFlight)15025_storage))"
      },
      {
        "astId": 15044,
        "contract": "src/OuterSpace.sol:OuterSpace",
        "label": "_discovered",
        "offset": 0,
        "slot": "5",
        "type": "t_struct(Discovered)15041_storage"
      },
      {
        "astId": 15064,
        "contract": "src/OuterSpace.sol:OuterSpace",
        "label": "_prevRewardIds",
        "offset": 0,
        "slot": "6",
        "type": "t_mapping(t_address,t_uint256)"
      },
      {
        "astId": 15068,
        "contract": "src/OuterSpace.sol:OuterSpace",
        "label": "_rewards",
        "offset": 0,
        "slot": "7",
        "type": "t_mapping(t_uint256,t_uint256)"
      },
      {
        "astId": 15074,
        "contract": "src/OuterSpace.sol:OuterSpace",
        "label": "_rewardsToWithdraw",
        "offset": 0,
        "slot": "8",
        "type": "t_mapping(t_address,t_mapping(t_uint256,t_bool))"
      }
    ],
    "types": {
      "t_address": {
        "encoding": "inplace",
        "label": "address",
        "numberOfBytes": "20"
      },
      "t_bool": {
        "encoding": "inplace",
        "label": "bool",
        "numberOfBytes": "1"
      },
      "t_mapping(t_address,t_bool)": {
        "encoding": "mapping",
        "key": "t_address",
        "label": "mapping(address => bool)",
        "numberOfBytes": "32",
        "value": "t_bool"
      },
      "t_mapping(t_address,t_mapping(t_address,t_bool))": {
        "encoding": "mapping",
        "key": "t_address",
        "label": "mapping(address => mapping(address => bool))",
        "numberOfBytes": "32",
        "value": "t_mapping(t_address,t_bool)"
      },
      "t_mapping(t_address,t_mapping(t_uint256,t_bool))": {
        "encoding": "mapping",
        "key": "t_address",
        "label": "mapping(address => mapping(uint256 => bool))",
        "numberOfBytes": "32",
        "value": "t_mapping(t_uint256,t_bool)"
      },
      "t_mapping(t_address,t_uint256)": {
        "encoding": "mapping",
        "key": "t_address",
        "label": "mapping(address => uint256)",
        "numberOfBytes": "32",
        "value": "t_uint256"
      },
      "t_mapping(t_uint256,t_bool)": {
        "encoding": "mapping",
        "key": "t_uint256",
        "label": "mapping(uint256 => bool)",
        "numberOfBytes": "32",
        "value": "t_bool"
      },
      "t_mapping(t_uint256,t_mapping(t_uint256,t_struct(InFlight)15025_storage))": {
        "encoding": "mapping",
        "key": "t_uint256",
        "label": "mapping(uint256 => mapping(uint256 => struct OuterSpace.InFlight))",
        "numberOfBytes": "32",
        "value": "t_mapping(t_uint256,t_struct(InFlight)15025_storage)"
      },
      "t_mapping(t_uint256,t_struct(Fleet)15060_storage)": {
        "encoding": "mapping",
        "key": "t_uint256",
        "label": "mapping(uint256 => struct OuterSpace.Fleet)",
        "numberOfBytes": "32",
        "value": "t_struct(Fleet)15060_storage"
      },
      "t_mapping(t_uint256,t_struct(InFlight)15025_storage)": {
        "encoding": "mapping",
        "key": "t_uint256",
        "label": "mapping(uint256 => struct OuterSpace.InFlight)",
        "numberOfBytes": "32",
        "value": "t_struct(InFlight)15025_storage"
      },
      "t_mapping(t_uint256,t_struct(Planet)15053_storage)": {
        "encoding": "mapping",
        "key": "t_uint256",
        "label": "mapping(uint256 => struct OuterSpace.Planet)",
        "numberOfBytes": "32",
        "value": "t_struct(Planet)15053_storage"
      },
      "t_mapping(t_uint256,t_uint256)": {
        "encoding": "mapping",
        "key": "t_uint256",
        "label": "mapping(uint256 => uint256)",
        "numberOfBytes": "32",
        "value": "t_uint256"
      },
      "t_struct(Discovered)15041_storage": {
        "encoding": "inplace",
        "label": "struct OuterSpace.Discovered",
        "members": [
          {
            "astId": 15034,
            "contract": "src/OuterSpace.sol:OuterSpace",
            "label": "minX",
            "offset": 0,
            "slot": "0",
            "type": "t_uint32"
          },
          {
            "astId": 15036,
            "contract": "src/OuterSpace.sol:OuterSpace",
            "label": "maxX",
            "offset": 4,
            "slot": "0",
            "type": "t_uint32"
          },
          {
            "astId": 15038,
            "contract": "src/OuterSpace.sol:OuterSpace",
            "label": "minY",
            "offset": 8,
            "slot": "0",
            "type": "t_uint32"
          },
          {
            "astId": 15040,
            "contract": "src/OuterSpace.sol:OuterSpace",
            "label": "maxY",
            "offset": 12,
            "slot": "0",
            "type": "t_uint32"
          }
        ],
        "numberOfBytes": "32"
      },
      "t_struct(Fleet)15060_storage": {
        "encoding": "inplace",
        "label": "struct OuterSpace.Fleet",
        "members": [
          {
            "astId": 15055,
            "contract": "src/OuterSpace.sol:OuterSpace",
            "label": "owner",
            "offset": 0,
            "slot": "0",
            "type": "t_address"
          },
          {
            "astId": 15057,
            "contract": "src/OuterSpace.sol:OuterSpace",
            "label": "launchTime",
            "offset": 20,
            "slot": "0",
            "type": "t_uint32"
          },
          {
            "astId": 15059,
            "contract": "src/OuterSpace.sol:OuterSpace",
            "label": "quantity",
            "offset": 24,
            "slot": "0",
            "type": "t_uint32"
          }
        ],
        "numberOfBytes": "32"
      },
      "t_struct(InFlight)15025_storage": {
        "encoding": "inplace",
        "label": "struct OuterSpace.InFlight",
        "members": [
          {
            "astId": 15022,
            "contract": "src/OuterSpace.sol:OuterSpace",
            "label": "flying",
            "offset": 0,
            "slot": "0",
            "type": "t_uint64"
          },
          {
            "astId": 15024,
            "contract": "src/OuterSpace.sol:OuterSpace",
            "label": "destroyed",
            "offset": 8,
            "slot": "0",
            "type": "t_uint64"
          }
        ],
        "numberOfBytes": "32"
      },
      "t_struct(Planet)15053_storage": {
        "encoding": "inplace",
        "label": "struct OuterSpace.Planet",
        "members": [
          {
            "astId": 15046,
            "contract": "src/OuterSpace.sol:OuterSpace",
            "label": "owner",
            "offset": 0,
            "slot": "0",
            "type": "t_address"
          },
          {
            "astId": 15048,
            "contract": "src/OuterSpace.sol:OuterSpace",
            "label": "exitTime",
            "offset": 20,
            "slot": "0",
            "type": "t_uint32"
          },
          {
            "astId": 15050,
            "contract": "src/OuterSpace.sol:OuterSpace",
            "label": "numSpaceships",
            "offset": 24,
            "slot": "0",
            "type": "t_uint32"
          },
          {
            "astId": 15052,
            "contract": "src/OuterSpace.sol:OuterSpace",
            "label": "lastUpdated",
            "offset": 28,
            "slot": "0",
            "type": "t_uint32"
          }
        ],
        "numberOfBytes": "32"
      },
      "t_uint256": {
        "encoding": "inplace",
        "label": "uint256",
        "numberOfBytes": "32"
      },
      "t_uint32": {
        "encoding": "inplace",
        "label": "uint32",
        "numberOfBytes": "4"
      },
      "t_uint64": {
        "encoding": "inplace",
        "label": "uint64",
        "numberOfBytes": "8"
      }
    }
  }
}