{
  "address": "0x93124Ed0d78a0AE1eCB13752C867D38d52066a06",
  "abi": [
    {
      "inputs": [
        {
          "internalType": "contract IERC20",
          "name": "stakingToken",
          "type": "address"
        },
        {
          "internalType": "contract AllianceRegistry",
          "name": "theAllianceRegistry",
          "type": "address"
        },
        {
          "internalType": "bytes32",
          "name": "genesis",
          "type": "bytes32"
        },
        {
          "internalType": "uint32",
          "name": "resolveWindow",
          "type": "uint32"
        },
        {
          "internalType": "uint32",
          "name": "timePerDistance",
          "type": "uint32"
        },
        {
          "internalType": "uint32",
          "name": "exitDuration",
          "type": "uint32"
        },
        {
          "internalType": "uint32",
          "name": "acquireNumSpaceships",
          "type": "uint32"
        },
        {
          "internalType": "uint32",
          "name": "productionSpeedUp",
          "type": "uint32"
        },
        {
          "internalType": "uint32",
          "name": "frontrunningDelay",
          "type": "uint32"
        },
        {
          "internalType": "uint32",
          "name": "productionCapAsDuration",
          "type": "uint32"
        },
        {
          "internalType": "uint32",
          "name": "fleetSizeFactor6",
          "type": "uint32"
        }
      ],
      "stateMutability": "nonpayable",
      "type": "constructor"
    },
    {
      "anonymous": false,
      "inputs": [
        {
          "indexed": true,
          "internalType": "address",
          "name": "owner",
          "type": "address"
        },
        {
          "indexed": true,
          "internalType": "address",
          "name": "operator",
          "type": "address"
        },
        {
          "indexed": false,
          "internalType": "bool",
          "name": "approved",
          "type": "bool"
        }
      ],
      "name": "ApprovalForAll",
      "type": "event"
    },
    {
      "anonymous": false,
      "inputs": [
        {
          "indexed": true,
          "internalType": "address",
          "name": "owner",
          "type": "address"
        },
        {
          "indexed": true,
          "internalType": "uint256",
          "name": "location",
          "type": "uint256"
        },
        {
          "indexed": false,
          "internalType": "uint256",
          "name": "stake",
          "type": "uint256"
        }
      ],
      "name": "ExitComplete",
      "type": "event"
    },
    {
      "anonymous": false,
      "inputs": [
        {
          "indexed": true,
          "internalType": "uint256",
          "name": "fleet",
          "type": "uint256"
        },
        {
          "indexed": true,
          "internalType": "address",
          "name": "fleetOwner",
          "type": "address"
        },
        {
          "indexed": true,
          "internalType": "address",
          "name": "destinationOwner",
          "type": "address"
        },
        {
          "indexed": false,
          "internalType": "uint256",
          "name": "destination",
          "type": "uint256"
        },
        {
          "indexed": false,
          "internalType": "bool",
          "name": "gift",
          "type": "bool"
        },
        {
          "indexed": false,
          "internalType": "uint32",
          "name": "fleetLoss",
          "type": "uint32"
        },
        {
          "indexed": false,
          "internalType": "uint32",
          "name": "planetLoss",
          "type": "uint32"
        },
        {
          "indexed": false,
          "internalType": "uint32",
          "name": "inFlightFleetLoss",
          "type": "uint32"
        },
        {
          "indexed": false,
          "internalType": "uint32",
          "name": "inFlightPlanetLoss",
          "type": "uint32"
        },
        {
          "indexed": false,
          "internalType": "bool",
          "name": "won",
          "type": "bool"
        },
        {
          "indexed": false,
          "internalType": "uint32",
          "name": "newNumspaceships",
          "type": "uint32"
        }
      ],
      "name": "FleetArrived",
      "type": "event"
    },
    {
      "anonymous": false,
      "inputs": [
        {
          "indexed": true,
          "internalType": "address",
          "name": "fleetSender",
          "type": "address"
        },
        {
          "indexed": true,
          "internalType": "address",
          "name": "fleetOwner",
          "type": "address"
        },
        {
          "indexed": true,
          "internalType": "uint256",
          "name": "from",
          "type": "uint256"
        },
        {
          "indexed": false,
          "internalType": "address",
          "name": "operator",
          "type": "address"
        },
        {
          "indexed": false,
          "internalType": "uint256",
          "name": "fleet",
          "type": "uint256"
        },
        {
          "indexed": false,
          "internalType": "uint32",
          "name": "quantity",
          "type": "uint32"
        },
        {
          "indexed": false,
          "internalType": "uint32",
          "name": "newNumSpaceships",
          "type": "uint32"
        }
      ],
      "name": "FleetSent",
      "type": "event"
    },
    {
      "anonymous": false,
      "inputs": [
        {
          "indexed": true,
          "internalType": "address",
          "name": "owner",
          "type": "address"
        },
        {
          "indexed": true,
          "internalType": "uint256",
          "name": "location",
          "type": "uint256"
        }
      ],
      "name": "PlanetExit",
      "type": "event"
    },
    {
      "anonymous": false,
      "inputs": [
        {
          "indexed": true,
          "internalType": "address",
          "name": "acquirer",
          "type": "address"
        },
        {
          "indexed": true,
          "internalType": "uint256",
          "name": "location",
          "type": "uint256"
        },
        {
          "indexed": false,
          "internalType": "uint32",
          "name": "numSpaceships",
          "type": "uint32"
        },
        {
          "indexed": false,
          "internalType": "uint256",
          "name": "stake",
          "type": "uint256"
        }
      ],
      "name": "PlanetStake",
      "type": "event"
    },
    {
      "anonymous": false,
      "inputs": [
        {
          "indexed": true,
          "internalType": "uint256",
          "name": "location",
          "type": "uint256"
        },
        {
          "indexed": false,
          "internalType": "uint256",
          "name": "rewardId",
          "type": "uint256"
        }
      ],
      "name": "RewardSetup",
      "type": "event"
    },
    {
      "anonymous": false,
      "inputs": [
        {
          "indexed": true,
          "internalType": "address",
          "name": "owner",
          "type": "address"
        },
        {
          "indexed": true,
          "internalType": "uint256",
          "name": "location",
          "type": "uint256"
        },
        {
          "indexed": true,
          "internalType": "uint256",
          "name": "rewardId",
          "type": "uint256"
        }
      ],
      "name": "RewardToWithdraw",
      "type": "event"
    },
    {
      "anonymous": false,
      "inputs": [
        {
          "indexed": true,
          "internalType": "address",
          "name": "owner",
          "type": "address"
        },
        {
          "indexed": false,
          "internalType": "uint256",
          "name": "newStake",
          "type": "uint256"
        }
      ],
      "name": "StakeToWithdraw",
      "type": "event"
    },
    {
      "inputs": [
        {
          "internalType": "uint256",
          "name": "location",
          "type": "uint256"
        },
        {
          "internalType": "uint256",
          "name": "amount",
          "type": "uint256"
        }
      ],
      "name": "acquireViaTransferFrom",
      "outputs": [],
      "stateMutability": "nonpayable",
      "type": "function"
    },
    {
      "inputs": [
        {
          "internalType": "uint256",
          "name": "location",
          "type": "uint256"
        },
        {
          "internalType": "address",
          "name": "sponsor",
          "type": "address"
        }
      ],
      "name": "addReward",
      "outputs": [],
      "stateMutability": "nonpayable",
      "type": "function"
    },
    {
      "inputs": [],
      "name": "allianceRegistry",
      "outputs": [
        {
          "internalType": "contract AllianceRegistry",
          "name": "",
          "type": "address"
        }
      ],
      "stateMutability": "view",
      "type": "function"
    },
    {
      "inputs": [
        {
          "internalType": "address",
          "name": "owner",
          "type": "address"
        }
      ],
      "name": "balanceToWithdraw",
      "outputs": [
        {
          "internalType": "uint256",
          "name": "",
          "type": "uint256"
        }
      ],
      "stateMutability": "view",
      "type": "function"
    },
    {
      "inputs": [
        {
          "internalType": "address",
          "name": "owner",
          "type": "address"
        },
        {
          "internalType": "uint256",
          "name": "location",
          "type": "uint256"
        }
      ],
      "name": "exitFor",
      "outputs": [],
      "stateMutability": "nonpayable",
      "type": "function"
    },
    {
      "inputs": [
        {
          "internalType": "address",
          "name": "owner",
          "type": "address"
        },
        {
          "internalType": "uint256[]",
          "name": "locations",
          "type": "uint256[]"
        }
      ],
      "name": "fetchAndWithdrawFor",
      "outputs": [],
      "stateMutability": "nonpayable",
      "type": "function"
    },
    {
      "inputs": [],
      "name": "getDiscovered",
      "outputs": [
        {
          "components": [
            {
              "internalType": "uint32",
              "name": "minX",
              "type": "uint32"
            },
            {
              "internalType": "uint32",
              "name": "maxX",
              "type": "uint32"
            },
            {
              "internalType": "uint32",
              "name": "minY",
              "type": "uint32"
            },
            {
              "internalType": "uint32",
              "name": "maxY",
              "type": "uint32"
            }
          ],
          "internalType": "struct OuterSpace.Discovered",
          "name": "",
          "type": "tuple"
        }
      ],
      "stateMutability": "view",
      "type": "function"
    },
    {
      "inputs": [
        {
          "internalType": "uint256",
          "name": "fleetId",
          "type": "uint256"
        },
        {
          "internalType": "uint256",
          "name": "from",
          "type": "uint256"
        }
      ],
      "name": "getFleet",
      "outputs": [
        {
          "internalType": "address",
          "name": "owner",
          "type": "address"
        },
        {
          "internalType": "uint32",
          "name": "launchTime",
          "type": "uint32"
        },
        {
          "internalType": "uint32",
          "name": "quantity",
          "type": "uint32"
        },
        {
          "internalType": "uint64",
          "name": "flyingAtLaunch",
          "type": "uint64"
        },
        {
          "internalType": "uint64",
          "name": "destroyedAtLaunch",
          "type": "uint64"
        }
      ],
      "stateMutability": "view",
      "type": "function"
    },
    {
      "inputs": [],
      "name": "getGeneisHash",
      "outputs": [
        {
          "internalType": "bytes32",
          "name": "",
          "type": "bytes32"
        }
      ],
      "stateMutability": "view",
      "type": "function"
    },
    {
      "inputs": [
        {
          "internalType": "uint256",
          "name": "location",
          "type": "uint256"
        }
      ],
      "name": "getPlanet",
      "outputs": [
        {
          "components": [
            {
              "internalType": "address",
              "name": "owner",
              "type": "address"
            },
            {
              "internalType": "uint32",
              "name": "exitTime",
              "type": "uint32"
            },
            {
              "internalType": "uint32",
              "name": "numSpaceships",
              "type": "uint32"
            },
            {
              "internalType": "uint32",
              "name": "lastUpdated",
              "type": "uint32"
            },
            {
              "internalType": "bool",
              "name": "active",
              "type": "bool"
            },
            {
              "internalType": "uint256",
              "name": "reward",
              "type": "uint256"
            }
          ],
          "internalType": "struct OuterSpace.ExternalPlanet",
          "name": "state",
          "type": "tuple"
        },
        {
          "components": [
            {
              "internalType": "int8",
              "name": "subX",
              "type": "int8"
            },
            {
              "internalType": "int8",
              "name": "subY",
              "type": "int8"
            },
            {
              "internalType": "uint16",
              "name": "stake",
              "type": "uint16"
            },
            {
              "internalType": "uint16",
              "name": "production",
              "type": "uint16"
            },
            {
              "internalType": "uint16",
              "name": "attack",
              "type": "uint16"
            },
            {
              "internalType": "uint16",
              "name": "defense",
              "type": "uint16"
            },
            {
              "internalType": "uint16",
              "name": "speed",
              "type": "uint16"
            },
            {
              "internalType": "uint16",
              "name": "natives",
              "type": "uint16"
            }
          ],
          "internalType": "struct OuterSpace.PlanetStats",
          "name": "stats",
          "type": "tuple"
        }
      ],
      "stateMutability": "view",
      "type": "function"
    },
    {
      "inputs": [
        {
          "internalType": "uint256[]",
          "name": "locations",
          "type": "uint256[]"
        }
      ],
      "name": "getPlanetStates",
      "outputs": [
        {
          "components": [
            {
              "internalType": "address",
              "name": "owner",
              "type": "address"
            },
            {
              "internalType": "uint32",
              "name": "exitTime",
              "type": "uint32"
            },
            {
              "internalType": "uint32",
              "name": "numSpaceships",
              "type": "uint32"
            },
            {
              "internalType": "uint32",
              "name": "lastUpdated",
              "type": "uint32"
            },
            {
              "internalType": "bool",
              "name": "active",
              "type": "bool"
            },
            {
              "internalType": "uint256",
              "name": "reward",
              "type": "uint256"
            }
          ],
          "internalType": "struct OuterSpace.ExternalPlanet[]",
          "name": "planetStates",
          "type": "tuple[]"
        },
        {
          "components": [
            {
              "internalType": "uint32",
              "name": "minX",
              "type": "uint32"
            },
            {
              "internalType": "uint32",
              "name": "maxX",
              "type": "uint32"
            },
            {
              "internalType": "uint32",
              "name": "minY",
              "type": "uint32"
            },
            {
              "internalType": "uint32",
              "name": "maxY",
              "type": "uint32"
            }
          ],
          "internalType": "struct OuterSpace.Discovered",
          "name": "discovered",
          "type": "tuple"
        }
      ],
      "stateMutability": "view",
      "type": "function"
    },
    {
      "inputs": [
        {
          "internalType": "address",
          "name": "",
          "type": "address"
        },
        {
          "internalType": "address",
          "name": "forAddress",
          "type": "address"
        },
        {
          "internalType": "uint256",
          "name": "amount",
          "type": "uint256"
        },
        {
          "internalType": "bytes",
          "name": "data",
          "type": "bytes"
        }
      ],
      "name": "onTokenPaidFor",
      "outputs": [
        {
          "internalType": "bool",
          "name": "",
          "type": "bool"
        }
      ],
      "stateMutability": "nonpayable",
      "type": "function"
    },
    {
      "inputs": [
        {
          "internalType": "address",
          "name": "",
          "type": "address"
        },
        {
          "internalType": "uint256",
          "name": "amount",
          "type": "uint256"
        },
        {
          "internalType": "bytes",
          "name": "data",
          "type": "bytes"
        }
      ],
      "name": "onTokenTransfer",
      "outputs": [
        {
          "internalType": "bool",
          "name": "",
          "type": "bool"
        }
      ],
      "stateMutability": "nonpayable",
      "type": "function"
    },
    {
      "inputs": [
        {
          "internalType": "contract IERC20",
          "name": "",
          "type": "address"
        },
        {
          "internalType": "contract AllianceRegistry",
          "name": "",
          "type": "address"
        },
        {
          "internalType": "bytes32",
          "name": "",
          "type": "bytes32"
        },
        {
          "internalType": "uint32",
          "name": "",
          "type": "uint32"
        },
        {
          "internalType": "uint32",
          "name": "",
          "type": "uint32"
        },
        {
          "internalType": "uint32",
          "name": "",
          "type": "uint32"
        },
        {
          "internalType": "uint32",
          "name": "",
          "type": "uint32"
        },
        {
          "internalType": "uint32",
          "name": "",
          "type": "uint32"
        },
        {
          "internalType": "uint32",
          "name": "",
          "type": "uint32"
        },
        {
          "internalType": "uint32",
          "name": "",
          "type": "uint32"
        },
        {
          "internalType": "uint32",
          "name": "",
          "type": "uint32"
        }
      ],
      "name": "postUpgrade",
      "outputs": [],
      "stateMutability": "nonpayable",
      "type": "function"
    },
    {
      "inputs": [
        {
          "internalType": "uint256",
          "name": "fleetId",
          "type": "uint256"
        },
        {
          "components": [
            {
              "internalType": "uint256",
              "name": "from",
              "type": "uint256"
            },
            {
              "internalType": "uint256",
              "name": "to",
              "type": "uint256"
            },
            {
              "internalType": "uint256",
              "name": "distance",
              "type": "uint256"
            },
            {
              "internalType": "address",
              "name": "alliance",
              "type": "address"
            },
            {
              "internalType": "bytes32",
              "name": "secret",
              "type": "bytes32"
            },
            {
              "internalType": "address",
              "name": "fleetSender",
              "type": "address"
            },
            {
              "internalType": "address",
              "name": "operator",
              "type": "address"
            }
          ],
          "internalType": "struct OuterSpace.FleetResolution",
          "name": "resolution",
          "type": "tuple"
        }
      ],
      "name": "resolveFleet",
      "outputs": [],
      "stateMutability": "nonpayable",
      "type": "function"
    },
    {
      "inputs": [
        {
          "internalType": "uint256",
          "name": "from",
          "type": "uint256"
        },
        {
          "internalType": "uint32",
          "name": "quantity",
          "type": "uint32"
        },
        {
          "internalType": "bytes32",
          "name": "toHash",
          "type": "bytes32"
        }
      ],
      "name": "send",
      "outputs": [],
      "stateMutability": "nonpayable",
      "type": "function"
    },
    {
      "inputs": [
        {
          "components": [
            {
              "internalType": "address",
              "name": "fleetSender",
              "type": "address"
            },
            {
              "internalType": "address",
              "name": "fleetOwner",
              "type": "address"
            },
            {
              "internalType": "uint256",
              "name": "from",
              "type": "uint256"
            },
            {
              "internalType": "uint32",
              "name": "quantity",
              "type": "uint32"
            },
            {
              "internalType": "bytes32",
              "name": "toHash",
              "type": "bytes32"
            }
          ],
          "internalType": "struct OuterSpace.FleetLaunch",
          "name": "launch",
          "type": "tuple"
        }
      ],
      "name": "sendFor",
      "outputs": [],
      "stateMutability": "nonpayable",
      "type": "function"
    },
    {
      "inputs": [
        {
          "internalType": "address",
          "name": "operator",
          "type": "address"
        },
        {
          "internalType": "bool",
          "name": "approved",
          "type": "bool"
        }
      ],
      "name": "setApprovalForAll",
      "outputs": [],
      "stateMutability": "nonpayable",
      "type": "function"
    },
    {
      "inputs": [
        {
          "internalType": "address",
          "name": "owner",
          "type": "address"
        }
      ],
      "name": "withdrawFor",
      "outputs": [],
      "stateMutability": "nonpayable",
      "type": "function"
    }
  ],
  "transactionHash": "0xe2d3099c67f561f993b904da2bab934b3937045d5bf8ed1bb3fe7a50c103e980",
  "args": [
    "0x20A447BC1FCAD743AA137E2E1f4df2fe8B29E254",
    "0xc338AB1Fd3E4D81faEBF941BC447AF5Cd18E63a1",
    "0xe0c3fa9ae97fc9b60baae605896b5e3e7cecb6baaaa4708162d1ec51e8d65111",
    43200,
    1440,
    51840,
    100000,
    5,
    360,
    51840,
    500000
  ],
  "linkedData": {
    "genesisHash": "0xe0c3fa9ae97fc9b60baae605896b5e3e7cecb6baaaa4708162d1ec51e8d65111",
    "resolveWindow": 43200,
    "timePerDistance": 1440,
    "exitDuration": 51840,
    "acquireNumSpaceships": 100000,
    "productionSpeedUp": 5,
    "chainGenesisHash": "",
    "frontrunningDelay": 360,
    "productionCapAsDuration": 51840,
    "fleetSizeFactor6": 500000
  },
  "solcInputHash": "da68c312d2134714a09745f5c59935fe",
  "bytecode": "0x6101e06040523480156200001257600080fd5b5060405162005c9538038062005c9583398101604081905262000035916200021b565b600062000044600489620002fb565b905063ffffffff88166200005a8260046200032d565b63ffffffff1614620000b25760405162461bcd60e51b815260206004820152601d60248201527f54494d455f5045525f444953545f4e4f545f444956495349424c455f34000000604482015260640160405180910390fd5b6001600160a01b03808d1660c0528b1660805260a08a905263ffffffff808a1660e05281811661010052878116610120528681166101405285811661016052848116610180528381166101a05282166101c0526200011a8c8c8c8c8c8c8c8c8c8c8c6200012c565b50505050505050505050505062000368565b60006200014660008051602062005c758339815191525490565b90506001600160a01b03811662000176576001600160a01b0360008051602062005c75833981519152556200018c565b336001600160a01b038216146200018c57600080fd5b60055463ffffffff16620001da576040805160808101825260108082526020820181905291810182905260600152600580546001600160801b0319166c100000001000000010000000101790555b505050505050505050505050565b6001600160a01b0381168114620001fe57600080fd5b50565b805163ffffffff811681146200021657600080fd5b919050565b60008060008060008060008060008060006101608c8e0312156200023e57600080fd5b8b516200024b81620001e8565b60208d0151909b506200025e81620001e8565b60408d0151909a5098506200027660608d0162000201565b97506200028660808d0162000201565b96506200029660a08d0162000201565b9550620002a660c08d0162000201565b9450620002b660e08d0162000201565b9350620002c76101008d0162000201565b9250620002d86101208d0162000201565b9150620002e96101408d0162000201565b90509295989b509295989b9093969950565b600063ffffffff808416806200032157634e487b7160e01b600052601260045260246000fd5b92169190910492915050565b600063ffffffff808316818516818304811182151516156200035f57634e487b7160e01b600052601160045260246000fd5b02949350505050565b60805160a05160c05160e05161010051610120516101405161016051610180516101a0516101c05161579f620004d660003960008181613a7c01528181613aaf01528181613b300152613b63015260008181611ee20152611f160152600081816113160152818161210a0152818161304701528181614409015281816144910152818161451e0152818161459f0152614771015260008181611fdf0152612071015260008181611f4f01528181612961015281816129f201528181612a4001528181612a8701528181612b060152612b37015260006119cb015260006133df01526000613481015260008181610a0e01528181610a9d01528181610bcd0152611bb50152600081816101e3015281816114680152818161188001528181611a4e01528181611c8301528181613174015281816131da01528181613386015281816136de01528181613869015281816138f00152613dc20152600081816103db0152613603015261579f6000f3fe608060405234801561001057600080fd5b50600436106101515760003560e01c8063a22cb465116100cd578063c956083811610081578063e2e9b07911610066578063e2e9b07914610368578063ee5433931461037b578063f9c8974d146103d657600080fd5b8063c95608381461032c578063cf3ecf071461035557600080fd5b8063aba789f5116100b2578063aba789f51461026d578063afc823701461028e578063c5aaa0ae146102a157600080fd5b8063a22cb46514610247578063a4c0ed361461025a57600080fd5b806356bf642d116101245780637cef64d8116101095780637cef64d8146101e15780639b6be065146102115780639eca672c1461023457600080fd5b806356bf642d146101bb5780637ba423fb146101ce57600080fd5b8063112e6851146101565780631b7c9c171461016b578063243f66c91461017e57806334efcb8e14610191575b600080fd5b610169610164366004614897565b610415565b005b6101696101793660046148e4565b6104bc565b61016961018c3660046149ad565b6105ad565b6101a461019f3660046149e6565b6106ec565b6040516101b29291906149ff565b60405180910390f35b6101696101c9366004614adb565b610807565b6101696101dc366004614b0b565b6109bd565b7f00000000000000000000000000000000000000000000000000000000000000005b6040519081526020016101b2565b61022461021f366004614b6f565b610a90565b60405190151581526020016101b2565b610169610242366004614be2565b610b32565b610169610255366004614c0d565b610b55565b610224610268366004614c3b565b610bc0565b61028061027b366004614cdc565b610c58565b6040516101b2929190614d1e565b61016961029c366004614df4565b610e68565b61031f604080516080810182526000808252602082018190529181018290526060810191909152506040805160808101825260055463ffffffff80821683526401000000008204811660208401526801000000000000000082048116938301939093526c010000000000000000000000009004909116606082015290565b6040516101b29190614e20565b61020361033a366004614be2565b6001600160a01b031660009081526002602052604090205490565b610169610363366004614e59565b610f9d565b610169610376366004614e71565b6111c5565b61038e610389366004614b0b565b6112db565b604080516001600160a01b03909616865263ffffffff9485166020870152939092169284019290925267ffffffffffffffff918216606084015216608082015260a0016101b2565b6103fd7f000000000000000000000000000000000000000000000000000000000000000081565b6040516001600160a01b0390911681526020016101b2565b6000336040805160208101859052908101869052606082811b6bffffffffffffffffffffffff191690820181905260748201529091506000906088016040516020818303038152906040528051906020012060001c90506104b581836040518060a00160405280866001600160a01b03168152602001866001600160a01b031681526020018981526020018863ffffffff1681526020018781525061138d565b5050505050565b60006104e67fb53127684a568b3173ae13b9f8a6016e243e63b6e8ee1178d6a717850b5d61035490565b90506001600160a01b038116610525576001600160a01b037fb53127684a568b3173ae13b9f8a6016e243e63b6e8ee1178d6a717850b5d61035561053a565b336001600160a01b0382161461053a57600080fd5b60055463ffffffff1661059f576040805160808101825260108082526020820181905291810182905260600152600580547fffffffffffffffffffffffffffffffff00000000000000000000000000000000166c100000001000000010000000101790555b505050505050505050505050565b81608082018035906020840135906000906105cb9060608701614be2565b6040805160208101959095528401929092526001600160a01b039091161160f81b606082015260610160408051601f198184030181529190528051602090910120823561061e60c0850160a08601614be2565b61062e60e0860160c08701614be2565b6040805160208101959095528401929092526bffffffffffffffffffffffff19606091821b81168285015291901b1660748201526088016040516020818303038152906040528051906020012060001c146106d05760405162461bcd60e51b815260206004820152601d60248201527f494e56414c49445f464c4545545f444154415f4f525f5345435245542700000060448201526064015b60405180910390fd5b6106e8826106e336849003840184614edc565b6116cd565b5050565b6040805160c081018252600080825260208201819052918101829052606081018290526080810182905260a08101919091526040805161010081018252600080825260208201819052918101829052606081018290526080810182905260a0810182905260c0810182905260e081019190915260008381526020819052604081208054909150600090819061078d90600160c01b900463ffffffff1661181a565b6040805160c08101825286546001600160a01b038116825263ffffffff600160a01b8204811660208085019190915281861684860152600160e01b909204166060830152841515608083015260008b81526007909152919091205460a0820152965090925090506107fd86611839565b9350505050915091565b7fb53127684a568b3173ae13b9f8a6016e243e63b6e8ee1178d6a717850b5d6103546001600160a01b0316336001600160a01b0316146108895760405162461bcd60e51b815260206004820152600e60248201527f4e4f545f415554484f52495a454400000000000000000000000000000000000060448201526064016106c7565b60008281526020818152604091829020825160808101845290546001600160a01b038116825263ffffffff600160a01b82048116938301849052600160c01b8204811694830194909452600160e01b900490921660608301526108eb906119b4565b1561090f578051600084815260208190526040812061090f928692909190806119ff565b6000838152600760205260409020548061097d576001600160a01b0383166000908152600660205260408120805490919061094990614f9c565b9182905550905061096d816bffffffffffffffffffffffff19606086901b16614fb7565b6000858152600760205260409020555b837f4c808d5eeb14d6e887046c8635adb3d27ad4977c0fda2a3ab15a0c95604e8d78826040516109af91815260200190565b60405180910390a250505050565b336109c9818385611a48565b6040517f23b872dd0000000000000000000000000000000000000000000000000000000081526001600160a01b038281166004830152306024830152604482018490527f000000000000000000000000000000000000000000000000000000000000000016906323b872dd90606401602060405180830381600087803b158015610a5257600080fd5b505af1158015610a66573d6000803e3d6000fd5b505050506040513d601f19601f82011682018060405250810190610a8a9190614fcf565b50505050565b6000336001600160a01b037f00000000000000000000000000000000000000000000000000000000000000001614610b0a5760405162461bcd60e51b815260206004820152600d60248201527f494e56414c49445f45524332300000000000000000000000000000000000000060448201526064016106c7565b6000610b18838501856149e6565b9050610b25868683611a48565b5060019695505050505050565b6001600160a01b0381166000908152600260205260409020546106e88282611b6b565b3360008181526003602090815260408083206001600160a01b03871680855290835292819020805460ff19168615159081179091558151908152905184927f17307eab39ab6107e8899845ad3d59bd9653f200f220920489ca2b5937696c31928290030190a3505050565b6000336001600160a01b037f00000000000000000000000000000000000000000000000000000000000000001614610c3a5760405162461bcd60e51b815260206004820152600d60248201527f494e56414c49445f45524332300000000000000000000000000000000000000060448201526064016106c7565b600080610c4984860186614df4565b91509150610b25828783611a48565b604080516080810182526000808252602082018190529181018290526060818101929092528267ffffffffffffffff811115610c9657610c96614ec6565b604051908082528060200260200182016040528015610cf657816020015b6040805160c08101825260008082526020808301829052928201819052606082018190526080820181905260a08201528252600019909201910181610cb45790505b50915060005b83811015610e0a576000610d33868684818110610d1b57610d1b614fec565b90506020020135600090815260208190526040902090565b80549091506000908190610d5390600160c01b900463ffffffff1661181a565b6040805160c08101825286546001600160a01b038116825263ffffffff600160a01b82048116602084015280851693830193909352600160e01b900490911660608201528215156080820152919350915060a08101600760008b8b89818110610dbe57610dbe614fec565b90506020020135815260200190815260200160002054815250868581518110610de957610de9614fec565b60200260200101819052505050508080610e0290614f9c565b915050610cfc565b50506040805160808101825260055463ffffffff80821683526401000000008204811660208401526801000000000000000082048116938301939093526c010000000000000000000000009004909116606082015290939092509050565b600081815260208190526040902080546001600160a01b03848116911614610ed25760405162461bcd60e51b815260206004820152600960248201527f4e4f545f4f574e4552000000000000000000000000000000000000000000000060448201526064016106c7565b8054600160a01b900463ffffffff1615610f2e5760405162461bcd60e51b815260206004820152600f60248201527f45584954494e475f414c5245414459000000000000000000000000000000000060448201526064016106c7565b80547fffffffffffffffff00000000ffffffffffffffffffffffffffffffffffffffff16600160a01b4263ffffffff160217815560405182906001600160a01b038516907fb9182e4e152947f1e6691fa0ee6f68f21f607fed825945c270e69995acad805f90600090a3505050565b33610fab6020830183614be2565b6001600160a01b0316816001600160a01b03161461104d5760036000610fd46020850185614be2565b6001600160a01b039081168252602080830193909352604091820160009081209185168152925290205460ff1661104d5760405162461bcd60e51b815260206004820152601660248201527f4e4f545f415554484f52495a45445f544f5f53454e440000000000000000000060448201526064016106c7565b6000608083013560408401356110666020860186614be2565b6040805160208101949094528301919091526bffffffffffffffffffffffff19606091821b8116828401529084901b16607482015260880160408051601f19818403018152919052805160209182012091506110c490840184614be2565b6001600160a01b03166110dd6040850160208601614be2565b6001600160a01b03161415801561111557506001600160a01b0382166111096040850160208601614be2565b6001600160a01b031614155b156111a7576003600061112e6040860160208701614be2565b6001600160a01b039081168252602080830193909352604091820160009081209186168152925290205460ff166111a75760405162461bcd60e51b815260206004820152601760248201527f4e4f545f415554484f52495a45445f544f5f464c45455400000000000000000060448201526064016106c7565b6111c081836111bb36879003870187615002565b61138d565b505050565b6000805b828110156112aa5760006111e8858584818110610d1b57610d1b614fec565b805490915061120390600160a01b900463ffffffff166119b4565b156112975780546001600160a01b038781169116146112645760405162461bcd60e51b815260206004820152600960248201527f4e4f545f4f574e4552000000000000000000000000000000000000000000000060448201526064016106c7565b61128a85858481811061127957611279614fec565b905060200201358783600080611c7d565b6112949084614fb7565b92505b50806112a281614f9c565b9150506111c9565b506001600160a01b0384166000908152600260205260408120546112cf908390614fb7565b90506104b58582611b6b565b6000828152600160205260408120546001600160a01b0381169163ffffffff600160a01b8304811692600160c01b90041690808061133a60027f00000000000000000000000000000000000000000000000000000000000000006150ad565b61134a9063ffffffff87166150ad565b6000978852600460209081526040808a20928a529190529096205494979396509194505067ffffffffffffffff8084169368010000000000000000900416919050565b60408181015160009081526020819052208054600160a01b900463ffffffff16156113fa5760405162461bcd60e51b815260206004820152600b60248201527f504c414e45545f4558495400000000000000000000000000000000000000000060448201526064016106c7565b805482516001600160a01b039081169116146114585760405162461bcd60e51b815260206004820152600960248201527f4e4f545f4f574e4552000000000000000000000000000000000000000000000060448201526064016106c7565b60006114b58360400151604080517f00000000000000000000000000000000000000000000000000000000000000006020820152908101829052600090606001604051602081830303815290604052805190602001209050919050565b905060006114c282611e2a565b835490915060009081906114ed9063ffffffff600160c01b8204811691600160e01b90041685611ea1565b91509150856060015163ffffffff168163ffffffff1610156115515760405162461bcd60e51b815260206004820152601560248201527f535041434553484950535f4e4f545f454e4f554748000000000000000000000060448201526064016106c7565b60008061156883858a604001518b606001516120f1565b91509150604051806060016040528089602001516001600160a01b031681526020018363ffffffff168152602001896060015163ffffffff16815250600160008c815260200190815260200160002060008201518160000160006101000a8154816001600160a01b0302191690836001600160a01b0316021790555060208201518160000160146101000a81548163ffffffff021916908363ffffffff16021790555060408201518160000160186101000a81548163ffffffff021916908363ffffffff160217905550905050876040015188602001516001600160a01b031689600001516001600160a01b03167fa069887d9311acae9fe31657a1cc64ab2f9d55b74319d0193094208f946a0e778c8e8d60600151876040516116b994939291906001600160a01b03949094168452602084019290925263ffffffff908116604084015216606082015260800190565b60405180910390a450505050505050505050565b6000828152600160209081526040808320815160608101835290546001600160a01b038116825263ffffffff600160a01b8204811694830194909452600160c01b90049092169082015290806117238385612284565b9150915060006117428560200151600090815260208190526040902090565b6040805160808101825291546001600160a01b038116835263ffffffff600160a01b8204811660208501819052600160c01b8304821693850193909352600160e01b90910416606083015285519192506117df919088906117a2906119b4565b6117ad5783516117b0565b60005b602089015160608a01518a516001600160a01b0382161515916117d9918c918a9086908e61233a565b886123c9565b5050506000928352505060016020526040902080547fffffffff00000000ffffffffffffffffffffffffffffffffffffffffffffffff169055565b638000000081811681149060009061183290846150c1565b9050915091565b60408051610100810182526000808252602080830182905282840182905260608084018390526080840183905260a0840183905260c0840183905260e084019290925283517f000000000000000000000000000000000000000000000000000000000000000081830152808501869052845180820386018152920190935280519201919091206118c88161247e565b6119145760405162461bcd60e51b815260206004820152601a60248201527f6e6f20706c616e657420696e2074686973206c6f636174696f6e00000000000060448201526064016106c7565b6000806119208361249a565b915091506040518061010001604052808360000b81526020018260000b815260200161194b856124ce565b61ffff16815260200161195d85611e2a565b61ffff16815260200161196f8561257f565b61ffff168152602001611981856125f0565b61ffff16815260200161199385612646565b61ffff1681526020016119a5856126b7565b61ffff16905295945050505050565b6000808263ffffffff161180156119f957506119f67f000000000000000000000000000000000000000000000000000000000000000063ffffffff8416614fb7565b42115b92915050565b6000611a0e8686868686611c7d565b6001600160a01b038616600090815260026020526040902054909150611a40908690611a3b908490614fb7565b612728565b505050505050565b604080517f000000000000000000000000000000000000000000000000000000000000000060208083019190915281830184905282518083038401815260609092019092528051910120670de0b6b3a7640000611aa4826124ce565b61ffff16611ab291906150e4565b8314611b005760405162461bcd60e51b815260206004820152600e60248201527f494e56414c49445f414d4f554e5400000000000000000000000000000000000060448201526064016106c7565b6000611b0d858484612781565b9050611b1883612bd3565b6040805163ffffffff831681526020810186905284916001600160a01b038816917f5a2bd9d3c37a402271eaa8b4cd01a1a65831589c630b4b8ab1967eca76c0412c910160405180910390a35050505050565b611b76826000612728565b6040517fa9059cbb0000000000000000000000000000000000000000000000000000000081526001600160a01b038381166004830152602482018390527f0000000000000000000000000000000000000000000000000000000000000000169063a9059cbb90604401602060405180830381600087803b158015611bf957600080fd5b505af1158015611c0d573d6000803e3d6000fd5b505050506040513d601f19601f82011682018060405250810190611c319190614fcf565b6106e85760405162461bcd60e51b815260206004820152600f60248201527f4641494c45445f5452414e53464552000000000000000000000000000000000060448201526064016106c7565b604080517f0000000000000000000000000000000000000000000000000000000000000000602080830191909152818301889052825180830384018152606090920190925280519101206000906000670de0b6b3a7640000611cde836124ce565b61ffff16611cec91906150e4565b905087876001600160a01b03167f1c363b29828a892b7cddafe9583ef52e0d5aca0ea7011bda6ccf039e1781f73883604051611d2a91815260200190565b60405180910390a36000888152600760205260409020548015611daf576001600160a01b03881660008181526008602090815260408083208584528252808320805460ff191660011790558c835260079091528082208290555183928c9290917f74f110a1e0cd4892234c7ba49df9f8a354cd8d29b272f7557c9b8c3c38a653369190a45b50855463ffffffff858116600160c01b027fffffffff00000000ffffffffffffffffffffffffffffffffffffffffffffffff42909216600160e01b027bffffffff0000000000000000000000000000000000000000000000009093166001600160a01b03891617929092171617865591505095945050505050565b6000611e358261247e565b611e755760405162461bcd60e51b8152602060048201526011602482015270504c414e45545f4e4f545f45584953545360781b60448201526064016106c7565b6119f982600c7f0708083409600a8c0bb80ce40e100e100e100e101068151819c81e7823282ee0612f9d565b600080611ead8561181a565b90925090506000611ec360016380000000615103565b63ffffffff1690506000611ed78642615128565b905063ffffffff83167f00000000000000000000000000000000000000000000000000000000000000001561206157600080610e10611f3a61ffff8a167f00000000000000000000000000000000000000000000000000000000000000006150e4565b611f4491906150ad565b611f749063ffffffff7f000000000000000000000000000000000000000000000000000000000000000016614fb7565b9050808663ffffffff161115611fba57839150611f978163ffffffff8816615128565b821115611fb157611fae8163ffffffff8816615128565b91505b60009450611fcd565b611fca63ffffffff871682615128565b94505b861561203c576000610e1063ffffffff7f00000000000000000000000000000000000000000000000000000000000000001661200d61ffff8c16886150e4565b61201791906150e4565b61202191906150ad565b90508581111561202e5750845b6120388185614fb7565b9350505b8282111561204d576000925061205a565b6120578284615128565b92505b50506120c0565b84156120c057610e1063ffffffff7f00000000000000000000000000000000000000000000000000000000000000001661209f61ffff8916856150e4565b6120a991906150e4565b6120b391906150ad565b6120bd9082614fb7565b90505b638000000081106120e3576120da60016380000000615103565b63ffffffff1690505b809350505050935093915050565b60008281526020819052604081208190600061212e60027f00000000000000000000000000000000000000000000000000000000000000006150ad565b61213890426150ad565b600087815260046020908152604080832084845290915290205490915067ffffffffffffffff1661216f63ffffffff87168261513f565b90508563ffffffff168167ffffffffffffffff1610156121d15760405162461bcd60e51b815260206004820152600860248201527f4f564552464c4f5700000000000000000000000000000000000000000000000060448201526064016106c7565b60008781526004602090815260408083208584529091529020805467ffffffffffffffff191667ffffffffffffffff8316179055429450612212868a615103565b935061221e8885613017565b835477ffffffffffffffffffffffffffffffffffffffffffffffff16600160c01b63ffffffff928316027bffffffffffffffffffffffffffffffffffffffffffffffffffffffff1617600160e01b91871691909102179092555091969095509350505050565b6040820151600063ffffffff82166122de5760405162461bcd60e51b815260206004820152601260248201527f464c4545545f444f5f4e4f545f4558495354000000000000000000000000000060448201526064016106c7565b6122f1828460000151866020015161303d565b91508184604001516123039190615103565b905061231c836040015184600001518560200151613164565b612333836040015184600001518660200151613380565b9250929050565b6040805160a0810182526000808252602082018190529181018290526060810182905260808101919091526000836001600160a01b0316118015612387575084516001600160a01b031615155b156123a9576123a28760000151868685878c6020015161351a565b90506123bf565b6123a28760000151886020015188888887613829565b9695505050505050565b846001600160a01b0316876001600160a01b0316877f606ed05ee5450c129097ad509fc76dd97bde7b9bfc9a935df4671051779e0eb0878787602001518860400151888a600001518b606001518c6080015160405161246d989796959493929190978852951515602088015263ffffffff948516604088015292841660608701529083166080860152821660a0850152151560c08401521660e08201526101000190565b60405180910390a450505050505050565b600061248d826034601061399e565b60ff166001149050919050565b6000806124a98382600361399e565b6124b490600161516b565b91506124c3836002600361399e565b61183290600161516b565b60006124d98261247e565b6125195760405162461bcd60e51b8152602060048201526011602482015270504c414e45545f4e4f545f45584953545360781b60448201526064016106c7565b600061252683600c6139bb565b905060ff81167e060008000a000c000e001000120014001400160018002000280030003800486125578260026151cd565b6125629060016151f7565b61ffff166020811061257657612576614fec565b1a949350505050565b600061258a8261247e565b6125ca5760405162461bcd60e51b8152602060048201526011602482015270504c414e45545f4e4f545f45584953545360781b60448201526064016106c7565b6125d58260146139bb565b6125e49060ff166101906151cd565b6119f990610fa06151f7565b60006125fb8261247e565b61263b5760405162461bcd60e51b8152602060048201526011602482015270504c414e45545f4e4f545f45584953545360781b60448201526064016106c7565b6125d582601c6139bb565b60006126518261247e565b6126915760405162461bcd60e51b8152602060048201526011602482015270504c414e45545f4e4f545f45584953545360781b60448201526064016106c7565b61269c8260246139bb565b6126ab9060ff1661014d6151cd565b6119f99061138d6151f7565b60006126c28261247e565b6127025760405162461bcd60e51b8152602060048201526011602482015270504c414e45545f4e4f545f45584953545360781b60448201526064016106c7565b61270d82602c6139bb565b61271c9060ff16610bb86151cd565b6119f990613a986151f7565b6001600160a01b03821660008181526002602052604090819020839055517f4d135695228631e73b5a31e6fc8af4e5825cde63774c3c48695b4af814d7b019906127759084815260200190565b60405180910390a25050565b600082815260208190526040812081906040805160808101825282546001600160a01b038116825263ffffffff600160a01b820481166020840152600160c01b82048116938301849052600160e01b90910416606082018190529293509160009182916127f791906127f289611e2a565b611ea1565b91509150600080846060015163ffffffff16600014156128255761281a886126b7565b61ffff169050612959565b602085015163ffffffff16156128975761284285602001516119b4565b61288e5760405162461bcd60e51b815260206004820152600d60248201527f5354494c4c5f45584954494e470000000000000000000000000000000000000060448201526064016106c7565b60019150612959565b83156128e55760405162461bcd60e51b815260206004820152600c60248201527f5354494c4c5f414354495645000000000000000000000000000000000000000060448201526064016106c7565b896001600160a01b031685600001516001600160a01b0316148061290d575063ffffffff8316155b6129595760405162461bcd60e51b815260206004820152600860248201527f4f4343555049454400000000000000000000000000000000000000000000000060448201526064016106c7565b81156129a2577f0000000000000000000000000000000000000000000000000000000000000000925061299d898660000151888d612998600189613017565b6119ff565b612bc5565b85547fffffffffffffffffffffffff0000000000000000000000000000000000000000166001600160a01b038b1617865563ffffffff811615612b325760006360916f80421115612a3b57612a337f000000000000000000000000000000000000000000000000000000000000000063ffffffff168363ffffffff16612710612a2a8d6125f0565b61ffff16613a55565b509050612a85565b612a817f000000000000000000000000000000000000000000000000000000000000000063ffffffff168363ffffffff16612710612a788d6125f0565b61ffff16613bf6565b5090505b7f000000000000000000000000000000000000000000000000000000000000000063ffffffff168163ffffffff1610612b005760405162461bcd60e51b815260206004820152600f60248201527f4641494c45445f4341505455524544000000000000000000000000000000000060448201526064016106c7565b612b2a817f0000000000000000000000000000000000000000000000000000000000000000615103565b935050612b5f565b612b5c7f000000000000000000000000000000000000000000000000000000000000000084615214565b92505b612b6a600184613017565b865477ffffffffffffffffffffffffffffffffffffffffffffffff16600160c01b63ffffffff928316027bffffffffffffffffffffffffffffffffffffffffffffffffffffffff1617600160e01b4292909216919091021786555b509098975050505050505050565b604080516080808201835260055463ffffffff80821684526401000000008204811660208501526801000000000000000082048116948401949094526c0100000000000000000000000090049092166060820152906fffffffffffffffffffffffffffffffff8316600f0b9083901d600080831215612cf757835163ffffffff16612c5d84615233565b1315612cab5760405162461bcd60e51b815260206004820152601660248201527f4e4f545f524541434841424c455f5945545f4d494e580000000000000000000060448201526064016106c7565b6008612cb684615233565b612cc0919061526c565b925063ffffffff831315612cd65763ffffffff92505b835163ffffffff16831315612cf2575063ffffffff8216835260015b612d9a565b836020015163ffffffff16831315612d515760405162461bcd60e51b815260206004820152601660248201527f4e4f545f524541434841424c455f5945545f4d4158580000000000000000000060448201526064016106c7565b612d5c60088461526c565b925063ffffffff831315612d725763ffffffff92505b8263ffffffff16846020015163ffffffff161015612d9a575063ffffffff8216602084015260015b6000821215612e5757604084015163ffffffff16612db783615233565b1315612e055760405162461bcd60e51b815260206004820152601660248201527f4e4f545f524541434841424c455f5945545f4d494e590000000000000000000060448201526064016106c7565b6008612e1083615233565b612e1a919061526c565b915063ffffffff821315612e305763ffffffff91505b81846040015163ffffffff161215612e52575063ffffffff8116604084015260015b612ef4565b836060015163ffffffff16821315612eb15760405162461bcd60e51b815260206004820152601660248201527f4e4f545f524541434841424c455f5945545f4d4158590000000000000000000060448201526064016106c7565b612ebc60088361526c565b915063ffffffff821315612ed25763ffffffff91505b81846060015163ffffffff161215612ef4575063ffffffff8116606084015260015b80156104b55783516005805460208701516040880151606089015163ffffffff9081166c01000000000000000000000000027fffffffffffffffffffffffffffffffff00000000ffffffffffffffffffffffff9282166801000000000000000002929092166fffffffffffffffff0000000000000000199382166401000000000267ffffffffffffffff1990951691909616179290921716929092179190911790555050505050565b600080612faa85856139bb565b905082612fb88260026152e0565b612fc3906001615309565b60ff1660208110612fd657612fd6614fec565b1a83612fe38360026152e0565b60ff1660208110612ff657612ff6614fec565b61300491901a6101006151cd565b61300e91906151f7565b95945050505050565b6000818361302657600061302c565b63800000005b6130369190615214565b9392505050565b60008061306b60027f00000000000000000000000000000000000000000000000000000000000000006150ad565b61307b9063ffffffff85166150ad565b600085815260046020908152604080832084845290915290205490915068010000000000000000900467ffffffffffffffff1663ffffffff86168110156130fd576130c68187615103565b6000868152600460209081526040808320868452909152902080546fffffffffffffffff000000000000000019169055955061315a565b6000955061310b868261532e565b60008681526004602090815260408083208684529091529020805467ffffffffffffffff9290921668010000000000000000026fffffffffffffffff0000000000000000199092169190911790555b5093949350505050565b6000806131c66131c185604080517f00000000000000000000000000000000000000000000000000000000000000006020820152908101829052600090606001604051602081830303815290604052805190602001209050919050565b61249a565b915091506000806132276131c186604080517f00000000000000000000000000000000000000000000000000000000000000006020820152908101829052600090606001604051602081830303815290604052805190602001209050919050565b90925090506000600284820b61324260808a901c600461534f565b61324c91906153f6565b600084900b61326060808a901c600461534f565b61326a91906153f6565b6132749190615457565b61327e919061564b565b6002600087900b6132a26fffffffffffffffffffffffffffffffff8b16600461534f565b6132ac91906153f6565b600086900b6132ce6fffffffffffffffffffffffffffffffff8b16600461534f565b6132d891906153f6565b6132e29190615457565b6132ec919061564b565b6132f691906153f6565b600f0b90508061330760028a6156ec565b1115801561332a5750600261331d896001614fb7565b61332791906156ec565b81105b6133765760405162461bcd60e51b815260206004820152600e60248201527f77726f6e672064697374616e636500000000000000000000000000000000000060448201526064016106c7565b5050505050505050565b604080517f0000000000000000000000000000000000000000000000000000000000000000602080830191909152818301859052825180830384018152606090920190925280519101206000906133d690612646565b61ffff166134067f00000000000000000000000000000000000000000000000000000000000000006127106150e4565b61341090866150e4565b61341a91906150ad565b61342a9063ffffffff8416614fb7565b90508042101561347c5760405162461bcd60e51b815260206004820152600960248201527f746f6f206561726c79000000000000000000000000000000000000000000000060448201526064016106c7565b6134a67f000000000000000000000000000000000000000000000000000000000000000082614fb7565b4210610a8a5760405162461bcd60e51b815260206004820152602b60248201527f746f6f206c6174652c20796f7572207370616365736869707320617265206c6f60448201527f737420696e20737061636500000000000000000000000000000000000000000060648201526084016106c7565b6040805160a0810182526000808252602080830182905292820181905260608201819052608082015290860151613550906119b4565b156135a05785516001600160a01b0381166135685750865b8651600087815260208190526040902061359891889163ffffffff8916613590576000613592565b845b89613d26565b9150506123bf565b60016001600160a01b0384168110156136875786516040517f5db2269e0000000000000000000000000000000000000000000000000000000081526001600160a01b0386811660048301528a8116602483015291821660448201524260648201527f000000000000000000000000000000000000000000000000000000000000000090911690635db2269e9060840160206040518083038186803b15801561364757600080fd5b505afa15801561365b573d6000803e3d6000fd5b505050506040513d601f19601f8201168201806040525081019061367f9190614fcf565b1590506136a0565b86516001600160a01b03898116911614156136a0575060005b80156136d8576127106136bb6109c463ffffffff88166150e4565b6136c591906150ad565b6136d59063ffffffff8716615128565b94505b604080517f000000000000000000000000000000000000000000000000000000000000000060208083019190915281830189905282518083038401815260609092019092528051910120600061372d82611e2a565b905060008061374b8b604001518c6060015163ffffffff1685611ea1565b9092509050600061375c8a83615214565b63ffffffff169050638000000081106137875761377e60016380000000615103565b63ffffffff1690505b60008b815260208190526040902080547bffffffffffffffffffffffffffffffffffffffffffffffffffffffff16600160e01b4263ffffffff16021790556137cf8382613017565b60008c8152602081905260409020805463ffffffff928316600160c01b027fffffffff00000000ffffffffffffffffffffffffffffffffffffffffffffffff90911617905516608087015250505050509695505050505050565b6040805160a081018252600080825260208201819052918101829052606081018290526080810191909152606084015163ffffffff166138bb57604080517f000000000000000000000000000000000000000000000000000000000000000060208083019190915281830186905282518083038401815260609092019092528051910120613598888888878588613d92565b6138c884602001516119b4565b156138ea57835160008481526020819052604090206123a29185918a86613d26565b604080517f00000000000000000000000000000000000000000000000000000000000000006020808301829052828401879052835180840385018152606084018552805190820120608084019290925260a08084018a90528451808503909101815260c0909301909352815191909201206000906139679061257f565b90506000613974836125f0565b9050600061398184611e2a565b90506139938b8b85858c8c878d613fb8565b9450505050506123bf565b60006139b360ff80841690851686901c6156fb565b949350505050565b6000806139ca8484604061399e565b905060006139d960028361570f565b905060006139e8600284615731565b905060007f01223334444555555666666677777777888888889999999aaaaaabbbbcccddef60ff841660208110613a2157613a21614fec565b1a905060ff8216613a3f5760048160ff16901c9450505050506119f9565b613a4a601082615731565b9450505050506119f9565b600080851580613a63575084155b15613a7357506000905080613bed565b600085613aa0887f00000000000000000000000000000000000000000000000000000000000000006150e4565b613aaa91906150ad565b613ad77f0000000000000000000000000000000000000000000000000000000000000000620f4240615128565b613ae19190614fb7565b613aeb90886150e4565b90506000620f424085613afe88856150e4565b613b0891906150ad565b613b1291906150ad565b905080871115613b2757879350809250613bea565b600088613b54897f00000000000000000000000000000000000000000000000000000000000000006150e4565b613b5e91906150ad565b613b8b7f0000000000000000000000000000000000000000000000000000000000000000620f4240615128565b613b959190614fb7565b613b9f90896150e4565b90506000620f424088613bb289856150e4565b613bbc91906150ad565b613bc691906150ad565b63ffffffff169050898110613be357613be060018b615128565b90505b9450879350505b50505b94509492505050565b600080851580613c04575084155b15613c1457506000905080613bed565b6000613c2085886150e4565b90506000613c2e85886150e4565b9050600082613c41896305f5e1006150e4565b613c4b91906150ad565b9050613c5b886305f5e1006150e4565b613c6584836150e4565b1015613c795780613c7581614f9c565b9150505b600082613c8a8b6305f5e1006150e4565b613c9491906150ad565b9050613ca48a6305f5e1006150e4565b613cae84836150e4565b1015613cc25780613cbe81614f9c565b9150505b6000613cce83836140f6565b9050613cf26305f5e100613ce286846150e4565b613cec91906150ad565b8c6140f6565b9650613d166305f5e100613d0687846150e4565b613d1091906150ad565b8b6140f6565b9550505050505094509492505050565b6040805160a081018252600080825260208201819052918101829052606081018290526080810191909152613d7486868660008663ffffffff1611613d6c576000613d6e565b865b866119ff565b63ffffffff9091166080820181905215156060820152949350505050565b6040805160a0810182526000808252602080830182905282840182905260608084018390526080840183905284517f0000000000000000000000000000000000000000000000000000000000000000818401528086018a905285518082038701815291019094528351930192909220909190613e0d9061257f565b90506000613e1a856125f0565b90506000613e27866126b7565b90506000806360916f808b63ffffffff161115613e6657613e5c8763ffffffff168461ffff168761ffff168761ffff16613a55565b9092509050613e8a565b613e848763ffffffff168461ffff168761ffff168761ffff16613bf6565b90925090505b63ffffffff8083166020880152811661ffff8416148015613eb657508163ffffffff168763ffffffff16115b15613fa957613ec58288615103565b63ffffffff1660808701819052613ede90600090613017565b6000808b815260200190815260200160002060000160186101000a81548163ffffffff021916908363ffffffff160217905550426000808b8152602001908152602001600020600001601c6101000a81548163ffffffff021916908363ffffffff1602179055508b6000808b815260200190815260200160002060000160006101000a8154816001600160a01b0302191690836001600160a01b0316021790555080866040019063ffffffff16908163ffffffff168152505060018660600190151590811515815250505b50505050509695505050505050565b6040805160a081018252600080825260208201819052918101829052606081018290526080810182905290613fee86868661410d565b9050806040015163ffffffff166000148015614010575060008363ffffffff16115b156140d757600085815260208190526040902080547fffffffffffffffff000000000000000000000000000000000000000000000000166001600160a01b038c1617905580516140609084613017565b6000868152602081905260409020805477ffffffffffffffffffffffffffffffffffffffffffffffff16600160c01b63ffffffff938416027bffffffffffffffffffffffffffffffffffffffffffffffffffffffff1617600160e01b428416021790556001606084015283166080830152506140ea565b6140e6818b8b88878d8d6141c6565b9150505b98975050505050505050565b6000818311156141065781613036565b5090919050565b6040805160e081018252600080825260208201819052918101829052606081018290526080810182905260a0810182905260c08101919091526000806141628660400151876060015163ffffffff1686611ea1565b915091506000806000806000614178868b614763565b9a15158c5263ffffffff998a1660208d01529290981660408b015267ffffffffffffffff90811660608b015296871660808a0152861660a089015250505050911660c0830152509392505050565b6040805160a081018252600080825260208201819052918101829052606081018290526080810182905290806360916f8063ffffffff89161115614232576142288663ffffffff168b6040015163ffffffff168761ffff168761ffff16613a55565b909250905061425c565b6142568663ffffffff168b6040015163ffffffff168761ffff168761ffff16613bf6565b90925090505b63ffffffff80831660208086019190915282821660408601819052908c015190911610156146055760208a01516142939082615103565b63ffffffff90811680855260208c0151909116604085015260608b015167ffffffffffffffff161061431657826000015163ffffffff168a6060018181516142db919061532e565b67ffffffffffffffff16905250825160808b01805163ffffffff9092169161430490839061513f565b67ffffffffffffffff169052506143ec565b89606001518a60800181815161432c919061513f565b67ffffffffffffffff1690525060608a015183516000916143529163ffffffff1661532e565b90508067ffffffffffffffff168b60a0015167ffffffffffffffff16106143b857808b60a001818151614385919061532e565b67ffffffffffffffff1690525060c08b0180518291906143a690839061513f565b67ffffffffffffffff169052506143e3565b8a60a001518b60c0018181516143ce919061513f565b67ffffffffffffffff16905250600060a08c01525b50600060608b01525b60608a0151600088815260046020526040812090600161442d60027f00000000000000000000000000000000000000000000000000000000000000006150ad565b61443790426150ad565b6144419190615128565b815260208082019290925260409081016000908120805467ffffffffffffffff191667ffffffffffffffff959095169490941790935560808d01518a845260049092528220909160016144b560027f00000000000000000000000000000000000000000000000000000000000000006150ad565b6144bf90426150ad565b6144c99190615128565b815260200190815260200160002060000160086101000a81548167ffffffffffffffff021916908367ffffffffffffffff1602179055508960a0015160046000898152602001908152602001600020600060027f000000000000000000000000000000000000000000000000000000000000000061454791906150ad565b61455190426150ad565b815260208082019290925260409081016000908120805467ffffffffffffffff191667ffffffffffffffff959095169490941790935560c08d01518a84526004909252822090916145c360027f00000000000000000000000000000000000000000000000000000000000000006150ad565b6145cd90426150ad565b815260200190815260200160002060000160086101000a81548167ffffffffffffffff021916908367ffffffffffffffff1602179055505b60008663ffffffff1611801561462e5750896020015163ffffffff16836040015163ffffffff16145b1561470e5761463d8287615103565b63ffffffff166080840190815260016060850152600088815260208190526040902080547fffffffffffffffff000000000000000000000000000000000000000000000000166001600160a01b038c161790558a51905161469e9190613017565b6000888152602081905260409020805477ffffffffffffffffffffffffffffffffffffffffffffffff16600160c01b63ffffffff938416027bffffffffffffffffffffffffffffffffffffffffffffffffffffffff1617600160e01b429390931692909202919091179055614756565b8563ffffffff16836020015163ffffffff16141561474e57808a602001516147369190615103565b63ffffffff16608084018190528a5161469e91613017565b614756615753565b5050979650505050505050565b8160008080808061479560027f00000000000000000000000000000000000000000000000000000000000000006150ad565b61479f90426150ad565b60008881526004602052604081209192506147bb600184615128565b815260208082019290925260409081016000908120548a8252600490935290812067ffffffffffffffff90921696506147f5600184615128565b815260208082019290925260409081016000908120548a825260048452828220858352909352205467ffffffffffffffff9182169550818116945068010000000000000000900416915061487163ffffffff8716614853858861513f565b61485d919061513f565b67ffffffffffffffff1663ffffffff6140f6565b9550509295509295909350565b803563ffffffff8116811461489257600080fd5b919050565b6000806000606084860312156148ac57600080fd5b833592506148bc6020850161487e565b9150604084013590509250925092565b6001600160a01b03811681146148e157600080fd5b50565b60008060008060008060008060008060006101608c8e03121561490657600080fd5b8b35614911816148cc565b9a5060208c0135614921816148cc565b995060408c0135985061493660608d0161487e565b975061494460808d0161487e565b965061495260a08d0161487e565b955061496060c08d0161487e565b945061496e60e08d0161487e565b935061497d6101008d0161487e565b925061498c6101208d0161487e565b915061499b6101408d0161487e565b90509295989b509295989b9093969950565b6000808284036101008112156149c257600080fd5b8335925060e0601f19820112156149d857600080fd5b506020830190509250929050565b6000602082840312156149f857600080fd5b5035919050565b6101c08101614a5c82856001600160a01b038151168252602081015163ffffffff8082166020850152806040840151166040850152806060840151166060850152505060808101511515608083015260a081015160a08301525050565b8251600090810b60c08401526020840151900b60e0830152604083015161ffff9081166101008401526060840151166101208301526080830151614aa761014084018261ffff169052565b5060a083015161ffff90811661016084015260c0840151811661018084015260e0909301519092166101a090910152919050565b60008060408385031215614aee57600080fd5b823591506020830135614b00816148cc565b809150509250929050565b60008060408385031215614b1e57600080fd5b50508035926020909101359150565b60008083601f840112614b3f57600080fd5b50813567ffffffffffffffff811115614b5757600080fd5b60208301915083602082850101111561233357600080fd5b600080600080600060808688031215614b8757600080fd5b8535614b92816148cc565b94506020860135614ba2816148cc565b935060408601359250606086013567ffffffffffffffff811115614bc557600080fd5b614bd188828901614b2d565b969995985093965092949392505050565b600060208284031215614bf457600080fd5b8135613036816148cc565b80151581146148e157600080fd5b60008060408385031215614c2057600080fd5b8235614c2b816148cc565b91506020830135614b0081614bff565b60008060008060608587031215614c5157600080fd5b8435614c5c816148cc565b935060208501359250604085013567ffffffffffffffff811115614c7f57600080fd5b614c8b87828801614b2d565b95989497509550505050565b60008083601f840112614ca957600080fd5b50813567ffffffffffffffff811115614cc157600080fd5b6020830191508360208260051b850101111561233357600080fd5b60008060208385031215614cef57600080fd5b823567ffffffffffffffff811115614d0657600080fd5b614d1285828601614c97565b90969095509350505050565b60a0808252835190820181905260009060c090818401906020808801855b83811015614dad57614d9d8583516001600160a01b038151168252602081015163ffffffff8082166020850152806040840151166040850152806060840151166060850152505060808101511515608083015260a081015160a08301525050565b9385019390820190600101614d3c565b5050829450614de981870188805163ffffffff908116835260208083015182169084015260408083015182169084015260609182015116910152565b505050509392505050565b60008060408385031215614e0757600080fd5b8235614e12816148cc565b946020939093013593505050565b608081016119f98284805163ffffffff908116835260208083015182169084015260408083015182169084015260609182015116910152565b600060a08284031215614e6b57600080fd5b50919050565b600080600060408486031215614e8657600080fd5b8335614e91816148cc565b9250602084013567ffffffffffffffff811115614ead57600080fd5b614eb986828701614c97565b9497909650939450505050565b634e487b7160e01b600052604160045260246000fd5b600060e08284031215614eee57600080fd5b60405160e0810181811067ffffffffffffffff82111715614f1f57634e487b7160e01b600052604160045260246000fd5b80604052508235815260208301356020820152604083013560408201526060830135614f4a816148cc565b60608201526080838101359082015260a0830135614f67816148cc565b60a082015260c0830135614f7a816148cc565b60c08201529392505050565b634e487b7160e01b600052601160045260246000fd5b6000600019821415614fb057614fb0614f86565b5060010190565b60008219821115614fca57614fca614f86565b500190565b600060208284031215614fe157600080fd5b815161303681614bff565b634e487b7160e01b600052603260045260246000fd5b600060a0828403121561501457600080fd5b60405160a0810181811067ffffffffffffffff8211171561504557634e487b7160e01b600052604160045260246000fd5b6040528235615053816148cc565b81526020830135615063816148cc565b60208201526040838101359082015261507e6060840161487e565b6060820152608083013560808201528091505092915050565b634e487b7160e01b600052601260045260246000fd5b6000826150bc576150bc615097565b500490565b600063ffffffff808416806150d8576150d8615097565b92169190910692915050565b60008160001904831182151516156150fe576150fe614f86565b500290565b600063ffffffff8381169083168181101561512057615120614f86565b039392505050565b60008282101561513a5761513a614f86565b500390565b600067ffffffffffffffff80831681851680830382111561516257615162614f86565b01949350505050565b60008160000b8360000b60008112817fffffffffffffffffffffffffffffffffffffffffffffffffffffffffffffff80018312811516156151ae576151ae614f86565b81607f0183138116156151c3576151c3614f86565b5090039392505050565b600061ffff808316818516818304811182151516156151ee576151ee614f86565b02949350505050565b600061ffff80831681851680830382111561516257615162614f86565b600063ffffffff80831681851680830382111561516257615162614f86565b60007f800000000000000000000000000000000000000000000000000000000000000082141561526557615265614f86565b5060000390565b6000808212827f7fffffffffffffffffffffffffffffffffffffffffffffffffffffffffffffff038413811516156152a6576152a6614f86565b827f80000000000000000000000000000000000000000000000000000000000000000384128116156152da576152da614f86565b50500190565b600060ff821660ff84168160ff048111821515161561530157615301614f86565b029392505050565b600060ff821660ff84168060ff0382111561532657615326614f86565b019392505050565b600067ffffffffffffffff8381169083168181101561512057615120614f86565b600081600f0b83600f0b6f7fffffffffffffffffffffffffffffff60008213600084138383048511828216161561538857615388614f86565b6f7fffffffffffffffffffffffffffffff1960008512868205861281841616156153b4576153b4614f86565b600087129250858205871284841616156153d0576153d0614f86565b858505871281841616156153e6576153e6614f86565b5050509290910295945050505050565b600081600f0b83600f0b60008212826f7fffffffffffffffffffffffffffffff0382138115161561542957615429614f86565b826f7fffffffffffffffffffffffffffffff1903821281161561544e5761544e614f86565b50019392505050565b600081600f0b83600f0b60008112816f7fffffffffffffffffffffffffffffff190183128115161561548b5761548b614f86565b816f7fffffffffffffffffffffffffffffff0183138116156151c3576151c3614f86565b600181815b808511156154ea5781600019048211156154d0576154d0614f86565b808516156154dd57918102915b93841c93908002906154b4565b509250929050565b80825b6001808611615504575061553f565b816f7fffffffffffffffffffffffffffffff0482111561552657615526614f86565b8086161561553357918102915b9490941c9380026154f5565b935093915050565b600082801561555d576001811461556757615570565b60019150506119f9565b829150506119f9565b508161557e575060006119f9565b506001600082138082146155975780156155be576155e0565b826f7fffffffffffffffffffffffffffffff048311156155b9576155b9614f86565b6155e0565b826f7fffffffffffffffffffffffffffffff058312156155e0576155e0614f86565b50808316156155ec5750805b6155fc8360011c838402836154f2565b806f7fffffffffffffffffffffffffffffff04821160008313161561562357615623614f86565b806f7fffffffffffffffffffffffffffffff1905821260008312161561530157615301614f86565b600061303660ff841683600f0b615547565b60008261566c575060016119f9565b81615679575060006119f9565b816001811461555d576002811461568f576156ab565b60ff8411156156a0576156a0614f86565b50506001821b6119f9565b5060208310610133831016604e8410600b84101617156156ce575081810a6119f9565b6156d883836154af565b806000190482111561530157615301614f86565b600061303660ff84168361565d565b60008261570a5761570a615097565b500690565b600060ff83168061572257615722615097565b8060ff84160491505092915050565b600060ff83168061574457615744615097565b8060ff84160691505092915050565b634e487b7160e01b600052600160045260246000fdfea26469706673582212206e801638f2dfa4a9a4970047a12b154acfba4f12b5da7930f382d255c0d5438464736f6c63430008090033b53127684a568b3173ae13b9f8a6016e243e63b6e8ee1178d6a717850b5d6103",
  "devdoc": {
    "kind": "dev",
    "methods": {},
    "version": 1
  },
  "userdoc": {
    "kind": "user",
    "methods": {},
    "version": 1
  },
  "storageLayout": {
    "storage": [
      {
        "astId": 15005,
        "contract": "src/OuterSpace.sol:OuterSpace",
        "label": "_planets",
        "offset": 0,
        "slot": "0",
        "type": "t_mapping(t_uint256,t_struct(Planet)15053_storage)"
      },
      {
        "astId": 15010,
        "contract": "src/OuterSpace.sol:OuterSpace",
        "label": "_fleets",
        "offset": 0,
        "slot": "1",
        "type": "t_mapping(t_uint256,t_struct(Fleet)15060_storage)"
      },
      {
        "astId": 15014,
        "contract": "src/OuterSpace.sol:OuterSpace",
        "label": "_stakeReadyToBeWithdrawn",
        "offset": 0,
        "slot": "2",
        "type": "t_mapping(t_address,t_uint256)"
      },
      {
        "astId": 15020,
        "contract": "src/OuterSpace.sol:OuterSpace",
        "label": "_operators",
        "offset": 0,
        "slot": "3",
        "type": "t_mapping(t_address,t_mapping(t_address,t_bool))"
      },
      {
        "astId": 15032,
        "contract": "src/OuterSpace.sol:OuterSpace",
        "label": "_inFlight",
        "offset": 0,
        "slot": "4",
        "type": "t_mapping(t_uint256,t_mapping(t_uint256,t_struct(InFlight)15025_storage))"
      },
      {
        "astId": 15044,
        "contract": "src/OuterSpace.sol:OuterSpace",
        "label": "_discovered",
        "offset": 0,
        "slot": "5",
        "type": "t_struct(Discovered)15041_storage"
      },
      {
        "astId": 15064,
        "contract": "src/OuterSpace.sol:OuterSpace",
        "label": "_prevRewardIds",
        "offset": 0,
        "slot": "6",
        "type": "t_mapping(t_address,t_uint256)"
      },
      {
        "astId": 15068,
        "contract": "src/OuterSpace.sol:OuterSpace",
        "label": "_rewards",
        "offset": 0,
        "slot": "7",
        "type": "t_mapping(t_uint256,t_uint256)"
      },
      {
        "astId": 15074,
        "contract": "src/OuterSpace.sol:OuterSpace",
        "label": "_rewardsToWithdraw",
        "offset": 0,
        "slot": "8",
        "type": "t_mapping(t_address,t_mapping(t_uint256,t_bool))"
      }
    ],
    "types": {
      "t_address": {
        "encoding": "inplace",
        "label": "address",
        "numberOfBytes": "20"
      },
      "t_bool": {
        "encoding": "inplace",
        "label": "bool",
        "numberOfBytes": "1"
      },
      "t_mapping(t_address,t_bool)": {
        "encoding": "mapping",
        "key": "t_address",
        "label": "mapping(address => bool)",
        "numberOfBytes": "32",
        "value": "t_bool"
      },
      "t_mapping(t_address,t_mapping(t_address,t_bool))": {
        "encoding": "mapping",
        "key": "t_address",
        "label": "mapping(address => mapping(address => bool))",
        "numberOfBytes": "32",
        "value": "t_mapping(t_address,t_bool)"
      },
      "t_mapping(t_address,t_mapping(t_uint256,t_bool))": {
        "encoding": "mapping",
        "key": "t_address",
        "label": "mapping(address => mapping(uint256 => bool))",
        "numberOfBytes": "32",
        "value": "t_mapping(t_uint256,t_bool)"
      },
      "t_mapping(t_address,t_uint256)": {
        "encoding": "mapping",
        "key": "t_address",
        "label": "mapping(address => uint256)",
        "numberOfBytes": "32",
        "value": "t_uint256"
      },
      "t_mapping(t_uint256,t_bool)": {
        "encoding": "mapping",
        "key": "t_uint256",
        "label": "mapping(uint256 => bool)",
        "numberOfBytes": "32",
        "value": "t_bool"
      },
      "t_mapping(t_uint256,t_mapping(t_uint256,t_struct(InFlight)15025_storage))": {
        "encoding": "mapping",
        "key": "t_uint256",
        "label": "mapping(uint256 => mapping(uint256 => struct OuterSpace.InFlight))",
        "numberOfBytes": "32",
        "value": "t_mapping(t_uint256,t_struct(InFlight)15025_storage)"
      },
      "t_mapping(t_uint256,t_struct(Fleet)15060_storage)": {
        "encoding": "mapping",
        "key": "t_uint256",
        "label": "mapping(uint256 => struct OuterSpace.Fleet)",
        "numberOfBytes": "32",
        "value": "t_struct(Fleet)15060_storage"
      },
      "t_mapping(t_uint256,t_struct(InFlight)15025_storage)": {
        "encoding": "mapping",
        "key": "t_uint256",
        "label": "mapping(uint256 => struct OuterSpace.InFlight)",
        "numberOfBytes": "32",
        "value": "t_struct(InFlight)15025_storage"
      },
      "t_mapping(t_uint256,t_struct(Planet)15053_storage)": {
        "encoding": "mapping",
        "key": "t_uint256",
        "label": "mapping(uint256 => struct OuterSpace.Planet)",
        "numberOfBytes": "32",
        "value": "t_struct(Planet)15053_storage"
      },
      "t_mapping(t_uint256,t_uint256)": {
        "encoding": "mapping",
        "key": "t_uint256",
        "label": "mapping(uint256 => uint256)",
        "numberOfBytes": "32",
        "value": "t_uint256"
      },
      "t_struct(Discovered)15041_storage": {
        "encoding": "inplace",
        "label": "struct OuterSpace.Discovered",
        "members": [
          {
            "astId": 15034,
            "contract": "src/OuterSpace.sol:OuterSpace",
            "label": "minX",
            "offset": 0,
            "slot": "0",
            "type": "t_uint32"
          },
          {
            "astId": 15036,
            "contract": "src/OuterSpace.sol:OuterSpace",
            "label": "maxX",
            "offset": 4,
            "slot": "0",
            "type": "t_uint32"
          },
          {
            "astId": 15038,
            "contract": "src/OuterSpace.sol:OuterSpace",
            "label": "minY",
            "offset": 8,
            "slot": "0",
            "type": "t_uint32"
          },
          {
            "astId": 15040,
            "contract": "src/OuterSpace.sol:OuterSpace",
            "label": "maxY",
            "offset": 12,
            "slot": "0",
            "type": "t_uint32"
          }
        ],
        "numberOfBytes": "32"
      },
      "t_struct(Fleet)15060_storage": {
        "encoding": "inplace",
        "label": "struct OuterSpace.Fleet",
        "members": [
          {
            "astId": 15055,
            "contract": "src/OuterSpace.sol:OuterSpace",
            "label": "owner",
            "offset": 0,
            "slot": "0",
            "type": "t_address"
          },
          {
            "astId": 15057,
            "contract": "src/OuterSpace.sol:OuterSpace",
            "label": "launchTime",
            "offset": 20,
            "slot": "0",
            "type": "t_uint32"
          },
          {
            "astId": 15059,
            "contract": "src/OuterSpace.sol:OuterSpace",
            "label": "quantity",
            "offset": 24,
            "slot": "0",
            "type": "t_uint32"
          }
        ],
        "numberOfBytes": "32"
      },
      "t_struct(InFlight)15025_storage": {
        "encoding": "inplace",
        "label": "struct OuterSpace.InFlight",
        "members": [
          {
            "astId": 15022,
            "contract": "src/OuterSpace.sol:OuterSpace",
            "label": "flying",
            "offset": 0,
            "slot": "0",
            "type": "t_uint64"
          },
          {
            "astId": 15024,
            "contract": "src/OuterSpace.sol:OuterSpace",
            "label": "destroyed",
            "offset": 8,
            "slot": "0",
            "type": "t_uint64"
          }
        ],
        "numberOfBytes": "32"
      },
      "t_struct(Planet)15053_storage": {
        "encoding": "inplace",
        "label": "struct OuterSpace.Planet",
        "members": [
          {
            "astId": 15046,
            "contract": "src/OuterSpace.sol:OuterSpace",
            "label": "owner",
            "offset": 0,
            "slot": "0",
            "type": "t_address"
          },
          {
            "astId": 15048,
            "contract": "src/OuterSpace.sol:OuterSpace",
            "label": "exitTime",
            "offset": 20,
            "slot": "0",
            "type": "t_uint32"
          },
          {
            "astId": 15050,
            "contract": "src/OuterSpace.sol:OuterSpace",
            "label": "numSpaceships",
            "offset": 24,
            "slot": "0",
            "type": "t_uint32"
          },
          {
            "astId": 15052,
            "contract": "src/OuterSpace.sol:OuterSpace",
            "label": "lastUpdated",
            "offset": 28,
            "slot": "0",
            "type": "t_uint32"
          }
        ],
        "numberOfBytes": "32"
      },
      "t_uint256": {
        "encoding": "inplace",
        "label": "uint256",
        "numberOfBytes": "32"
      },
      "t_uint32": {
        "encoding": "inplace",
        "label": "uint32",
        "numberOfBytes": "4"
      },
      "t_uint64": {
        "encoding": "inplace",
        "label": "uint64",
        "numberOfBytes": "8"
      }
    }
  }
}