{
  "address": "0xb2358ACf66B4654aA8F976ad791e8CD4C4e0F4f8",
  "abi": [
    {
      "anonymous": false,
      "inputs": [
        {
          "indexed": true,
          "internalType": "contract IAlliance",
          "name": "alliance",
          "type": "address"
        },
        {
          "indexed": true,
          "internalType": "address",
          "name": "player",
          "type": "address"
        },
        {
          "indexed": false,
          "internalType": "bool",
          "name": "joining",
          "type": "bool"
        }
      ],
      "name": "AllianceLink",
      "type": "event"
    },
    {
      "inputs": [
        {
          "components": [
            {
              "internalType": "address",
              "name": "addr",
              "type": "address"
            },
            {
              "internalType": "uint32",
              "name": "nonce",
              "type": "uint32"
            },
            {
              "internalType": "bytes",
              "name": "signature",
              "type": "bytes"
            }
          ],
          "internalType": "struct AllianceRegistry.PlayerSubmission[]",
          "name": "playerSubmissions",
          "type": "tuple[]"
        }
      ],
      "name": "addMultiplePlayersToAlliance",
      "outputs": [],
      "stateMutability": "nonpayable",
      "type": "function"
    },
    {
      "inputs": [
        {
          "internalType": "address",
          "name": "player",
          "type": "address"
        },
        {
          "internalType": "uint32",
          "name": "nonce",
          "type": "uint32"
        },
        {
          "internalType": "bytes",
          "name": "signature",
          "type": "bytes"
        }
      ],
      "name": "addPlayerToAlliance",
      "outputs": [],
      "stateMutability": "nonpayable",
      "type": "function"
    },
    {
      "inputs": [
        {
          "internalType": "contract IAlliance",
          "name": "alliance",
          "type": "address"
        },
        {
          "internalType": "address",
          "name": "player1",
          "type": "address"
        },
        {
          "internalType": "address",
          "name": "player2",
          "type": "address"
        },
        {
          "internalType": "uint256",
          "name": "timestamp",
          "type": "uint256"
        }
      ],
      "name": "arePlayersAllies",
      "outputs": [
        {
          "internalType": "bool",
          "name": "allied",
          "type": "bool"
        }
      ],
      "stateMutability": "view",
      "type": "function"
    },
    {
      "inputs": [
        {
          "internalType": "address",
          "name": "player",
          "type": "address"
        }
      ],
      "name": "ejectPlayerFromAlliance",
      "outputs": [],
      "stateMutability": "nonpayable",
      "type": "function"
    },
    {
      "inputs": [
        {
          "internalType": "address",
          "name": "player",
          "type": "address"
        },
        {
          "internalType": "contract IAlliance",
          "name": "alliance",
          "type": "address"
        }
      ],
      "name": "getAllianceData",
      "outputs": [
        {
          "components": [
            {
              "internalType": "uint128",
              "name": "joinTime",
              "type": "uint128"
            },
            {
              "internalType": "uint128",
              "name": "nonce",
              "type": "uint128"
            }
          ],
          "internalType": "struct AllianceRegistry.AllianceData",
          "name": "",
          "type": "tuple"
        }
      ],
      "stateMutability": "view",
      "type": "function"
    },
    {
      "inputs": [
        {
          "internalType": "contract IAlliance",
          "name": "alliance",
          "type": "address"
        },
        {
          "internalType": "bytes",
          "name": "data",
          "type": "bytes"
        }
      ],
      "name": "joinAlliance",
      "outputs": [
        {
          "internalType": "bool",
          "name": "joined",
          "type": "bool"
        }
      ],
      "stateMutability": "nonpayable",
      "type": "function"
    },
    {
      "inputs": [
        {
          "internalType": "contract IAlliance",
          "name": "alliance",
          "type": "address"
        }
      ],
      "name": "leaveAlliance",
      "outputs": [],
      "stateMutability": "nonpayable",
      "type": "function"
    }
  ],
  "transactionHash": "0x032dc802e39a80cef4bbd2c6da79e73b2804479d73591815fb4586b2f975beb5",
  "args": [],
  "solcInputHash": "eaf5401b50902e7d1607994779860544",
  "bytecode": "0x608060405234801561001057600080fd5b506116d2806100206000396000f3fe608060405234801561001057600080fd5b506004361061007d5760003560e01c80635f3f7a9a1161005b5780635f3f7a9a146101705780636da06630146101835780637a784cb4146101965780638efb75c3146101a957600080fd5b806317e796ea146100825780634ed2986d146100975780635db2269e1461014d575b600080fd5b6100956100903660046111d6565b6101bc565b005b6101186100a53660046111fa565b604080518082018252600080825260209182018190526001600160a01b03948516815260018252828120939094168452918252918290208251808401909352546fffffffffffffffffffffffffffffffff8082168452700100000000000000000000000000000000909104169082015290565b6040805182516fffffffffffffffffffffffffffffffff90811682526020938401511692810192909252015b60405180910390f35b61016061015b366004611233565b6101c9565b6040519015158152602001610144565b61016061017e3660046112c6565b610271565b610095610191366004611334565b610440565b6100956101a43660046111d6565b610452565b6100956101b7366004611397565b6104ce565b6101c68133610591565b50565b6001600160a01b0380841660009081526001602090815260408083209388168352929052908120546fffffffffffffffffffffffffffffffff1680158061020f57508281115b1561021e576000915050610269565b6001600160a01b038085166000908152600160209081526040808320938a16835292905220546fffffffffffffffffffffffffffffffff16801580159061026457508381105b925050505b949350505050565b3360009081526020819052604081205460ff16600481106102d95760405162461bcd60e51b815260206004820152601960248201527f4d41585f4e554d5f414c4c49414e4345535f524541434845440000000000000060448201526064015b60405180910390fd5b6040517f1d99b5540000000000000000000000000000000000000000000000000000000081526001600160a01b03861690631d99b554906103229033908890889060040161140c565b602060405180830381600087803b15801561033c57600080fd5b505af1158015610350573d6000803e3d6000fd5b505050506040513d601f19601f82011682018060405250810190610374919061144b565b91508115610438573360009081526001602081815260408084206001600160a01b038a16855290915290912080546fffffffffffffffffffffffffffffffff1916426fffffffffffffffffffffffffffffffff161790556103d6908290611483565b3360008181526020818152604091829020805460ff191660ff9590951694909417909355516001815290916001600160a01b038816917f5e60402083b3427099886174996f295e5e29d12bbe871aef1041e9a4324cdb09910160405180910390a35b509392505050565b61044c848484846106db565b50505050565b61045c3382610591565b6040517f9192e3020000000000000000000000000000000000000000000000000000000081523360048201526001600160a01b03821690639192e30290602401600060405180830381600087803b1580156104b657600080fd5b505af19250505080156104c7575060015b6101c65750565b60005b8181101561058c5761057a8383838181106104ee576104ee6114a8565b905060200281019061050091906114be565b61050e9060208101906111d6565b848484818110610520576105206114a8565b905060200281019061053291906114be565b6105439060408101906020016114fc565b858585818110610555576105556114a8565b905060200281019061056791906114be565b610575906040810190611517565b6106db565b806105848161157c565b9150506104d1565b505050565b6001600160a01b038083166000908152600160209081526040808320938516835292905220546fffffffffffffffffffffffffffffffff16806106165760405162461bcd60e51b815260206004820152601860248201527f4e4f545f504152545f4f465f5448455f414c4c49414e4345000000000000000060448201526064016102d0565b6001600160a01b038084166000818152600160209081526040808320948716835293815283822080546fffffffffffffffffffffffffffffffff1916905591815290819052908120805460ff169161066d83611597565b91906101000a81548160ff021916908360ff16021790555050826001600160a01b0316826001600160a01b03167f5e60402083b3427099886174996f295e5e29d12bbe871aef1041e9a4324cdb0960006040516106ce911515815260200190565b60405180910390a3505050565b6001600160a01b038416600090815260208190526040902054339060ff16600481106107495760405162461bcd60e51b815260206004820152601960248201527f4d41585f4e554d5f414c4c49414e4345535f524541434845440000000000000060448201526064016102d0565b6001600160a01b0380871660009081526001602090815260408083209386168352928152908290208251808401909352546fffffffffffffffffffffffffffffffff80821684527001000000000000000000000000000000009091041690820181905263ffffffff8716146108005760405162461bcd60e51b815260206004820152600d60248201527f494e56414c49445f4e4f4e43450000000000000000000000000000000000000060448201526064016102d0565b80516fffffffffffffffffffffffffffffffff16156108615760405162461bcd60e51b815260206004820152600e60248201527f414c52454144595f4a4f494e454400000000000000000000000000000000000060448201526064016102d0565b606063ffffffff8716610909576040517f19457468657265756d205369676e6564204d6573736167653a0a35360000000060208201527f4a6f696e20416c6c69616e636520307830303030303030303030303030303030603c8201527f3030303030303030303030303030303030303030303030300000000000000000605c82015260740160408051601f19818403018152919052905061090481605333610bc9565b6109d7565b6040517f19457468657265756d205369676e6564204d6573736167653a0a37360000000060208201527f4a6f696e20416c6c69616e636520307830303030303030303030303030303030603c8201527f30303030303030303030303030303030303030303030303020286e6f6e63653a605c8201527f2020202020202020202030290000000000000000000000000000000000000000607c82015260880160408051601f1981840301815291905290506109c581605333610bc9565b6109d78160668963ffffffff16610ca3565b6109e081610d7d565b6000818051906020012090506000610a3088888080601f0160208091040260200160405190810160405280939291908181526020018383808284376000920191909152508693925050610dee9050565b9050806001600160a01b03168a6001600160a01b031614610a935760405162461bcd60e51b815260206004820152601160248201527f494e56414c49445f5349474e415455524500000000000000000000000000000060448201526064016102d0565b6001600160a01b038a81166000908152600160208181526040808420948b16845293905291902080546fffffffffffffffffffffffffffffffff1916426fffffffffffffffffffffffffffffffff16179055610af0908a906115b4565b6001600160a01b038b81166000908152600160208181526040808420948c16845293905291902080546fffffffffffffffffffffffffffffffff1663ffffffff939093167001000000000000000000000000000000000292909217909155610b59908690611483565b6001600160a01b038b811660008181526020818152604091829020805460ff191660ff969096169590951790945551600181529092918916917f5e60402083b3427099886174996f295e5e29d12bbe871aef1041e9a4324cdb09910160405180910390a350505050505050505050565b801561058c576040805180820190915260108082527f30313233343536373839616263646566000000000000000000000000000000006020830152610c0e90836115f2565b81518110610c1e57610c1e6114a8565b01602001517fff00000000000000000000000000000000000000000000000000000000000000168383610c5081611606565b945081518110610c6257610c626114a8565b60200101907effffffffffffffffffffffffffffffffffffffffffffffffffffffffffffff1916908160001a905350610c9c60108261161d565b9050610bc9565b801561058c5760408051808201909152600a8082527f30313233343536373839000000000000000000000000000000000000000000006020830152610ce890836115f2565b81518110610cf857610cf86114a8565b01602001517fff00000000000000000000000000000000000000000000000000000000000000168383610d2a81611606565b945081518110610d3c57610d3c6114a8565b60200101907effffffffffffffffffffffffffffffffffffffffffffffffffffffffffffff1916908160001a905350610d76600a8261161d565b9050610ca3565b6101c681604051602401610d919190611631565b60408051601f198184030181529190526020810180517bffffffffffffffffffffffffffffffffffffffffffffffffffffffff167f41304fac00000000000000000000000000000000000000000000000000000000179052610e0a565b6000806000610dfd8585610e2b565b9150915061043881610e9b565b80516a636f6e736f6c652e6c6f67602083016000808483855afa5050505050565b600080825160411415610e625760208301516040840151606085015160001a610e568782858561108c565b94509450505050610e94565b825160401415610e8c5760208301516040840151610e81868383611179565b935093505050610e94565b506000905060025b9250929050565b6000816004811115610eaf57610eaf611686565b1415610eb85750565b6001816004811115610ecc57610ecc611686565b1415610f1a5760405162461bcd60e51b815260206004820152601860248201527f45434453413a20696e76616c6964207369676e6174757265000000000000000060448201526064016102d0565b6002816004811115610f2e57610f2e611686565b1415610f7c5760405162461bcd60e51b815260206004820152601f60248201527f45434453413a20696e76616c6964207369676e6174757265206c656e6774680060448201526064016102d0565b6003816004811115610f9057610f90611686565b14156110045760405162461bcd60e51b815260206004820152602260248201527f45434453413a20696e76616c6964207369676e6174757265202773272076616c60448201527f756500000000000000000000000000000000000000000000000000000000000060648201526084016102d0565b600481600481111561101857611018611686565b14156101c65760405162461bcd60e51b815260206004820152602260248201527f45434453413a20696e76616c6964207369676e6174757265202776272076616c60448201527f756500000000000000000000000000000000000000000000000000000000000060648201526084016102d0565b6000807f7fffffffffffffffffffffffffffffff5d576e7357a4501ddfe92f46681b20a08311156110c35750600090506003611170565b8460ff16601b141580156110db57508460ff16601c14155b156110ec5750600090506004611170565b6040805160008082526020820180845289905260ff881692820192909252606081018690526080810185905260019060a0016020604051602081039080840390855afa158015611140573d6000803e3d6000fd5b5050604051601f1901519150506001600160a01b03811661116957600060019250925050611170565b9150600090505b94509492505050565b6000807f7fffffffffffffffffffffffffffffffffffffffffffffffffffffffffffffff831660ff84901c601b016111b38782888561108c565b935093505050935093915050565b6001600160a01b03811681146101c657600080fd5b6000602082840312156111e857600080fd5b81356111f3816111c1565b9392505050565b6000806040838503121561120d57600080fd5b8235611218816111c1565b91506020830135611228816111c1565b809150509250929050565b6000806000806080858703121561124957600080fd5b8435611254816111c1565b93506020850135611264816111c1565b92506040850135611274816111c1565b9396929550929360600135925050565b60008083601f84011261129657600080fd5b50813567ffffffffffffffff8111156112ae57600080fd5b602083019150836020828501011115610e9457600080fd5b6000806000604084860312156112db57600080fd5b83356112e6816111c1565b9250602084013567ffffffffffffffff81111561130257600080fd5b61130e86828701611284565b9497909650939450505050565b803563ffffffff8116811461132f57600080fd5b919050565b6000806000806060858703121561134a57600080fd5b8435611355816111c1565b93506113636020860161131b565b9250604085013567ffffffffffffffff81111561137f57600080fd5b61138b87828801611284565b95989497509550505050565b600080602083850312156113aa57600080fd5b823567ffffffffffffffff808211156113c257600080fd5b818501915085601f8301126113d657600080fd5b8135818111156113e557600080fd5b8660208260051b85010111156113fa57600080fd5b60209290920196919550909350505050565b6001600160a01b038416815260406020820152816040820152818360608301376000818301606090810191909152601f909201601f1916010192915050565b60006020828403121561145d57600080fd5b815180151581146111f357600080fd5b634e487b7160e01b600052601160045260246000fd5b600060ff821660ff84168060ff038211156114a0576114a061146d565b019392505050565b634e487b7160e01b600052603260045260246000fd5b600082357fffffffffffffffffffffffffffffffffffffffffffffffffffffffffffffffa18336030181126114f257600080fd5b9190910192915050565b60006020828403121561150e57600080fd5b6111f38261131b565b60008083357fffffffffffffffffffffffffffffffffffffffffffffffffffffffffffffffe184360301811261154c57600080fd5b83018035915067ffffffffffffffff82111561156757600080fd5b602001915036819003821315610e9457600080fd5b60006000198214156115905761159061146d565b5060010190565b600060ff8216806115aa576115aa61146d565b6000190192915050565b600063ffffffff8083168185168083038211156115d3576115d361146d565b01949350505050565b634e487b7160e01b600052601260045260246000fd5b600082611601576116016115dc565b500690565b6000816116155761161561146d565b506000190190565b60008261162c5761162c6115dc565b500490565b600060208083528351808285015260005b8181101561165e57858101830151858201604001528201611642565b81811115611670576000604083870101525b50601f01601f1916929092016040019392505050565b634e487b7160e01b600052602160045260246000fdfea2646970667358221220ddd0ed46355171313731fee7c06c4ca03bb61162cd964e1629653b537493631464736f6c63430008090033",
  "devdoc": {
    "kind": "dev",
    "methods": {},
    "version": 1
  },
  "userdoc": {
    "kind": "user",
    "methods": {},
    "version": 1
  },
  "storageLayout": {
    "storage": [
      {
        "astId": 9244,
        "contract": "src/AllianceRegistry.sol:AllianceRegistry",
        "label": "_accounts",
        "offset": 0,
        "slot": "0",
        "type": "t_mapping(t_address,t_struct(AccountData)9234_storage)"
      },
      {
        "astId": 9252,
        "contract": "src/AllianceRegistry.sol:AllianceRegistry",
        "label": "_alliances",
        "offset": 0,
        "slot": "1",
        "type": "t_mapping(t_address,t_mapping(t_contract(IAlliance)14149,t_struct(AllianceData)9239_storage))"
      }
    ],
    "types": {
      "t_address": {
        "encoding": "inplace",
        "label": "address",
        "numberOfBytes": "20"
      },
      "t_contract(IAlliance)14149": {
        "encoding": "inplace",
        "label": "contract IAlliance",
        "numberOfBytes": "20"
      },
      "t_mapping(t_address,t_mapping(t_contract(IAlliance)14149,t_struct(AllianceData)9239_storage))": {
        "encoding": "mapping",
        "key": "t_address",
        "label": "mapping(address => mapping(contract IAlliance => struct AllianceRegistry.AllianceData))",
        "numberOfBytes": "32",
        "value": "t_mapping(t_contract(IAlliance)14149,t_struct(AllianceData)9239_storage)"
      },
      "t_mapping(t_address,t_struct(AccountData)9234_storage)": {
        "encoding": "mapping",
        "key": "t_address",
        "label": "mapping(address => struct AllianceRegistry.AccountData)",
        "numberOfBytes": "32",
        "value": "t_struct(AccountData)9234_storage"
      },
      "t_mapping(t_contract(IAlliance)14149,t_struct(AllianceData)9239_storage)": {
        "encoding": "mapping",
        "key": "t_contract(IAlliance)14149",
        "label": "mapping(contract IAlliance => struct AllianceRegistry.AllianceData)",
        "numberOfBytes": "32",
        "value": "t_struct(AllianceData)9239_storage"
      },
      "t_struct(AccountData)9234_storage": {
        "encoding": "inplace",
        "label": "struct AllianceRegistry.AccountData",
        "members": [
          {
            "astId": 9233,
            "contract": "src/AllianceRegistry.sol:AllianceRegistry",
            "label": "numAlliances",
            "offset": 0,
            "slot": "0",
            "type": "t_uint8"
          }
        ],
        "numberOfBytes": "32"
      },
      "t_struct(AllianceData)9239_storage": {
        "encoding": "inplace",
        "label": "struct AllianceRegistry.AllianceData",
        "members": [
          {
            "astId": 9236,
            "contract": "src/AllianceRegistry.sol:AllianceRegistry",
            "label": "joinTime",
            "offset": 0,
            "slot": "0",
            "type": "t_uint128"
          },
          {
            "astId": 9238,
            "contract": "src/AllianceRegistry.sol:AllianceRegistry",
            "label": "nonce",
            "offset": 16,
            "slot": "0",
            "type": "t_uint128"
          }
        ],
        "numberOfBytes": "32"
      },
      "t_uint128": {
        "encoding": "inplace",
        "label": "uint128",
        "numberOfBytes": "16"
      },
      "t_uint8": {
        "encoding": "inplace",
        "label": "uint8",
        "numberOfBytes": "1"
      }
    }
  }
}