{
  "address": "0x871fa5E51747e2B2e8aF9aa402bA7afd8B30195d",
  "abi": [
    {
      "anonymous": false,
      "inputs": [
        {
          "indexed": true,
          "internalType": "contract IAlliance",
          "name": "alliance",
          "type": "address"
        },
        {
          "indexed": true,
          "internalType": "address",
          "name": "player",
          "type": "address"
        },
        {
          "indexed": false,
          "internalType": "bool",
          "name": "joining",
          "type": "bool"
        }
      ],
      "name": "AllianceLink",
      "type": "event"
    },
    {
      "inputs": [
        {
          "components": [
            {
              "internalType": "address",
              "name": "addr",
              "type": "address"
            },
            {
              "internalType": "uint32",
              "name": "nonce",
              "type": "uint32"
            },
            {
              "internalType": "bytes",
              "name": "signature",
              "type": "bytes"
            }
          ],
          "internalType": "struct AllianceRegistry.PlayerSubmission[]",
          "name": "playerSubmissions",
          "type": "tuple[]"
        }
      ],
      "name": "addMultiplePlayersToAlliance",
      "outputs": [],
      "stateMutability": "nonpayable",
      "type": "function"
    },
    {
      "inputs": [
        {
          "internalType": "address",
          "name": "player",
          "type": "address"
        },
        {
          "internalType": "uint32",
          "name": "nonce",
          "type": "uint32"
        },
        {
          "internalType": "bytes",
          "name": "signature",
          "type": "bytes"
        }
      ],
      "name": "addPlayerToAlliance",
      "outputs": [],
      "stateMutability": "nonpayable",
      "type": "function"
    },
    {
      "inputs": [
        {
          "internalType": "address",
          "name": "player",
          "type": "address"
        }
      ],
      "name": "ejectPlayerFromAlliance",
      "outputs": [],
      "stateMutability": "nonpayable",
      "type": "function"
    },
    {
      "inputs": [
        {
          "internalType": "address",
          "name": "player",
          "type": "address"
        },
        {
          "internalType": "contract IAlliance",
          "name": "alliance",
          "type": "address"
        }
      ],
      "name": "getAllianceData",
      "outputs": [
        {
          "internalType": "uint96",
          "name": "joinTime",
          "type": "uint96"
        },
        {
          "internalType": "uint256",
          "name": "nonce",
          "type": "uint256"
        }
      ],
      "stateMutability": "view",
      "type": "function"
    },
    {
      "inputs": [
        {
          "internalType": "address",
          "name": "player",
          "type": "address"
        },
        {
          "internalType": "uint8",
          "name": "slot",
          "type": "uint8"
        }
      ],
      "name": "getAllianceDataAtSlot",
      "outputs": [
        {
          "internalType": "contract IAlliance",
          "name": "alliance",
          "type": "address"
        },
        {
          "internalType": "uint96",
          "name": "joinTime",
          "type": "uint96"
        },
        {
          "internalType": "uint256",
          "name": "nonce",
          "type": "uint256"
        }
      ],
      "stateMutability": "view",
      "type": "function"
    },
    {
      "inputs": [
        {
          "internalType": "address",
          "name": "player1",
          "type": "address"
        },
        {
          "internalType": "address",
          "name": "player2",
          "type": "address"
        },
        {
          "internalType": "uint256",
          "name": "timestamp",
          "type": "uint256"
        }
      ],
      "name": "havePlayersAnAllianceInCommon",
      "outputs": [
        {
          "internalType": "contract IAlliance",
          "name": "alliance",
          "type": "address"
        },
        {
          "internalType": "uint96",
          "name": "joinTime",
          "type": "uint96"
        }
      ],
      "stateMutability": "view",
      "type": "function"
    },
    {
      "inputs": [
        {
          "internalType": "contract IAlliance",
          "name": "alliance",
          "type": "address"
        },
        {
          "internalType": "bytes",
          "name": "data",
          "type": "bytes"
        }
      ],
      "name": "joinAlliance",
      "outputs": [
        {
          "internalType": "bool",
          "name": "joined",
          "type": "bool"
        }
      ],
      "stateMutability": "nonpayable",
      "type": "function"
    },
    {
      "inputs": [
        {
          "internalType": "contract IAlliance",
          "name": "alliance",
          "type": "address"
        }
      ],
      "name": "leaveAlliance",
      "outputs": [],
      "stateMutability": "nonpayable",
      "type": "function"
    }
  ],
  "transactionHash": "0xabd7b4044ad2969ec31280869dc73f71dc966daea04a97a5050f807ed345e436",
  "args": [],
  "solcInputHash": "6b65d856dac72cb270d391bc9dd98326",
  "bytecode": "0x608060405234801561001057600080fd5b50611e43806100206000396000f3fe608060405234801561001057600080fd5b50600436106100885760003560e01c80636da066301161005b5780636da066301461013c5780637a784cb41461014f5780638efb75c314610162578063df2c0f491461017557600080fd5b8063137672021461008d57806317e796ea146100d25780634ed2986d146100e75780635f3f7a9a14610119575b600080fd5b6100a061009b3660046119ba565b6101af565b604080516001600160a01b0390941684526001600160601b039092166020840152908201526060015b60405180910390f35b6100e56100e03660046119f9565b6102c0565b005b6100fa6100f5366004611a1d565b6102cd565b604080516001600160601b0390931683526020830191909152016100c9565b61012c610127366004611a8d565b6103c4565b60405190151581526020016100c9565b6100e561014a366004611afb565b610630565b6100e561015d3660046119f9565b610642565b6100e5610170366004611b5e565b6106be565b610188610183366004611bd3565b610781565b604080516001600160a01b0390931683526001600160601b039091166020830152016100c9565b6001600160a01b03821660009081526001602052604081208190819060ff85166101f85780546001600160a01b0381169450600160a01b90046001600160601b03169250610290565b8460ff166001141561022c5760018101546001600160a01b0381169450600160a01b90046001600160601b03169250610290565b8460ff16600214156102605760028101546001600160a01b0381169450600160a01b90046001600160601b03169250610290565b8460ff16600314156102905760038101546001600160a01b0381169450600160a01b90046001600160601b031692505b50506001600160a01b03938416600090815260208181526040808320968516835295905293909320549093909150565b6102ca8133610c68565b50565b6001600160a01b038083166000818152602081815260408083208686168085529083528184205494845260019092528220805492949092161415610324578054600160a01b90046001600160601b031692506103bc565b60018101546001600160a01b0385811691161415610358576001810154600160a01b90046001600160601b031692506103bc565b60028101546001600160a01b038581169116141561038c576002810154600160a01b90046001600160601b031692506103bc565b60038101546001600160a01b03858116911614156103bc576003810154600160a01b90046001600160601b031692505b509250929050565b336000908152600160205260408120805482906001600160a01b0316156103f357806103ef81611c2a565b9150505b60018201546001600160a01b031615610414578061041081611c2a565b9150505b60028201546001600160a01b031615610435578061043181611c2a565b9150505b60038201546001600160a01b0316156104955760405162461bcd60e51b815260206004820152601960248201527f4d41585f4e554d5f414c4c49414e4345535f524541434845440000000000000060448201526064015b60405180910390fd5b6040517f1d99b5540000000000000000000000000000000000000000000000000000000081526001600160a01b03871690631d99b554906104de90339089908990600401611c45565b602060405180830381600087803b1580156104f857600080fd5b505af115801561050c573d6000803e3d6000fd5b505050506040513d601f19601f820116820180604052508101906105309190611c84565b92508215610627578061055f576001600160601b034216600160a01b026001600160a01b0387161782556105e5565b806001141561058d576001600160601b034216600160a01b026001600160a01b0387161760018301556105e5565b80600214156105bb576001600160601b034216600160a01b026001600160a01b0387161760028301556105e5565b80600314156105e5576001600160601b034216600160a01b026001600160a01b0387161760038301555b6040516001815233906001600160a01b038816907f5e60402083b3427099886174996f295e5e29d12bbe871aef1041e9a4324cdb099060200160405180910390a35b50509392505050565b61063c84848484610de4565b50505050565b61064c3382610c68565b6040517f9192e3020000000000000000000000000000000000000000000000000000000081523360048201526001600160a01b03821690639192e30290602401600060405180830381600087803b1580156106a657600080fd5b505af19250505080156106b7575060015b6102ca5750565b60005b8181101561077c5761076a8383838181106106de576106de611ca6565b90506020028101906106f09190611cbc565b6106fe9060208101906119f9565b84848481811061071057610710611ca6565b90506020028101906107229190611cbc565b610733906040810190602001611cfa565b85858581811061074557610745611ca6565b90506020028101906107579190611cbc565b610765906040810190611d15565b610de4565b8061077481611c2a565b9150506106c1565b505050565b6001600160a01b0380841660009081526001602052604080822092851682528120909182916107ae61196c565b6107b661196c565b60008060005b6004811015610c5857828114156109135760408051808201909152600080825260208201528161081957506040805180820190915287546001600160a01b0381168252600160a01b90046001600160601b031660208201526108d2565b816001141561085857506040805180820190915260018801546001600160a01b0381168252600160a01b90046001600160601b031660208201526108d2565b816002141561089757506040805180820190915260028801546001600160a01b0381168252600160a01b90046001600160601b031660208201526108d2565b81600314156108d257506040805180820190915260038801546001600160a01b0381168252600160a01b90046001600160601b031660208201525b80516001600160a01b03166108ee575050505050505050610c60565b8086856108fa81611c2a565b96506004811061090c5761090c611ca6565b6020020152505b60005b6004811015610c455782811415610a665760408051808201909152600080825260208201528161097357506040805180820190915287546001600160a01b0381168252600160a01b90046001600160601b03166020820152610a2c565b81600114156109b257506040805180820190915260018801546001600160a01b0381168252600160a01b90046001600160601b03166020820152610a2c565b81600214156109f157506040805180820190915260028801546001600160a01b0381168252600160a01b90046001600160601b03166020820152610a2c565b8160031415610a2c57506040805180820190915260038801546001600160a01b0381168252600160a01b90046001600160601b031660208201525b80516001600160a01b0316610a415750610c45565b808685610a4d81611c2a565b965060048110610a5f57610a5f611ca6565b6020020152505b848160048110610a7857610a78611ca6565b6020020151516001600160a01b0316868360048110610a9957610a99611ca6565b6020020151516001600160a01b03161415610c3357848160048110610ac057610ac0611ca6565b6020020151602001516001600160601b0316868360048110610ae457610ae4611ca6565b6020020151602001516001600160601b031610610ba6578a868360048110610b0e57610b0e611ca6565b6020020151602001516001600160601b03161015610b6a57858260048110610b3857610b38611ca6565b602002015151868360048110610b5057610b50611ca6565b602002015160200151995099505050505050505050610c60565b858260048110610b7c57610b7c611ca6565b6020020151519950858260048110610b9657610b96611ca6565b6020020151602001519850610c33565b8a858260048110610bb957610bb9611ca6565b6020020151602001516001600160601b03161015610bfb57848160048110610be357610be3611ca6565b602002015151858260048110610b5057610b50611ca6565b848160048110610c0d57610c0d611ca6565b6020020151519950848160048110610c2757610c27611ca6565b60200201516020015198505b80610c3d81611c2a565b915050610916565b5080610c5081611c2a565b9150506107bc565b505050505050505b935093915050565b33600090815260016020526040812080549091906001600160a01b03848116911614610c9c5780610c9881611c2a565b9150505b60018201546001600160a01b03848116911614610cc15780610cbd81611c2a565b9150505b60028201546001600160a01b03848116911614610ce65780610ce281611c2a565b9150505b60038201546001600160a01b03848116911614610d455760405162461bcd60e51b815260206004820152601860248201527f4e4f545f504152545f4f465f5448455f414c4c49414e43450000000000000000604482015260640161048c565b80610d535760008255610d8e565b8060011415610d685760006001830155610d8e565b8060021415610d7d5760006002830155610d8e565b8060031415610d8e57600060038301555b836001600160a01b0316836001600160a01b03167f5e60402083b3427099886174996f295e5e29d12bbe871aef1041e9a4324cdb096000604051610dd6911515815260200190565b60405180910390a350505050565b6001600160a01b038085166000908152600160205260408120805433939192911615610e755781546001600160a01b0384811691161415610e675760405162461bcd60e51b815260206004820152600e60248201527f414c52454144595f4a4f494e4544000000000000000000000000000000000000604482015260640161048c565b80610e7181611c2a565b9150505b60018201546001600160a01b031615610ef65760018201546001600160a01b0384811691161415610ee85760405162461bcd60e51b815260206004820152600e60248201527f414c52454144595f4a4f494e4544000000000000000000000000000000000000604482015260640161048c565b80610ef281611c2a565b9150505b60028201546001600160a01b031615610f775760028201546001600160a01b0384811691161415610f695760405162461bcd60e51b815260206004820152600e60248201527f414c52454144595f4a4f494e4544000000000000000000000000000000000000604482015260640161048c565b80610f7381611c2a565b9150505b60038201546001600160a01b0384811691161415610fd75760405162461bcd60e51b815260206004820152600e60248201527f414c52454144595f4a4f494e4544000000000000000000000000000000000000604482015260640161048c565b60038201546001600160a01b0316156110325760405162461bcd60e51b815260206004820152601960248201527f4d41585f4e554d5f414c4c49414e4345535f5245414348454400000000000000604482015260640161048c565b6001600160a01b038088166000908152602081815260408083209387168352929052205463ffffffff871681146110ab5760405162461bcd60e51b815260206004820152600d60248201527f494e56414c49445f4e4f4e434500000000000000000000000000000000000000604482015260640161048c565b606063ffffffff8816611153576040517f19457468657265756d205369676e6564204d6573736167653a0a35360000000060208201527f4a6f696e20416c6c69616e636520307830303030303030303030303030303030603c8201527f3030303030303030303030303030303030303030303030300000000000000000605c82015260740160408051601f19818403018152919052905061114e816053336113fe565b611221565b6040517f19457468657265756d205369676e6564204d6573736167653a0a37360000000060208201527f4a6f696e20416c6c69616e636520307830303030303030303030303030303030603c8201527f30303030303030303030303030303030303030303030303020286e6f6e63653a605c8201527f2020202020202020202030290000000000000000000000000000000000000000607c82015260880160408051601f19818403018152919052905061120f816053336113fe565b6112218160668a63ffffffff166114d8565b600081805190602001209050600061127189898080601f01602080910402602001604051908101604052809392919081815260200183838082843760009201919091525086939250506115b29050565b9050806001600160a01b03168b6001600160a01b0316146112d45760405162461bcd60e51b815260206004820152601160248201527f494e56414c49445f5349474e4154555245000000000000000000000000000000604482015260640161048c565b846112fb576001600160601b034216600160a01b026001600160a01b038816178655611381565b8460011415611329576001600160601b034216600160a01b026001600160a01b038816176001870155611381565b8460021415611357576001600160601b034216600160a01b026001600160a01b038816176002870155611381565b8460031415611381576001600160601b034216600160a01b026001600160a01b0388161760038701555b61138c8a6001611d7a565b6001600160a01b038c8116600081815260208181526040808320948d168084529482529182902063ffffffff95909516909455516001815290927f5e60402083b3427099886174996f295e5e29d12bbe871aef1041e9a4324cdb09910160405180910390a35050505050505050505050565b801561077c576040805180820190915260108082527f303132333435363738396162636465660000000000000000000000000000000060208301526114439083611db8565b8151811061145357611453611ca6565b01602001517fff0000000000000000000000000000000000000000000000000000000000000016838361148581611dcc565b94508151811061149757611497611ca6565b60200101907effffffffffffffffffffffffffffffffffffffffffffffffffffffffffffff1916908160001a9053506114d1601082611de3565b90506113fe565b801561077c5760408051808201909152600a8082527f3031323334353637383900000000000000000000000000000000000000000000602083015261151d9083611db8565b8151811061152d5761152d611ca6565b01602001517fff0000000000000000000000000000000000000000000000000000000000000016838361155f81611dcc565b94508151811061157157611571611ca6565b60200101907effffffffffffffffffffffffffffffffffffffffffffffffffffffffffffff1916908160001a9053506115ab600a82611de3565b90506114d8565b60008060006115c185856115d6565b915091506115ce81611646565b509392505050565b60008082516041141561160d5760208301516040840151606085015160001a61160187828585611837565b9450945050505061163f565b825160401415611637576020830151604084015161162c868383611924565b93509350505061163f565b506000905060025b9250929050565b600081600481111561165a5761165a611df7565b14156116635750565b600181600481111561167757611677611df7565b14156116c55760405162461bcd60e51b815260206004820152601860248201527f45434453413a20696e76616c6964207369676e61747572650000000000000000604482015260640161048c565b60028160048111156116d9576116d9611df7565b14156117275760405162461bcd60e51b815260206004820152601f60248201527f45434453413a20696e76616c6964207369676e6174757265206c656e67746800604482015260640161048c565b600381600481111561173b5761173b611df7565b14156117af5760405162461bcd60e51b815260206004820152602260248201527f45434453413a20696e76616c6964207369676e6174757265202773272076616c60448201527f7565000000000000000000000000000000000000000000000000000000000000606482015260840161048c565b60048160048111156117c3576117c3611df7565b14156102ca5760405162461bcd60e51b815260206004820152602260248201527f45434453413a20696e76616c6964207369676e6174757265202776272076616c60448201527f7565000000000000000000000000000000000000000000000000000000000000606482015260840161048c565b6000807f7fffffffffffffffffffffffffffffff5d576e7357a4501ddfe92f46681b20a083111561186e575060009050600361191b565b8460ff16601b1415801561188657508460ff16601c14155b15611897575060009050600461191b565b6040805160008082526020820180845289905260ff881692820192909252606081018690526080810185905260019060a0016020604051602081039080840390855afa1580156118eb573d6000803e3d6000fd5b5050604051601f1901519150506001600160a01b0381166119145760006001925092505061191b565b9150600090505b94509492505050565b6000807f7fffffffffffffffffffffffffffffffffffffffffffffffffffffffffffffff831660ff84901c601b0161195e87828885611837565b935093505050935093915050565b60405180608001604052806004905b604080518082019091526000808252602082015281526020019060019003908161197b5790505090565b6001600160a01b03811681146102ca57600080fd5b600080604083850312156119cd57600080fd5b82356119d8816119a5565b9150602083013560ff811681146119ee57600080fd5b809150509250929050565b600060208284031215611a0b57600080fd5b8135611a16816119a5565b9392505050565b60008060408385031215611a3057600080fd5b8235611a3b816119a5565b915060208301356119ee816119a5565b60008083601f840112611a5d57600080fd5b50813567ffffffffffffffff811115611a7557600080fd5b60208301915083602082850101111561163f57600080fd5b600080600060408486031215611aa257600080fd5b8335611aad816119a5565b9250602084013567ffffffffffffffff811115611ac957600080fd5b611ad586828701611a4b565b9497909650939450505050565b803563ffffffff81168114611af657600080fd5b919050565b60008060008060608587031215611b1157600080fd5b8435611b1c816119a5565b9350611b2a60208601611ae2565b9250604085013567ffffffffffffffff811115611b4657600080fd5b611b5287828801611a4b565b95989497509550505050565b60008060208385031215611b7157600080fd5b823567ffffffffffffffff80821115611b8957600080fd5b818501915085601f830112611b9d57600080fd5b813581811115611bac57600080fd5b8660208260051b8501011115611bc157600080fd5b60209290920196919550909350505050565b600080600060608486031215611be857600080fd5b8335611bf3816119a5565b92506020840135611c03816119a5565b929592945050506040919091013590565b634e487b7160e01b600052601160045260246000fd5b6000600019821415611c3e57611c3e611c14565b5060010190565b6001600160a01b038416815260406020820152816040820152818360608301376000818301606090810191909152601f909201601f1916010192915050565b600060208284031215611c9657600080fd5b81518015158114611a1657600080fd5b634e487b7160e01b600052603260045260246000fd5b600082357fffffffffffffffffffffffffffffffffffffffffffffffffffffffffffffffa1833603018112611cf057600080fd5b9190910192915050565b600060208284031215611d0c57600080fd5b611a1682611ae2565b60008083357fffffffffffffffffffffffffffffffffffffffffffffffffffffffffffffffe1843603018112611d4a57600080fd5b83018035915067ffffffffffffffff821115611d6557600080fd5b60200191503681900382131561163f57600080fd5b600063ffffffff808316818516808303821115611d9957611d99611c14565b01949350505050565b634e487b7160e01b600052601260045260246000fd5b600082611dc757611dc7611da2565b500690565b600081611ddb57611ddb611c14565b506000190190565b600082611df257611df2611da2565b500490565b634e487b7160e01b600052602160045260246000fdfea26469706673582212201773b78a3b1e94820d5467177d0b975ce2b02f8eb57c48d3f75fa83a3832aa1a64736f6c63430008090033",
  "devdoc": {
    "kind": "dev",
    "methods": {},
    "version": 1
  },
  "userdoc": {
    "kind": "user",
    "methods": {},
    "version": 1
  },
  "storageLayout": {
    "storage": [
      {
        "astId": 9237,
        "contract": "src/AllianceRegistry.sol:AllianceRegistry",
        "label": "_allianceNonces",
        "offset": 0,
        "slot": "0",
        "type": "t_mapping(t_address,t_mapping(t_contract(IAlliance)14984,t_uint256))"
      },
      {
        "astId": 9261,
        "contract": "src/AllianceRegistry.sol:AllianceRegistry",
        "label": "_alliances",
        "offset": 0,
        "slot": "1",
        "type": "t_mapping(t_address,t_struct(Alliances)9256_storage)"
      }
    ],
    "types": {
      "t_address": {
        "encoding": "inplace",
        "label": "address",
        "numberOfBytes": "20"
      },
      "t_contract(IAlliance)14984": {
        "encoding": "inplace",
        "label": "contract IAlliance",
        "numberOfBytes": "20"
      },
      "t_mapping(t_address,t_mapping(t_contract(IAlliance)14984,t_uint256))": {
        "encoding": "mapping",
        "key": "t_address",
        "label": "mapping(address => mapping(contract IAlliance => uint256))",
        "numberOfBytes": "32",
        "value": "t_mapping(t_contract(IAlliance)14984,t_uint256)"
      },
      "t_mapping(t_address,t_struct(Alliances)9256_storage)": {
        "encoding": "mapping",
        "key": "t_address",
        "label": "mapping(address => struct AllianceRegistry.Alliances)",
        "numberOfBytes": "32",
        "value": "t_struct(Alliances)9256_storage"
      },
      "t_mapping(t_contract(IAlliance)14984,t_uint256)": {
        "encoding": "mapping",
        "key": "t_contract(IAlliance)14984",
        "label": "mapping(contract IAlliance => uint256)",
        "numberOfBytes": "32",
        "value": "t_uint256"
      },
      "t_struct(AllianceRow)9243_storage": {
        "encoding": "inplace",
        "label": "struct AllianceRegistry.AllianceRow",
        "members": [
          {
            "astId": 9240,
            "contract": "src/AllianceRegistry.sol:AllianceRegistry",
            "label": "alliance",
            "offset": 0,
            "slot": "0",
            "type": "t_contract(IAlliance)14984"
          },
          {
            "astId": 9242,
            "contract": "src/AllianceRegistry.sol:AllianceRegistry",
            "label": "joinTime",
            "offset": 20,
            "slot": "0",
            "type": "t_uint96"
          }
        ],
        "numberOfBytes": "32"
      },
      "t_struct(Alliances)9256_storage": {
        "encoding": "inplace",
        "label": "struct AllianceRegistry.Alliances",
        "members": [
          {
            "astId": 9246,
            "contract": "src/AllianceRegistry.sol:AllianceRegistry",
            "label": "alliance0",
            "offset": 0,
            "slot": "0",
            "type": "t_struct(AllianceRow)9243_storage"
          },
          {
            "astId": 9249,
            "contract": "src/AllianceRegistry.sol:AllianceRegistry",
            "label": "alliance1",
            "offset": 0,
            "slot": "1",
            "type": "t_struct(AllianceRow)9243_storage"
          },
          {
            "astId": 9252,
            "contract": "src/AllianceRegistry.sol:AllianceRegistry",
            "label": "alliance2",
            "offset": 0,
            "slot": "2",
            "type": "t_struct(AllianceRow)9243_storage"
          },
          {
            "astId": 9255,
            "contract": "src/AllianceRegistry.sol:AllianceRegistry",
            "label": "alliance3",
            "offset": 0,
            "slot": "3",
            "type": "t_struct(AllianceRow)9243_storage"
          }
        ],
        "numberOfBytes": "128"
      },
      "t_uint256": {
        "encoding": "inplace",
        "label": "uint256",
        "numberOfBytes": "32"
      },
      "t_uint96": {
        "encoding": "inplace",
        "label": "uint96",
        "numberOfBytes": "12"
      }
    }
  }
}