{
  "address": "0x9f13E02185d63e6300bAA2Dc1CfD826b11732715",
  "abi": [
    {
      "inputs": [
        {
          "internalType": "contract IERC20",
          "name": "stakingToken",
          "type": "address"
        },
        {
          "internalType": "contract AllianceRegistry",
          "name": "theAllianceRegistry",
          "type": "address"
        },
        {
          "internalType": "bytes32",
          "name": "genesis",
          "type": "bytes32"
        },
        {
          "internalType": "uint32",
          "name": "resolveWindow",
          "type": "uint32"
        },
        {
          "internalType": "uint32",
          "name": "timePerDistance",
          "type": "uint32"
        },
        {
          "internalType": "uint32",
          "name": "exitDuration",
          "type": "uint32"
        },
        {
          "internalType": "uint32",
          "name": "acquireNumSpaceships",
          "type": "uint32"
        },
        {
          "internalType": "uint32",
          "name": "productionSpeedUp",
          "type": "uint32"
        },
        {
          "internalType": "uint32",
          "name": "frontrunningDelay",
          "type": "uint32"
        },
        {
          "internalType": "uint32",
          "name": "productionCapAsDuration",
          "type": "uint32"
        },
        {
          "internalType": "uint32",
          "name": "fleetSizeFactor6",
          "type": "uint32"
        }
      ],
      "stateMutability": "nonpayable",
      "type": "constructor"
    },
    {
      "anonymous": false,
      "inputs": [
        {
          "indexed": true,
          "internalType": "address",
          "name": "owner",
          "type": "address"
        },
        {
          "indexed": true,
          "internalType": "address",
          "name": "operator",
          "type": "address"
        },
        {
          "indexed": false,
          "internalType": "bool",
          "name": "approved",
          "type": "bool"
        }
      ],
      "name": "ApprovalForAll",
      "type": "event"
    },
    {
      "anonymous": false,
      "inputs": [
        {
          "indexed": true,
          "internalType": "address",
          "name": "owner",
          "type": "address"
        },
        {
          "indexed": true,
          "internalType": "uint256",
          "name": "location",
          "type": "uint256"
        },
        {
          "indexed": false,
          "internalType": "uint256",
          "name": "stake",
          "type": "uint256"
        }
      ],
      "name": "ExitComplete",
      "type": "event"
    },
    {
      "anonymous": false,
      "inputs": [
        {
          "indexed": true,
          "internalType": "uint256",
          "name": "fleet",
          "type": "uint256"
        },
        {
          "indexed": true,
          "internalType": "address",
          "name": "fleetOwner",
          "type": "address"
        },
        {
          "indexed": true,
          "internalType": "address",
          "name": "destinationOwner",
          "type": "address"
        },
        {
          "indexed": false,
          "internalType": "uint256",
          "name": "destination",
          "type": "uint256"
        },
        {
          "indexed": false,
          "internalType": "bool",
          "name": "gift",
          "type": "bool"
        },
        {
          "indexed": false,
          "internalType": "uint32",
          "name": "fleetLoss",
          "type": "uint32"
        },
        {
          "indexed": false,
          "internalType": "uint32",
          "name": "planetLoss",
          "type": "uint32"
        },
        {
          "indexed": false,
          "internalType": "uint32",
          "name": "inFlightFleetLoss",
          "type": "uint32"
        },
        {
          "indexed": false,
          "internalType": "uint32",
          "name": "inFlightPlanetLoss",
          "type": "uint32"
        },
        {
          "indexed": false,
          "internalType": "bool",
          "name": "won",
          "type": "bool"
        },
        {
          "indexed": false,
          "internalType": "uint32",
          "name": "newNumspaceships",
          "type": "uint32"
        }
      ],
      "name": "FleetArrived",
      "type": "event"
    },
    {
      "anonymous": false,
      "inputs": [
        {
          "indexed": true,
          "internalType": "address",
          "name": "fleetSender",
          "type": "address"
        },
        {
          "indexed": true,
          "internalType": "address",
          "name": "fleetOwner",
          "type": "address"
        },
        {
          "indexed": true,
          "internalType": "uint256",
          "name": "from",
          "type": "uint256"
        },
        {
          "indexed": false,
          "internalType": "address",
          "name": "operator",
          "type": "address"
        },
        {
          "indexed": false,
          "internalType": "uint256",
          "name": "fleet",
          "type": "uint256"
        },
        {
          "indexed": false,
          "internalType": "uint32",
          "name": "quantity",
          "type": "uint32"
        },
        {
          "indexed": false,
          "internalType": "uint32",
          "name": "newNumSpaceships",
          "type": "uint32"
        }
      ],
      "name": "FleetSent",
      "type": "event"
    },
    {
      "anonymous": false,
      "inputs": [
        {
          "indexed": false,
          "internalType": "uint32",
          "name": "minX",
          "type": "uint32"
        },
        {
          "indexed": false,
          "internalType": "uint32",
          "name": "maxX",
          "type": "uint32"
        },
        {
          "indexed": false,
          "internalType": "uint32",
          "name": "minY",
          "type": "uint32"
        },
        {
          "indexed": false,
          "internalType": "uint32",
          "name": "maxY",
          "type": "uint32"
        },
        {
          "indexed": false,
          "internalType": "bytes32",
          "name": "genesis",
          "type": "bytes32"
        }
      ],
      "name": "Initialized",
      "type": "event"
    },
    {
      "anonymous": false,
      "inputs": [
        {
          "indexed": true,
          "internalType": "address",
          "name": "owner",
          "type": "address"
        },
        {
          "indexed": true,
          "internalType": "uint256",
          "name": "location",
          "type": "uint256"
        }
      ],
      "name": "PlanetExit",
      "type": "event"
    },
    {
      "anonymous": false,
      "inputs": [
        {
          "indexed": true,
          "internalType": "uint256",
          "name": "location",
          "type": "uint256"
        }
      ],
      "name": "PlanetReset",
      "type": "event"
    },
    {
      "anonymous": false,
      "inputs": [
        {
          "indexed": true,
          "internalType": "address",
          "name": "acquirer",
          "type": "address"
        },
        {
          "indexed": true,
          "internalType": "uint256",
          "name": "location",
          "type": "uint256"
        },
        {
          "indexed": false,
          "internalType": "uint32",
          "name": "numSpaceships",
          "type": "uint32"
        },
        {
          "indexed": false,
          "internalType": "uint256",
          "name": "stake",
          "type": "uint256"
        }
      ],
      "name": "PlanetStake",
      "type": "event"
    },
    {
      "anonymous": false,
      "inputs": [
        {
          "indexed": true,
          "internalType": "uint256",
          "name": "location",
          "type": "uint256"
        },
        {
          "indexed": true,
          "internalType": "address",
          "name": "giver",
          "type": "address"
        },
        {
          "indexed": false,
          "internalType": "uint256",
          "name": "rewardId",
          "type": "uint256"
        }
      ],
      "name": "RewardSetup",
      "type": "event"
    },
    {
      "anonymous": false,
      "inputs": [
        {
          "indexed": true,
          "internalType": "address",
          "name": "owner",
          "type": "address"
        },
        {
          "indexed": true,
          "internalType": "uint256",
          "name": "location",
          "type": "uint256"
        },
        {
          "indexed": true,
          "internalType": "uint256",
          "name": "rewardId",
          "type": "uint256"
        }
      ],
      "name": "RewardToWithdraw",
      "type": "event"
    },
    {
      "anonymous": false,
      "inputs": [
        {
          "indexed": true,
          "internalType": "address",
          "name": "owner",
          "type": "address"
        },
        {
          "indexed": false,
          "internalType": "uint256",
          "name": "newStake",
          "type": "uint256"
        }
      ],
      "name": "StakeToWithdraw",
      "type": "event"
    },
    {
      "inputs": [
        {
          "internalType": "uint256",
          "name": "location",
          "type": "uint256"
        },
        {
          "internalType": "uint256",
          "name": "amount",
          "type": "uint256"
        }
      ],
      "name": "acquireViaTransferFrom",
      "outputs": [],
      "stateMutability": "nonpayable",
      "type": "function"
    },
    {
      "inputs": [],
      "name": "allianceRegistry",
      "outputs": [
        {
          "internalType": "contract AllianceRegistry",
          "name": "",
          "type": "address"
        }
      ],
      "stateMutability": "view",
      "type": "function"
    },
    {
      "inputs": [
        {
          "internalType": "address",
          "name": "owner",
          "type": "address"
        }
      ],
      "name": "balanceToWithdraw",
      "outputs": [
        {
          "internalType": "uint256",
          "name": "",
          "type": "uint256"
        }
      ],
      "stateMutability": "view",
      "type": "function"
    },
    {
      "inputs": [
        {
          "internalType": "address",
          "name": "owner",
          "type": "address"
        },
        {
          "internalType": "uint256",
          "name": "location",
          "type": "uint256"
        }
      ],
      "name": "exitFor",
      "outputs": [],
      "stateMutability": "nonpayable",
      "type": "function"
    },
    {
      "inputs": [
        {
          "internalType": "address",
          "name": "owner",
          "type": "address"
        },
        {
          "internalType": "uint256[]",
          "name": "locations",
          "type": "uint256[]"
        }
      ],
      "name": "fetchAndWithdrawFor",
      "outputs": [],
      "stateMutability": "nonpayable",
      "type": "function"
    },
    {
      "inputs": [],
      "name": "getDiscovered",
      "outputs": [
        {
          "components": [
            {
              "internalType": "uint32",
              "name": "minX",
              "type": "uint32"
            },
            {
              "internalType": "uint32",
              "name": "maxX",
              "type": "uint32"
            },
            {
              "internalType": "uint32",
              "name": "minY",
              "type": "uint32"
            },
            {
              "internalType": "uint32",
              "name": "maxY",
              "type": "uint32"
            }
          ],
          "internalType": "struct OuterSpace.Discovered",
          "name": "",
          "type": "tuple"
        }
      ],
      "stateMutability": "view",
      "type": "function"
    },
    {
      "inputs": [
        {
          "internalType": "uint256",
          "name": "fleetId",
          "type": "uint256"
        },
        {
          "internalType": "uint256",
          "name": "from",
          "type": "uint256"
        }
      ],
      "name": "getFleet",
      "outputs": [
        {
          "internalType": "address",
          "name": "owner",
          "type": "address"
        },
        {
          "internalType": "uint32",
          "name": "launchTime",
          "type": "uint32"
        },
        {
          "internalType": "uint32",
          "name": "quantity",
          "type": "uint32"
        },
        {
          "internalType": "uint64",
          "name": "flyingAtLaunch",
          "type": "uint64"
        },
        {
          "internalType": "uint64",
          "name": "destroyedAtLaunch",
          "type": "uint64"
        }
      ],
      "stateMutability": "view",
      "type": "function"
    },
    {
      "inputs": [],
      "name": "getGeneisHash",
      "outputs": [
        {
          "internalType": "bytes32",
          "name": "",
          "type": "bytes32"
        }
      ],
      "stateMutability": "view",
      "type": "function"
    },
    {
      "inputs": [
        {
          "internalType": "uint256",
          "name": "location",
          "type": "uint256"
        }
      ],
      "name": "getPlanet",
      "outputs": [
        {
          "components": [
            {
              "internalType": "address",
              "name": "owner",
              "type": "address"
            },
            {
              "internalType": "uint32",
              "name": "exitTime",
              "type": "uint32"
            },
            {
              "internalType": "uint32",
              "name": "numSpaceships",
              "type": "uint32"
            },
            {
              "internalType": "uint32",
              "name": "lastUpdated",
              "type": "uint32"
            },
            {
              "internalType": "bool",
              "name": "active",
              "type": "bool"
            },
            {
              "internalType": "uint256",
              "name": "reward",
              "type": "uint256"
            }
          ],
          "internalType": "struct OuterSpace.ExternalPlanet",
          "name": "state",
          "type": "tuple"
        },
        {
          "components": [
            {
              "internalType": "int8",
              "name": "subX",
              "type": "int8"
            },
            {
              "internalType": "int8",
              "name": "subY",
              "type": "int8"
            },
            {
              "internalType": "uint16",
              "name": "stake",
              "type": "uint16"
            },
            {
              "internalType": "uint16",
              "name": "production",
              "type": "uint16"
            },
            {
              "internalType": "uint16",
              "name": "attack",
              "type": "uint16"
            },
            {
              "internalType": "uint16",
              "name": "defense",
              "type": "uint16"
            },
            {
              "internalType": "uint16",
              "name": "speed",
              "type": "uint16"
            },
            {
              "internalType": "uint16",
              "name": "natives",
              "type": "uint16"
            }
          ],
          "internalType": "struct OuterSpace.PlanetStats",
          "name": "stats",
          "type": "tuple"
        }
      ],
      "stateMutability": "view",
      "type": "function"
    },
    {
      "inputs": [
        {
          "internalType": "uint256[]",
          "name": "locations",
          "type": "uint256[]"
        }
      ],
      "name": "getPlanetStates",
      "outputs": [
        {
          "components": [
            {
              "internalType": "address",
              "name": "owner",
              "type": "address"
            },
            {
              "internalType": "uint32",
              "name": "exitTime",
              "type": "uint32"
            },
            {
              "internalType": "uint32",
              "name": "numSpaceships",
              "type": "uint32"
            },
            {
              "internalType": "uint32",
              "name": "lastUpdated",
              "type": "uint32"
            },
            {
              "internalType": "bool",
              "name": "active",
              "type": "bool"
            },
            {
              "internalType": "uint256",
              "name": "reward",
              "type": "uint256"
            }
          ],
          "internalType": "struct OuterSpace.ExternalPlanet[]",
          "name": "planetStates",
          "type": "tuple[]"
        },
        {
          "components": [
            {
              "internalType": "uint32",
              "name": "minX",
              "type": "uint32"
            },
            {
              "internalType": "uint32",
              "name": "maxX",
              "type": "uint32"
            },
            {
              "internalType": "uint32",
              "name": "minY",
              "type": "uint32"
            },
            {
              "internalType": "uint32",
              "name": "maxY",
              "type": "uint32"
            }
          ],
          "internalType": "struct OuterSpace.Discovered",
          "name": "discovered",
          "type": "tuple"
        }
      ],
      "stateMutability": "view",
      "type": "function"
    },
    {
      "inputs": [
        {
          "internalType": "address",
          "name": "",
          "type": "address"
        },
        {
          "internalType": "address",
          "name": "forAddress",
          "type": "address"
        },
        {
          "internalType": "uint256",
          "name": "amount",
          "type": "uint256"
        },
        {
          "internalType": "bytes",
          "name": "data",
          "type": "bytes"
        }
      ],
      "name": "onTokenPaidFor",
      "outputs": [
        {
          "internalType": "bool",
          "name": "",
          "type": "bool"
        }
      ],
      "stateMutability": "nonpayable",
      "type": "function"
    },
    {
      "inputs": [
        {
          "internalType": "address",
          "name": "",
          "type": "address"
        },
        {
          "internalType": "uint256",
          "name": "amount",
          "type": "uint256"
        },
        {
          "internalType": "bytes",
          "name": "data",
          "type": "bytes"
        }
      ],
      "name": "onTokenTransfer",
      "outputs": [
        {
          "internalType": "bool",
          "name": "",
          "type": "bool"
        }
      ],
      "stateMutability": "nonpayable",
      "type": "function"
    },
    {
      "inputs": [
        {
          "internalType": "contract IERC20",
          "name": "",
          "type": "address"
        },
        {
          "internalType": "contract AllianceRegistry",
          "name": "",
          "type": "address"
        },
        {
          "internalType": "bytes32",
          "name": "genesis",
          "type": "bytes32"
        },
        {
          "internalType": "uint32",
          "name": "",
          "type": "uint32"
        },
        {
          "internalType": "uint32",
          "name": "",
          "type": "uint32"
        },
        {
          "internalType": "uint32",
          "name": "",
          "type": "uint32"
        },
        {
          "internalType": "uint32",
          "name": "",
          "type": "uint32"
        },
        {
          "internalType": "uint32",
          "name": "",
          "type": "uint32"
        },
        {
          "internalType": "uint32",
          "name": "",
          "type": "uint32"
        },
        {
          "internalType": "uint32",
          "name": "",
          "type": "uint32"
        },
        {
          "internalType": "uint32",
          "name": "",
          "type": "uint32"
        }
      ],
      "name": "postUpgrade",
      "outputs": [],
      "stateMutability": "nonpayable",
      "type": "function"
    },
    {
      "inputs": [
        {
          "internalType": "uint256",
          "name": "location",
          "type": "uint256"
        }
      ],
      "name": "resetPlanet",
      "outputs": [],
      "stateMutability": "nonpayable",
      "type": "function"
    },
    {
      "inputs": [
        {
          "internalType": "uint256",
          "name": "fleetId",
          "type": "uint256"
        },
        {
          "components": [
            {
              "internalType": "uint256",
              "name": "from",
              "type": "uint256"
            },
            {
              "internalType": "uint256",
              "name": "to",
              "type": "uint256"
            },
            {
              "internalType": "uint256",
              "name": "distance",
              "type": "uint256"
            },
            {
              "internalType": "bool",
              "name": "gift",
              "type": "bool"
            },
            {
              "internalType": "address",
              "name": "specific",
              "type": "address"
            },
            {
              "internalType": "bytes32",
              "name": "secret",
              "type": "bytes32"
            },
            {
              "internalType": "address",
              "name": "fleetSender",
              "type": "address"
            },
            {
              "internalType": "address",
              "name": "operator",
              "type": "address"
            }
          ],
          "internalType": "struct OuterSpace.FleetResolution",
          "name": "resolution",
          "type": "tuple"
        }
      ],
      "name": "resolveFleet",
      "outputs": [],
      "stateMutability": "nonpayable",
      "type": "function"
    },
    {
      "inputs": [
        {
          "internalType": "uint256",
          "name": "from",
          "type": "uint256"
        },
        {
          "internalType": "uint32",
          "name": "quantity",
          "type": "uint32"
        },
        {
          "internalType": "bytes32",
          "name": "toHash",
          "type": "bytes32"
        }
      ],
      "name": "send",
      "outputs": [],
      "stateMutability": "nonpayable",
      "type": "function"
    },
    {
      "inputs": [
        {
          "components": [
            {
              "internalType": "address",
              "name": "fleetSender",
              "type": "address"
            },
            {
              "internalType": "address",
              "name": "fleetOwner",
              "type": "address"
            },
            {
              "internalType": "uint256",
              "name": "from",
              "type": "uint256"
            },
            {
              "internalType": "uint32",
              "name": "quantity",
              "type": "uint32"
            },
            {
              "internalType": "bytes32",
              "name": "toHash",
              "type": "bytes32"
            }
          ],
          "internalType": "struct OuterSpace.FleetLaunch",
          "name": "launch",
          "type": "tuple"
        }
      ],
      "name": "sendFor",
      "outputs": [],
      "stateMutability": "nonpayable",
      "type": "function"
    },
    {
      "inputs": [
        {
          "internalType": "address",
          "name": "operator",
          "type": "address"
        },
        {
          "internalType": "bool",
          "name": "approved",
          "type": "bool"
        }
      ],
      "name": "setApprovalForAll",
      "outputs": [],
      "stateMutability": "nonpayable",
      "type": "function"
    },
    {
      "inputs": [
        {
          "internalType": "address",
          "name": "owner",
          "type": "address"
        }
      ],
      "name": "withdrawFor",
      "outputs": [],
      "stateMutability": "nonpayable",
      "type": "function"
    }
  ],
  "transactionHash": "0x3cc5be39c67ed2146d122b413aa1d07e2ebd57a595a57d5a46a6fb38d2d9216b",
  "args": [
    "0x82E0eef1E826b20B5D16c2d0Bf7E479E06Cb64f8",
    "0x303c54b56ea9aa4318c4A27730aE13F972490Bf6",
    "0x015e3b02f1bb647546a9856205a64f1c2263856de7acb3fe65aa303c9c8ce7fc",
    43200,
    7200,
    259200,
    100000,
    1,
    1800,
    259200,
    500000
  ],
  "linkedData": {
    "genesisHash": "0x015e3b02f1bb647546a9856205a64f1c2263856de7acb3fe65aa303c9c8ce7fc",
    "resolveWindow": 43200,
    "timePerDistance": 7200,
    "exitDuration": 259200,
    "acquireNumSpaceships": 100000,
    "productionSpeedUp": 1,
    "chainGenesisHash": "",
    "frontrunningDelay": 1800,
    "productionCapAsDuration": 259200,
    "fleetSizeFactor6": 500000
  },
  "solcInputHash": "46dd8be70d78d5f5577cd623422b36a6",
  "bytecode": "0x6101e06040523480156200001257600080fd5b50604051620063da380380620063da83398101604081905262000035916200029a565b6000620000446004896200037a565b905063ffffffff88166200005a826004620003ac565b63ffffffff1614620000b25760405162461bcd60e51b815260206004820152601d60248201527f54494d455f5045525f444953545f4e4f545f444956495349424c455f34000000604482015260640160405180910390fd5b6001600160a01b03808d1660c0528b1660805260a08a905263ffffffff808a1660e05281811661010052878116610120528681166101405285811661016052848116610180528381166101a05282166101c0526200011a8c8c8c8c8c8c8c8c8c8c8c6200012c565b505050505050505050505050620003e7565b600062000146600080516020620063ba8339815191525490565b90506001600160a01b03811662000176576001600160a01b03600080516020620063ba833981519152556200018c565b336001600160a01b038216146200018c57600080fd5b60055463ffffffff1662000259576040805160808082018352601080835260208084018290528385018290526060938401829052600580546001600160801b0319166c100000001000000010000000101790819055855192835263ffffffff64010000000082048116928401929092526801000000000000000081048216838701526c010000000000000000000000009004169281019290925281018c905290517f3086e986d6b4ec35754cd5a19b964d1012b58b3584a51a321d0fb693ae4cfcd99160a0908290030190a15b505050505050505050505050565b6001600160a01b03811681146200027d57600080fd5b50565b805163ffffffff811681146200029557600080fd5b919050565b60008060008060008060008060008060006101608c8e031215620002bd57600080fd5b8b51620002ca8162000267565b60208d0151909b50620002dd8162000267565b60408d0151909a509850620002f560608d0162000280565b97506200030560808d0162000280565b96506200031560a08d0162000280565b95506200032560c08d0162000280565b94506200033560e08d0162000280565b9350620003466101008d0162000280565b9250620003576101208d0162000280565b9150620003686101408d0162000280565b90509295989b509295989b9093969950565b600063ffffffff80841680620003a057634e487b7160e01b600052601260045260246000fd5b92169190910492915050565b600063ffffffff80831681851681830481118215151615620003de57634e487b7160e01b600052601160045260246000fd5b02949350505050565b60805160a05160c05160e05161010051610120516101405161016051610180516101a0516101c051615e3b6200057f60003960008181612fcb01528181612ffe0152818161307f01526130b2015260008181611dea0152611e1e0152600081816112c10152818161202a0152818161327f01528181614a1201528181614a9a01528181614b2701528181614ba80152614d7a015260008181611eff0152611f91015260008181611e570152818161262e015281816126bf0152818161270d01528181612754015281816127d3015261280401526000611b5101526000613617015260006136b901526000818161085a01528181610a4801528181610b780152611a720152600081816101d001528181611413015281816116de0152818161181801528181611b8b015281816133ac01528181613412015281816135be015281816140810152818161420a0152818161429801526143e20152600081816103db015281816138100152818161390b01528181613aa201528181613b6501528181613c6901528181613d870152613e490152615e3b6000f3fe608060405234801561001057600080fd5b50600436106101515760003560e01c8063a22cb465116100cd578063c956083811610081578063e2e9b07911610066578063e2e9b07914610368578063ee5433931461037b578063f9c8974d146103d657600080fd5b8063c95608381461032c578063cf3ecf071461035557600080fd5b8063aba789f5116100b2578063aba789f51461026d578063afc823701461028e578063c5aaa0ae146102a157600080fd5b8063a22cb46514610247578063a4c0ed361461025a57600080fd5b80637ba423fb1161012457806388f3532b1161010957806388f3532b146101fe5780639b6be065146102115780639eca672c1461023457600080fd5b80637ba423fb146101bb5780637cef64d8146101ce57600080fd5b80630b9c522814610156578063112e68511461016b5780631b7c9c171461017e57806334efcb8e14610191575b600080fd5b610169610164366004614e87565b610415565b005b610169610179366004614eb9565b6104d7565b61016961018c366004614f06565b61057e565b6101a461019f366004614e87565b6106ee565b6040516101b2929190614fcf565b60405180910390f35b6101696101c93660046150ab565b610809565b7f00000000000000000000000000000000000000000000000000000000000000005b6040519081526020016101b2565b61016961020c3660046150cd565b6108dc565b61022461021f366004615154565b610a3b565b60405190151581526020016101b2565b6101696102423660046151c7565b610add565b6101696102553660046151f2565b610b00565b61022461026836600461522b565b610b6b565b61028061027b3660046152cc565b610c03565b6040516101b292919061530e565b61016961029c3660046153e4565b610e13565b61031f604080516080810182526000808252602082018190529181018290526060810191909152506040805160808101825260055463ffffffff80821683526401000000008204811660208401526801000000000000000082048116938301939093526c010000000000000000000000009004909116606082015290565b6040516101b29190615410565b6101f061033a3660046151c7565b6001600160a01b031660009081526002602052604090205490565b610169610363366004615449565b610f48565b610169610376366004615461565b611170565b61038e6103893660046150ab565b611286565b604080516001600160a01b03909616865263ffffffff9485166020870152939092169284019290925267ffffffffffffffff918216606084015216608082015260a0016101b2565b6103fd7f000000000000000000000000000000000000000000000000000000000000000081565b6040516001600160a01b0390911681526020016101b2565b7fb53127684a568b3173ae13b9f8a6016e243e63b6e8ee1178d6a717850b5d6103546001600160a01b0316336001600160a01b03161461049c5760405162461bcd60e51b815260206004820152600e60248201527f4e4f545f415554484f52495a454400000000000000000000000000000000000060448201526064015b60405180910390fd5b6000818152602081905260408082208290555182917fb9e622395e3bd0e793c5448e9c44434069fc36c8904b50ab65bca22b05d425e691a250565b6000336040805160208101859052908101869052606082811b6bffffffffffffffffffffffff191690820181905260748201529091506000906088016040516020818303038152906040528051906020012060001c905061057781836040518060a00160405280866001600160a01b03168152602001866001600160a01b031681526020018981526020018863ffffffff16815260200187815250611338565b5050505050565b60006105a87fb53127684a568b3173ae13b9f8a6016e243e63b6e8ee1178d6a717850b5d61035490565b90506001600160a01b0381166105e7576001600160a01b037fb53127684a568b3173ae13b9f8a6016e243e63b6e8ee1178d6a717850b5d6103556105fc565b336001600160a01b038216146105fc57600080fd5b60055463ffffffff166106e0576040805160808082018352601080835260208084018290528385018290526060938401829052600580547fffffffffffffffffffffffffffffffff00000000000000000000000000000000166c100000001000000010000000101790819055855192835263ffffffff64010000000082048116928401929092526801000000000000000081048216838701526c010000000000000000000000009004169281019290925281018c905290517f3086e986d6b4ec35754cd5a19b964d1012b58b3584a51a321d0fb693ae4cfcd99160a0908290030190a15b505050505050505050505050565b6040805160c081018252600080825260208201819052918101829052606081018290526080810182905260a08101919091526040805161010081018252600080825260208201819052918101829052606081018290526080810182905260a0810182905260c0810182905260e081019190915260008381526020819052604081208054909150600090819061078f90600160c01b900463ffffffff16611678565b6040805160c08101825286546001600160a01b038116825263ffffffff600160a01b8204811660208085019190915281861684860152600160e01b909204166060830152841515608083015260008b81526007909152919091205460a0820152965090925090506107ff86611697565b9350505050915091565b33610815818385611812565b6040517f23b872dd0000000000000000000000000000000000000000000000000000000081526001600160a01b038281166004830152306024830152604482018490527f000000000000000000000000000000000000000000000000000000000000000016906323b872dd90606401602060405180830381600087803b15801561089e57600080fd5b505af11580156108b2573d6000803e3d6000fd5b505050506040513d601f19601f820116820180604052508101906108d691906154b6565b50505050565b8160a082013560208301356108f760808501606086016154d3565b61090760a08601608087016151c7565b60405160200161094794939291909384526020840192909252151560f81b604083015260601b6bffffffffffffffffffffffff1916604182015260550190565b60408051601f198184030181529190528051602090910120823561097160e0850160c086016151c7565b610982610100860160e087016151c7565b6040805160208101959095528401929092526bffffffffffffffffffffffff19606091821b81168285015291901b1660748201526088016040516020818303038152906040528051906020012060001c14610a1f5760405162461bcd60e51b815260206004820152601c60248201527f494e56414c49445f464c4545545f444154415f4f525f534543524554000000006044820152606401610493565b610a3782610a3236849003840184615506565b611935565b5050565b6000336001600160a01b037f00000000000000000000000000000000000000000000000000000000000000001614610ab55760405162461bcd60e51b815260206004820152600d60248201527f494e56414c49445f4552433230000000000000000000000000000000000000006044820152606401610493565b6000610ac383850185614e87565b9050610ad0868683611812565b5060019695505050505050565b6001600160a01b038116600090815260026020526040902054610a378282611a28565b3360008181526003602090815260408083206001600160a01b03871680855290835292819020805460ff19168615159081179091558151908152905184927f17307eab39ab6107e8899845ad3d59bd9653f200f220920489ca2b5937696c31928290030190a3505050565b6000336001600160a01b037f00000000000000000000000000000000000000000000000000000000000000001614610be55760405162461bcd60e51b815260206004820152600d60248201527f494e56414c49445f4552433230000000000000000000000000000000000000006044820152606401610493565b600080610bf4848601866153e4565b91509150610ad0828783611812565b604080516080810182526000808252602082018190529181018290526060818101929092528267ffffffffffffffff811115610c4157610c416154f0565b604051908082528060200260200182016040528015610ca157816020015b6040805160c08101825260008082526020808301829052928201819052606082018190526080820181905260a08201528252600019909201910181610c5f5790505b50915060005b83811015610db5576000610cde868684818110610cc657610cc66155c2565b90506020020135600090815260208190526040902090565b80549091506000908190610cfe90600160c01b900463ffffffff16611678565b6040805160c08101825286546001600160a01b038116825263ffffffff600160a01b82048116602084015280851693830193909352600160e01b900490911660608201528215156080820152919350915060a08101600760008b8b89818110610d6957610d696155c2565b90506020020135815260200190815260200160002054815250868581518110610d9457610d946155c2565b60200260200101819052505050508080610dad906155ee565b915050610ca7565b50506040805160808101825260055463ffffffff80821683526401000000008204811660208401526801000000000000000082048116938301939093526c010000000000000000000000009004909116606082015290939092509050565b600081815260208190526040902080546001600160a01b03848116911614610e7d5760405162461bcd60e51b815260206004820152600960248201527f4e4f545f4f574e455200000000000000000000000000000000000000000000006044820152606401610493565b8054600160a01b900463ffffffff1615610ed95760405162461bcd60e51b815260206004820152600f60248201527f45584954494e475f414c524541445900000000000000000000000000000000006044820152606401610493565b80547fffffffffffffffff00000000ffffffffffffffffffffffffffffffffffffffff16600160a01b4263ffffffff160217815560405182906001600160a01b038516907fb9182e4e152947f1e6691fa0ee6f68f21f607fed825945c270e69995acad805f90600090a3505050565b33610f5660208301836151c7565b6001600160a01b0316816001600160a01b031614610ff85760036000610f7f60208501856151c7565b6001600160a01b039081168252602080830193909352604091820160009081209185168152925290205460ff16610ff85760405162461bcd60e51b815260206004820152601660248201527f4e4f545f415554484f52495a45445f544f5f53454e44000000000000000000006044820152606401610493565b60006080830135604084013561101160208601866151c7565b6040805160208101949094528301919091526bffffffffffffffffffffffff19606091821b8116828401529084901b16607482015260880160408051601f198184030181529190528051602091820120915061106f908401846151c7565b6001600160a01b031661108860408501602086016151c7565b6001600160a01b0316141580156110c057506001600160a01b0382166110b460408501602086016151c7565b6001600160a01b031614155b1561115257600360006110d960408601602087016151c7565b6001600160a01b039081168252602080830193909352604091820160009081209186168152925290205460ff166111525760405162461bcd60e51b815260206004820152601760248201527f4e4f545f415554484f52495a45445f544f5f464c4545540000000000000000006044820152606401610493565b61116b818361116636879003870187615609565b611338565b505050565b6000805b82811015611255576000611193858584818110610cc657610cc66155c2565b80549091506111ae90600160a01b900463ffffffff16611b3a565b156112425780546001600160a01b0387811691161461120f5760405162461bcd60e51b815260206004820152600960248201527f4e4f545f4f574e455200000000000000000000000000000000000000000000006044820152606401610493565b611235858584818110611224576112246155c2565b905060200201358783600080611b85565b61123f908461569e565b92505b508061124d816155ee565b915050611174565b506001600160a01b03841660009081526002602052604081205461127a90839061569e565b90506105778582611a28565b6000828152600160205260408120546001600160a01b0381169163ffffffff600160a01b8304811692600160c01b9004169080806112e560027f00000000000000000000000000000000000000000000000000000000000000006156cc565b6112f59063ffffffff87166156cc565b6000978852600460209081526040808a20928a529190529096205494979396509194505067ffffffffffffffff8084169368010000000000000000900416919050565b60408181015160009081526020819052208054600160a01b900463ffffffff16156113a55760405162461bcd60e51b815260206004820152600b60248201527f504c414e45545f455849540000000000000000000000000000000000000000006044820152606401610493565b805482516001600160a01b039081169116146114035760405162461bcd60e51b815260206004820152600960248201527f4e4f545f4f574e455200000000000000000000000000000000000000000000006044820152606401610493565b60006114608360400151604080517f00000000000000000000000000000000000000000000000000000000000000006020820152908101829052600090606001604051602081830303815290604052805190602001209050919050565b9050600061146d82611d32565b835490915060009081906114989063ffffffff600160c01b8204811691600160e01b90041685611da9565b91509150856060015163ffffffff168163ffffffff1610156114fc5760405162461bcd60e51b815260206004820152601560248201527f535041434553484950535f4e4f545f454e4f55474800000000000000000000006044820152606401610493565b60008061151383858a604001518b60600151612011565b91509150604051806060016040528089602001516001600160a01b031681526020018363ffffffff168152602001896060015163ffffffff16815250600160008c815260200190815260200160002060008201518160000160006101000a8154816001600160a01b0302191690836001600160a01b0316021790555060208201518160000160146101000a81548163ffffffff021916908363ffffffff16021790555060408201518160000160186101000a81548163ffffffff021916908363ffffffff160217905550905050876040015188602001516001600160a01b031689600001516001600160a01b03167fa069887d9311acae9fe31657a1cc64ab2f9d55b74319d0193094208f946a0e778c8e8d606001518760405161166494939291906001600160a01b03949094168452602084019290925263ffffffff908116604084015216606082015260800190565b60405180910390a450505050505050505050565b638000000081811681149060009061169090846156e0565b9050915091565b60408051610100810182526000808252602080830182905282840182905260608084018390526080840183905260a0840183905260c0840183905260e084019290925283517f00000000000000000000000000000000000000000000000000000000000000008183015280850186905284518082038601815292019093528051920191909120611726816121a4565b6117725760405162461bcd60e51b815260206004820152601a60248201527f6e6f20706c616e657420696e2074686973206c6f636174696f6e0000000000006044820152606401610493565b60008061177e836121c0565b915091506040518061010001604052808360000b81526020018260000b81526020016117a9856121f4565b61ffff1681526020016117bb85611d32565b61ffff1681526020016117cd856122a5565b61ffff1681526020016117df85612316565b61ffff1681526020016117f18561236c565b61ffff168152602001611803856123dd565b61ffff16905295945050505050565b604080517f000000000000000000000000000000000000000000000000000000000000000060208083019190915281830184905282518083038401815260609092019092528051910120670de0b6b3a764000061186e826121f4565b61ffff1661187c9190615703565b83146118ca5760405162461bcd60e51b815260206004820152600e60248201527f494e56414c49445f414d4f554e540000000000000000000000000000000000006044820152606401610493565b60006118d785848461244e565b90506118e2836128a0565b6040805163ffffffff831681526020810186905284916001600160a01b038816917f5a2bd9d3c37a402271eaa8b4cd01a1a65831589c630b4b8ab1967eca76c0412c910160405180910390a35050505050565b6000828152600160209081526040808320815160608101835290546001600160a01b038116825263ffffffff600160a01b8204811694830194909452600160c01b900490921690820152908061198b8385612c6a565b9150915060006119aa8560200151600090815260208190526040902090565b6040805160808101825291546001600160a01b038116835263ffffffff600160a01b8204811660208501819052600160c01b8304821693850193909352600160e01b909104166060830152909150611a209087908390611a0990611b3a565b611a14578351611a17565b60005b87898888612d20565b505050505050565b611a33826000612db3565b6040517fa9059cbb0000000000000000000000000000000000000000000000000000000081526001600160a01b038381166004830152602482018390527f0000000000000000000000000000000000000000000000000000000000000000169063a9059cbb90604401602060405180830381600087803b158015611ab657600080fd5b505af1158015611aca573d6000803e3d6000fd5b505050506040513d601f19601f82011682018060405250810190611aee91906154b6565b610a375760405162461bcd60e51b815260206004820152600f60248201527f4641494c45445f5452414e5346455200000000000000000000000000000000006044820152606401610493565b6000808263ffffffff16118015611b7f5750611b7c7f000000000000000000000000000000000000000000000000000000000000000063ffffffff841661569e565b42115b92915050565b604080517f0000000000000000000000000000000000000000000000000000000000000000602080830191909152818301889052825180830384018152606090920190925280519101206000906000670de0b6b3a7640000611be6836121f4565b61ffff16611bf49190615703565b905087876001600160a01b03167f1c363b29828a892b7cddafe9583ef52e0d5aca0ea7011bda6ccf039e1781f73883604051611c3291815260200190565b60405180910390a36000888152600760205260409020548015611cb7576001600160a01b03881660008181526008602090815260408083208584528252808320805460ff191660011790558c835260079091528082208290555183928c9290917f74f110a1e0cd4892234c7ba49df9f8a354cd8d29b272f7557c9b8c3c38a653369190a45b50855463ffffffff858116600160c01b027fffffffff00000000ffffffffffffffffffffffffffffffffffffffffffffffff42909216600160e01b027bffffffff0000000000000000000000000000000000000000000000009093166001600160a01b03891617929092171617865591505095945050505050565b6000611d3d826121a4565b611d7d5760405162461bcd60e51b8152602060048201526011602482015270504c414e45545f4e4f545f45584953545360781b6044820152606401610493565b611b7f82600c7f0708083409600a8c0bb80ce40e100e100e100e101068151819c81e7823282ee0612e0c565b600080611db585611678565b90925090506000611dcb60016380000000615722565b63ffffffff1690506000611ddf8642615747565b905063ffffffff83167f000000000000000000000000000000000000000000000000000000000000000015611f8157600080610e10611e4261ffff8a167f0000000000000000000000000000000000000000000000000000000000000000615703565b611e4c91906156cc565b611e7c9063ffffffff7f00000000000000000000000000000000000000000000000000000000000000001661569e565b9050808663ffffffff161115611eda57610e10611e9b85610708615703565b611ea591906156cc565b9150611eb78163ffffffff8816615747565b821115611ed157611ece8163ffffffff8816615747565b91505b60009450611eed565b611eea63ffffffff871682615747565b94505b8615611f5c576000610e1063ffffffff7f000000000000000000000000000000000000000000000000000000000000000016611f2d61ffff8c1688615703565b611f379190615703565b611f4191906156cc565b905085811115611f4e5750845b611f58818561569e565b9350505b82821115611f6d5760009250611f7a565b611f778284615747565b92505b5050611fe0565b8415611fe057610e1063ffffffff7f000000000000000000000000000000000000000000000000000000000000000016611fbf61ffff891685615703565b611fc99190615703565b611fd391906156cc565b611fdd908261569e565b90505b6380000000811061200357611ffa60016380000000615722565b63ffffffff1690505b809350505050935093915050565b60008281526020819052604081208190600061204e60027f00000000000000000000000000000000000000000000000000000000000000006156cc565b61205890426156cc565b600087815260046020908152604080832084845290915290205490915067ffffffffffffffff1661208f63ffffffff87168261575e565b90508563ffffffff168167ffffffffffffffff1610156120f15760405162461bcd60e51b815260206004820152600860248201527f4f564552464c4f570000000000000000000000000000000000000000000000006044820152606401610493565b60008781526004602090815260408083208584529091529020805467ffffffffffffffff191667ffffffffffffffff8316179055429450612132868a615722565b935061213e8885612e86565b835477ffffffffffffffffffffffffffffffffffffffffffffffff16600160c01b63ffffffff928316027bffffffffffffffffffffffffffffffffffffffffffffffffffffffff1617600160e01b91871691909102179092555091969095509350505050565b60006121b38260346010612eac565b60ff166001149050919050565b6000806121cf83826003612eac565b6121da90600161578a565b91506121e98360026003612eac565b61169090600161578a565b60006121ff826121a4565b61223f5760405162461bcd60e51b8152602060048201526011602482015270504c414e45545f4e4f545f45584953545360781b6044820152606401610493565b600061224c83600c612ec9565b905060ff81167e060008000a000c000e0010001200140014001600180020002800300038004861227d8260026157ec565b612288906001615816565b61ffff166020811061229c5761229c6155c2565b1a949350505050565b60006122b0826121a4565b6122f05760405162461bcd60e51b8152602060048201526011602482015270504c414e45545f4e4f545f45584953545360781b6044820152606401610493565b6122fb826014612ec9565b61230a9060ff166101906157ec565b611b7f90610fa0615816565b6000612321826121a4565b6123615760405162461bcd60e51b8152602060048201526011602482015270504c414e45545f4e4f545f45584953545360781b6044820152606401610493565b6122fb82601c612ec9565b6000612377826121a4565b6123b75760405162461bcd60e51b8152602060048201526011602482015270504c414e45545f4e4f545f45584953545360781b6044820152606401610493565b6123c2826024612ec9565b6123d19060ff1661014d6157ec565b611b7f9061138d615816565b60006123e8826121a4565b6124285760405162461bcd60e51b8152602060048201526011602482015270504c414e45545f4e4f545f45584953545360781b6044820152606401610493565b61243382602c612ec9565b6124429060ff16610bb86157ec565b611b7f90613a98615816565b600082815260208190526040812081906040805160808101825282546001600160a01b038116825263ffffffff600160a01b820481166020840152600160c01b82048116938301849052600160e01b90910416606082018190529293509160009182916124c491906124bf89611d32565b611da9565b91509150600080846060015163ffffffff16600014156124f2576124e7886123dd565b61ffff169050612626565b602085015163ffffffff16156125645761250f8560200151611b3a565b61255b5760405162461bcd60e51b815260206004820152600d60248201527f5354494c4c5f45584954494e47000000000000000000000000000000000000006044820152606401610493565b60019150612626565b83156125b25760405162461bcd60e51b815260206004820152600c60248201527f5354494c4c5f41435449564500000000000000000000000000000000000000006044820152606401610493565b896001600160a01b031685600001516001600160a01b031614806125da575063ffffffff8316155b6126265760405162461bcd60e51b815260206004820152600860248201527f4f434355504945440000000000000000000000000000000000000000000000006044820152606401610493565b811561266f577f0000000000000000000000000000000000000000000000000000000000000000925061266a898660000151888d612665600189612e86565b612f63565b612892565b85547fffffffffffffffffffffffff0000000000000000000000000000000000000000166001600160a01b038b1617865563ffffffff8116156127ff5760006360916f80421115612708576127007f000000000000000000000000000000000000000000000000000000000000000063ffffffff168363ffffffff166127106126f78d612316565b61ffff16612fa4565b509050612752565b61274e7f000000000000000000000000000000000000000000000000000000000000000063ffffffff168363ffffffff166127106127458d612316565b61ffff16613145565b5090505b7f000000000000000000000000000000000000000000000000000000000000000063ffffffff168163ffffffff16106127cd5760405162461bcd60e51b815260206004820152600f60248201527f4641494c45445f434150545552454400000000000000000000000000000000006044820152606401610493565b6127f7817f0000000000000000000000000000000000000000000000000000000000000000615722565b93505061282c565b6128297f000000000000000000000000000000000000000000000000000000000000000084615833565b92505b612837600184612e86565b865477ffffffffffffffffffffffffffffffffffffffffffffffff16600160c01b63ffffffff928316027bffffffffffffffffffffffffffffffffffffffffffffffffffffffff1617600160e01b4292909216919091021786555b509098975050505050505050565b604080516080808201835260055463ffffffff80821684526401000000008204811660208501526801000000000000000082048116948401949094526c0100000000000000000000000090049092166060820152906fffffffffffffffffffffffffffffffff8316600f0b9083901d6000808312156129c457835163ffffffff1661292a84615852565b13156129785760405162461bcd60e51b815260206004820152601660248201527f4e4f545f524541434841424c455f5945545f4d494e58000000000000000000006044820152606401610493565b600861298384615852565b61298d919061588b565b925063ffffffff8313156129a35763ffffffff92505b835163ffffffff168313156129bf575063ffffffff8216835260015b612a67565b836020015163ffffffff16831315612a1e5760405162461bcd60e51b815260206004820152601660248201527f4e4f545f524541434841424c455f5945545f4d415858000000000000000000006044820152606401610493565b612a2960088461588b565b925063ffffffff831315612a3f5763ffffffff92505b8263ffffffff16846020015163ffffffff161015612a67575063ffffffff8216602084015260015b6000821215612b2457604084015163ffffffff16612a8483615852565b1315612ad25760405162461bcd60e51b815260206004820152601660248201527f4e4f545f524541434841424c455f5945545f4d494e59000000000000000000006044820152606401610493565b6008612add83615852565b612ae7919061588b565b915063ffffffff821315612afd5763ffffffff91505b81846040015163ffffffff161215612b1f575063ffffffff8116604084015260015b612bc1565b836060015163ffffffff16821315612b7e5760405162461bcd60e51b815260206004820152601660248201527f4e4f545f524541434841424c455f5945545f4d415859000000000000000000006044820152606401610493565b612b8960088361588b565b915063ffffffff821315612b9f5763ffffffff91505b81846060015163ffffffff161215612bc1575063ffffffff8116606084015260015b80156105775783516005805460208701516040880151606089015163ffffffff9081166c01000000000000000000000000027fffffffffffffffffffffffffffffffff00000000ffffffffffffffffffffffff9282166801000000000000000002929092166fffffffffffffffff0000000000000000199382166401000000000267ffffffffffffffff1990951691909616179290921716929092179190911790555050505050565b6040820151600063ffffffff8216612cc45760405162461bcd60e51b815260206004820152601260248201527f464c4545545f444f5f4e4f545f455849535400000000000000000000000000006044820152606401610493565b612cd78284600001518660200151613275565b9150818460400151612ce99190615722565b9050612d0283604001518460000151856020015161339c565b612d198360400151846000015186602001516135b8565b9250929050565b600080612d3d8660000151868a896020015163ffffffff16613752565b915091506000612d5a8787600001518b896020015187878b613e82565b9050612d7387600001518b8a896020015187868a613ef1565b5050506000968752505060016020525050604090922080547fffffffff00000000ffffffffffffffffffffffffffffffffffffffffffffffff1690555050565b6001600160a01b03821660008181526002602052604090819020839055517f4d135695228631e73b5a31e6fc8af4e5825cde63774c3c48695b4af814d7b01990612e009084815260200190565b60405180910390a25050565b600080612e198585612ec9565b905082612e278260026158ff565b612e32906001615928565b60ff1660208110612e4557612e456155c2565b1a83612e528360026158ff565b60ff1660208110612e6557612e656155c2565b612e7391901a6101006157ec565b612e7d9190615816565b95945050505050565b60008183612e95576000612e9b565b63800000005b612ea59190615833565b9392505050565b6000612ec160ff80841690851686901c61594d565b949350505050565b600080612ed884846040612eac565b90506000612ee7600283615961565b90506000612ef6600284615983565b905060007f01223334444555555666666677777777888888889999999aaaaaabbbbcccddef60ff841660208110612f2f57612f2f6155c2565b1a905060ff8216612f4d5760048160ff16901c945050505050611b7f565b612f58601082615983565b945050505050611b7f565b6000612f728686868686611b85565b6001600160a01b038616600090815260026020526040902054909150611a20908690612f9f90849061569e565b612db3565b600080851580612fb2575084155b15612fc25750600090508061313c565b600085612fef887f0000000000000000000000000000000000000000000000000000000000000000615703565b612ff991906156cc565b6130267f0000000000000000000000000000000000000000000000000000000000000000620f4240615747565b613030919061569e565b61303a9088615703565b90506000620f42408561304d8885615703565b61305791906156cc565b61306191906156cc565b90508087111561307657879350809250613139565b6000886130a3897f0000000000000000000000000000000000000000000000000000000000000000615703565b6130ad91906156cc565b6130da7f0000000000000000000000000000000000000000000000000000000000000000620f4240615747565b6130e4919061569e565b6130ee9089615703565b90506000620f4240886131018985615703565b61310b91906156cc565b61311591906156cc565b63ffffffff1690508981106131325761312f60018b615747565b90505b9450879350505b50505b94509492505050565b600080851580613153575084155b156131635750600090508061313c565b600061316f8588615703565b9050600061317d8588615703565b9050600082613190896305f5e100615703565b61319a91906156cc565b90506131aa886305f5e100615703565b6131b48483615703565b10156131c857806131c4816155ee565b9150505b6000826131d98b6305f5e100615703565b6131e391906156cc565b90506131f38a6305f5e100615703565b6131fd8483615703565b1015613211578061320d816155ee565b9150505b600061321d8383613fa6565b90506132416305f5e1006132318684615703565b61323b91906156cc565b8c613fa6565b96506132656305f5e1006132558784615703565b61325f91906156cc565b8b613fa6565b9550505050505094509492505050565b6000806132a360027f00000000000000000000000000000000000000000000000000000000000000006156cc565b6132b39063ffffffff85166156cc565b600085815260046020908152604080832084845290915290205490915068010000000000000000900467ffffffffffffffff1663ffffffff8616811015613335576132fe8187615722565b6000868152600460209081526040808320868452909152902080546fffffffffffffffff0000000000000000191690559550613392565b6000955061334386826159a5565b60008681526004602090815260408083208684529091529020805467ffffffffffffffff9290921668010000000000000000026fffffffffffffffff0000000000000000199092169190911790555b5093949350505050565b6000806133fe6133f985604080517f00000000000000000000000000000000000000000000000000000000000000006020820152908101829052600090606001604051602081830303815290604052805190602001209050919050565b6121c0565b9150915060008061345f6133f986604080517f00000000000000000000000000000000000000000000000000000000000000006020820152908101829052600090606001604051602081830303815290604052805190602001209050919050565b90925090506000600284820b61347a60808a901c60046159c6565b6134849190615a6d565b600084900b61349860808a901c60046159c6565b6134a29190615a6d565b6134ac9190615ace565b6134b69190615cc2565b6002600087900b6134da6fffffffffffffffffffffffffffffffff8b1660046159c6565b6134e49190615a6d565b600086900b6135066fffffffffffffffffffffffffffffffff8b1660046159c6565b6135109190615a6d565b61351a9190615ace565b6135249190615cc2565b61352e9190615a6d565b600f0b90508061353f60028a615d63565b111580156135625750600261355589600161569e565b61355f9190615d63565b81105b6135ae5760405162461bcd60e51b815260206004820152600e60248201527f77726f6e672064697374616e63650000000000000000000000000000000000006044820152606401610493565b5050505050505050565b604080517f00000000000000000000000000000000000000000000000000000000000000006020808301919091528183018590528251808303840181526060909201909252805191012060009061360e9061236c565b61ffff1661363e7f0000000000000000000000000000000000000000000000000000000000000000612710615703565b6136489086615703565b61365291906156cc565b6136629063ffffffff841661569e565b9050804210156136b45760405162461bcd60e51b815260206004820152600960248201527f746f6f206561726c7900000000000000000000000000000000000000000000006044820152606401610493565b6136de7f00000000000000000000000000000000000000000000000000000000000000008261569e565b42106108d65760405162461bcd60e51b815260206004820152602b60248201527f746f6f206c6174652c20796f7572207370616365736869707320617265206c6f60448201527f737420696e2073706163650000000000000000000000000000000000000000006064820152608401610493565b815160009081906001600160a01b03166137715750600090508061313c565b856001600160a01b031684600001516001600160a01b0316141561379b575060019050600061313c565b846060015115613c205760808501516001600160a01b031615806137d8575083600001516001600160a01b031685608001516001600160a01b0316145b156138c257835160405163df2c0f4960e01b81526001600160a01b0388811660048301529182166024820152604481018590526000917f0000000000000000000000000000000000000000000000000000000000000000169063df2c0f4990606401604080518083038186803b15801561385157600080fd5b505afa158015613865573d6000803e3d6000fd5b505050506040513d601f19601f820116820180604052508101906138899190615d8e565b9150506001816bffffffffffffffffffffffff16600014806138b8575084826bffffffffffffffffffffffff16115b925092505061313c565b60808501516001600160a01b031660011415613a4257835160405163df2c0f4960e01b81526001600160a01b0388811660048301529182166024820152604481018590526000917f0000000000000000000000000000000000000000000000000000000000000000169063df2c0f4990606401604080518083038186803b15801561394c57600080fd5b505afa158015613960573d6000803e3d6000fd5b505050506040513d601f19601f820116820180604052508101906139849190615d8e565b9150506361c2f028841080156139a657506bffffffffffffffffffffffff8116155b80156139ce575073b006c644258e01b437eff06e16e56e938a2397126001600160a01b038816145b8015613a1e575084516001600160a01b0316739dab5a6393eef78eb36cd84bb9bbb055189429a51480613a1e575084516001600160a01b031673f8b109af18cfa614bef1c2899e522d77b3c64c14145b15613a265750425b6bffffffffffffffffffffffff1680151592508310905061313c565b600185608001516001600160a01b03161115613c1b57835160808601516040517f4ed2986d0000000000000000000000000000000000000000000000000000000081526001600160a01b03928316600482015290821660248201526000917f00000000000000000000000000000000000000000000000000000000000000001690634ed2986d90604401604080518083038186803b158015613ae357600080fd5b505afa158015613af7573d6000803e3d6000fd5b505050506040513d601f19601f82011682018060405250810190613b1b9190615dc3565b5090506bffffffffffffffffffffffff811615613c1957845160405163df2c0f4960e01b81526001600160a01b0389811660048301529182166024820152604481018690526000917f0000000000000000000000000000000000000000000000000000000000000000169063df2c0f49906064015b604080518083038186803b158015613ba757600080fd5b505afa158015613bbb573d6000803e3d6000fd5b505050506040513d601f19601f82011682018060405250810190613bdf9190615d8e565b9150506001816bffffffffffffffffffffffff1660001480613c0e575085826bffffffffffffffffffffffff16115b93509350505061313c565b505b61313c565b60808501516001600160a01b031660011415613d0157835160405163df2c0f4960e01b81526001600160a01b0388811660048301529182166024820152604481018590526000917f0000000000000000000000000000000000000000000000000000000000000000169063df2c0f4990606401604080518083038186803b158015613caa57600080fd5b505afa158015613cbe573d6000803e3d6000fd5b505050506040513d601f19601f82011682018060405250810190613ce29190615d8e565b6bffffffffffffffffffffffff1680151594508510925061313c915050565b600185608001516001600160a01b0316118015613d38575083600001516001600160a01b031685608001516001600160a01b031614155b1561313c57835160808601516040517f4ed2986d0000000000000000000000000000000000000000000000000000000081526001600160a01b03928316600482015290821660248201526000917f00000000000000000000000000000000000000000000000000000000000000001690634ed2986d90604401604080518083038186803b158015613dc857600080fd5b505afa158015613ddc573d6000803e3d6000fd5b505050506040513d601f19601f82011682018060405250810190613e009190615dc3565b5090506bffffffffffffffffffffffff8116613e7857845160405163df2c0f4960e01b81526001600160a01b0389811660048301529182166024820152604481018690526000917f0000000000000000000000000000000000000000000000000000000000000000169063df2c0f4990606401613b90565b5094509492505050565b6040805160a0810182526000808252602082018190529181018290526060810182905260808101919091528315613ed057613ec98860000151878785878d60200151613fbd565b9050613ee6565b613ec988600001518960200151898989876141ca565b979650505050505050565b846001600160a01b0316876001600160a01b0316877f606ed05ee5450c129097ad509fc76dd97bde7b9bfc9a935df4671051779e0eb0878787602001518860400151888a600001518b606001518c60800151604051613f95989796959493929190978852951515602088015263ffffffff948516604088015292841660608701529083166080860152821660a0850152151560c08401521660e08201526101000190565b60405180910390a450505050505050565b600081831115613fb65781612ea5565b5090919050565b6040805160a0810182526000808252602080830182905292820181905260608201819052608082015290860151613ff390611b3a565b156140435785516001600160a01b03811661400b5750865b8651600087815260208190526040902061403b91889163ffffffff8916614033576000614035565b845b89614346565b9150506141c0565b821561407b5761271061405e6109c463ffffffff8716615703565b61406891906156cc565b6140789063ffffffff8616615747565b93505b604080517f00000000000000000000000000000000000000000000000000000000000000006020808301919091528183018890528251808303840181526060909201909252805191012060006140d082611d32565b90506000806140ee8a604001518b6060015163ffffffff1685611da9565b909250905060006140ff8983615833565b63ffffffff1690506380000000811061412a5761412160016380000000615722565b63ffffffff1690505b60008a815260208190526040902080547bffffffffffffffffffffffffffffffffffffffffffffffffffffffff16600160e01b4263ffffffff16021790556141728382612e86565b60008b815260208190526040902080547fffffffff00000000ffffffffffffffffffffffffffffffffffffffffffffffff16600160c01b63ffffffff93841602179055166080860152505050505b9695505050505050565b6040805160a081018252600080825260208201819052918101829052606081018290526080810191909152606084015163ffffffff1661425c57604080517f00000000000000000000000000000000000000000000000000000000000000006020808301919091528183018690528251808303840181526060909201909252805191012061403b8888888785886143b2565b6142698460200151611b3a565b15614292578351600084815260208190526040902061428b9185918a86614346565b90506141c0565b604080517f00000000000000000000000000000000000000000000000000000000000000006020808301829052828401879052835180840385018152606084018552805190820120608084019290925260a08084018a90528451808503909101815260c09093019093528151919092012060009061430f906122a5565b9050600061431c83612316565b9050600061432984611d32565b905061433b8b8b85858c8c878d6145d8565b9450505050506141c0565b6040805160a08101825260008082526020820181905291810182905260608101829052608081019190915261439486868660008663ffffffff161161438c57600061438e565b865b86612f63565b63ffffffff9091166080820181905215156060820152949350505050565b6040805160a0810182526000808252602080830182905282840182905260608084018390526080840183905284517f0000000000000000000000000000000000000000000000000000000000000000818401528086018a90528551808203870181529101909452835193019290922090919061442d906122a5565b9050600061443a85612316565b90506000614447866123dd565b90506000806360916f808b63ffffffff1611156144865761447c8763ffffffff168461ffff168761ffff168761ffff16612fa4565b90925090506144aa565b6144a48763ffffffff168461ffff168761ffff168761ffff16613145565b90925090505b63ffffffff8083166020880152811661ffff84161480156144d657508163ffffffff168763ffffffff16115b156145c9576144e58288615722565b63ffffffff16608087018190526144fe90600090612e86565b6000808b815260200190815260200160002060000160186101000a81548163ffffffff021916908363ffffffff160217905550426000808b8152602001908152602001600020600001601c6101000a81548163ffffffff021916908363ffffffff1602179055508b6000808b815260200190815260200160002060000160006101000a8154816001600160a01b0302191690836001600160a01b0316021790555080866040019063ffffffff16908163ffffffff168152505060018660600190151590811515815250505b50505050509695505050505050565b6040805160a08101825260008082526020820181905291810182905260608101829052608081018290529061460e868686614716565b9050806040015163ffffffff166000148015614630575060008363ffffffff16115b156146f757600085815260208190526040902080547fffffffffffffffff000000000000000000000000000000000000000000000000166001600160a01b038c1617905580516146809084612e86565b6000868152602081905260409020805477ffffffffffffffffffffffffffffffffffffffffffffffff16600160c01b63ffffffff938416027bffffffffffffffffffffffffffffffffffffffffffffffffffffffff1617600160e01b4284160217905560016060840152831660808301525061470a565b614706818b8b88878d8d6147cf565b9150505b98975050505050505050565b6040805160e081018252600080825260208201819052918101829052606081018290526080810182905260a0810182905260c081019190915260008061476b8660400151876060015163ffffffff1686611da9565b915091506000806000806000614781868b614d6c565b9a15158c5263ffffffff998a1660208d01529290981660408b015267ffffffffffffffff90811660608b015296871660808a0152861660a089015250505050911660c0830152509392505050565b6040805160a081018252600080825260208201819052918101829052606081018290526080810182905290806360916f8063ffffffff8916111561483b576148318663ffffffff168b6040015163ffffffff168761ffff168761ffff16612fa4565b9092509050614865565b61485f8663ffffffff168b6040015163ffffffff168761ffff168761ffff16613145565b90925090505b63ffffffff80831660208086019190915282821660408601819052908c01519091161015614c0e5760208a015161489c9082615722565b63ffffffff90811680855260208c0151909116604085015260608b015167ffffffffffffffff161061491f57826000015163ffffffff168a6060018181516148e491906159a5565b67ffffffffffffffff16905250825160808b01805163ffffffff9092169161490d90839061575e565b67ffffffffffffffff169052506149f5565b89606001518a608001818151614935919061575e565b67ffffffffffffffff1690525060608a0151835160009161495b9163ffffffff166159a5565b90508067ffffffffffffffff168b60a0015167ffffffffffffffff16106149c157808b60a00181815161498e91906159a5565b67ffffffffffffffff1690525060c08b0180518291906149af90839061575e565b67ffffffffffffffff169052506149ec565b8a60a001518b60c0018181516149d7919061575e565b67ffffffffffffffff16905250600060a08c01525b50600060608b01525b60608a01516000888152600460205260408120906001614a3660027f00000000000000000000000000000000000000000000000000000000000000006156cc565b614a4090426156cc565b614a4a9190615747565b815260208082019290925260409081016000908120805467ffffffffffffffff191667ffffffffffffffff959095169490941790935560808d01518a84526004909252822090916001614abe60027f00000000000000000000000000000000000000000000000000000000000000006156cc565b614ac890426156cc565b614ad29190615747565b815260200190815260200160002060000160086101000a81548167ffffffffffffffff021916908367ffffffffffffffff1602179055508960a0015160046000898152602001908152602001600020600060027f0000000000000000000000000000000000000000000000000000000000000000614b5091906156cc565b614b5a90426156cc565b815260208082019290925260409081016000908120805467ffffffffffffffff191667ffffffffffffffff959095169490941790935560c08d01518a8452600490925282209091614bcc60027f00000000000000000000000000000000000000000000000000000000000000006156cc565b614bd690426156cc565b815260200190815260200160002060000160086101000a81548167ffffffffffffffff021916908367ffffffffffffffff1602179055505b60008663ffffffff16118015614c375750896020015163ffffffff16836040015163ffffffff16145b15614d1757614c468287615722565b63ffffffff166080840190815260016060850152600088815260208190526040902080547fffffffffffffffff000000000000000000000000000000000000000000000000166001600160a01b038c161790558a519051614ca79190612e86565b6000888152602081905260409020805477ffffffffffffffffffffffffffffffffffffffffffffffff16600160c01b63ffffffff938416027bffffffffffffffffffffffffffffffffffffffffffffffffffffffff1617600160e01b429390931692909202919091179055614d5f565b8563ffffffff16836020015163ffffffff161415614d5757808a60200151614d3f9190615722565b63ffffffff16608084018190528a51614ca791612e86565b614d5f615def565b5050979650505050505050565b81600080808080614d9e60027f00000000000000000000000000000000000000000000000000000000000000006156cc565b614da890426156cc565b6000888152600460205260408120919250614dc4600184615747565b815260208082019290925260409081016000908120548a8252600490935290812067ffffffffffffffff9092169650614dfe600184615747565b815260208082019290925260409081016000908120548a825260048452828220858352909352205467ffffffffffffffff91821695508181169450680100000000000000009004169150614e7a63ffffffff8716614e5c858861575e565b614e66919061575e565b67ffffffffffffffff1663ffffffff613fa6565b9550509295509295909350565b600060208284031215614e9957600080fd5b5035919050565b803563ffffffff81168114614eb457600080fd5b919050565b600080600060608486031215614ece57600080fd5b83359250614ede60208501614ea0565b9150604084013590509250925092565b6001600160a01b0381168114614f0357600080fd5b50565b60008060008060008060008060008060006101608c8e031215614f2857600080fd5b8b35614f3381614eee565b9a5060208c0135614f4381614eee565b995060408c01359850614f5860608d01614ea0565b9750614f6660808d01614ea0565b9650614f7460a08d01614ea0565b9550614f8260c08d01614ea0565b9450614f9060e08d01614ea0565b9350614f9f6101008d01614ea0565b9250614fae6101208d01614ea0565b9150614fbd6101408d01614ea0565b90509295989b509295989b9093969950565b6101c0810161502c82856001600160a01b038151168252602081015163ffffffff8082166020850152806040840151166040850152806060840151166060850152505060808101511515608083015260a081015160a08301525050565b8251600090810b60c08401526020840151900b60e0830152604083015161ffff908116610100840152606084015116610120830152608083015161507761014084018261ffff169052565b5060a083015161ffff90811661016084015260c0840151811661018084015260e0909301519092166101a090910152919050565b600080604083850312156150be57600080fd5b50508035926020909101359150565b6000808284036101208112156150e257600080fd5b83359250610100601f19820112156150f957600080fd5b506020830190509250929050565b8035614eb481614eee565b60008083601f84011261512457600080fd5b50813567ffffffffffffffff81111561513c57600080fd5b602083019150836020828501011115612d1957600080fd5b60008060008060006080868803121561516c57600080fd5b853561517781614eee565b9450602086013561518781614eee565b935060408601359250606086013567ffffffffffffffff8111156151aa57600080fd5b6151b688828901615112565b969995985093965092949392505050565b6000602082840312156151d957600080fd5b8135612ea581614eee565b8015158114614f0357600080fd5b6000806040838503121561520557600080fd5b823561521081614eee565b91506020830135615220816151e4565b809150509250929050565b6000806000806060858703121561524157600080fd5b843561524c81614eee565b935060208501359250604085013567ffffffffffffffff81111561526f57600080fd5b61527b87828801615112565b95989497509550505050565b60008083601f84011261529957600080fd5b50813567ffffffffffffffff8111156152b157600080fd5b6020830191508360208260051b8501011115612d1957600080fd5b600080602083850312156152df57600080fd5b823567ffffffffffffffff8111156152f657600080fd5b61530285828601615287565b90969095509350505050565b60a0808252835190820181905260009060c090818401906020808801855b8381101561539d5761538d8583516001600160a01b038151168252602081015163ffffffff8082166020850152806040840151166040850152806060840151166060850152505060808101511515608083015260a081015160a08301525050565b938501939082019060010161532c565b50508294506153d981870188805163ffffffff908116835260208083015182169084015260408083015182169084015260609182015116910152565b505050509392505050565b600080604083850312156153f757600080fd5b823561540281614eee565b946020939093013593505050565b60808101611b7f8284805163ffffffff908116835260208083015182169084015260408083015182169084015260609182015116910152565b600060a0828403121561545b57600080fd5b50919050565b60008060006040848603121561547657600080fd5b833561548181614eee565b9250602084013567ffffffffffffffff81111561549d57600080fd5b6154a986828701615287565b9497909650939450505050565b6000602082840312156154c857600080fd5b8151612ea5816151e4565b6000602082840312156154e557600080fd5b8135612ea5816151e4565b634e487b7160e01b600052604160045260246000fd5b600061010080838503121561551a57600080fd5b6040519081019067ffffffffffffffff8211818310171561554b57634e487b7160e01b600052604160045260246000fd5b8160405283358152602084013560208201526040840135604082015260608401359150615577826151e4565b81606082015261558960808501615107565b608082015260a084013560a08201526155a460c08501615107565b60c08201526155b560e08501615107565b60e0820152949350505050565b634e487b7160e01b600052603260045260246000fd5b634e487b7160e01b600052601160045260246000fd5b6000600019821415615602576156026155d8565b5060010190565b600060a0828403121561561b57600080fd5b60405160a0810181811067ffffffffffffffff8211171561564c57634e487b7160e01b600052604160045260246000fd5b604052823561565a81614eee565b8152602083013561566a81614eee565b60208201526040838101359082015261568560608401614ea0565b6060820152608083013560808201528091505092915050565b600082198211156156b1576156b16155d8565b500190565b634e487b7160e01b600052601260045260246000fd5b6000826156db576156db6156b6565b500490565b600063ffffffff808416806156f7576156f76156b6565b92169190910692915050565b600081600019048311821515161561571d5761571d6155d8565b500290565b600063ffffffff8381169083168181101561573f5761573f6155d8565b039392505050565b600082821015615759576157596155d8565b500390565b600067ffffffffffffffff808316818516808303821115615781576157816155d8565b01949350505050565b60008160000b8360000b60008112817fffffffffffffffffffffffffffffffffffffffffffffffffffffffffffffff80018312811516156157cd576157cd6155d8565b81607f0183138116156157e2576157e26155d8565b5090039392505050565b600061ffff8083168185168183048111821515161561580d5761580d6155d8565b02949350505050565b600061ffff808316818516808303821115615781576157816155d8565b600063ffffffff808316818516808303821115615781576157816155d8565b60007f8000000000000000000000000000000000000000000000000000000000000000821415615884576158846155d8565b5060000390565b6000808212827f7fffffffffffffffffffffffffffffffffffffffffffffffffffffffffffffff038413811516156158c5576158c56155d8565b827f80000000000000000000000000000000000000000000000000000000000000000384128116156158f9576158f96155d8565b50500190565b600060ff821660ff84168160ff0481118215151615615920576159206155d8565b029392505050565b600060ff821660ff84168060ff03821115615945576159456155d8565b019392505050565b60008261595c5761595c6156b6565b500690565b600060ff831680615974576159746156b6565b8060ff84160491505092915050565b600060ff831680615996576159966156b6565b8060ff84160691505092915050565b600067ffffffffffffffff8381169083168181101561573f5761573f6155d8565b600081600f0b83600f0b6f7fffffffffffffffffffffffffffffff6000821360008413838304851182821616156159ff576159ff6155d8565b6f7fffffffffffffffffffffffffffffff196000851286820586128184161615615a2b57615a2b6155d8565b60008712925085820587128484161615615a4757615a476155d8565b85850587128184161615615a5d57615a5d6155d8565b5050509290910295945050505050565b600081600f0b83600f0b60008212826f7fffffffffffffffffffffffffffffff03821381151615615aa057615aa06155d8565b826f7fffffffffffffffffffffffffffffff19038212811615615ac557615ac56155d8565b50019392505050565b600081600f0b83600f0b60008112816f7fffffffffffffffffffffffffffffff1901831281151615615b0257615b026155d8565b816f7fffffffffffffffffffffffffffffff0183138116156157e2576157e26155d8565b600181815b80851115615b61578160001904821115615b4757615b476155d8565b80851615615b5457918102915b93841c9390800290615b2b565b509250929050565b80825b6001808611615b7b5750615bb6565b816f7fffffffffffffffffffffffffffffff04821115615b9d57615b9d6155d8565b80861615615baa57918102915b9490941c938002615b6c565b935093915050565b6000828015615bd45760018114615bde57615be7565b6001915050611b7f565b82915050611b7f565b5081615bf557506000611b7f565b50600160008213808214615c0e578015615c3557615c57565b826f7fffffffffffffffffffffffffffffff04831115615c3057615c306155d8565b615c57565b826f7fffffffffffffffffffffffffffffff05831215615c5757615c576155d8565b5080831615615c635750805b615c738360011c83840283615b69565b806f7fffffffffffffffffffffffffffffff048211600083131615615c9a57615c9a6155d8565b806f7fffffffffffffffffffffffffffffff19058212600083121615615920576159206155d8565b6000612ea560ff841683600f0b615bbe565b600082615ce357506001611b7f565b81615cf057506000611b7f565b8160018114615bd45760028114615d0657615d22565b60ff841115615d1757615d176155d8565b50506001821b611b7f565b5060208310610133831016604e8410600b8410161715615d45575081810a611b7f565b615d4f8383615b26565b8060001904821115615920576159206155d8565b6000612ea560ff841683615cd4565b80516bffffffffffffffffffffffff81168114614eb457600080fd5b60008060408385031215615da157600080fd5b8251615dac81614eee565b9150615dba60208401615d72565b90509250929050565b60008060408385031215615dd657600080fd5b615ddf83615d72565b9150602083015190509250929050565b634e487b7160e01b600052600160045260246000fdfea264697066735822122066b56b69b1628369d057abd895f8d542f16f984ded6386ae255c113dbfe5e04664736f6c63430008090033b53127684a568b3173ae13b9f8a6016e243e63b6e8ee1178d6a717850b5d6103",
  "devdoc": {
    "kind": "dev",
    "methods": {},
    "version": 1
  },
  "userdoc": {
    "kind": "user",
    "methods": {},
    "version": 1
  },
  "storageLayout": {
    "storage": [
      {
        "astId": 15968,
        "contract": "src/OuterSpace.sol:OuterSpace",
        "label": "_planets",
        "offset": 0,
        "slot": "0",
        "type": "t_mapping(t_uint256,t_struct(Planet)16016_storage)"
      },
      {
        "astId": 15973,
        "contract": "src/OuterSpace.sol:OuterSpace",
        "label": "_fleets",
        "offset": 0,
        "slot": "1",
        "type": "t_mapping(t_uint256,t_struct(Fleet)16023_storage)"
      },
      {
        "astId": 15977,
        "contract": "src/OuterSpace.sol:OuterSpace",
        "label": "_stakeReadyToBeWithdrawn",
        "offset": 0,
        "slot": "2",
        "type": "t_mapping(t_address,t_uint256)"
      },
      {
        "astId": 15983,
        "contract": "src/OuterSpace.sol:OuterSpace",
        "label": "_operators",
        "offset": 0,
        "slot": "3",
        "type": "t_mapping(t_address,t_mapping(t_address,t_bool))"
      },
      {
        "astId": 15995,
        "contract": "src/OuterSpace.sol:OuterSpace",
        "label": "_inFlight",
        "offset": 0,
        "slot": "4",
        "type": "t_mapping(t_uint256,t_mapping(t_uint256,t_struct(InFlight)15988_storage))"
      },
      {
        "astId": 16007,
        "contract": "src/OuterSpace.sol:OuterSpace",
        "label": "_discovered",
        "offset": 0,
        "slot": "5",
        "type": "t_struct(Discovered)16004_storage"
      },
      {
        "astId": 16027,
        "contract": "src/OuterSpace.sol:OuterSpace",
        "label": "_prevRewardIds",
        "offset": 0,
        "slot": "6",
        "type": "t_mapping(t_address,t_uint256)"
      },
      {
        "astId": 16031,
        "contract": "src/OuterSpace.sol:OuterSpace",
        "label": "_rewards",
        "offset": 0,
        "slot": "7",
        "type": "t_mapping(t_uint256,t_uint256)"
      },
      {
        "astId": 16037,
        "contract": "src/OuterSpace.sol:OuterSpace",
        "label": "_rewardsToWithdraw",
        "offset": 0,
        "slot": "8",
        "type": "t_mapping(t_address,t_mapping(t_uint256,t_bool))"
      }
    ],
    "types": {
      "t_address": {
        "encoding": "inplace",
        "label": "address",
        "numberOfBytes": "20"
      },
      "t_bool": {
        "encoding": "inplace",
        "label": "bool",
        "numberOfBytes": "1"
      },
      "t_mapping(t_address,t_bool)": {
        "encoding": "mapping",
        "key": "t_address",
        "label": "mapping(address => bool)",
        "numberOfBytes": "32",
        "value": "t_bool"
      },
      "t_mapping(t_address,t_mapping(t_address,t_bool))": {
        "encoding": "mapping",
        "key": "t_address",
        "label": "mapping(address => mapping(address => bool))",
        "numberOfBytes": "32",
        "value": "t_mapping(t_address,t_bool)"
      },
      "t_mapping(t_address,t_mapping(t_uint256,t_bool))": {
        "encoding": "mapping",
        "key": "t_address",
        "label": "mapping(address => mapping(uint256 => bool))",
        "numberOfBytes": "32",
        "value": "t_mapping(t_uint256,t_bool)"
      },
      "t_mapping(t_address,t_uint256)": {
        "encoding": "mapping",
        "key": "t_address",
        "label": "mapping(address => uint256)",
        "numberOfBytes": "32",
        "value": "t_uint256"
      },
      "t_mapping(t_uint256,t_bool)": {
        "encoding": "mapping",
        "key": "t_uint256",
        "label": "mapping(uint256 => bool)",
        "numberOfBytes": "32",
        "value": "t_bool"
      },
      "t_mapping(t_uint256,t_mapping(t_uint256,t_struct(InFlight)15988_storage))": {
        "encoding": "mapping",
        "key": "t_uint256",
        "label": "mapping(uint256 => mapping(uint256 => struct OuterSpace.InFlight))",
        "numberOfBytes": "32",
        "value": "t_mapping(t_uint256,t_struct(InFlight)15988_storage)"
      },
      "t_mapping(t_uint256,t_struct(Fleet)16023_storage)": {
        "encoding": "mapping",
        "key": "t_uint256",
        "label": "mapping(uint256 => struct OuterSpace.Fleet)",
        "numberOfBytes": "32",
        "value": "t_struct(Fleet)16023_storage"
      },
      "t_mapping(t_uint256,t_struct(InFlight)15988_storage)": {
        "encoding": "mapping",
        "key": "t_uint256",
        "label": "mapping(uint256 => struct OuterSpace.InFlight)",
        "numberOfBytes": "32",
        "value": "t_struct(InFlight)15988_storage"
      },
      "t_mapping(t_uint256,t_struct(Planet)16016_storage)": {
        "encoding": "mapping",
        "key": "t_uint256",
        "label": "mapping(uint256 => struct OuterSpace.Planet)",
        "numberOfBytes": "32",
        "value": "t_struct(Planet)16016_storage"
      },
      "t_mapping(t_uint256,t_uint256)": {
        "encoding": "mapping",
        "key": "t_uint256",
        "label": "mapping(uint256 => uint256)",
        "numberOfBytes": "32",
        "value": "t_uint256"
      },
      "t_struct(Discovered)16004_storage": {
        "encoding": "inplace",
        "label": "struct OuterSpace.Discovered",
        "members": [
          {
            "astId": 15997,
            "contract": "src/OuterSpace.sol:OuterSpace",
            "label": "minX",
            "offset": 0,
            "slot": "0",
            "type": "t_uint32"
          },
          {
            "astId": 15999,
            "contract": "src/OuterSpace.sol:OuterSpace",
            "label": "maxX",
            "offset": 4,
            "slot": "0",
            "type": "t_uint32"
          },
          {
            "astId": 16001,
            "contract": "src/OuterSpace.sol:OuterSpace",
            "label": "minY",
            "offset": 8,
            "slot": "0",
            "type": "t_uint32"
          },
          {
            "astId": 16003,
            "contract": "src/OuterSpace.sol:OuterSpace",
            "label": "maxY",
            "offset": 12,
            "slot": "0",
            "type": "t_uint32"
          }
        ],
        "numberOfBytes": "32"
      },
      "t_struct(Fleet)16023_storage": {
        "encoding": "inplace",
        "label": "struct OuterSpace.Fleet",
        "members": [
          {
            "astId": 16018,
            "contract": "src/OuterSpace.sol:OuterSpace",
            "label": "owner",
            "offset": 0,
            "slot": "0",
            "type": "t_address"
          },
          {
            "astId": 16020,
            "contract": "src/OuterSpace.sol:OuterSpace",
            "label": "launchTime",
            "offset": 20,
            "slot": "0",
            "type": "t_uint32"
          },
          {
            "astId": 16022,
            "contract": "src/OuterSpace.sol:OuterSpace",
            "label": "quantity",
            "offset": 24,
            "slot": "0",
            "type": "t_uint32"
          }
        ],
        "numberOfBytes": "32"
      },
      "t_struct(InFlight)15988_storage": {
        "encoding": "inplace",
        "label": "struct OuterSpace.InFlight",
        "members": [
          {
            "astId": 15985,
            "contract": "src/OuterSpace.sol:OuterSpace",
            "label": "flying",
            "offset": 0,
            "slot": "0",
            "type": "t_uint64"
          },
          {
            "astId": 15987,
            "contract": "src/OuterSpace.sol:OuterSpace",
            "label": "destroyed",
            "offset": 8,
            "slot": "0",
            "type": "t_uint64"
          }
        ],
        "numberOfBytes": "32"
      },
      "t_struct(Planet)16016_storage": {
        "encoding": "inplace",
        "label": "struct OuterSpace.Planet",
        "members": [
          {
            "astId": 16009,
            "contract": "src/OuterSpace.sol:OuterSpace",
            "label": "owner",
            "offset": 0,
            "slot": "0",
            "type": "t_address"
          },
          {
            "astId": 16011,
            "contract": "src/OuterSpace.sol:OuterSpace",
            "label": "exitTime",
            "offset": 20,
            "slot": "0",
            "type": "t_uint32"
          },
          {
            "astId": 16013,
            "contract": "src/OuterSpace.sol:OuterSpace",
            "label": "numSpaceships",
            "offset": 24,
            "slot": "0",
            "type": "t_uint32"
          },
          {
            "astId": 16015,
            "contract": "src/OuterSpace.sol:OuterSpace",
            "label": "lastUpdated",
            "offset": 28,
            "slot": "0",
            "type": "t_uint32"
          }
        ],
        "numberOfBytes": "32"
      },
      "t_uint256": {
        "encoding": "inplace",
        "label": "uint256",
        "numberOfBytes": "32"
      },
      "t_uint32": {
        "encoding": "inplace",
        "label": "uint32",
        "numberOfBytes": "4"
      },
      "t_uint64": {
        "encoding": "inplace",
        "label": "uint64",
        "numberOfBytes": "8"
      }
    }
  }
}