{
  "address": "0xf52f9C497A51C0574921D9A207D358c73e893afc",
  "abi": [
    {
      "inputs": [
        {
          "internalType": "contract IERC20",
          "name": "stakingToken",
          "type": "address"
        },
        {
          "internalType": "contract AllianceRegistry",
          "name": "theAllianceRegistry",
          "type": "address"
        },
        {
          "internalType": "bytes32",
          "name": "genesis",
          "type": "bytes32"
        },
        {
          "internalType": "uint32",
          "name": "resolveWindow",
          "type": "uint32"
        },
        {
          "internalType": "uint32",
          "name": "timePerDistance",
          "type": "uint32"
        },
        {
          "internalType": "uint32",
          "name": "exitDuration",
          "type": "uint32"
        },
        {
          "internalType": "uint32",
          "name": "acquireNumSpaceships",
          "type": "uint32"
        },
        {
          "internalType": "uint32",
          "name": "productionSpeedUp",
          "type": "uint32"
        },
        {
          "internalType": "uint32",
          "name": "frontrunningDelay",
          "type": "uint32"
        }
      ],
      "stateMutability": "nonpayable",
      "type": "constructor"
    },
    {
      "anonymous": false,
      "inputs": [
        {
          "indexed": true,
          "internalType": "address",
          "name": "owner",
          "type": "address"
        },
        {
          "indexed": true,
          "internalType": "address",
          "name": "operator",
          "type": "address"
        },
        {
          "indexed": false,
          "internalType": "bool",
          "name": "approved",
          "type": "bool"
        }
      ],
      "name": "ApprovalForAll",
      "type": "event"
    },
    {
      "anonymous": false,
      "inputs": [
        {
          "indexed": true,
          "internalType": "address",
          "name": "owner",
          "type": "address"
        },
        {
          "indexed": true,
          "internalType": "uint256",
          "name": "location",
          "type": "uint256"
        },
        {
          "indexed": false,
          "internalType": "uint256",
          "name": "stake",
          "type": "uint256"
        }
      ],
      "name": "ExitComplete",
      "type": "event"
    },
    {
      "anonymous": false,
      "inputs": [
        {
          "indexed": true,
          "internalType": "uint256",
          "name": "fleet",
          "type": "uint256"
        },
        {
          "indexed": true,
          "internalType": "address",
          "name": "fleetOwner",
          "type": "address"
        },
        {
          "indexed": true,
          "internalType": "address",
          "name": "destinationOwner",
          "type": "address"
        },
        {
          "indexed": false,
          "internalType": "uint256",
          "name": "destination",
          "type": "uint256"
        },
        {
          "indexed": false,
          "internalType": "bool",
          "name": "gift",
          "type": "bool"
        },
        {
          "indexed": false,
          "internalType": "uint32",
          "name": "fleetLoss",
          "type": "uint32"
        },
        {
          "indexed": false,
          "internalType": "uint32",
          "name": "planetLoss",
          "type": "uint32"
        },
        {
          "indexed": false,
          "internalType": "uint32",
          "name": "inFlightFleetLoss",
          "type": "uint32"
        },
        {
          "indexed": false,
          "internalType": "uint32",
          "name": "inFlightPlanetLoss",
          "type": "uint32"
        },
        {
          "indexed": false,
          "internalType": "bool",
          "name": "won",
          "type": "bool"
        },
        {
          "indexed": false,
          "internalType": "uint32",
          "name": "newNumspaceships",
          "type": "uint32"
        }
      ],
      "name": "FleetArrived",
      "type": "event"
    },
    {
      "anonymous": false,
      "inputs": [
        {
          "indexed": true,
          "internalType": "address",
          "name": "fleetSender",
          "type": "address"
        },
        {
          "indexed": true,
          "internalType": "address",
          "name": "fleetOwner",
          "type": "address"
        },
        {
          "indexed": true,
          "internalType": "uint256",
          "name": "from",
          "type": "uint256"
        },
        {
          "indexed": false,
          "internalType": "address",
          "name": "operator",
          "type": "address"
        },
        {
          "indexed": false,
          "internalType": "uint256",
          "name": "fleet",
          "type": "uint256"
        },
        {
          "indexed": false,
          "internalType": "uint32",
          "name": "quantity",
          "type": "uint32"
        },
        {
          "indexed": false,
          "internalType": "uint32",
          "name": "newNumSpaceships",
          "type": "uint32"
        }
      ],
      "name": "FleetSent",
      "type": "event"
    },
    {
      "anonymous": false,
      "inputs": [
        {
          "indexed": true,
          "internalType": "address",
          "name": "owner",
          "type": "address"
        },
        {
          "indexed": true,
          "internalType": "uint256",
          "name": "location",
          "type": "uint256"
        }
      ],
      "name": "PlanetExit",
      "type": "event"
    },
    {
      "anonymous": false,
      "inputs": [
        {
          "indexed": true,
          "internalType": "address",
          "name": "acquirer",
          "type": "address"
        },
        {
          "indexed": true,
          "internalType": "uint256",
          "name": "location",
          "type": "uint256"
        },
        {
          "indexed": false,
          "internalType": "uint32",
          "name": "numSpaceships",
          "type": "uint32"
        },
        {
          "indexed": false,
          "internalType": "uint256",
          "name": "stake",
          "type": "uint256"
        }
      ],
      "name": "PlanetStake",
      "type": "event"
    },
    {
      "anonymous": false,
      "inputs": [
        {
          "indexed": true,
          "internalType": "uint256",
          "name": "location",
          "type": "uint256"
        },
        {
          "indexed": false,
          "internalType": "uint256",
          "name": "rewardId",
          "type": "uint256"
        }
      ],
      "name": "RewardSetup",
      "type": "event"
    },
    {
      "anonymous": false,
      "inputs": [
        {
          "indexed": true,
          "internalType": "address",
          "name": "owner",
          "type": "address"
        },
        {
          "indexed": true,
          "internalType": "uint256",
          "name": "location",
          "type": "uint256"
        },
        {
          "indexed": true,
          "internalType": "uint256",
          "name": "rewardId",
          "type": "uint256"
        }
      ],
      "name": "RewardToWithdraw",
      "type": "event"
    },
    {
      "anonymous": false,
      "inputs": [
        {
          "indexed": true,
          "internalType": "address",
          "name": "owner",
          "type": "address"
        },
        {
          "indexed": false,
          "internalType": "uint256",
          "name": "newStake",
          "type": "uint256"
        }
      ],
      "name": "StakeToWithdraw",
      "type": "event"
    },
    {
      "inputs": [
        {
          "internalType": "uint256",
          "name": "location",
          "type": "uint256"
        },
        {
          "internalType": "uint256",
          "name": "amount",
          "type": "uint256"
        }
      ],
      "name": "acquireViaTransferFrom",
      "outputs": [],
      "stateMutability": "nonpayable",
      "type": "function"
    },
    {
      "inputs": [
        {
          "internalType": "uint256",
          "name": "location",
          "type": "uint256"
        },
        {
          "internalType": "address",
          "name": "sponsor",
          "type": "address"
        }
      ],
      "name": "addReward",
      "outputs": [],
      "stateMutability": "nonpayable",
      "type": "function"
    },
    {
      "inputs": [],
      "name": "allianceRegistry",
      "outputs": [
        {
          "internalType": "contract AllianceRegistry",
          "name": "",
          "type": "address"
        }
      ],
      "stateMutability": "view",
      "type": "function"
    },
    {
      "inputs": [
        {
          "internalType": "address",
          "name": "owner",
          "type": "address"
        }
      ],
      "name": "balanceToWithdraw",
      "outputs": [
        {
          "internalType": "uint256",
          "name": "",
          "type": "uint256"
        }
      ],
      "stateMutability": "view",
      "type": "function"
    },
    {
      "inputs": [
        {
          "internalType": "address",
          "name": "owner",
          "type": "address"
        },
        {
          "internalType": "uint256",
          "name": "location",
          "type": "uint256"
        }
      ],
      "name": "exitFor",
      "outputs": [],
      "stateMutability": "nonpayable",
      "type": "function"
    },
    {
      "inputs": [
        {
          "internalType": "address",
          "name": "owner",
          "type": "address"
        },
        {
          "internalType": "uint256[]",
          "name": "locations",
          "type": "uint256[]"
        }
      ],
      "name": "fetchAndWithdrawFor",
      "outputs": [],
      "stateMutability": "nonpayable",
      "type": "function"
    },
    {
      "inputs": [],
      "name": "getDiscovered",
      "outputs": [
        {
          "components": [
            {
              "internalType": "uint32",
              "name": "minX",
              "type": "uint32"
            },
            {
              "internalType": "uint32",
              "name": "maxX",
              "type": "uint32"
            },
            {
              "internalType": "uint32",
              "name": "minY",
              "type": "uint32"
            },
            {
              "internalType": "uint32",
              "name": "maxY",
              "type": "uint32"
            }
          ],
          "internalType": "struct OuterSpace.Discovered",
          "name": "",
          "type": "tuple"
        }
      ],
      "stateMutability": "view",
      "type": "function"
    },
    {
      "inputs": [
        {
          "internalType": "uint256",
          "name": "fleetId",
          "type": "uint256"
        },
        {
          "internalType": "uint256",
          "name": "from",
          "type": "uint256"
        }
      ],
      "name": "getFleet",
      "outputs": [
        {
          "internalType": "address",
          "name": "owner",
          "type": "address"
        },
        {
          "internalType": "uint32",
          "name": "launchTime",
          "type": "uint32"
        },
        {
          "internalType": "uint32",
          "name": "quantity",
          "type": "uint32"
        },
        {
          "internalType": "uint64",
          "name": "flyingAtLaunch",
          "type": "uint64"
        },
        {
          "internalType": "uint64",
          "name": "destroyedAtLaunch",
          "type": "uint64"
        }
      ],
      "stateMutability": "view",
      "type": "function"
    },
    {
      "inputs": [],
      "name": "getGeneisHash",
      "outputs": [
        {
          "internalType": "bytes32",
          "name": "",
          "type": "bytes32"
        }
      ],
      "stateMutability": "view",
      "type": "function"
    },
    {
      "inputs": [
        {
          "internalType": "uint256",
          "name": "location",
          "type": "uint256"
        }
      ],
      "name": "getPlanet",
      "outputs": [
        {
          "components": [
            {
              "internalType": "address",
              "name": "owner",
              "type": "address"
            },
            {
              "internalType": "uint32",
              "name": "exitTime",
              "type": "uint32"
            },
            {
              "internalType": "uint32",
              "name": "numSpaceships",
              "type": "uint32"
            },
            {
              "internalType": "uint32",
              "name": "lastUpdated",
              "type": "uint32"
            },
            {
              "internalType": "bool",
              "name": "active",
              "type": "bool"
            },
            {
              "internalType": "uint256",
              "name": "reward",
              "type": "uint256"
            }
          ],
          "internalType": "struct OuterSpace.ExternalPlanet",
          "name": "state",
          "type": "tuple"
        },
        {
          "components": [
            {
              "internalType": "int8",
              "name": "subX",
              "type": "int8"
            },
            {
              "internalType": "int8",
              "name": "subY",
              "type": "int8"
            },
            {
              "internalType": "uint16",
              "name": "stake",
              "type": "uint16"
            },
            {
              "internalType": "uint16",
              "name": "production",
              "type": "uint16"
            },
            {
              "internalType": "uint16",
              "name": "attack",
              "type": "uint16"
            },
            {
              "internalType": "uint16",
              "name": "defense",
              "type": "uint16"
            },
            {
              "internalType": "uint16",
              "name": "speed",
              "type": "uint16"
            },
            {
              "internalType": "uint16",
              "name": "natives",
              "type": "uint16"
            }
          ],
          "internalType": "struct OuterSpace.PlanetStats",
          "name": "stats",
          "type": "tuple"
        }
      ],
      "stateMutability": "view",
      "type": "function"
    },
    {
      "inputs": [
        {
          "internalType": "uint256[]",
          "name": "locations",
          "type": "uint256[]"
        }
      ],
      "name": "getPlanetStates",
      "outputs": [
        {
          "components": [
            {
              "internalType": "address",
              "name": "owner",
              "type": "address"
            },
            {
              "internalType": "uint32",
              "name": "exitTime",
              "type": "uint32"
            },
            {
              "internalType": "uint32",
              "name": "numSpaceships",
              "type": "uint32"
            },
            {
              "internalType": "uint32",
              "name": "lastUpdated",
              "type": "uint32"
            },
            {
              "internalType": "bool",
              "name": "active",
              "type": "bool"
            },
            {
              "internalType": "uint256",
              "name": "reward",
              "type": "uint256"
            }
          ],
          "internalType": "struct OuterSpace.ExternalPlanet[]",
          "name": "planetStates",
          "type": "tuple[]"
        },
        {
          "components": [
            {
              "internalType": "uint32",
              "name": "minX",
              "type": "uint32"
            },
            {
              "internalType": "uint32",
              "name": "maxX",
              "type": "uint32"
            },
            {
              "internalType": "uint32",
              "name": "minY",
              "type": "uint32"
            },
            {
              "internalType": "uint32",
              "name": "maxY",
              "type": "uint32"
            }
          ],
          "internalType": "struct OuterSpace.Discovered",
          "name": "discovered",
          "type": "tuple"
        }
      ],
      "stateMutability": "view",
      "type": "function"
    },
    {
      "inputs": [
        {
          "internalType": "address",
          "name": "",
          "type": "address"
        },
        {
          "internalType": "address",
          "name": "forAddress",
          "type": "address"
        },
        {
          "internalType": "uint256",
          "name": "amount",
          "type": "uint256"
        },
        {
          "internalType": "bytes",
          "name": "data",
          "type": "bytes"
        }
      ],
      "name": "onTokenPaidFor",
      "outputs": [
        {
          "internalType": "bool",
          "name": "",
          "type": "bool"
        }
      ],
      "stateMutability": "nonpayable",
      "type": "function"
    },
    {
      "inputs": [
        {
          "internalType": "address",
          "name": "",
          "type": "address"
        },
        {
          "internalType": "uint256",
          "name": "amount",
          "type": "uint256"
        },
        {
          "internalType": "bytes",
          "name": "data",
          "type": "bytes"
        }
      ],
      "name": "onTokenTransfer",
      "outputs": [
        {
          "internalType": "bool",
          "name": "",
          "type": "bool"
        }
      ],
      "stateMutability": "nonpayable",
      "type": "function"
    },
    {
      "inputs": [
        {
          "internalType": "contract IERC20",
          "name": "",
          "type": "address"
        },
        {
          "internalType": "contract AllianceRegistry",
          "name": "",
          "type": "address"
        },
        {
          "internalType": "bytes32",
          "name": "",
          "type": "bytes32"
        },
        {
          "internalType": "uint32",
          "name": "",
          "type": "uint32"
        },
        {
          "internalType": "uint32",
          "name": "",
          "type": "uint32"
        },
        {
          "internalType": "uint32",
          "name": "",
          "type": "uint32"
        },
        {
          "internalType": "uint32",
          "name": "",
          "type": "uint32"
        },
        {
          "internalType": "uint32",
          "name": "",
          "type": "uint32"
        },
        {
          "internalType": "uint32",
          "name": "",
          "type": "uint32"
        }
      ],
      "name": "postUpgrade",
      "outputs": [],
      "stateMutability": "nonpayable",
      "type": "function"
    },
    {
      "inputs": [
        {
          "internalType": "uint256",
          "name": "fleetId",
          "type": "uint256"
        },
        {
          "components": [
            {
              "internalType": "uint256",
              "name": "from",
              "type": "uint256"
            },
            {
              "internalType": "uint256",
              "name": "to",
              "type": "uint256"
            },
            {
              "internalType": "uint256",
              "name": "distance",
              "type": "uint256"
            },
            {
              "internalType": "address",
              "name": "alliance",
              "type": "address"
            },
            {
              "internalType": "bytes32",
              "name": "secret",
              "type": "bytes32"
            },
            {
              "internalType": "address",
              "name": "fleetSender",
              "type": "address"
            },
            {
              "internalType": "address",
              "name": "operator",
              "type": "address"
            }
          ],
          "internalType": "struct OuterSpace.FleetResolution",
          "name": "resolution",
          "type": "tuple"
        }
      ],
      "name": "resolveFleet",
      "outputs": [],
      "stateMutability": "nonpayable",
      "type": "function"
    },
    {
      "inputs": [
        {
          "internalType": "uint256",
          "name": "from",
          "type": "uint256"
        },
        {
          "internalType": "uint32",
          "name": "quantity",
          "type": "uint32"
        },
        {
          "internalType": "bytes32",
          "name": "toHash",
          "type": "bytes32"
        }
      ],
      "name": "send",
      "outputs": [],
      "stateMutability": "nonpayable",
      "type": "function"
    },
    {
      "inputs": [
        {
          "components": [
            {
              "internalType": "address",
              "name": "fleetSender",
              "type": "address"
            },
            {
              "internalType": "address",
              "name": "fleetOwner",
              "type": "address"
            },
            {
              "internalType": "uint256",
              "name": "from",
              "type": "uint256"
            },
            {
              "internalType": "uint32",
              "name": "quantity",
              "type": "uint32"
            },
            {
              "internalType": "bytes32",
              "name": "toHash",
              "type": "bytes32"
            }
          ],
          "internalType": "struct OuterSpace.FleetLaunch",
          "name": "launch",
          "type": "tuple"
        }
      ],
      "name": "sendFor",
      "outputs": [],
      "stateMutability": "nonpayable",
      "type": "function"
    },
    {
      "inputs": [
        {
          "internalType": "address",
          "name": "operator",
          "type": "address"
        },
        {
          "internalType": "bool",
          "name": "approved",
          "type": "bool"
        }
      ],
      "name": "setApprovalForAll",
      "outputs": [],
      "stateMutability": "nonpayable",
      "type": "function"
    },
    {
      "inputs": [
        {
          "internalType": "address",
          "name": "owner",
          "type": "address"
        }
      ],
      "name": "withdrawFor",
      "outputs": [],
      "stateMutability": "nonpayable",
      "type": "function"
    }
  ],
  "transactionHash": "0xad1324070488025c945adf2a0edc04028c8b3555a88225652c42022a55eac7ee",
  "args": [
    "0xC7E510D0216FB7b8C0D7138827a86c17f2a86002",
    "0xa7dd9e518Fa161Cad166333a65fC315D87E998f0",
    "0x9e9e23df9a65ca95f7a3b613673c89db774d0cdaaa1850160a59406c0220d7f6",
    43200,
    7200,
    259200,
    100000,
    1,
    1800
  ],
  "linkedData": {
    "genesisHash": "0x9e9e23df9a65ca95f7a3b613673c89db774d0cdaaa1850160a59406c0220d7f6",
    "resolveWindow": 43200,
    "timePerDistance": 7200,
    "exitDuration": 259200,
    "acquireNumSpaceships": 100000,
    "productionSpeedUp": 1,
    "chainGenesisHash": "",
    "frontrunningDelay": 1800
  },
  "solcInputHash": "149eb9d41ce10099bd462e6081f6c0e0",
  "bytecode": "0x6101a06040523480156200001257600080fd5b506040516200581438038062005814833981016040819052620000359162000207565b600062000044600487620002bf565b905063ffffffff86166200005a826004620002f1565b63ffffffff1614620000b25760405162461bcd60e51b815260206004820152601d60248201527f54494d455f5045525f444953545f4e4f545f444956495349424c455f34000000604482015260640160405180910390fd5b6001600160a01b03808b1660c052891660805260a088905263ffffffff80881660e052818116610100528581166101205284811661014052838116610160528216610180526200010a8a8a8a8a8a8a8a8a8a6200011a565b505050505050505050506200032c565b600062000134600080516020620057f48339815191525490565b90506001600160a01b03811662000164576001600160a01b03600080516020620057f4833981519152556200017a565b336001600160a01b038216146200017a57600080fd5b60055463ffffffff16620001c8576040805160808101825260108082526020820181905291810182905260600152600580546001600160801b0319166c100000001000000010000000101790555b50505050505050505050565b6001600160a01b0381168114620001ea57600080fd5b50565b805163ffffffff811681146200020257600080fd5b919050565b60008060008060008060008060006101208a8c0312156200022757600080fd5b89516200023481620001d4565b60208b01519099506200024781620001d4565b60408b015190985096506200025f60608b01620001ed565b95506200026f60808b01620001ed565b94506200027f60a08b01620001ed565b93506200028f60c08b01620001ed565b92506200029f60e08b01620001ed565b9150620002b06101008b01620001ed565b90509295985092959850929598565b600063ffffffff80841680620002e557634e487b7160e01b600052601260045260246000fd5b92169190910492915050565b600063ffffffff808316818516818304811182151516156200032357634e487b7160e01b600052601160045260246000fd5b02949350505050565b60805160a05160c05160e051610100516101205161014051610160516101805161539a6200045a6000396000818161131401528181611f2301528181612d65015281816140150152818161409d0152818161412a015281816141ab015261437d01526000611e8701526000818161267f015281816127100152818161275e015281816127a5015281816128240152612855015260006119c9015260006130fd0152600061319f015260008181610a0c01528181610a9b01528181610bcb0152611bb30152600081816101e3015281816114660152818161187e01528181611a4c01528181611c8101528181612e9201528181612ef8015281816130a4015281816133fc015281816135870152818161360e01526139ce0152600081816103db0152613321015261539a6000f3fe608060405234801561001057600080fd5b50600436106101515760003560e01c8063a22cb465116100cd578063c956083811610081578063e2e9b07911610066578063e2e9b07914610368578063ee5433931461037b578063f9c8974d146103d657600080fd5b8063c95608381461032c578063cf3ecf071461035557600080fd5b8063aba789f5116100b2578063aba789f51461026d578063afc823701461028e578063c5aaa0ae146102a157600080fd5b8063a22cb46514610247578063a4c0ed361461025a57600080fd5b806356bf642d116101245780637cef64d8116101095780637cef64d8146101e15780639b6be065146102115780639eca672c1461023457600080fd5b806356bf642d146101bb5780637ba423fb146101ce57600080fd5b8063112e685114610156578063243f66c91461016b57806334efcb8e1461017e5780633540f129146101a8575b600080fd5b6101696101643660046144a3565b610415565b005b6101696101793660046144d8565b6104bc565b61019161018c366004614511565b6105fb565b60405161019f92919061452a565b60405180910390f35b6101696101b636600461461e565b610716565b6101696101c93660046146c3565b610805565b6101696101dc3660046146f3565b6109bb565b7f00000000000000000000000000000000000000000000000000000000000000005b60405190815260200161019f565b61022461021f366004614757565b610a8e565b604051901515815260200161019f565b6101696102423660046147ca565b610b30565b6101696102553660046147f5565b610b53565b610224610268366004614823565b610bbe565b61028061027b3660046148c4565b610c56565b60405161019f929190614906565b61016961029c3660046149dc565b610e66565b61031f604080516080810182526000808252602082018190529181018290526060810191909152506040805160808101825260055463ffffffff80821683526401000000008204811660208401526801000000000000000082048116938301939093526c010000000000000000000000009004909116606082015290565b60405161019f9190614a08565b61020361033a3660046147ca565b6001600160a01b031660009081526002602052604090205490565b610169610363366004614a41565b610f9b565b610169610376366004614a59565b6111c3565b61038e6103893660046146f3565b6112d9565b604080516001600160a01b03909616865263ffffffff9485166020870152939092169284019290925267ffffffffffffffff918216606084015216608082015260a00161019f565b6103fd7f000000000000000000000000000000000000000000000000000000000000000081565b6040516001600160a01b03909116815260200161019f565b6000336040805160208101859052908101869052606082811b6bffffffffffffffffffffffff191690820181905260748201529091506000906088016040516020818303038152906040528051906020012060001c90506104b581836040518060a00160405280866001600160a01b03168152602001866001600160a01b031681526020018981526020018863ffffffff1681526020018781525061138b565b5050505050565b81608082018035906020840135906000906104da90606087016147ca565b6040805160208101959095528401929092526001600160a01b039091161160f81b606082015260610160408051601f198184030181529190528051602090910120823561052d60c0850160a086016147ca565b61053d60e0860160c087016147ca565b6040805160208101959095528401929092526bffffffffffffffffffffffff19606091821b81168285015291901b1660748201526088016040516020818303038152906040528051906020012060001c146105df5760405162461bcd60e51b815260206004820152601d60248201527f494e56414c49445f464c4545545f444154415f4f525f5345435245542700000060448201526064015b60405180910390fd5b6105f7826105f236849003840184614ac4565b6116cb565b5050565b6040805160c081018252600080825260208201819052918101829052606081018290526080810182905260a08101919091526040805161010081018252600080825260208201819052918101829052606081018290526080810182905260a0810182905260c0810182905260e081019190915260008381526020819052604081208054909150600090819061069c90600160c01b900463ffffffff16611818565b6040805160c08101825286546001600160a01b038116825263ffffffff600160a01b8204811660208085019190915281861684860152600160e01b909204166060830152841515608083015260008b81526007909152919091205460a08201529650909250905061070c86611837565b9350505050915091565b60006107407fb53127684a568b3173ae13b9f8a6016e243e63b6e8ee1178d6a717850b5d61035490565b90506001600160a01b03811661077f576001600160a01b037fb53127684a568b3173ae13b9f8a6016e243e63b6e8ee1178d6a717850b5d610355610794565b336001600160a01b0382161461079457600080fd5b60055463ffffffff166107f9576040805160808101825260108082526020820181905291810182905260600152600580547fffffffffffffffffffffffffffffffff00000000000000000000000000000000166c100000001000000010000000101790555b50505050505050505050565b7fb53127684a568b3173ae13b9f8a6016e243e63b6e8ee1178d6a717850b5d6103546001600160a01b0316336001600160a01b0316146108875760405162461bcd60e51b815260206004820152600e60248201527f4e4f545f415554484f52495a454400000000000000000000000000000000000060448201526064016105d6565b60008281526020818152604091829020825160808101845290546001600160a01b038116825263ffffffff600160a01b82048116938301849052600160c01b8204811694830194909452600160e01b900490921660608301526108e9906119b2565b1561090d578051600084815260208190526040812061090d928692909190806119fd565b6000838152600760205260409020548061097b576001600160a01b0383166000908152600660205260408120805490919061094790614b84565b9182905550905061096b816bffffffffffffffffffffffff19606086901b16614b9f565b6000858152600760205260409020555b837f4c808d5eeb14d6e887046c8635adb3d27ad4977c0fda2a3ab15a0c95604e8d78826040516109ad91815260200190565b60405180910390a250505050565b336109c7818385611a46565b6040517f23b872dd0000000000000000000000000000000000000000000000000000000081526001600160a01b038281166004830152306024830152604482018490527f000000000000000000000000000000000000000000000000000000000000000016906323b872dd90606401602060405180830381600087803b158015610a5057600080fd5b505af1158015610a64573d6000803e3d6000fd5b505050506040513d601f19601f82011682018060405250810190610a889190614bb7565b50505050565b6000336001600160a01b037f00000000000000000000000000000000000000000000000000000000000000001614610b085760405162461bcd60e51b815260206004820152600d60248201527f494e56414c49445f45524332300000000000000000000000000000000000000060448201526064016105d6565b6000610b1683850185614511565b9050610b23868683611a46565b5060019695505050505050565b6001600160a01b0381166000908152600260205260409020546105f78282611b69565b3360008181526003602090815260408083206001600160a01b03871680855290835292819020805460ff19168615159081179091558151908152905184927f17307eab39ab6107e8899845ad3d59bd9653f200f220920489ca2b5937696c31928290030190a3505050565b6000336001600160a01b037f00000000000000000000000000000000000000000000000000000000000000001614610c385760405162461bcd60e51b815260206004820152600d60248201527f494e56414c49445f45524332300000000000000000000000000000000000000060448201526064016105d6565b600080610c47848601866149dc565b91509150610b23828783611a46565b604080516080810182526000808252602082018190529181018290526060818101929092528267ffffffffffffffff811115610c9457610c94614aae565b604051908082528060200260200182016040528015610cf457816020015b6040805160c08101825260008082526020808301829052928201819052606082018190526080820181905260a08201528252600019909201910181610cb25790505b50915060005b83811015610e08576000610d31868684818110610d1957610d19614bd4565b90506020020135600090815260208190526040902090565b80549091506000908190610d5190600160c01b900463ffffffff16611818565b6040805160c08101825286546001600160a01b038116825263ffffffff600160a01b82048116602084015280851693830193909352600160e01b900490911660608201528215156080820152919350915060a08101600760008b8b89818110610dbc57610dbc614bd4565b90506020020135815260200190815260200160002054815250868581518110610de757610de7614bd4565b60200260200101819052505050508080610e0090614b84565b915050610cfa565b50506040805160808101825260055463ffffffff80821683526401000000008204811660208401526801000000000000000082048116938301939093526c010000000000000000000000009004909116606082015290939092509050565b600081815260208190526040902080546001600160a01b03848116911614610ed05760405162461bcd60e51b815260206004820152600960248201527f4e4f545f4f574e4552000000000000000000000000000000000000000000000060448201526064016105d6565b8054600160a01b900463ffffffff1615610f2c5760405162461bcd60e51b815260206004820152600f60248201527f45584954494e475f414c5245414459000000000000000000000000000000000060448201526064016105d6565b80547fffffffffffffffff00000000ffffffffffffffffffffffffffffffffffffffff16600160a01b4263ffffffff160217815560405182906001600160a01b038516907fb9182e4e152947f1e6691fa0ee6f68f21f607fed825945c270e69995acad805f90600090a3505050565b33610fa960208301836147ca565b6001600160a01b0316816001600160a01b03161461104b5760036000610fd260208501856147ca565b6001600160a01b039081168252602080830193909352604091820160009081209185168152925290205460ff1661104b5760405162461bcd60e51b815260206004820152601660248201527f4e4f545f415554484f52495a45445f544f5f53454e440000000000000000000060448201526064016105d6565b60006080830135604084013561106460208601866147ca565b6040805160208101949094528301919091526bffffffffffffffffffffffff19606091821b8116828401529084901b16607482015260880160408051601f19818403018152919052805160209182012091506110c2908401846147ca565b6001600160a01b03166110db60408501602086016147ca565b6001600160a01b03161415801561111357506001600160a01b03821661110760408501602086016147ca565b6001600160a01b031614155b156111a5576003600061112c60408601602087016147ca565b6001600160a01b039081168252602080830193909352604091820160009081209186168152925290205460ff166111a55760405162461bcd60e51b815260206004820152601760248201527f4e4f545f415554484f52495a45445f544f5f464c45455400000000000000000060448201526064016105d6565b6111be81836111b936879003870187614bea565b61138b565b505050565b6000805b828110156112a85760006111e6858584818110610d1957610d19614bd4565b805490915061120190600160a01b900463ffffffff166119b2565b156112955780546001600160a01b038781169116146112625760405162461bcd60e51b815260206004820152600960248201527f4e4f545f4f574e4552000000000000000000000000000000000000000000000060448201526064016105d6565b61128885858481811061127757611277614bd4565b905060200201358783600080611c7b565b6112929084614b9f565b92505b50806112a081614b84565b9150506111c7565b506001600160a01b0384166000908152600260205260408120546112cd908390614b9f565b90506104b58582611b69565b6000828152600160205260408120546001600160a01b0381169163ffffffff600160a01b8304811692600160c01b90041690808061133860027f0000000000000000000000000000000000000000000000000000000000000000614c95565b6113489063ffffffff8716614c95565b6000978852600460209081526040808a20928a529190529096205494979396509194505067ffffffffffffffff8084169368010000000000000000900416919050565b60408181015160009081526020819052208054600160a01b900463ffffffff16156113f85760405162461bcd60e51b815260206004820152600b60248201527f504c414e45545f4558495400000000000000000000000000000000000000000060448201526064016105d6565b805482516001600160a01b039081169116146114565760405162461bcd60e51b815260206004820152600960248201527f4e4f545f4f574e4552000000000000000000000000000000000000000000000060448201526064016105d6565b60006114b38360400151604080517f00000000000000000000000000000000000000000000000000000000000000006020820152908101829052600090606001604051602081830303815290604052805190602001209050919050565b905060006114c082611e28565b835490915060009081906114eb9063ffffffff600160c01b8204811691600160e01b90041685611e56565b91509150856060015163ffffffff168163ffffffff16101561154f5760405162461bcd60e51b815260206004820152601560248201527f535041434553484950535f4e4f545f454e4f554748000000000000000000000060448201526064016105d6565b60008061156683858a604001518b60600151611f0a565b91509150604051806060016040528089602001516001600160a01b031681526020018363ffffffff168152602001896060015163ffffffff16815250600160008c815260200190815260200160002060008201518160000160006101000a8154816001600160a01b0302191690836001600160a01b0316021790555060208201518160000160146101000a81548163ffffffff021916908363ffffffff16021790555060408201518160000160186101000a81548163ffffffff021916908363ffffffff160217905550905050876040015188602001516001600160a01b031689600001516001600160a01b03167fa069887d9311acae9fe31657a1cc64ab2f9d55b74319d0193094208f946a0e778c8e8d60600151876040516116b794939291906001600160a01b03949094168452602084019290925263ffffffff908116604084015216606082015260800190565b60405180910390a450505050505050505050565b6000828152600160209081526040808320815160608101835290546001600160a01b038116825263ffffffff600160a01b8204811694830194909452600160c01b9004909216908201529080611721838561209d565b9150915060006117408560200151600090815260208190526040902090565b6040805160808101825291546001600160a01b038116835263ffffffff600160a01b8204811660208501819052600160c01b8304821693850193909352600160e01b90910416606083015285519192506117dd919088906117a0906119b2565b6117ab5783516117ae565b60005b602089015160608a01518a516001600160a01b0382161515916117d7918c918a9086908e612153565b886121e2565b5050506000928352505060016020526040902080547fffffffff00000000ffffffffffffffffffffffffffffffffffffffffffffffff169055565b63800000008181168114906000906118309084614ca9565b9050915091565b60408051610100810182526000808252602080830182905282840182905260608084018390526080840183905260a0840183905260c0840183905260e084019290925283517f000000000000000000000000000000000000000000000000000000000000000081830152808501869052845180820386018152920190935280519201919091206118c681612297565b6119125760405162461bcd60e51b815260206004820152601a60248201527f6e6f20706c616e657420696e2074686973206c6f636174696f6e00000000000060448201526064016105d6565b60008061191e836122b3565b915091506040518061010001604052808360000b81526020018260000b8152602001611949856122e7565b61ffff16815260200161195b85611e28565b61ffff16815260200161196d856123c1565b61ffff16815260200161197f856123e9565b61ffff168152602001611991856123f6565b61ffff1681526020016119a38561241e565b61ffff16905295945050505050565b6000808263ffffffff161180156119f757506119f47f000000000000000000000000000000000000000000000000000000000000000063ffffffff8416614b9f565b42115b92915050565b6000611a0c8686868686611c7b565b6001600160a01b038616600090815260026020526040902054909150611a3e908690611a39908490614b9f565b612446565b505050505050565b604080517f000000000000000000000000000000000000000000000000000000000000000060208083019190915281830184905282518083038401815260609092019092528051910120670de0b6b3a7640000611aa2826122e7565b61ffff16611ab09190614ccc565b8314611afe5760405162461bcd60e51b815260206004820152600e60248201527f494e56414c49445f414d4f554e5400000000000000000000000000000000000060448201526064016105d6565b6000611b0b85848461249f565b9050611b16836128f1565b6040805163ffffffff831681526020810186905284916001600160a01b038816917f5a2bd9d3c37a402271eaa8b4cd01a1a65831589c630b4b8ab1967eca76c0412c910160405180910390a35050505050565b611b74826000612446565b6040517fa9059cbb0000000000000000000000000000000000000000000000000000000081526001600160a01b038381166004830152602482018390527f0000000000000000000000000000000000000000000000000000000000000000169063a9059cbb90604401602060405180830381600087803b158015611bf757600080fd5b505af1158015611c0b573d6000803e3d6000fd5b505050506040513d601f19601f82011682018060405250810190611c2f9190614bb7565b6105f75760405162461bcd60e51b815260206004820152600f60248201527f4641494c45445f5452414e53464552000000000000000000000000000000000060448201526064016105d6565b604080517f0000000000000000000000000000000000000000000000000000000000000000602080830191909152818301889052825180830384018152606090920190925280519101206000906000670de0b6b3a7640000611cdc836122e7565b61ffff16611cea9190614ccc565b905087876001600160a01b03167f1c363b29828a892b7cddafe9583ef52e0d5aca0ea7011bda6ccf039e1781f73883604051611d2891815260200190565b60405180910390a36000888152600760205260409020548015611dad576001600160a01b03881660008181526008602090815260408083208584528252808320805460ff191660011790558c835260079091528082208290555183928c9290917f74f110a1e0cd4892234c7ba49df9f8a354cd8d29b272f7557c9b8c3c38a653369190a45b50855463ffffffff858116600160c01b027fffffffff00000000ffffffffffffffffffffffffffffffffffffffffffffffff42909216600160e01b027bffffffff0000000000000000000000000000000000000000000000009093166001600160a01b03891617929092171617865591505095945050505050565b60006119f782600c7f0708083409600a8c0bb80ce40e100e100e100e101068151819c81e7823282ee0612cbb565b600080611e6285611818565b90925090508115611f02576000611e798542614ceb565b90506000610e1063ffffffff7f000000000000000000000000000000000000000000000000000000000000000016611eb561ffff881685614ccc565b611ebf9190614ccc565b611ec99190614c95565b611ed99063ffffffff8516614b9f565b905063800000008110611efe57611ef560016380000000614d02565b63ffffffff1690505b9150505b935093915050565b600082815260208190526040812081906000611f4760027f0000000000000000000000000000000000000000000000000000000000000000614c95565b611f519042614c95565b600087815260046020908152604080832084845290915290205490915067ffffffffffffffff16611f8863ffffffff871682614d27565b90508563ffffffff168167ffffffffffffffff161015611fea5760405162461bcd60e51b815260206004820152600860248201527f4f564552464c4f5700000000000000000000000000000000000000000000000060448201526064016105d6565b60008781526004602090815260408083208584529091529020805467ffffffffffffffff191667ffffffffffffffff831617905542945061202b868a614d02565b93506120378885612d35565b835477ffffffffffffffffffffffffffffffffffffffffffffffff16600160c01b63ffffffff928316027bffffffffffffffffffffffffffffffffffffffffffffffffffffffff1617600160e01b91871691909102179092555091969095509350505050565b6040820151600063ffffffff82166120f75760405162461bcd60e51b815260206004820152601260248201527f464c4545545f444f5f4e4f545f4558495354000000000000000000000000000060448201526064016105d6565b61210a8284600001518660200151612d5b565b915081846040015161211c9190614d02565b9050612135836040015184600001518560200151612e82565b61214c83604001518460000151866020015161309e565b9250929050565b6040805160a0810182526000808252602082018190529181018290526060810182905260808101919091526000836001600160a01b03161180156121a0575084516001600160a01b031615155b156121c2576121bb8760000151868685878c60200151613238565b90506121d8565b6121bb8760000151886020015188888887613547565b9695505050505050565b846001600160a01b0316876001600160a01b0316877f606ed05ee5450c129097ad509fc76dd97bde7b9bfc9a935df4671051779e0eb0878787602001518860400151888a600001518b606001518c60800151604051612286989796959493929190978852951515602088015263ffffffff948516604088015292841660608701529083166080860152821660a0850152151560c08401521660e08201526101000190565b60405180910390a450505050505050565b60006122a682603460106136bc565b60ff166001149050919050565b6000806122c2838260036136bc565b6122cd906001614d53565b91506122dc83600260036136bc565b611830906001614d53565b6000806122f583600c6136d9565b905060006123228460047c0100010002000200030003000400040005000500060006000700070008612cbb565b905060006123338260ff8516614db5565b905060048161ffff16101561234a5750600061236d565b60138161ffff16111561235f5750600f61236d565b61236a600482614dd2565b90505b7e0400050005000a000a000f000f00140014001e001e00280028005000500064612398826002614ded565b6123a3906001614db5565b61ffff16602081106123b7576123b7614bd4565b1a95945050505050565b60006123ce8260146136d9565b6123dd9060ff16610190614ded565b6119f790610fa0614db5565b60006123ce82601c6136d9565b60006124038260246136d9565b6124129060ff1661014d614ded565b6119f79061138d614db5565b600061242b82602c6136d9565b61243a9060ff16610bb8614ded565b6119f790613a98614db5565b6001600160a01b03821660008181526002602052604090819020839055517f4d135695228631e73b5a31e6fc8af4e5825cde63774c3c48695b4af814d7b019906124939084815260200190565b60405180910390a25050565b600082815260208190526040812081906040805160808101825282546001600160a01b038116825263ffffffff600160a01b820481166020840152600160c01b82048116938301849052600160e01b9091041660608201819052929350916000918291612515919061251089611e28565b611e56565b91509150600080846060015163ffffffff1660001415612543576125388861241e565b61ffff169050612677565b602085015163ffffffff16156125b55761256085602001516119b2565b6125ac5760405162461bcd60e51b815260206004820152600d60248201527f5354494c4c5f45584954494e470000000000000000000000000000000000000060448201526064016105d6565b60019150612677565b83156126035760405162461bcd60e51b815260206004820152600c60248201527f5354494c4c5f414354495645000000000000000000000000000000000000000060448201526064016105d6565b896001600160a01b031685600001516001600160a01b0316148061262b575063ffffffff8316155b6126775760405162461bcd60e51b815260206004820152600860248201527f4f4343555049454400000000000000000000000000000000000000000000000060448201526064016105d6565b81156126c0577f000000000000000000000000000000000000000000000000000000000000000092506126bb898660000151888d6126b6600189612d35565b6119fd565b6128e3565b85547fffffffffffffffffffffffff0000000000000000000000000000000000000000166001600160a01b038b1617865563ffffffff8116156128505760006360916f80421115612759576127517f000000000000000000000000000000000000000000000000000000000000000063ffffffff168363ffffffff166127106127488d6123e9565b61ffff16613773565b5090506127a3565b61279f7f000000000000000000000000000000000000000000000000000000000000000063ffffffff168363ffffffff166127106127968d6123e9565b61ffff16613802565b5090505b7f000000000000000000000000000000000000000000000000000000000000000063ffffffff168163ffffffff161061281e5760405162461bcd60e51b815260206004820152600f60248201527f4641494c45445f4341505455524544000000000000000000000000000000000060448201526064016105d6565b612848817f0000000000000000000000000000000000000000000000000000000000000000614d02565b93505061287d565b61287a7f000000000000000000000000000000000000000000000000000000000000000084614e17565b92505b612888600184612d35565b865477ffffffffffffffffffffffffffffffffffffffffffffffff16600160c01b63ffffffff928316027bffffffffffffffffffffffffffffffffffffffffffffffffffffffff1617600160e01b4292909216919091021786555b509098975050505050505050565b604080516080808201835260055463ffffffff80821684526401000000008204811660208501526801000000000000000082048116948401949094526c0100000000000000000000000090049092166060820152906fffffffffffffffffffffffffffffffff8316600f0b9083901d600080831215612a1557835163ffffffff1661297b84614e36565b13156129c95760405162461bcd60e51b815260206004820152601660248201527f4e4f545f524541434841424c455f5945545f4d494e580000000000000000000060448201526064016105d6565b60086129d484614e36565b6129de9190614e6f565b925063ffffffff8313156129f45763ffffffff92505b835163ffffffff16831315612a10575063ffffffff8216835260015b612ab8565b836020015163ffffffff16831315612a6f5760405162461bcd60e51b815260206004820152601660248201527f4e4f545f524541434841424c455f5945545f4d4158580000000000000000000060448201526064016105d6565b612a7a600884614e6f565b925063ffffffff831315612a905763ffffffff92505b8263ffffffff16846020015163ffffffff161015612ab8575063ffffffff8216602084015260015b6000821215612b7557604084015163ffffffff16612ad583614e36565b1315612b235760405162461bcd60e51b815260206004820152601660248201527f4e4f545f524541434841424c455f5945545f4d494e590000000000000000000060448201526064016105d6565b6008612b2e83614e36565b612b389190614e6f565b915063ffffffff821315612b4e5763ffffffff91505b81846040015163ffffffff161215612b70575063ffffffff8116604084015260015b612c12565b836060015163ffffffff16821315612bcf5760405162461bcd60e51b815260206004820152601660248201527f4e4f545f524541434841424c455f5945545f4d4158590000000000000000000060448201526064016105d6565b612bda600883614e6f565b915063ffffffff821315612bf05763ffffffff91505b81846060015163ffffffff161215612c12575063ffffffff8116606084015260015b80156104b55783516005805460208701516040880151606089015163ffffffff9081166c01000000000000000000000000027fffffffffffffffffffffffffffffffff00000000ffffffffffffffffffffffff9282166801000000000000000002929092166fffffffffffffffff0000000000000000199382166401000000000267ffffffffffffffff1990951691909616179290921716929092179190911790555050505050565b600080612cc885856136d9565b905082612cd6826002614ee3565b612ce1906001614f0c565b60ff1660208110612cf457612cf4614bd4565b1a83612d01836002614ee3565b60ff1660208110612d1457612d14614bd4565b612d2291901a610100614ded565b612d2c9190614db5565b95945050505050565b60008183612d44576000612d4a565b63800000005b612d549190614e17565b9392505050565b600080612d8960027f0000000000000000000000000000000000000000000000000000000000000000614c95565b612d999063ffffffff8516614c95565b600085815260046020908152604080832084845290915290205490915068010000000000000000900467ffffffffffffffff1663ffffffff8616811015612e1b57612de48187614d02565b6000868152600460209081526040808320868452909152902080546fffffffffffffffff0000000000000000191690559550612e78565b60009550612e298682614f31565b60008681526004602090815260408083208684529091529020805467ffffffffffffffff9290921668010000000000000000026fffffffffffffffff0000000000000000199092169190911790555b5093949350505050565b600080612ee4612edf85604080517f00000000000000000000000000000000000000000000000000000000000000006020820152908101829052600090606001604051602081830303815290604052805190602001209050919050565b6122b3565b91509150600080612f45612edf86604080517f00000000000000000000000000000000000000000000000000000000000000006020820152908101829052600090606001604051602081830303815290604052805190602001209050919050565b90925090506000600284820b612f6060808a901c6004614f52565b612f6a9190614ff9565b600084900b612f7e60808a901c6004614f52565b612f889190614ff9565b612f92919061505a565b612f9c9190615246565b6002600087900b612fc06fffffffffffffffffffffffffffffffff8b166004614f52565b612fca9190614ff9565b600086900b612fec6fffffffffffffffffffffffffffffffff8b166004614f52565b612ff69190614ff9565b613000919061505a565b61300a9190615246565b6130149190614ff9565b600f0b90508061302560028a6152e7565b111580156130485750600261303b896001614b9f565b61304591906152e7565b81105b6130945760405162461bcd60e51b815260206004820152600e60248201527f77726f6e672064697374616e636500000000000000000000000000000000000060448201526064016105d6565b5050505050505050565b604080517f0000000000000000000000000000000000000000000000000000000000000000602080830191909152818301859052825180830384018152606090920190925280519101206000906130f4906123f6565b61ffff166131247f0000000000000000000000000000000000000000000000000000000000000000612710614ccc565b61312e9086614ccc565b6131389190614c95565b6131489063ffffffff8416614b9f565b90508042101561319a5760405162461bcd60e51b815260206004820152600960248201527f746f6f206561726c79000000000000000000000000000000000000000000000060448201526064016105d6565b6131c47f000000000000000000000000000000000000000000000000000000000000000082614b9f565b4210610a885760405162461bcd60e51b815260206004820152602b60248201527f746f6f206c6174652c20796f7572207370616365736869707320617265206c6f60448201527f737420696e20737061636500000000000000000000000000000000000000000060648201526084016105d6565b6040805160a081018252600080825260208083018290529282018190526060820181905260808201529086015161326e906119b2565b156132be5785516001600160a01b0381166132865750865b865160008781526020819052604090206132b691889163ffffffff89166132ae5760006132b0565b845b89613932565b9150506121d8565b60016001600160a01b0384168110156133a55786516040517f5db2269e0000000000000000000000000000000000000000000000000000000081526001600160a01b0386811660048301528a8116602483015291821660448201524260648201527f000000000000000000000000000000000000000000000000000000000000000090911690635db2269e9060840160206040518083038186803b15801561336557600080fd5b505afa158015613379573d6000803e3d6000fd5b505050506040513d601f19601f8201168201806040525081019061339d9190614bb7565b1590506133be565b86516001600160a01b03898116911614156133be575060005b80156133f6576127106133d96109c463ffffffff8816614ccc565b6133e39190614c95565b6133f39063ffffffff8716614ceb565b94505b604080517f000000000000000000000000000000000000000000000000000000000000000060208083019190915281830189905282518083038401815260609092019092528051910120600061344b82611e28565b90506000806134698b604001518c6060015163ffffffff1685611e56565b9092509050600061347a8a83614e17565b63ffffffff169050638000000081106134a55761349c60016380000000614d02565b63ffffffff1690505b60008b815260208190526040902080547bffffffffffffffffffffffffffffffffffffffffffffffffffffffff16600160e01b4263ffffffff16021790556134ed8382612d35565b60008c8152602081905260409020805463ffffffff928316600160c01b027fffffffff00000000ffffffffffffffffffffffffffffffffffffffffffffffff90911617905516608087015250505050509695505050505050565b6040805160a081018252600080825260208201819052918101829052606081018290526080810191909152606084015163ffffffff166135d957604080517f0000000000000000000000000000000000000000000000000000000000000000602080830191909152818301869052825180830384018152606090920190925280519101206132b688888887858861399e565b6135e684602001516119b2565b1561360857835160008481526020819052604090206121bb9185918a86613932565b604080517f00000000000000000000000000000000000000000000000000000000000000006020808301829052828401879052835180840385018152606084018552805190820120608084019290925260a08084018a90528451808503909101815260c090930190935281519190920120600090613685906123c1565b90506000613692836123e9565b9050600061369f84611e28565b90506136b18b8b85858c8c878d613bc4565b9450505050506121d8565b60006136d160ff80841690851686901c6152f6565b949350505050565b6000806136e8848460406136bc565b905060006136f760028361530a565b9050600061370660028461532c565b905060007f01223334444555555666666677777777888888889999999aaaaaabbbbcccddef60ff84166020811061373f5761373f614bd4565b1a905060ff821661375d5760048160ff16901c9450505050506119f7565b61376860108261532c565b9450505050506119f7565b600080851580613781575084155b15613791575060009050806137f9565b60008361379e8689614ccc565b6137a89190614c95565b9050808611156137bd578692508091506137f7565b6000856137ca8689614ccc565b6137d49190614c95565b63ffffffff1690508781106137f1576137ee600189614ceb565b90505b92508591505b505b94509492505050565b600080851580613810575084155b15613820575060009050806137f9565b600061382c8588614ccc565b9050600061383a8588614ccc565b905060008261384d896305f5e100614ccc565b6138579190614c95565b9050613867886305f5e100614ccc565b6138718483614ccc565b1015613885578061388181614b84565b9150505b6000826138968b6305f5e100614ccc565b6138a09190614c95565b90506138b08a6305f5e100614ccc565b6138ba8483614ccc565b10156138ce57806138ca81614b84565b9150505b60006138da8383613d02565b90506138fe6305f5e1006138ee8684614ccc565b6138f89190614c95565b8c613d02565b96506139226305f5e1006139128784614ccc565b61391c9190614c95565b8b613d02565b9550505050505094509492505050565b6040805160a08101825260008082526020820181905291810182905260608101829052608081019190915261398086868660008663ffffffff161161397857600061397a565b865b866119fd565b63ffffffff9091166080820181905215156060820152949350505050565b6040805160a0810182526000808252602080830182905282840182905260608084018390526080840183905284517f0000000000000000000000000000000000000000000000000000000000000000818401528086018a905285518082038701815291019094528351930192909220909190613a19906123c1565b90506000613a26856123e9565b90506000613a338661241e565b90506000806360916f808b63ffffffff161115613a7257613a688763ffffffff168461ffff168761ffff168761ffff16613773565b9092509050613a96565b613a908763ffffffff168461ffff168761ffff168761ffff16613802565b90925090505b63ffffffff8083166020880152811661ffff8416148015613ac257508163ffffffff168763ffffffff16115b15613bb557613ad18288614d02565b63ffffffff1660808701819052613aea90600090612d35565b6000808b815260200190815260200160002060000160186101000a81548163ffffffff021916908363ffffffff160217905550426000808b8152602001908152602001600020600001601c6101000a81548163ffffffff021916908363ffffffff1602179055508b6000808b815260200190815260200160002060000160006101000a8154816001600160a01b0302191690836001600160a01b0316021790555080866040019063ffffffff16908163ffffffff168152505060018660600190151590811515815250505b50505050509695505050505050565b6040805160a081018252600080825260208201819052918101829052606081018290526080810182905290613bfa868686613d19565b9050806040015163ffffffff166000148015613c1c575060008363ffffffff16115b15613ce357600085815260208190526040902080547fffffffffffffffff000000000000000000000000000000000000000000000000166001600160a01b038c161790558051613c6c9084612d35565b6000868152602081905260409020805477ffffffffffffffffffffffffffffffffffffffffffffffff16600160c01b63ffffffff938416027bffffffffffffffffffffffffffffffffffffffffffffffffffffffff1617600160e01b42841602179055600160608401528316608083015250613cf6565b613cf2818b8b88878d8d613dd2565b9150505b98975050505050505050565b600081831115613d125781612d54565b5090919050565b6040805160e081018252600080825260208201819052918101829052606081018290526080810182905260a0810182905260c0810191909152600080613d6e8660400151876060015163ffffffff1686611e56565b915091506000806000806000613d84868b61436f565b9a15158c5263ffffffff998a1660208d01529290981660408b015267ffffffffffffffff90811660608b015296871660808a0152861660a089015250505050911660c0830152509392505050565b6040805160a081018252600080825260208201819052918101829052606081018290526080810182905290806360916f8063ffffffff89161115613e3e57613e348663ffffffff168b6040015163ffffffff168761ffff168761ffff16613773565b9092509050613e68565b613e628663ffffffff168b6040015163ffffffff168761ffff168761ffff16613802565b90925090505b63ffffffff80831660208086019190915282821660408601819052908c015190911610156142115760208a0151613e9f9082614d02565b63ffffffff90811680855260208c0151909116604085015260608b015167ffffffffffffffff1610613f2257826000015163ffffffff168a606001818151613ee79190614f31565b67ffffffffffffffff16905250825160808b01805163ffffffff90921691613f10908390614d27565b67ffffffffffffffff16905250613ff8565b89606001518a608001818151613f389190614d27565b67ffffffffffffffff1690525060608a01518351600091613f5e9163ffffffff16614f31565b90508067ffffffffffffffff168b60a0015167ffffffffffffffff1610613fc457808b60a001818151613f919190614f31565b67ffffffffffffffff1690525060c08b018051829190613fb2908390614d27565b67ffffffffffffffff16905250613fef565b8a60a001518b60c001818151613fda9190614d27565b67ffffffffffffffff16905250600060a08c01525b50600060608b01525b60608a0151600088815260046020526040812090600161403960027f0000000000000000000000000000000000000000000000000000000000000000614c95565b6140439042614c95565b61404d9190614ceb565b815260208082019290925260409081016000908120805467ffffffffffffffff191667ffffffffffffffff959095169490941790935560808d01518a845260049092528220909160016140c160027f0000000000000000000000000000000000000000000000000000000000000000614c95565b6140cb9042614c95565b6140d59190614ceb565b815260200190815260200160002060000160086101000a81548167ffffffffffffffff021916908367ffffffffffffffff1602179055508960a0015160046000898152602001908152602001600020600060027f00000000000000000000000000000000000000000000000000000000000000006141539190614c95565b61415d9042614c95565b815260208082019290925260409081016000908120805467ffffffffffffffff191667ffffffffffffffff959095169490941790935560c08d01518a84526004909252822090916141cf60027f0000000000000000000000000000000000000000000000000000000000000000614c95565b6141d99042614c95565b815260200190815260200160002060000160086101000a81548167ffffffffffffffff021916908367ffffffffffffffff1602179055505b60008663ffffffff1611801561423a5750896020015163ffffffff16836040015163ffffffff16145b1561431a576142498287614d02565b63ffffffff166080840190815260016060850152600088815260208190526040902080547fffffffffffffffff000000000000000000000000000000000000000000000000166001600160a01b038c161790558a5190516142aa9190612d35565b6000888152602081905260409020805477ffffffffffffffffffffffffffffffffffffffffffffffff16600160c01b63ffffffff938416027bffffffffffffffffffffffffffffffffffffffffffffffffffffffff1617600160e01b429390931692909202919091179055614362565b8563ffffffff16836020015163ffffffff16141561435a57808a602001516143429190614d02565b63ffffffff16608084018190528a516142aa91612d35565b61436261534e565b5050979650505050505050565b816000808080806143a160027f0000000000000000000000000000000000000000000000000000000000000000614c95565b6143ab9042614c95565b60008881526004602052604081209192506143c7600184614ceb565b815260208082019290925260409081016000908120548a8252600490935290812067ffffffffffffffff9092169650614401600184614ceb565b815260208082019290925260409081016000908120548a825260048452828220858352909352205467ffffffffffffffff9182169550818116945068010000000000000000900416915061447d63ffffffff871661445f8588614d27565b6144699190614d27565b67ffffffffffffffff1663ffffffff613d02565b9550509295509295909350565b803563ffffffff8116811461449e57600080fd5b919050565b6000806000606084860312156144b857600080fd5b833592506144c86020850161448a565b9150604084013590509250925092565b6000808284036101008112156144ed57600080fd5b8335925060e0601f198201121561450357600080fd5b506020830190509250929050565b60006020828403121561452357600080fd5b5035919050565b6101c0810161458782856001600160a01b038151168252602081015163ffffffff8082166020850152806040840151166040850152806060840151166060850152505060808101511515608083015260a081015160a08301525050565b8251600090810b60c08401526020840151900b60e0830152604083015161ffff90811661010084015260608401511661012083015260808301516145d261014084018261ffff169052565b5060a083015161ffff90811661016084015260c0840151811661018084015260e0909301519092166101a090910152919050565b6001600160a01b038116811461461b57600080fd5b50565b60008060008060008060008060006101208a8c03121561463d57600080fd5b893561464881614606565b985060208a013561465881614606565b975060408a0135965061466d60608b0161448a565b955061467b60808b0161448a565b945061468960a08b0161448a565b935061469760c08b0161448a565b92506146a560e08b0161448a565b91506146b46101008b0161448a565b90509295985092959850929598565b600080604083850312156146d657600080fd5b8235915060208301356146e881614606565b809150509250929050565b6000806040838503121561470657600080fd5b50508035926020909101359150565b60008083601f84011261472757600080fd5b50813567ffffffffffffffff81111561473f57600080fd5b60208301915083602082850101111561214c57600080fd5b60008060008060006080868803121561476f57600080fd5b853561477a81614606565b9450602086013561478a81614606565b935060408601359250606086013567ffffffffffffffff8111156147ad57600080fd5b6147b988828901614715565b969995985093965092949392505050565b6000602082840312156147dc57600080fd5b8135612d5481614606565b801515811461461b57600080fd5b6000806040838503121561480857600080fd5b823561481381614606565b915060208301356146e8816147e7565b6000806000806060858703121561483957600080fd5b843561484481614606565b935060208501359250604085013567ffffffffffffffff81111561486757600080fd5b61487387828801614715565b95989497509550505050565b60008083601f84011261489157600080fd5b50813567ffffffffffffffff8111156148a957600080fd5b6020830191508360208260051b850101111561214c57600080fd5b600080602083850312156148d757600080fd5b823567ffffffffffffffff8111156148ee57600080fd5b6148fa8582860161487f565b90969095509350505050565b60a0808252835190820181905260009060c090818401906020808801855b83811015614995576149858583516001600160a01b038151168252602081015163ffffffff8082166020850152806040840151166040850152806060840151166060850152505060808101511515608083015260a081015160a08301525050565b9385019390820190600101614924565b50508294506149d181870188805163ffffffff908116835260208083015182169084015260408083015182169084015260609182015116910152565b505050509392505050565b600080604083850312156149ef57600080fd5b82356149fa81614606565b946020939093013593505050565b608081016119f78284805163ffffffff908116835260208083015182169084015260408083015182169084015260609182015116910152565b600060a08284031215614a5357600080fd5b50919050565b600080600060408486031215614a6e57600080fd5b8335614a7981614606565b9250602084013567ffffffffffffffff811115614a9557600080fd5b614aa18682870161487f565b9497909650939450505050565b634e487b7160e01b600052604160045260246000fd5b600060e08284031215614ad657600080fd5b60405160e0810181811067ffffffffffffffff82111715614b0757634e487b7160e01b600052604160045260246000fd5b80604052508235815260208301356020820152604083013560408201526060830135614b3281614606565b60608201526080838101359082015260a0830135614b4f81614606565b60a082015260c0830135614b6281614606565b60c08201529392505050565b634e487b7160e01b600052601160045260246000fd5b6000600019821415614b9857614b98614b6e565b5060010190565b60008219821115614bb257614bb2614b6e565b500190565b600060208284031215614bc957600080fd5b8151612d54816147e7565b634e487b7160e01b600052603260045260246000fd5b600060a08284031215614bfc57600080fd5b60405160a0810181811067ffffffffffffffff82111715614c2d57634e487b7160e01b600052604160045260246000fd5b6040528235614c3b81614606565b81526020830135614c4b81614606565b602082015260408381013590820152614c666060840161448a565b6060820152608083013560808201528091505092915050565b634e487b7160e01b600052601260045260246000fd5b600082614ca457614ca4614c7f565b500490565b600063ffffffff80841680614cc057614cc0614c7f565b92169190910692915050565b6000816000190483118215151615614ce657614ce6614b6e565b500290565b600082821015614cfd57614cfd614b6e565b500390565b600063ffffffff83811690831681811015614d1f57614d1f614b6e565b039392505050565b600067ffffffffffffffff808316818516808303821115614d4a57614d4a614b6e565b01949350505050565b60008160000b8360000b60008112817fffffffffffffffffffffffffffffffffffffffffffffffffffffffffffffff8001831281151615614d9657614d96614b6e565b81607f018313811615614dab57614dab614b6e565b5090039392505050565b600061ffff808316818516808303821115614d4a57614d4a614b6e565b600061ffff83811690831681811015614d1f57614d1f614b6e565b600061ffff80831681851681830481118215151615614e0e57614e0e614b6e565b02949350505050565b600063ffffffff808316818516808303821115614d4a57614d4a614b6e565b60007f8000000000000000000000000000000000000000000000000000000000000000821415614e6857614e68614b6e565b5060000390565b6000808212827f7fffffffffffffffffffffffffffffffffffffffffffffffffffffffffffffff03841381151615614ea957614ea9614b6e565b827f8000000000000000000000000000000000000000000000000000000000000000038412811615614edd57614edd614b6e565b50500190565b600060ff821660ff84168160ff0481118215151615614f0457614f04614b6e565b029392505050565b600060ff821660ff84168060ff03821115614f2957614f29614b6e565b019392505050565b600067ffffffffffffffff83811690831681811015614d1f57614d1f614b6e565b600081600f0b83600f0b6f7fffffffffffffffffffffffffffffff600082136000841383830485118282161615614f8b57614f8b614b6e565b6f7fffffffffffffffffffffffffffffff196000851286820586128184161615614fb757614fb7614b6e565b60008712925085820587128484161615614fd357614fd3614b6e565b85850587128184161615614fe957614fe9614b6e565b5050509290910295945050505050565b600081600f0b83600f0b60008212826f7fffffffffffffffffffffffffffffff0382138115161561502c5761502c614b6e565b826f7fffffffffffffffffffffffffffffff1903821281161561505157615051614b6e565b50019392505050565b600081600f0b83600f0b60008112816f7fffffffffffffffffffffffffffffff190183128115161561508e5761508e614b6e565b816f7fffffffffffffffffffffffffffffff018313811615614dab57614dab614b6e565b600181815b808511156150ed5781600019048211156150d3576150d3614b6e565b808516156150e057918102915b93841c93908002906150b7565b509250929050565b80825b60018086116151075750611f02565b816f7fffffffffffffffffffffffffffffff0482111561512957615129614b6e565b8086161561513657918102915b9490941c9380026150f8565b600082801561515857600181146151625761516b565b60019150506119f7565b829150506119f7565b5081615179575060006119f7565b506001600082138082146151925780156151b9576151db565b826f7fffffffffffffffffffffffffffffff048311156151b4576151b4614b6e565b6151db565b826f7fffffffffffffffffffffffffffffff058312156151db576151db614b6e565b50808316156151e75750805b6151f78360011c838402836150f5565b806f7fffffffffffffffffffffffffffffff04821160008313161561521e5761521e614b6e565b806f7fffffffffffffffffffffffffffffff19058212600083121615614f0457614f04614b6e565b6000612d5460ff841683600f0b615142565b600082615267575060016119f7565b81615274575060006119f7565b8160018114615158576002811461528a576152a6565b60ff84111561529b5761529b614b6e565b50506001821b6119f7565b5060208310610133831016604e8410600b84101617156152c9575081810a6119f7565b6152d383836150b2565b8060001904821115614f0457614f04614b6e565b6000612d5460ff841683615258565b60008261530557615305614c7f565b500690565b600060ff83168061531d5761531d614c7f565b8060ff84160491505092915050565b600060ff83168061533f5761533f614c7f565b8060ff84160691505092915050565b634e487b7160e01b600052600160045260246000fdfea26469706673582212204b44e30a5b6a8d79f39e81a25760037c2da0c496e4ebbf7ff242a7339532d4d164736f6c63430008090033b53127684a568b3173ae13b9f8a6016e243e63b6e8ee1178d6a717850b5d6103",
  "devdoc": {
    "kind": "dev",
    "methods": {},
    "version": 1
  },
  "userdoc": {
    "kind": "user",
    "methods": {},
    "version": 1
  },
  "storageLayout": {
    "storage": [
      {
        "astId": 15001,
        "contract": "src/OuterSpace.sol:OuterSpace",
        "label": "_planets",
        "offset": 0,
        "slot": "0",
        "type": "t_mapping(t_uint256,t_struct(Planet)15049_storage)"
      },
      {
        "astId": 15006,
        "contract": "src/OuterSpace.sol:OuterSpace",
        "label": "_fleets",
        "offset": 0,
        "slot": "1",
        "type": "t_mapping(t_uint256,t_struct(Fleet)15056_storage)"
      },
      {
        "astId": 15010,
        "contract": "src/OuterSpace.sol:OuterSpace",
        "label": "_stakeReadyToBeWithdrawn",
        "offset": 0,
        "slot": "2",
        "type": "t_mapping(t_address,t_uint256)"
      },
      {
        "astId": 15016,
        "contract": "src/OuterSpace.sol:OuterSpace",
        "label": "_operators",
        "offset": 0,
        "slot": "3",
        "type": "t_mapping(t_address,t_mapping(t_address,t_bool))"
      },
      {
        "astId": 15028,
        "contract": "src/OuterSpace.sol:OuterSpace",
        "label": "_inFlight",
        "offset": 0,
        "slot": "4",
        "type": "t_mapping(t_uint256,t_mapping(t_uint256,t_struct(InFlight)15021_storage))"
      },
      {
        "astId": 15040,
        "contract": "src/OuterSpace.sol:OuterSpace",
        "label": "_discovered",
        "offset": 0,
        "slot": "5",
        "type": "t_struct(Discovered)15037_storage"
      },
      {
        "astId": 15060,
        "contract": "src/OuterSpace.sol:OuterSpace",
        "label": "_prevRewardIds",
        "offset": 0,
        "slot": "6",
        "type": "t_mapping(t_address,t_uint256)"
      },
      {
        "astId": 15064,
        "contract": "src/OuterSpace.sol:OuterSpace",
        "label": "_rewards",
        "offset": 0,
        "slot": "7",
        "type": "t_mapping(t_uint256,t_uint256)"
      },
      {
        "astId": 15070,
        "contract": "src/OuterSpace.sol:OuterSpace",
        "label": "_rewardsToWithdraw",
        "offset": 0,
        "slot": "8",
        "type": "t_mapping(t_address,t_mapping(t_uint256,t_bool))"
      }
    ],
    "types": {
      "t_address": {
        "encoding": "inplace",
        "label": "address",
        "numberOfBytes": "20"
      },
      "t_bool": {
        "encoding": "inplace",
        "label": "bool",
        "numberOfBytes": "1"
      },
      "t_mapping(t_address,t_bool)": {
        "encoding": "mapping",
        "key": "t_address",
        "label": "mapping(address => bool)",
        "numberOfBytes": "32",
        "value": "t_bool"
      },
      "t_mapping(t_address,t_mapping(t_address,t_bool))": {
        "encoding": "mapping",
        "key": "t_address",
        "label": "mapping(address => mapping(address => bool))",
        "numberOfBytes": "32",
        "value": "t_mapping(t_address,t_bool)"
      },
      "t_mapping(t_address,t_mapping(t_uint256,t_bool))": {
        "encoding": "mapping",
        "key": "t_address",
        "label": "mapping(address => mapping(uint256 => bool))",
        "numberOfBytes": "32",
        "value": "t_mapping(t_uint256,t_bool)"
      },
      "t_mapping(t_address,t_uint256)": {
        "encoding": "mapping",
        "key": "t_address",
        "label": "mapping(address => uint256)",
        "numberOfBytes": "32",
        "value": "t_uint256"
      },
      "t_mapping(t_uint256,t_bool)": {
        "encoding": "mapping",
        "key": "t_uint256",
        "label": "mapping(uint256 => bool)",
        "numberOfBytes": "32",
        "value": "t_bool"
      },
      "t_mapping(t_uint256,t_mapping(t_uint256,t_struct(InFlight)15021_storage))": {
        "encoding": "mapping",
        "key": "t_uint256",
        "label": "mapping(uint256 => mapping(uint256 => struct OuterSpace.InFlight))",
        "numberOfBytes": "32",
        "value": "t_mapping(t_uint256,t_struct(InFlight)15021_storage)"
      },
      "t_mapping(t_uint256,t_struct(Fleet)15056_storage)": {
        "encoding": "mapping",
        "key": "t_uint256",
        "label": "mapping(uint256 => struct OuterSpace.Fleet)",
        "numberOfBytes": "32",
        "value": "t_struct(Fleet)15056_storage"
      },
      "t_mapping(t_uint256,t_struct(InFlight)15021_storage)": {
        "encoding": "mapping",
        "key": "t_uint256",
        "label": "mapping(uint256 => struct OuterSpace.InFlight)",
        "numberOfBytes": "32",
        "value": "t_struct(InFlight)15021_storage"
      },
      "t_mapping(t_uint256,t_struct(Planet)15049_storage)": {
        "encoding": "mapping",
        "key": "t_uint256",
        "label": "mapping(uint256 => struct OuterSpace.Planet)",
        "numberOfBytes": "32",
        "value": "t_struct(Planet)15049_storage"
      },
      "t_mapping(t_uint256,t_uint256)": {
        "encoding": "mapping",
        "key": "t_uint256",
        "label": "mapping(uint256 => uint256)",
        "numberOfBytes": "32",
        "value": "t_uint256"
      },
      "t_struct(Discovered)15037_storage": {
        "encoding": "inplace",
        "label": "struct OuterSpace.Discovered",
        "members": [
          {
            "astId": 15030,
            "contract": "src/OuterSpace.sol:OuterSpace",
            "label": "minX",
            "offset": 0,
            "slot": "0",
            "type": "t_uint32"
          },
          {
            "astId": 15032,
            "contract": "src/OuterSpace.sol:OuterSpace",
            "label": "maxX",
            "offset": 4,
            "slot": "0",
            "type": "t_uint32"
          },
          {
            "astId": 15034,
            "contract": "src/OuterSpace.sol:OuterSpace",
            "label": "minY",
            "offset": 8,
            "slot": "0",
            "type": "t_uint32"
          },
          {
            "astId": 15036,
            "contract": "src/OuterSpace.sol:OuterSpace",
            "label": "maxY",
            "offset": 12,
            "slot": "0",
            "type": "t_uint32"
          }
        ],
        "numberOfBytes": "32"
      },
      "t_struct(Fleet)15056_storage": {
        "encoding": "inplace",
        "label": "struct OuterSpace.Fleet",
        "members": [
          {
            "astId": 15051,
            "contract": "src/OuterSpace.sol:OuterSpace",
            "label": "owner",
            "offset": 0,
            "slot": "0",
            "type": "t_address"
          },
          {
            "astId": 15053,
            "contract": "src/OuterSpace.sol:OuterSpace",
            "label": "launchTime",
            "offset": 20,
            "slot": "0",
            "type": "t_uint32"
          },
          {
            "astId": 15055,
            "contract": "src/OuterSpace.sol:OuterSpace",
            "label": "quantity",
            "offset": 24,
            "slot": "0",
            "type": "t_uint32"
          }
        ],
        "numberOfBytes": "32"
      },
      "t_struct(InFlight)15021_storage": {
        "encoding": "inplace",
        "label": "struct OuterSpace.InFlight",
        "members": [
          {
            "astId": 15018,
            "contract": "src/OuterSpace.sol:OuterSpace",
            "label": "flying",
            "offset": 0,
            "slot": "0",
            "type": "t_uint64"
          },
          {
            "astId": 15020,
            "contract": "src/OuterSpace.sol:OuterSpace",
            "label": "destroyed",
            "offset": 8,
            "slot": "0",
            "type": "t_uint64"
          }
        ],
        "numberOfBytes": "32"
      },
      "t_struct(Planet)15049_storage": {
        "encoding": "inplace",
        "label": "struct OuterSpace.Planet",
        "members": [
          {
            "astId": 15042,
            "contract": "src/OuterSpace.sol:OuterSpace",
            "label": "owner",
            "offset": 0,
            "slot": "0",
            "type": "t_address"
          },
          {
            "astId": 15044,
            "contract": "src/OuterSpace.sol:OuterSpace",
            "label": "exitTime",
            "offset": 20,
            "slot": "0",
            "type": "t_uint32"
          },
          {
            "astId": 15046,
            "contract": "src/OuterSpace.sol:OuterSpace",
            "label": "numSpaceships",
            "offset": 24,
            "slot": "0",
            "type": "t_uint32"
          },
          {
            "astId": 15048,
            "contract": "src/OuterSpace.sol:OuterSpace",
            "label": "lastUpdated",
            "offset": 28,
            "slot": "0",
            "type": "t_uint32"
          }
        ],
        "numberOfBytes": "32"
      },
      "t_uint256": {
        "encoding": "inplace",
        "label": "uint256",
        "numberOfBytes": "32"
      },
      "t_uint32": {
        "encoding": "inplace",
        "label": "uint32",
        "numberOfBytes": "4"
      },
      "t_uint64": {
        "encoding": "inplace",
        "label": "uint64",
        "numberOfBytes": "8"
      }
    }
  }
}